:020000040800F2
:10C0000000000120BD310508D12F0508D32F0508F8
:10C01000D52F0508D72F0508D92F050800000000E7
:10C02000000000000000000000000000DD2F0508F7
:10C03000DB2F050800000000DF2F0508E12F0508B1
:10C04000E32F0508E52F0508E72F0508E92F050868
:10C05000EB2F0508ED2F0508EF2F0508F12F050838
:10C06000F32F0508F52F0508F72F0508F92F050808
:10C07000FB2F0508FD2F0508FF2F050801300508D7
:10C0800003300508053005080730050809300508A4
:10C090000D30050811300508133005081530050866
:10C0A00017300508193005081B3005081D30050834
:10C0B0001F300508213005083531050837310508DE
:10C0C000393105083B3105083D3105083F31050888
:10C0D0004131050843310508513105085331050840
:10C0E0005531050857310508593105085B310508F8
:10C0F0005D3105085F3105086131050863310508C8
:10C100006531050867310508693105086B31050897
:10C110006D3105086F310508713105087331050867
:10C120007531050877310508793105087B31050837
:020000040804EE
:10C0000020B10368197003680133036070472DE99C
:10C01000F041161E04460D4614DD002200E00132F8
:10C02000A95C0029FBD1B24203F00208B4BFC2EB05
:10C0300006060E46B8F1000F0CBF4FF020084FF077
:10C04000300801E04FF0200813F0010709D105E0A6
:10C0500020464146FFF7D4FF0137013E002EF7DCB2
:10C0600005E0002703E02046FFF7CAFF013715F877
:10C07000011B0029F7D105E020464146FFF7C0FF2C
:10C080000137013E002EF7DC3846BDE8F0812DE98E
:10C09000FF410A9F05460B9EDDF830C08E4651B920
:10C0A00030238DF804308DF805103A4601A9334647
:10C0B000FFF7ADFF3CE03BB10A2A07D1002905DAC2
:10C0C000C1F1000E012402E01C4600E0002404A996
:10C0D000002301F8013D0EE0BEFBF2F302FB13EE7C
:10C0E000BEF1090FC4BFACF13A0086440EF1300E28
:10C0F00001F801ED9E468846BEF1000FECD184B1F7
:10C100004FB116F0020F06D028462D21FFF778FF19
:10C11000013F012405E02D2301F1FF3801F8013C26
:10C120000024284641463A463346FFF770FF00197F
:10C1300004B0BDE8F0812DE9F0478AB006460D460F
:10C1400005920024DBE0252B40F0D38015F8013F59
:10C15000002B00F0D880252B00F0CB802D2B02D1B6
:10C1600001352C3B03E0002301E043F002032946A4
:10C1700015F8012B302AF8D0002702E00A2202FB32
:10C1800007070A780D46A2F130005FFA80FC013102
:10C19000BCF1090FF2D9732A09D1059A3046111D55
:10C1A000059111685C4A002908BF11469DE0642A88
:10C1B0000ED1059A01936123111D029300970591F9
:10C1C00030461168603B0A22FFF761FF241895E0B2
:10C1D000662A54D1059B073323F0070303F10802B5
:10C1E000D3E90001059219F09FFA0021804619F069
:10C1F00097FD38B12D238DF8183008F100480DF166
:10C20000190A01E00DF1180A404619F0B1FD0123A9
:10C2100000E013460A225A439042FADA90FBF3F206
:10C2200002F1300103FB12000A2293FBF2F30AF839
:10C23000011B002BF2D124328AF80020002F08BF06
:10C2400003279946404619F093FD19F077FB014604
:10C25000404619F0BDFA314919F0C4FB804619F087
:10C2600087FD09F101093030B9450AF8010FE9DB12
:10C2700000228AF80120304606A9202336E0782AD9
:10C280000AD1059A01936123111D0097029305912C
:10C2900030461168102219E0582A0BD1059A0193F3
:10C2A0004123111D02930097059130461168413BCF
:10C2B000102289E7752A0BD1059A01936123111D7C
:10C2C000009702930591304611680A22613B7BE793
:10C2D000632A13D1059A3046111D126805918DF815
:10C2E000242000228DF8252009A93A46FFF78FFE69
:10C2F0006CE730462978FFF783FE013401352B784F
:10C30000002B7FF420AF16B1336800221A7020464C
:10C310000AB0BDE8F08700BF309206080000204157
:10C32000014BD86C80B2704700240140014B186863
:10C33000704700BFBCA5002001461420B7F786BF98
:10C34000034B18801A8892B2002AFBD1704700BFB5
:10C35000C8A50020044B10B5196804460320B7F7A0
:10C3600075FF024B1C8010BD00300020CAA50020C4
:10C3700030B5002308E00A24B0FBF4F104FB1100FF
:10C380003030D054013388B2084A0028F3D1D05459
:10C390005910013BD31804E0145C5D7815545C70AF
:10C3A0000130013B8842F7DB004830BD803200207D
:10C3B00008B506200021B7F74DFF5A234343A3F5E4
:10C3C0008223A3F56B6340F2145093FBF0F00A3024
:10C3D0006428A8BF642020EAE07008BD0128ACBF33
:10C3E000014601210220B7F731BF00EBD070024BAC
:10C3F00040101860704700BF00300020052810B5BD
:10C4000007D8044B53F8200018B1046806F08EFDDD
:10C41000A04710BD58830608C0B2B7F717BF47F250
:10C420006623984201D1B7F705BFC0B2B7F712BF74
:10C4300043680A6823F4702323F4807313430A7952
:10C4400010B543EA022343608A68CB6884681A43C4
:10C45000094B04EA030342EA03034A7943EA42032D
:10C4600083600B7CC26A013B22F47002DBB242EAB9
:10C470000353C36210BD00BFFDF7F1FF002303604B
:10C48000037143718360C36001330374704719B152
:10C49000836843F0010302E0836823F001038360B3
:10C4A000704719B1836843F4807302E0836823F412
:10C4B000807383607047C9B212B14368194302E0C8
:10C4C000436823EA010141607047836843F0080331
:10C4D000836070478068C0F3C0007047836843F092
:10C4E0000403836070478068C0F38000704719B10F
:10C4F000836843F4A00302E0836823F4A00383600D
:10C5000070478068C0F3805070474368013923F456
:10C51000604343EA41334360704719B1436843F4D1
:10C52000006302E0436823F4006343607047092915
:10C5300070B54FEA41040BD964181E3C0725A5408D
:10C54000A340C66826EA050545EA0304C4600AE07C
:10C5500064180725A54013FA04F4066926EA0505C0
:10C5600045EA04030361062A0CD8013A02EB820271
:10C570001F2393409140446B24EA030343EA0102E2
:10C58000426370BD0C2A4FEA82030BD89A18233AF3
:10C590001F2393409140046B24EA030343EA010202
:10C5A000026370BD9A18413A1F2393409140C46AB8
:10C5B00024EA030343EA0102C26270BD19B1836831
:10C5C00043F4801302E0836823F480138360704790
:10C5D000C06C80B27047014B186870474C24014012
:10C5E00019B1436843F4806302E0436823F4806335
:10C5F0004360704719B1436843F4805302E04368D5
:10C6000023F4805343607047836823F4E04341EA96
:10C6100003038360704719B1836843F4004302E069
:10C62000836823F400438360704719B1836843F43F
:10C63000021302E0836823F402138360704780686A
:10C64000C0F340507047092970B54FEA41040BD937
:10C6500064181E3C0725A540A340C66826EA0505C8
:10C6600045EA0304C4600AE064180725A54013FAEC
:10C6700004F4066926EA050545EA04030361836BB1
:10C6800003F440146FEA145412190332D2B202EBCD
:10C6900082021F249440914023EA04030B438363E6
:10C6A00070BD836B013923F4401343EA0153836364
:10C6B000704782B00A5002B0704782B001902830B3
:10C6C000405880B202B07047436823F4400323F41B
:10C6D000007341EA0303436070474162826270471E
:10C6E000436823F01F0341EA030343607047054B8F
:10C6F00018B19A6842F4000202E09A6822F400023B
:10C700009A60704700240140036819420CBF002062
:10C7100001207047C943016070474368006810EA10
:10C72000112004D0C9B219420CBF0020012070476B
:10C730006FEA112101607047044B11B1DA681043B0
:10C7400002E0DA6822EA0000D86070470010024078
:10C7500007B5124B019098420DD0114B984212D060
:10C76000104B984219D14FF400700121FFF7E4FFFC
:10C770004FF400700EE04FF480600121FFF7DCFF02
:10C780004FF4806006E04FF400400121FFF7D4FF32
:10C790004FF400400021FFF7CFFF0EBD00280140FD
:10C7A000003C014000240140044B11B15A69104380
:10C7B00002E05A6922EA0000586170470010024006
:10C7C000044B11B19A69104302E09A6922EA000011
:10C7D000986170470010024008B50120FFF787FFFD
:10C7E00010210A4801220523FFF7A1FE0120FFF7CF
:10C7F000A7FD06480121FFF77AFE02210348FFF753
:10C8000083FF0128F9D1FFF78BFD08BD002401400B
:10C8100008B50120FFF76BFF11210A48012205230B
:10C82000FFF785FE0120FFF78BFD06480121FFF78A
:10C830005EFE02210348FFF767FF0128F9D1FFF7E9
:10C840006FFD08BD00240140024B0E2202FB0030A8
:10C85000704700BF70830608034B18801A8892B295
:10C86000002AFBD1704700BFC8A50020044A4FF43E
:10C87000805313604FF0C0421080024A136070472B
:10C88000141401401014014010B5EF20FFF7EEFF23
:10C890004FF0C0431A881C8818881A881988C3B2B8
:10C8A000C9B241EA046141EA0343120643EA124273
:10C8B000014B9A6010BD00BF80320020054B4FF441
:10C8C00080521A604FF0C0431880034802601980FC
:10C8D000704700BF14140140101401402DE9F041CD
:10C8E000E9204FF0C044FFF7C1FF20222280112031
:10C8F000FFF7BCFF6420FFF7AFFFD120FFF7B6FFC3
:10C90000002517225E232580D02023802280FFF778
:10C91000ADFF0C2607232380362023804FF04008EC
:10C920002680FFF7A3FF3046A4F800804936FFF7C2
:10C930009DFF26803A20FFF799FF2680C120FFF750
:10C9400095FF533E10232380C0202380268026801D
:10C95000FFF78CFF012735232580C5202380258004
:10C96000258027802680FFF781FF2780D220FFF7D0
:10C970007DFF22232780C8202380FFF777FF7322C3
:10C98000372327802280238004220F2325802380C1
:10C99000268022806722A4F80080228025808022C1
:10C9A0002680238008232380292022802580FFF7EA
:10C9B0005DFF2C20BDE8F04158E7002008B5014696
:10C9C000FFF77CFF00200146FFF778FF00200146BB
:10C9D000FFF774FF00200146FFF770FF0A20FFF702
:10C9E0003BFF01214FF4C060FFF768FF0A20FFF70B
:10C9F00033FF40214FF4DE60FFF760FF0A20FFF7AE
:10CA00002BFF4FF480604FF4C441FFF757FF08201D
:10CA100040F60801FFF752FF01204FF48071FFF745
:10CA20004DFF02204FF48071FFF748FF03203021B3
:10CA3000FFF744FF09200121FFF740FF0C200021F0
:10CA4000FFF73CFF90204FF40041FFF737FF0F2026
:10CA50000021FFF733FF10201621FFF72FFF1120D1
:10CA600040F20111FFF72AFF12200021FFF726FFF5
:10CA700013200121FFF722FF4FF480704FF44C7117
:10CA8000FFF71CFF40F2011040F23721FFF716FFBD
:10CA900040F203104FF47061FFF710FF4FF4207065
:10CAA0004FF4D641FFF70AFF4CF2B0114FF48170FA
:10CAB000FFF704FF6420FFF7CFFE4FF440704FF400
:10CAC0004061FFF7FBFE40F2013045F60B21FFF716
:10CAD000F5FE40F2023040F60611FFF7EFFE40F29D
:10CAE000033041F21701FFF7E9FE4FF441704FF4B4
:10CAF0000C51FFF7E3FE40F205304FF4B851FFF759
:10CB0000DDFE40F2063046F20931FFF7D7FE40F273
:10CB1000073040F60941FFF7D1FE4FF4427041F271
:10CB20000C01FFF7CBFE40F2093042F23221FFF751
:10CB3000C5FE4FF404700021FFF7C0FE40F2112043
:10CB4000EF21FFF7BBFE40F212200021FFF7B6FEF7
:10CB500040F2132040F28F11FFF7B0FE4FF4A060B7
:10CB60000021FFF7ABFE40F201500021FFF7A6FEC7
:10CB700040F202500521FFF7A1FE40F201400121E1
:10CB8000FFF79CFE002140F20440FFF797FE64206F
:10CB9000FFF762FE4FF480710720FFF78FFE6420DD
:10CBA000FFF75AFE4FF400700021FFF787FE0021C7
:10CBB00040F20120FFF782FE054A4FF480531360D4
:10CBC00040F202214FF0C0421180024A136008BDBA
:10CBD000141401401014014070B5104C4FF48053F0
:10CBE0004FF40065236001202560FFF735FE0C4BF4
:10CBF0000A201D60FFF730FE32202560FFF72CFE73
:10CC0000FFF742FE074B9A68074B9A4202D1BDE8F4
:10CC1000704063E6BDE87040CFE600BF10140140ED
:10CC20001414014080320020279304020B4B10B5EE
:10CC30009A680B4B4FF0C0449A4209D12E20FFF75F
:10CC400015FE238824882C20A4B2FFF70FFE02E0F3
:10CC500023882488A4B2204610BD00BF8032002063
:10CC6000279304020EB403B503AA52F8041B0190E3
:10CC700001A80092FFF75FFABDE80C4003B07047CF
:10CC8000AAE713B502AC24F8020D00200146B7F75D
:10CC9000BDFA20464BF68031B7F7C6FAB7F7C0FAAF
:10CCA00020464BF68031B7F7BFFAB7F7B9FA1CBD8B
:10CCB000C1F1EF0110B580B289B21446B7F7A6FAF8
:10CCC0002046BDE81040B7F7A3BAC1F1EF0110B597
:10CCD00080B289B2B7F79AFABDE81040B7F7C4BA84
:10CCE00038B5151A5C1A6C434BF67F35AC4280B2EE
:10CCF00002F1FF35C3F1F0020FD9C1F1EF0392B297
:10CD0000A9B29BB26508B7F789FA04A8A9B2B7F728
:10CD10008BFA641BB7F784FA06E0C1F1EF0392B215
:10CD2000A9B29BB2B7F77AFA04A8A1B2B7F77CFA16
:10CD3000B7F776FA002040F28F110246EF23B7F7DB
:10CD40006DFA38BD37B50D46B0F9021004464B1CDC
:10CD5000B0F90000B4F904200095FFF7C1FFB4F961
:10CD60000630B4F90000591EB4F904200095FFF70D
:10CD7000B7FFB4F90000B4F90210421CB4F9063050
:10CD80000095FFF7ADFFB4F90420B4F90210B4F92F
:10CD90000630501E0095FFF7A3FF3EBD2DE9F14F71
:10CDA0000A9C1E460B9B88461746511E04EB4309FE
:10CDB000C6F1F002C8F1EF03054689B280B292B223
:10CDC0009BB2B7F72BFAA2460CE03AF8020BB7F782
:10CDD0001FFACA4508BFA2460BF1010BBB45F4DBA5
:10CDE00008F10108B04501DAAB46F7E7002040F250
:10CDF0008F110246EF2301B0BDE8F04FB7F70EBA2E
:10CE00002DE9F843B0F80080044689461FFA88F7F8
:10CE1000002614E0B4F9065009E0C5F1EF013846E8
:10CE200089B2B7F7F3F9FFF701FF29F8020BB4F95C
:10CE30000230013D9D42F0DA01370136BFB20FFAF0
:10CE400088F2B4F90430B2189A42E3DBBDE8F88303
:10CE50002DE9F047C28843880D468188C2F1F0026F
:10CE60000139C3F1EF03044689B2008892B29BB244
:10CE7000B7F7D4F90026B4F8028010E0B4F80090B7
:10CE8000002703E035F8020BB7F7C2F90FFA89F271
:10CE9000B4F90430BA1801379A42F3DB01360FFABD
:10CEA00088F2B4F90630B2189A42E7DB002040F26B
:10CEB0008F110246EF23BDE8F047B7F7AFB913B5BE
:10CEC0000346B3F90240B3F90420B0F90000B3F906
:10CED000063000912146FFF703FF1CBD0268034B9B
:10CEE000DA6042681A6102685A6170478032002035
:10CEF00010B50B4C0246B4F91610B4F91400FFF744
:10CF0000D7FEA38AB4F910200133A3821BB29A4240
:10CF100004DCA389A382E38A0133E38210BD00BF4E
:10CF20008032002070472DE9F74F99460C9B019104
:10CF3000924613F801BB054600241DE018F8013B9A
:10CF4000FBB113F0040F4FF61E0305D09A450AD02B
:10CF500028463146524604E0994504D028463146D9
:10CF60004A46FFF7A5FE013701365F454346E5DB3C
:10CF700001340135502C03D0019E98460027F4E778
:10CF800008242046BDE8FE8F2DE9F0411E460F46DD
:10CF9000B6B2C7F1F00714460546B7F747F9B91B13
:10CFA000A8B289B2B7F732F920463146B7F73AF955
:10CFB000BDE8F041B7F734B930F0030309D131F0DF
:10CFC000030208D140EA81000449091891F8180EBB
:10CFD0007047002070471846704700BF5883060806
:10CFE0002DE9F04F85B004469A469DF839009DF82A
:10CFF00038300D4616469DF83AB002900393274606
:10D0000045E0C5EB0A01701E0139C01B3B1BC8EB94
:10D0100001019842A8BF18464145A8BF4146FFF705
:10D02000CBFF68BBC9F1EF0189B2B8B2B7F7EEF830
:10D03000B7F71AF91A4BC10001F0FF01C208000A44
:10D0400000EA0303C1EB0B000190DDF808C0039870
:10D0500002F0FC02C2EB0C0EC3EB000C03EB6C0302
:10D06000DDF804C0DB1001EB6C00C01040EAC32304
:10D0700002EB6E00801043EA401080B2B7F7C8F8A8
:10D0800009F1010908F10108D145BADB0137B742BE
:10D0900003DAA9464FF00008F6E705B0BDE8F08FC7
:10D0A000F8FF07002DE9F74F06468A4615461C464D
:10D0B000BDF830B088462DE00AF10303984509D148
:10D0C000E71E414630462A463B46CDF800B0FFF702
:10D0D00007FEB846B146002718E0A81B0138611EBC
:10D0E000C01BC8EB0101CAEB0803B842A8BF384611
:10D0F0009942A8BF1946FFF75FFF20B9484641464D
:10D100005A46FFF7D5FD09F101090137A945E4DBCE
:10D1100008F10108A045CFDBBDE8FE8F13B503463B
:10D12000B3F90240B3F90420B0F90000B3F90630B6
:10D1300000912146FFF7B6FF1CBD2DE9F74F019086
:10D140009DF830001F460D469246FFF77DFB4FF6D7
:10D150001E039F4283461DD100241BF80480019FBB
:10D160006FEA08085FFA88F8082618F0800F04D0E4
:10D17000384661195246FFF79BFD013EF6B2013772
:10D1800026B14FEA48085FFA88F8EEE701340E2C22
:10D19000E3D145E09A451FD100241BF80490DDF847
:10D1A00004806FEA09095FFA89F9082619F0800FEF
:10D1B00004D1404661193A46FFF77AFD013EF6B2C6
:10D1C00008F1010826B14FEA49095FFA89F9EDE74C
:10D1D00001340E2CE1D123E000241BF80490019EC1
:10D1E0006FEA09095FFA89F94FF0080819F0800F12
:10D1F00008F1FF38304614BF52463A4629465FFAD6
:10D2000088F8FFF755FD0136B8F1000F04D04FEA5A
:10D2100049095FFA89F9E9E7013401350E2CDCD1BF
:10D220000820BDE8FE8F2DE9F7430A9F05460E460C
:10D2300091469846AFB1387818B913E00A2B02D15D
:10D2400010362C4607E00093204631464A464346B6
:10D25000FFF773FF241817F8013B002BEED1601B7A
:10D2600000E03846BDE8FE83DDE72DE9F043A5B0D8
:10D2700015462CAA0E4652F8041B07460DF1080865
:10D2800023A899462292CDF88C80FEF754FF3146B0
:10D2900004462A4638464B46CDF80080FFF7E4FFA7
:10D2A000204625B0BDE8F08337B5124B05460C4645
:10D2B000009330211F2328204FF6FF72FFF7D4FF81
:10D2C00020211F234FF6FF7228200095FFF7CCFF87
:10D2D000A0B2FFF74DF8102100904FF6FF72282002
:10D2E0001F23FFF7C1FF4FF47A7003B0BDE8304051
:10D2F000FFF726B83792060808B502480421FFF761
:10D30000D3FFFEE7499206080FB430B5A5B028AAAE
:10D3100052F8041B02AC23A823942292FEF70BFFC1
:10D3200023941EE00A2B134C03D0A569B5F5C47FE6
:10D3300009DBE26900230E32E02AA361E2610DDD20
:10D340000C4AD3610AE000932846E1694FF6FF7268
:10D350004FF43043FFF7F1FE4019A061239B0133E6
:10D360002393239B1B78002BDCD125B0BDE83040F4
:10D3700004B07047803200202DE9F74FC0EB020B5C
:10D380005F1A1FFA8BFBBFB20FFA8BFA0FFA87F8FE
:10D390004FEADB3BFF0BBDF83090BAF1000FD4BF72
:10D3A000CBF1000BCBF1010BB8F1000FD4BF7F42E2
:10D3B000C7F10107BAF1000FB8BFCAF1000AB8F10E
:10D3C000000FB8BFC8F100084FEA4A0A4FEA480800
:10D3D00000921FFA8AFA1FFA88F84A460193044617
:10D3E0000D460FFA8AF6FFF763FC0FFA88F39E42A8
:10D3F00020DB1FFA88F8A8EB6606B6B216E016F432
:10D40000004F09D11EB94FFA8BF3002B04DD7BB21C
:10D41000CAEB0606ED18B6B24FFA8BF3E418464491
:10D42000204629464A46B6B2FFF742FC009B9C4282
:10D43000E5D11EE01FFA8AFAAAEB6306B6B215E040
:10D4400016F4004F09D116B97BB2002B05DD4FFA57
:10D450008BF3C8EB0606E418B6B27BB2ED1856445F
:10D46000204629464A46B6B2FFF722FC019B9D4260
:10D47000E6D1BDE8FE8F0020FFF7E6B908B5002130
:10D480000420B6F7E7FEC3439BB2C3F3802013F436
:10D49000006F1CBF40F0020080B213F4805F18BF21
:10D4A00040F4807013F0080F18BF40F0040013F42C
:10D4B000004F18BF40F0080013F0400F18BF40F4B1
:10D4C000007013F4804F18BF40F0100013F4005F99
:10D4D00018BF40F0200013F4807F18BF40F04000D8
:10D4E00013F4007F18BF40F0800008BD07B50B2083
:10D4F0000021B6F7AFFE40B9074B303000931E2134
:10D500001F224FF6FF73FFF78EFE1420002103B099
:10D510005DF804EBB6F79ABE6F920608024B01461F
:10D5200018712420B6F792BE00300020014B187904
:10D53000704700BF0030002070B50CE09C1804EB71
:10D54000D474641050F8246025468E4201D2621CC7
:10D5500001E004D9631E9342F0DA4FF0FF3528460C
:10D5600070BD2DE9F84F214C074604F56260083084
:10D570000E4615469846002215230C99FFF7DCFF4E
:10D58000B0F1FF3F9DF82890BDF82CA083462AD02B
:10D590000C9A174B05209A600021B6F757FE092018
:10D5A0003946B6F753FE0A203146B6F74FFE002043
:10D5B0002946B6F74BFE0B204146B6F747FE0C2036
:10D5C0004946B6F743FE04EB4B0401205146B6F73B
:10D5D0003DFE0720B4F8801EB6F738FE0820B4F8E8
:10D5E000AC1EB6F733FEBDE8F88F00BF58830608BF
:10D5F0000030002008B503200021B6F72BFEC0B292
:10D6000008BDB6F717BE08B506200121B6F71EFE05
:10D61000FEF78CFE014B186208BD00BF803200206F
:10D620002DE9F04106460C462220314615461F469C
:10D63000B6F70CFE21202146B6F708FE202047EA67
:10D64000C501BDE8F041B6F701BEB0F5805F70B529
:10D6500003DD0A48CA21FFF727FE094C04F580457F
:10D660002668FFF7CEFF06F07F4620F07F4040EAB5
:10D67000060644F8046BAC42F2D170BD88920608ED
:10D68000A43200204FF480507047B0F5805F10B591
:10D69000044603D30348DB21FFF706FE024800EBF4
:10D6A000840010BD88920608A432002010B5002125
:10D6B0000220B6F7CFFD00210120B6F7CBFD0021F7
:10D6C00000F001040320B6F7C5FD10F0010F18BFEC
:10D6D00044F00204204610BD08B5FEF727FE0B4BB0
:10D6E0001B6AC01A18F02AF9094918F02FFA094BD9
:10D6F000996818F02BFA084918F074F918F038FBFB
:10D70000B0F5805FA8BF4FF4805008BD8032002084
:10D7100000007A44003000200000F041034670B55C
:10D7200010200C4619461546B6F790FD11202146EB
:10D73000B6F78CFD12202946BDE87040B6F786BDCD
:10D74000094B10B51A68094C22F001021A60084A08
:10D75000146043F2B0521A60064A116090601A6871
:10D7600042F001021A6010BD4404024008740040F7
:10D770004C04024048040240034B0121A3F83C0D35
:10D7800003F552601C30DBE76865002001460D2080
:10D79000B6F75CBD00487047A672002008B5034686
:10D7A00002730020012A587305D11A46094808332C
:10D7B000B6F76CFD06E0022A09D11A46054808337F
:10D7C000B6F762FDD0F1010038BF002008BD01208E
:10D7D00008BD00BFA672002008B5034608461946DA
:10D7E000B6F756FDD0F1010038BF002008BD10B5D6
:10D7F000044608462146B6F74DFD20B9637B01304B
:10D800000133637310BD002010BD10B5037B0446C7
:10D81000022B10D1B1F1FF3F08BF417B224608BF68
:10D820004902074804F10803B6F736FD28B9032377
:10D830002373013010BD012010BD002010BD00BFBA
:10D84000A6720020024B034A93FBF0F3138170474A
:10D8500000A24A040038014005E0054A118811F091
:10D86000800FFAD0938010F8013B002BF5D1704760
:10D87000003801400F4B10489A6942F480429A6187
:10D880000E4A40F27123138142F22C0393811388D4
:10D8900023F4A46323F005031B041B0C1380084B23
:10D8A0005A6822F47F6242F40A625A604FF480623E
:10D8B0001A61D1E700100240B29206080038014018
:10D8C0000008014010B54FF4FA70FEF739FDFFF77C
:10D8D000D7F9FFF70BFEBDE81040CBE705F058BBCA
:10D8E000034B1A8812F0800FFAD09880704700BF5F
:10D8F000003801400E200021B6F7ACBC0D200021FD
:10D90000B6F7A8BC0F200021B6F7A4BC1020002158
:10D91000B6F7A0BCB6F792BC014B9868704700BF41
:10D92000803200202DE9F0433F3189B0234B8046FF
:10D9300087B28CB2ADF1020213F8010C1978C01055
:10D940008910C002490141185878043301EBD00115
:10D9500022F8021F1A498B42EED11A4E3D4616F8A4
:10D96000013B08AA1B0902EB430328460135214667
:10D9700033F8202CADB208F1FF09FFF799F94D45B6
:10D9800002DD013CA4B23D4616F8013C08AA03F0B2
:10D990000F0302EB430328460135214633F8202CC0
:10D9A000ADB2FFF785F94D4502DD013CA4B23D461D
:10D9B000054B9E42D3D109B0BDE8F08337D80308A8
:10D9C00077D8030876D8030876F80308704700BFB5
:10D9D000014B1860704700BFA87400207047014BCE
:10D9E00018687047A874002037B5FEF79FFC294CD3
:10D9F0002368B3F1FF3F08BF20602368C51AB5F55F
:10DA00007A7F0ED94FF47A72B5FBF2F502FB05333B
:10DA100020490B6004F0EEFE00F52C50436FED182A
:10DA20004567FFF72BFDADF8060000B9A08004F0B4
:10DA3000E1FE00F540500DF106014C3003F07EFC94
:10DA400004F0D8FE00F540504C300DF1060103F013
:10DA50007DFCBDF80630ABB104F0CCFE0221BDF870
:10DA6000062008F0E5FFBDF80620A3889A4206D0FC
:10DA7000094B1B681B7A13B93220FEF76BFCBDF80B
:10DA80000630A38004F0B6FE0321002208F0D0FF88
:10DA900001203EBD10300020DCA5002010B5FFF7AE
:10DAA00011FF04F0A7FE08F080FD04F0A3FE0121A1
:10DAB000002208F0BDFF13F0CDFD13F085FD13F03B
:10DAC000EDFBBDE81040FFF79EBD00BF08B5036841
:10DAD00049421B6849B2984708BD0000014B1868CD
:10DAE000704700BF48A5060870470120704743688B
:10DAF000826819688A181A607047436882681968D2
:10DB00008A1A1A6070470820704783681B78CB1800
:10DB100005D4027B9342CCBF002001207047002037
:10DB2000704783681A7801321A70704783681A78D0
:10DB3000013A1A70704783681970704783681878C3
:10DB4000704702207047182070470220704700205D
:10DB5000704700207047082070470000034B1B6887
:10DB6000586A0028B8BF033080107047DCA5002039
:10DB70000020704719207047034B1B68986A0028E3
:10DB8000B8BF033080107047DCA50020002070472C
:10DB90001920704770477047436882681B68CB182C
:10DBA000934205DBC0688342CCBF00200120704750
:10DBB0000020704743681A6801321A607047436852
:10DBC0001A68013A1A60704702484FF48871FFF7EB
:10DBD0006BBB00BFC89F060808B5034840F20F1191
:10DBE000FFF762FB002008BDC89F060802484FF4FB
:10DBF0008771FFF759BB00BFC89F0608024840F273
:10DC00000D11FFF751BB00BFC89F060802484FF433
:10DC10008671FFF749BB00BFC89F060808B50348D7
:10DC20004FF48571FFF740FB022008BDC89F06082E
:10DC300039B9042A05D146F26742934201D108F06E
:10DC40007DB8704739B9042A05D146F2674293423C
:10DC500001D108F073B8704739B9042A05D146F2EA
:10DC60006742934201D108F069B87047C36A70B542
:10DC700004460D461BB90B484221FFF715FB15F072
:10DC8000100F08D0E168E36A204646F66352BDE80B
:10DC9000704008F05AB820462946BDE8704008F0A8
:10DCA000CAB800BFE29F060811F0100F70B5054614
:10DCB0000C4605D0C16846F66F52002308F045F8BF
:10DCC00028462146BDE8704008F0B5B811F0010FB4
:10DCD00070B504460D4615D0C06A012103685B6823
:10DCE000984701280ED1E06A00210368DB68984755
:10DCF000204608F023F82046E16847F270520023DE
:10DD000008F023F815F0020F15D0E06A012103682E
:10DD10001B68984701280ED1E06A002103689B68C0
:10DD20009847204608F00AF82046E16847F270520A
:10DD3000002308F00AF815F0100F0ED0E06A03680F
:10DD4000DB699847084B1B68984206D02046E1687B
:10DD500046F66542E36A07F0F8FF20462946BDE82B
:10DD60007040FFF7A1BF00BF48A5060811F0010FE2
:10DD700070B504460D460DD0C36A002B0ADD013B89
:10DD8000C36207F0DBFF2046E16846F67512002308
:10DD900007F0DBFF15F0020F0ED0E36A132B0BDC4C
:10DDA0000133E362204607F0C9FF2046E16846F6EA
:10DDB0007512002307F0C9FF20462946BDE87040D0
:10DDC000FFF772BF11F0010F70B504460D460DD07C
:10DDD000C36A012B0ADD013BC36207F0AFFF204697
:10DDE000E16846F67512002307F0AFFF15F0020F49
:10DDF0000ED0E36A1D2B0BDC0133E362204607F0F3
:10DE00009DFF2046E16846F67512002307F09DFF4E
:10DE100020462946BDE87040FFF746BF11F0200FAD
:10DE200070B505460C4606D0C06846F278520146E9
:10DE3000002307F08AFF28462146BDE8704007F01E
:10DE4000FABF000011F0010F70B504460D4615D061
:10DE5000006A012103685B68984701280ED1206A97
:10DE600000210368DB689847204607F067FF2046DB
:10DE7000E16847F27052002307F067FF15F0020FC8
:10DE800015D0206A012103681B68984701280ED12C
:10DE9000206A002103689B689847204607F04EFFE0
:10DEA0002046E16847F27052002307F04EFF15F05C
:10DEB000100F0ED0206A0368DB699847084B1B6877
:10DEC000984206D02046E16846F66542236A07F08C
:10DED0003CFF20462946BDE87040FFF79FBF00BFCA
:10DEE00048A5060811F0010F70B504460D4615D07F
:10DEF000C06A012103685B68984701280ED1E06A77
:10DF000000210368DB689847204607F017FF20468A
:10DF1000E16846F67512002307F017FF15F0020FAF
:10DF200015D0E06A012103681B68984701280ED1CB
:10DF3000E06A002103689B689847204607F0FEFED0
:10DF40002046E16846F67512002307F0FEFE2046E3
:10DF50002946BDE8704007F06EBF0000C36A70B587
:10DF600004460D461BB91A482A21FFF79DF915F002
:10DF7000100F08D0E168E36A204646F66352BDE818
:10DF8000704007F0E2BEE36A1A79043AD2B2012A7D
:10DF900017D815F0010F08D0DA6812F1FE0F04DB74
:10DFA000013ADA60204607F0C9FE15F0020F08D0EA
:10DFB000E36ADA68FE2A04DC0132DA60204607F000
:10DFC000BDFE20462946BDE8704007F034BF00BFC3
:10DFD0000DA00608C36A70B504460D461BB91D485E
:10DFE0002221FFF761F915F0100F08D0E168E36A0C
:10DFF000204646F66352BDE8704007F0A6BE15F015
:10E00000010F0ED0E36A1A795AB1013A1A7120460B
:10E0100007F094FE2046E16846F67512E36A07F0C1
:10E0200094FE15F0020F0FD0E36A1A790B2A0BD871
:10E0300001321A71204607F081FE2046E16846F65B
:10E040007512E36A07F081FE20462946BDE870405C
:10E0500007F0F1BE3BA0060830B50284002501227E
:10E06000456280F82820BDE8304007F02BBE000054
:10E070007FB5043302AC05460E4693E8030084E8FE
:10E080000300BDF80E30284604339BB2ADF80A30C9
:10E090000733ADF80E30044942F0020223460096E1
:10E0A00007F010FE7FBD00BF6AA006087FB50433ED
:10E0B00002AC05460E4693E8030084E80300BDF871
:10E0C0000E30284602339BB2ADF80A300733ADF864
:10E0D0000E30044942F002022346009607F0F2FD9A
:10E0E0007FBD00BF76A0060830B5049D02840122E2
:10E0F0004562BDE8304007F0E5BD2DE9FF410A9ECD
:10E100000D4600214162028480F8283004464FF019
:10E110001108304608FB03F807F08CFD5FFA88F819
:10E1200002AF68B1304607F085FD043003C887E8C8
:10E130000300BDF80E3002339BB2ADF80A3006E0A2
:10E14000331D93E8030087E80300BDF80A309844C4
:10E1500020462946012202ABADF80E80009607F05A
:10E16000B1FDBDE8FF81FFF7C8BF00002DE9F04118
:10E17000DDF81880044615461F460E4621B90848AA
:10E180004FF40371FFF790F8204629463A460223E0
:10E19000E662CDF81880BDE8F041FFF7AEBF00BFE2
:10E1A000C89F0608DBB2FFF7A8BFFFF7A6BF10B5F0
:10E1B0000A24C462BDE81040FFF79FBF10B50A24CF
:10E1C000C462BDE81040FFF798BF000073B5044675
:10E1D00016460D4619B907480C21FFF765F8E562A8
:10E1E0002046002146F20C3202230096FFF785FFFD
:10E1F0007CBD00BF0DA0060810B50524C462BDE8B3
:10E200001040FFF77ABF13B503469C685B6824781B
:10E21000088853F82430B1F9021000934FF6FF73C9
:10E22000002A14BF1A4600224FF61E03FEF7FBFF1A
:10E230001CBD00002DE9F341274DB0F906402B68C5
:10E24000B0F90460B3F84C20244B214600933046CB
:10E250000023FEF7E8FF2B68214F93F84A30214650
:10E2600057F82330801900934FF6FF720023FEF712
:10E27000DAFF2B6806F16408B3F86020194B2146D9
:10E28000009340460023FEF7CEFF2B68214693F80B
:10E290005E30404457F823304FF6FF72009300235E
:10E2A000FEF7C1FF104BC8360093214600233046CD
:10E2B0004BF29652FEF7B7FF2B68801993F898201F
:10E2C0000A4B214653F822304FF6FF720093002389
:10E2D000FEF7A9FFBDE8FC81DCA5002023DB0608D2
:10E2E0004CA6060809DC060882A00608B4A60608A3
:10E2F00013B504300021FEF7E2FD2D4B40210093C1
:10E300000420002348F21042FEF78DFF294B5021D4
:10E310000093294C0023042048F21042FEF783FFAB
:10E3200060210023082044F208220094FEF77BFFBE
:10E33000224B702100930420002348F21042FEF784
:10E3400072FF1F4B802100930420002348F21042EB
:10E35000FEF769FF1B4B902100930420002348F235
:10E360001042FEF760FFB0210023082044F208228B
:10E370000094FEF758FF144BC0210093042048F28C
:10E3800010420023FEF74FFF104BD02100930420D2
:10E39000002348F21042FEF746FF0D4B0420009385
:10E3A000E02148F210420023FEF73DFF1CBD00BFF4
:10E3B00086A0060897A00608A4A00608CDA0060817
:10E3C000E4A0060800A1060811A1060824A1060879
:10E3D0003CA10608F7B50E88154B083E4FF6FF75B1
:10E3E000002A08BF0025B6B20C460746B1F9021054
:10E3F0002A46009330464FF61E03FEF794FD7B68D5
:10E400003618B6B2B4F90210009330462B464FF6D8
:10E410001E02FEF708FF074B30180093B4F90210F4
:10E420002A464FF61E0380B2FEF77DFDFEBD00BFFB
:10E430006AF00608DCF0060873B5044607F06EFCC7
:10E44000A688144B083E4FF6FF75002808BF00252C
:10E45000B6B2B4F9061000932A4630464FF61E03B2
:10E46000FEF761FDE3693618B6B2B4F90610009301
:10E4700030462B464FF61E02FEF7D5FE064B3018EF
:10E480000093B4F906102A464FF61E0380B2FEF739
:10E490004AFD7CBD6AF00608DCF0060813B50446A8
:10E4A0004FF6FF710430FEF70AFDB4F90400B4F929
:10E4B0000A10054B08300093143900224FF61E0352
:10E4C000FEF7B1FE1CBD00BF49A1060808B5836870
:10E4D0001A78436853F8220017F068FFC3004FF61C
:10E4E000F87003EA000008BD7FB5436804460D4696
:10E4F000164623B912484FF42F71FEF7D5FE636814
:10E500001A68A36892FBF3F20A2392FBF3F103FB70
:10E5100011220023ADF80C30303204AB03F8042D87
:10E520004FF6FF720093B5F90000B5F90210002E06
:10E5300008BF00224FF61E03FEF796FE7FBD00BF08
:10E54000C89F060870B50E4615461C4607F06BFBC3
:10E550002A46014623463046BDE8704007F0F5BB29
:10E5600011F0130F70B505460C4607D007F05BFBA2
:10E57000022201462346284607F0E7FB28462146AB
:10E58000BDE8704007F057BC11F0010F2DE9F041D4
:10E5900004460D4616D0006A012103685B6898475F
:10E5A00080B1206A00210368DB689847204607F0A5
:10E5B0003AFB07F0C3FBE06847F27052C1680023E2
:10E5C00007F0C3FB15F0020F16D0206A0121036883
:10E5D0001B68984780B1206A002103689B689847B0
:10E5E000204607F020FB07F0A9FBE06847F27052D5
:10E5F000C168002307F0A9FB15F00C0F0FD00C4EDB
:10E60000204629463768FFF709FC3368BB420CD027
:10E61000204607F008FBBDE8F04107F08FBB20461D
:10E620002946BDE8F041FFF7F9BBBDE8F08100BF26
:10E63000F0A5002010B50C4607F0F5FA0368214656
:10E640005B68984710BD11F0130F10B50C4606D04B
:10E6500007F0E9FA036821465B68984710BDBDE8FA
:10E66000104007F0E8BB000011F0030F10B507D011
:10E67000FFF738FC044B1868BDE8104006F092B86C
:10E68000BDE81040FFF72EBCDCA5002011F0030F01
:10E6900010B507D0FFF726FC044B1868BDE8104002
:10E6A00006F080B8BDE81040FFF71CBCDCA50020D8
:10E6B00011F0030F10B507D0FFF714FC044B1868D6
:10E6C000BDE8104006F06EB8BDE81040FFF70ABC88
:10E6D000DCA5002008B54368B3F9000007F0CAF8CC
:10E6E00017F064FEC3004FF6F87003EA000008BD9F
:10E6F0004368F7B54FF6FF7604460D46002A08BF7B
:10E7000000261BB913489721FEF7CEFD6368B5F9C3
:10E7100000701868A368984202DBE36898420ADD3B
:10E720000D4BB5F902100093384632464FF61E03E2
:10E73000FEF779FD0CE000B2B5F9024007F09AF857
:10E7400021460090324638464FF61E03FEF78CFDF8
:10E75000FEBD00BF56A1060871A106082DE9F047CD
:10E760001F4647F270539A4204460D4616463FD163
:10E7700000F1380399423BD1436A93F80480A8F131
:10E7800004095FFA89F9B9F1010F8CBF4FF0000954
:10E790004FF00109B9F1000F06D0A8F10503D3F13C
:10E7A000000848EB030801E04FF0010804F1A00A5B
:10E7B000504607F0ACFB814506D04946504607F06D
:10E7C000CCFA4FF0010901E04FF0000904F16C0AA6
:10E7D000504607F09CFB804504D05046414607F068
:10E7E000BCFA02E0B9F1000F02D0204607F0A6FA09
:10E7F0002046294632463B46BDE8F047FFF7A2BE19
:10E80000F7B543680E881C88083E134BB6B20D4618
:10E810002246B1F90210304600934FF61E03FEF770
:10E8200082FB36182046B5F9027007F067F8B6B2D9
:10E8300000903946234630464FF61E02FEF714FD7F
:10E84000064B30180093B5F9021022464FF61E030E
:10E8500080B2FEF768FBFEBD6AF00608DCF0060831
:10E8600044F644418A4201D107F07CBC44F645415C
:10E870008A4202D1012280F82020704744F64443A6
:10E880009A4201D107F06EBC44F645439A4202D148
:10E89000642107F06DBB704711F0100F70B504468E
:10E8A00017D007F0C2F918B90A483D21FEF7FCFC61
:10E8B000204607F0B8F90546204607F0B6F90346AA
:10E8C000DB692046294646F26452BDE8704007F0F5
:10E8D0003CBA70BD73A1060801804280704710B534
:10E8E0008380BDF8083001804280C38010BD0000E5
:10E8F0007FB5DE2305460E461446009300211622FE
:10E90000D33B02A8FFF7EBFF2846044944F002027C
:10E9100002AB009607F0D6F97FBD00BF96A10608AE
:10E920007FB5152305460E46144600930C21102290
:10E9300002A84FF49C73FFF7D2FF2846034944F026
:10E94000020202AB009607F0BDF97FBDAAA106083E
:10E950007FB5F02305460E46144600930021102291
:10E96000A03302A8FFF7BBFF2846044944F0020287
:10E9700002AB009607F0A6F97FBD00BFBDA1060857
:10E980007FB5F02305460E46144600930021102261
:10E99000A03302A8FFF7A3FF2846044944F002026F
:10E9A00002AB009607F08EF97FBD00BFC9A1060833
:10E9B0007FB5F02305460E46144600930021102231
:10E9C000A03302A8FFF78BFF2846044944F0020257
:10E9D00002AB009607F076F97FBD00BFD9A106080B
:10E9E00070B5F02388B004460E461546009300210A
:10E9F0001022A03306A8FFF772FF20461A4945F0FF
:10EA0000200206AB009607F05DF9B4F90A204FF436
:10EA1000967100924FF4A573103A04A8FFF75FFFB8
:10EA200004F140001149012204AB009407F04AF9B7
:10EA3000B4F90A204FF4B47100924FF4C373103A42
:10EA400002A8FFF74CFF04F120000949012202ABA4
:10EA5000009407F037F900232366FEF713FE013810
:10EA6000606608B070BD00BFE9A10608F6A10608FF
:10EA7000FBA106087FB5F02305460E461446009319
:10EA800000211022A03302A8FFF729FF28460449DD
:10EA900044F0120202AB009607F014F97FBD00BFEC
:10EAA00000A206087FB5F02305460E4614460093E3
:10EAB00000211022A03302A8FFF711FF28460349C6
:10EAC000224602AB009607F0FDF87FBD10A20608B3
:10EAD000B0F90420B0F90030D0184010704707B5E5
:10EAE000B0F90030B0F90410B0F90620C918B0F937
:10EAF00002304910D218521001A8FFF7EDFE019B19
:10EB000000209AB262F30F001B0C63F31F400EBD8E
:10EB100010B5048809190180418852184280828802
:10EB2000D31A8380C288029BD31AC38010BD10B54C
:10EB30000488611A018041888A1A428082889B1861
:10EB40008380029AC388D318C38010BDB0F9042013
:10EB5000B0F90030D01A7047F0B587B004AC051D8D
:10EB6000064695E8030084E80300012100220B46D5
:10EB700020460092FFF7DBFF204648F21041FEF7E7
:10EB80009EF994E80300184B02AF1B6887E8030066
:10EB90002846B3F89A40FFF7D9FFBDF80A3004FBC6
:10EBA00000F20133ADF80A3004F59674BDF80E306A
:10EBB0004443013BADF80E30B388384603EB2232B4
:10EBC00003EB2434BDF81430ADF80C40ADF8082048
:10EBD00024B21AB29442C8BFADF80C300021FEF73F
:10EBE0006EF907B0F0BD00BFDCA5002073B5051DB0
:10EBF000002104462846FEF762F90F4B1B68B3F864
:10EC0000AA60B3F89A30F61A36B2002E12DB284604
:10EC1000FFF79CFF86420DDAB4F90400074B043875
:10EC20000093B4F90610801946F20C324FF61E0319
:10EC3000FEF779F97CBD00BFDCA50020D6EF060801
:10EC400030B5051D85B0044600212846FEF737F98A
:10EC5000384B802100930420002348F21042FEF735
:10EC6000E2FA354B8021009360230193A020603BA2
:10EC70004BF29652FEF7F9FA304B902100930420A4
:10EC8000002348F21042FEF7CEFA2D4B902100935C
:10EC9000A02000234BF29652FEF7C5FA294BA02183
:10ECA00000930420002348F21042FEF7BCFA264BE2
:10ECB000A0200093014600234BF29652FEF7B3FAD0
:10ECC000224BB02100930420002348F21042FEF7AB
:10ECD000AAFA1F4BB0210093A0204BF296520023BA
:10ECE000FEF7A1FA1B4BC02100930420002348F239
:10ECF0001042FEF798FA184BC021009304230193A9
:10ED000001330293033B03934BF29652023BA02044
:10ED1000FEF7ABFA2846FFF719FFB4F90610A0F585
:10ED2000807000EBD0704010183105B0BDE8304065
:10ED3000FEF7F8BD1AA206082CA2060838A206089B
:10ED400042A206084AA2060854A2060861A20608C2
:10ED500071A2060886A2060898A20608F7B5061D45
:10ED6000002105463046FEF7AAF8514B802148F2B3
:10ED70001042009304200023FEF755FAFEF7BEFD73
:10ED80008021002300904BF29652A020FEF74BFA10
:10ED9000484B902148F21042009304200023FEF7D4
:10EDA00042FAFEF7AFFD9021002300904BF29652FD
:10EDB000A020FEF738FA404BA02148F21042009301
:10EDC00004200023FEF72FFAFEF7A0FD0090A020FC
:10EDD000002301464BF29652FEF725FA374BB0213D
:10EDE00048F21042009304200023FEF71CFAFEF7BD
:10EDF00081FDB02100234BF296520090A020FEF737
:10EE000012FAFEF789FD2E4B0446009304200023DE
:10EE1000C02148F21042FEF706FA2A4B2A4F9C42C4
:10EE200004D02A4B9C4203D064B114E0284B00E08C
:10EE3000284B0093A020C0214BF296520023FEF7EE
:10EE4000F2F911E0244BA0200093C0214BF296521E
:10EE50002346FEF7E8F9A020C0214BF2965200238A
:10EE600000970194FEF701FA1C4BD021009348F261
:10EE7000104200230420FEF7D6F9FEF74BFDD02107
:10EE800001904BF296520023A0200097FEF7EDF977
:10EE90003046FFF75BFEB5F90610A0F5807000EB79
:10EEA000D0704010183103B0BDE8F040FEF73ABD15
:10EEB000A5A20608B7A20608C7A20608D5A206089A
:10EEC000E2A206087667610006A3060827930402FB
:10EED000F2A20608F6A20608FEA206080BA3060880
:10EEE000B0F90620B0F90230D01A70470388CB1869
:10EEF00003808388C91843888180D3184380C388DE
:10EF0000D218C28070470023038043808380C3806F
:10EF10007047B0F90420B0F900309A42D4BF002005
:10EF2000012070472DE9F04F00F126068BB0044612
:10EF30003046FFF7EEFF0546002847D108AF04F141
:10EF4000040898E8030087E8030001210A460B46FD
:10EF500038460091FFF7EBFD38464BF29651FDF72E
:10EF6000F1FE29464046FDF7AAFF48F21042ADF8EF
:10EF70001650ADF81850ADF81A50ADF81C50ADF859
:10EF800014201935B4F90400B4F90A3005AA281878
:10EF9000009205220192043B421CB4F90610193577
:10EFA000FDF7FCFEFA2DEDD1E13DB4F9061005ABFD
:10EFB0006918009305230193B4F904004B1CB4F9BC
:10EFC00008201935FDF7EAFEC82DEED1236A002B83
:10EFD00000F0A780251D2846FFF7B8FD804628468B
:10EFE000FFF77EFFB4F90AA0323803902046AAF159
:10EFF000190A06F093FE60B1216BA38C01FB08F1A6
:10F0000098FBF3F202EBD27291FBF3F303EB620392
:10F0100001E06FF0130330460293FFF77AFF18B94F
:10F02000E084A4F82A802BE0B4F90420B4F9263057
:10F0300000259A42A8BF1346E384B4F90820B4F926
:10F040002A3001219A42B8BF134663852A460B46EF
:10F0500030460095FFF75CFD30462946FDF72FFF4F
:10F06000012130462A460B460095FFF760FDB4F9B2
:10F070000410B4F90620304649425242FFF736FFE9
:10F080004FF00009E58CCB4644E0A28C236A6A432A
:10F0900092FBF8F233F81270B7F5805F03D3224881
:10F0A0005D21FEF701F9039AB4F92630574344BFB6
:10F0B00007F57E671F373F13B4F90420BFB29D42A6
:10F0C00008BFBB46AA184FF6FF730093501EC7EB4C
:10F0D0000A03CBEB0A01FEF74FF9029B9D4208BFE2
:10F0E000B94603339D4212D1B4F904000F4B626B51
:10F0F0000638AAF1040100934019C9EB0101082A5E
:10F1000014BF16221F224FF61E03FDF70CFF013518
:10F11000ADB2BB46B4F92A309D42B6DB3046FFF7AC
:10F12000F2FE0BB0BDE8F08F1AA3060804FA060839
:10F1300013B50446B4F90220B0F90000B4F9063062
:10F140000091114600F10C02FDF7ACFFB4F900008C
:10F15000B4F90210B4F90420B4F9063008304BF2C7
:10F1600096540094FDF7BCFD1CBD37B50446B4F9B8
:10F170000250B0F90000B4F90420B4F906300238A6
:10F1800000912946FDF78EFFB4F90000B4F9021092
:10F19000B4F90420B4F9063006304FF6FF7401319B
:10F1A000013A013B0094FDF77DFF3EBD07B50346E4
:10F1B000B0F900000022B3F90210B3F90630009252
:10F1C00000F10802FDF78CFD0EBD37B50446B0F91D
:10F1D0000000B4F90210B4F90630002500F108026D
:10F1E0000095FDF77DFDB4F90420B4F90210B4F9DF
:10F1F0000630101F0095FDF773FD3EBD436A37B51D
:10F2000004460BB11B880384204606F087FD231DAE
:10F2100018B11846FFF7D9FF02E01846FFF7C6FFFE
:10F22000A38820460433A38006F078FD0546218C90
:10F23000201D5DB1FFF799FFE369B3B1B4F9040094
:10F24000B4F9061000930C3000220AE0FFF770FFBB
:10F25000E36953B1B4F90400B4F9061000930C301B
:10F260002A464FF61E03FDF7DEFFA388043BA3806A
:10F270003EBD0000C36A2DE9F0431F795B79A7F119
:10F280000102574247EB020748F21048002F18BF0F
:10F290004FF00008012B87B0044608D002D3022BA0
:10F2A0000FD109E03A4B1B68B3F84C3008E0384BFB
:10F2B0001B68B3F8603003E0354B1B68B3F8BE3110
:10F2C00003862046FFF79AFFE36AB4F904909A791F
:10F2D000304BB4F9065053F8223009F10E06009372
:10F2E0003046294642464FF61E03FDF79CFF002F8D
:10F2F0004BD0E36A284A99799F6852F821403846F2
:10F300000021103516F00CFD68B1244B30460093F7
:10F31000424629464FF61E03FDF705FE07F100425F
:10F320008619174601E009F11406384615F06EFFFC
:10F3300002460B4602A81A49FDF794FC05E006AA0E
:10F3400002EB0903002203F8112C02AF384617F034
:10F350002DF88146204617F029F848440728EED8B2
:10F360003046294642464FF61E030097FDF77CFFC4
:10F370005CB123784BB104363018294644F2082298
:10F380004FF61E030094FDF74EFF07B0BDE8F08373
:10F39000DCA50020F0A7060820A80608AEF906089C
:10F3A00046A30608F0B5C669002585B00446C561C8
:10F3B000FFF724FFE661231D02AE93E803002A460F
:10F3C00086E803002B46304610210095FFF7A0FB8E
:10F3D000E3692A46BDF90A100093BDF908004FF60B
:10F3E0001E03FDF720FFBDF80A3020461033ADF8AC
:10F3F0000A3006F093FC0246002837D0BDF80870AA
:10F400001E4B083FBFB2BDF90A102A46009338B21E
:10F410004FF61E03ADF80870FDF785FD3818ADF8FE
:10F420000800E06A03685B699847BDF90A1007465F
:10F43000BDF9080001F10E033A180095FDF750FCE4
:10F44000E06A3146036801221B699847BDF808301D
:10F45000BDF90A10FF180A4B38B200932A464FF63E
:10F460001E03ADF80870FDF75EFD04E0E06A31466A
:10F4700003681B69984705B0F0BD00BF6AF0060835
:10F48000DCF00608F0B5044685B0FFF7B7FEB4F926
:10F490000450B4F90670E3691035009328463946E4
:10F4A00000224FF61E03FDF7BEFE204607F11006B0
:10F4B00006F034FC00282ED0234B31460022009366
:10F4C00028464FF61E03FDF72EFD4519E06A1E374C
:10F4D00003685B69984732464319294602A800979A
:10F4E000FFF7FDF9002102A8FDF7E9FCE76A2046D5
:10F4F0003B681D6906F012FC02A902463846A8477F
:10F50000124BBDF90C000093314600224FF61E034A
:10F51000FDF709FD15E0E06A1E3703685B6998474F
:10F5200029464319324602A80097FFF7D8F9E66A40
:10F53000204633681D6906F0F1FB02A902463046F9
:10F54000A84705B0F0BD00BF6AF00608DCF0060869
:10F55000FFF754BE13B50446FFF750FE084BB4F94D
:10F5600004000093E36AB4F9061003EB83030193EC
:10F570001C30103100224FF61E03FDF776FE1CBD35
:10F5800031D3060813B50446FFF738FE084BB4F92B
:10F5900004000093E36AB4F9061003EB83030193BC
:10F5A0001C30103100224FF61E03FDF75EFE1CBD1D
:10F5B00031D3060873B50546FFF720FEEB6AB5F9AF
:10F5C0000440B5F906601B690E34002200933146F1
:10F5D0004FF61E032046FDF726FEEB6A31461A79E8
:10F5E000114B001953F82230002200934FF61E03EE
:10F5F000FDF719FEEB6A06F110011A79052A01D10F
:10F600000A4A06E0042A03D0094A00929B6802E0F5
:10F61000084A0092DB680193204600224FF61E0341
:10F62000FDF723FE7CBD00BF90A806084AA306088C
:10F6300031D3060851A30608C36AF7B51D790446FD
:10F6400048F21043002D0CBF1D460025FFF7D6FDE4
:10F65000B4F90470B4F906600C4B0E3700933146D0
:10F660002A4638464FF61E03FDF7DDFDE36A3846AD
:10F670001A79074B06F1100153F822302A460093FD
:10F680004FF61E03FDF7CFFDFEBD00BF55A30608D4
:10F690005CA806087FB50646FFF7B0FD0E4BF06A82
:10F6A000009316F04BF90D4916F050FA0C4916F07C
:10F6B00091F815F0ABFDB6F90450B6F906401C35CB
:10F6C0001034CDE902010022284621464FF61E03E0
:10F6D000FDF7CBFD7FBD00BF5FA306080000204102
:10F6E0000AD7233C73B5B0F90420B0F906300E46B2
:10F6F000B0F9021004464FF4E045101F0431043203
:10F7000004330095FDF7CEFCB4F90630B4F90000DF
:10F71000B4F90420191F0430043204330095FDF7B6
:10F72000C1FCB4F90000B4F90210B4F9063000F1DC
:10F730000C020096FDF7B6FCB4F90000B4F9042001
:10F74000B4F90210B4F906304BF296550830043A79
:10F750000095FDF7C5FAB4F90420B4F90210B4F924
:10F760000630A2F108000095FDF79CFC7CBD73B546
:10F77000B0F90420B0F906300E46B0F90210044684
:10F780004FF4E045101F0431043204330095FDF7B7
:10F7900089FCB4F90630B4F90000B4F90420191F4B
:10F7A0000430043204330095FDF77CFCB4F900000A
:10F7B000B4F90210B4F90420B4F906300096FDF74C
:10F7C00071FC7CBD30B5024685B00D4600685168BD
:10F7D00002AB022403C302A80021FDF79FFC2246CE
:10F7E000234602A821460094FFF792F902A8294671
:10F7F000FDF794FC02A821460E2223460094FFF751
:10F8000087F902A84BF29651FDF788FC05B030BD90
:10F8100073B50446051D218C2846FFF7D3FF284603
:10F82000FFF756F9E5690646284616F0BFFDB4F91C
:10F830000610C0B28000301A023100224FF61E03BB
:10F840000095FDF7F0FC7CBDF0B589B0031D0546C1
:10F8500004AC93E8030084E803001846298CFFF702
:10F86000B1FF2046FFF734F9EE690746304616F03F
:10F870009DFDBDF91210C0B2800002310022381A7D
:10F880004FF61E030096FDF7CEFC122104230A4614
:10F89000009320460B46FFF73BF9686A16F086FD99
:10F8A00007462046FFF71BF9ADF80800C0F30F40EC
:10F8B000ADF80A00029E20460796FFF710F9ADF852
:10F8C0000800C0F30F40ADF80A0002996B6AFF0010
:10F8D00036B2A6EB67060691091400933046073945
:10F8E00000224FF61E03FDF79EFC09B0F0BDF0B5F7
:10F8F00085B0031D044602AD93E8030085E80300CC
:10F900001846218CFFF75EFF2846FFF7E1F8E6690D
:10F910000746304616F04AFDBDF90A10C0B2800015
:10F9200002310022381A4FF61E030096FDF77BFCC9
:10F9300012210423009328460A460B46FFF7E8F8F5
:10F94000636ABDF90800BDF90A1000930430043160
:10F9500000224FF61E03FDF766FC05B0F0BD4BF22A
:10F960009651FDF7ACBA2DE9F0410121044600267D
:10F97000FDF7B4FAD02514E0EB10DA024FEAA5083F
:10F9800042EA4818204648EA0308FFF7DFF807462E
:10F9900002E04046FDF7ACFA013FFAD20D3DEDB270
:10F9A00001362046FFF79CFA8642E5DBBDE8F041D0
:10F9B000FDF7B8BA10B5044606F0B0F9231D20B91A
:10F9C0001846BDE81040FFF7CABF1846BDE8104012
:10F9D000FFF7C9BF2DE9FF47044606F09FF94FF630
:10F9E000FF75002808BF00252046FFF7E3FFE36905
:10F9F000B4F904002A46B4F90610009304304FF617
:10FA00001E03FDF710FC206A01210368B4F904808D
:10FA10005B6898478146206A0121036808F17807EE
:10FA20001B689847B9F1010F064607D1244BB4F97A
:10FA30000610009308F170002A460AE0B9F1000FA1
:10FA40000BD11F4BB4F90610009308F1700048F277
:10FA500010424FF61E03FDF766FAD4F820A0231DCE
:10FA600093E803000DF10809DAF8003089E8030093
:10FA70002046D3F81080ADF80870ADF80C7006F091
:10FA80004DF9494602465046C047206A03685B6903
:10FA90009847012E384405D10A4BB4F9061000935B
:10FAA0002A4606E04EB9074BB4F90610009348F217
:10FAB00010424FF61E03FDF736FABDE8FF8700BF80
:10FAC00060ED0608D2ED060837B5054606F026F9C2
:10FAD0004FF6FF74002808BF00242846FFF76AFF8E
:10FAE000EB69B5F904000093B5F90610043022461D
:10FAF0004FF61E03FDF797FB3EBD13B50446FFF717
:10FB000059FFE369B4F904000093B4F90610043016
:10FB100000224FF61E03FDF786FB1CBDF0B585B035
:10FB2000044606F0FBF84FF6FF75002808BF0025D5
:10FB3000204606F0F3F890B102AB221D92E80300D4
:10FB400083E80300BDF808201846083AADF80820FD
:10FB5000BDF80C200832ADF80C20FFF704FF20465A
:10FB600006F0DCF858B1174BB4F904000093B4F96F
:10FB7000061007382A464FF61E03FDF7D4F9276A08
:10FB800020463B681E6906F0C9F8211D024638462A
:10FB9000B047206AA78803685B69984706462046F5
:10FBA00006F0BCF858B1084B3FB2781C0093B4F98A
:10FBB000061080192A464FF61E03FDF7B4F905B06A
:10FBC000F0BD00BF60ED0608D2ED060838B54FF66F
:10FBD0001F03994204460A4607D005696169806897
:10FBE000E3682818C918FDF763F86269236912F001
:10FBF000010F07D0591E002921610BDA0132236160
:10FC0000626138BDA069591C8142216102DB013269
:10FC10002361626138BD10B500231A46416811F8AE
:10FC2000014B416004F07F019140073214F0800FD6
:10FC300043EA0103F2D1184610BD38B54FF0FF3347
:10FC400003600B780446472B0D461CD18B1C436088
:10FC5000FFF7E1FFA0612046FFF7DDFFE0616B7871
:10FC6000422B10D1234604F1200061680A4612F8A5
:10FC7000015B626049780132626041EA05221A84C0
:10FC800002338342F1D138BD03460068B0F1FF3F33
:10FC900006D15A6812F8010B18605A6000117047BB
:10FCA0004FF0FF3200F00F001A60704770B500246B
:10FCB000064625463046FFF7E7FFC0B200F00703CF
:10FCC000AB40033510F0080F44EA0304F2D120469C
:10FCD00070BD00002DE9F8434FF0FF33036001339E
:10FCE000036143618769C36904468160C260D0F8DB
:10FCF00004805F4301262FE0AEB12046FFF7D6FF18
:10FD0000451C2046FFF7C0FF0026814607E009F1A9
:10FD10001003204634F81310FFF758FF0136AE42A7
:10FD2000F5DB002612E02046FFF7AEFF451C0AE097
:10FD30002046FFF7A9FF00F1100334F81310204606
:10FD4000FFF744FF0136AE42F2DB01267F1B03D5ED
:10FD500004484821FDF7A8FA002FCDDCC4F8048040
:10FD6000BDE8F88365A30608074A08481168084BF0
:10FD700030B50468074DCB1805FB0433013103602F
:10FD800058041160400C30BD2CA500201830002014
:10FD9000F390240021F17D004162704773B5044661
:10FDA00016460D4619B90C480D21FDF77DFA0B4B8F
:10FDB00000211B682046B3F84C300A462386E562D2
:10FDC00002230096FEF799F9204604F1300102B0B3
:10FDD000BDE87040FFF7E0BFE29F0608DCA5002009
:10FDE00073B5054616460C4619B90A480C21FDF7AD
:10FDF0005BFAEC62284634F8062F002102230096B5
:10FE0000FEF77BF92846214602B0BDE87040FFF7B7
:10FE1000C3BF00BF3BA006082DE9F0410C461546C4
:10FE200098460026A75B1FB94FF61F03A3530DE0AA
:10FE3000FA08294602F0FC02404605F0B1FEFA0A33
:10FE4000A0530021D20005F0ABFEA0530236202EB5
:10FE5000E8D1BDE8F08110B592B0044605F05EFF30
:10FE6000231D218C70B11846FFF781FC616A21B314
:10FE700002A8FFF7E2FE20460AA94EF210424FF612
:10FE8000FF730DE01846FFF72DFC616AA9B102A8C7
:10FE9000FFF7D3FE20460AA94EF21C724BF296538E
:10FEA000FFF7BAFF089BB4F90810B4F90A20C91A81
:10FEB000099B02A8D21AFFF70DFFE369B4F9040009
:10FEC0000093B4F906100C3000224FF61E03FDF724
:10FED000AAF912B010BD4160826003737047000040
:10FEE00008B50379012B09D002D3022B0FD10AE008
:10FEF0008368188800F01F00400808BD83681888D0
:10FF0000C0F3C31008BD83681888000B08BD034800
:10FF10004FF48271FDF7C8F9002008BD56A106080C
:10FF200030B54FF6FF7585B00C46002A08BF002596
:10FF3000FFF7D6FF05F0D2FC00238DF80D3003ABA0
:10FF40008DF80C000093B4F90000B4F902102A46B1
:10FF50004FF61E03FDF788F905B030BD002908B53E
:10FF60000CDDFFF7BDFF0E288CBF0020012008BD6F
:10FF7000FFF7B6FF003818BF012008BDF8DB0020EE
:10FF800008BD00000379012B12D002D3022B2CD123
:10FF90001DE08268138823F01F031B041B0C0F292C
:10FFA00002D04900C9B200E01F2141EA03031AE070
:10FFB0008268138823F4FC631B041B0C0F2902D0F6
:10FFC0008900C9B200E03F2143EA41130BE0826897
:10FFD00013885B055B0D0F2902D04900C9B200E010
:10FFE0001F2143EAC1231380704702484FF48E71EA
:10FFF000FDF75AB956A1060810B50446FFF770FF81
:020000040805ED
:1000000030B1411EC9B22046BDE81040FFF7BABF6B
:1000100010BD10B50446FFF763FF0E2806D8411C3B
:10002000C9B22046BDE81040FFF7ACBF10BDC8689C
:100030004042704710B5044605F076FF014B20465C
:10004000236010BDE0930608014B0360704700BFBA
:100050002894060810B50446FFF7F6FF014B20462A
:10006000236010BD0094060810B50446FFF7ECFFAE
:10007000014B2046236010BDC897060810B5044602
:1000800005F052FF014B2046236010BD7094060816
:1000900010B50446FFF7F2FF014B2046236010BD68
:1000A0005094060810B50446FFF7E8FF014B2046C0
:1000B000236010BD8899060810B5044606F052F872
:1000C0002046BDE8104006F017B8FFF7F5BFFFF770
:1000D000F3BF000038B50D4B1B68D3F8C840002CA7
:1000E00011DDD3F8BC00013015F028FC01460848AA
:1000F00015F02CFD0546204615F020FC014628464B
:1001000015F024FD38BD002038BD00BFDCA500205F
:1001100000BA5B4A37B50446FFF770F82046FFF790
:10012000D9FF15F025FE15F009FC0821B4F904509B
:10013000B4F9064005F028FC1C3510340090214627
:10014000284600224FF61E03FDF78EF83EBD000044
:1001500038B5104B084610491C6815F043FC05469D
:10016000D4F8C80015F0EAFB0146284615F03AFC21
:1001700001460A4815F0EAFC15F0FAFDD4F8BC3047
:1001800001380128B8BF0120C4F8BC00C01A18BF4C
:10019000012038BDDCA500200000A0414054894C5E
:1001A0002DE9F04711F0010904460D4603D111F085
:1001B000020F00F0CE802046FFF78CFF002106469C
:1001C000012715F0C1FD00B9002717F0FF0F03D17B
:1001D00062482321FDF768F83046614915F0AAFD11
:1001E000E8B930465F4915F0A5FDD8B930465E49FB
:1001F00015F0A0FDC0B930465C4915F09BFDA8B9CB
:1002000030465B4915F096FD90B93046594915F0D6
:1002100091FD78B93046584915F08CFD60B94FF022
:100220007E570AE0554F08E04D4F06E04D4F04E081
:100230004D4F02E04D4F00E04D4FB9F1000F11D08E
:100240003046394615F08AFD28B13046394615F05A
:10025000BFFA804600E0B0464046002115F06AFD36
:1002600010B903E0B04601E04FF07E5815F0020FE0
:1002700010D04046424915F053FD20B14046394662
:1002800015F0A8FA80464046002115F053FD08B14C
:100290004FF07E583946404615F058FC15F068FD81
:1002A00015F04CFB394615F09DFB4FF07E5107468B
:1002B00015F036FD08B14FF07E573846314615F03F
:1002C00025FD002843D139462046FFF741FF8046EF
:1002D0002046FFF7FFFE31468246384615F03EFDC8
:1002E00038B15046314615F025FD002818BF4FF0B3
:1002F00000083846314615F013FD20B1504631460E
:1003000015F022FD10B9B8F1000F16D11D4BB9F14F
:10031000000F07D01B68D3F8BC00B0F5803F0CDAA3
:10032000013005E01B68D3F8BC00012805DD013869
:10033000C3F8BC0080B2FDF729FA204605F0FEFCA8
:100340002046E16846F67512002305F0FEFC2046C3
:100350002946BDE8F047FDF7A7BC00BF7DA306080E
:100360000000C84200007A4400401C460050C347C9
:10037000002474498096184B20BCBE4C00002041DC
:100380008096984BDCA500200023036043608360C7
:10039000704710B50446FFF7F7FF204610BD83688D
:1003A00030B5456803B985608368DC225343B83AA9
:1003B00002FB0533002BB8BFFF331A1282600468BA
:1003C00005B944604368DC256B43B83D05FB043345
:1003D000002BB8BFFF331B1243600CB90B02036044
:1003E0000368DC2463434FF4105404FB01310029FB
:1003F000B8BFFF3109120160101EB8BFFF300012F4
:1004000030BD0000F0B585B0FCF7E6F90746FCF713
:10041000FFF9644C0646236813F0010F04D16248CB
:10042000FFF7B7FF0123236039465F48FFF7B7FFA7
:100430005E4D04467021F0204BF296520023009549
:100440000197FCF712FF002C40D04BF2965200238C
:100450008021F02001940095FCF707FFA4F50660C9
:10046000193815F06BFA524915F0BCFA514915F0DC
:100470006DFB0146504815F0ABF9504B50490093C5
:10048000044615F0A7F914F0C1FE4BF29652CDE9DF
:10049000020100239021F020FCF7E7FE49492046A5
:1004A00015F0A0FA484B4FF08441009315F092F9F3
:1004B000434915F08FF914F0A9FE4BF29652CDE99D
:1004C00002010023F020A021FCF7CFFE3F4C23685F
:1004D00013F0010F04D13E48FFF75BFF01232360B7
:1004E00031463B48FFF75BFF3A4D0446C021F02000
:1004F0004BF29652002300950196FCF7B6FE0CB322
:100500004BF29652D0210023F02000950194FCF785
:10051000ACFE314B2046009315F010FA2F4915F030
:1005200061FA2F4915F012FB254915F053F914F023
:100530006DFE4BF29652CDE902010023F020E0213E
:10054000FCF793FE00210620FBF769FF002105461A
:100550000520FBF764FF234B04462846009315F063
:10056000EDF9214915F03EFA14F050FE0023CDE9D3
:1005700002014BF296524021F020FCF776FE1B4B15
:100580001B4AF020002C0CBF14461C46194B50216E
:1005900000934BF2965200230194FCF766FE05B0DF
:1005A000F0BD00BF08A500201CA50020A52107085C
:1005B000CCCC90410000CA42CDCC4C40B4A306083C
:1005C0000AD7A33B6666E63FBDA306080CA500203C
:1005D00010A500201AB60608C6A306083333334018
:1005E0000080DB44CEA306086F12833AADA3060851
:1005F000B1A30608D5A3060810B5054C2368586AB0
:10060000FBF7ECFE2368986ABDE81040FBF7EDBEEF
:10061000DCA5002010B5054C890023685962FFF75E
:10062000EBFF2068BDE8104004F0BCB8DCA500205A
:1006300010B5074C890023689962FFF7DDFF64203D
:10064000FBF788FE2068BDE8104004F0ABB800BF9F
:10065000DCA500202DE9FF41044605F05FFB4BF2CD
:100660009655B4F90A204FF6FF73002818BF1D46AF
:10067000B4F90410B4F90830101F083B0C3A00908C
:10068000123102A8FEF72BF902A844F20821FCF768
:1006900016FC02210A460B4602A80091FEF738FA22
:1006A00002A8FEF753FA23688046DB692046984784
:1006B000236807469B6A20469847236806465B6A7C
:1006C00020469847A8F1100807FB08F7361ABDF82E
:1006D000083097FBF6F7FF18BFB2ADF8087002A814
:1006E00010372946ADF80C70FCF7E9FBBDE8FF8137
:1006F000036870B5DB690E460446984716F0010F93
:1007000005460DD0236820465B6A9847854207DD81
:10071000236820461B6A691E98472046FFF79AFF08
:1007200016F0020F0DD0236820469B6A9847854239
:1007300007DA236820461B6A691C98472046FFF7A2
:1007400089FF20463146BDE87040FDF7ADBA10B5CF
:100750000446FEF753FD2046BDE81040FFF77ABF80
:10076000014B18682C307047DCA5002008B5FFF756
:10077000F7FF0368013B036008BD08B5FFF7F0FF12
:1007800003680133036008BD38B504460D46FFF722
:10079000E7FF006863682D189D4205DBA06885426D
:1007A000CCBF0020012038BD002038BD41608260F0
:1007B0007047000010B5FFF7D3FF006838B100B2F2
:1007C00005F058F80349044615F0FAFB00E0024C26
:1007D000204610BDE0A30608DAA3060808B5FFF717
:1007E000E9FF15F0E3FDC3004FF6F87003EA0000DF
:1007F00008BD73B54FF6FF740E88002A08BF0024A9
:10080000B1F90250FFF7D6FF294600902246304644
:100810004FF61E03FCF707FD7CBD2DE9F04100F10A
:10082000300405460F461646204600210F22DDF80B
:100830001880FFF7BBFF284621463A463346CDF8DD
:100840001880BDE8F041FDF791BC00007FB50E4671
:10085000F0233C210446154600930A46283302A89B
:10086000FEF73DF820462A4602AB1049009605F0F7
:1008700029FA04F1200002230D4948F210420094A5
:10088000FDF771FC04F14C0002230A4948F21042C2
:100890000094FDF768FC04F17800074948F2104223
:1008A00002230094FFF7B9FF7FBD00BFE6A306084F
:1008B0006BB9060879B90608F7A306080A4B73B5A1
:1008C0001A6800F1300405460E462046083201231E
:1008D0000649FFF700FB28462146054A48F2104327
:1008E0000096FDF743FC7CBDDCA500201CA9060892
:1008F0000AA406084160704710B504460AF010F9D2
:1009000063681B68002B04DA094ADB4352F82300B2
:1009100010BD0C2202FB030002780AB9406810BD2A
:10092000013B0C38B3F1FF3FF6D1002010BD00BFF2
:1009300024A90608436810B51C68002C06DB0AF0E1
:10094000EFF80C2303FB0404606810BD002010BD09
:1009500038B50446FFF7D0FF05462046FFF7EAFF0B
:1009600004461DB1284615F021FD05461CB1204660
:1009700015F01CFD00E02046451904B10235ED00DC
:100980004FF6F87005EA000038BD00002DE9F3418C
:100990004FF6FF7607460C46002A08BF00260D8852
:1009A000FFF7AAFF80463846FFF7C4FF0746B8F1B5
:1009B000000F0BD02846B4F9021032464FF61E0342
:1009C000CDF80080FCF72FFC2D18ADB2B7B10C4B61
:1009D0000435ADB2B4F902100093284632464FF602
:1009E0001E03FCF720FC04352818B4F9021080B26D
:1009F00032464FF61E030097FCF715FCBDE8FC815C
:100A000017A4060838B50C4615460AF089F82B19C4
:100A100005D5124A13F1050FB8BF13461BE0002D90
:100A20004FF00C020BDD631C02FB040402E00C34EB
:100A30008AB90133227B022AF9D1084B0BE0631EED
:100A400002FB040403E014F80C2D22B9013B002B37
:100A5000F9DA4FF0FF33184638BD00BF19FCFFFF2D
:100A600010B544684FF0FF322168FFF7CBFF2060DC
:100A700010BD10B5446801222168FFF7C3FF206054
:100A800010BD000008B543680A461968FFF7BAFFB1
:100A9000024BC01A18BF012008BD00BF19FCFFFFA0
:100AA00007B5009111461A4648F21043FDF75EFB68
:100AB0000EBD00007FB51546F023282204460E46E1
:100AC00000933C219B1802A8FDF709FF2A4602ABC0
:100AD000214D20462149009605F0F4F804F120004C
:100AE0002146FFF7EBFE296804F1600630460C3121
:100AF000FFF700FF324604F168002146184BFFF76C
:100B0000CFFF296804F1980630461031FFF7F2FE56
:100B1000324604F1A0002146124BFFF7C1FF2968BD
:100B200004F1D00630461431FFF7E4FE324604F1FA
:100B3000D80021460C4BFFF7B3FF296804F58476F3
:100B400030461831FFF7D6FE04F58870214632464C
:100B5000064BFFF7A5FF7FBDDCA5002019A4060802
:100B60002DA406083BA406084BA4060855A40608B5
:100B700010B5044605F0D8F9014B2046236010BD9E
:100B80009893060810B50446FFF7F2FF014B204684
:100B9000236010BD6099060810B50446FFF754FAAB
:100BA000014B2046236010BDA899060810B50446E5
:100BB000FFF764FA014B2046236010BDF099060848
:100BC00070B50546FFF75AFA064B2C4644F8203B11
:100BD00005F1B00620462434FFF7E8FFB442F9D10E
:100BE000284670BDD099060810B50446FFF72CFAC8
:100BF000014B2046236010BD109A060810B504462C
:100C0000FFF718FA214B204640F8243BFFF74AFA39
:100C100004F14400FFF746FA04F16400FFF742FADA
:100C200004F18400FFF73EFA04F1A400FFF7B4FFDB
:100C300004F1B000FFF7B0FF04F1BC00FFF7ACFF18
:100C400004F1C800FFF7A8FF04F1D400FFF7B8FFD4
:100C500004F5C270FFF7A0FF04F5C870FFF79CFF12
:100C600004F5CE70FFF798FF04F5D470FFF794FFFA
:100C700004F5DA70FFF7A4FF04F51970FFF7B4FF6D
:100C800004F51B70FFF704FA204610BDD0CE06080D
:100C900010B50446FFF7F2F9014B2046236010BD62
:100CA000389A060810B50446FFF7C4F92D4B2046C4
:100CB00040F8643BFFF7ECFF04F18400FFF7E8FF26
:100CC00004F1A400FFF7E4FF04F1C400FFF7EAF920
:100CD00004F1E400FFF7E6F904F58270FFF7E2F9AA
:100CE00004F59270FFF7DEF904F5A270FFF7DAF968
:100CF00004F5B270FFF7D6F904F5C270FFF7AAF950
:100D000004F5CA70FFF7C4F904F5DC70FFF7A2F927
:100D100004F5E470FFF7BCF904F5F670FFF764FF23
:100D200004F5FA70FFF7B4F904F50670FFF75CFFFD
:100D300004F50870FFF7ACF904F51170FFF72CFF0C
:100D400004F51470FFF728FF04F51770FFF724FF70
:100D500004F51A70FFF720FF04F51D70FFF730FF50
:100D6000204610BDF8CD060810B5044605F0DCF8A5
:100D7000114B204640F8203BFFF704FF04F15000E0
:100D8000FFF7F6FE04F17C00FFF7F2FE04F1A80085
:100D9000FFF7EEFE04F1D400FFF7EAFE04F58070E1
:100DA000FFF7E6FE04F59670FFF728FF04F5717073
:100DB000FFF778FF204610BD28CF060870B504461F
:100DC0000D46164605F0B0F8024B256223606662B8
:100DD000204670BDC8D6060870B504460D461646B6
:100DE00005F0A2F8024B256223606662204670BDC2
:100DF000A8D6060870B504460D46164605F094F8C8
:100E0000034BED00F600236025626662204670BD4C
:100E100088D6060810B5202132220446FFF7CEFFFF
:100E2000014B2046236010BDF0920608202110B52A
:100E30000A460446FFF7C2FF014B2046236010BD5F
:100E40001093060810B5202107220446FFF7C4FFBF
:100E5000014B2046236010BD3093060810B52021B9
:100E600010220446FFF7C6FF014B2046236010BD49
:100E70005093060870B5438986B0A3F11802153B5C
:100E8000ADF81220ADF816300546066EFCF7FAFBF9
:100E90004FF4C8746643B6FBF0F06D6EADF8100009
:100EA000FCF7F0FB01356543BDF81030B5FBF0F5FC
:100EB000ADF814501AB22DB2AD1A012D07DC023371
:100EC000ADF814301BB2A342C8BFADF8144004AC57
:100ED00020464FF6FF71FBF7F2FFBDF8102013B26A
:100EE000002B0EDD02AB94E8030083E80300ADF8AD
:100EF0000C201846002244F20821ADF80820FBF728
:100F0000DEFFBDF8142013B2B3F5C87F0FDA02ABD1
:100F100004A903C983E80300ADF8082018464FF47C
:100F2000C87244F20821ADF80C20FBF7C8FFFCF7AB
:100F3000D3FB0446FCF7A6FB4FF4C8735C43BDF932
:100F40001210BDF916301F22B4FBF0F000920131EF
:100F50000246013BFCF710FA06B070BD10B504461E
:100F600004F0E2FF034B204623604FF0FF3323627F
:100F7000636210BDF89A060830B51D4B87B0044671
:100F800003AD93E807000C3385E8070093E80700FA
:100F9000236A6D46B3F1FF3F85E8070002D1039B4A
:100FA00060622362FEF7E0FE032290FBF2F202EBA6
:100FB000420206A9821A01EB82020346216A52F814
:100FC0000C0C9B00401800EBD0704010206252F8CF
:100FD000181C626A891801EBD1714FF6FC72491036
:100FE00003EA0202616207B0BDE83040FBF760BE71
:100FF000309B060847F269439A4201D1FFF7BCBF14
:10100000704710B501704270837010BD02EBD2734F
:1010100010B55B10192404FB030312F0010F0B44FD
:1010200093F83C0001D0000910BD00F00F0010BD86
:1010300030B502EBD2746410192505FB04140419B1
:1010400012F0010F94F83C2015BF02F00F0222F0BD
:101050000F0242EA0313134384F83C3030BD73B5EA
:101060000646FEF781FE1923B0FBF3F505FB1305D9
:10107000FEF77AFE0E23B0FBF3F404FB13042946BB
:1010800030462246FFF7C2FF0128EAD13046294602
:1010900022460223FFF7CCFFE2B2002301A8E9B207
:1010A000FFF7AFFF019B00201A0CDBB263F30700D0
:1010B0009DF8053063F30F20D3B263F317407CBD76
:1010C000F8B5144B4FF4AF76074606FB0136002502
:1010D0001CE0335D202B02D0232B0CD104E03846DA
:1010E00021462A46012303E0384621462A460023AA
:1010F000FFF79EFF03E00848F721FCF7D5F801341D
:10110000192CE6D1013519360E2D01D00024E0E767
:10111000F8BD00BF489B06085FA40608002370B511
:101120000446C362FEF720FE1923B0FBF3F202FB74
:1011300013036362FEF718FE0E23B0FBF3F505FB05
:101140001305666AA562204631462A46FFF75EFF10
:101150000128E7D1204631462A460523BDE87040E4
:10116000FFF766BF2DE9F0474FEA41180F242FE043
:10117000032B03D8DFE803F005090C0F00252E46EA
:101180000BE0C0F10F063D4607E02646054604E0A9
:101190002546064601E005463E46134946EA051542
:1011A0004AEA400601EB8606D6F8786146FA09FC61
:1011B0001CF00F0C08BF4FF0020C01EB4C01B1F812
:1011C00078140130102822F81510D1D1013C09D330
:1011D000C4F10F0704F0070948EAE70A4FEA890952
:1011E0000020C5E7BDE8F087309B060870B5ADF577
:1011F000027D0C4606461546FFF708FF0528014606
:1012000003D1304602AAF36A06E0042808BF336B14
:10121000304602AA18BF0023FFF7A4FF02A8691CEA
:10122000621CAB1C00904FF48070019009012001FA
:1012300012011B01FBF7B2FD0DF5027D70BD11F02F
:10124000020F034606D0C26A0132032AC2620EDDD3
:10125000002206E011F0010F07D0C26A002A02DD69
:10126000013ADA6203E00322FBE704F0E4BD596AC5
:101270009A6A1846FFF7BABF70B5064600240AE01E
:101280002946304622460135FFF7B0FF192DF7D128
:1012900001340E2C01D00025F2E770BD10B50446D4
:1012A00004F060FFA36B6FF00901594301F59671DB
:1012B00020466429B8BF6421BDE8104004F058BE40
:1012C000836AC36200230363436383637047000040
:1012D0000D4B10B5C3610D4B044603620C4B4362CA
:1012E0000C4B83620C4BC3600C4B03600C4B436094
:1012F0000C4B83604FF07E53036100234361836195
:10130000FFF7DEFF204610BD6F12033ACDCCCC3D77
:101310009A99194066E6F6C20AD7233CCDCC4C3EDA
:10132000CDCC4C3D0000F04110B50446FAF7FEFF6D
:1013300040F22D1360602381204610BD038813B94D
:1013400040F22D13038109880180704738B50446A7
:101350000D46FAF7EBFF62682389821A9A4215D983
:1013600023889BB12B80238940F22D129342606029
:1013700002D14FF4967307E0B3F5967F01D1642351
:1013800002E00A2B04D90A3B238138BD00232B80BD
:1013900038BD000010B5044604F0C6FD014B2046E0
:1013A000236010BD10BE060810B5044604F0BCFD55
:1013B000014B2046236010BDD092060810B50446AC
:1013C000FFF7D6FB014B2046236010BD7093060843
:1013D00010B50446FEF72EFE114B204640F8283B80
:1013E000FEF738FE04F13800FEF734FE04F1480041
:1013F000FEF730FE04F15800FEF72CFE04F1680001
:10140000FEF746FE04F18C00FEF742FE04F1B00048
:10141000FEF73EFE04F1D400FEF73AFE204610BD72
:10142000C093060870B5054604F07EFD084B2C46B7
:1014300044F8203B05F5AC7620463434FFF7BEFF78
:10144000B442F9D12046FFF7C3FF284670BD00BF64
:1014500050D3060810B50446FFF78AFB014B20461F
:10146000236010BDE894060810B50446FFF7F2FFAC
:10147000014B2046236010BDB094060810B5044609
:10148000FFF7E8FF014B2046236010BD20950608BA
:1014900010B50446FFF76CFB014B2046236010BDDE
:1014A0008095060810B50446FEF7CEFD014B204698
:1014B000236010BDA895060810B50446FFF7E8FFA5
:1014C000034B204640F8303BFFF7ECFF204610BDB1
:1014D0005895060810B5044604F026FD094B204631
:1014E00040F8203BFFF7C0FF04F14C00FFF7C6FFB8
:1014F00004F17800FFF7E0FF04F1B400FFF738FBD8
:10150000204610BD9094060810B50446FFF7C0FFB2
:10151000034B204640F8303BFEF79CFD204610BDB3
:10152000F095060810B50446FEF78EFD014B2046E7
:10153000236010BD1896060810B50446FFF7A8FFF3
:10154000014B2046236010BD4096060810B50446A6
:1015500004F0EAFC134B204640F8203BFFF7D4FF91
:1015600004F16000FFF7DEFF04F16800FFF7E4FF1D
:1015700004F19800FFF7D6FF04F1A000FFF7DCFFAD
:1015800004F1D000FFF7CEFF04F1D800FFF7D4FF3D
:1015900004F58470FFF7C6FF04F58870FFF7CCFFF1
:1015A000204610BDD095060810B50446FFF7E0FAB6
:1015B000014B2046236010BD6896060810B504460E
:1015C00004F0B2FC194B204640F8203BFEF742FDE8
:1015D00004F13000FEF73EFD04F14000FEF73AFD55
:1015E00004F15000FEF736FD04F16000FEF732FD15
:1015F00004F17000FEF72EFD04F18000FFF7D4FF28
:1016000004F1B000FFF7D0FF04F1E000FFF7CCFFDA
:1016100004F58870FFF7C8FF04F5A070FFF7C4FF5A
:1016200004F5B870FFF7C0FF204610BD58D6060875
:1016300010B50446FFF79CFA014B2046236010BD0D
:101640009096060810B5044604F06EFC154B204633
:1016500040F8203BFFF7ECFF04F14C00FFF7E8FFF8
:1016600004F17800FFF7E4FF04F1A400FFF7E0FFC6
:1016700004F1D000FFF7DCFF04F1FC00FFF7D8FF16
:1016800004F59470FFF790FF04F5AC70FEF7E2FCF0
:1016900004F5B470FFF788FF04F5CC70FEF7DAFCB0
:1016A000204610BDC023070810B50446FFF7F0FE22
:1016B000034B204640F8303BFEF7CCFC204610BDE3
:1016C000B896060810B50446FFF752FA014B2046BB
:1016D000236010BDE096060810B50446FFF748FAEF
:1016E000014B2046236010BD0897060810B504463C
:1016F000FFF73EFA014B2046236010BD30970608E5
:1017000010B5044604F010FC094B204640F8203B7D
:10171000FFF7CAFF04F16000FFF7D4FF04F18C006B
:10172000FFF7DAFF04F1BC00FFF7E0FF204610BD31
:10173000F8E0060810B5044604F0F6FB0D4B204611
:1017400040F8203BFFF714FA04F14C00FFF710FAC1
:1017500004F17800FFF70CFA04F1A400FFF708FA8F
:1017600004F1D000FFF704FA04F1FC00FFF700FADF
:10177000204610BD48E1060810B50446FFF7F8F909
:10178000014B2046236010BD5897060810B504464B
:10179000FFF7EEF9014B2046236010BD8097060845
:1017A00010B50446FEF746FC0D4B204640F8283B9A
:1017B000FEF750FC04F13800FEF76AFC04F15C000F
:1017C000FEF752FC04F16C00FEF762FC04F190009D
:1017D000FEF74AFC04F1A000FEF75AFC204610BDBB
:1017E000A897060810B50446FEF72EFC014B2046CC
:1017F000236010BD1098060810B50446FEF724FCBF
:10180000014B2046236010BD3898060810B50446E9
:10181000FEF710FC154B204640F8283BFFF7E2FF8F
:1018200004F13000FFF7E8FF04F13C00FFF7E4FFAC
:1018300004F14800FFF7E0FF04F15400FEF728FC34
:1018400004F17800FEF724FC04F19C00FEF720FC74
:1018500004F1C000FEF71CFC04F1E400FEF7FAFB03
:1018600004F1F400FEF714FC204610BDF0970608C2
:1018700010B5044604F058FB0D4B204640F8203BC1
:10188000FFF77AFF04F15000FFF776FF04F18000C4
:10189000FFF772FF04F1B000FFF778FF04F1E000FA
:1018A000FFF77EFF04F5D270FFF7B0FF204610BDB2
:1018B00018D6060810B5044604F036FB014B204646
:1018C000236010BD6098060810B5044604F02CFB98
:1018D000014B2046236010BD8098060810B50446D1
:1018E00004F022FB014B2046236010BDA09806089F
:1018F00010B5044604F018FB014B2046236010BDD0
:10190000E098060810B5044604F00EFB014B204693
:10191000236010BD0099060810B5044604F004FBCE
:10192000014B2046236010BD2099060810B50446DF
:1019300004F0FAFA014B2046236010BD40990608D6
:1019400010B5044604F0F0FA014B2046236010BDA8
:10195000C0D7060810B5044604F0E6FA014B20464D
:10196000236010BD589A060810B5044604F0DCFA4E
:10197000114B204640F8203BFFF7ECFF04F14800F4
:10198000FFF7E8FF04F17000FFF7E4FF04F19800AF
:10199000FFF7E0FF04F1C000FFF7DCFF04F1E8000F
