:020000040800F2
:10C0000000000120BD1D0108F11B0108F31B010800
:10C01000F51B0108F71B0108F91B010800000000CF
:10C02000000000000000000000000000FD1B0108EF
:10C03000FB1B010800000000FF1B0108011C010898
:10C04000031C0108051C0108071C0108091C010844
:10C050000B1C01080D1C01080F1C0108111C010814
:10C06000131C0108151C0108171C0108191C0108E4
:10C070001B1C01081D1C01081F1C0108211C0108B4
:10C08000231C0108251C0108271C0108291C010884
:10C090002D1C0108311C0108331C0108351C010846
:10C0A000371C0108391C01083B1C01083D1C010814
:10C0B0003F1C0108411C0108351D0108371D0108FE
:10C0C000391D01083B1D01083D1D01083F1D0108E8
:10C0D000411D0108431D0108511D0108531D0108A0
:10C0E000551D0108571D0108591D01085B1D010858
:10C0F0005D1D01085F1D0108611D0108631D010828
:10C10000651D0108671D0108691D01086B1D0108F7
:10C110006D1D01086F1D0108711D0108731D0108C7
:10C12000751D0108771D0108791D01087B1D010897
:10C1300020B10368197003680133036070472DE96B
:10C14000F041161E04460D4614DD002200E00132C7
:10C15000A95C0029FBD1B24203F00208B4BFC2EBD4
:10C1600006060E46B8F1000F0CBF4FF020084FF046
:10C17000300801E04FF0200813F0010709D105E075
:10C1800020464146FFF7D4FF0137013E002EF7DC81
:10C1900005E0002703E02046FFF7CAFF013715F846
:10C1A000011B0029F7D105E020464146FFF7C0FFFB
:10C1B0000137013E002EF7DC3846BDE8F0812DE95D
:10C1C000FF410A9F05460B9EDDF830C08E4651B9EF
:10C1D00030238DF804308DF805103A4601A9334616
:10C1E000FFF7ADFF3CE03BB10A2A07D1002905DA91
:10C1F000C1F1000E012402E01C4600E0002404A965
:10C20000002301F8013D0EE0BEFBF2F302FB13EE4A
:10C21000BEF1090FC4BFACF13A0086440EF1300EF6
:10C2200001F801ED9E468846BEF1000FECD184B1C5
:10C230004FB116F0020F06D028462D21FFF778FFE8
:10C24000013F012405E02D2301F1FF3801F8013CF5
:10C250000024284641463A463346FFF770FF00194E
:10C2600004B0BDE8F0812DE9F0478AB006460D46DE
:10C2700005920024DBE0252B40F0D38015F8013F28
:10C28000002B00F0D880252B00F0CB802D2B02D185
:10C2900001352C3B03E0002301E043F00203294673
:10C2A00015F8012B302AF8D0002702E00A2202FB01
:10C2B00007070A780D46A2F130005FFA80FC0131D1
:10C2C000BCF1090FF2D9732A09D1059A3046111D24
:10C2D000059111685C4A002908BF11469DE0642A57
:10C2E0000ED1059A01936123111D029300970591C8
:10C2F00030461168603B0A22FFF761FF241895E081
:10C30000662A54D1059B073323F0070303F1080283
:10C31000D3E90001059213F0FBFA0021804613F0E7
:10C32000F3FD38B12D238DF8183008F100480DF1D8
:10C33000190A01E00DF1180A404613F00DFE012321
:10C3400000E013460A225A439042FADA90FBF3F2D5
:10C3500002F1300103FB12000A2293FBF2F30AF808
:10C36000011B002BF2D124328AF80020002F08BFD5
:10C3700003279946404613F0EFFD13F0D3FB014627
:10C38000404613F019FB314913F020FC804613F0AE
:10C39000E3FD09F101093030B9450AF8010FE9DB85
:10C3A00000228AF80120304606A9202336E0782AA8
:10C3B0000AD1059A01936123111D009702930591FB
:10C3C00030461168102219E0582A0BD1059A0193C2
:10C3D0004123111D02930097059130461168413B9E
:10C3E000102289E7752A0BD1059A01936123111D4B
:10C3F000009702930591304611680A22613B7BE762
:10C40000632A13D1059A3046111D126805918DF8E3
:10C41000242000228DF8252009A93A46FFF78FFE37
:10C420006CE730462978FFF783FE013401352B781D
:10C43000002B7FF420AF16B1336800221A7020461B
:10C440000AB0BDE8F08700BFA02B02080000204121
:10C45000014B1868704700BF98A90020034B188053
:10C460001A8892B2002AFBD1704700BFA4A900200D
:10C4700010B5322104460320F7F7E8FE014B1C807B
:10C4800010BD00BFA6A9002030B5002308E00A2493
:10C49000B0FBF4F104FB11003030D054013388B20A
:10C4A000084A0028F3D1D0545910013BD31804E0B6
:10C4B000145C5D7815545C700130013B8842F7DBF9
:10C4C000004830BD3031002008B506200021F7F7C4
:10C4D000C1FE5A234343A3F58223A3F56B6340F2C5
:10C4E000145093FBF0F00A306428A8BF642020EABF
:10C4F000E07008BD024B0E2202FB0030704700BF07
:10C50000901D0208034B18801A8892B2002AFBD1B2
:10C51000704700BFA4A90020044A4FF48053136061
:10C520004FF0C0421080024A13607047141401405B
:10C530001014014010B5EF20FFF7EEFF4FF0C0439D
:10C540001A881C8818881A881988C3B2C9B241EAA7
:10C55000046141EA0343120643EA1242014B9A6026
:10C5600010BD00BF30310020054B4FF480521A60DF
:10C570004FF0C0431880034802601980704700BF25
:10C5800014140140101401400B4B10B59A680B4B6A
:10C590004FF0C0449A4209D12E20FFF7BDFF2388F7
:10C5A00024882C20A4B2FFF7B7FF02E02388248858
:10C5B000A4B2204610BD00BF3031002027930402F2
:10C5C0000EB403B503AA52F8041B019001A800920F
:10C5D000FFF749FEBDE80C4003B0704713B502AC4D
:10C5E00024F8020D00200146F7F710FE20464BF616
:10C5F0008031F7F719FEF7F713FE20464BF680312E
:10C60000F7F712FEF7F70CFE1CBDC1F1EF0110B5F4
:10C6100080B289B21446F7F7F9FD2046BDE8104014
:10C62000F7F7F6BDC1F1EF0110B580B289B2F7F7A7
:10C63000EDFDBDE81040F7F717BE38B5151A5C1AC6
:10C640006C434BF67F35AC4280B202F1FF35C3F14B
:10C65000F0020FD9C1F1EF0392B2A9B29BB2650803
:10C66000F7F7DCFD04A8A9B2F7F7DEFD641BF7F7C6
:10C67000D7FD06E0C1F1EF0392B2A9B29BB2F7F782
:10C68000CDFD04A8A1B2F7F7CFFDF7F7C9FD002053
:10C6900040F28F110246EF23F7F7C0FD38BD37B5E2
:10C6A0000D464168044600954B1CA2680068FFF7E0
:10C6B000C4FFE3682068591EA2680095FFF7BDFF1C
:10C6C00020686168421CE3680095FFF7B6FFA26826
:10C6D0006168501EE3680095FFF7AFFF3EBD2DE98E
:10C6E000F14F0A9C1E460B9B88461746511E04EBD1
:10C6F0004309C6F1F002C8F1EF03054689B280B2E2
:10C7000092B29BB2F7F78AFDA2460CE03AF8020B10
:10C71000F7F77EFDCA4508BFA2460BF1010BBB45EA
:10C72000F4DB08F10108B04501DAAB46F7E7002079
:10C7300040F28F110246EF2301B0BDE8F04FF7F74A
:10C740006DBDF8B505460F46046810E0EE6809E0D7
:10C75000C6F1EF01A0B289B2F7F758FDFFF714FF59
:10C7600027F8020B6B68013E9E42F1DA0134AB6898
:10C770009C42EBDBF8BD2DE9F041C26843680D46F1
:10C780008168C2F1F0020139C3F1EF03044689B2B6
:10C79000008892B29BB2F7F741FD66680AE027680D
:10C7A00004E035F8020BF7F733FD0137A3689F4229
:10C7B000F7DB0136E3689E42F1DB002040F28F1187
:10C7C0000246EF23BDE8F041F7F728BD07B5034661
:10C7D000009159689A680068DB68FFF72EFF0EBD6C
:10C7E00070B5064E044606F10C051C360FC885E8E8
:10C7F0000F0094E8030086E8030070BD303100208C
:10C8000010B5094C0246216AE069FFF7FEFEE369B4
:10C81000626901339342E36104DBE368E361236A05
:10C820000133236210BD00BF3031002070472DE975
:10C83000F74F99460C9B0191924613F801BB0546B0
:10C8400000241DE018F8013BFBB113F0040F4FF674
:10C850001E0305D09A450AD028463146524604E0C8
:10C86000994504D0284631464A46FFF7CEFE0137A7
:10C8700001365F454346E5DB01340135502C03D0DA
:10C88000019E98460027F4E708242046BDE8FE8F65
:10C890002DE9F0411E460F46B6B2C7F1F007144627
:10C8A0000546F7F7C3FCB91BA8B289B2F7F7AEFC8F
:10C8B00020463146F7F7B6FCBDE8F041F7F7B0BCCB
:10C8C00030F0030309D131F0030208D140EA8100BE
:10C8D0000449091891F8000E704700207047184667
:10C8E000704700BF901D02082DE9F04F85B0044647
:10C8F0009A469DF839009DF838300D4616469DF849
:10C900003AB002900393274645E0C5EB0A01701E3A
:10C910000139C01B3B1BC8EB01019842A8BF184658
:10C920004145A8BF4146FFF7CBFF68BBC9F1EF0106
:10C9300089B2B8B2F7F76AFCF7F796FC1A4BC10058
:10C9400001F0FF01C208000A00EA0303C1EB0B007B
:10C950000190DDF808C0039802F0FC02C2EB0C0E57
:10C96000C3EB000C03EB6C03DDF804C0DB1001EB40
:10C970006C00C01040EAC32302EB6E00801043EA53
:10C98000401080B2F7F744FC09F1010908F10108F1
:10C99000D145BADB0137B74203DAA9464FF00008A8
:10C9A000F6E705B0BDE8F08FF8FF07002DE9F74F77
:10C9B00006468A4615461C46BDF830B088462DE02E
:10C9C0000AF10303984509D1E71E414630462A463D
:10C9D0003B46CDF800B0FFF730FEB846B146002721
:10C9E00018E0A81B0138611EC01BC8EB0101CAEB8F
:10C9F0000803B842A8BF38469942A8BF1946FFF7B6
:10CA00005FFF20B9484641465A46FFF7FEFD09F14F
:10CA100001090137A945E4DB08F10108A045CFDB96
:10CA2000BDE8FE8F07B50346009159689A68006813
:10CA3000DB68FFF7BBFF0EBD2DE9F74F01909DF8B6
:10CA400030001F460D469246FFF754FD4FF61E0379
:10CA50009F4283461DD100241BF80480019F6FEA8A
:10CA600008085FFA88F8082618F0800F04D03846C6
:10CA700061195246FFF7C9FD013EF6B2013726B1F2
:10CA80004FEA48085FFA88F8EEE701340E2CE3D14C
:10CA900045E09A451FD100241BF80490DDF804807E
:10CAA0006FEA09095FFA89F9082619F0800F04D1A5
:10CAB000404661193A46FFF7A8FD013EF6B208F17B
:10CAC000010826B14FEA49095FFA89F9EDE7013417
:10CAD0000E2CE1D123E000241BF80490019E6FEAA4
:10CAE00009095FFA89F94FF0080819F0800F08F179
:10CAF000FF38304614BF52463A4629465FFA88F856
:10CB0000FFF783FD0136B8F1000F04D04FEA490961
:10CB10005FFA89F9E9E7013401350E2CDCD10820F0
:10CB2000BDE8FE8F2DE9F7430A9F05460E46914664
:10CB30009846AFB1387818B913E00A2B02D11036F5
:10CB40002C4607E00093204631464A464346FFF70D
:10CB500073FF241817F8013B002BEED1601B00E097
:10CB60003846BDE8FE83DDE72DE9F043A5B0154664
:10CB70002CAA0E4652F8041B07460DF1080823A8FC
:10CB800099462292CDF88C80FFF76DFB3146044622
:10CB90002A4638464B46CDF80080FFF7E4FF204692
:10CBA00025B0BDE8F08337B5114B05460C46009320
:10CBB00030211F2328204FF6FF72FFF7D4FF2021DA
:10CBC0001F234FF6FF7228200095FFF7CCFFA0B27D
:10CBD000FFF75AFC102100904FF6FF7228201F2308
:10CBE000FFF7C1FF4FF47A7003B0BDE8304035E481
:10CBF000A72B020870B54B4C4FF480534FF40065DF
:10CC0000236001202560FFF77DFC474B0A201D6053
:10CC1000FFF778FC32202560FFF774FCFFF78AFCF1
:10CC2000424B9A68424B9A4203D042483B21FFF75D
:10CC3000BAFFE9204FF0C044FFF76EFC20232380A9
:10CC40001120FFF769FC6420FFF75CFCD120FFF79F
:10CC500063FC002323805E23238017232380D020BE
:10CC6000FFF75AFC0723238023800C2323803620E0
:10CC7000FFF752FC402323800C20FFF74DFC552387
:10CC800023803A20FFF748FC55232380C120FFF77B
:10CC900043FC10232380238002232380C020238091
:10CCA000FFF73AFC002323803523238000232380D1
:10CCB00023800123238002232380C520FFF72CFC3F
:10CCC00001232380D220FFF727FC01232380222386
:10CCD0002380C820FFF720FC0123238073232380B7
:10CCE00037232380002323800F23238002232380E4
:10CCF0000423238040232380672323800023238071
:10CD0000022323800F232380082323808023238072
:10CD1000002329202380FFF7FFFB2C20BDE8704073
:10CD2000FFF7FABB10140140141401403031002009
:10CD300027930402B92B02085CE708B502480421D6
:10CD4000FFF731FFFEE700BFE62B02080FB430B556
:10CD5000A5B028AA52F8041B02AC23A8239422925F
:10CD6000FFF781FA23941EE00A2B134C03D0656A67
:10CD7000B5F5C47F09DBA26A00230E32E02A6362A4
:10CD8000A2620DDD0C4A93620AE000932846A16A74
:10CD90004FF6FF724FF43043FFF74EFE40196062CA
:10CDA000239B01332393239B1B78002BDCD125B0DD
:10CDB000BDE8304004B07047303100202DE9F74F16
:10CDC000C0EB020B5F1A1FFA8BFBBFB20FFA8BFA94
:10CDD0000FFA87F84FEADB3BFF0BBDF83090BAF152
:10CDE000000FD4BFCBF1000BCBF1010BB8F1000F5A
:10CDF000D4BF7F42C7F10107BAF1000FB8BFCAF133
:10CE0000000AB8F1000FB8BFC8F100084FEA4A0A9B
:10CE10004FEA480800921FFA8AFA1FFA88F84A4631
:10CE2000019304460D460FFA8AF6FFF7EEFB0FFA60
:10CE300088F39E4220DB1FFA88F8A8EB6606B6B29C
:10CE400016E016F4004F09D11EB94FFA8BF3002BF0
:10CE500004DD7BB2CAEB0606ED18B6B24FFA8BF3CF
:10CE6000E4184644204629464A46B6B2FFF7CDFBB1
:10CE7000009B9C42E5D11EE01FFA8AFAAAEB6306EA
:10CE8000B6B215E016F4004F09D116B97BB2002BEB
:10CE900005DD4FFA8BF3C8EB0606E418B6B27BB299
:10CEA000ED185644204629464A46B6B2FFF7ADFB78
:10CEB000019B9D42E6D1BDE8FE8F08B5002104200C
:10CEC000F7F7C8F9C3439BB2C3F3802013F4006F94
:10CED0001CBF40F0020080B213F0080F18BF40F0F2
:10CEE000040013F4004F18BF40F0080013F4804F03
:10CEF00018BF40F0100013F4005F18BF40F020008E
:10CF000013F4807F18BF40F0400013F4007F18BF77
:10CF100040F0800008BD07B50B200021F7F79AF913
:10CF200048B9084B303000931E211F224FF6FF7383
:10CF3000FFF7F8FDFEE71420002103B05DF804EBD5
:10CF4000F7F784B90C2C0208034B014683F82C0038
:10CF50002420F7F77BB900BF30310020014B93F854
:10CF60002C007047303100202DE9F14F05460C466A
:10CF70000520002116469B469DF828A0BDF82C9060
:10CF8000BDF83080BDF83470F7F760F90920294604
:10CF9000F7F75CF90A202146F7F758F900203146E7
:10CFA000F7F754F90B205946F7F750F90C20514682
:10CFB000F7F74CF901204946F7F748F907204146B1
:10CFC000F7F744F90820394601B0BDE8F04FF7F70C
:10CFD0003DB908B503200021F7F73CF9C0B208BD00
:10CFE000F7F728B906200121F7F730B92DE9F0410C
:10CFF00006460C462220314615461F46F7F726F90D
:10D0000021202146F7F722F9202047EAC501BDE893
:10D01000F041F7F71BB9B0F5805F10B503DD0748A5
:10D020006B21FFF7C0FD0024FFF7DAFF044B185116
:10D030000434B4F5804FF7D110BD00BF252C020891
:10D04000603100204FF480507047B0F5805F10B51C
:10D05000044603D303487921FFF7A5FD024800EBFE
:10D06000840010BD252C020860310020034670B5F5
:10D0700010200C4619461546F7F7E8F8112021460E
:10D08000F7F7E4F812202946BDE87040F7F7DEB85C
:10D09000094B10B51A68094C22F001021A60084ABF
:10D0A000146043F2B0521A60064A116090601A6828
:10D0B00042F001021A6010BD4404024008740040AE
:10D0C0004C04024048040240034B0121A3F8480DE0
:10D0D00003F554600830DBE71864002001460D209A
:10D0E000F7F7B4B8004870476271002008B50346EE
:10D0F00002730020012A587305D11A4609480833E3
:10D10000F7F7C4F806E0022A09D11A4605480833A1
:10D11000F7F7BAF8D0F1010038BF002008BD0120B0
:10D1200008BD00BF6271002008B5034608461946D5
:10D13000F7F7AEF8D0F1010038BF002008BD10B5F8
:10D14000044608462146F7F7A5F820B9637B01306D
:10D150000133637310BD002010BD10B5037B04467E
:10D16000022B10D1B1F1FF3F08BF417B224608BF1F
:10D170004902074804F10803F7F78EF828B903239A
:10D180002373013010BD012010BD002010BD00BF71
:10D1900062710020F0B502EBD27700247F1001EB22
:10D1A000420523460DE0BB42B4BF31F813C035F849
:10D1B00002CC065F013306FB0CF6360C0653023D2B
:10D1C00004349342EFDBF0BD0BF0A8BF42080346E6
:10D1D0000DD00021B3FBF2F080184008121A013282
:10D1E000022A04D9192902D001310246F2E7704718
:10D1F00005E0054A118811F0800FFAD0938010F8ED
:10D20000013B002BF5D17047003801400F4B10480F
:10D210009A6942F480429A610E4A40F27123138166
:10D2200042F22C039381138823F4A46323F00503B3
:10D230001B041B0C1380084B5A6822F47F6242F4D3
:10D240000A625A604FF480621A61D1E7001002400E
:10D250004F2C0208003801400008014010B54FF47F
:10D26000FA70FFF7FBF8FFF767FDFFF754FEBDE824
:10D270001040CBE704F0A0BC0E200021F6F7EABF77
:10D280000D200021F6F7E6BF0F200021F6F7E2BFE0
:10D2900010200021F6F7DEBFF6F7D0BF2DE9F043EE
:10D2A0003F3189B0234B804687B28CB2ADF1020288
:10D2B00013F8010C1978C0108910C00249014118F7
:10D2C0005878043301EBD00122F8021F1A498B422F
:10D2D000EED11A4E3D4616F8013B08AA1B0902EB97
:10D2E000430328460135214633F8202CADB208F11E
:10D2F000FF09FFF78AF94D4502DD013CA4B23D4626
:10D3000016F8013C08AA03F00F0302EB430328467A
:10D310000135214633F8202CADB2FFF776F94D45A3
:10D3200002DD013CA4B23D46054B9E42D3D109B07B
:10D33000BDE8F08337D8030877D8030876D8030808
:10D3400076F80308704700BF7047014B18687047B4
:10D350006473002013B5FFF77BF82A4B1A68B2F10B
:10D36000FF3F08BF18601B68C41AB4F57A7F0ED956
:10D370004FF47A72B4FBF2F402FB043321490B60E0
:10D3800003F0C0FA00F546508369E4188461FFF7A2
:10D3900094FD02AC24F8020D03F0B4FA00F55650E7
:10D3A0002146643002F07CFE03F0ACFA00F55650E2
:10D3B0006430214602F07CFEBDF8063033B103F044
:10D3C000A1FA0221BDF8062007F023FCFFF7C6FDF5
:10D3D00078B1FFF7FEFD60B1FFF734FEFFF71BFEEB
:10D3E00003F090FA042146F2674207F012FCFFF7BF
:10D3F000F9FD03F087FA0321002207F00AFC01205F
:10D400001CBD00BF003000200D4B10B51860044655
:10D41000FFF724FF03F076FA07F030FC03F072FA0E
:10D420000121002207F0F5FB03F06CFA09F092FDF0
:10D4300003F068FA09F0C8FDFFF7D4FD204610BDDF
:10D440006473002008B5036849421B6849B29847D5
:10D4500008BD0000014B1868704700BF9C430208DC
:10D46000012070474368826819688A181A607047FB
:10D470004368826819688A1A1A60704708207047E2
:10D4800083681B78CB1805D4027B9342CCBF002065
:10D49000012070470020704783681A7801321A70A3
:10D4A000704783681A78013A1A7070478368197058
:10D4B00070478368187870474368B0F908201B8864
:10D4C000CB181BB29A4206DCB0F90A009842B4BFEE
:10D4D0000020012070470020704743681A880132FD
:10D4E0001A80704743681A88013A1A8070470220F0
:10D4F00070471820704702207047002070470020B6
:10D50000704708207047704790F828007047002245
:10D5100008B5036880F82820013202719B6898479B
:10D5200008BD002303717047007970474368826823
:10D530001B68CB18934205DBC0688342CCBF002038
:10D54000012070470020704743681A6801321A6052
:10D55000704743681A68013A1A607047C36A70B529
:10D5600000F12C050446DB6828460E46984728B98A
:10D5700020463146BDE8704007F052B8E36A2846BD
:10D580005B68984770BD30B5028500250122C562F1
:10D5900080F83020BDE8304006F0A6BFF0B587B077
:10D5A00002AC043306460F4615460FCB84E80F0045
:10D5B000059B30461A1D0B3303920593044945F031
:10D5C00002022346009706F08FFF07B0F0BD00BFB0
:10D5D000B03B0208F0B587B002AC043306460F46F4
:10D5E00015460FCB84E80F00059B30469A1C093383
:10D5F00003920593044945F002022346009706F082
:10D6000073FF07B0F0BD00BFBC3B020802850122DA
:10D6100006F06ABF0148CE21FFF7C5BAC83B020831
:10D6200008B50348CD21FFF7BEFA002008BD00BFB2
:10D63000C83B02080148CC21FFF7B5BAC83B020835
:10D640000148CB21FFF7AFBAC83B02080148CA2105
:10D65000FFF7A9BAC83B020808B50348C821FFF77D
:10D66000A2FA022008BD00BFC83B020808B5034863
:10D670001C21FFF798FA002008BD00BFE23B02081A
:10D6800008B503481721FFF78EFA002008BD00BF38
:10D69000E23B020801481321FFF785BAE23B02088A
:10D6A00001480F21FFF77FBAE23B020801480B2136
:10D6B000FFF779BAE23B020813B503469C685B6842
:10D6C0002478088853F8243000934FF6FF73002A1B
:10D6D00014BF1A46002249684FF61E03FFF722FACC
:10D6E0001CBD00002DE9F341254D84682B68466878
:10D6F0009A8C244B2146009330460023FFF712FA00
:10D700002B68214F93F82230214657F82330801997
:10D7100000934FF6FF720023FFF704FA2B6806F11F
:10D7200064081A8F194B2146009340460023FFF7E7
:10D73000F9F92B68214693F83630404457F82330E6
:10D740004FF6FF7200930023FFF7ECF9104BC83639
:10D7500000932146002330464BF29652FFF7E2F940
:10D760002B68801993F870200A4B214653F8223019
:10D770004FF6FF7200930023FFF7D4F9BDE8FC8158
:10D78000B8AD0020FF3B0208CC440208053C02086B
:10D790000B3C02083445020839B9042A05D146F287
:10D7A0006742934201D106F0DBBE704739B9042AC3
:10D7B00005D146F26742934201D106F0D1BE7047CF
:10D7C00039B9042A05D146F26742934201D106F0E5
:10D7D000C7BE70472DE9F04186B00C9E88460021F7
:10D7E000C162028580F830300546112730465F431C
:10D7F00006F032FEFFB202AC50B1304606F02CFE0D
:10D8000004300FC884E80F00059B0233039304E043
:10D81000331D0FCB84E80F00039BFF1828464146B9
:10D82000012202AB0597009606F05EFE06B0BDE849
:10D83000F08100002DE9F041DDF81880044615461E
:10D840001F460E4621B9084840F2AF11FFF7ABF969
:10D85000204629463A4602236663CDF81880BDE883
:10D86000F041FFF7B7BF00BFC83B020873B50446DD
:10D8700016460D4619B907480C21FFF794F9656360
:10D880002046002146F20C3202230096FFF7A2FF49
:10D890007CBD00BF0F3C0208436B70B504460D46CB
:10D8A0001BB90B483D21FFF77EF915F0100F08D08A
:10D8B0006169636B204646F66352BDE8704006F02E
:10D8C00056BE20462946BDE8704006F0A9BE00BFFE
:10D8D0003D3C020811F0100F70B505460C4605D00E
:10D8E000416946F66F52002306F041FE2846214664
:10D8F000BDE8704006F094BE11F0200F70B50546EB
:10D900000C4606D0406946F278520146002306F0E4
:10D910002EFE28462146BDE8704006F081BE00007C
:10D9200011F0010F70B504460D4615D0806A012133
:10D9300003685B68984701280ED1A06A002103683C
:10D94000DB689847204606F00BFE2046616947F2E7
:10D950007052002306F00BFE15F0020F15D0A06ADE
:10D96000012103681B68984701280ED1A06A002195
:10D9700003689B689847204606F0F2FD20466169DF
:10D9800047F27052002306F0F2FD15F0100F0ED092
:10D99000A06A0368DB699847084B1B68984206D069
:10D9A0002046616946F66542A36A06F0E0FD20461E
:10D9B0002946BDE87040FFF79FBF00BF9C430208A7
:10D9C00011F0010F70B504460D4615D0406B0121D2
:10D9D00003685B68984701280ED1606B00210368DB
:10D9E000DB689847204606F0BBFD2046616947F298
:10D9F0007052002306F0BBFD15F0020F15D0606BCE
:10DA0000012103681B68984701280ED1606B002133
:10DA100003689B689847204606F0A2FD204661698E
:10DA200047F27052002306F0A2FD15F0100F0ED041
:10DA3000606B0368DB699847084B1B68984206D007
:10DA40002046616946F66542636B06F090FD20460C
:10DA50002946BDE87040FFF73DBF00BF9C43020868
:10DA600011F0010F70B504460D4615D0406B012131
:10DA700003685B68984701280ED1606B002103683A
:10DA8000DB689847204606F06BFD2046616946F644
:10DA90007512002306F06BFD15F0020F15D0606BB8
:10DAA000012103681B68984701280ED1606B002193
:10DAB00003689B689847204606F052FD204661693E
:10DAC00046F67512002306F052FD20462946BDE8B1
:10DAD000704006F0A5BD0000436B70B504460D46CE
:10DAE0001BB91A482A21FFF75EF815F0100F08D06D
:10DAF0006169636B204646F66352BDE8704006F0EC
:10DB000036BD636B1A79043AD2B2012A17D815F0E0
:10DB1000010F08D0DA6812F1FE0F04DB013ADA6077
:10DB2000204606F01DFD15F0020F08D0636BDA6881
:10DB3000FE2A04DC0132DA60204606F011FD2046A0
:10DB40002946BDE8704006F06BBD00BF0F3C0208DF
:10DB5000436B70B504460D461BB91D482221FFF7E3
:10DB600022F815F0100F08D06169636B204646F665
:10DB70006352BDE8704006F0FABC15F0010F0ED0FC
:10DB8000636B1A795AB1013A1A71204606F0E8FC23
:10DB90002046616946F67512636B06F0E8FC15F0E5
:10DBA000020F0FD0636B1A79092A0BD801321A7150
:10DBB000204606F0D5FC2046616946F67512636B77
:10DBC00006F0D5FC20462946BDE8704006F028BD89
:10DBD000683C02082DE9F3410E88DFF85880083EC2
:10DBE0004FF6FF75002A08BF0025CDF80080B6B2B9
:10DBF0000C4607462A46304649684FF61E03FEF794
:10DC000016FE7B683618B6B2009361682B46304624
:10DC10004FF61E02FEF786FF08F1720330180093DC
:10DC200061682A464FF61E0380B2FEF700FEBDE88B
:10DC3000FC8100BF9833020808B583681A784368EE
:10DC400053F8220012F0EAFBC3004FF6F87003EA23
:10DC5000000008BD7FB5436804460D46164623B94B
:10DC6000114840F25F21FEF79EFF63681A68A368BF
:10DC700092FBF3F20A2392FBF3F103FB1122002340
:10DC8000ADF80C30303204AB03F8042D4FF6FF72C0
:10DC9000009328686968002E08BF00224FF61E0313
:10DCA000FEF761FF7FBD00BFC83B0208F7B5044621
:10DCB00006F046FCA7884FF6FF75083F002808BF0E
:10DCC0000025BFB20F4EA1682A4638464FF61E0304
:10DCD0000096FEF7ACFD636A3F18BFB20093A168DF
:10DCE0002B4638464FF61E02FEF71CFF38187236D8
:10DCF000A1682A464FF61E0380B20096FEF797FDF4
:10DD0000FEBD00BF9833020870B50E4615461C468E
:10DD100006F09AFB2A46014623463046BDE870408D
:10DD200006F025BC11F0010F2DE9F04104460D4627
:10DD300016D0806A012103685B68984780B1A06AA9
:10DD400000210368DB689847204606F07DFB06F05B
:10DD500007FC606947F270524169002306F007FC36
:10DD600015F0020F16D0A06A012103681B689847BE
:10DD700080B1A06A002103689B689847204606F09E
:10DD800063FB06F0EDFB606947F2705241690023C6
:10DD900006F0EDFB15F00C0F0FD00C4E2046294677
:10DDA0003768FFF7A9FD3368BB420CD0204606F068
:10DDB0004BFBBDE8F04106F0D3BB20462946BDE849
:10DDC000F041FFF799BDBDE8F08100BFCCAD002068
:10DDD000102970B505460C4605D106F035FB0368E1
:10DDE00021465B68984728462146BDE8704006F00A
:10DDF00017BC102910B50C4606D106F025FB0368A8
:10DE000021465B68984710BDBDE8104006F008BC8D
:10DE100008B54368B3F9000006F030FA12F0FEFAD4
:10DE2000C3004FF6F87003EA000008BD436873B5FD
:10DE30004FF6FF7605460C46002A08BF00261BB9A0
:10DE400012485D21FEF7AFFE6A68B5F90830B2F9F5
:10DE50000000834203DCB5F90A30834209DA0C4B37
:10DE600032460093206861684FF61E03FEF75AFEA3
:10DE70000BE02568646806F001FA214600903246FE
:10DE800028464FF61E03FEF76EFE7CBD973C020847
:10DE9000B23C020808B54368B3F9000006F0EEF999
:10DEA00012F0BCFAC3004FF6F87003EA000008BD98
:10DEB000436873B54FF6FF7605460C46002A08BF47
:10DEC00000261BB911489721FEF76DFE6B68186894
:10DED000AB68984202DBEB68984209DD0C4B324696
:10DEE0000093206861684FF61E03FEF71BFE0CE0EE
:10DEF00000B22568646806F0C1F9214600903246F8
:10DF000028464FF61E03FEF72EFE7CBD973C020806
:10DF1000B23C02082DE9F0471F4647F270539A427F
:10DF200004460D4616463FD100F1400399423BD1CD
:10DF3000C36A93F80480A8F104095FFA89F9B9F17A
:10DF4000010F8CBF4FF000094FF00109B9F1000F2C
:10DF500006D0A8F10503D3F1000848EB030801E05F
:10DF60004FF0010804F1B80A504606F0A2FB8145C3
:10DF700006D04946504606F002FB4FF0010901E089
:10DF80004FF0000904F17C0A504606F092FB8045F0
:10DF900004D05046414606F0F2FA02E0B9F1000F13
:10DFA00002D0204606F0DCFA2046294632463B469F
:10DFB000BDE8F047FFF7A8BE2DE9F34143680F889D
:10DFC000134E1C88083F0096BFB20D462246496892
:10DFD0004FF61E033846FEF72AFC3F182046D5F8B8
:10DFE000048006F08FF9BFB20090414623463846C0
:10DFF0004FF61E02FEF7B7FD3818723669682246E2
:10E000004FF61E0380B20096FEF711FCBDE8FC81BE
:10E010009833020811F0100F70B5044617D006F0BF
:10E0200015FA18B90A483D21FEF7BDFD204606F055
:10E030000BFA0546204606F009FA03465B6A2046BD
:10E04000294646F26452BDE8704006F090BA70BDB1
:10E05000B43C020844F644418A4201D106F04ABC6D
:10E0600044F645418A4202D1012280F828207047B7
:10E0700010B5044606F03EFC2046BDE8104006F010
:10E0800015BC10B5044606F035FC2046BDE810402E
:10E0900006F00CBC01604260704710B58360029BC3
:10E0A00001604260C36010BD70B5DE2386B00546D6
:10E0B0000E46144600930C2116225A3302A8FFF78D
:10E0C000ECFF28460349224602AB009606F00CFA04
:10E0D00006B070BDD73C020870B5F02386B0044688
:10E0E0000E46154600931422A03302A84FF49E71E9
:10E0F000FFF7D3FF20462A4602AB1E49009606F0E2
:10E10000F3F904F1280001231B494FF6FF72009434
:10E11000FFF760FB04F15C000123184948F210424C
:10E120000094FFF757FB04F190000123144948F2D3
:10E1300010420094FFF74EFB04F1C4000223114982
:10E1400048F210420094FFF745FB04F1F800022367
:10E150000D4948F210420094FFF73CFB04F596701D
:10E160000A4948F2104201230094FFF733FB06B03E
:10E1700070BD00BFE13C0208F23C0208F73C020817
:10E18000FE3C0208053D0208163D0208943D0208C7
:10E1900070B5F02386B004460E461546009314224F
:10E1A000A03302A84FF49E71FFF777FF20462A465E
:10E1B00002AB1049009606F097F904F128000123FC
:10E1C0000D4948F210420094FFF704FB04F15C0093
:10E1D00001230A4948F210420094FFF7FBFA04F1C8
:10E1E0009000074948F2104201230094FFF7F2FA29
:10E1F00006B070BD253D0208333D02083B3D0208D4
:10E20000403D020870B5DE2386B005460E46144632
:10E21000009300211622D33B02A8FFF73EFF2846B9
:10E22000044944F0020202AB009606F05DF906B024
:10E2300070BD00BF453D020870B5152386B0054688
:10E240000E46144600930C21102202A84FF49C7332
:10E25000FFF723FF2846044944F0020202AB009670
:10E2600006F042F906B070BD593D020870B5F023C2
:10E2700086B005460E461446009300211022A033B6
:10E2800002A8FFF70AFF2846044944F0120202AB35
:10E29000009606F029F906B070BD00BF6C3D02087B
:10E2A00070B5F02386B005460E4614460093002153
:10E2B0001022A03302A8FFF7F0FE284603492246A9
:10E2C00002AB009606F010F906B070BD7C3D020866
:10E2D00070B5F02386B005460E4614460093002123
:10E2E0001022A03302A8FFF7D8FE2846044944F0C4
:10E2F000120202AB009606F0F7F806B070BD00BF40
:10E30000863D020870B5F02386B005460E461446D9
:10E31000009300211022A03302A8FFF7BEFE28467A
:10E32000044944F0020202AB009606F0DDF806B0A4
:10E3300070BD00BF903D020882680368D01840108D
:10E34000704738B58A680B68CD68D3184A680446A8
:10E35000AA1859105210FFF79DFE204638BD10B57F
:10E3600004686118016041688A1842608268D31AA3
:10E370008360C268029BD31AC36010BD10B50468E5
:10E38000611A016041688A1A42608268D31883600A
:10E39000C268029BD318C36010BD000030B58BB0BB
:10E3A00003AD031D04460FCB85E80F0001210B468A
:10E3B00028460A460091FFF7E1FF28464BF29651A6
:10E3C000FEF76DF948F21043ADF81C300023ADF8AC
:10E3D0001E30ADF82030ADF82230ADF824301E25C7
:10E3E000606807AB2818009305230193421CA168BD
:10E3F00023691E35FEF773F9B5F5967FF0D119251F
:10E40000A16807AB691800930523019360684B1C52
:10E41000E2681935FEF763F9C82DF1D16068A1688B
:10E420000B4B04310093043044F208224FF61E03D4
:10E43000FEF778FB60682169064B043000931039C1
:10E440004FF6FF724FF61E03FEF76CFB0BB030BDAC
:10E450009A3D0208A33D020882680368D01A7047FB
:10E46000F0B58BB006AC061D074696E80F0084E8B1
:10E470000F00012100220B462046009202ADFFF75B
:10E480007DFF204648F21041FEF7A0F994E80F0006
:10E4900085E80F00114B30461B68B3F87240FFF758
:10E4A000DBFF039B04FB00F20133039304F5967436
:10E4B000059B4443013B05937B68284603EB2434CA
:10E4C00003EB2232089B04949C42C8BF04930021B2
:10E4D0000292FEF77BF90BB0F0BD00BFB8AD002093
:10E4E00073B5051D002104462846FEF76FF90E4B53
:10E4F0001B68B3F88260B3F87230F61A36B2002E99
:10E5000010DB2846FFF7A8FF86420BDA6068074B4E
:10E51000043800938019A16846F20C324FF61E03AE
:10E52000FEF785F97CBD00BFB8AD00207C34020841
:10E5300037B5051D002104462846FEF747F9284651
:10E54000FFF78AFFA168A0F5807000EBD070401043
:10E550001831FEF7A3FE3A4B8021009304200023DC
:10E560004BF29652FEF7DEFA364B80210093A02044
:10E57000002348F21042FEF7D5FA334B9021009366
:10E580004BF2965200230420FEF7CCFAFEF778FEF9
:10E59000902100900023A02048F21042FEF7C2FA1A
:10E5A0002A4BA02100934BF2965200230420FEF741
:10E5B000B9FAFEF769FE0090A0200023014648F258
:10E5C0001042FEF7AFFA224B4BF296520093042012
:10E5D000B0210023FEF7A6FAFEF75AFEB021009004
:10E5E0000023A02048F21042FEF79CFA194BC021EC
:10E5F00000934BF2965200230420FEF793FAFEF7A5
:10E600003BFEC02100900023A02048F21042FEF7FC
:10E6100089FA114BD02100934BF29652002304202B
:10E62000FEF780FAFEF738FE0C4B01900093A02015
:10E63000D02148F210420023FEF796FA3EBD00BFFB
:10E64000C13D0208AC3D0208D13D0208E33D02088D
:10E65000F33D0208013E02080E3E02081D3E02087C
:10E66000C2684368D01A70472DE9F347041D054678
:10E6700000212046FEF7AAF82846FFF78FFEAB6A76
:10E68000002B38D02046FFF7E7FE07462046FFF76D
:10E69000E7FF2B690024A0F13209A3F11908A24673
:10E6A00027E0AA8DAB6A624392FBF7F233F812605F
:10E6B000B6F5805F03D311482421FEF774FA4B4668
:10E6C0005E4344BF06F57E661F366A683613B6B2EF
:10E6D000002C08BFB246A2184FF6FF730093CAEB96
:10E6E0000801501EC6EB0803FEF768FB0134A4B214
:10E6F000B246BC42D5DBBDE8FC8700BF223E020823
:10E7000013B504460068E368009100F10C026168EB
:10E71000FEF74CF920684BF296530093083061687D
:10E72000A268E368FDF789FF1CBD13B504460068C5
:10E73000009102386168A268E368FEF737F9206843
:10E740006168A268E36806304FF6FF740131013A50
:10E75000013B0094FEF72AF91CBD07B503460022D1
:10E7600000680092596800F10802DB68FDF765FF58
:10E770000EBD37B5044600680025616800F1080247
:10E78000E3680095FDF759FFA2686168101FE36810
:10E790000095FDF752FF3EBDC36A37B504460BB185
:10E7A0001B880385204605F0CBFE231D18B11846B3
:10E7B000FFF7DFFF02E01846FFF7CFFF6368204650
:10E7C0000433636005F0BCFE0546218D201D4DB16C
:10E7D000FFF7ABFF636A93B1606800930C30A168E8
:10E7E000002208E0FFF78CFF636A43B16068A1680C
:10E7F00000930C302A464FF61E03FEF793F9636828
:10E80000043B63603EBD0000436B2DE9F0431F797C
:10E8100048F21048A7F10102574247EB02075A7924
:10E8200087B00446002F18BF4FF00008364B12B9CE
:10E830001B689B8C01E01B681B8F23872046FFF71A
:10E84000ABFF636BD4F804909A79304BA56853F80A
:10E85000223009F10E0600933046294642464FF613
:10E860001E03FEF75FF9002F4BD0636B284A99799E
:10E870009F6852F8214038460021103511F044FBC2
:10E8800068B1244B30460093424629464FF61E039A
:10E89000FDF7CDFF07F100428619174601E009F1A7
:10E8A0001406384610F01EFD02460B4602A81A490F
:10E8B000FDF786FE05E006AA02EB0903002203F835
:10E8C000112C02AF384611F0A9FD8146204611F007
:10E8D000A5FD48440728EED83046294642464FF663
:10E8E0001E030097FEF73FF95CB123784BB1043665
:10E8F0003018294644F208224FF61E030094FEF712
:10E9000011F907B0BDE8F083B8AD00205C460208FD
:10E910008C460208AB340208513E02082DE9F04152
:10E92000044686B0FFF738FF6568A768636A10354C
:10E9300000932846394600224FF61E03FEF7F2F8F0
:10E94000204607F1100605F0FBFD002830D0DFF867
:10E9500094803146002228464FF61E03CDF80080F1
:10E96000FDF765FF4519606B1E3703685B699847C3
:10E9700032464319294602A80097FFF78EFB002173
:10E9800002A8FDF723FF676B20463B681D6905F071
:10E99000D7FD02A902463846A84708F17203009342
:10E9A0000498314600224FF61E03FDF740FF15E0A4
:10E9B000606B1E3703685B699847294643193246E6
:10E9C00002A80097FFF769FB666B204633681D6954
:10E9D00005F0B6FD02A902463046A84706B0BDE8DC
:10E9E000F08100BF983302082DE9F041466A002506
:10E9F00086B004464562FFF7CFFE6662231D02AE75
:10EA00000FCB86E80F00304610212A462B46009592
:10EA1000FFF7A5FC636A2A46009303994FF61E038D
:10EA20000298FEF77FF8039B20461033039305F00E
:10EA300087FD024600282FD0029FDFF86C80083F38
:10EA400003992A4638464FF61E030297CDF80080F8
:10EA5000FDF7EDFEC0190290606B03685B69984793
:10EA600003990746029801F10E033A180095FDF745
:10EA7000E4FD606B3146036801221B6998470298E8
:10EA800008F172033818009303992A464FF61E03C3
:10EA90000290FDF7CCFE04E0606B314603681B6911
:10EAA000984706B0BDE8F0819833020873B5054673
:10EAB000FFF772FE6B6B6C68AE681B690E34002248
:10EAC000009331464FF61E032046FEF72BF86B6B82
:10EAD00031461A79114B001953F822300022009365
:10EAE0004FF61E03FEF71EF86B6B06F110011A7944
:10EAF000052A01D10A4A06E0042A03D0094A0092F5
:10EB00009B6802E0084A0092DB68019320460022DD
:10EB10004FF61E03FEF728F87CBD00BFF44602083E
:10EB2000553E0208FC6902085C3E0208436BF7B5DB
:10EB30001D79044648F21043002D0CBF1D460025E8
:10EB4000FFF72AFE6768A6680C4B0E370093314624
:10EB50002A4638464FF61E03FDF7E4FF636B38463E
:10EB60001A79074B06F1100153F822302A46009318
:10EB70004FF61E03FDF7D6FFFEBD00BF603E020844
:10EB8000C846020873B58268C3680E4641680446E9
:10EB90004FF4E045101F0431043204330095FDF7B3
:10EBA00005FFE3682068A268191F043004320433AB
:10EBB0000095FDF7FBFE2068616800F10C02E36838
:10EBC0000096FDF7F3FE2068A2684BF296550830D8
:10EBD0006168043AE3680095FDF72FFDA26861685B
:10EBE000A2F10800E3680095FDF7E0FE7CBD73B577
:10EBF0008268C3680E46416804464FF4E045101F22
:10EC00000431043204330095FDF7D0FEE368206838
:10EC1000A268191F0430043204330095FDF7C6FEC4
:10EC200020686168A268E3680096FDF7BFFE7CBDBE
:10EC300037B5044605F084FC0546218D201D45B1FD
:10EC4000FFF7D5FF6068636A0C300093A16800226B
:10EC500007E0FFF797FF6068636AA16800930C30D4
:10EC60002A464FF61E03FDF75DFF3EBD70B586B028
:10EC700002AC02250E460FC884E80F002046002192
:10EC8000FDF7D0FE2A462B46204629460095FFF781
:10EC900066FB20463146FDF7C5FE204629460E227A
:10ECA0002B460095FFF75BFB20464BF29651FDF794
:10ECB000B9FE06B070BD73B50446051D218D28460A
:10ECC000FFF7D4FF2846FFF737FB656A064628465C
:10ECD00011F0A4FBA168C0B28000301A02310022FA
:10ECE0004FF61E030095FDF71DFF7CBDF0B58BB000
:10ECF000054602AC061D96E80F0084E80F00298D3A
:10ED00003046FFF7B3FF2046FFF716FB6E6A074653
:10ED1000304611F083FB0399C0B28000023100221B
:10ED2000381A4FF61E030096FDF7FCFE122104234D
:10ED30000A46009320460B46FFF711FBE86A11F0E4
:10ED40006DFB2146064608A8FFF7FBFA089B06A8BC
:10ED50002146F600A3EB6606FFF7F3FAEB6A079984
:10ED600000933046073900224FF61E03FDF7DAFE06
:10ED70000BB0F0BDF0B587B0054602AC061D96E8B5
:10ED80000F0084E80F00298D3046FFF76FFF204603
:10ED9000FFF7D2FA6E6A0746304611F03FFB03993F
:10EDA000C0B2800002310022381A4FF61E030096CE
:10EDB000FDF7B8FE12210423009320460A460B46B5
:10EDC000FFF7CDFAEB6A02980399009304300431FF
:10EDD00000224FF61E03FDF7A5FE07B0F0BD4BF273
:10EDE0009651FDF7F3BC2DE9F041012104460026C0
:10EDF000FDF7F6FCD02514E0EB10DA024FEAA50887
:10EE000042EA4818204648EA0308FFF725FB074670
:10EE100002E04046FDF7F4FC013FFAD20D3DEDB2B1
:10EE200001362046FFF71CFC8642E5DBBDE8F041D9
:10EE3000FDF7FCBC10B5044605F082FB231D20B98C
:10EE40001846BDE81040FFF7CABF1846BDE810409D
:10EE5000FFF7C9BF2DE9F04786B0044605F070FB07
:10EE60004FF6FF76002808BF00262046FFF7E2FF96
:10EE7000636A6068324600930430A1684FF61E034F
:10EE8000FDF750FEA06A0121036865685B6898473A
:10EE90008146A06A0121036805F178071B6898473D
:10EEA000B9F1010F804606D1224B05F170000093A5
:10EEB000A168324609E0B9F1000F0AD11D4BA168E3
:10EEC000009305F1700048F210424FF61E03FDF763
:10EED000AEFCD4F828A002AD231D0FCB85E80F00AF
:10EEE000DAF800302046D3F810900297049705F026
:10EEF00027FB294602465046C847A06A03685B695B
:10EF00009847B8F1010F384404D10B4BA168009326
:10EF1000324607E0B8F1000F08D1074BA168009313
:10EF200048F210424FF61E03FDF781FC06B0BDE823
:10EF3000F08700BF013502087335020837B5054672
:10EF400005F0FEFA4FF6FF74002808BF002428469B
:10EF5000FFF770FF6B6A686800930430A968224667
:10EF60004FF61E03FDF7DEFD3EBD13B50446FFF769
:10EF700061FF636A606800930430A16800224FF665
:10EF80001E03FDF7CFFD1CBDF0B587B0044605F0AC
:10EF9000D7FA4FF6FF75002808BF0025204605F078
:10EFA000CFFA68B102AE231D0FCB86E80F00A0F1A7
:10EFB00008030293049B304608330493FFF713FFC2
:10EFC000204605F0BDFA48B1144B6068009307383D
:10EFD000A1682A464FF61E03FDF729FCA76A2046C2
:10EFE0003B681E6905F0ACFA211D02463846B04761
:10EFF000A06A676803685B6998470646204605F083
:10F000009FFA48B1064B781C00938019A1682A46E4
:10F010004FF61E03FDF70BFC07B0F0BD01350208EB
:10F0200073350208C162704773B5044616460D4633
:10F0300019B90C480D21FDF7B6FD0B4B00211B68DB
:10F0400020469B8C0A462387656302230096FEF7C1
:10F05000C1FB204604F1380102B0BDE87040FFF763
:10F06000E1BF00BF3D3C0208B8AD002073B50546C6
:10F0700016460C4619B90A480C21FDF794FD6C633D
:10F08000284634F8062F002102230096FEF7A2FB43
:10F090002846214602B0BDE87040FFF7C3BF00BF5D
:10F0A000683C020808B50379012B09D002D3022B72
:10F0B0000FD10AE08368188800F01F00400808BDDF
:10F0C00083681888C0F3C31008BD83681888000BD4
:10F0D00008BD03484FF48271FDF765FD002008BDAF
:10F0E000973C020830B54FF6FF7585B00C46002AF4
:10F0F00008BF0025FFF7D6FF05F0F4F800238DF8D0
:10F100000D3003AB8DF80C000093206861682A462F
:10F110004FF61E03FDF727FD05B030BD002908B5E9
:10F120000CDDFFF7BFFF0E288CBF0020012008BDBB
:10F13000FFF7B8FF003818BF012008BDF8DB00203A
:10F1400008BD00000379012B12D002D3022B2CD171
:10F150001DE08268138823F01F031B041B0C0F297A
:10F1600002D04900C9B200E01F2141EA03031AE0BE
:10F170008268138823F4FC631B041B0C0F2902D044
:10F180008900C9B200E03F2143EA41130BE08268E5
:10F1900013885B055B0D0F2902D04900C9B200E05E
:10F1A0001F2143EAC1231380704702484FF48E7138
:10F1B000FDF7F9BC973C020810B50446FFF772FF53
:10F1C00030B1411EC9B22046BDE81040FFF7BABFBA
:10F1D00010BD10B50446FFF765FF0E2806D8411C88
:10F1E000C9B22046BDE81040FFF7ACBF10BDC868EB
:10F1F0004042704710B5044605F068FA014B2046BE
:10F20000236010BDD02D0208014B0360704700BF82
:10F21000182E020810B50446FFF7F6FF014B2046F2
:10F22000236010BDF02D020810B50446FFF7ECFF77
:10F23000014B2046236010BDA82F020810B50446DC
:10F2400005F044FA014B2046236010BD602E0208F1
:10F2500010B50446FFF7F2FF014B2046236010BDB6
:10F26000402E020810B50446FFF7E8FF014B204688
:10F27000236010BDC831020810B5044605F026FA17
:10F28000014B2046236010BD902C020810B50021D0
:10F290000446282210F060FF2046FFF7EDFF034BE5
:10F2A000204623600023A36210BD00BF682C020823
:10F2B00010B5044605F00AFA044B204623600123EA
:10F2C00084F82830013BE36210BD00BF28310208FA
:10F2D00005F046B947F269418A4201D1FFF7F8BF0C
:10F2E00044F644418A4205D001318A4202D10122CA
:10F2F00080F8282070470000074A08481168084B2A
:10F3000030B50468074DCB1805FB043301310360A9
:10F3100058041160400C30BD5CA90020043000206E
:10F32000F390240021F17D0030B5254B89B00446CF
:10F3300005AD93E807000C3385E8070093E8070064
:10F3400094F8283002AD85E80700B3B1201D4FF6D0
:10F35000FF71FDF73BFA606821691A4B0830009392
:10F3600014394FF61E030022FDF7DCFB002384F85E
:10F370002830059BE362029B23632046FFF7BCFF16
:10F38000032290FBF2F202EB420208A9821A01EB7F
:10F3900082020346E16A52F80C0C9B0040184010B0
:10F3A000E06252F8181C226B89184FF6FC72491063
:10F3B00003EA0202216309B0BDE83040FDF725B938
:10F3C000E83502086A3E020810B501704270837089
:10F3D00010BD0000F8B5114B4FF4AF7707FB0137B4
:10F3E00000F144040E2615E07B5D202B02D0232B78
:10F3F00006D101E0012300E0002304F8013B03E013
:10F400000748F521FDF7CFFB0135192DECD1193750
:10F41000013E01D00025E7E7F8BD00BF0036020835
:10F42000773E0208192303FB0213C01844307047CB
:10F430002DE9F0474FEA41180F242FE0032B03D8A2
:10F44000DFE803F005090C0F00252E460BE0C0F1A4
:10F450000F063D4607E02646054604E025460646DB
:10F4600001E005463E46134946EA05154AEA4006CC
:10F4700001EB8606D6F8C86346FA09FC1CF00F0CAF
:10F4800008BF4FF0020C01EB4C01B1F8C816013077
:10F49000102822F81510D1D1013C09D3C4F10F076F
:10F4A00004F0070948EAE70A4FEA89090020C5E79E
:10F4B000BDE8F0879833020870B5ADF5027D0C46C3
:10F4C00006461546FFF7AEFF0178052903D1304601
:10F4D00002AA736B06E0042908BFB36B304602AA88
:10F4E00018BF0023FFF7A4FF02A8691C621CAB1C15
:10F4F00000904FF4807001900901200112011B015E
:10F50000FDF7EDF80DF5027D70BD11F0020F034619
:10F5100006D0426B0132032A42630EDD002206E070
:10F5200011F0010F07D0426B002A02DD013A5A6345
:10F5300003E00322FBE705F073B8D96A1A6B18469B
:10F54000FFF7BABF70B5064600240AE029463046E8
:10F5500022460135FFF7B0FF192DF7D101340E2CEB
:10F5600001D00025F2E770BD10B5044605F0C2F9E0
:10F57000236C6FF00901594301F596712046642907
:10F58000B8BF6421BDE8104005F0C4B8074A084878
:10F590001168084B30B50468074DCB1805FB0433E0
:10F5A0000131036058041160400C30BD60A9002097
:10F5B00010300020F390240021F17D0073B5044643
:10F5C0002046FFF7E3FF1923B0FBF3F606FB130613
:10F5D0002046FFF7DBFF0E23B0FBF3F505FB130519
:10F5E000314620462A46FFF71DFF0378012BE7D15D
:10F5F00001330370EAB2023B01A8F1B2FFF7E4FE67
:10F60000019B00201A0CDBB263F307009DF8053064
:10F6100063F30F20D3B263F317407CBD002310B512
:10F62000044643632046FFF7B1FF1923B0FBF3F212
:10F6300002FB13032046E362FFF7A8FF0E23B0FB93
:10F64000F3F202FB1302E16A22632046FFF7EAFEAF
:10F650000378012BE6D10433037010BD30B5CC0123
:10F6600024128460C46099244C4324120461B3249E
:10F6700004FB02F54C4324128461CD2442606243B2
:10F680001212C2613C224A43D211026246224A430C
:10F69000D21142623222016051432D12C9114561DB
:10F6A000816230BDFF29A8BFFF2121EAE1707047C8
:10F6B000C9431E2300204000420001329A405218E4
:10F6C00001D501301146023B13F1020FF3D170470F
:10F6D0002DE9F04F436885B0044615460293002695
:10F6E000BDE0E268A168B21A5243791A01FB012118
:10F6F000236A090491FBF3F1204691FBF3F1FFF734
:10F70000D7FFFF2809DCC0F1FF0808EB8808B8F133
:10F71000FF0FA8BF4FF0FF0801E04FF0000862693B
:10F720002169B21A5243791A01FB0121636A090463
:10F7300091FBF3F191FBF3F12046FFF7B9FF404352
:10F74000E26948BFFF30B21A5243A169A36A791A2D
:10F7500001FB0121090491FBF3F191FBF3F14FEA65
:10F76000202A2046FFF7A4FFB5F90230BAF1FF0FB7
:10F77000A8BF4FF0FF0AB5F90410FF28D8BFC0F1A9
:10F78000FF0003FB0AF3C8BF00204143B5F9002086
:10F79000B5F90AB002EB232303EB2121B5F90830B8
:10F7A0000BFB00FB03FB0AF3B5F9062002EB232356
:10F7B00003EB2B2BB5F90E3003FB0AFAB5F90C302D
:10F7C00003EB2A2AB5F910305843B5F914300AEB87
:10F7D000202AFF2B05D0B5F9123003FB08F84FEAB9
:10F7E00028282046FFF75EFF594684462046CDF87C
:10F7F00004C0FFF757FF514683462046FFF752FFEC
:10F80000B9F80020DDF804C0D300D108D20A01F015
:10F81000FC0103F0FF03D200C3EB0C0A801AC1EB1A
:10F820000B0C08FB0AFA08FB0CFC08FB00F802EBC7
:10F83000282801EB2C2C4FEAE8014FEAAC0CC90256
:10F8400041EA4C1103EB2A2341EAE30329F8023B86
:10F850000137039B49469F42FFF643AF0136029BA7
:10F860009E4204DA2368894603930027F1E705B036
:10F87000BDE8F08F2DE9F04186B006460D461446EE
:10F880000021142201A898460C9F10F065FC4FF649
:10F89000C473ADF80830ADF80E30ADF81430BDF8D3
:10F8A0003430ADF80440ADF80A80C4F1F004C8F17A
:10F8B000F008ADF810703046C7F1F007294601AAEC
:10F8C000ADF80640ADF80C80ADF81270ADF816300A
:10F8D000FFF7FEFE06B0BDE8F08113B5140C130A65
:10F8E00004F0FF040094D2B2E624DBB20194FFF7E7
:10F8F000C1FF1CBD10B5044604F0E8FE064B2046CF
:10F90000202140F8283B0A46FFF7A8FE012384F88F
:10F910005438204610BD00BF7831020804F020BEE4
:10F9200047F269418A4201D1FFF7F8BF44F64441EA
:10F930008A4205D001318A4202D1012280F854283E
:10F9400070470000074A08481168084B30B5046842
:10F95000074DCB1805FB04330131036058041160D7
:10F96000400C30BD64A9002014300020F390240026
:10F9700021F17D002DE9F04390F8543893B004460E
:10F9800073B3051D0EAF0AAE0DF1180895E80F0010
:10F9900087E80F0086E80F0088E80F002846FEF78A
:10F9A0005FFE4FF0030990FBF9F011900B90284691
:10F9B000FEF756FE400090FBF9F00D9007904FF6D1
:10F9C000FF713846FCF702FF30460021FCF7FEFECF
:10F9D00040464FF47841FCF7F9FE002384F8543890
:10F9E0002046FFF7AFFF261D05463046FEF734FDE3
:10F9F000A76AC71BB5FBF7F307FB135763682046DD
:10FA0000FF18FFF79FFF05463046FEF729FEE66A1E
:10FA1000861BB5FBF6F306FB1356A3682046F618C3
:10FA2000FFF790FFE26AA36AB2180546FB1800923E
:10FA30003946324602A804F15406FEF72EFB02A80E
:10FA40003146FCF77EFE2A115523A91002F003026D
:10FA50005A4301F00301594305F003055D431204C5
:10FA600042EA012204F1280031462A43FFF735FF1C
:10FA700002A83146FCF77FFE13B0BDE8F08300001A
:10FA800010B5044604F022FE014B2046236010BD51
:10FA9000A03102080160426070477047043070472F
:10FAA00010B50021044610F02FFA08B104F100440B
:10FAB000204610BD704704307047016042607047B7
:10FAC00010B501604260836010BD0000014B03600F
:10FAD000704700BFF832020810B50446FFF7F6FF82
:10FAE000044B20462360002384F82830237163628E
:10FAF00010BD00BFD832020870B51E460023044670
:10FB000015460371437111B1012905D101E00123AB
:10FB100000E00223836004E0054840F20111FDF794
:10FB200042F84FF0FF3323616561666270BD00BF2C
:10FB3000923E02088368012B04D1064B80891B6822
:10FB4000D8847047022B03D1024B80891B685887E9
:10FB5000704700BFB8AD0020C1610262704700006D
:10FB6000032380F828300148FDF7F0B8B83E0208BA
:10FB7000012380F828307047022380F8283070472E
:10FB80002DE9F041C66B0746002E3FDD013EC663FE
:10FB9000002E3BD14FF0FF342546B0467B6B012B46
:10FBA00004D13046FDF751FA037800E000237A6B68
:10FBB000022A03D13046FDF748FA4378B5F1FF3FFA
:10FBC00006D09D42B8BF1D469C42A8BF1C4601E01E
:10FBD0001C461D460136B6F5805F9844DED140468E
:10FBE0000FF0A0FF4FF066510FF0F0FF0646281B04
:10FBF0000FF098FF4FF07A510FF0E8FF2C370246D4
:10FC000031463846BDE8F041FFF7A6BFBDE8F081B8
:10FC10002DE9F041044686B051B9042A08D146F2D4
:10FC20006745AB4204D106B0BDE8F041FFF7A8BF7D
:10FC300004F5C673994228D146F665439A4224D109
:10FC400004F12C0594F8551094F8562004F158034B
:10FC50002846FFF751FF204604F06CFC2846FDF7CC
:10FC600056FC204604F022FE2846FDF74DFC0228F3
:10FC700005D0204606B0BDE8F0410BF083B8204621
:10FC800006B0BDE8F0410BF051B804F5AC739942F1
:10FC900040F0988046F665439A4240F093802046B3
:10FCA00004F004FE494B94F856601D6894F85530F2
:10FCB000012B11D14FF0300E0EFB065E0EF5D677FC
:10FCC0000EF53F7EBEE80F000FC7BEE80F000FC75E
:10FCD0009EE80F0087E80F003D4B3027009394F813
:10FCE00055203C4B774353F82230DFF8F4800193E2
:10FCF00094F85620384BEE1953F8223024214FF651
:10FD0000FF72002402931E200023FCF72DFFD6F87B
:10FD1000B001CDF800800194B6F9AC3103904042B7
:10FD200002930FF0FFFE4FF068510FF04FFF0FF0FE
:10FD3000D9FA4FF6FF72CDE9040123463C211E207B
:10FD4000FCF712FF0123D6F8B401CDF8008001932F
:10FD5000B6F9AE310390404202930FF0E3FE4FF04C
:10FD600068510FF033FF0FF0BDFA4FF6FF72CDE987
:10FD7000040123461E204C21FCF7F6FEED1906F582
:10FD8000DB7605F5E0755427144B55F8040F019404
:10FD9000009336F9023F039002930FF0C3FE4FF039
:10FDA00068510FF013FF0FF09DFA1037CDE90401F1
:10FDB00000231E2039464FF6FF720134FCF7D4FEB3
:10FDC000062CE1D106B0BDE8F08100BFB8AD00203F
:10FDD000CD3E020808460208CC440208F93E02085B
:10FDE000E53E020810B5044604F070FC014B2046C5
:10FDF000236010BD882D020810B50446FFF704FAF1
:10FE0000014B2046236010BDE831020810B50446BE
:10FE1000FFF714FA014B2046236010BD3032020870
:10FE200070B50546FFF70AFA064B2C4644F8283B06
:10FE300005F1D80620462C34FFF7E8FFB442F9D18B
:10FE4000284670BD1032020810B50446FFF7DCF9F1
:10FE5000014B2046236010BD5032020810B5044605
:10FE6000FFF7C8F9214B204640F82C3BFFF7FAF981
:10FE700004F15400FFF7F6F904F17C00FFF7F2F902
:10FE800004F1A400FFF7EEF904F1CC00FFF7B4FF92
:10FE900004F1D800FFF7B0FF04F1E400FFF7ACFF76
:10FEA00004F1F000FFF7A8FF04F1FC00FFF7B8FF32
:10FEB00004F5EA70FFF7A0FF04F5F070FFF79CFF70
:10FEC00004F5F670FFF798FF04F5FC70FFF794FF58
:10FED00004F50170FFF7A4FF04F53770FFF7B4FFD6
:10FEE00004F53970FFF7B4F9204610BDC06202086E
:10FEF00010B50446FFF77EF904F12C00FFF7ECFD86
:10FF0000164B04F1880023602033E362FFF7AAF95F
:10FF100004F1B000FFF7A6F904F1D800FFF77AF971
:10FF200004F1E800FFF794F904F58A70FFF772F91D
:10FF300004F59270FFF78CF904F5A870FFF784FFC1
:10FF400004F5AC70FFF784F904F5C270FFF77CFF8D
:10FF500004F5C670FFF77CF9204610BD7832020820
:10FF600010B5044604F0B2FB104B204640F8283B85
:10FF7000FFF738FF04F15C00FFF734FF04F1900055
:10FF8000FFF730FF04F1C400FFF72CFF04F1F80085
:10FF9000FFF728FF04F59670FFF760FF04F588600F
:10FFA0000430FFF7A5FF204610BD00BF186302080C
:10FFB00010B5044604F08AFB054B2046236001235C
:10FFC00084F830300023A362002384F8313010BD60
:10FFD0001062020870B504460D46164604F076FB22
:10FFE000024BA5622360E662204670BDF8770208E6
:10FFF00070B504460D46164604F068FB024BA56238
:020000040801F1
:100000002360E662204670BDD077020870B50446D2
:100010000D46164604F05AFB034BED00F600236034
:10002000A562E662204670BDA877020810B52021BF
:1000300032220446FFF7CEFF014B2046236010BD5D
:10004000B82C0208202110B50A460446FFF7C2FF6B
:10005000014B2046236010BDE02C020810B5202182
:1000600007220446FFF7C4FF014B2046236010BD62
:10007000082D020810B5202110220446FFF7C6FF04
:10008000014B2046236010BD302D020810B50446F8
:10009000FCF7DEF940F22D1360602381204610BD8D
:1000A000038813B940F22D1303810988018070473A
:1000B00038B504460D46FCF7CBF962682389821AED
:1000C0009A4215D923889BB12B80238940F22D12A7
:1000D0009342606002D14FF4967307E0B3F5967FC8
:1000E00001D1642302E00A2B04D90A3B238138BDE5
:1000F00000232B8038BD000010B5044604F0E6FA5A
:10010000014B2046236010BD905C020810B50446E8
:10011000FFF768FE014B2046236010BD582D0208F2
:1001200010B50446FFF766F8114B204640F8303B07
:10013000FFF770F804F14000FFF76CF804F150008D
:10014000FFF768F804F16000FFF764F804F170004D
:10015000FFF77EF804F19C00FFF77AF804F1C8007D
:10016000FFF776F804F1F400FFF772F8204610BDAF
:10017000B02D020870B5054604F0A8FA084B2C46CD
:1001800044F8283B05F5C87620463C34FFF7BEFF0F
:10019000B442F9D12046FFF7C3FF284670BD00BF27
:1001A000206A020810B5044604F090FA0D4B204670
:1001B00040F8283BFFF716FE04F15C00FFF712FE43
:1001C00004F19000FFF70EFE04F1C400FFF70AFEF1
:1001D00004F1F800FFF706FE04F59670FFF702FE43
:1001E000204610BD802E020810B50446FFF7FAFD28
:1001F000014B2046236010BDA82E020810B504460E
:1002000004F064FA154B204640F8283BFFF702F84B
:1002100004F13800FEF7FEFF04F14800FEF7FAFF94
:1002200004F15800FEF7F6FF04F16800FEF7F2FF54
:1002300004F17800FFF7D8FF04F1B000FFF7D4FF16
:1002400004F1E800FFF7D0FF04F59070FFF7CCFF52
:1002500004F5AC70FFF7C8FF204610BD40700208DF
:1002600010B50446FFF7BEFD014B2046236010BDCC
:10027000D02E020810B50446FEF7C6FF014B2046FB
:10028000236010BD002F020810B5044604F01EFACA
:10029000154B204640F8283BFFF7E2FF04F16000D1
:1002A000FFF7DEFF04F19800FFF7DAFF04F1D0005A
:1002B000FFF7D6FF04F58470FFF7D2FF04F5A070B6
:1002C000FEF7A8FF04F5A870FFF7D4FF04F5AE70A1
:1002D000FFF7D0FF04F5B470FFF7CCFF04F5BA7058
:1002E000FFF7C8FF204610BDD040020810B50446F5
:1002F000FFF778FD014B2046236010BD282F020830
:1003000010B50446FFF76EFD014B2046236010BD7B
:10031000582F020810B50446FEF76CFF0D4B20461F
:1003200040F8303BFEF776FF04F14000FEF790FF07
:1003300004F16C00FEF778FF04F17C00FEF788FF03
:1003400004F1A800FEF770FF04F1B800FEF780FF8B
:10035000204610BD882F020810B50446FEF754FF52
:10036000014B2046236010BDF02F020810B5044653
:10037000FEF74AFF014B2046236010BD18300208EB
:1003800010B50446FEF736FF154B204640F8303BCB
:10039000FFF7E2FF04F13800FFF7E8FF04F1440043
:1003A000FFF7E4FF04F15000FFF7E0FF04F15C0009
:1003B000FEF74EFF04F18800FEF74AFF04F1B40097
:1003C000FEF746FF04F1E000FEF742FF04F58670F9
:1003D000FEF720FF04F58E70FEF73AFF204610BDB1
:1003E000D02F020810B5044604F070F90D4B2046DA
:1003F00040F8283BFFF77AFF04F16000FFF776FF33
:1004000004F19800FFF772FF04F1D000FFF778FFC6
:1004100004F58470FFF77EFF04F5F670FFF7B0FF78
:10042000204610BDE86F020810B5044604F04EF9EE
:10043000074B204640F8283BFFF7D4FC04F15C0052
:10044000FFF7D0FC04F19000FFF7CCFC204610BD74
:100450004030020810B5044604F038F9014B20463C
:10046000236010BD6830020810B5044604F02EF970
:10047000014B2046236010BD9030020810B50446A1
:1004800004F024F9014B2046236010BDB830020867
:1004900010B5044604F01AF9014B2046236010BD44
:1004A0000031020810B5044604F010F9014B204653
:1004B000236010BDE879020810B5044604F006F97F
:1004C000014B2046236010BD1833020810B50446C6
:1004D00004F0FCF8114B204640F8283BFFF7ECFFF6
:1004E00004F15400FFF7E8FF04F18000FFF7E4FF98
:1004F00004F1AC00FFF7E0FF04F1D800FFF7DCFFE8
:1005000004F58270FFF7D8FF04F59870FFF7D4FF69
:1005100004F5AE70FFF7D0FF204610BD285D02083D
:1005200010B5044604F0D2F8014B2046236010BDFC
:100530004033020810B5044604F0C8F8014B2046C9
:10054000236010BD8033020810B5044604F0BEF8E5
:10055000054B204640F8383BFFF7ECFF04F1600004
:10056000FFF7E8FF204610BD60330208F8B50468C5
:1005700005460E46104621460FF01EFA0746B6F90C
:100580000200B6F90060801B0FF0CCFA0146384635
:100590000FF01CFB2146074668680FF00DFA014674
:1005A00038460FF0C7FB044630460FF0BBFA014651
:1005B00020460FF003FA0FF0CFFCF8BD0A4600F119
:1005C0000801FFF7D3BF0000084A03461068996985
:1005D00000F5886010B50C30FFF7F0FF044B0121E7
:1005E00018801846BDE81040FCF752BDB8AD002099
:1005F00068A9002070B50523002408E0E5186D10F7
:1006000030F91560B242B8BF2B46A8BF2C461D1B5F
:10061000012DF3DC30F9145051F8244051F8231027
:10062000521B091B4A4330F91300451B92FBF5F09E
:10063000001970BDB0F9003010B50C684968D21AC5
:10064000091B4A43B0F90200C31A92FBF3F00019E8
:1006500010BD00002DE9F8438F7930257D43B1F9B5
:100660000A90064605F118014019144671184A46C9
:100670000C30FFF7BFFF804660607019011D4A46CD
:10068000FFF7D8FF044BA06053F8273090FBF8F039
:10069000E0602360BDE8F883D83002082DE9F0411E
:1006A0002E4D86B0044600210430FCF78FF82B68ED
:1006B000C827B3F8803021697B430539284EA1EB68
:1006C000132160684FF61E0346F20C320096FCF7C9
:1006D000AEF8296891F83430DBB101F53F7002AA19
:1006E0003031FFF7B7FFD5F8008002A908F53F7059
:1006F000FEF77DFD80B247432169B8F838200539FF
:1007000065366068A1EB17214FF61E030096FCF7D3
:100710008EF8296891F82030EBB101F5D67002AA65
:100720001C31FFF797FF0D4B02A91D6805F5D67028
:10073000FEF75DFDC82100B2484321690539A1EBF0
:100740002021E82907D8074BAA8C606800934FF650
:100750001E03FCF76CF806B0BDE8F081B8AD0020D0
:10076000803A02084A3B0208002301608380C2806D
:100770007047000010B5044603F0A8FF064B04F5CF
:100780000E702360002384F8283004F5D1713222E2
:10079000FFF7EAFF204610BD5031020838B5044685
:1007A00003F094FF4E4B204640F8283BFFF7A4FC93
:1007B00004F1540001F070FE04F53970FEF766FD97
:1007C00004F54570FFF732FC04F55170FFF73AFC71
:1007D00004F55D70FFF742FC04F56970FFF74AFC11
:1007E00004F5767006F00AFC04F52E6008300AF075
:1007F0002FFF04F560600830FFF7BCFC04F584505F
:100800003830FFF7CFFC04F590501830FFF7F6FCB6
:1008100004F59C502830FFF737FD04F5A8502C3024
:10082000FFF7E0FD04F5C350FFF7FEFD04F5C850E7
:1008300004F5CA552430FFF70DFE05F10C00FFF753
:1008400013FE05F13400FFF719FE04F5CC5004F552
:10085000CE551C30FFF71CFE281DFEF729FD05F1C3
:100860003800FFF787FF04F5E05004F512553830E3
:10087000FFF740F805F11000FFF702F905F1380025
:1008800004F52A55FFF76CFB05F13400FFF790FBE8
:1008900005F1680009F05EFE04F5325004F53455A8
:1008A0000C300EF06FFA05F15000FFF7FBFD05F17B
:1008B000780004F53C55FFF709FE2846FFF730FEA7
:1008C00005F1300004F53E55FFF73EFE05F1380016
:1008D0000BF0F3FB05F16C000CF033FB204638BD48
:1008E000984B020810B50446FFF758FF04F5465030
:1008F0000C3002F0E5FC04F556506430FFF7C6FBFF
:10090000204610BD10B5064C236813F0010F04D12A
:100910000448FFF7E7FF01232360024810BD00BF32
:10092000687300206C73002010B50C46FBF790FD37
:100930000419FCF70AFDFCF70DFDFBF789FDA04249
:10094000F7D310BD00238380704730B590F828306E
:1009500087B00446002B5ED00021FEF73BFD204609
:10096000FEF75CFE2046FEF729FE8DF80000C0F37E
:100970000723C0F307408DF802008DF80130009B7B
:100980002046ADF814301B0C8DF81630FEF716FE1D
:100990008DF80000C0F30723C0F307408DF8020074
:1009A0008DF80130009B2046ADF810301B0C8DF8FF
:1009B0001230FEF703FE8DF80000C0F30723C0F3EA
:1009C00007408DF802008DF80130009B2046ADF8FD
:1009D0000C301B0C8DF80E30FEF7F0FD8DF800008A
:1009E000C0F30723C0F307408DF802008DF80130F3
:1009F000009B0025ADF808301B0C8DF80A3003234E
:100A0000E36304F50E702564FFF79CFF2046FEF7B4
:100A1000ABFD84F82850204607B0BDE83040FEF713
:100A200091BD80887047000073B501918288C388AA
:100A300004469A4203D309488321FCF7B4F802AA7A
:100A4000A38832F8046D206803EB430192784518BF
:100A500001334652AA70A3807CBD00BF0D3F02083F
:100A600038B50C1E054602DA8388E41804D42846FB
:100A7000FFF7D7FF844203DB0448A821FCF793F873
:100A8000286804EB4404001938BD00BF0D3F02087C
:100A9000818070478088704738B50C1E054602DAA1
:100AA0008388E41804D42846FFF7F4FF844203DB6C
:100AB0000348A821FCF777F8286800EBC40038BD8C
:100AC0000D3F02082DE9F74F0D4601929846044666
:100AD000FFF7E0FF01462846FFF7DAFF00264EE069
:100AE000012E01DD711E00E000212046FFF7D4FF3A
:100AF000FEF7D4FF3146D0F800B02046FFF7CCFF18
:100B0000FEF7CCFFD0F800A02046FFF7C3FF013866
:100B1000864201DA711C00E031462046FFF7BCFF37
:100B2000FEF7BCFF3146D0F800902846FFF7B4FF2F
:100B3000314607462046FFF7AFFF03C887E80300AA
:100B400031462846FFF7A8FFFEF7A8FF01990746A0
:100B500058460FF03BF84146834650460FF036F8B2
:100B6000014658460EF02AFF0C99824648460FF07F
:100B70002DF8014650460EF021FF01363860204620
:100B8000FFF788FF8642ABDBBDE8FE8F2DE9F84317
:100B900005468846FFF77EFF0024461E11E0371900
:100BA0007F1039462846FFF777FFFEF776FF0346AA
:100BB000196840460FF0C6F9002808BF3E4618BF26
:100BC0003C46331B012BEADC21462846FFF764FF35
:100BD000FEF764FF214607682846FFF75DFFFEF732
:100BE0005CFF0346196840460EF0E6FE314680463B
:100BF0002846FFF751FFFEF750FF2146D0F800903E
:100C00002846FFF749FFFEF748FF034619684846A4
:100C10000EF0D2FE014640460FF08CF83146804679
:100C20002846FFF739FFFEF739FF214606682846B8
:100C3000FFF732FFFEF732FF0346196830460EF029
:100C4000BBFE014640460EF0C1FF014638460EF09D
:100C5000B5FEBDE8F88300007FB502AB83E806006F
:100C6000002620E0002E02DD1248FCF76FF8314626
:100C700002A8FFF711FFFEF710FF00680EF032FB2D
:100C800004460D4602A83146FFF706FFFEF706FFB1
:100C900000680EF027FB2246CDE900012B460648EE
:100CA000FCF754F8013602A8FFF7F4FE8642D9DBC0
:100CB0007FBD00BF2B3F02082E3F020801600021CC
:100CC0008180C2807047016000218180C2807047AE
:100CD00013B56B4683E806008288C38804469A42AF
:100CE00003D307488321FBF75EFFA3882268694688
:100CF00002EBC302013303C982E80300A3801CBDD9
:100D00000D3F02088088704730B585B0044601A8C1
:100D100080E80E00A288E3889A4203D30848832122
:100D2000FBF741FFA58823680C2202FB053301AACB
:100D3000013507CA83E80700A58005B030BD00BFB4
:100D40000D3F0208016000218180C28070478088C9
:100D50007047000038B50C1E054602DA8388E41897
:100D600004D42846FFF7F3FF844203DB0448A8219C
:100D7000FBF719FF2B680C2000FB043038BD00BFC7
:100D80000D3F02088388C288CB189BB29A428380A9
:100D900003D202489721FBF706BF70470D3F0208B8
:100DA00070B50C460546FFF73CFE844203DB0F4856
:100DB000AE21FBF7F8FE04EB440608E02B68013493
:100DC0009B191A8823F8032C9A7803F8012C2846DB
:100DD000FFF727FE013803368442EFDB28464FF049
:100DE000FF31BDE87040FFF7CDBF00BF0D3F0208E7
:100DF0002DE9F04387B0044603F028FB844240F01D
:100E0000B980E16A226BFEF70DFB03230370E16AF0
:100E10002046226B04F50E75FEF74EFB2846FFF7C1
:100E200000FE60B994F82C1005A894F8302094F8CE
:100E30003430FEF7C9FA28460599FFF7F5FD676BD0
:100E40004E4B204613F90790E36A99444C4BC4F883
:100E50002C9013F90780236B494698444246C4F806
:100E60003080FEF7DFFAFBB206465FFA89F15FFADF
:100E700088F204A8FEF7A8FA28460499FFF7D4FDE3
:100E80003378022B24D1E36B302B01DC0133E36395
:100E90002046FEF793FB8DF80000C0F30723C0F354
:100EA00007408DF801308DF80200009920468AB283
:100EB0000B0CADF80C10120AC9B28DF80E30FEF70B
:100EC000FBFA0520FBF7D4FA2046FEF74DFB0DE0B8
:100ED000042B0BD0012B09D0C820FBF7C9FA204600
:100EE00003F008FD012384F8283043E0E16A226B17
:100EF0002046FEF797FA05230370E16A2046226B2D
:100F0000FEF7DAFA2846FFF78CFDE36B984214DD12
:100F100000212846FFF7A4FD064631787278204666
:100F2000FEF780FA01230370317820467278FEF7CD
:100F3000C3FA28460021FFF733FF2846FFF771FD6B
:100F4000E36B834216DC00212846FFF789FD01216F
:100F500006462846FFF784FD83782046A363317850
:100F60007278FEF75FFA04230370317820467278B6
:100F7000FEF7A2FA07B0BDE8F08300BF0C300020F6
:100F8000083000208388C288CB189BB29A428380A5
:100F900003D202489721FBF706BE70470D3F0208B7
:100FA000F8B50C4605461746FFF774FD8442064621
:100FB00003DB0E48B721FBF7F6FD28460121FFF7BA
:100FC000E1FF3346F60005E0891901F1080203C983
:100FD00082E80300013B083EA3422968F4DA01EBF2
:100FE000C40497E8030084E80300F8BD0D3F02083D
:100FF0002DE9F04704460D46084602211646FFF744
:1010000047FD00212846FFF747FD002107462046FF
:10101000FFF742FD03C887E8030001212846FFF7D8
:101020003BFD07462046FFF735FD411E2046FFF7F2
:1010300033FD03C887E8030068E041462046FFF718
:101040002BFDFEF72BFD4146D0F800902046FFF720
:1010500023FDFEF722FD034619682846FFF796FD9B
:10106000014648460EF0A8FCFEF71AFD39468146B7
:101070002046FFF711FDFEF711FD3946D0F800A01C
:101080002046FFF709FDFEF708FD034619682846CC
:10109000FFF77CFD014650460EF08EFCFEF700FD8A
:1010A000014648460EF04EFF002818BF474608F19B
:1010B00001082046FFF7EEFC8045BEDB4FF000083C
:1010C0001FE041462846FFF7E7FCFEF7E6FC3946FD
:1010D000D0F800902046FFF7DFFCFEF7DEFC034669
:1010E000196848460EF02EFF48B139462046FFF7F2
:1010F000D3FC414602462846FFF752FF06E008F1BE
:1011000001082846FFF7C6FC8045DADB2846FFF7D2
:10111000C1FCB04203DA4FF001080027C9E7BDE87F
:10112000F087000038B50C1E054602DA8388E41803
:1011300004D42846FFF7E6FD844203DB0348A821D8
:10114000FBF731FD286800EBC40038BD0D3F0208F5
:101150002DE9F04F804685B008460391FFF7D2FD98
:1011600000240346002702942646A146254637E080
:10117000394603980193FFF7D5FFFEF79CFC3946EB
:10118000D0F800B00398FFF7CDFFFEF793FC594667
:10119000D0F800A028460EF011FC594605465846E6
:1011A0000EF014FD014648460EF008FC51468146FB
:1011B00030460EF003FC5146064650460EF006FD42
:1011C000014602980EF0FAFB5146029058460EF086
:1011D000FDFC014620460EF0F1FB019B0446013761
:1011E0009F42C5DB18460EF09DFC494682460EF034
:1011F000EDFC2946074628460EF0E8FC0146384635
:101200000EF0DAFB2146074650460EF0DFFC314671
:10121000834628460EF0DAFC014658460EF0CCFB19
:10122000394683460EF086FD4946C8F80000304630
:101230000EF0CCFC2946814620460EF0C7FC014644
:1012400048460EF0B9FB39460EF074FD5946C8F811
:10125000040058460EF0BAFC0299044650460EF0BF
:10126000B5FC3146054630460EF0B0FC0146284636
:101270000EF0A2FB014638460EF0A8FC01462046BF
:101280000EF058FDC8F80800404605B0BDE8F08FE4
:101290002DE9F04F4269A24B0446ADF5026D53F8BB
:1012A000222083B09F48A168FBF750FDA368012B63
:1012B00005D19D4B62691B6883F8222006E0022B52
:1012C00004D1994B62691B6883F836200DF50260E2
:1012D00005A93D22FFF7F2FC6FF01303EBE0204677
:1012E000FEF728FC05F036FE0DF5006018300DF510
:1012F000D8611922FFF7E7FC8C4BA3617DE0204603
:10130000FFF762F920466421FFF70EFB2379002BDB
:101310002FD0032323614FF07E532362A0690DF089
:10132000E1FF02460B468248E168FBF70FFD00250E
:1013300005E020466421FFF7F7FA2379CBB1236952
:10134000002BF6DCD4F820804FF07E5140460EF0A2
:10135000E5FDF8B940460DF0C5FF0B46024675485D
:10136000FBF7F4FC20464FF4FA71FFF7DDFA23791E
:101370001BB92046FEF7F4FBF2E10123ED18092D1D
:101380002361DCDD4FF4FA70FBF772F86A48FBF773
:10139000DDFC62E0E0690DF0A5FF064640460F4621
:1013A0000DF0A0FF3246CDE900013B466348FBF754
:1013B000CDFCE6694FF0834130460EF0B9FD90B1A7
:1013C00030465F490EF0AAFD68B10DF50165A169CF
:1013D00032462846FEF771FB95E806000DF50060E1
:1013E0001830FFF775FCE06956490EF0A1FD58B9B9
:1013F000A0694E490EF0E2FAA061A06952490EF0D0
:101400008DFD00287FF47BAF0DF500601830FFF7ED
:1014100079FC01284DDD0DF5FA600DF50061043011
:101420001831FFF795FEDDF8DC070DF05BFF3AA3FE
:10143000D3E90023DDF8D467DDF8D8578046894624
:101440000EF016FA88B14FF4FA70FBF711F83F4826
:10145000E16842464B46FBF779FC4FF4FA70FAF725
:10146000FDFF2046FEF784FB7AE131464FF07E50C7
:101470000EF060FC0DF036FF824628468B460DF0DC
:1014800031FF0DF5F967CDE9000152463048E168BA
:101490005B46CDE90289FBF759FCE16832462B46F1
:1014A0003846FEF70DFB97E80E000DF50260FFF7DA
:1014B0002BFCE3680533E360E368B3F58C7F7FF7CB
:1014C0000EAF0DF500600DF59B613D220830FFF772
:1014D00039FCBCA93D220DF50060FFF733FC0DF58A
:1014E000F76102220DF5FF60FFF72CFC0DF5F161AD
:1014F00006220DF5FE60FFF725FC0DF50260FFF7F3
:1015000026FC01460DF500600830FFF7C1FA002502
:1015100042E000BFAFF30080AE47E17A14AEEF3F88
:10152000CC4402083D3F0208B8AD0020CDCCCC3DF4
:101530005F3F0208753F02089C3F0208CE3F020849
:101540000000704366E679439A992140E23F020821
:101550001C4002080DF5006029460830FFF79CFA90
:10156000294607460DF50260FFF7F4FB00680EF010
:10157000D9FA294680460DF50260FFF7EBFB0DF521
:10158000FD660346414630469A68FEF783FA96E8C0
:10159000030087E8030001350DF50260FFF7D7FB74
:1015A0008542D7DB0DF500600DF5FF6102220830A2
:1015B000FFF71EFD0DF50260FFF7C9FB01460DF5B3
:1015C00000600830FFF764FA002521E00DF50060A7
:1015D00029460830FFF760FA294607460DF50260F4
:1015E000FFF7B8FB00680EF09DFA294680460DF51E
:1015F0000260FFF7AFFB0DF5FC660346414630463F
:101600005A68FEF747FA96E8030087E803000135B9
:101610000DF50260FFF79BFB8542D7DB0DF50060FF
:101620004FF07A5208300DF500614FF07C53009274
:10163000FFF748FA0DF5006100234FF07C520DF5DD
:101640000060083100920DF5FE66FFF73BFA0DF5DC
:101650000060314606220830FFF7CAFC4348FBF71A
:1016600075FB0DF5FF654248FBF770FB95E806003A
:101670002046FFF7F1FA3F48FBF768FB3E48FBF7CF
:1016800065FB96E806002046FFF7E6FA3948FBF7C7
:101690005DFB636A002B5ED06269384B4FF08F4070
:1016A00053F822100EF046FB06462846FFF7F2F9E3
:1016B000022804D032484FF4DC71FBF774FA00259D
:1016C00029460DF5FF60676AFFF7E6F900680EF03E
:1016D00043FC294627F815000DF5FF60676AFFF700
:1016E000DBF90346596830460EF070FA0EF034FC10
:1016F00007EB85070135022D7860E1D10DF5FE601D
:10170000FFF7C8F9062804D01D484FF4DF71FBF736
:101710004AFA002529460DF5FE60676AFFF7BCF915
:101720002B1D006807EB43070EF016FC2946B88016
:101730000DF5FE60676AFFF7AFF90346596830465A
:101740000EF044FA0EF008FC05F106080135062DEE
:1017500047F82800DED12046FEF70EFA0023237159
:101760000BB00DF5006DBDE8F08F00BF43400208DF
:10177000594002085F40020862400208B032020885
:10178000923E0208AFF3008013B54FF000600A49A3
:1017900000F0F6F800F0FAF9F2F768FD01A8FBF79F
:1017A00033FE01A8FBF7D6FD04460028F9D101A8B5
:1017B000FBF7CAFD20461CBD00C000080B4B4FF0D4
:1017C000FF316FF07042C3F88010C3F88420C3F873
:1017D0008011C3F88421002303F1C001034A0133BF
:1017E00000200F2B42F82100F6D1704700E100E005
:1017F000094B4FF0206209495A6000229A60D96073
:101800001A615A619A61DA611A625A62013A9A62FD
:10181000DA621A63704700BF00ED00E00000FA05CD
:1018200040F0BE60024B40F42020D860704700BFFB
:1018300000ED00E0C37870B56BB31D4B4578DB68F5
:101840008178DB4303F4E0631B0AC3F1040215FA59
:1018500002F20F25DD400D40154302782D0102F004
:101860000304E400FF21A540A140124B9208C032BE
:1018700053F8226026EA010405EA0101214343F8F6
:10188000221002780120510902F01F0210FA02F220
:1018900043F8212070BD03780122590903F01F038A
:1018A00012FA03F3034A203142F8213070BD00BF21
:1018B00000ED00E000E100E000230370437083705E
:1018C000C370704700F04BB900F047B900F04EB953
:1018D00000F04AB9000100F04EB900F04FB9034BD7
:1018E00003485B6803EA0000000B704700ED00E06E
:1018F00000F03F00012200F01F0312FA03F3400939
:10190000044A403052F820001840C31A584240EBB5
:101910000300704700E100E0014B1860704700BF12
:1019200000EF00E04209012300F01F0013FA00F06D
:10193000024B603243F82200704700BF00E100E034
:10194000024B58688005800D704700BF00ED00E035
:10195000012200F01F0312FA03F34009044A803009
:1019600052F820001840C21A504240EB0200704763
:1019700000E100E0014B1868704700BF00ED00E097
:1019800021F0604121F07F01014B014399607047D4
:1019900000ED00E0014A024BDA6070470400FA05EE
:1019A00000ED00E0014A024BDA6070470100FA05E1
:1019B00000ED00E0044B11B11A69104302E01A690E
:1019C00022EA00001861704700ED00E0012300F0FA
:1019D0001F0013FA00F0054B11B15A6A104302E0E0
:1019E0005A6A22EA00005862704700BF00ED00E02A
:1019F000134B70B5DC68FF26E44304F4E064240A6A
:101A0000C4F1040536FA04F4A94002EA040400F023
:101A1000C002400900F01800864044EA01010901B3
:101A200011FA00F09209063253F8224024EA060621
:101A300043F8226053F82260304343F8220070BD1F
:101A400000ED00E0830A012203F00F0312FA03F312
:101A5000044A506A03EA0000C11A484240EB010000
:101A6000704700BF00ED00E000F01F00012111FAF7
:101A700000F0034B5A6840EA02025A60704700BF08
:101A800000ED00E000F01F010139012010FA01F122
:101A9000024B5A6841EA02025A60704700ED00E0CA
:101AA000830B012203F00F0312FA03F3054A506A75
:101AB00003EA0000C3EB000CDCF1000040EB0C007B
:101AC000704700BF00ED00E0830C13F003020A4BE7
