:020000040800F2
:10C000000000012099110108011001080310010826
:10C0100005100108071001080910010800000000C0
:10C020000000000000000000000000000D100108EA
:10C030000B100108000000000F100108111001088A
:10C040001310010815100108171001081910010834
:10C050001B1001081D1001081F1001082110010804
:10C0600023100108251001082710010829100108D4
:10C070002B1001082D1001082F10010831100108A4
:10C080003310010835100108371001083910010874
:10C090003D10010841100108431001084510010836
:10C0A00047100108491001084B1001084D10010804
:10C0B0004F100108511001081D1101081F1101083E
:10C0C0002111010823110108251101082711010878
:10C0D000291101082B1101082D1101082F11010848
:10C0E0003111010833110108351101083711010818
:10C0F000391101083B1101083D1101083F110108E8
:10C1000041110108431101084511010847110108B7
:10C11000491101084B1101084D1101084F11010887
:10C120005111010853110108551101085711010857
:10C1300020B10368197003680133036070472DE96B
:10C14000F041161E04460D4614DD002200E00132C7
:10C15000A95C0029FBD1B24203F00208B4BFC2EBD4
:10C1600006060E46B8F1000F0CBF4FF020084FF046
:10C17000300801E04FF0200813F0010709D105E075
:10C1800020464146FFF7D4FF0137013E002EF7DC81
:10C1900005E0002703E02046FFF7CAFF013715F846
:10C1A000011B0029F7D105E020464146FFF7C0FFFB
:10C1B0000137013E002EF7DC3846BDE8F0812DE95D
:10C1C000FF410A9F05460B9EDDF830C08E4651B9EF
:10C1D00030238DF804308DF805103A4601A9334616
:10C1E000FFF7ADFF3CE03BB10A2A07D1002905DA91
:10C1F000C1F1000E012402E01C4600E0002404A965
:10C20000002301F8013D0EE0BEFBF2F302FB13EE4A
:10C21000BEF1090FC4BFACF13A0086440EF1300EF6
:10C2200001F801ED9E468846BEF1000FECD184B1C5
:10C230004FB116F0020F06D028462D21FFF778FFE8
:10C24000013F012405E02D2301F1FF3801F8013CF5
:10C250000024284641463A463346FFF770FF00194E
:10C2600004B0BDE8F0812DE9F0478AB006460D46DE
:10C2700005920024DBE0252B40F0D38015F8013F28
:10C28000002B00F0D880252B00F0CB802D2B02D185
:10C2900001352C3B03E0002301E043F00203294673
:10C2A00015F8012B302AF8D0002702E00A2202FB01
:10C2B00007070A780D46A2F130005FFA80FC0131D1
:10C2C000BCF1090FF2D9732A09D1059A3046111D24
:10C2D000059111685C4A002908BF11469DE0642A57
:10C2E0000ED1059A01936123111D029300970591C8
:10C2F00030461168603B0A22FFF761FF241895E081
:10C30000662A54D1059B073323F0070303F1080283
:10C31000D3E9000105920EF041FC002180460EF0A9
:10C3200039FF38B12D238DF8183008F100480DF190
:10C33000190A01E00DF1180A40460EF053FF0123DF
:10C3400000E013460A225A439042FADA90FBF3F2D5
:10C3500002F1300103FB12000A2293FBF2F30AF808
:10C36000011B002BF2D124328AF80020002F08BFD5
:10C370000327994640460EF035FF0EF019FD0146A1
:10C3800040460EF05FFC31490EF066FD80460EF02F
:10C3900029FF09F101093030B9450AF8010FE9DB3D
:10C3A00000228AF80120304606A9202336E0782AA8
:10C3B0000AD1059A01936123111D009702930591FB
:10C3C00030461168102219E0582A0BD1059A0193C2
:10C3D0004123111D02930097059130461168413B9E
:10C3E000102289E7752A0BD1059A01936123111D4B
:10C3F000009702930591304611680A22613B7BE762
:10C40000632A13D1059A3046111D126805918DF8E3
:10C41000242000228DF8252009A93A46FFF78FFE37
:10C420006CE730462978FFF783FE013401352B781D
:10C43000002B7FF420AF16B1336800221A7020461B
:10C440000AB0BDE8F08700BF70C4010800002041B9
:10C45000014B1868704700BF6C7E0020034B1880AA
:10C460001A8892B2002AFBD1704700BF787E002064
:10C4700010B5322104460320F7F7E8FE014B1C807B
:10C4800010BD00BF7A7E002030B5002308E00A24EA
:10C49000B0FBF4F104FB11003030D054013388B20A
:10C4A000084A0028F3D1D0545910013BD31804E0B6
:10C4B000145C5D7815545C700130013B8842F7DBF9
:10C4C000004830BD2C31002008B50620F7F7C2FE29
:10C4D0005A234343A3F58223A3F56B6340F2145020
:10C4E00093FBF0F00A306428A8BF642020EAE070D3
:10C4F00008BD024B0E2202FB0030704760B60108F7
:10C50000034B18801A8892B2002AFBD1704700BFF3
:10C51000787E0020044A4FF4805313604FF0C042ED
:10C520001080024A13607047141401401014014037
:10C5300010B5EF20FFF7EEFF4FF0C0431A881C88BC
:10C5400018881A881988C3B2C9B241EA046141EA5D
:10C550000343120643EA1242014B9A6010BD00BF2A
:10C560002C310020054B4FF480521A604FF0C0432D
:10C570001880034802601980704700BF14140140FE
:10C58000101401400B4B10B59A680B4B4FF0C04490
:10C590009A4209D12E20FFF7BDFF238824882C2042
:10C5A000A4B2FFF7B7FF02E023882488A4B2204694
:10C5B00010BD00BF2C310020279304020EB403B538
:10C5C00003AA52F8041B019001A80092FFF74BFE4A
:10C5D000BDE80C4003B0704713B502AC24F8020D5F
:10C5E00000200146F7F712FE20464BF68031F7F7A0
:10C5F0001BFEF7F715FE20464BF68031F7F714FEC9
:10C60000F7F70EFE1CBDC1F1EF0110B580B289B283
:10C610001446F7F7FBFD2046BDE81040F7F7F8BDDC
:10C62000C1F1EF0110B580B289B2F7F7EFFDBDE8B7
:10C630001040F7F719BE38B5151A5C1A6C434BF663
:10C640007F35AC4280B202F1FF35C3F1F0020FD961
:10C65000C1F1EF0392B2A9B29BB26508F7F7DEFD14
:10C6600004A8A9B2F7F7E0FD641BF7F7D9FD06E0CF
:10C67000C1F1EF0392B2A9B29BB2F7F7CFFD04A8C4
:10C68000A1B2F7F7D1FDF7F7CBFD002040F28F11F3
:10C690000246EF23F7F7C2FD38BD37B50D464168B6
:10C6A000044600954B1CA2680068FFF7C4FFE368CE
:10C6B0002068591EA2680095FFF7BDFF20686168D9
:10C6C000421CE3680095FFF7B6FFA2686168501E40
:10C6D000E3680095FFF7AFFF3EBD2DE9F14F0A9CDF
:10C6E0001E460B9B88461746511E04EB4309C6F1B4
:10C6F000F002C8F1EF03054689B280B292B29BB254
:10C70000F7F78CFDA2460CE03AF8020BF7F780FD34
:10C71000CA4508BFA2460BF1010BBB45F4DB08F18B
:10C720000108B04501DAAB46F7E7002040F28F116F
:10C730000246EF2301B0BDE8F04FF7F76FBDF8B543
:10C7400005460F46046810E0EE6809E0C6F1EF0107
:10C75000A0B289B2F7F75AFDFFF714FF27F8020BD2
:10C760006B68013E9E42F1DA0134AB689C42EBDB20
:10C77000F8BD2DE9F041C26843680D468168C2F1F9
:10C78000F0020139C3F1EF03044689B2008892B286
:10C790009BB2F7F743FD66680AE0276804E035F8C6
:10C7A000020BF7F735FD0137A3689F42F7DB01362F
:10C7B000E3689E42F1DB002040F28F110246EF2336
:10C7C000BDE8F041F7F72ABD07B503460091596867
:10C7D0009A680068DB68FFF72EFF0EBD70B5064E45
:10C7E000044606F10C051C360FC885E80F0094E8D6
:10C7F000030086E8030070BD2C31002010B5094C01
:10C800000246216AE069FFF7FEFEE36962690133CF
:10C810009342E36104DBE368E361236A013323624B
:10C8200010BD00BF2C31002070472DE9F74F99460D
:10C830000C9B0191924613F801BB054600241DE0B4
:10C8400018F8013BFBB113F0040F4FF61E0305D09F
:10C850009A450AD028463146524604E0994504D00C
:10C86000284631464A46FFF7CEFE013701365F457E
:10C870004346E5DB01340135502C03D0019E984638
:10C880000027F4E708242046BDE8FE8F2DE9F0419B
:10C890001E460F46B6B2C7F1F00714460546F7F735
:10C8A000C5FCB91BA8B289B2F7F7B0FC20463146E7
:10C8B000F7F7B8FCBDE8F041F7F7B2BC30F003037E
:10C8C00009D131F0030208D140EA81000449091876
:10C8D00091F8000E7047002070471846704700BF5F
:10C8E00060B601082DE9F04F85B004469A469DF8E0
:10C8F00039009DF838300D4616469DF83AB0029042
:10C900000393274645E0C5EB0A01701E0139C01BA1
:10C910003B1BC8EB01019842A8BF18464145A8BF80
:10C920004146FFF7CBFF68BBC9F1EF0189B2B8B24E
:10C93000F7F76CFCF7F798FC1A4BC10001F0FF0108
:10C94000C208000A00EA0303C1EB0B000190DDF806
:10C9500008C0039802F0FC02C2EB0C0EC3EB000C03
:10C9600003EB6C03DDF804C0DB1001EB6C00C010BE
:10C9700040EAC32302EB6E00801043EA401080B20D
:10C98000F7F746FC09F1010908F10108D145BADBC6
:10C990000137B74203DAA9464FF00008F6E705B0C1
:10C9A000BDE8F08FF8FF07002DE9F74F06468A46ED
:10C9B00015461C46BDF830B088462DE00AF1030349
:10C9C000984509D1E71E414630462A463B46CDF8F8
:10C9D00000B0FFF730FEB846B146002718E0A81BAC
:10C9E0000138611EC01BC8EB0101CAEB0803B84245
:10C9F000A8BF38469942A8BF1946FFF75FFF20B984
:10CA0000484641465A46FFF7FEFD09F10109013744
:10CA1000A945E4DB08F10108A045CFDBBDE8FE8FA6
:10CA200007B50346009159689A680068DB68FFF70C
:10CA3000BBFF0EBD2DE9F74F01909DF830001F465A
:10CA40000D469246FFF755FD4FF61E039F42834663
:10CA50001DD100241BF80480019F6FEA08085FFACB
:10CA600088F8082618F0800F04D03846611952461D
:10CA7000FFF7C9FD013EF6B2013726B14FEA48087B
:10CA80005FFA88F8EEE701340E2CE3D145E09A45D1
:10CA90001FD100241BF80490DDF804806FEA090917
:10CAA0005FFA89F9082619F0800F04D14046611910
:10CAB0003A46FFF7A8FD013EF6B208F1010826B19B
:10CAC0004FEA49095FFA89F9EDE701340E2CE1D10B
:10CAD00023E000241BF80490019E6FEA09095FFA25
:10CAE00089F94FF0080819F0800F08F1FF38304637
:10CAF00014BF52463A4629465FFA88F8FFF783FD8D
:10CB00000136B8F1000F04D04FEA49095FFA89F9FC
:10CB1000E9E7013401350E2CDCD10820BDE8FE8F99
:10CB20002DE9F7430A9F05460E4691469846AFB158
:10CB3000387818B913E00A2B02D110362C4607E0DA
:10CB40000093204631464A464346FFF773FF2418B8
:10CB500017F8013B002BEED1601B00E03846BDE822
:10CB6000FE83DDE72DE9F043A5B015462CAA0E465D
:10CB700052F8041B07460DF1080823A89946229293
:10CB8000CDF88C80FFF76FFB314604462A463846C5
:10CB90004B46CDF80080FFF7E4FF204625B0BDE806
:10CBA000F08337B5114B05460C46009330211F2307
:10CBB00028204FF6FF72FFF7D4FF20211F234FF6E6
:10CBC000FF7228200095FFF7CCFFA0B2FFF75CFCB6
:10CBD000102100904FF6FF7228201F23FFF7C1FF9E
:10CBE0004FF47A7003B0BDE8304037E477C40108F1
:10CBF00070B54B4C4FF480534FF400652360012017
:10CC00002560FFF77DFC474B0A201D60FFF778FC8D
:10CC100032202560FFF774FCFFF78AFC424B9A68CC
:10CC2000424B9A4203D042483B21FFF7BAFFE9202A
:10CC30004FF0C044FFF76EFC202323801120FFF744
:10CC400069FC6420FFF75CFCD120FFF763FC002344
:10CC500023805E23238017232380D020FFF75AFCF4
:10CC60000723238023800C2323803620FFF752FCE8
:10CC7000402323800C20FFF74DFC552323803A20CE
:10CC8000FFF748FC55232380C120FFF743FC102306
:10CC90002380238002232380C0202380FFF73AFCD7
:10CCA0000023238035232380002323802380012336
:10CCB000238002232380C520FFF72CFC012323803F
:10CCC000D220FFF727FC0123238022232380C820C2
:10CCD000FFF720FC01232380732323803723238045
:10CCE000002323800F232380022323800423238017
:10CCF0004023238067232380002323800223238073
:10CD00000F232380082323808023238000232920CE
:10CD10002380FFF7FFFB2C20BDE87040FFF7FABB34
:10CD200010140140141401402C31002027930402F8
:10CD300089C401085CE708B502480421FFF731FF08
:10CD4000FEE700BFB6C401080FB430B5A5B028AAED
:10CD500052F8041B02AC23A823942292FFF783FA13
:10CD600023941EE00A2B134C03D0656AB5F5C47FEB
:10CD700009DBA26A00230E32E02A6362A2620DDDA3
:10CD80000C4A93620AE000932846A16A4FF6FF72AC
:10CD90004FF43043FFF74EFE40196062239B01338E
:10CDA0002393239B1B78002BDCD125B0BDE83040BA
:10CDB00004B070472C3100202DE9F74FC0EB020B77
:10CDC0005F1A1FFA8BFBBFB20FFA8BFA0FFA87F8C4
:10CDD0004FEADB3BFF0BBDF83090BAF1000FD4BF38
:10CDE000CBF1000BCBF1010BB8F1000FD4BF7F42A8
:10CDF000C7F10107BAF1000FB8BFCAF1000AB8F1D4
:10CE0000000FB8BFC8F100084FEA4A0A4FEA4808C5
:10CE100000921FFA8AFA1FFA88F84A4601930446DC
:10CE20000D460FFA8AF6FFF7EEFB0FFA88F39E42E3
:10CE300020DB1FFA88F8A8EB6606B6B216E016F4F7
:10CE4000004F09D11EB94FFA8BF3002B04DD7BB2E2
:10CE5000CAEB0606ED18B6B24FFA8BF3E418464457
:10CE6000204629464A46B6B2FFF7CDFB009B9C42BE
:10CE7000E5D11EE01FFA8AFAAAEB6306B6B215E006
:10CE800016F4004F09D116B97BB2002B05DD4FFA1D
:10CE90008BF3C8EB0606E418B6B27BB2ED18564425
:10CEA000204629464A46B6B2FFF7ADFB019B9D429C
:10CEB000E6D1BDE8FE8F08B50420F7F7CBF9C343F0
:10CEC0009BB2C3F3802013F4006F1CBF40F002003C
:10CED00080B213F0080F18BF40F0040013F4004FA5
:10CEE00018BF40F0080013F4804F18BF40F0100046
:10CEF00013F4005F18BF40F0200013F4807F18BFC8
:10CF000040F0400008BD07B50B20F7F7A3F948B97A
:10CF1000084B303000931E211F224FF6FF73FFF79E
:10CF2000FFFDFEE71420002103B05DF804EBF7F7E6
:10CF30008DB900BFDCC4010810B54FF4FA70FFF7DB
:10CF40008DFAFFF7F7FEBDE81040DCE7034B014622
:10CF500083F82C002420F7F779B900BF2C3100208A
:10CF6000014B93F82C0070472C3100202DE9F14F34
:10CF7000054620200C46014616469B469DF828A0F3
:10CF8000BDF82C90BDF83080BDF83470F7F75EF92D
:10CF900005200021F7F75AF909202946F7F756F935
:10CFA0000A202146F7F752F900203146F7F74EF9EB
:10CFB0000B205946F7F74AF90C205146F7F746F986
:10CFC00001204946F7F742F907204146F7F73EF9B5
:10CFD0000820394601B0BDE8F04FF7F737B908B57A
:10CFE0000320F7F737F9C0B208BDF7F723B90620D9
:10CFF0000121F7F72BB92DE9F04106460C46222016
:10D00000314615461F46F7F721F921202146F7F74B
:10D010001DF9202047EAC501BDE8F041F7F716B930
:10D02000B0F5805F10B503DD06486521FFF7B9FD57
:10D030000024FFF7DAFF044B18530234B4F5005F05
:10D04000F7D110BDF5C401085A3100204FF48050CB
:10D050007047B0F5805F10B5044603D304487321D0
:10D06000FFF79FFD034B03EB4404E08D10BD00BFB1
:10D07000F5C401082C310020034670B510200C4681
:10D0800019461546F7F7E2F811202146F7F7DEF8C2
:10D0900012202946BDE87040F7F7D8B8094B10B503
:10D0A0001A68094C22F001021A60084A146043F21F
:10D0B000B0521A60064A116090601A6842F001028C
:10D0C0001A6010BD44040240087400404C04024041
:10D0D00048040240034B0121A3F8360F03F57260A8
:10D0E0001630DBE72442002001460D20F7F7AEB8EA
:10D0F000004870475C51002008B5034602730020C9
:10D10000012A587305D11A4609480833F7F7BEF8C3
:10D1100006E0022A09D11A4605480833F7F7B4F8A1
:10D12000D0F1010038BF002008BD012008BD00BFBC
:10D130005C51002008B5034608461946F7F7A8F8E1
:10D14000D0F1010038BF002008BD10B504460846E4
:10D150002146F7F79FF820B9637B013001336373F1
:10D1600010BD002010BD10B5037B0446022B10D16A
:10D17000B1F1FF3F08BF417B224608BF4902074883
:10D1800004F10803F7F788F828B903232373013063
:10D1900010BD012010BD002010BD00BF5C5100205B
:10D1A000F0B502EBD27700247F1001EB4205234655
:10D1B0000DE0BB42B4BF31F813C035F802CC065FB6
:10D1C000013306FB0CF6360C0653023D0434934241
:10D1D000EFDBF0BD0AF0D6B8420803460DD00021BF
:10D1E000B3FBF2F080184008121A0132022A04D967
:10D1F000192902D001310246F2E77047704700BF9B
:10D200007047014B186870475C53002013B5FFF757
:10D210001FF92A4B1A68B2F1FF3F08BF18601B685C
:10D22000C41AB4F57A7F0ED94FF47A72B4FBF2F4D3
:10D2300002FB043321490B6002F0A0FD00F51C50F5
:10D24000836DE4188465FFF736FE02AC24F8020D06
:10D2500002F094FD00F52A5021466C3002F046FAA7
:10D2600002F08CFD00F52A506C30214602F046FA9F
:10D27000BDF8063033B102F081FD0221BDF8062071
:10D2800005F0C6FEFFF76CFE78B1FFF7A8FE60B1AF
:10D29000FFF7DCFEFFF7C4FE02F070FD042146F24A
:10D2A000674205F0B5FEFFF7A2FE02F067FD03211D
:10D2B000002205F0ADFE01201CBD00BF00300020A3
:10D2C0000D4B10B518600446FFF736FE02F056FD10
:10D2D00005F0E6FE02F052FD0121002205F098FE65
:10D2E00002F04CFD07F0C8FE02F048FD07F0FEFE1C
:10D2F000FFF77DFE204610BD5C53002008B5036893
:10D3000049421B6849B2984708BD0000014B1868A4
:10D31000704700BFB0DD0108012070474368826894
:10D3200019688A181A6070474368826819688A1AEF
:10D330001A6070470820704783681B78CB1805D4A3
:10D34000027B9342CCBF0020012070470020704731
:10D3500083681A7801321A70704783681A78013A24
:10D360001A7070478368197070478368187870471F
:10D370004368B0F908201B88CB181BB29A4206DC20
:10D38000B0F90A009842B4BF002001207047002085
:10D39000704743681A8801321A80704743681A88B8
:10D3A000013A1A8070470220704700207047002021
:10D3B000704790F828007047002208B5036880F88D
:10D3C0002820013202719B68984708BD0023037131
:10D3D000704700797047C36A70B500F12C050446A8
:10D3E000DB6828460E46984728B920463146BDE8F6
:10D3F000704005F078BBE36A28465B68984770BDCB
:10D4000030B5028500250122C56280F83020BDE8D4
:10D41000304005F0E5BA0000F0B587B002AC043347
:10D4200006460F4615460FCB84E80F00059B304695
:10D430001A1D0B3303920593044945F0020223465B
:10D44000009705F0CDFA07B0F0BD00BF38D601084F
:10D450000285012205F0C4BA13B503469C685B68D7
:10D460002478088853F8243000934FF6FF73002A7D
:10D4700014BF1A46002249684FF61E03FFF750FBFF
:10D480001CBD00000148CC21FFF78BBB44D601082E
:10D4900008B50348CB21FFF784FB002008BD00BF7F
:10D4A00044D601080148CA21FFF77BBB44D60108D6
:10D4B0000148C921FFF775BB44D601080148C821BE
:10D4C000FFF76FBB44D6010808B50348C621FFF734
:10D4D00068FB022008BD00BF44D6010808B5034818
:10D4E0001C21FFF75EFB002008BD00BF5ED60108CF
:10D4F00008B503481721FFF754FB002008BD00BF03
:10D500005ED6010801481321FFF74BBB5ED6010828
:10D5100001480F21FFF745BB5ED6010801480B21EA
:10D52000FFF73FBB5ED6010839B9042A05D146F2A0
:10D530006742934201D105F08FBA70472DE9F0415F
:10D5400086B00C9E88460021C162028580F830308A
:10D550000546112730465F4305F0FAF9FFB202ACE9
:10D5600050B1304605F0F4F904300FC884E80F00DC
:10D57000059B0233039304E0331D0FCB84E80F00B7
:10D58000039BFF1828464146012202AB05970096EF
:10D5900005F026FA06B0BDE8F08100002DE9F04163
:10D5A000DDF81880044615461F460E4621B9084886
:10D5B00040F2AD11FFF7F5FA204629463A4602231C
:10D5C0006663CDF81880BDE8F041FFF7B7BF00BF34
:10D5D00044D6010811F0100F70B505460C4605D071
:10D5E000416946F66F52002305F03DFA2846214670
:10D5F000BDE8704005F077BA11F0010F70B5044630
:10D600000D4615D0406B012103685B6898470128DF
:10D610000ED1606B00210368DB689847204605F057
:10D620001BFA2046616946F67512002305F01BFAC5
:10D6300015F0020F15D0606B012103681B68984735
:10D6400001280ED1606B002103689B689847204633
:10D6500005F002FA2046616946F67512002305F0CE
:10D6600002FA20462946BDE8704005F03CBA11F0A8
:10D67000200F70B505460C4606D0406946F2785238
:10D680004169002305F0EFF928462146BDE87040C6
:10D6900005F029BA11F0010F70B504460D4616D0F9
:10D6A000806A012103685B68984701280FD1A06A4E
:10D6B00000210368DB689847204605F0CDF96369CF
:10D6C0002046596947F27052002305F0CCF915F055
:10D6D000020F16D0A06A012103681B689847012831
:10D6E0000FD1A06A002103689B689847204605F087
:10D6F000B3F963692046596947F27052002305F077
:10D70000B2F915F0100F0FD0A06A0368DB699847D3
:10D71000084B1B68984207D063692046596946F652
:10D720006542A36A05F09FF920462946BDE870408E
:10D73000FFF79DBFB0DD01082DE9F3410E88DFF84A
:10D740005880083E4FF6FF75002A08BF0025CDF827
:10D750000080B6B20C4607462A46304649684FF666
:10D760001E03FFF762F87B683618B6B20093616853
:10D770002B4630464FF61E02FFF7D2F908F172032E
:10D780003018009361682A464FF61E0380B2FFF7F7
:10D790004CF8BDE8FC8100BF78CA0108F7B5044623
:10D7A00005F04AF9A7884FF6FF75083F002808BF23
:10D7B0000025BFB20F4EA1682A4638464FF61E0319
:10D7C0000096FFF732F8636A3F18BFB20093A16872
:10D7D0002B4638464FF61E02FFF7A2F9381872366C
:10D7E000A1682A464FF61E0380B20096FFF71DF887
:10D7F000FEBD00BF78CA010808B583681A7843687F
:10D8000053F822000DF0A6FEC3004FF6F87003EAAD
:10D81000000008BD08B54368B3F9000005F018F82A
:10D820000DF098FEC3004FF6F87003EA000008BD43
:10D83000436873B54FF6FF7605460C46002A08BFCD
:10D8400000261BB912485D21FFF7ABF96A68B5F9EC
:10D850000830B2F90000834203DCB5F90A30834294
:10D8600009DA0C4B32460093206861684FF61E03BC
:10D87000FFF756F90BE02568646804F0E9FF2146DC
:10D880000090324628464FF61E03FFF76AF97CBD2A
:10D890007BD6010896D601087FB5436804460D463D
:10D8A000164623B9114840F25D21FFF77AF9636803
:10D8B0001A68A36892FBF3F20A2392FBF3F103FBCD
:10D8C00011220023ADF80C30303204AB03F8042DE4
:10D8D0004FF6FF72009328686968002E08BF002287
:10D8E0004FF61E03FFF73DF97FBD00BF44D6010888
:10D8F00044F644418A4201D105F05CBA44F6454100
:10D900008A4202D1012280F82820704711F0010FCD
:10D910002DE9F04104460D4616D0806A01210368C6
:10D920005B68984780B1A06A00210368DB6898476C
:10D93000204605F005F805F08FF8606947F270524F
:10D940004169002305F08FF815F0020F16D0A06A88
:10D95000012103681B68984780B1A06A0021036811
:10D960009B689847204604F0EBFF05F075F8606966
:10D9700047F270524169002305F075F815F00C0F5D
:10D980000FD00C4E204629463768FFF770FE3368EB
:10D99000BB420CD0204604F0D3FFBDE8F04105F0B7
:10D9A0005BB820462946BDE8F041FFF760BEBDE800
:10D9B000F08100BF98820020102970B505460C4602
:10D9C00005D104F0BDFF036821465B6898472846EF
:10D9D0002146BDE8704005F086B8000011F0100F38
:10D9E00070B5044617D004F0ADFF18B90A483D21C0
:10D9F000FFF7D7F8204604F0A3FF0546204604F0C1
:10DA0000A1FF03465B6A2046294646F26452BDE800
:10DA1000704005F028B870BD98D60108102910B5DF
:10DA20000C4606D104F08CFF036821465B689847DA
:10DA300010BDBDE8104005F056B810B5044605F01D
:10DA4000B9F92046BDE8104005F090B910B504467C
:10DA500005F0B0F92046BDE8104005F087B9016037
:10DA60004260704710B58360029B01604260C360F2
:10DA700010BD000070B5DE2386B005460E46144684
:10DA800000930C2116225A3302A8FFF7EBFF284619
:10DA90000349224602AB009604F0A2FF06B070BD17
:10DAA000BBD6010842F02002FFF7E4BF70B5F023B7
:10DAB00086B004460E46154600931422A03302A8F1
:10DAC0004FF49E71FFF7CEFF20462A4602AB1E4957
:10DAD000009604F085FF04F1280002231B4940F260
:10DAE000FF720094FFF72AFD04F15C00022318493D
:10DAF00040F2FF720094FFF721FD04F19000022331
:10DB0000144940F2FF720094FFF718FD04F1C400BD
:10DB1000022311494FF6E0720094FFF70FFD04F164
:10DB2000F80002230D494FF6E0720094FFF706FD5E
:10DB300004F596700A494FF4FC6202230094FFF743
:10DB4000FDFC06B070BD00BFC5D60108D2D60108E5
:10DB5000DED60108EBD60108F7D6010802D7010886
:10DB60000ED7010870B5F02386B004460E46154660
:10DB700000931422A03302A84FF49E71FFF772FFA6
:10DB800020462A4602AB1E49009604F029FF04F104
:10DB9000280001231B494FF6FF720094FFF7CEFCCB
:10DBA00004F15C000123184948F210420094FFF789
:10DBB000C5FC04F190000123144948F2104200947E
:10DBC000FFF7BCFC04F1C4000223114948F21042E3
:10DBD0000094FFF7B3FC04F1F80002230D4948F26A
:10DBE00010420094FFF7AAFC04F596700A4948F227
:10DBF000104201230094FFF7A1FC06B070BD00BFE6
:10DC00001AD701082BD7010830D7010837D70108E8
:10DC10003ED701084FD701085ED7010870B5F02341
:10DC200086B004460E46154600931422A03302A87F
:10DC30004FF49E71FFF716FF20462A4602AB1549A6
:10DC4000009604F0CDFE04F128000223124948F2A8
:10DC500010420094FFF772FC04F15C0002230F49AC
:10DC600048F210420094FFF769FC04F1900002238F
:10DC70000B4948F210420094FFF760FC04F1C40025
:10DC8000084948F2104202230094FFF757FC06B0FF
:10DC900070BD00BF64D7010874D701087DD70108A3
:10DCA0008CD7010898D7010870B5F02386B00446D8
:10DCB0000E46154600931422A03302A84FF49E711D
:10DCC000FFF7D0FE20462A4602AB1549009604F025
:10DCD00087FE04F12800022312494FF47842009491
:10DCE000FFF72CFC04F15C0003230F4940F2FF72A4
:10DCF0000094FFF723FC04F1900003230B4948F242
:10DD000010420094FFF71AFC04F1C400084948F2DD
:10DD1000104202230094FFF711FC06B070BD00BF53
:10DD2000A4D70108A0D70108B1D70108C6D70108B8
:10DD3000DCD7010870B5F02386B004460E461546C0
:10DD400000931422A03302A84FF49E71FFF78AFEBD
:10DD500020462A4602AB1049009604F041FE04F129
:10DD6000280001230D4948F210420094FFF7E6FB1A
:10DD700004F15C0001230A4948F210420094FFF7C5
:10DD8000DDFB04F19000074948F2104201230094A2
:10DD9000FFF7D4FB06B070BDEED70108FCD7010831
:10DDA00004D8010809D8010870B5DE2386B00546FD
:10DDB0000E461446009300211622D33B02A8FFF71B
:10DDC00051FE2846044944F0020202AB009604F0DA
:10DDD00007FE06B070BD00BF0ED8010870B5152350
:10DDE00086B005460E46144600930C21102202A868
:10DDF0004FF49C73FFF736FE2846044944F00202B4
:10DE000002AB009604F0ECFD06B070BD22D801080C
:10DE100070B5F02386B005460E46144600930021E7
:10DE20001022A03302A8FFF71DFE2846044944F043
:10DE3000120202AB009604F0D3FD06B070BD00BF25
:10DE400035D8010870B5F02386B005460E46144655
:10DE5000009300211022A03302A8FFF703FE2846FA
:10DE60000349224602AB009604F0BAFD06B070BD2D
:10DE700045D8010870B5F02386B005460E46144615
:10DE8000009300211022A03302A8FFF7EBFD2846E3
:10DE9000044944F0120202AB009604F0A1FD06B062
:10DEA00070BD00BF4FD8010882680368D0184010C9
:10DEB000704738B58A680B68CD68D3184A6804463D
:10DEC000AA1859105210FFF7CAFD204638BD10B5E8
:10DED00004686118016041688A1842608268D31A38
:10DEE0008360C268029BD31AC36010BD10B504687A
:10DEF000611A016041688A1A42608268D31883609F
:10DF0000C268029BD318C36010BD000030B58BB04F
:10DF100003AD031D04460FCB85E80F0001210B461E
:10DF200028460A460091FFF7E1FF28464BF296513A
:10DF3000FEF7B3FB48F21043ADF81C300023ADF8F8
:10DF40001E30ADF82030ADF82230ADF824301E255B
:10DF5000606807AB2818009305230193421CA16851
:10DF600023691E35FEF7B9FBB5F5967FF0D119256B
:10DF7000A16807AB691800930523019360684B1CE7
:10DF8000E2681935FEF7A9FBC82DF1D16068A168D8
:10DF90000B4B04310093043044F208224FF61E0369
:10DFA000FEF7BEFD60682169064B0430009310390E
:10DFB0004FF6FF724FF61E03FEF7B2FD0BB030BDF9
:10DFC00059D8010862D8010882680368D01A7047DE
:10DFD000F0B58BB006AC061D074696E80F0084E846
:10DFE0000F00012100220B462046009202ADFFF7F0
:10DFF0007DFF204648F21041FEF7E6FB94E80F0053
:10E0000085E80F00114B30461B68B3F87240FFF7EC
:10E01000DBFF039B04FB00F20133039304F59674CA
:10E02000059B4443013B05937B68284603EB24345E
:10E0300003EB2232089B04949C42C8BF0493002146
:10E040000292FEF7C1FB0BB0F0BD00BF8C82002036
:10E0500073B5051D002104462846FEF7B5FB0E4B9F
:10E060001B68B3F87E60B3F87230F61A36B2002E31
:10E0700010DB2846FFF7A8FF86420BDA6068074BE3
:10E08000043800938019A16846F20C324FF61E0343
:10E09000FEF7CBFB7CBD00BF8C8200205CCB01086F
:10E0A000C2684368D01A70472DE9F347041D05463E
:10E0B00000212046FEF788FB2846FFF727FFAB6AC2
:10E0C000002B38D02046FFF77FFF07462046FFF79A
:10E0D000E7FF2B690024A0F13209A3F11908A24639
:10E0E00027E0AA8DAB6A624392FBF7F233F8126025
:10E0F000B6F5805F03D311482421FEF752FD4B464D
:10E100005E4344BF06F57E661F366A683613B6B2B4
:10E11000002C08BFB246A2184FF6FF730093CAEB5B
:10E120000801501EC6EB0803FEF746FE0134A4B2F8
:10E13000B246BC42D5DBBDE8FC8700BF80D80108F1
:10E14000826803689A42D4BF00200120704713B54B
:10E1500004460068E368009100F10C026168FEF774
:10E1600023FC20684BF29653009308306168A26844
:10E17000E368FEF760FA1CBD13B504460068009121
:10E1800002386168A268E368FEF70EFC20686168E7
:10E19000A268E36806304FF6FF740131013A013B93
:10E1A0000094FEF701FC1CBDC36A73B504460BB1B5
:10E1B0001B880385251D00212846FEF705FB6368A3
:10E1C00020460433636004F037FC218D064648B1D5
:10E1D0002846FFF7D1FF6068636A0C300093A1689E
:10E1E000002208E02846FFF7B2FF6068636AA16872
:10E1F00000930C3032464FF61E03FEF791FC636825
:10E20000043B63607CBD00002DE9F041466A0025B7
:10E2100086B004464562FFF7C7FF6662231D02AE63
:10E220000FCB86E80F00304610212A462B4600957A
:10E23000FFF74DFE636A2A46009303994FF61E03CB
:10E240000298FEF76DFC039B20461033039304F005
:10E25000F3FB024600282FD0029FDFF86C80083FB6
:10E2600003992A4638464FF61E030297CDF80080E0
:10E27000FEF7DBFAC0190290606B03685B69984790
:10E2800003990746029801F10E033A180095FEF72C
:10E29000D2F9606B3146036801221B6998470298E6
:10E2A00008F172033818009303992A464FF61E03AB
:10E2B0000290FEF7BAFA04E0606B314603681B690E
:10E2C000984706B0BDE8F08178CA010873B5826846
:10E2D000C3680E46416804464FF4E045101F043100
:10E2E000043204330095FEF75FFBE3682068A26800
:10E2F000191F0430043204330095FEF755FB2068E3
:10E30000616800F10C02E3680096FEF74DFB20689F
:10E31000A2684BF2965508306168043AE3680095AC
:10E32000FEF789F9A2686168A2F10800E368009528
:10E33000FEF73AFB7CBD73B58268C3680E46416840
:10E3400004464FF4E045101F0431043204330095B5
:10E35000FEF72AFBE3682068A268191F0430043224
:10E3600004330095FEF720FB20686168A268E3682B
:10E370000096FEF719FB7CBD37B5044604F05CFB44
:10E380000546218D201D45B1FFF7D5FF6068636A02
:10E390000C300093A168002207E0FFF797FF606848
:10E3A000636AA16800930C302A464FF61E03FEF7FD
:10E3B000B7FB3EBD70B586B002AC02250E460FC855
:10E3C00084E80F0020460021FEF72AFB2A462B4650
:10E3D000204629460095FFF77AFD20463146FEF794
:10E3E0001FFB204629460E222B460095FFF76FFDA6
:10E3F00020464BF29651FEF713FB06B070BD73B585
:10E400000446051D218D2846FFF7D4FF2846FFF757
:10E410004BFD656A064628460DF09CF8A168C0B21F
:10E420008000301A023100224FF61E030095FEF7DD
:10E4300077FB7CBDF0B58BB0054602AC061D96E8B7
:10E440000F0084E80F00298D3046FFF7B3FF204608
:10E45000FFF72AFD6E6A074630460DF07BF80399F8
:10E46000C0B2800002310022381A4FF61E03009617
:10E47000FEF756FB122104230A46009320460B4662
:10E48000FFF725FDE86A0DF065F82146064608A865
:10E49000FFF70FFD089B06A82146F600A3EB6606D2
:10E4A000FFF707FDEB6A0799009330460739002212
:10E4B0004FF61E03FEF734FB0BB0F0BDF0B587B08E
:10E4C000054602AC061D96E80F0084E80F00298D72
:10E4D0003046FFF76FFF2046FFF7E6FC6E6A0746FF
:10E4E00030460DF037F80399C0B2800002310022A7
:10E4F000381A4FF61E030096FEF712FB1221042372
:10E50000009320460A460B46FFF7E1FCEB6A0298AF
:10E51000039900930430043100224FF61E03FEF7E6
:10E52000FFFA07B0F0BD4BF29651FEF74DB92DE959
:10E53000F041012104460026FEF750F9D02514E0F1
:10E54000EB10DA024FEAA50842EA4818204648EAEA
:10E550000308FFF739FD074602E04046FEF74EF993
:10E56000013FFAD20D3DEDB201362046FFF798FD8E
:10E570008642E5DBBDE8F041FEF756B910B504462A
:10E5800004F05AFA231D20B91846BDE81040FFF7E1
:10E59000CABF1846BDE81040FFF7C9BF37B50546EA
:10E5A00004F04AFA4FF6FF74002808BF00242846FA
:10E5B000FFF7E4FF6B6A686800930430A96822469D
:10E5C0004FF61E03FEF7ACFA3EBD13B50446FFF747
:10E5D000D5FF636A606800930430A16800224FF69B
:10E5E0001E03FEF79DFA1CBD2DE9F04786B00446D8
:10E5F00004F022FA4FF6FF76002808BF00262046D6
:10E60000FFF7BCFF636A6068324600930430A1687C
:10E610004FF61E03FEF784FAA06A012103686568BD
:10E620005B6898478146A06A0121036805F1780775
:10E630001B689847B9F1010F804606D1224B05F1BE
:10E6400070000093A168324609E0B9F1000F0AD1C9
:10E650001D4BA168009305F1700048F210424FF67F
:10E660001E03FEF7E2F8D4F828A002AD231D0FCB5D
:10E6700085E80F00DAF800302046D3F810900297B2
:10E68000049704F0D9F9294602465046C847A06AC3
:10E6900003685B699847B8F1010F384404D10B4B0C
:10E6A000A1680093324607E0B8F1000F08D1074B8C
:10E6B000A168009348F210424FF61E03FEF7B5F82A
:10E6C00006B0BDE8F08700BF8BCB0108FDCB010889
:10E6D000F0B587B0044604F0AFF94FF6FF75002897
:10E6E00008BF0025204604F0A7F968B102AE231D3B
:10E6F0000FCB86E80F00A0F108030293049B30467D
:10E7000008330493FFF713FF204604F095F948B14E
:10E71000144B606800930738A1682A464FF61E0321
:10E72000FEF783F8A76A20463B681E6904F084F967
:10E73000211D02463846B047A06A676803685B69D6
:10E7400098470646204604F077F948B1064B781CF6
:10E7500000938019A1682A464FF61E03FEF765F85C
:10E7600007B0F0BD8BCB0108FDCB0108C868404263
:10E770007047000010B5044604F00CFA014B204627
:10E78000236010BD48C80108014B0360704700BFFB
:10E7900098C6010810B50446FFF7F6FF014B204666
:10E7A000236010BD70C6010810B5044604F0F2F9EC
:10E7B000014B2046236010BD88C8010810B50446EF
:10E7C000FFF7F2FF014B2046236010BD38C9010856
:10E7D00010B50446FFF7E8FF014B2046236010BD4B
:10E7E00068C8010810B5044604F0D4F9014B20466E
:10E7F000236010BD28C5010810B500210446282259
:10E800000CF0F0FD2046FFF7EDFF034B20462360A0
:10E810000023A36210BD00BF50C5010810B5044617
:10E8200004F0B8F9044B20462360012384F8283013
:10E83000013BE36210BD00BFD0C7010804F00CB972
:10E8400047F269418A4201D1FFF7F8BF44F64441DB
:10E850008A4205D001318A4202D1012280F8282063
:10E8600070470000074A08481168084B30B5046833
:10E87000074DCB1805FB04330131036058041160C8
:10E88000400C30BD5C7E002004300020F39024005A
:10E8900021F17D0030B5254B89B0044605AD93E8E4
:10E8A00007000C3385E8070093E8070094F8283048
:10E8B00002AD85E80700B3B1201D4FF6FF71FDF7EB
:10E8C00083FF606821691A4B0830009314394FF6B2
:10E8D0001E030022FEF724F9002384F82830059B4C
:10E8E000E362029B23632046FFF7BCFF032290FBF9
:10E8F000F2F202EB420208A9821A01EB82020346FD
:10E90000E16A52F80C0C9B0040184010E06252F88B
:10E91000181C226B89184FF6FC72491003EA020298
:10E92000216309B0BDE83040FDF76DBE70CC010831
:10E93000AFD8010810B501704270837010BD00009F
:10E94000F8B5114B4FF4AF7707FB013700F14404E2
:10E950000E2615E07B5D202B02D0232B06D101E093
:10E96000012300E0002304F8013B03E00748F52100
:10E97000FEF717F90135192DECD11937013E01D0F9
:10E980000025E7E7F8BD00BF88CC0108BCD8010826
:10E99000192303FB0213C018443070472DE9F047D8
:10E9A0004FEA41180F242FE0032B03D8DFE803F0D0
:10E9B00005090C0F00252E460BE0C0F10F063D4661
:10E9C00007E02646054604E02546064601E00546E2
:10E9D0003E46134946EA05154AEA400601EB86061B
:10E9E000D6F8706346FA09FC1CF00F0C08BF4FF014
:10E9F000020C01EB4C01B1F870160130102822F81E
:10EA00001510D1D1013C09D3C4F10F0704F0070957
:10EA100048EAE70A4FEA89090020C5E7BDE8F08720
:10EA200078CA010870B5ADF5027D0C46064615465C
:10EA3000FFF7AEFF0178052903D1304602AA736BB8
:10EA400006E0042908BFB36B304602AA18BF0023B2
:10EA5000FFF7A4FF02A8691C621CAB1C00904FF4D6
:10EA6000807001900901200112011B01FDF735FEA4
:10EA70000DF5027D70BD11F0020F034606D0426B0A
:10EA80000132032A42630EDD002206E011F0010F7D
:10EA900007D0426B002A02DD013A5A6303E00322E9
:10EAA000FBE704F020B8D96A1A6B1846FFF7BABF23
:10EAB00070B5064600240AE0294630462246013554
:10EAC000FFF7B0FF192DF7D101340E2C01D000252E
:10EAD000F2E770BD10B5044604F06CF9236C6FF0DA
:10EAE0000901594301F5967120466429B8BF642194
:10EAF000BDE8104004F072B8074A08481168084B96
:10EB000030B50468074DCB1805FB043301310360B1
:10EB100058041160400C30BD607E00201030002091
:10EB2000F390240021F17D0073B504462046FFF7E1
:10EB3000E3FF1923B0FBF3F606FB13062046FFF7AD
:10EB4000DBFF0E23B0FBF3F505FB13053146204632
:10EB50002A46FFF71DFF0378012BE7D1013303702D
:10EB6000EAB2023B01A8F1B2FFF7E4FE019B0020EC
:10EB70001A0CDBB263F307009DF8053063F30F2036
:10EB8000D3B263F317407CBD002310B50446436342
:10EB90002046FFF7B1FF1923B0FBF3F202FB13038A
:10EBA0002046E362FFF7A8FF0E23B0FBF3F202FB5F
:10EBB0001302E16A22632046FFF7EAFE0378012B85
:10EBC000E6D10433037010BD30B5CC01241284604B
:10EBD000C46099244C4324120461B32404FB02F55D
:10EBE0004C4324128461CD24426062431212C261FC
:10EBF0003C224A43D211026246224A43D211426267
:10EC00003222016051432D12C9114561816230BD2C
:10EC1000FF29A8BFFF2121EAE1707047C9431E23E5
:10EC200000204000420001329A40521801D50130C4
:10EC30001146023B13F1020FF3D170472DE9F04F5B
:10EC4000436885B00446154602930026BDE0E2689D
:10EC5000A168B21A5243791A01FB0121236A0904FF
:10EC600091FBF3F1204691FBF3F1FFF7D7FFFF286B
:10EC700009DCC0F1FF0808EB8808B8F1FF0FA8BF56
:10EC80004FF0FF0801E04FF0000862692169B21AF5
:10EC90005243791A01FB0121636A090491FBF3F1E4
:10ECA00091FBF3F12046FFF7B9FF4043E26948BF0B
:10ECB000FF30B21A5243A169A36A791A01FB0121FC
:10ECC000090491FBF3F191FBF3F14FEA202A20466E
:10ECD000FFF7A4FFB5F90230BAF1FF0FA8BF4FF05C
:10ECE000FF0AB5F90410FF28D8BFC0F1FF0003FBED
:10ECF0000AF3C8BF00204143B5F90020B5F90AB0B6
:10ED000002EB232303EB2121B5F908300BFB00FBB9
:10ED100003FB0AF3B5F9062002EB232303EB2B2BAD
:10ED2000B5F90E3003FB0AFAB5F90C3003EB2A2AC9
:10ED3000B5F910305843B5F914300AEB202AFF2BEF
:10ED400005D0B5F9123003FB08F84FEA2828204611
:10ED5000FFF75EFF594684462046CDF804C0FFF712
:10ED600057FF514683462046FFF752FFB9F800206F
:10ED7000DDF804C0D300D108D20A01F0FC0103F091
:10ED8000FF03D200C3EB0C0A801AC1EB0B0C08FB8B
:10ED90000AFA08FB0CFC08FB00F802EB282801EB40
:10EDA0002C2C4FEAE8014FEAAC0CC90241EA4C11A5
:10EDB00003EB2A2341EAE30329F8023B0137039BD3
:10EDC00049469F42FFF643AF0136029B9E4204DA5A
:10EDD0002368894603930027F1E705B0BDE8F08F6B
:10EDE0002DE9F04186B006460D4614460021142256
:10EDF00001A898460C9F0CF0F5FA4FF6C473ADF8D5
:10EE00000830ADF80E30ADF81430BDF83430ADF840
:10EE10000440ADF80A80C4F1F004C8F1F008ADF880
:10EE200010703046C7F1F007294601AAADF8064038
:10EE3000ADF80C80ADF81270ADF81630FFF7FEFE9D
:10EE400006B0BDE8F08113B5140C130A04F0FF04FA
:10EE50000094D2B2E624DBB20194FFF7C1FF1CBDDF
:10EE600010B5044603F096FE064B2046202140F8DC
:10EE7000283B0A46FFF7A8FE012384F854382046B1
:10EE800010BD00BF20C8010803F0E6BD47F269418C
:10EE90008A4201D1FFF7F8BF44F644418A4205D0C7
:10EEA00001318A4202D1012280F8542870470000C3
:10EEB000074A08481168084B30B50468074DCB185D
:10EEC00005FB04330131036058041160400C30BD70
:10EED000647E002014300020F390240021F17D0096
:10EEE0002DE9F04390F8543893B0044673B3051DF0
:10EEF0000EAF0AAE0DF1180895E80F0087E80F0075
:10EF000086E80F0088E80F002846FFF7C9F84FF0A1
:10EF1000030990FBF9F011900B902846FFF7C0F819
:10EF2000400090FBF9F00D9007904FF6FF713846C6
:10EF3000FDF74AFC30460021FDF746FC40464FF401
:10EF40007841FDF741FC002384F854382046FFF750
:10EF5000AFFF261D05463046FFF736F8A76AC71BE8
:10EF6000B5FBF7F307FB135763682046FF18FFF75D
:10EF70009FFF05463046FFF793F8E66A861BB5FB10
:10EF8000F6F306FB1356A3682046F618FFF790FF2A
:10EF9000E26AA36AB2180546FB1800923946324667
:10EFA00002A804F15406FEF75DFD02A83146FDF704
:10EFB000C6FB2A115523A91002F003025A4301F09F
:10EFC0000301594305F003055D43120442EA01229F
:10EFD00004F1280031462A43FFF735FF02A83146E5
:10EFE000FDF7C7FB13B0BDE8F083016042607047D6
:10EFF00070470430704710B5002104460CF0CAF881
:10F0000008B104F10044204610BD70470430704739
:10F0100001604260704710B501604260836010BDBE
:10F02000014B0360704700BFD8C9010810B5044602
:10F03000FFF7F6FF044B20462360002384F82830B6
:10F040002371636210BD00BFB8C9010870B51E46C8
:10F050000023044615460371437111B1012905D1FE
:10F0600001E0012300E00223836004E0054840F250
:10F070000111FDF796FD4FF0FF3323616561666274
:10F0800070BD00BFD7D801088368012B04D1064B9F
:10F0900080891B68D8847047022B03D1024B80897A
:10F0A0001B685887704700BF8C820020C1610262D4
:10F0B00070470000032380F828300148FDF744BE64
:10F0C000FDD80108012380F828307047022380F81A
:10F0D000283070472DE9F041C66B0746002E41DD10
:10F0E000013EC663002E3DD14FF0FF342546B046A9
:10F0F0007B6B012B04D13046FDF7ABFFC0B200E0C3
:10F1000000207B6B022B05D13046FDF7A2FF000AE1
:10F1100000F0FF00B5F1FF3F06D08542B8BF0546BD
:10F120008442A8BF044601E0044605460136B6F510
:10F13000805F8044DCD140460BF03AFE4FF06651D0
:10F140000BF08AFE0646281B0BF032FE4FF07A5178
:10F150000BF082FE2C37024631463846BDE8F041BE
:10F16000FFF7A4BFBDE8F0812DE9F041044686B069
:10F1700051B9042A08D146F26745AB4204D106B022
:10F18000BDE8F041FFF7A6BF04F5C673994228D148
:10F1900046F665439A4224D104F12C0594F85510A3
:10F1A00094F8562004F158032846FFF74FFF2046F5
:10F1B00003F03CFC2846FEF7FFF8204603F0D6FD9E
:10F1C0002846FEF7F6F8022805D0204606B0BDE82E
:10F1D000F04109F0C7BC204606B0BDE8F04109F097
:10F1E00095BC04F5AC73994240F0978046F66543B0
:10F1F0009A4240F09280204603F0B8FD484B94F8C4
:10F2000056601D6894F85530012B11D14FF0300E27
:10F210000EFB065E0EF1F4070EF5117EBEE80F0040
:10F220000FC7BEE80F000FC79EE80F0087E80F006A
:10F230003C4B3027009394F855203B4B774353F8D1
:10F240002230DFF8F080019394F85620374BEE1906
:10F2500053F8223024214FF6FF72002402931E201F
:10F260000023FDF77FFCD6F8F800CDF8008001946C
:10F27000B6F9F4300390404202930BF099FD4FF041
:10F2800068510BF0E9FD0BF0ADFB4FF6FF72CDE9D5
:10F29000040123463C211E20FDF764FC0123D6F81F
:10F2A000FC00CDF800800193B6F9F630039040429F
:10F2B00002930BF07DFD4FF068510BF0CDFD0BF08C
:10F2C00091FB4FF6FF72CDE9040123461E204C212D
:10F2D000FDF748FCED19FE3605F584755427144BEF
:10F2E00055F8040F0194009336F9023F03900293FE
:10F2F0000BF05EFD4FF068510BF0AEFD0BF072FBB2
:10F300001037CDE9040100231E2039464FF6FF7265
:10F310000134FDF727FC062CE1D106B0BDE8F081F1
:10F320008C82002012D90108D0DF010894DE010888
:10F330003ED901082AD9010810B5044603F02AFC79
:10F34000014B2046236010BDC8C5010810B5044616
:10F35000FFF71AFA014B2046236010BDA8C8010828
:10F3600010B50446FFF720FA014B2046236010BD7C
:10F37000F0C8010870B50546FFF716FA064B2C4693
:10F3800044F8283B05F1D80620462C34FFF7E8FF67
:10F39000B442F9D1284670BDD0C8010810B5044662
:10F3A000FFF7F2F9014B2046236010BD10C9010898
:10F3B00010B50446FFF7DEF9214B204640F82C3B00
:10F3C000FFF706FA04F15400FFF702FA04F17C009B
:10F3D000FFF7FEF904F1A400FFF7FAF904F1CC00FD
:10F3E000FFF7B4FF04F1D800FFF7B0FF04F1E40029
:10F3F000FFF7ACFF04F1F000FFF7A8FF04F1FC00F9
:10F40000FFF7B8FF04F5EA70FFF7A0FF04F5F0700E
:10F41000FFF79CFF04F5F670FFF798FF04F5FC700A
:10F42000FFF794FF04F50170FFF7A4FF04F53770B0
:10F43000FFF7B4FF04F53970FFF7C0F9204610BD9F
:10F4400010FA010810B50446FFF794F904F12C00F6
:10F45000FFF7ECFD164B04F1880023602033E362D4
:10F46000FFF7B6F904F1B000FFF7B2F904F1D800E4
:10F47000FFF790F904F1E800FFF7A0F904F58A70AE
:10F48000FFF788F904F59270FFF798F904F5A87072
:10F49000FFF784FF04F5AC70FFF790F904F5C27034
:10F4A000FFF77CFF04F5C670FFF788F9204610BD12
:10F4B00058C9010810B5044603F06CFB104B2046F8
:10F4C00040F8283BFFF738FF04F15C00FFF734FFFA
:10F4D00004F19000FFF730FF04F1C400FFF72CFFA8
:10F4E00004F1F800FFF728FF04F59670FFF760FFBE
:10F4F00004F588600430FFF7A5FF204610BD00BF6B
:10F5000068FA010810B5044603F044FB054B204699
:10F510002360012384F830300023A362002384F8A1
:10F52000313010BD58F9010838B5084614460D466B
:10F530004FF4C87219460BF055FFF4B11E23B4FB0B
:10F54000F3F203FB12439BB243B905F5C37348F2D0
:10F55000104225F80A2F9D42F9D138BD0623B4FB8D
:10F56000F3F203FB12439BB23BB905F5AF7348F2CC
:10F57000104225F8322F9D42F9D138BDF0B5ADF5D6
:10F58000965D054687B05148FEF7DAFD90B90DF556
:10F59000965408342B1D0FCB84E80F000121204620
:10F5A0000A460B460091FEF7A1FC20464BF296510D
:10F5B000FDF773F8FDF713FD002800F08180444B40
:10F5C0000DF58C501B684FF4967293F820409E8C7A
:10F5D000A4F101035C4244EB03041C300021002C25
:10F5E00008BF00260BF0FEFE0CB9002444E0002406
:10F5F0002046FDF72EFD0DF5006763000C37000275
:10F60000013427F81300002243F00103B4F5007F12
:10F6100027F81320ECD1384622462E49FDF7C0FDCD
:10F620003946224603A8FDF7D5FD0DF58C501C3058
:10F6300000214FF496720BF0D5FE0DF10E07002459
:10F6400037F9023C37F9040B5B4300FB0030FDF750
:10F65000C3FD0DF58C5263121C328008D15CC728A3
:10F66000A8BFC72004F516748842B8BF0846B4F591
:10F67000962FD054E4D1B8E70DF580510C31A2B2E9
:10F6800000232846FFF750FF0DF58C531C33195DFE
:10F690000DF580530C339A1E002302E022F8026F0E
:10F6A00001338B42FADB68680DF5805220180C326A
:10F6B000C823A9680134FDF7E9F8B4F5967FDBD1DA
:10F6C0000DF5377D0DF5805DF0BD00BF9C820020FB
:10F6D0008C82002008D1010810B50446FCF7B8FE62
:10F6E00040F22D1360602381204610BD038813B9BA
:10F6F00040F22D13038109880180704738B5044614
:10F700000D46FCF7A5FE62682389821A9A4215D934
:10F7100023889BB12B80238940F22D129342606095
:10F7200002D14FF4967307E0B3F5967F01D16423BD
:10F7300002E00A2B04D90A3B238138BD00232B8029
:10F7400038BD000010B5044603F024FA014B2046F2
:10F75000236010BD28F4010810B50446FFF742F8F5
:10F76000014B2046236010BD90DD010810B5044612
:10F77000FFF738F8014B2046236010BD78C501081B
:10F7800010B5044603F006FA0D4B204640F8283B1E
:10F79000FFF7D2FD04F15C00FFF7CEFD04F190000D
:10F7A000FFF7CAFD04F1C400FFF7C6FD04F1F8003D
:10F7B000FFF7C2FD04F59670FFF7BEFD204610BDB1
:10F7C000A0C5010810B5044603F0E4F90D4B20462E
:10F7D00040F8283BFFF7B0FD04F15C00FFF7ACFDFB
:10F7E00004F19000FFF7A8FD04F1C400FFF7A4FDA9
:10F7F00004F1F800FFF7A0FD04F59670FFF79CFDFB
:10F80000204610BDF0C5010810B5044603F0C2F94A
:10F810000D4B204640F8283BFFF78EFD04F15C00BD
:10F82000FFF78AFD04F19000FFF786FD04F1C400A4
:10F83000FFF782FD04F1F800FFF77EFD04F59670F6
:10F84000FFF77AFD204610BD18C6010810B5044622
:10F85000FFF772FD014B2046236010BD40C6010832
:10F8600010B50446FEF790FF014B2046236010BD03
:10F87000C0C6010810B5044603F08CF9154B2046AC
:10F8800040F8283BFFF7E2FF04F16000FFF7DEFFDE
:10F8900004F19800FFF7DAFF04F1D000FFF7D6FF7C
:10F8A00004F58470FFF7D2FF04F5A070FEF772FF35
:10F8B00004F5A870FFF7D4FF04F5AE70FFF7D0FF92
:10F8C00004F5B470FFF7CCFF04F5BA70FFF7C8FF7A
:10F8D000204610BD18DB010810B5044603F05AF9A4
:10F8E000094B204640F8283BFFF726FD04F15C0059
:10F8F000FFF722FD04F19000FFF71EFD04F1C400A4
:10F90000FFF71AFD204610BDE8C6010810B50446F1
:10F9100003F040F9074B204640F8283BFFF70CFD69
:10F9200004F15C00FFF708FD04F19000FFF704FD0F
:10F93000204610BD10C7010810B5044603F02AF98F
:10F94000014B2046236010BD38C7010810B504469E
:10F9500003F020F9014B2046236010BD60C7010869
:10F9600010B5044603F016F9014B2046236010BD84
:10F97000A8C7010810B5044603F00CF9014B204656
:10F98000236010BDF8C9010810B5044603F002F960
:10F99000114B204640F8283BFFF7ECFF04F15400E0
:10F9A000FFF7E8FF04F18000FFF7E4FF04F1AC008B
:10F9B000FFF7E0FF04F1D800FFF7DCFF04F58270E9
:10F9C000FFF7D8FF04F59870FFF7D4FF04F5AE7089
:10F9D000FFF7D0FF204610BDC0F4010810B5044663
:10F9E00003F0D8F8014B2046236010BD20CA01085F
:10F9F00010B5044603F0CEF8014B2046236010BD3D
:10FA000060CA010810B5044603F0C4F8054B20464F
:10FA100040F8383BFFF7ECFF04F16000FFF7E8FF28
:10FA2000204610BD40CA0108F8B5046805460E46D8
:10FA3000104621460BF006F90746B6F90200B6F962
:10FA40000060801B0BF0B4F9014638460BF004FA55
:10FA50002146074668680BF0F5F8014638460BF07A
:10FA6000AFFA044630460BF0A3F9014620460BF0EE
:10FA7000EBF80BF0B7FBF8BD0A4600F10801FFF701
:10FA8000D3BF0000084A03461068996910B500F515
:10FA90006570FFF7F1FF054B012118801846BDE89E
:10FAA0001040FDF7FBBA00BF8C820020687E00206A
:10FAB00070B50523002408E0E5186D1030F91560D5
:10FAC000B242B8BF2B46A8BF2C461D1B012DF3DC4C
:10FAD00030F9145051F8244051F82310521B091BDF
:10FAE0004A4330F91300451B92FBF5F0001970BD35
:10FAF000B0F9003010B50C684968D21A091B4A43A6
:10FB0000B0F90200C31A92FBF3F0001910BD000017
:10FB10002DE9F8438F7930257D43B1F90A900646E7
:10FB200005F118014019144671184A460C30FFF7C8
:10FB3000BFFF804660607019011D4A46FFF7D8FF7D
:10FB4000044BA06053F8273090FBF8F0E06023608E
:10FB5000BDE8F88380C701082DE9F0412E4D86B03D
:10FB6000044600210430FCF72FFE2B68C827B3F8A9
:10FB70007C3021697B430539284EA1EB1321606855
:10FB80004FF61E0346F20C320096FCF74EFE296833
:10FB900091F83430DBB101F5117002AA3031FFF772
:10FBA000B7FFD5F8008002A908F51170FEF7DEFD59
:10FBB00080B247432169B8F8382005396536606856
:10FBC000A1EB17214FF61E030096FCF72EFE2968C5
:10FBD00091F82030EBB101F1F40002AA1C31FFF7DB
:10FBE00097FF0D4B02A91D6805F1F400FEF7BEFD5D
:10FBF000C82100B2484321690539A1EB2021E82939
:10FC000007D8074BAA8C606800934FF61E03FCF7D9
:10FC10000CFE06B0BDE8F0818C82002008D50108FA
:10FC2000D2D50108002301608380C28070470000A4
:10FC300010B5044602F0AEFF064B04F50E702360CB
:10FC4000002384F8283004F5D1713222FFF7EAFF4F
:10FC5000204610BDF8C7010838B5044602F09AFFE7
:10FC60003D4B204640F8283BFFF76CFD04F1540063
:10FC7000FFF772FD04F17C00FEF7BEFD04F1AC005D
:10FC8000FFF774FD04F1D40005F048FA04F50060B4
:10FC9000183009F0D3FB04F532601830FFF770FD1F
:10FCA00004F548601830FFF78DFD04F55E601830EC
:10FCB000FFF7AAFD04F574601830FFF7DBFD04F5CB
:10FCC00086501C30FFF708FE04F58E501430FFF705
:10FCD0001DFE04F5945004F596551830FFF72CFEE0
:10FCE0002846FFF733FE05F12800FFF739FE04F53B
:10FCF00098501030FEF792FD04F59A500430FFF74B
:10FD000097FF04F5AC500430FFF7AAF804F5EE5065
:10FD10001C30FFF7CFFB04F50E505830FFF7F2FB15
:10FD200004F510500C3008F063FC04F51250583004
:10FD3000FFF72AFE04F518506030FFF74FFE04F578
:10FD40001A501030FFF75EFE04F51C5018300AF010
:10FD5000F4F8204638BD00BF30E3010810B5044672
:10FD6000FFF77AFF04F51C504C3002F051F804F50F
:10FD70002A506C30FFF7B0FC204610BD10B5064C81
:10FD8000236813F0010F04D10448FFF7E7FF0123B4
:10FD90002360024810BD00BF605300206453002060
:10FDA00010B50C46FCF754FB0419FDF72AFAFDF7D1
:10FDB0002DFAFCF74DFBA042F7D310BD0023838042
:10FDC000704730B590F8283087B00446002B5ED0DD
:10FDD0000021FEF7B5FD2046FEF7D6FE2046FEF7D1
:10FDE000A3FE8DF80000C0F30723C0F307408DF891
:10FDF00002008DF80130009B2046ADF814301B0C3A
:10FE00008DF81630FEF790FE8DF80000C0F3072342
:10FE1000C0F307408DF802008DF80130009B2046AA
:10FE2000ADF810301B0C8DF81230FEF77DFE8DF80A
:10FE30000000C0F30723C0F307408DF802008DF8DF
:10FE40000130009B2046ADF80C301B0C8DF80E30B5
:10FE5000FEF76AFE8DF80000C0F30723C0F30740E9
:10FE60008DF802008DF80130009B0025ADF80830B8
:10FE70001B0C8DF80A300323E36304F50E70256430
:10FE8000FFF79CFF2046FEF725FE84F82850204609
:10FE900007B0BDE83040FEF70BBE80887047000019
:10FEA00073B501918288C38804469A4203D30948F6
:10FEB0008321FCF776FE02AAA38832F8046D20683D
:10FEC00003EB43019278451801334652AA70A38090
:10FED0007CBD00BF52D9010838B50C1E054602DAB8
:10FEE0008388E41804D42846FFF7D7FF844203DB55
:10FEF0000448A821FCF755FE286804EB44040019C7
:10FF000038BD00BF52D90108818070478088704792
:10FF100038B50C1E054602DA8388E41804D4284656
:10FF2000FFF7F4FF844203DB0348A821FCF739FE06
:10FF3000286800EBC40038BD52D901082DE9F74FFD
:10FF40000D46019298460446FFF7E0FF0146284619
:10FF5000FFF7DAFF00264EE0012E01DD711E00E002
:10FF600000212046FFF7D4FFFFF743F83146D0F8D1
:10FF700000B02046FFF7CCFFFFF73BF8D0F800A019
:10FF80002046FFF7C3FF0138864201DA711C00E00A
:10FF900031462046FFF7BCFFFFF72BF83146D0F87B
:10FFA00000902846FFF7B4FF314607462046FFF78A
:10FFB000AFFF03C887E8030031462846FFF7A8FFD4
:10FFC000FFF717F80199074658460AF045FF4146E2
:10FFD000834650460AF040FF014658460AF034FE78
:10FFE0000C99824648460AF037FF014650460AF00F
:10FFF0002BFE013638602046FFF788FF8642ABDBD8
:020000040801F1
:10000000BDE8FE8F2DE9F84305468846FFF77EFFE1
:100010000024461E11E037197F1039462846FFF7A5
:1000200077FFFEF7E5FF0346196840460BF0D0F86E
:10003000002808BF3E4618BF3C46331B012BEADCB4
:1000400021462846FFF764FFFEF7D3FF21460768E5
:100050002846FFF75DFFFEF7CBFF034619684046D1
:100060000AF0F0FD314680462846FFF751FFFEF7C3
:10007000BFFF2146D0F800902846FFF749FFFEF762
:10008000B7FF0346196848460AF0DCFD01464046C2
:100090000AF096FF314680462846FFF739FFFEF703
:1000A000A8FF214606682846FFF732FFFEF7A1FFAA
:1000B0000346196830460AF0C5FD014640460AF07D
:1000C000CBFE014638460AF0BFFDBDE8F8830000CC
:1000D0007FB502AB83E80600002620E0002E02DD9B
:1000E0001248FCF731FE314602A8FFF711FFFEF778
:1000F0007FFF00680AF076FC04460D4602A83146F0
:10010000FFF706FFFEF775FF00680AF06BFC22465A
:10011000CDE900012B460648FCF716FE013602A881
:10012000FFF7F4FE8642D9DB7FBD00BF70D901081E
:1001300073D90108016000218180C280704701608D
:1001400000218180C280704713B56B4683E80600AA
:100150008288C38804469A4203D307488321FCF768
:1001600020FDA3882268694602EBC302013303C95C
:1001700082E80300A3801CBD52D901088088704723
:1001800030B585B0044601A880E80E00A288E38857
:100190009A4203D308488321FCF703FDA58823680E
:1001A0000C2202FB053301AA013507CA83E80700C8
:1001B000A58005B030BD00BF52D901080160002103
:1001C0008180C280704780887047000038B50C1E5F
:1001D000054602DA8388E41804D42846FFF7F3FFC3
:1001E000844203DB0448A821FCF7DBFC2B680C20CD
:1001F00000FB043038BD00BF52D901088388C28893
:10020000CB189BB29A42838003D202489721FCF715
:10021000C8BC704752D9010870B50C460546FFF7B7
:100220003CFE844203DB0F48AE21FCF7BAFC04EB32
:10023000440608E02B6801349B191A8823F8032C24
:100240009A7803F8012C2846FFF727FE0138033679
:100250008442EFDB28464FF0FF31BDE87040FFF7E6
:10026000CDBF00BF52D901082DE9F04387B0044645
:1002700002F068FB844240F0B980E16A226BFEF72D
:1002800087FB03230370E16A2046226B04F50E7599
:10029000FEF7C8FB2846FFF700FE60B994F82C1063
:1002A00005A894F8302094F83430FEF743FB284634
:1002B0000599FFF7F5FD676B4E4B204613F9079044
:1002C000E36A99444C4BC4F82C9013F90780236BD4
:1002D000494698444246C4F83080FEF759FBFBB2C9
:1002E00006465FFA89F15FFA88F204A8FEF722FB5E
:1002F00028460499FFF7D4FD3378022B24D1E36B11
:10030000302B01DC0133E3632046FEF70DFC8DF852
:100310000000C0F30723C0F307408DF801308DF8CB
:100320000200009920468AB20B0CADF80C10120A9C
:10033000C9B28DF80E30FEF775FB0520FCF798F872
:100340002046FEF7C7FB0DE0042B0BD0012B09D094
:10035000C820FCF78DF8204602F02CFD012384F81C
:10036000283043E0E16A226B2046FEF711FB0523AB
:100370000370E16A2046226BFEF754FB2846FFF724
:100380008CFDE36B984214DD00212846FFF7A4FDA5
:100390000646317872782046FEF7FAFA0123037098
:1003A000317820467278FEF73DFB28460021FFF7A2
:1003B00033FF2846FFF771FDE36B834216DC002113
:1003C0002846FFF789FD012106462846FFF784FDF0
:1003D00083782046A36331787278FEF7D9FA042334
:1003E0000370317820467278FEF71CFB07B0BDE839
:1003F000F08300BF0C300020083000208388C288C2
:10040000CB189BB29A42838003D202489721FCF713
:10041000C8BB704752D90108F8B50C4605461746C7
:10042000FFF774FD8442064603DB0E48B721FCF754
:10043000B8FB28460121FFF7E1FF3346F60005E04F
:10044000891901F1080203C982E80300013B083E53
:10045000A3422968F4DA01EBC40497E8030084E8B6
:100460000300F8BD52D901082DE9F04704460D46B6
:10047000084602211646FFF747FD00212846FFF7F0
:1004800047FD002107462046FFF742FD03C887E8E5
:10049000030001212846FFF73BFD07462046FFF7F2
:1004A00035FD411E2046FFF733FD03C887E80300F2
:1004B00068E041462046FFF72BFDFEF79AFD4146D6
:1004C000D0F800902046FFF723FDFEF791FD03468C
:1004D00019682846FFF796FD014648460AF0B2FB28
:1004E000FEF789FD394681462046FFF711FDFEF7EC
:1004F00080FD3946D0F800A02046FFF709FDFEF741
:1005000077FD034619682846FFF77CFD01465046F3
:100510000AF098FBFEF76FFD014648460AF058FEC8
:10052000002818BF474608F101082046FFF7EEFCF7
:100530008045BEDB4FF000081FE041462846FFF72C
:10054000E7FCFEF755FD3946D0F800902046FFF74E
:10055000DFFCFEF74DFD0346196848460AF038FEF9
:1005600048B139462046FFF7D3FC414602462846AB
:10057000FFF752FF06E008F101082846FFF7C6FC26
:100580008045DADB2846FFF7C1FCB04203DA4FF0C2
:1005900001080027C9E7BDE8F087000038B50C1E48
:1005A000054602DA8388E41804D42846FFF7E6FDFE
:1005B000844203DB0348A821FCF7F3FA286800EB28
:1005C000C40038BD52D901082DE9F04F804685B0EE
:1005D00008460391FFF7D2FD00240346002702944A
:1005E0002646A146254637E0394603980193FFF792
:1005F000D5FFFEF70BFD3946D0F800B00398FFF7A2
:10060000CDFFFEF702FD5946D0F800A028460AF0BB
:100610001BFB5946054658460AF01EFC0146484653
:100620000AF012FB5146814630460AF00DFB514656
:10063000064650460AF010FC014602980AF004FBF8
:100640005146029058460AF007FC014620460AF03F
:10065000FBFA019B044601379F42C5DB18460AF0AE
:10066000A7FB494682460AF0F7FB2946074628467B
:100670000AF0F2FB014638460AF0E4FA2146074642
:1006800050460AF0E9FB3146834628460AF0E4FB6F
:10069000014658460AF0D6FA394683460AF090FCDD
:1006A0004946C8F8000030460AF0D6FB2946814684
:1006B00020460AF0D1FB014648460AF0C3FA394603
:1006C0000AF07EFC5946C8F8040058460AF0C4FBFC
:1006D0000299044650460AF0BFFB314605463046B3
:1006E0000AF0BAFB014628460AF0ACFA0146384641
:1006F0000AF0B2FB014620460AF062FCC8F8080086
:10070000404605B0BDE8F08F2DE9F04F4269A24B9D
:100710000446ADF5026D53F8222083B09F48A168CE
:10072000FCF712FBA368012B05D19D4B62691B6886
:1007300083F8222006E0022B04D1994B62691B68E2
:1007400083F836200DF5026005A93D22FFF7F2FC83
:100750006FF01303EBE02046FEF796FC04F08CFCF0
:100760000DF5006018300DF5D8611922FFF7E7FC90
:100770008C4BA3617DE02046FFF784F9204664217D
:10078000FFF70EFB2379002B2FD0032323614FF0BB
:100790007E532362A0690AF025F902460B4682487F
:1007A000E168FCF7D1FA002505E020466421FFF757
:1007B000F7FA2379CBB12369002BF6DCD4F820803B
:1007C0004FF07E5140460AF0EFFCF8B940460AF07F
:1007D00009F90B4602467548FCF7B6FA20464FF475
:1007E000FA71FFF7DDFA23791BB92046FEF762FCA8
:1007F000F2E10123ED18092D2361DCDD4FF4FA70DD
:10080000FBF736FE6A48FCF79FFA62E0E0690AF0FF
:10081000E9F8064640460F460AF0E4F83246CDE9CC
:1008200000013B466348FCF78FFAE6694FF08341CD
:1008300030460AF0C3FC90B130465F490AF0B4FC80
:1008400068B10DF50165A16932462846FEF7E0FB67
:1008500095E806000DF500601830FFF775FCE069BB
:1008600056490AF0ABFC58B9A0694E490AF0ECF9B8
:10087000A061A06952490AF097FC00287FF47BAF81
:100880000DF500601830FFF779FC01284DDD0DF5FE
:10089000FA600DF5006104301831FFF795FEDDF8C0
:1008A000DC070AF09FF83AA3D3E90023DDF8D46708
:1008B000DDF8D857804689460AF048F988B14FF4E8
:1008C000FA70FBF7D5FD3F48E16842464B46FCF71E
:1008D0003BFA4FF4FA70FBF7C1FD2046FEF7F2FB3E
:1008E0007AE131464FF07E500AF06AFB0AF07AF85E
:1008F000824628468B460AF075F80DF5F967CDE972
:10090000000152463048E1685B46CDE90289FCF7B8
:100910001BFAE16832462B463846FEF77CFB97E827
:100920000E000DF50260FFF72BFCE3680533E36072
:10093000E368B3F58C7F7FF70EAF0DF500600DF522
:100940009B613D220830FFF739FCBCA93D220DF523
:100950000060FFF733FC0DF5F76102220DF5FF6033
:10096000FFF72CFC0DF5F16106220DF5FE60FFF797
:1009700025FC0DF50260FFF726FC01460DF5006031
:100980000830FFF7C1FA002542E000BFAFF3008056
:10099000AE47E17A14AEEF3F94DE010882D9010838
:1009A0008C820020CDCCCC3DA4D90108BAD9010855
:1009B000E1D9010813DA01080000704366E67943C3
:1009C0009A99214027DA010861DA01080DF50060E3
:1009D00029460830FFF79CFA294607460DF50260C4
:1009E000FFF7F4FB00680AF0E3F9294680460DF5AD
:1009F0000260FFF7EBFB0DF5FD660346414630460E
:100A00009A68FEF7F2FA96E8030087E803000135DA
:100A10000DF50260FFF7D7FB8542D7DB0DF50060CF
:100A20000DF5FF6102220830FFF71EFD0DF5026093
:100A3000FFF7C9FB01460DF500600830FFF764FAC7
:100A4000002521E00DF5006029460830FFF760FA27
:100A5000294607460DF50260FFF7B8FB00680AF06B
:100A6000A7F9294680460DF50260FFF7AFFB0DF5AB
:100A7000FC660346414630465A68FEF7B6FA96E8E9
:100A8000030087E8030001350DF50260FFF79BFBCB
:100A90008542D7DB0DF500604FF07A5208300DF536
:100AA00000614FF07C530092FFF748FA0DF50061AA
:100AB00000234FF07C520DF50060083100920DF5D7
:100AC000FE66FFF73BFA0DF500603146062208305E
:100AD000FFF7CAFC4348FCF737F90DF5FF654248BC
:100AE000FCF732F995E806002046FFF7F1FA3F4897
:100AF000FCF72AF93E48FCF727F996E8060020465D
:100B0000FFF7E6FA3948FCF71FF9636A002B5ED05D
:100B10006269384B4FF08F4053F822100AF050FAB8
:100B200006462846FFF7F2F9022804D032484FF46F
:100B3000DC71FCF736F8002529460DF5FF60676A81
:100B4000FFF7E6F900680AF04DFB294627F8150083
:100B50000DF5FF60676AFFF7DBF903465968304619
:100B60000AF07AF90AF03EFB07EB85070135022D02
:100B70007860E1D10DF5FE60FFF7C8F9062804D0D2
:100B80001D484FF4DF71FCF70CF8002529460DF5E0
:100B9000FE60676AFFF7BCF92B1D006807EB43078F
:100BA0000AF020FB2946B8800DF5FE60676AFFF762
:100BB000AFF90346596830460AF04EF90AF012FBC5
:100BC00005F106080135062D47F82800DED120463C
:100BD000FEF77CFA002323710BB00DF5006DBDE824
:100BE000F08F00BF88DA01089EDA0108A4DA010854
:100BF000A7DA010890C90108D7D80108AFF300802F
:100C000013B54FF00060094900F0F4F8F3F72EFB3C
:100C100001A8FCF755FB01A8FCF7F8FA04460028E8
:100C2000F9D101A8FCF7ECFA20461CBD00C0000871
:100C30000B4B4FF0FF316FF07042C3F88010C3F8D8
:100C40008420C3F88011C3F88421002303F1C0017C
:100C5000034A013300200F2B42F82100F6D17047E0
:100C600000E100E0094B4FF0206209495A60002280
:100C70009A60D9601A615A619A61DA611A625A629D
:100C8000013A9A62DA621A63704700BF00ED00E031
:100C90000000FA0540F0BE60024B40F42020D8600E
:100CA000704700BF00ED00E0C37870B56BB31D4B1B
:100CB0004578DB688178DB4303F4E0631B0AC3F10A
:100CC000040215FA02F20F25DD400D4015430278AB
:100CD0002D0102F00304E400FF21A540A140124BC6
:100CE0009208C03253F8226026EA010405EA0101A5
:100CF000214343F8221002780120510902F01F021B
:100D000010FA02F243F8212070BD0378012259093C
:100D100003F01F0312FA03F3034A203142F8213093
:100D200070BD00BF00ED00E000E100E000230370B3
:100D300043708370C370704700F04BB900F047B93F
:100D400000F04EB900F04AB9000100F04EB900F0D1
:100D50004FB9034B03485B6803EA0000000B704780
:100D600000ED00E000F03F00012200F01F0312FA46
:100D700003F34009044A403052F820001840C31AD7
:100D8000584240EB0300704700E100E0014B18605F
:100D9000704700BF00EF00E04209012300F01F0090
:100DA00013FA00F0024B603243F82200704700BF94
:100DB00000E100E0024B58688005800D704700BFDD
:100DC00000ED00E0012200F01F0312FA03F34009D6
:100DD000044A803052F820001840C21A504240EBBA
:100DE0000200704700E100E0014B1868704700BF47
:100DF00000ED00E021F0604121F07F01014B014353
:100E00009960704700ED00E0014A024BDA607047DC
:100E10000400FA0500ED00E0014A024BDA60704779
:100E20000100FA0500ED00E0044B11B11A6910430E
:100E300002E01A6922EA00001861704700ED00E044
:100E4000012300F01F0013FA00F0054B11B15A6A9C
:100E5000104302E05A6A22EA00005862704700BF5D
:100E600000ED00E0134B70B5DC68FF26E44304F4AA
:100E7000E064240AC4F1040536FA04F4A94002EA45
:100E8000040400F0C002400900F01800864044EA63
:100E90000101090111FA00F09209063253F82240CB
:100EA00024EA060643F8226053F82260304343F8F0
:100EB000220070BD00ED00E0830A012203F00F0361
:100EC00012FA03F3044A506A03EA0000C11A4842C6
:100ED00040EB0100704700BF00ED00E000F01F0094
:100EE000012111FA00F0034B5A6840EA02025A60ED
:100EF000704700BF00ED00E000F01F010139012044
:100F000010FA01F1024B5A6841EA02025A60704736
:100F100000ED00E0830B012203F00F0312FA03F34C
:100F2000054A506A03EA0000C3EB000CDCF1000044
:100F300040EB0C00704700BF00ED00E0830C13F0A5
:100F400003020A4B01D1D86A7047012A0CD1020D65
:100F500002F00302986AD300D840022A14BF00F0BE
:100F60000F0000F0FF007047186B704700ED00E0C5
:100F7000034B10F4800F0CBF586B986B704700BF89
:100F800000ED00E030BF704720BF704740BF7047A2
:100F9000BFF36F8F7047BFF34F8F7047BFF35F8F03
:100FA000704701DF7047EFF31480704780F31488B7
:100FB000BFF36F8F7047EFF30980704780F30988A4
:100FC0007047EFF30880704780F30888704762B677
:100FD000704772B67047EFF31080704761B6704784
:100FE00071B67047EFF31380704780F31188704734
:100FF000EFF31280704740BA704700BA70470000A4
:101000007047FEE7FEE7FEE7FEE770477047704770
:101010007047704770477047704770477047704718
:101020007047704770477047704770477047704708
:101030007047704770477047F3F7E2B8F3F7E2B8CC
:1010400070477047704770477047704770477047E8
:1010500038B5314D13202B68002101332B60F3F795
:10106000F5F82B792C461BB12B79013B2B7138BD40
:1010700014232B71AB6813B1AB68013BAB60A28941
:10108000254B92B2142A02D99A89143A00E0002220
:101090009A81E289204B92B2132A03D9DA89143A51
:1010A000DA8103E003200021F3F7D0F8237C1A4D06
:1010B000312B03D82B7C01332B740EE0002304204A
:1010C00001212B74F3F7C2F86B8A01336B82AB8A70
:1010D0009BB213B1AB8A013BAB82A27D0E4B0132B6
:1010E000A275A27D0B2A09D900229A75DA7DD2F168
:1010F000010238BF0022DA7501221A76627E064BA1
:1011000012B15A7E013A5A76A27E034B12B19A7EF0
:10111000013A9A7638BD00BF6C7E00207047704758
:101120007047704770477047704770477047704707
:1011300070477047704770477047704770477047F7
:1011400070477047704770477047704770477047E7
:1011500070477047704770470A4A0B4B9A4205D157
:101160000A4B0AE052F8041B43F8041B08498B425F
:10117000F8D3F5E7002243F8042B064A9342F9D34B
:10118000704700BF20020208003000202C310020F0
:101190002C310020988C0020684620F007018D46F5
:1011A00001B5FFF7D9FFFFF72BFDFEE7FEE770471C
:1011B0002DE9F047F02386B004460E46154600930D
:1011C0001422A03302A84FF49E71FCF74BFC2A4670
:1011D000384D204602AB3849009601F001FC2A68E0
:1011E00004F5A07704F5B4763846883204233349F1
:1011F00000F0B0F904F5BA78304604F5C071002269
:1012000044F6206300F0AAF9404604F5C1710122BA
:1012100042F2107300F0A2F9296804F5A879484653
:101220008C3100224FF4FA4300F098F9296804F554
:10123000AE7A50469031002204F128054FF4FA436B
:1012400000F08CF9284639461D4A44F216030094F2
:10125000FCF7A4F904F1D00031461A4A44F216030F
:101260000094FCF79BF904F584704146164A44F259
:1012700016030094FCF792F904F160004946134A02
:1012800044F208230094FCF789F904F198005146D0
:101290000F4A44F208230094FCF780F923682046A3
:1012A0009E68294646F675120023B04706B0BDE891
:1012B000F08700BF8C82002010DD0108ACDF010840
:1012C00022DD010827DD01082CDD010830DD0108E1
:1012D00034DD0108004870478C7E0020034B03EB8F
:1012E000001398889B89984080B27047B0DA010853
:1012F000294B2DE9F74F03EB00139E689D889C89CD
:10130000FFF7ECFFB0F5007F03D924484F21FBF72E
:1013100048FC4CB9234604E0315B214A01331153A8
:101320000234AB42F8DB34E04FF0010C0CFA04FC61
:101330005FFA8CFC4FEA4C0201921949B346002334
:1013400024E0013393FBF5F205FB12323BF8027BFC
:1013500036F812800022C7EB0809CDF800909946B4
:1013600010465346CA4609E0C8EB0709914429FADA
:1013700004F90130B94423F8029BC0B2DDF80090B3
:1013800060454A44F0D3019A53468918AB428A46D5
:10139000D7DB0348BDE8FE8FB0DA010838DD01086D
:1013A0008C7E002044F644439A422DE9F0470446DF
:1013B0000F4604D1614B002118687C3007E044F6E9
:1013C00045439A4207D15D4B012118687C30BDE846
:1013D000F04701F050BB46F675139A4240F0AB80DF
:1013E00000F584794945564D40F09B802E6896F86B
:1013F0008800FFF773FFB4F98231524A4343B2FBCE
:10140000F3F3B3F5FA4F28BF4FF4FA431BB2013B95
:1014100004F16000C6F8903001F01EFB04F1980062
:1014200001F01AFB7DE022F00202A4F88020D3F83C
:101430008C20D3F89030013201335343424A04F1F7
:10144000D000B2FBF3F2A4F88221404AB2FBF3F3DE
:10145000A4F88031B4F8F03043F00203A4F8F0307F
:1014600001F0FAFA2B68D3F89010B3F88C004A1CFC
:10147000521089B292B2FBF7FFFD30E0D3F8903002
:1014800042F00202A4F880200133142253432D4974
:10149000B3FBF2F2B1FBF2F2A4F882212B4A04F181
:1014A000D000B2FBF3F3A4F88031B4F8F03043F08D
:1014B0000203A4F8F03001F0CFFA47450AD13046D4
:1014C000FFF716FF82463046FFF708FF01465046F9
:1014D000FBF7E4FD2B68B3F89000FBF705FE4846E8
:1014E00001F0BAFA474526D1144F194B386803EB7F
:1014F00006167C30B168B28800F034F838687C3069
:1015000001F0AAFA2B6893F88830032BB4F828313D
:101510000CBF43F0020323F00203A4F82831BDE816
:10152000F0872B6804F1280893F88860B4F88020CD
:10153000032EA3D177E7BDE8F08700BF2484002005
:101540008C82002000E6DF0C00F87D0100A24A0436
:10155000B0DA010841608260037370474160028124
:10156000438170478162828501F076BA42F02002A1
:10157000FCF780BA00200B520230B0F5C87FFAD1D8
:10158000F2B11E23B2FBF3F003FB10239BB243B96D
:1015900001F5C37348F2104221F80A2F9942F9D19C
:1015A00070470623B2FBF3F003FB10239BB23BB959
:1015B00001F5AF7348F2104221F8322F9942F9D168
:1015C00070472DE9F0471446534A0D46D2F8008083
:1015D000924698F89910099F012908BFD8F89C20D5
:1015E0000A9E08BF1A6098F8B130012B03D1D8F8D1
:1015F000B420089B1A6098F8C990B9F1010F14D172
:10160000D8F8CC2098F8CA303A601BB908F1F40039
:10161000294602E008F51170214600F015FA3860FD
:101620003B68C82253431B123B6098F8E130012B02
:1016300014D1D8F8E42098F8E23032601BB908F1F0
:10164000F400294602E008F51170214600F0FCF98B
:1016500030603368C82253431B123360B9F1020F64
:1016600022D1D8F89C00FBF7F4FCDAF8003038609F
:1016700093F8CA203AB9C0B238602946C3F8CC0002
:1016800003F1F40007E00012C0B238602146C3F84D
:10169000CC0003F511703A6800F0D6F938603B6869
:1016A000C82253431B123B60DAF8003093F8E12064
:1016B000022A22D1D3F8B400FBF7CBFC164B3060E2
:1016C0001B6893F8E2203AB9C0B230602946C3F8EB
:1016D000E40003F1F40007E00012C0B230602146DC
:1016E000C3F8E40003F51170326800F0ADF9306022
:1016F0003368C82253431B1233603B68C72BC4BFF7
:101700004FF0FF333B603368C72BC4BF4FF0FF334C
:101710003360BDE8F08700BF8C82002038B50A4BEB
:1017200004301B681446B3F972500D60FCF74CFC92
:1017300045192560FBF78AFC854201DA206801E043
:10174000FBF784FC206038BD8C820020104B70B504
:101750001C68104B94F870200F4E53F822300F4D38
:10176000236194F8222094F8233056F8220055F88B
:10177000231009F071FB94F8362094F8373060613B
:1017800056F8220055F8231009F066FBA06170BDE1
:101790008C82002054DF0108B4DE0108E4DE010879
:1017A00010B5044659B9042A09D146F2674293425A
:1017B00005D101F051F92046BDE81040C6E710BD43
:1017C0002DE9F04F0646ADF5017D9C48FCF7B8FCCD
:1017D00080B978AC331D0FCB84E80F00012120467F
:1017E0000A460B460091FCF781FB20464BF29651CE
:1017F000FAF753FF924C2368988C198F93F82020A6
:1018000093F8343007908D48089109920A93FCF7B9
:1018100097FC28B1894B1A687368D31A059303E0C3
:10182000301DFCF7D1FB0590FAF712FE216841F25A
:101830008732D1F88030B1F872B0C31A93428CBFAE
:10184000002201220692B1F87E301AB1CBEB0303DD
:101850009BB201E04FF6FF7301F1F40074AA1C3152
:101860000493FEF755F9216870AA01F51170303123
:10187000FEF74EF9FBF7EAFB724D0B9028684FF02C
:10188000FF3328307F937E937D937C9305F07CFA21
:101890002B6803F50063183383420BD17EAB0093B2
:1018A0007DAB01937CAB0293304674A970AA7FABE9
:1018B000FFF787FE4FF0FF354FF0000A2F46B0E0EC
:1018C00004987F9A40F20113404508BF00234A451F
:1018D00008BF23687E9A08BFB3F8A0304A4508BF06
:1018E00023680CA908BFB3F8B83030464246FFF76A
:1018F00041FE0B99894504DA4846FBF7AAFB81466D
:1019000001E04FF000090A9A012A2ED120684FEA1F
:10191000192200F5117070A9D2B200F095F880B2CA
:1019200003B2002B03DBFF2BC8BFFF2000E0002029
:1019300000B2C82343431B129BB2B5F1FF3F08BF5F
:101940001D469D42B4BF2A461A46511E0CA800EB04
:10195000410103E00898013221F8020F9D42ACBF1B
:10196000284618468242F5DD1D46099901292CD1E9
:10197000206874A9F4305FFA89F200F065F880B24B
:1019800003B2002B03DBFF2BC8BFFF2000E00020C9
:1019900000B2C82343431B129BB2B7F1FF3F08BFFD
:1019A0001F469F42B4BF3A461A46511E0CA800EB90
:1019B000410103E00798013221F8020F9F42ACBFBA
:1019C000384618468242F5DD1F46069971B118F077
:1019D000010F0BD02368C822B3F97C3044F20820F1
:1019E0005A43121292B20CAB23F812007D9B002BCB
:1019F00005DD21680CAAB1F8D01022F813107C9BE9
:101A0000002B05DD21680CAAB1F8E81022F81310AC
:101A10007068B16840440CAAC823FAF737FF0AF18E
:101A2000010A05991FFA8AF80FFA8BF98845D14403
:101A3000FFF646AF0DF5017DBDE8F08F9C820020DA
:101A40008C8200202484002048688B68C96800FBD1
:101A50000230C1EBE020704740F2FF7181845949A8
:101A6000F0B5C1635849594B01644FF6E0710187E5
:101A70005749372601655749C684416556494FF68F
:101A80001F06416655498362A0F84A60544B0B26F5
:101A9000816680F870604FF4FC61083E01220224E8
:101AA0006425C362A0F85E100023C82180F8786026
:101AB000802680F8212080F8202080F83720458774
:101AC00080F83420A0F84C5080F8622080F8224042
