:020000040800F2
:10C000000000012055190108891701088B17010844
:10C010008D1701088F170108911701080000000013
:10C02000000000000000000000000000951701085B
:10C0300093170108000000009717010899170108DD
:10C040009B1701089D1701089F170108A1170108F8
:10C05000A3170108A5170108A7170108A9170108C8
:10C06000AB170108AD170108AF170108B117010898
:10C07000B3170108B5170108B7170108B917010868
:10C08000BB170108BD170108BF170108C117010838
:10C09000C5170108C9170108CB170108CD170108FA
:10C0A000CF170108D1170108D3170108D5170108C8
:10C0B000D7170108D9170108CD180108CF180108B2
:10C0C000D1180108D3180108D5180108D71801089C
:10C0D000D9180108DB180108E9180108EB18010854
:10C0E000ED180108EF180108F1180108F31801080C
:10C0F000F5180108F7180108F9180108FB180108DC
:10C10000FD180108FF1801080119010803190108A9
:10C110000519010807190108091901080B19010877
:10C120000D1901080F190108111901081319010847
:10C1300020B10368197003680133036070472DE96B
:10C14000F041161E04460D4614DD002200E00132C7
:10C15000A95C0029FBD1B24203F00208B4BFC2EBD4
:10C1600006060E46B8F1000F0CBF4FF020084FF046
:10C17000300801E04FF0200813F0010709D105E075
:10C1800020464146FFF7D4FF0137013E002EF7DC81
:10C1900005E0002703E02046FFF7CAFF013715F846
:10C1A000011B0029F7D105E020464146FFF7C0FFFB
:10C1B0000137013E002EF7DC3846BDE8F0812DE95D
:10C1C000FF410A9F05460B9EDDF830C08E4651B9EF
:10C1D00030238DF804308DF805103A4601A9334616
:10C1E000FFF7ADFF3CE03BB10A2A07D1002905DA91
:10C1F000C1F1000E012402E01C4600E0002404A965
:10C20000002301F8013D0EE0BEFBF2F302FB13EE4A
:10C21000BEF1090FC4BFACF13A0086440EF1300EF6
:10C2200001F801ED9E468846BEF1000FECD184B1C5
:10C230004FB116F0020F06D028462D21FFF778FFE8
:10C24000013F012405E02D2301F1FF3801F8013CF5
:10C250000024284641463A463346FFF770FF00194E
:10C2600004B0BDE8F0812DE9F0478AB006460D46DE
:10C2700005920024DBE0252B40F0D38015F8013F28
:10C28000002B00F0D880252B00F0CB802D2B02D185
:10C2900001352C3B03E0002301E043F00203294673
:10C2A00015F8012B302AF8D0002702E00A2202FB01
:10C2B00007070A780D46A2F130005FFA80FC0131D1
:10C2C000BCF1090FF2D9732A09D1059A3046111D24
:10C2D000059111685C4A002908BF11469DE0642A57
:10C2E0000ED1059A01936123111D029300970591C8
:10C2F00030461168603B0A22FFF761FF241895E081
:10C30000662A54D1059B073323F0070303F1080283
:10C31000D3E90001059215F085FD0021804616F055
:10C320007DF838B12D238DF8183008F100480DF153
:10C33000190A01E00DF1180A404616F097F801239A
:10C3400000E013460A225A439042FADA90FBF3F2D5
:10C3500002F1300103FB12000A2293FBF2F30AF808
:10C36000011B002BF2D124328AF80020002F08BFD5
:10C3700003279946404616F079F815F05DFE014610
:10C38000404615F0A3FD314915F0AAFE804616F08F
:10C390006DF809F101093030B9450AF8010FE9DB00
:10C3A00000228AF80120304606A9202336E0782AA8
:10C3B0000AD1059A01936123111D009702930591FB
:10C3C00030461168102219E0582A0BD1059A0193C2
:10C3D0004123111D02930097059130461168413B9E
:10C3E000102289E7752A0BD1059A01936123111D4B
:10C3F000009702930591304611680A22613B7BE762
:10C40000632A13D1059A3046111D126805918DF8E3
:10C41000242000228DF8252009A93A46FFF78FFE37
:10C420006CE730462978FFF783FE013401352B781D
:10C43000002B7FF420AF16B1336800221A7020461B
:10C440000AB0BDE8F08700BF08570208000020418D
:10C45000014B1868704700BF549F0020034B1880A1
:10C460001A8892B2002AFBD1704700BF609F00205B
:10C47000044B10B5196804460320F7F7E7FE024B9A
:10C480001C8010BD00300020629F002030B50023CA
:10C4900008E00A24B0FBF4F104FB11003030D05462
:10C4A000013388B2084A0028F3D1D0545910013B17
:10C4B000D31804E0145C5D7815545C700130013BC6
:10C4C0008842F7DB004830BD5C31002008B506200B
:10C4D0000021F7F7BFFE5A234343A3F58223A3F5B8
:10C4E0006B6340F2145093FBF0F00A306428A8BF4D
:10C4F000642020EAE07008BD0128ACBF014601219C
:10C500000220F7F7A3BE00EBD070024B401018607A
:10C51000704700BF00300020052810B507D8044B35
:10C5200053F8200018B1046805F0E0F8A04710BDEA
:10C53000E0480208024B0E2202FB0030704700BFA9
:10C54000F8480208034B18801A8892B2002AFBD1DF
:10C55000704700BF609F0020044A4FF4805313606F
:10C560004FF0C0421080024A13607047141401401B
:10C570001014014010B5EF20FFF7EEFF4FF0C0435D
:10C580001A881C8818881A881988C3B2C9B241EA67
:10C59000046141EA0343120643EA1242014B9A60E6
:10C5A00010BD00BF5C310020054B4FF480521A6073
:10C5B0004FF0C0431880034802601980704700BFE5
:10C5C00014140140101401402DE9F041E9204FF00E
:10C5D000C044FFF7C1FF202222801120FFF7BCFFDB
:10C5E0006420FFF7AFFFD120FFF7B6FF0025172229
:10C5F0005E232580D02023802280FFF7ADFF0C260C
:10C6000007232380362023804FF040082680FFF741
:10C61000A3FF3046A4F800804936FFF79DFF26802F
:10C620003A20FFF799FF2680C120FFF795FF533E80
:10C6300010232380C020238026802680FFF78CFFD4
:10C64000012735232580C52023802580258027804C
:10C650002680FFF781FF2780D220FFF77DFF22236E
:10C660002780C8202380FFF777FF73223723278096
:10C670002280238004220F2325802380268022808D
:10C680006722A4F8008022802580802226802380D3
:10C6900008232380292022802580FFF75DFF2C209E
:10C6A000BDE8F04158E7002008B50146FFF77CFFE0
:10C6B00000200146FFF778FF00200146FFF774FFD6
:10C6C00000200146FFF770FF0A20FFF73BFF012122
:10C6D0004FF4C060FFF768FF0A20FFF733FF4021E7
:10C6E0004FF4DE60FFF760FF0A20FFF72BFF4FF4E7
:10C6F00080604FF4C441FFF757FF082040F608015F
:10C70000FFF752FF01204FF48071FFF74DFF022029
:10C710004FF48071FFF748FF03203021FFF744FFFB
:10C7200009200121FFF740FF0C200021FFF73CFF0B
:10C7300090204FF40041FFF737FF0F200021FFF753
:10C7400033FF10201621FFF72FFF112040F20111B7
:10C75000FFF72AFF12200021FFF726FF13200121F7
:10C76000FFF722FF4FF480704FF44C71FFF71CFF6E
:10C7700040F2011040F23721FFF716FF40F203109C
:10C780004FF47061FFF710FF4FF420704FF4D64163
:10C79000FFF70AFF4CF2B0114FF48170FFF704FF6E
:10C7A0006420FFF7CFFE4FF440704FF44061FFF775
:10C7B000FBFE40F2013045F60B21FFF7F5FE40F29B
:10C7C000023040F60611FFF7EFFE40F2033041F26F
:10C7D0001701FFF7E9FE4FF441704FF40C51FFF7DA
:10C7E000E3FE40F205304FF4B851FFF7DDFE40F2B2
:10C7F000063046F20931FFF7D7FE40F2073040F627
:10C800000941FFF7D1FE4FF4427041F20C01FFF7EE
:10C81000CBFE40F2093042F23221FFF7C5FE4FF461
:10C8200004700021FFF7C0FE40F21120EF21FFF756
:10C83000BBFE40F212200021FFF7B6FE40F21320AB
:10C8400040F28F11FFF7B0FE4FF4A0600021FFF718
:10C85000ABFE40F201500021FFF7A6FE40F202506D
:10C860000521FFF7A1FE40F201400121FFF79CFEE8
:10C87000002140F20440FFF797FE6420FFF762FEBC
:10C880004FF480710720FFF78FFE6420FFF75AFEF8
:10C890004FF400700021FFF787FE002140F20120D5
:10C8A000FFF782FE054A4FF48053136040F20221E5
:10C8B0004FF0C0421180024A136008BD14140140B9
:10C8C0001014014070B5104C4FF480534FF40065C4
:10C8D000236001202560FFF735FE0C4B0A201D6008
:10C8E000FFF730FE32202560FFF72CFEFFF742FEF7
:10C8F000074B9A68074B9A4202D1BDE8704063E645
:10C90000BDE87040CFE600BF101401401414014090
:10C910005C310020279304020B4B10B59A680B4B37
:10C920004FF0C0449A4209D12E20FFF715FE23880C
:10C9300024882C20A4B2FFF70FFE02E0238824886D
:10C94000A4B2204610BD00BF5C3100202793040232
:10C950000EB403B503AA52F8041B019001A800927B
:10C96000FFF781FCBDE80C4003B07047AAE713B5A0
:10C9700002AC24F8020D00200146F7F747FC2046E0
:10C980004BF68031F7F750FCF7F74AFC20464BF6A0
:10C990008031F7F749FCF7F743FC1CBDC1F1EF010B
:10C9A00010B580B289B21446F7F730FC2046BDE8D6
:10C9B0001040F7F72DBCC1F1EF0110B580B289B27C
:10C9C000F7F724FCBDE81040F7F74EBC38B5151A50
:10C9D0005C1A6C434BF67F35AC4280B202F1FF35F6
:10C9E000C3F1F0020FD9C1F1EF0392B2A9B29BB229
:10C9F0006508F7F713FC04A8A9B2F7F715FC641B48
:10CA0000F7F70EFC06E0C1F1EF0392B2A9B29BB2B8
:10CA1000F7F704FC04A8A1B2F7F706FCF7F700FC4F
:10CA2000002040F28F110246EF23F7F7F7FB38BDE5
:10CA300037B50D46B0F9021004464B1CB0F90000A2
:10CA4000B4F904200095FFF7C1FFB4F90630B4F93A
:10CA50000000591EB4F904200095FFF7B7FFB4F9A0
:10CA60000000B4F90210421CB4F906300095FFF73B
:10CA7000ADFFB4F90420B4F90210B4F90630501E29
:10CA80000095FFF7A3FF3EBD2DE9F14F0A9C1E461E
:10CA90000B9B88461746511E04EB4309C6F1F00272
:10CAA000C8F1EF03054689B280B292B29BB2F7F7A4
:10CAB000B5FBA2460CE03AF8020BF7F7A9FBCA4512
:10CAC00008BFA2460BF1010BBB45F4DB08F10108DE
:10CAD000B04501DAAB46F7E7002040F28F1102467D
:10CAE000EF2301B0BDE8F04FF7F798BB2DE9F8430D
:10CAF000B0F80080044689461FFA88F7002614E043
:10CB0000B4F9065009E0C5F1EF01384689B2F7F7EC
:10CB10007DFBFFF701FF29F8020BB4F90230013D5C
:10CB20009D42F0DA01370136BFB20FFA88F2B4F94C
:10CB30000430B2189A42E3DBBDE8F8832DE9F047F0
:10CB4000C28843880D468188C2F1F0020139C3F1E1
:10CB5000EF03044689B2008892B29BB2F7F75EFBFE
:10CB60000026B4F8028010E0B4F80090002703E03B
:10CB700035F8020BF7F74CFB0FFA89F2B4F90430E1
:10CB8000BA1801379A42F3DB01360FFA88F2B4F98A
:10CB90000630B2189A42E7DB002040F28F110246BD
:10CBA000EF23BDE8F047F7F739BB13B50346B3F9F8
:10CBB0000240B3F90420B0F90000B3F90630009147
:10CBC0002146FFF703FF1CBD0268034BDA60426891
:10CBD0001A6102685A6170475C31002010B50B4C35
:10CBE0000246B4F91610B4F91400FFF7D7FEA38A71
:10CBF000B4F910200133A3821BB29A4204DCA3894A
:10CC0000A382E38A0133E38210BD00BF5C310020C0
:10CC100070472DE9F74F99460C9B0191924613F806
:10CC200001BB054600241DE018F8013BFBB113F0E1
:10CC3000040F4FF61E0305D09A450AD02846314608
:10CC4000524604E0994504D0284631464A46FFF74B
:10CC5000A5FE013701365F454346E5DB013401356A
:10CC6000502C03D0019E98460027F4E70824204664
:10CC7000BDE8FE8F2DE9F0411E460F46B6B2C7F162
:10CC8000F00714460546F7F7D1FAB91BA8B289B2E6
:10CC9000F7F7BCFA20463146F7F7C4FABDE8F04191
:10CCA000F7F7BEBA30F0030309D131F0030208D11F
:10CCB00040EA81000449091891F8180E70470020D5
:10CCC00070471846704700BFE04802082DE9F04F52
:10CCD00085B004469A469DF839009DF838300D46D7
:10CCE00016469DF83AB002900393274645E0C5EBFF
:10CCF0000A01701E0139C01B3B1BC8EB01019842A1
:10CD0000A8BF18464145A8BF4146FFF7CBFF68BB07
:10CD1000C9F1EF0189B2B8B2F7F778FAF7F7A4FAD8
:10CD20001A4BC10001F0FF01C208000A00EA030328
:10CD3000C1EB0B000190DDF808C0039802F0FC0283
:10CD4000C2EB0C0EC3EB000C03EB6C03DDF804C06C
:10CD5000DB1001EB6C00C01040EAC32302EB6E0055
:10CD6000801043EA401080B2F7F752FA09F1010946
:10CD700008F10108D145BADB0137B74203DAA94609
:10CD80004FF00008F6E705B0BDE8F08FF8FF0700A8
:10CD90002DE9F74F06468A4615461C46BDF830B0C9
:10CDA00088462DE00AF10303984509D1E71E414664
:10CDB00030462A463B46CDF800B0FFF707FEB8469E
:10CDC000B146002718E0A81B0138611EC01BC8EB44
:10CDD0000101CAEB0803B842A8BF38469942A8BF70
:10CDE0001946FFF75FFF20B9484641465A46FFF70C
:10CDF000D5FD09F101090137A945E4DB08F1010876
:10CE0000A045CFDBBDE8FE8F13B50346B3F9024062
:10CE1000B3F90420B0F90000B3F9063000912146BF
:10CE2000FFF7B6FF1CBD2DE9F74F01909DF83000CC
:10CE30001F460D469246FFF77DFB4FF61E039F42AD
:10CE400083461DD100241BF80480019F6FEA080867
:10CE50005FFA88F8082618F0800F04D03846611968
:10CE60005246FFF79BFD013EF6B2013726B14FEA6D
:10CE700048085FFA88F8EEE701340E2CE3D145E06C
:10CE80009A451FD100241BF80490DDF804806FEA56
:10CE900009095FFA89F9082619F0800F04D1404684
:10CEA00061193A46FFF77AFD013EF6B208F1010832
:10CEB00026B14FEA49095FFA89F9EDE701340E2CF2
:10CEC000E1D123E000241BF80490019E6FEA0909D8
:10CED0005FFA89F94FF0080819F0800F08F1FF3860
:10CEE000304614BF52463A4629465FFA88F8FFF7A3
:10CEF00055FD0136B8F1000F04D04FEA49095FFA39
:10CF000089F9E9E7013401350E2CDCD10820BDE8B0
:10CF1000FE8F2DE9F7430A9F05460E469146984637
:10CF2000AFB1387818B913E00A2B02D110362C466D
:10CF300007E00093204631464A464346FFF773FF19
:10CF4000241817F8013B002BEED1601B00E0384697
:10CF5000BDE8FE83DDE72DE9F043A5B015462CAA18
:10CF60000E4652F8041B07460DF1080823A89946FF
:10CF70002292CDF88C80FFF776F9314604462A4696
:10CF800038464B46CDF80080FFF7E4FF204625B039
:10CF9000BDE8F08337B5124B05460C4600933021AF
:10CFA0001F2328204FF6FF72FFF7D4FF20211F23F5
:10CFB0004FF6FF7228200095FFF7CCFFA0B2FFF7D5
:10CFC00065FA102100904FF6FF7228201F23FFF70B
:10CFD000C1FF4FF47A7003B0BDE83040FFF73EBAAE
:10CFE0000F57020808B502480421FFF7D3FFFEE7F8
:10CFF000215702080FB430B5A5B028AA52F8041B77
:10D0000002AC23A823942292FFF72DF923941EE06B
:10D010000A2B134C03D0A569B5F5C47F09DBE2697F
:10D0200000230E32E02AA361E2610DDD0C4AD361D8
:10D030000AE000932846E1694FF6FF724FF430434F
:10D04000FFF7F1FE4019A061239B01332393239B3B
:10D050001B78002BDCD125B0BDE8304004B0704710
:10D060005C3100202DE9F74FC0EB020B5F1A1FFA6D
:10D070008BFBBFB20FFA8BFA0FFA87F84FEADB3B54
:10D08000FF0BBDF83090BAF1000FD4BFCBF1000B0D
:10D09000CBF1010BB8F1000FD4BF7F42C7F10107FC
:10D0A000BAF1000FB8BFCAF1000AB8F1000FB8BF5B
:10D0B000C8F100084FEA4A0A4FEA480800921FFAEE
:10D0C0008AFA1FFA88F84A46019304460D460FFA79
:10D0D0008AF6FFF763FC0FFA88F39E4220DB1FFA03
:10D0E00088F8A8EB6606B6B216E016F4004F09D130
:10D0F0001EB94FFA8BF3002B04DD7BB2CAEB060698
:10D10000ED18B6B24FFA8BF3E41846442046294690
:10D110004A46B6B2FFF742FC009B9C42E5D11EE0B6
:10D120001FFA8AFAAAEB6306B6B215E016F4004FAE
:10D1300009D116B97BB2002B05DD4FFA8BF3C8EB92
:10D140000606E418B6B27BB2ED18564420462946CE
:10D150004A46B6B2FFF722FC019B9D42E6D1BDE8EC
:10D16000FE8F08B500210420F7F774F8C3439BB283
:10D17000C3F3802013F4006F1CBF40F0020080B2A4
:10D1800013F0080F18BF40F0040013F4004F18BF4D
:10D1900040F0080013F4804F18BF40F0100013F463
:10D1A000005F18BF40F0200013F4807F18BF40F0EC
:10D1B000400013F4007F18BF40F0800008BD07B5A1
:10D1C0000B200021F7F746F840B9084B30300093A8
:10D1D0001E211F224FF6FF73FFF79BFE1420002134
:10D1E00003B05DF804EBF7F731B800BF475702080A
:10D1F000034B014683F820002420F7F727B800BF2F
:10D200005C310020014B93F8200070475C31002016
:10D210002DE9F14F05460C460520002116469B4698
:10D220009DF828A0BDF82C90BDF83080BDF8347072
:10D23000F7F70CF809202946F7F708F80A202146E5
:10D24000F7F704F800203146F7F700F80B205946AD
:10D25000F6F7FCFF0C205146F6F7F8FF012049468F
:10D26000F6F7F4FF07204146F6F7F0FF08203946AD
:10D2700001B0BDE8F04FF6F7E9BF08B50320002183
:10D28000F6F7E8FFC0B208BDF6F7D4BF06200121CB
:10D29000F6F7DCBF2DE9F04106460C462220314668
:10D2A00015461F46F6F7D2FF21202146F6F7CEFF9E
:10D2B000202047EAC501BDE8F041F6F7C7BFB0F549
:10D2C000805F10B5044603DD08486F21FFF762FE5A
:10D2D000074B2620E1B25C60F6F7B8FF2112272049
:10D2E000C9B2BDE81040F6F7B1BF00BF60570208F1
:10D2F0000030002008230360014B5B680B6070471F
:10D3000000300020B0F5805F38B503DD08487D218E
:10D31000FFF740FE074D002404E0FFF7B5FF01349E
:10D3200045F8040F044B5B689C42F6DB38BD00BF38
:10D33000605702087C310020003000204FF48050FC
:10D340007047B0F5805F10B5044603D303488D21C4
:10D35000FFF720FE024800EB840010BD6057020872
:10D3600080310020034670B510200C461946154642
:10D37000F6F76CFF11202146F6F768FF12202946C8
:10D38000BDE87040F6F762BF094B10B51A68094C4A
:10D3900022F001021A60084A146043F2B0521A6087
:10D3A000064A116090601A6842F001021A6010BDCE
:10D3B00044040240087400404C0402404804024007
:10D3C000034B0121A3F83C0D03F552601C30DBE751
:10D3D0004464002001460D20F6F738BF004870472E
:10D3E0008271002008B5034602730020012A587399
:10D3F00005D11A4609480833F6F748FF06E0022A25
:10D4000009D11A4605480833F6F73EFFD0F101006E
:10D4100038BF002008BD012008BD00BF8271002078
:10D4200008B5034608461946F6F732FFD0F1010069
:10D4300038BF002008BD10B5044608462146F6F75F
:10D4400029FF20B9637B01300133637310BD0020D5
:10D4500010BD10B5037B0446022B10D1B1F1FF3F84
:10D4600008BF417B224608BF4902074804F1080370
:10D47000F6F712FF28B903232373013010BD0120F2
:10D4800010BD002010BD00BF82710020F0B502EB7E
:10D49000D27700247F1001EB420523460DE0BB420A
:10D4A000B4BF31F813C035F802CC065F013306FB78
:10D4B0000CF6360C0653023D04349342EFDBF0BD0C
:10D4C0000BF03CBB420803460DD00021B3FBF2F049
:10D4D00080184008121A0132022A04D9192902D0F0
:10D4E00001310246F2E7704705E0054A118811F064
:10D4F000800FFAD0938010F8013B002BF5D17047D4
:10D50000003801400F4B10489A6942F480429A61FA
:10D510000E4A40F27123138142F22C039381138847
:10D5200023F4A46323F005031B041B0C1380084B96
:10D530005A6822F47F6242F40A625A604FF48062B1
:10D540001A61D1E7001002408A57020800380140F2
:10D550000008014010B54FF4FA70FEF77FFFFFF7A7
:10D5600005FAFFF72CFEBDE81040CBE704F0F0B859
:10D570000E200021F6F76EBE0D200021F6F76ABEE0
:10D580000F200021F6F766BE10200021F6F762BEDC
:10D59000F6F754BE014B9868704700BF5C3100201D
:10D5A0002DE9F0433F3189B0234B804687B28CB2DE
:10D5B000ADF1020213F8010C1978C0108910C002F5
:10D5C000490141185878043301EBD00122F8021FB9
:10D5D0001A498B42EED11A4E3D4616F8013B08AA75
:10D5E0001B0902EB430328460135214633F8202C62
:10D5F000ADB208F1FF09FFF7D1F94D4502DD013C5D
:10D60000A4B23D4616F8013C08AA03F00F0302EB52
:10D61000430328460135214633F8202CADB2FFF7ED
:10D62000BDF94D4502DD013CA4B23D46054B9E428D
:10D63000D3D109B0BDE8F08337D8030877D8030801
:10D6400076D8030876F80308704700BF7047014B8F
:10D65000186870478473002013B5FEF7F9FE204B5D
:10D660001A68B2F1FF3F08BF18601B68C41AB4F50E
:10D670007A7F0ED94FF47A72B4FBF2F402FB0433D2
:10D6800017490B6003F094FC00F51C50436AE41842
:10D690004462FFF766FD02AC24F8020D03F088FC3B
:10D6A00000F52E5021460C3002F05AFE03F080FCAB
:10D6B00000F52E500C30214602F05AFEBDF806301F
:10D6C00033B103F075FC0221BDF8062006F002FF1D
:10D6D00003F06EFC0321002206F0FCFE01201CBDBD
:10D6E000083000200C4B10B518600446FFF732FFDD
:10D6F00003F05EFC06F062FF03F05AFC01210022F9
:10D7000006F0E8FE12F0A8FB12F062FB12F0BEF980
:10D71000FFF7BCFD204610BD8473002008B50368E8
:10D7200049421B6849B2984708BD0000014B186880
:10D73000704700BF206702087047012070474368A8
:10D74000826819688A181A60704743688268196885
:10D750008A1A1A6070470820704783681B78CB18B4
:10D7600005D4027B9342CCBF0020012070470020EB
:10D77000704783681A7801321A70704783681A7884
:10D78000013A1A7070478368197070478368187877
:10D790007047022070471820704702207047002011
:10D7A000704700207047082070470000034B1B683B
:10D7B00018690028B8BF033080107047749F00209C
:10D7C0000020704719207047034B1B6858690028D8
:10D7D000B8BF033080107047749F0020002070474E
:10D7E000192070477047436882681B68CB189342C2
:10D7F00005DBC0688342CCBF0020012070470020B9
:10D80000704743681A6801321A60704743681A68A3
:10D81000013A1A60704700000148CE21FFF7BABBF9
:10D820004863020808B50348CD21FFF7B3FB002089
:10D8300008BD00BF486302080148CC21FFF7AABB1E
:10D84000486302080148CB21FFF7A4BB48630208E4
:10D850000148CA21FFF79EBB4863020808B5034888
:10D86000C821FFF797FB022008BD00BF48630208EC
:10D8700039B9042A05D146F26742934201D106F034
:10D880000FBB704739B9042A05D146F2674293426B
:10D8900001D106F005BB704739B9042A05D146F21B
:10D8A0006742934201D106F0FBBA7047C36A70B574
:10D8B00004460D461BB90B484221FFF76BFB15F0E0
:10D8C000100F08D0E168E36A204646F66352BDE8CF
:10D8D000704006F0ECBA20462946BDE8704006F0DC
:10D8E0003FBB00BF6263020811F0100F70B5054620
:10D8F0000C4605D0C16846F66F52002306F0D7FAF1
:10D9000028462146BDE8704006F02ABB11F0010F01
:10D9100070B504460D4615D0C06A012103685B68E6
:10D92000984701280ED1E06A00210368DB68984718
:10D93000204606F0B5FA2046E16847F2705200230F
:10D9400006F0B5FA15F0020F15D0E06A0121036860
:10D950001B68984701280ED1E06A002103689B6884
:10D960009847204606F09CFA2046E16847F270523C
:10D97000002306F09CFA15F0100F0ED0E06A036841
:10D98000DB699847084B1B68984206D02046E1683F
:10D9900046F66542E36A06F08AFA20462946BDE863
:10D9A0007040FFF7A1BF00BF2067020811F0010F10
:10D9B00070B504460D460DD0C36A002B0ADD013B4D
:10D9C000C36206F06DFA2046E16846F67512002340
:10D9D00006F06DFA15F0020F0ED0E36A132B0BDC84
:10D9E0000133E362204606F05BFA2046E16846F622
:10D9F0007512002306F05BFA20462946BDE8704008
:10DA0000FFF772BF11F0010F70B504460D460DD03F
:10DA1000C36A012B0ADD013BC36206F041FA2046CE
:10DA2000E16846F67512002306F041FA15F0020F80
:10DA30000ED0E36A1D2B0BDC0133E362204606F0B7
:10DA40002FFA2046E16846F67512002306F02FFAF9
:10DA500020462946BDE87040FFF746BF11F0200F71
:10DA600070B505460C4606D0C06846F278520146AD
:10DA7000002306F01CFA28462146BDE8704006F057
:10DA80006FBA000011F0010F70B504460D4615D0B5
:10DA9000006A012103685B68984701280ED1206A5B
:10DAA00000210368DB689847204606F0F9F9204614
:10DAB000E16847F27052002306F0F9F915F0020F01
:10DAC00015D0206A012103681B68984701280ED1F0
:10DAD000206A002103689B689847204606F0E0F919
:10DAE0002046E16847F27052002306F0E0F915F095
:10DAF000100F0ED0206A0368DB699847084B1B683B
:10DB0000984206D02046E16846F66542236A06F050
:10DB1000CEF920462946BDE87040FFF79FBF00BF01
:10DB20002067020811F0010F70B504460D4615D0AC
:10DB3000C06A012103685B68984701280ED1E06A3A
:10DB400000210368DB689847204606F0A9F92046C3
:10DB5000E16846F67512002306F0A9F915F0020FE8
:10DB600015D0E06A012103681B68984701280ED18F
:10DB7000E06A002103689B689847204606F090F908
:10DB80002046E16846F67512002306F090F920461B
:10DB90002946BDE8704006F0E3B90000C36A70B5DD
:10DBA00004460D461BB91A482A21FFF7F3F915F070
:10DBB000100F08D0E168E36A204646F66352BDE8DC
:10DBC000704006F074B9E36A1A79043AD2B2012AB5
:10DBD00017D815F0010F08D0DA6812F1FE0F04DB38
:10DBE000013ADA60204606F05BF915F0020F08D022
:10DBF000E36ADA68FE2A04DC0132DA60204606F0C5
:10DC00004FF920462946BDE8704006F0A9B900BF8B
:10DC10008D630208C36A70B504460D461BB91D48E2
:10DC20002221FFF7B7F915F0100F08D0E168E36A79
:10DC3000204646F66352BDE8704006F038B915F04C
:10DC4000010F0ED0E36A1A795AB1013A1A712046CF
:10DC500006F026F92046E16846F67512E36A06F0FA
:10DC600026F915F0020F0FD0E36A1A79092A0BD8AA
:10DC700001321A71204606F013F92046E16846F693
:10DC80007512E36A06F013F920462946BDE8704094
:10DC900006F066B9BB63020830B502840025012294
:10DCA000456280F82820BDE8304006F0BDB800008D
:10DCB0007FB5043302AC05460E4693E8030084E8C2
:10DCC0000300BDF80E30284604339BB2ADF80A308D
:10DCD0000733ADF80E30044942F0020223460096A5
:10DCE00006F0A2F87FBD00BFEA6302087FB50433E7
:10DCF00002AC05460E4693E8030084E80300BDF835
:10DD00000E30284602339BB2ADF80A300733ADF827
:10DD10000E30044942F002022346009606F084F8D1
:10DD20007FBD00BFF66302080284012206F07CB8C2
:10DD30002DE9FF410A9E0D4600214162028480F8D0
:10DD4000283004464FF01108304608FB03F806F06F
:10DD500023F85FFA88F802AF68B1304606F01CF885
:10DD6000043003C887E80300BDF80E3002339BB2CD
:10DD7000ADF80A3006E0331D93E8030087E803009E
:10DD8000BDF80A30984420462946012202ABADF87E
:10DD90000E80009606F048F8BDE8FF81FFF7C8BF87
:10DDA0002DE9F041DDF81880044615461F460E4661
:10DDB00021B908484FF4E571FFF7ECF820462946F1
:10DDC0003A460223E662CDF81880BDE8F041FFF73D
:10DDD000AFBF00BF48630208FFF7AABF10B50A240F
:10DDE000C462BDE81040FFF7A3BF10B50A24C462A7
:10DDF000BDE81040FFF79CBF73B5044616460D46BC
:10DE000019B907480C21FFF7C5F8E5622046002143
:10DE100046F20C3202230096FFF78AFF7CBD00BF5A
:10DE20008D63020810B50524C462BDE81040FFF7F9
:10DE30007FBF13B503469C685B682478088853F855
:10DE40002430B1F9021000934FF6FF73002A14BF7B
:10DE50001A4600224FF61E03FFF75BF81CBD0000B8
:10DE60002DE9F341274DB0F906402B68B0F9046065
:10DE70009A8D254B2146009330460023FFF749F841
:10DE80002B68224F93F82A30214657F82330801907
:10DE900000934FF6FF720023FFF73BF82B6806F163
:10DEA0006408B3F840201A4B2146009340460023F3
:10DEB000FFF72FF82B68214693F83E30404457F87F
:10DEC00023304FF6FF7200930023FFF722F8114B27
:10DED000C83600932146002330464BF29652FFF796
:10DEE00018F82B68801993F878200B4B214653F8CB
:10DEF00022304FF6FF7200930023FFF70AF8BDE8C7
:10DF0000FC8100BF749F0020B185020824680208CC
:10DF100097860208026402088C680208F7B50E882A
:10DF2000154B083E4FF6FF75002A08BF0025B6B214
:10DF30000C460746B1F902102A46009330464FF6C8
:10DF40001E03FEF766FE7B683618B6B2B4F90210FF
:10DF5000009330462B464FF61E02FEF7DAFF074BC2
:10DF600030180093B4F902102A464FF61E0380B20F
:10DF7000FEF74FFEFEBD00BF3C520608AE5206083B
:10DF800073B5044605F07CFFA688144B083E4FF697
:10DF9000FF75002808BF0025B6B2B4F9061000933B
:10DFA0002A4630464FF61E03FEF733FEE369361865
:10DFB000B6B2B4F90610009330462B464FF61E0257
:10DFC000FEF7A7FF064B30180093B4F906102A4657
:10DFD0004FF61E0380B2FEF71CFE7CBD3C520608C5
:10DFE000AE52060808B583681A78436853F82200D1
:10DFF00014F09EFCC3004FF6F87003EA000008BD61
:10E000007FB5436804460D46164623B9124840F2D0
:10E010007A21FEF7BFFF63681A68A36892FBF3F2E8
:10E020000A2392FBF3F103FB11220023ADF80C301D
:10E03000303204AB03F8042D4FF6FF720093B5F9AC
:10E040000000B5F90210002E08BF00224FF61E0393
:10E05000FEF780FF7FBD00BF4863020870B50E4623
:10E0600015461C4605F091FE2A46014623463046D9
:10E07000BDE8704005F01BBF11F0010F2DE9F04124
:10E0800004460D4616D0006A012103685B68984774
:10E0900080B1206A00210368DB689847204605F0BC
:10E0A00074FE05F0FDFEE06847F27052C16800237F
:10E0B00005F0FDFE15F0020F16D0206A012103685D
:10E0C0001B68984780B1206A002103689B689847C5
:10E0D000204605F05AFE05F0E3FEE06847F2705274
:10E0E000C168002305F0E3FE15F00C0F0FD00C4EB5
:10E0F000204629463768FFF7B1FC3368BB420CD095
:10E10000204605F042FEBDE8F04105F0C9BE2046BC
:10E110002946BDE8F041FFF7A1BCBDE8F08100BF92
:10E12000889F0020102970B505460C4605D105F0E2
:10E130002CFE036821465B68984728462146BDE8C7
:10E14000704005F00DBF102910B50C4606D105F042
:10E150001CFE036821465B68984710BDBDE810406F
:10E1600005F0FEBE2DE9F0471F4647F270539A4274
:10E1700004460D4616463FD100F1380399423BD183
:10E18000436A93F80480A8F104095FFA89F9B9F1A8
:10E19000010F8CBF4FF000094FF00109B9F1000FDA
:10E1A00006D0A8F10503D3F1000848EB030801E00D
:10E1B0004FF0010804F1A00A504605F01AFF81450E
:10E1C00006D04946504605F07AFE4FF0010901E0BD
:10E1D0004FF0000904F16C0A504605F00AFF804533
:10E1E00004D05046414605F06AFE02E0B9F1000F46
:10E1F00002D0204605F054FE2046294632463B46D2
:10E20000BDE8F047FFF72ABF08B54368B3F900003F
:10E2100005F0B0FC14F08CFBC3004FF6F87003EA75
:10E22000000008BD4368F7B54FF6FF7604460D467B
:10E23000002A08BF00261BB913489721FEF7AAFE43
:10E240006368B5F900701868A368984202DBE36858
:10E2500098420ADD0D4BB5F902100093384632465C
:10E260004FF61E03FEF755FE0CE000B2B5F9024072
:10E2700005F080FC21460090324638464FF61E03DA
:10E28000FEF768FEFEBD00BF0664020821640208B6
:10E29000F7B543680E881C88083E134BB6B20D468E
:10E2A0002246B1F90210304600934FF61E03FEF7E6
:10E2B000B0FC36182046B5F9027005F09FFCB6B2E6
:10E2C00000903946234630464FF61E02FEF742FEC6
:10E2D000064B30180093B5F9021022464FF61E0384
:10E2E00080B2FEF796FCFEBD3C520608AE52060810
:10E2F00011F0100F70B5044617D005F048FD18B99D
:10E300000A483D21FEF746FE204605F03EFD054643
:10E31000204605F03CFD0346DB692046294646F2CF
:10E320006452BDE8704005F0C2BD70BD23640208B0
:10E3300044F644418A4201D105F072BF44F645419A
:10E340008A4202D1012280F82020704710B504468D
:10E3500005F066FF2046BDE8104005F03FBF10B550
:10E36000044605F05DFF2046BDE8104005F036BFCD
:10E3700001804280704710B58380BDF8083001806D
:10E380004280C38010BD00007FB50E46F0233C21C3
:10E390000446154600930A46283302A8FFF7EBFF10
:10E3A00020462A4602AB1049009605F03DFD04F1D7
:10E3B000200002230D4948F210420094FFF7EEFCC2
:10E3C00004F14C0002230A4948F210420094FFF77E
:10E3D000E5FC04F17800074948F21042022300945A
:10E3E000FFF7A6FC7FBD00BF466402085764020821
:10E3F00061640208686402087FB5DE2305460E46A4
:10E400001446009300211622D33B02A8FFF7B3FF66
:10E410002846044944F0020202AB009605F004FDD0
:10E420007FBD00BF786402087FB5152305460E4600
:10E43000144600930C21102202A84FF49C73FFF79E
:10E440009AFF2846034944F0020202AB009605F009
:10E45000EBFC7FBD8C6402087FB5F02305460E46B9
:10E460001446009300211022A03302A8FFF783FF77
:10E470002846044944F0120202AB009605F0D4FC91
:10E480007FBD00BF9F6402087FB5F02305460E469E
:10E490001446009300211022A03302A8FFF76BFF5F
:10E4A00028460349224602AB009605F0BDFC7FBD1D
:10E4B000AF6402087FB5F02305460E46144600936C
:10E4C00000211022A03302A8FFF755FF2846044977
:10E4D00044F0020202AB009605F0A6FC7FBD00BF2F
:10E4E000B96402087FB5F02305460E461446009332
:10E4F00000211022A03302A8FFF73DFF284604495F
:10E5000044F0020202AB009605F08EFC7FBD00BF16
:10E51000C5640208B0F90420B0F90030D0184010EA
:10E52000704707B5B0F90030B0F90410B0F9062013
:10E53000C918B0F902304910D218521001A8FFF7DB
:10E5400017FF019B00209AB262F30F001B0C63F3CC
:10E550001F400EBD10B5048809190180418852186A
:10E5600042808288D31A8380C288029BD31AC380D8
:10E5700010BD10B50488611A018041888A1A428052
:10E5800082889B188380029AC388D318C38010BDE9
:10E59000B0F90420B0F90030D01A7047F0B587B058
:10E5A00004AC051D064695E8030084E8030001213C
:10E5B00000220B4620460092FFF7DBFF204648F280
:10E5C0001041FEF7F2FA94E80300184B02AF1B6803
:10E5D00087E803002846B3F87A40FFF7D9FFBDF873
:10E5E0000A3004FB00F20133ADF80A3004F59674EA
:10E5F000BDF80E304443013BADF80E30B3883846C9
:10E6000003EB223203EB2434BDF81430ADF80C4098
:10E61000ADF8082024B21AB29442C8BFADF80C304D
:10E620000021FEF7C2FA07B0F0BD00BF749F0020C2
:10E6300073B5051D002104462846FEF7B6FA0F4BB8
:10E640001B68B3F88A60B3F87A30F61A36B2002E37
:10E6500012DB2846FFF79CFF86420DDAB4F904006E
:10E66000074B04380093B4F90610801946F20C32B7
:10E670004FF61E03FEF7CDFA7CBD00BF749F00204D
:10E68000A851060830B5051D85B00446002128466E
:10E69000FEF78BFA384B802100930420002348F2C8
:10E6A0001042FEF736FC354B802100933E23019348
:10E6B000A0203E3B4BF29652FEF74DFC304B902192
:10E6C00000930420002348F21042FEF722FC2D4B59
:10E6D00090210093A02000234BF29652FEF719FCE4
:10E6E000294BA02100930420002348F21042FEF79A
:10E6F00010FC264BA0200093014600234BF29652BB
:10E70000FEF707FC224BB02100930420002348F2BF
:10E710001042FEF7FEFB1F4BB0210093A0204BF2EE
:10E7200096520023FEF7F5FB1B4BC02100930420FB
:10E73000002348F21042FEF7ECFB184BC021009377
:10E740000423019301330293033B03934BF296524C
:10E75000023BA020FEF7FFFB2846FFF719FFB4F9A4
:10E760000610A0F5807000EBD0704010183105B095
:10E77000BDE83040FEF714BFD5640208E764020824
:10E78000F3640208FD6402080565020811650208C9
:10E790001E6502082E6502084365020855650208D9
:10E7A000F7B5061D002105463046FEF7FEF9514B30
:10E7B000802148F21042009304200023FEF7A9FBB9
:10E7C000FEF7DAFE8021002300904BF29652A02043
:10E7D000FEF79FFB484B902148F210420093042023
:10E7E0000023FEF796FBFEF7CBFE9021002300905E
:10E7F0004BF29652A020FEF78CFB404BA02148F232
:10E800001042009304200023FEF783FBFEF7BCFEBA
:10E810000090A020002301464BF29652FEF779FBB0
:10E82000374BB02148F21042009304200023FEF73A
:10E8300070FBFEF79DFEB02100234BF29652009034
:10E84000A020FEF766FBFEF7A5FE2E4B04460093C4
:10E8500004200023C02148F21042FEF75AFB2A4B45
:10E860002A4F9C4204D02A4B9C4203D064B114E04E
:10E87000284B00E0284B0093A020C0214BF2965279
:10E880000023FEF746FB11E0244BA0200093C0219B
:10E890004BF296522346FEF73CFBA020C0214BF2E0
:10E8A0009652002300970194FEF755FB1C4BD02194
:10E8B000009348F2104200230420FEF72AFBFEF7E3
:10E8C00067FED02101904BF296520023A0200097C2
:10E8D000FEF741FB3046FFF75BFEB5F90610A0F5E9
:10E8E000807000EBD0704010183103B0BDE8F040EC
:10E8F000FEF756BE62650208746502088465020868
:10E90000926502089F65020876676100C365020888
:10E9100027930402AF650208B3650208BB650208CD
:10E92000C8650208B0F90620B0F90230D01A704765
:10E930000388CB1803808388C91843888180D31843
:10E940004380C388D218C28070470023038043806D
:10E950008380C3807047B0F90420B0F900309A4238
:10E96000D4BF0020012070472DE9F04F00F12606AA
:10E970008BB004463046FFF7EEFF0546002847D12E
:10E9800008AF04F1040898E8030087E803000121B8
:10E990000A460B4638460091FFF7EBFD38464BF22E
:10E9A0009651FEF745F829464046FEF7FEF848F234
:10E9B0001042ADF81650ADF81850ADF81A50ADF839
:10E9C0001C50ADF814201935B4F90400B4F90A301C
:10E9D00005AA2818009205220192043B421CB4F9B2
:10E9E00006101935FEF750F8FA2DEDD1E13DB4F9D6
:10E9F000061005AB6918009305230193B4F90400D0
:10EA00004B1CB4F908201935FEF73EF8C82DEED19D
:10EA1000236A002B00F0A780251D2846FFF7B8FDCC
:10EA200080462846FFF77EFFB4F90AA032380390EB
:10EA30002046AAF1190A05F023FA60B1216BA38CD4
:10EA400001FB08F198FBF3F202EBD27291FBF3F3B6
:10EA500003EB620301E06FF0130330460293FFF70C
:10EA60007AFF18B9E084A4F82A802BE0B4F90420D6
:10EA7000B4F9263000259A42A8BF1346E384B4F9BE
:10EA80000820B4F92A3001219A42B8BF13466385A1
:10EA90002A460B4630460095FFF75CFD3046294676
:10EAA000FEF783F8012130462A460B460095FFF712
:10EAB00060FDB4F90410B4F90620304649425242D0
:10EAC000FFF736FF4FF00009E58CCB4644E0A28CFF
:10EAD000236A6A4392FBF8F233F81270B7F5805F4D
:10EAE00003D322485D21FEF755FA039AB4F9263084
:10EAF000574344BF07F57E671F373F13B4F904201F
:10EB0000BFB29D4208BFBB46AA184FF6FF730093E1
:10EB1000501EC7EB0A03CBEB0A01FEF7A3FA029BD8
:10EB20009D4208BFB94603339D4212D1B4F9040097
:10EB30000F4B626B0638AAF1040100934019C9EB30
:10EB40000101082A14BF16221F224FF61E03FEF7EA
:10EB500060F80135ADB2BB46B4F92A309D42B6DB50
:10EB60003046FFF7F2FE0BB0BDE8F08FD765020824
:10EB7000C85B060813B50446B4F90220B0F90000DA
:10EB8000B4F906300091114600F10C02FEF700F9CD
:10EB9000B4F90000B4F90210B4F90420B4F9063055
:10EBA00008304BF296540094FDF710FF1CBD37B5AA
:10EBB0000446B4F90250B0F90000B4F90420B4F9E5
:10EBC0000630023800912946FEF7E2F8B4F9000059
:10EBD000B4F90210B4F90420B4F9063006304FF647
:10EBE000FF740131013A013B0094FEF7D1F83EBDBC
:10EBF00007B50346B0F900000022B3F90210B3F9DB
:10EC00000630009200F10802FDF7E0FE0EBD37B5B8
:10EC10000446B0F90000B4F90210B4F9063000253A
:10EC200000F108020095FDF7D1FEB4F90420B4F913
:10EC30000210B4F90630101F0095FDF7C7FE3EBD67
:10EC4000436A37B504460BB11B880384204605F0A0
:10EC500017F9231D18B11846FFF7D9FF02E018462F
:10EC6000FFF7C6FFA38820460433A38005F008F908
:10EC70000546218C201D5DB1FFF799FFE369B3B113
:10EC8000B4F90400B4F9061000930C3000220AE035
:10EC9000FFF770FFE36953B1B4F90400B4F906104B
:10ECA00000930C302A464FF61E03FEF732F9A38874
:10ECB000043BA3803EBD0000C36A2DE9F0431F79E9
:10ECC0005B79A7F10102574247EB020748F210486F
:10ECD000002F18BF4FF00008012B87B0044607D063
:10ECE00002D3022B0ED108E03A4B1B689B8D08E043
:10ECF000384B1B68B3F8403003E0364B1B68B3F861
:10ED00009E3103862046FFF79BFFE36AB4F9049027
:10ED10009A79314BB4F9065053F8223009F10E06B6
:10ED200000933046294642464FF61E03FEF7F1F89F
:10ED3000002F4BD0E36A294A99799F6852F8214005
:10ED400038460021103513F069FB68B1244B30467A
:10ED50000093424629464FF61E03FDF75AFF07F17E
:10ED600000428619174601E009F11406384612F0F0
:10ED7000CBFD02460B4602A81A49FDF7E9FD05E066
:10ED800006AA02EB0903002203F8112C02AF384651
:10ED900013F0CEFD8146204613F0CAFD48440728F3
:10EDA000EED83046294642464FF61E030097FEF73E
:10EDB000D1F85CB123784BB104363018294644F2BF
:10EDC00008224FF61E030094FEF7A3F807B0BDE833
:10EDD000F08300BF749F0020C4690208F469020830
:10EDE000725B060803660208F0B5044685B0FFF7BB
:10EDF00027FFB4F90450B4F90670E36910350093A5
:10EE00002846394600224FF61E03FEF782F82046B8
:10EE100007F1100605F034F800282ED0234B3146B8
:10EE20000022009328464FF61E03FDF7F2FE451917
:10EE3000E06A1E3703685B699847324643192946E2
:10EE400002A80097FFF797FA002102A8FDF7ADFE90
:10EE5000E76A20463B681D6905F012F802A90246E0
:10EE60003846A847124BBDF90C00009331460022EA
:10EE70004FF61E03FDF7CDFE15E0E06A1E3703686E
:10EE80005B69984729464319324602A80097FFF765
:10EE900072FAE66A204633681D6904F0F1FF02A9A0
:10EEA00002463046A84705B0F0BD00BF3C520608F8
:10EEB000AE520608F0B5C669002585B00446C561A6
:10EEC000FFF7BEFEE661231D02AE93E803002A466B
:10EED00086E803002B46304610210095FFF73AFBE9
:10EEE000E3692A46BDF90A100093BDF908004FF600
:10EEF0001E03FEF70EF8BDF80A3020461033ADF8B9
:10EF00000A3004F0BDFF0246002837D0BDF8087073
:10EF10001E4B083FBFB2BDF90A102A46009338B213
:10EF20004FF61E03ADF80870FDF773FE3818ADF804
:10EF30000800E06A03685B699847BDF90A10074654
:10EF4000BDF9080001F10E033A180095FDF73EFDEA
:10EF5000E06A3146036801221B699847BDF8083012
:10EF6000BDF90A10FF180A4B38B200932A464FF633
:10EF70001E03ADF80870FDF74CFE04E0E06A314670
:10EF800003681B69984705B0F0BD00BF3C520608F6
:10EF9000AE52060813B50446FFF752FE084BB4F90B
:10EFA00004000093E36AB4F9061003EB83030193B2
:10EFB0001C30103100224FF61E03FDF7CCFF1CBDA4
:10EFC000C17D020813B50446FFF73AFE084BB4F9B9
:10EFD00004000093E36AB4F9061003EB8303019382
:10EFE0001C30103100224FF61E03FDF7B4FF1CBD8C
:10EFF000C17D020873B50546FFF722FEEB6AB5F93D
:10F000000440B5F906601B690E34002200933146B6
:10F010004FF61E032046FDF77CFFEB6A31461A7956
:10F02000114B001953F82230002200934FF61E03B3
:10F03000FDF76FFFEB6A06F110011A79052A01D17D
:10F040000A4A06E0042A03D0094A00929B6802E0BB
:10F05000084A0092DB680193204600224FF61E0307
:10F06000FDF779FF7CBD00BF5C6A020807660208F5
:10F07000C17D02080E660208C36AF7B51D79044611
:10F0800048F21043002D0CBF1D460025FFF7D8FDA8
:10F09000B4F90470B4F906600C4B0E370093314696
:10F0A0002A4638464FF61E03FDF733FFE36A38461B
:10F0B0001A79074B06F1100153F822302A460093C3
:10F0C0004FF61E03FDF725FFFEBD00BF12660208C6
:10F0D000306A02087FB50646FFF7B2FD0E4BF06AB4
:10F0E000009312F0A9FF0D4913F0AEF80C4912F08D
:10F0F000EFFE12F009FCB6F90450B6F906401C35D3
:10F100001034CDE902010022284621464FF61E03A5
:10F11000FDF721FF7FBD00BF1C66020800002041F3
:10F120000AD7233C73B5B0F90420B0F906300E4677
:10F13000B0F9021004464FF4E045101F04310432C8
:10F1400004330095FDF724FEB4F90630B4F900004D
:10F15000B4F90420191F0430043204330095FDF77C
:10F1600017FEB4F90000B4F90210B4F9063000F14A
:10F170000C020096FDF70CFEB4F90000B4F904206F
:10F18000B4F90210B4F906304BF296550830043A3F
:10F190000095FDF71BFCB4F90420B4F90210B4F992
:10F1A0000630A2F108000095FDF7F2FD7CBD73B5B5
:10F1B000B0F90420B0F906300E46B0F9021004464A
:10F1C0004FF4E045101F0431043204330095FDF77D
:10F1D000DFFDB4F90630B4F90000B4F90420191FBA
:10F1E0000430043204330095FDF7D2FDB4F9000079
:10F1F000B4F90210B4F90420B4F906300096FDF712
:10F20000C7FD7CBD37B5044604F03AFE0546218CA7
:10F21000201D55B1FFF7CBFFB4F90400E369B4F941
:10F22000061000930C30002209E0FFF77BFFB4F9D1
:10F230000400E369B4F9061000930C302A464FF637
:10F240001E03FDF766FE3EBD30B5024685B00D4695
:10F250000068516802AB022403C302A80021FDF735
:10F26000D3FD2246234602A821460094FFF772F9F7
:10F2700002A82946FDF7C8FD02A821460E22234612
:10F280000094FFF767F902A84BF29651FDF7BCFD19
:10F2900005B030BD73B50446051D218C2846FFF727
:10F2A000D3FF2846FFF736F9E5690646284613F0EE
:10F2B0003FFBB4F90610C0B28000301A02310022C0
:10F2C0004FF61E030095FDF724FE7CBDF0B589B016
:10F2D000031D054604AC93E8030084E803001846C8
:10F2E000298CFFF7B1FF2046FFF714F9EE690746B6
:10F2F000304613F01DFBBDF91210C0B28000023180
:10F300000022381A4FF61E030096FDF702FE122166
:10F3100004230A46009320460B46FFF71BF9686A50
:10F3200013F006FB07462046FFF7FBF8ADF8080090
:10F33000C0F30F40ADF80A00029E20460796FFF783
:10F34000F0F8ADF80800C0F30F40ADF80A000299DC
:10F350006B6AFF0036B2A6EB6706069109140093AC
:10F360003046073900224FF61E03FDF7D2FD09B0E3
:10F37000F0BDF0B585B0031D044602AD93E803006F
:10F3800085E803001846218CFFF75EFF2846FFF74B
:10F39000C1F8E6690746304613F0CAFABDF90A100B
:10F3A000C0B2800002310022381A4FF61E030096C8
:10F3B000FDF7AFFD12210423009328460A460B46B1
:10F3C000FFF7C8F8636ABDF90800BDF90A10009399
:10F3D0000430043100224FF61E03FDF79AFD05B0FC
:10F3E000F0BD4BF29651FDF7E0BB2DE9F041012154
:10F3F00004460026FDF7E8FBD02514E0EB10DA0206
:10F400004FEAA50842EA4818204648EA0308FFF7F1
:10F41000BFF8074602E04046FDF7E0FB013FFAD2A5
:10F420000D3DEDB201362046FFF77CFA8642E5DB62
:10F43000BDE8F041FDF7ECBB10B5044604F020FD3B
:10F44000231D20B91846BDE81040FFF7CABF184673
:10F45000BDE81040FFF7C9BF2DE9FF47044604F09F
:10F460000FFD4FF6FF75002808BF00252046FFF767
:10F47000E3FFE369B4F904002A46B4F906100093E7
:10F4800004304FF61E03FDF744FD206A0121036896
:10F49000B4F904805B6898478146206A01210368BB
:10F4A00008F178071B689847B9F1010F064607D1A4
:10F4B000244BB4F90610009308F170002A460AE0C4
:10F4C000B9F1000F0BD11F4BB4F90610009308F1EE
:10F4D000700048F210424FF61E03FDF79AFBD4F875
:10F4E00020A0231D93E803000DF10809DAF800308D
:10F4F00089E803002046D3F81080ADF80870ADF815
:10F500000C7004F0BDFC494602465046C047206AD4
:10F5100003685B699847012E384405D10A4BB4F95A
:10F52000061000932A4606E04EB9074BB4F90610C0
:10F53000009348F210424FF61E03FDF76AFBBDE848
:10F54000FF8700BF324F0608A44F060837B50546AF
:10F5500004F096FC4FF6FF74002808BF00242846EC
:10F56000FFF76AFFEB69B5F904000093B5F90610DF
:10F57000043022464FF61E03FDF7CBFC3EBD13B50B
:10F580000446FFF759FFE369B4F904000093B4F9A6
:10F590000610043000224FF61E03FDF7BAFC1CBD16
:10F5A000F0B585B0044604F06BFC4FF6FF750028FB
:10F5B00008BF0025204604F063FC90B102AB221D79
:10F5C00092E8030083E80300BDF808201846083AD3
:10F5D000ADF80820BDF80C200832ADF80C20FFF77C
:10F5E00004FF204604F04CFC58B1174BB4F904005A
:10F5F0000093B4F9061007382A464FF61E03FDF7AC
:10F6000008FB276A20463B681E6904F039FC211D6F
:10F6100002463846B047206AA78803685B69984766
:10F620000646204604F02CFC58B1084B3FB2781C2B
:10F630000093B4F9061080192A464FF61E03FDF711
:10F64000E8FA05B0F0BD00BF324F0608A44F060827
:10F650004162704773B5044616460D4619B90C4809
:10F660000D21FDF797FC0B4B00211B6820469B8D5D
:10F670000A462386E56202230096FEF759FB2046E0
:10F6800004F1300102B0BDE87040FFF7E1BF00BFF8
:10F6900062630208749F002073B5054616460C4647
:10F6A00019B90A480C21FDF775FCEC62284634F8BC
:10F6B000062F002102230096FEF73AFB284621463A
:10F6C00002B0BDE87040FFF7C3BF00BFBB630208D4
:10F6D000074A08481168084B30B50468074DCB1835
:10F6E00005FB04330131036058041160400C30BD48
:10F6F000249F00200C300020F390240021F17D0095
:10F7000030B5264B89B0044605AD93E807000C33AD
:10F7100085E8070093E8070094F8203002AD85E8FB
:10F720000700C3B1201D4FF6FF71FDF73EFAB4F993
:10F730000400B4F90A101A4B0830009314394FF63C
:10F740001E030022FDF7E5FB002384F82030059B13
:10F750006362029BA362FFF7BBFF032290FBF2F2FE
:10F7600002EB420208A9821A01EB82020346616A97
:10F7700052F80C0C9B0040184010606252F8181CA4
:10F78000A26A89184FF6FC72491003EA0202A162CC
:10F7900009B0BDE83040FDF701B900BFB05E020816
:10F7A0002266020808B50379012B09D002D3022B87
:10F7B0000FD10AE08368188800F01F00400808BDD8
:10F7C00083681888C0F3C31008BD83681888000BCD
:10F7D00008BD03484FF48271FDF7DCFB002008BD33
:10F7E0000664020830B54FF6FF7585B00C46002A56
:10F7F00008BF0025FFF7D6FF04F0F0F900238DF8CD
:10F800000D3003AB8DF80C000093B4F90000B4F98F
:10F8100002102A464FF61E03FDF79CFB05B030BDD3
:10F82000002908B50CDDFFF7BDFF0E288CBF0020B6
:10F83000012008BDFFF7B6FF003818BF012008BD42
:10F84000F8DB002008BD00000379012B12D002D3A1
:10F85000022B2CD11DE08268138823F01F031B04A8
:10F860001B0C0F2902D04900C9B200E01F2141EA58
:10F8700003031AE08268138823F4FC631B041B0C47
:10F880000F2902D08900C9B200E03F2143EA4113A9
:10F890000BE0826813885B055B0D0F2902D04900DD
:10F8A000C9B200E01F2143EAC12313807047024818
:10F8B0004FF48E71FDF76EBB0664020810B5044666
:10F8C000FFF770FF30B1411EC9B22046BDE81040BD
:10F8D000FFF7BABF10BD10B50446FFF763FF0E284F
:10F8E00006D8411CC9B22046BDE81040FFF7ACBFA6
:10F8F00010BDC8684042704710B5044604F086FB4E
:10F90000014B2046236010BDB0580208014B036034
:10F91000704700BFF858020810B50446FFF7F6FF1D
:10F92000014B2046236010BDD058020810B5044694
:10F93000FFF7ECFF014B2046236010BD885B0208F7
:10F9400010B5044604F062FB014B2046236010BD55
:10F950004059020810B50446FFF7F2FF014B20465C
:10F96000236010BD2059020810B50446FFF7E8FFD8
:10F97000014B2046236010BD685D020838B50D4B71
:10F980001B68D3F8A840002C11DDD3F89C0001308F
:10F9900012F052FB0146084812F056FC054620467C
:10F9A00012F04AFB0146284612F04EFC38BD0020FA
:10F9B00038BD00BF749F002000BA5B4A37B50446CB
:10F9C000FFF73EF92046FFF7D9FF12F04FFD12F086
:10F9D00033FB0821B4F90450B4F9064004F054F99B
:10F9E0001C35103400902146284600224FF61E0395
:10F9F000FDF7B0FA3EBD000038B5104B084610497F
:10FA00001C6812F06DFB0546D4F8A80012F014FB38
:10FA10000146284612F064FB01460A4812F014FC25
:10FA200012F024FDD4F89C3001380128B8BF012021
:10FA3000C4F89C00C01A18BF012038BD749F002074
:10FA40000000A0414054894C2DE9F04711F0010914
:10FA500004460D4603D111F0020F00F0CE8020467F
:10FA6000FFF78CFF00210646012712F0EBFC00B9DE
:10FA7000002717F0FF0F03D162482321FDF78AFA10
:10FA80003046614912F0D4FCE8B930465F4912F0C3
:10FA9000CFFCD8B930465E4912F0CAFCC0B9304636
:10FAA0005C4912F0C5FCA8B930465B4912F0C0FCB5
:10FAB00090B93046594912F0BBFC78B930465849E4
:10FAC00012F0B6FC60B94FF07E570AE0554F08E0DF
:10FAD0004D4F06E04D4F04E04D4F02E04D4F00E02A
:10FAE0004D4FB9F1000F11D03046394612F0B4FC39
:10FAF00028B13046394612F0E9F9804600E0B046B8
:10FB00004046002112F094FC10B903E0B04601E039
:10FB10004FF07E5815F0020F10D04046424912F0C7
:10FB20007DFC20B14046394612F0D2F9804640466D
:10FB3000002112F07DFC08B14FF07E583946404656
:10FB400012F082FB12F092FC12F076FA394612F0B3
:10FB5000C7FA4FF07E51074612F060FC08B14FF033
:10FB60007E573846314612F04FFC002843D13946C3
:10FB70002046FFF741FF80462046FFF7FFFE314653
:10FB80008246384612F068FC38B15046314612F0D1
:10FB90004FFC002818BF4FF000083846314612F0DD
:10FBA0003DFC20B15046314612F04CFC10B9B8F182
:10FBB000000F16D11D4BB9F1000F07D01B68D3F809
:10FBC0009C00B0F5803F0CDA013005E01B68D3F8EB
:10FBD0009C00012805DD0138C3F89C0080B2FDF7C8
:10FBE000F9FB204604F05CF92046E16846F6751200
:10FBF000002304F05CF920462946BDE8F047FDF7F4
:10FC000073BE00BF2F6602080000C84200007A449D
:10FC100000401C460050C347002474498096184B8E
:10FC200020BCBE4C000020418096984B749F002061
:10FC300010B5044604F0EAF9044B20462360012382
:10FC400084F82030013B636210BD00BFC05C020835
:10FC500004F026B947F269418A4201D1FFF7F8BFA3
:10FC600044F644418A4205D001318A4202D1012240
:10FC700080F82020704710B501704270837010BD6D
:10FC8000F8B5114B4FF4AF7707FB013700F13C0497
:10FC90000E2615E07B5D202B02D0232B06D101E040
:10FCA000012300E0002304F8013B03E00748F621AC
:10FCB000FDF770F90135192DECD11937013E01D04E
:10FCC0000025E7E7F8BD00BFC85E02085F660208CE
:10FCD000192303FB0213C0183C30704773B5064666
:10FCE000FFF7F6FC1923B0FBF3F505FB1305FFF74F
:10FCF000EFFC0E23B0FBF3F404FB1304294630465B
:10FD00002246FFF7E5FF0378012BE9D101330370A9
:10FD1000E2B2023B01A8E9B2FFF7ADFF019B002070
:10FD20001A0CDBB263F307009DF8053063F30F2074
:10FD3000D3B263F317407CBD002310B50446C36201
:10FD4000FFF7C6FC1923B0FBF3F202FB1303636257
:10FD5000FFF7BEFC0E23B0FBF3F202FB1302616A55
:10FD6000A2622046FFF7B4FF0378012BE8D10433E9
:10FD7000037010BD2DE9F0474FEA41180F242FE022
:10FD8000032B03D8DFE803F005090C0F00252E46EE
:10FD90000BE0C0F10F063D4607E02646054604E0AD
:10FDA0002546064601E005463E46134946EA051546
:10FDB0004AEA400601EB8606D6F8786146FA09FC65
:10FDC0001CF00F0C08BF4FF0020C01EB4C01B1F816
:10FDD00078140130102822F81510D1D1013C09D334
:10FDE000C4F10F0704F0070948EAE70A4FEA890956
:10FDF0000020C5E7BDE8F087B05E020870B5ADF53C
:10FE0000027D0C4606461546FFF762FF017805297C
:10FE100003D1304602AAF36A06E0042908BF336B17
:10FE2000304602AA18BF0023FFF7A4FF02A8691CEE
:10FE3000621CAB1C00904FF48070019009012001FE
:10FE400012011B01FCF720FE0DF5027D70BD11F0C3
:10FE5000020F034606D0C26A0132032AC2620EDDD7
:10FE6000002206E011F0010F07D0C26A002A02DD6D
:10FE7000013ADA6203E00322FBE704F071B8596A41
:10FE80009A6A1846FFF7BABF70B5064600240AE022
:10FE90002946304622460135FFF7B0FF192DF7D12C
:10FEA00001340E2C01D00025F2E770BD10B50446D8
:10FEB00004F0B6F9A36B6FF00901594301F596718F
:10FEC00020466429B8BF6421BDE8104004F0C2B8E0
:10FED00010B5054C23681869FCF70EFB23685869B8
:10FEE000BDE81040FCF70FBB749F0020024B890057
:10FEF0001B681961FFF7ECBF749F0020054B890058
:10FF00001B6810B55961FFF7E3FF6420BDE810409E
:10FF1000FCF7AEBA749F00202DE9FF41044603F0C0
:10FF2000AFFF4BF29655B4F90A204FF6FF73002845
:10FF300018BF1D46B4F90410B4F90830101F083B6F
:10FF40000C3A0090123102A8FEF715FA02A844F20A
:10FF50000821FCF72AFE02210A460B4602A800915E
:10FF6000FEF7F8FA02A8FEF713FB23688046DB6968
:10FF700020469847236807469B6A2046984723688F
:10FF800006465B6A20469847A8F1100807FB08F769
:10FF9000361ABDF8083097FBF6F7FF18BFB2ADF878
:10FFA000087002A810372946ADF80C70FCF7FDFD6B
:10FFB000BDE8FF81036870B5DB690E4604469847CB
:10FFC00016F0010F05460DD0236820465B6A98475E
:10FFD000854207DD236820461B6A691E9847204634
:10FFE000FFF79AFF16F0020F0DD0236820469B6A98
:10FFF0009847854207DA236820461B6A691C9847A0
:020000040801F1
:100000002046FFF789FF20463146BDE87040FDF7E6
:100010006BBC10B50446FEF713FE2046BDE8104049
:10002000FFF77ABF10B5044603F0F0FF014B2046FE
:10003000236010BD6858020810B50446FFF7F2FFB0
:10004000014B2046236010BD405D020810B50446F8
:10005000FFF75CFC014B2046236010BD885D020861
:1000600010B50446FFF76CFC014B2046236010BD21
:10007000D05D020870B50546FFF762FC064B2C46C2
:1000800044F8203B05F1B00620462434FFF7E8FF92
:10009000B442F9D1284670BDB05D020810B50446DF
:1000A000FFF734FC014B2046236010BDF05D0208D1
:1000B00010B50446FFF720FC214B204640F8243BB6
:1000C000FFF752FC04F14400FFF74EFC04F164001A
:1000D000FFF74AFC04F18400FFF746FC04F1A4009A
:1000E000FFF7B4FF04F1B000FFF7B0FF04F1BC006C
:1000F000FFF7ACFF04F1C800FFF7A8FF04F1D4003C
:10010000FFF7B8FF04F5C270FFF7A0FF04F5C87051
:10011000FFF79CFF04F5CE70FFF798FF04F5D4704D
:10012000FFF794FF04F5DA70FFF7A4FF04F51970E8
:10013000FFF7B4FF04F51B70FFF70CFC204610BD61
:100140005879020810B50446FFF7FAFB014B204628
:10015000236010BD185E020810B50446FFF7CCFB03
:100160002D4B204640F8643BFFF7ECFF04F1840080
:10017000FFF7E8FF04F1A400FFF7E4FF04F1C40077
:10018000FFF7F2FB04F1E400FFF7EEFB04F58270E9
:10019000FFF7EAFB04F59270FFF7E6FB04F5A270A7
:1001A000FFF7E2FB04F5B270FFF7DEFB04F5C27067
:1001B000FFF7B2FB04F5CA70FFF7CCFB04F5DC7067
:1001C000FFF7AAFB04F5E470FFF7C4FB04F5F67033
:1001D000FFF764FF04F5FA70FFF7BCFB04F5067047
:1001E000FFF75CFF04F50870FFF7B4FB04F511702E
:1001F000FFF72CFF04F51470FFF728FF04F51770C4
:10020000FFF724FF04F51A70FFF720FF04F51D70B7
:10021000FFF730FF204610BD7878020810B504467D
:1002200003F0F4FE114B204640F8203BFFF704FF9B
:1002300004F15000FFF7F6FE04F17C00FFF7F2FE38
:1002400004F1A800FFF7EEFE04F1D400FFF7EAFE88
:1002500004F58070FFF7E6FE04F59670FFF728FFBF
:1002600004F57170FFF778FF204610BDB0790208E1
:1002700010B5044603F0CAFE054B20462360012357
:1002800084F8283000232362002384F8293010BD2D
:10029000E077020870B504460D46164603F0B6FE38
:1002A000024B256223606662204670BD60810208B1
:1002B00070B504460D46164603F0A8FE024B2562B3
:1002C00023606662204670BD4081020870B5044616
:1002D0000D46164603F09AFE034BED00F600236030
:1002E00025626662204670BD2081020810B520217B
:1002F00032220446FFF7CEFF014B2046236010BD9B
:10030000C0570208202110B50A460446FFF7C2FF75
:10031000014B2046236010BDE057020810B5202194
:1003200007220446FFF7C4FF014B2046236010BD9F
:100330000058020810B5202110220446FFF7C6FF1E
:10034000014B2046236010BD2058020810B504461A
:10035000FCF77EF840F22D1360602381204610BD2B
:10036000038813B940F22D13038109880180704777
:1003700038B504460D46FCF76BF862682389821A8B
:100380009A4215D923889BB12B80238940F22D12E4
:100390009342606002D14FF4967307E0B3F5967F05
:1003A00001D1642302E00A2B04D90A3B238138BD22
:1003B00000232B8038BD000010B5044603F026FE54
:1003C000014B2046236010BDD875020810B50446C5
:1003D00003F01CFE014B2046236010BDA05702080D
:1003E00010B50446FFF71EFE014B2046236010BDEA
:1003F0004058020810B50446FFF77EFA114B20461C
:1004000040F8283BFFF788FA04F13800FFF784FA38
:1004100004F14800FFF780FA04F15800FFF77CFA76
:1004200004F16800FFF796FA04F18C00FFF792FAE6
:1004300004F1B000FFF78EFA04F1D400FFF78AFA56
:10044000204610BD9058020870B5054603F0DEFD49
:10045000084B2C4644F8203B05F5AC762046343456
:10046000FFF7BEFFB442F9D12046FFF7C3FF28468D
:1004700070BD00BFE07D020810B50446FFF7D2FD55
:10048000014B2046236010BDB859020810B5044640
:10049000FFF7F2FF014B2046236010BD8059020890
:1004A00010B50446FFF7E8FF014B2046236010BD5E
:1004B000F059020810B5044603F0A8FD094B204688
:1004C00040F8203BFFF7E2FF04F14C00FFF7E8FFA4
:1004D00004F17800FFF7A6FD04F1A400FFF7A2FDE8
:1004E000204610BD6059020810B50446FFF79AFD7A
:1004F000014B2046236010BD285A020810B504465F
:1005000003F084FD154B204640F8203BFFF704FA2A
:1005100004F13000FFF700FA04F14000FFF7FCF9A6
:1005200004F15000FFF7F8F904F16000FFF7F4F967
:1005300004F17000FFF7D8FF04F1A000FFF7D4FF2B
:1005400004F1D000FFF7D0FF04F58070FFF7CCFF77
:1005500004F59870FFF7C8FF204610BDE080020840
:1005600010B50446FFF75EFD014B2046236010BD29
:10057000785A020810B50446FFF7F2FF034B2046F5
:1005800040F8303BFFF7C8F9204610BD505A02082A
:1005900010B50446FFF746FD014B2046236010BD11
:1005A000A05A020810B50446FFF73CFD014B204657
:1005B000236010BDC85A020810B50446FFF732FD8B
:1005C000014B2046236010BDF05A020810B50446C6
:1005D00003F01CFD094B204640F8203BFFF7CAFF03
:1005E00004F16000FFF7D4FF04F18C00FFF7DAFF9D
:1005F00004F1BC00FFF7E0FF204610BD808B02082D
:1006000070B5054603F002FD064B2C4644F8203B2E
:1006100005F1FC0620462C34FFF704FDB442F9D165
:10062000284670BD608C020810B5044603F0EEFC4D
:100630000D4B204640F8203BFFF7F4FC04F14C0042
:10064000FFF7F0FC04F17800FFF7ECFC04F1A400E4
:10065000FFF7E8FC04F1D000FFF7E4FC04F1FC0034
:10066000FFF7E0FC204610BDD08B020810B5044611
:10067000FFF7D8FC014B2046236010BD185B020831
:1006800010B50446FFF7CEFC014B2046236010BD99
:10069000405B020810B50446FFF72EF90D4B2046CB
:1006A00040F8283BFFF738F904F13800FFF752F91A
:1006B00004F15C00FFF73AF904F16C00FFF74AF926
:1006C00004F19000FFF732F904F1A000FFF742F9BE
:1006D000204610BD685B020810B50446FFF716F906
:1006E000014B2046236010BDD05B020810B50446C4
:1006F000FFF70CF9014B2046236010BDF85B0208A0
:1007000010B50446FFF7F8F8154B204640F8283B93
:10071000FFF7E2FF04F13000FFF7E8FF04F13C00CF
:10072000FFF7E4FF04F14800FFF7E0FF04F1540095
:10073000FFF710F904F17800FFF70CF904F19C00C1
:10074000FFF708F904F1C000FFF704F904F1E40031
:10075000FFF7E2F804F1F400FFF7FCF8204610BDC3
:10076000B05B020810B5044603F050FC0D4B204668
:1007700040F8203BFFF77AFF04F15000FFF776FFC7
:1007800004F18000FFF772FF04F1B000FFF778FF7B
:1007900004F1E000FFF77EFF04F5D270FFF7B0FF31
:1007A000204610BD9080020810B5044603F02EFCD0
:1007B000014B2046236010BD205C020810B50446A2
:1007C00003F024FC014B2046236010BD405C02086E
:1007D00010B5044603F01AFC014B2046236010BDFF
:1007E000605C020810B5044603F010FC014B204683
:1007F000236010BDA05C020810B5044603F006FC9F
:10080000014B2046236010BDC097020810B5044676
:1008100003F0FCFB014B2046236010BD005D020885
:1008200010B5044603F0F2FB014B2046236010BDD7
:10083000205D020810B5044603F0E8FB014B20469A
:10084000236010BD5882020810B5044603F0DEFB99
:10085000014B2046236010BD385E020810B50446E7
:1008600003F0D4FB114B204640F8203BFFF7ECFF90
:1008700004F14400FFF7E8FF04F16800FFF7E4FF2C
:1008800004F18C00FFF7E0FF04F1B000FFF7DCFF9C
:1008900004F1D400FFF7D8FF04F1F800FFF7D4FF0C
:1008A00004F58E70FFF7D0FF204610BD8076020859
:1008B00010B5044603F0AAFB014B2046236010BD8F
:1008C000585E020810B5044603F0A0FB014B204619
:1008D000236010BD985E020810B5044603F096FB35
:1008E000054B204640F8303BFFF7ECFF04F1500089
:1008F000FFF7E8FF204610BD785E0208F8B50468EF
:1009000005460E461046214611F0E0FA0746B6F9B4
:100910000200B6F90060801B11F08EFB01463846DC
:1009200011F0DEFB21460746686811F0CFFA014658
:10093000384611F089FC0446304611F07DFB014633
:10094000204611F0C5FA11F091FDF8BD0A4600F1FC
:100950000801FFF7D3BF0000094B10B5C06A1C683F
:1009600011F06AFB074911F06FFC04F58D64014634
:100970002046FFF7EBFF80B2BDE81040FCF720BD3A
:10098000749F00200000204111F0010F70B5044653
:100990000D4609D0C36A032B06DD013BC36203F099
:1009A0007FFA2046FFF7D8FF15F0020F0AD0E36A5E
:1009B000182B07DC01332046E36203F071FA20466E
:1009C000FFF7CAFF20462946BDE87040FCF78CBF00
:1009D00070B50523002408E0E5186D1030F91560A6
:1009E000B242B8BF2B46A8BF2C461D1B012DF3DC1D
:1009F00030F9145051F8244051F82310521B091BB0
:100A00004A4330F91300451B92FBF5F0001970BD05
:100A1000B0F9003010B50C684968D21A091B4A4376
:100A2000B0F90200C31A92FBF3F0001910BD0000E8
:100A30002DE9F8438F7930257D43B1F90A900646B8
:100A400005F118014019144671184A460C30FFF799
:100A5000BFFF804660607019011D4A46FFF7D8FF4E
:100A6000044BA06053F8273090FBF8F0E06023605F
:100A7000BDE8F883785C0208F0B5314D87B00446D4
:100A800000210430FCF791F82B68C826B3F88830B1
:100A9000B4F90A1073432B4A0539A1EB13210092D4
:100AA0004FF61E03B4F9040046F20C32FCF7B1F81D
:100AB000296891F83C30E3B101F5467002AA38315B
:100AC000FFF7B6FF2F6802A907F54670FEF711FF82
:100AD00080B24643B4F90A101B4B0539B7F84020E1
:100AE000B4F904000093A1EB16214FF61E03FCF7A6
:100AF00090F8296891F82830FBB101F5E47002AA5A
:100B00002431FFF795FF0E4B02A91D6805F5E4702F
:100B1000FEF7EFFEC82100B24843B4F90A100539C8
:100B2000A1EB2021E82908D8084BAA8DB4F90400CC
:100B300000934FF61E03FCF76CF807B0F0BD00BF42
:100B4000749F002043510608D7510608DE5006085E
:100B50000868904201DA0A6070479842C8BF0B608B
:100B6000704713B50B780C469B18009301A8FF2320
:100B700069460022FFF7ECFF009B23701CBD0000BC
:100B80009D4B2DE9F0411B68044693F894300D46C7
:100B9000072B03D099487C21FCF7FCF915F0020FD4
:100BA00029D0256B0EF096FE0368013B9D4280F232
:100BB000208104F10408231D03CBC4F82600C4F8E7
:100BC0002A104046FDF7E4FC256BA78C05FB00F6D8
:100BD000E38C96FBF7F6023B9E19B6B2E6844046DC
:100BE000FDF7D6FC400090FBF7F70437F619013506
:100BF0006685256324E015F0010F26D0256B002DB6
:100C000040F3F780013D271D231D03CB2563C4F866
:100C10002600C4F82A103846FDF7BAFC4543A68CD6
:100C2000E38C95FBF6F5023B5D19ADB2E5843846E1
:100C3000FDF7AEFC400090FBF6F60436AD19658575
:100C40002046BDE8F04103F02BB915F0040F3AD06F
:100C5000256B002D04DB0EF03DFE03689D4203DB97
:100C600066489721FCF796F90EF030FE216B626B17
:100C700041182046FFF775FF636B082B12D1256BD7
:100C80000EF028FE036801359D420BDA0EF01EFEC1
:100C9000216B626B013102EBD27241185210204677
:100CA000FFF75FFF636B082B4FD1236B012B4CDDEC
:100CB0000EF00CFE216B626B013902EBD27241180F
:100CC000521020463FE015F0080F74D0256B002D20
:100CD00004DB0EF0FFFD03689D4203DB4748AD21B6
:100CE000FCF758F90EF0F2FD216B626B411852428D
:100CF0002046FFF736FF636B082B13D1256B0EF0F0
:100D0000E9FD036801359D420CDA0EF0DFFD626BF0
:100D1000216B02EBD272013152104118524220462F
:100D2000FFF71FFF636B082B0FD1236B012B0CDD2B
:100D30000EF0CCFD626B216B02EBD27201395210C6
:100D4000411852422046FFF70CFF0EF09FFE261D71
:100D5000231D03CBC4F82600C4F82A103046FDF743
:100D600017FC276BE38C4743A58C013B97FBF5F7FA
:100D7000DF19BFB2636B07F10A081FFA88F8082B66
:100D8000E784A4F82A807FF45BAF3046FDF700FCCF
:100D900043005B4293FBF5F30137FF18E7843046CD
:100DA000FDF7F6FB400008F1FF3890FBF5F5A8448D
:100DB000A4F82A8044E715F0100F08D0636B204692
:100DC000082B14BF08230123636303F069F815F0AF
:100DD000200F0ED0A36B1BB90848CA21FCF7DAF824
:100DE000A16B204646F278520023BDE8F04103F0A3
:100DF0005EB8BDE8F08100BF749F0020D76502088F
:100E0000002301608380C2807047000010B5044653
:100E100003F0FCF8064B04F50C702360002384F803
:100E2000203004F5CD713222FFF7EAFF204610BDD5
:100E3000E05C020838B5044603F0E8F8534B20465E
:100E400040F8203BFFF7B8FA04F1440000F0E6FE5A
:100E500004F53370FFF7BAFA04F54270FFF746FA6B
:100E600004F54C70FFF74EFA04F55670FFF756FA8A
:100E700004F56070FFF75EFA04F56B7005F02CFD69
:100E800004F51A601C300AF0F1FB04F546600C30E2
:100E9000FFF7DAFA04F56A601C30FFF70BFB04F584
:100EA00078600C30FFF72AFB04F586502C30FFF7F2
:100EB0008DFB04F58E501830FFF7A2FB04F5965019
:100EC0001430FFF7B1FB04F59E503C30FFF74AFCAD
:100ED00004F5B45004F5B6553830FFF765FC05F15C
:100EE0001800FFF76BFC05F1380004F5B855FFF763
:100EF0006FFC05F11800FFF775FC05F13800FEF7EF
:100F000097FE04F5BA502430FFF780FF04F5CC506B
:100F10001C30FFF771FC04F5CE50FFF777FC04F5A9
:100F2000CF50FFF77DFC04F5D050FFF777F904F5BB
:100F300004505830FFF79CF904F50650043009F0CE
:100F400013F804F50A5004F50E5570300DF0E4FB6B
:100F500005F11400FFF76EFC05F13400FFF77EFC8D
:100F600004F512507430FFF7A3FC04F5145004F597
:100F700016551C30FFF7B0FC05F10C000BF0ABF878
:100F800005F138000BF0FFFC204638BD286F020841
:100F900010B50446FFF74EFF04F51C50183001F061
:100FA000CDFD04F52E500C30FFF7D0F9204610BDD2
:100FB00010B5064C236813F0010F04D10448FFF765
:100FC000E7FF01232360024810BD00BF88730020A3
:100FD0008C73002000238380704730B590F8203058
:100FE00087B00446002B5ED00021FEF749FE204664
:100FF000FEF7A2FE2046FEF771FE8DF80000C0F35A
:101000000723C0F307408DF802008DF80130009BE4
:101010002046ADF814301B0C8DF81630FEF75EFE3E
:101020008DF80000C0F30723C0F307408DF80200DD
:101030008DF80130009B2046ADF810301B0C8DF868
:101040001230FEF74BFE8DF80000C0F30723C0F30B
:1010500007408DF802008DF80130009B2046ADF866
:101060000C301B0C8DF80E30FEF738FE8DF80000AA
:10107000C0F30723C0F307408DF802008DF801305C
:10108000009B0025ADF808301B0C8DF80A300323B7
:10109000636304F50C70A563FFF79CFF2046FEF721
:1010A00005FF84F82050204607B0BDE83040FEF729
:1010B000EBBE80887047000073B501918288C388B9
:1010C00004469A4203D309488521FBF763FF02AA2D
:1010D000A38832F8046D206803EB43019278451829
:1010E00001334652AA70A3807CBD00BF7A66020815
:1010F00038B50C1E054602DA8388E41804D4284665
:10110000FFF7D7FF844203DB0448AA21FBF742FF25
:10111000286804EB4404001938BD00BF7A66020851
:101120008388C288CB189BB29A42838003D202483C
:101130009921FBF72FBF70477A66020870B50C46FD
:101140000546FFF7B6FF844203DB0F48B021FBF7EB
:1011500021FF04EB440608E02B6801349B191A8830
:1011600023F8032C9A7803F8012C2846FFF7A1FFF7
:10117000013803368442EFDB28464FF0FF31BDE8EB
:101180007040FFF7CDBF00BF7A6602082DE9F0433B
:1011900087B0044602F0FBFD844240F0B980616AEA
:1011A000A26AFEF795FD03230370616A2046A26AD6
:1011B00004F50C75FEF722FE2846FFF77AFF60B9AA
:1011C00094F8241005A894F8282094F82C30FEF701
:1011D00052FD28460599FFF76FFFE76A4E4B204600
:1011E00013F90790636A99444C4BC4F8249013F99F
:1011F0000780A36A494698444246C4F82880FEF70F
:1012000067FDFBB206465FFA89F15FFA88F204A82F
:10121000FEF731FD28460499FFF74EFF3378022B85
:1012200024D1636B302B01DC013363632046FEF76E
:1012300055FD8DF80000C0F30723C0F307408DF87B
:1012400001308DF80200009920468AB20B0CADF8EF
:101250000C10120AC9B28DF80E30FEF7CFFD052032
:10126000FBF706F92046FEF721FE0DE0042B0BD01C
:10127000012B09D0C820FBF7FBF8204602F0D0FF75
:10128000012384F8203043E0616AA26A2046FEF719
:101290001FFD05230370616A2046A26AFEF7AEFDBA
:1012A0002846FFF706FF636B984214DD00212846AD
:1012B000FFF71EFF0646317872782046FEF708FDDC
:1012C00001230370317820467278FEF797FD284697
:1012D0000021FFF733FF2846FFF7EBFE636B8342E5
:1012E00016DC00212846FFF703FF012106462846A9
:1012F000FFF7FEFE83782046236331787278FEF78D
:10130000E7FC04230370317820467278FEF776FDFF
:1013100007B0BDE8F08300BF14300020103000207B
:1013200013B54FF000600A4900F0F6F800F0FAF942
:10133000F2F79CFF01A8FCF7D5F901A8FCF78CF99E
:1013400004460028F9D101A8FCF780F920461CBD0D
:1013500000C000080B4B4FF0FF316FF07042C3F834
:101360008010C3F88420C3F88011C3F884210023BF
:1013700003F1C001034A013300200F2B42F8210082
:10138000F6D1704700E100E0094B4FF020620949B7
:101390005A6000229A60D9601A615A619A61DA61D2
:1013A0001A625A62013A9A62DA621A63704700BF9F
:1013B00000ED00E00000FA0540F0BE60024B40F492
:1013C0002020D860704700BF00ED00E0C37870B502
:1013D0006BB31D4B4578DB688178DB4303F4E06336
:1013E0001B0AC3F1040215FA02F20F25DD400D407D
:1013F000154302782D0102F00304E400FF21A5400B
:10140000A140124B9208C03253F8226026EA010430
:1014100005EA0101214343F8221002780120510915
:1014200002F01F0210FA02F243F8212070BD037887
:101430000122590903F01F0312FA03F3034A203172
:1014400042F8213070BD00BF00ED00E000E100E097
:101450000023037043708370C370704700F04BB972
:1014600000F047B900F04EB900F04AB9000100F0B1
:101470004EB900F04FB9034B03485B6803EA000024
:10148000000B704700ED00E000F03F00012200F08B
:101490001F0312FA03F34009044A403052F82000B7
:1014A0001840C31A584240EB0300704700E100E0C7
:1014B000014B1860704700BF00EF00E042090123B4
:1014C00000F01F0013FA00F0024B603243F82200D4
:1014D000704700BF00E100E0024B58688005800DB6
:1014E000704700BF00ED00E0012200F01F0312FA78
:1014F00003F34009044A803052F820001840C21A11
:10150000504240EB0200704700E100E0014B1868D8
:10151000704700BF00ED00E021F0604121F07F0145
:10152000014B01439960704700ED00E0014A024B16
:10153000DA6070470400FA0500ED00E0014A024B52
:10154000DA6070470100FA0500ED00E0044B11B1CC
:101550001A69104302E01A6922EA00001861704714
:1015600000ED00E0012300F01F0013FA00F0054B2E
:1015700011B15A6A104302E05A6A22EA0000586226
:10158000704700BF00ED00E0134B70B5DC68FF262C
:10159000E44304F4E064240AC4F1040536FA04F4D4
:1015A000A94002EA040400F0C002400900F018005B
:1015B000864044EA0101090111FA00F0920906325D
:1015C00053F8224024EA060643F8226053F82260CA
:1015D000304343F8220070BD00ED00E0830A012291
:1015E00003F00F0312FA03F3044A506A03EA0000FF
:1015F000C11A484240EB0100704700BF00ED00E017
:1016000000F01F00012111FA00F0034B5A6840EA74
:1016100002025A60704700BF00ED00E000F01F01B9
:101620000139012010FA01F1024B5A6841EA020225
:101630005A60704700ED00E0830B012203F00F03B6
:1016400012FA03F3054A506A03EA0000C3EB000CE8
:10165000DCF1000040EB0C00704700BF00ED00E043
:10166000830C13F003020A4B01D1D86A7047012A98
:101670000CD1020D02F00302986AD300D840022A6E
:1016800014BF00F00F0000F0FF007047186B7047A8
:1016900000ED00E0034B10F4800F0CBF586B986B0B
:1016A000704700BF00ED00E030BF704720BF7047BB
:1016B00040BF7047BFF36F8F7047BFF34F8F7047C6
:1016C000BFF35F8F704701DF7047EFF314807047FF
:1016D00080F31488BFF36F8F7047EFF30980704772
:1016E00080F309887047EFF30880704780F308881B
:1016F000704762B6704772B67047EFF3108070475C
:1017000061B6704771B67047EFF31380704780F38E
:1017100011887047EFF31280704740BA704700BAE3
:1017200070470000034B20225A60C03283F8252303
:10173000704700BF00E100E0044B1A6899180132BD
:1017400002F01F0208711A60704700BF2C9F002032
:10175000074B5A6A19688A4206D09918013202F07A
:101760001F0208795A6270474FF0FF30704700BF80
:101770002C9F0020034B586A1B68C31A584240EB49
:10178000030070472C9F00207047FEE7FEE7FEE74E
:10179000FEE7704770477047704770477047704763
:1017A0007047704770477047704770477047704781
:1017B0007047704770477047704770477047704771
:1017C000F2F71EBDF2F71EBD7047704770477047B5
:1017D000704770477047704738B53B4D1320AB6A70
:1017E00000210133AB62F2F731FD95F82C302C4625
:1017F0002BB195F82C30013B85F82C3038BD1423E3
:1018000085F82C302B6B13B12B6B013B2B63A28E15
:101810002D4B92B2142A02D99A8E143A00E000227B
:101820009A86E28E284B92B2132A03D9DA8E143AA2
:10183000DA8603E003200021F2F708FD94F838303F
:10184000214D312B05D895F83830013385F83830E3
:101850000FE000230420012185F83830F2F7F6FC70
:101860006B8F01336B87AB8F9BB213B1AB8F013B97
:10187000AB8794F83E20144B013284F83E2094F854
:101880003E200B2A0DD9002283F83E2093F83F20FA
:10189000D2F1010238BF002283F83F20012283F8F1
:1018A000402094F84120084B22B193F84120013A9E
:1018B00083F8412094F84220034B22B193F8422050
:1018C000013A83F8422038BD2C9F002070477047B2
:1018D00070477047704770477047024B9888C00543
:1018E000C00D29E7003801407047704770477047C6
:1018F0007047704770477047704770477047704730
:10190000704770477047704770477047704770471F
:10191000704770470A4A0B4B9A4205D10A4B0AE0BE
:1019200052F8041B43F8041B08498B42F8D3F5E72F
:10193000002243F8042B064A9342F9D3704700BFB4
:10194000189B0208003000205C3100205C31002030
:1019500050AE0020684620F007018D4601B5FFF724
:10196000D9FFFFF7DDFCFEE7FEE7704770B50446E0
:1019700059B9042A09D146F26745AB4205D102F0B4
:101980008FFABDE870400EF03DBAA14207D145F292
:101990004830824203D1012B08BF81F8853270BDE7
:1019A000044BB3F90400B3F900309842D4BF0020CF
:1019B000012070478C9F002042F0200200F0D6BD2D
:1019C00000200B520230B0F5C87FFAD1F2B11E23CD
:1019D000B2FBF3F003FB10239BB243B901F5C373D1
:1019E00048F2104221F80A2F9942F9D17047062394
:1019F000B2FBF3F003FB10239BB23BB901F5AF73CD
:101A000048F2104221F8322F9942F9D17047D000A4
:101A1000CB0000F0FF0003F0FF0310B5C318D4089B
:101A2000C808D20A04F0FC0402EBD12100F0FC004B
:101A3000201849081B1143EAC121C01041EA401097
:101A400010BD0F4810B5006890F8B940012C08D1BE
:101A500090F8D140A4F1010CDCF1000444EB0C043B
:101A600000E000240C704CB1D0F8BC10D0F8D44089
:101A7000A14203DA1160D0F8D4201A6010BD00BF73
:101A8000749F00202DE9F0471446544A0D46D2F8C1
:101A90000080924698F8B910099F012908BFD8F82C
:101AA000BC200A9E08BF1A6098F8D130012B03D1E0
:101AB000D8F8D420089B1A6098F8E990B9F1010F82
:101AC00014D1D8F8EC2098F8EA303A601BB908F540
