:020000040800F2
:10C0000000000120DD250108112401081324010886
:10C010001524010817240108192401080000000054
:10C020000000000000000000000000001D240108C6
:10C030001B240108000000001F240108212401081E
:10C0400023240108252401082724010829240108A4
:10C050002B2401082D2401082F2401083124010874
:10C060003324010835240108372401083924010844
:10C070003B2401083D2401083F2401084124010814
:10C0800043240108452401084724010849240108E4
:10C090004D240108512401085324010855240108A6
:10C0A00057240108592401085B2401085D24010874
:10C0B0005F2401086124010855250108572501085E
:10C0C000592501085B2501085D2501085F25010848
:10C0D0006125010863250108712501087325010800
:10C0E0007525010877250108792501087B250108B8
:10C0F0007D2501087F250108812501088325010888
:10C100008525010887250108892501088B25010857
:10C110008D2501088F250108912501089325010827
:10C120009525010897250108992501089B250108F7
:10C1300020B10368197003680133036070472DE96B
:10C14000F041161E04460D4614DD002200E00132C7
:10C15000A95C0029FBD1B24203F00208B4BFC2EBD4
:10C1600006060E46B8F1000F0CBF4FF020084FF046
:10C17000300801E04FF0200813F0010709D105E075
:10C1800020464146FFF7D4FF0137013E002EF7DC81
:10C1900005E0002703E02046FFF7CAFF013715F846
:10C1A000011B0029F7D105E020464146FFF7C0FFFB
:10C1B0000137013E002EF7DC3846BDE8F0812DE95D
:10C1C000FF410A9F05460B9EDDF830C08E4651B9EF
:10C1D00030238DF804308DF805103A4601A9334616
:10C1E000FFF7ADFF3CE03BB10A2A07D1002905DA91
:10C1F000C1F1000E012402E01C4600E0002404A965
:10C20000002301F8013D0EE0BEFBF2F302FB13EE4A
:10C21000BEF1090FC4BFACF13A0086440EF1300EF6
:10C2200001F801ED9E468846BEF1000FECD184B1C5
:10C230004FB116F0020F06D028462D21FFF778FFE8
:10C24000013F012405E02D2301F1FF3801F8013CF5
:10C250000024284641463A463346FFF770FF00194E
:10C2600004B0BDE8F0812DE9F0478AB006460D46DE
:10C2700005920024DBE0252B40F0D38015F8013F28
:10C28000002B00F0D880252B00F0CB802D2B02D185
:10C2900001352C3B03E0002301E043F00203294673
:10C2A00015F8012B302AF8D0002702E00A2202FB01
:10C2B00007070A780D46A2F130005FFA80FC0131D1
:10C2C000BCF1090FF2D9732A09D1059A3046111D24
:10C2D000059111685C4A002908BF11469DE0642A57
:10C2E0000ED1059A01936123111D029300970591C8
:10C2F00030461168603B0A22FFF761FF241895E081
:10C30000662A54D1059B073323F0070303F1080283
:10C31000D3E90001059215F0F1F90021804615F0EE
:10C32000E9FC38B12D238DF8183008F100480DF1E3
:10C33000190A01E00DF1180A404615F003FD01232A
:10C3400000E013460A225A439042FADA90FBF3F2D5
:10C3500002F1300103FB12000A2293FBF2F30AF808
:10C36000011B002BF2D124328AF80020002F08BFD5
:10C3700003279946404615F0E5FC15F0C9FA014639
:10C38000404615F00FFA314915F016FB804615F0BE
:10C39000D9FC09F101093030B9450AF8010FE9DB90
:10C3A00000228AF80120304606A9202336E0782AA8
:10C3B0000AD1059A01936123111D009702930591FB
:10C3C00030461168102219E0582A0BD1059A0193C2
:10C3D0004123111D02930097059130461168413B9E
:10C3E000102289E7752A0BD1059A01936123111D4B
:10C3F000009702930591304611680A22613B7BE762
:10C40000632A13D1059A3046111D126805918DF8E3
:10C41000242000228DF8252009A93A46FFF78FFE37
:10C420006CE730462978FFF783FE013401352B781D
:10C43000002B7FF420AF16B1336800221A7020461B
:10C440000AB0BDE8F08700BF88490208000020411B
:10C45000014B1868704700BF80AE0020034B188066
:10C460001A8892B2002AFBD1704700BF8CAE002020
:10C47000044B10B5196804460320F7F7E7FE024B9A
:10C480001C8010BD003000208EAE002030B500238F
:10C4900008E00A24B0FBF4F104FB11003030D05462
:10C4A000013388B2084A0028F3D1D0545910013B17
:10C4B000D31804E0145C5D7815545C700130013BC6
:10C4C0008842F7DB004830BD4C31002008B506201B
:10C4D0000021F7F7BFFE5A234343A3F58223A3F5B8
:10C4E0006B6340F2145093FBF0F00A306428A8BF4D
:10C4F000642020EAE07008BD0128ACBF014601219C
:10C500000220F7F7A3BE00EBD070024B401018607A
:10C51000704700BF00300020024B0E2202FB0030AB
:10C52000704700BF783B0208034B18801A8892B20C
:10C53000002AFBD1704700BF8CAE0020044A4FF4A4
:10C54000805313604FF0C0421080024A136070475E
:10C55000141401401014014010B5EF20FFF7EEFF56
:10C560004FF0C0431A881C8818881A881988C3B2EB
:10C57000C9B241EA046141EA0343120643EA1242A6
:10C58000014B9A6010BD00BF4C310020054B4FF4A9
:10C5900080521A604FF0C04318800348026019802F
:10C5A000704700BF14140140101401402DE9F04100
:10C5B000E9204FF0C044FFF7C1FF20222280112064
:10C5C000FFF7BCFF6420FFF7AFFFD120FFF7B6FFF6
:10C5D000002517225E232580D02023802280FFF7AC
:10C5E000ADFF0C2607232380362023804FF0400820
:10C5F0002680FFF7A3FF3046A4F800804936FFF7F6
:10C600009DFF26803A20FFF799FF2680C120FFF783
:10C6100095FF533E10232380C02023802680268050
:10C62000FFF78CFF012735232580C5202380258037
:10C63000258027802680FFF781FF2780D220FFF703
:10C640007DFF22232780C8202380FFF777FF7322F6
:10C65000372327802280238004220F2325802380F4
:10C66000268022806722A4F80080228025808022F4
:10C670002680238008232380292022802580FFF71D
:10C680005DFF2C20BDE8F04158E7002008B50146C9
:10C69000FFF77CFF00200146FFF778FF00200146EE
:10C6A000FFF774FF00200146FFF770FF0A20FFF735
:10C6B0003BFF01214FF4C060FFF768FF0A20FFF73E
:10C6C00033FF40214FF4DE60FFF760FF0A20FFF7E1
:10C6D0002BFF4FF480604FF4C441FFF757FF082051
:10C6E00040F60801FFF752FF01204FF48071FFF779
:10C6F0004DFF02204FF48071FFF748FF03203021E7
:10C70000FFF744FF09200121FFF740FF0C20002123
:10C71000FFF73CFF90204FF40041FFF737FF0F2059
:10C720000021FFF733FF10201621FFF72FFF112004
:10C7300040F20111FFF72AFF12200021FFF726FF28
:10C7400013200121FFF722FF4FF480704FF44C714A
:10C75000FFF71CFF40F2011040F23721FFF716FFF0
:10C7600040F203104FF47061FFF710FF4FF4207098
:10C770004FF4D641FFF70AFF4CF2B0114FF481702D
:10C78000FFF704FF6420FFF7CFFE4FF440704FF433
:10C790004061FFF7FBFE40F2013045F60B21FFF749
:10C7A000F5FE40F2023040F60611FFF7EFFE40F2D0
:10C7B000033041F21701FFF7E9FE4FF441704FF4E7
:10C7C0000C51FFF7E3FE40F205304FF4B851FFF78C
:10C7D000DDFE40F2063046F20931FFF7D7FE40F2A7
:10C7E000073040F60941FFF7D1FE4FF4427041F2A5
:10C7F0000C01FFF7CBFE40F2093042F23221FFF785
:10C80000C5FE4FF404700021FFF7C0FE40F2112076
:10C81000EF21FFF7BBFE40F212200021FFF7B6FE2A
:10C8200040F2132040F28F11FFF7B0FE4FF4A060EA
:10C830000021FFF7ABFE40F201500021FFF7A6FEFA
:10C8400040F202500521FFF7A1FE40F20140012114
:10C85000FFF79CFE002140F20440FFF797FE6420A2
:10C86000FFF762FE4FF480710720FFF78FFE642010
:10C87000FFF75AFE4FF400700021FFF787FE0021FA
:10C8800040F20120FFF782FE054A4FF48053136007
:10C8900040F202214FF0C0421180024A136008BDED
:10C8A000141401401014014070B5104C4FF4805323
:10C8B0004FF40065236001202560FFF735FE0C4B27
:10C8C0000A201D60FFF730FE32202560FFF72CFEA6
:10C8D000FFF742FE074B9A68074B9A4202D1BDE828
:10C8E000704063E6BDE87040CFE600BF1014014021
:10C8F000141401404C310020279304020B4B10B557
:10C900009A680B4B4FF0C0449A4209D12E20FFF792
:10C9100015FE238824882C20A4B2FFF70FFE02E026
:10C9200023882488A4B2204610BD00BF4C310020CB
:10C93000279304020EB403B503AA52F8041B019016
:10C9400001A80092FFF78FFCBDE80C4003B07047D0
:10C95000AAE713B502AC24F8020D00200146F7F750
:10C9600055FC20464BF68031F7F75EFCF7F758FC94
:10C9700020464BF68031F7F757FCF7F751FC1CBD0A
:10C98000C1F1EF0110B580B289B21446F7F73EFC51
:10C990002046BDE81040F7F73BBCC1F1EF0110B5F0
:10C9A00080B289B2F7F732FCBDE81040F7F75CBC03
:10C9B00038B5151A5C1A6C434BF67F35AC4280B221
:10C9C00002F1FF35C3F1F0020FD9C1F1EF0392B2CA
:10C9D000A9B29BB26508F7F721FC04A8A9B2F7F742
:10C9E00023FC641BF7F71CFC06E0C1F1EF0392B2D5
:10C9F000A9B29BB2F7F712FC04A8A1B2F7F714FC96
:10CA0000F7F70EFC002040F28F110246EF23F7F7F4
:10CA100005FC38BD37B50D464168044600954B1CF2
:10CA2000A2680068FFF7C4FFE3682068591EA26887
:10CA30000095FFF7BDFF20686168421CE368009520
:10CA4000FFF7B6FFA2686168501EE3680095FFF724
:10CA5000AFFF3EBD2DE9F14F0A9C1E460B9B884659
:10CA60001746511E04EB4309C6F1F002C8F1EF036B
:10CA7000054689B280B292B29BB2F7F7CFFBA246CD
:10CA80000CE03AF8020BF7F7C3FBCA4508BFA24611
:10CA90000BF1010BBB45F4DB08F10108B04501DAED
:10CAA000AB46F7E7002040F28F110246EF2301B0BA
:10CAB000BDE8F04FF7F7B2BBF8B505460F4604687E
:10CAC00010E0EE6809E0C6F1EF01A0B289B2F7F715
:10CAD0009DFBFFF713FF27F8020B6B68013E9E4298
:10CAE000F1DA0134AB689C42EBDBF8BD2DE9F04193
:10CAF000C26843680D468168C2F1F0020139C3F192
:10CB0000EF03044689B2008892B29BB2F7F786FB26
:10CB100066680AE0276804E035F8020BF7F778FB4F
:10CB20000137A3689F42F7DB0136E3689E42F1DBE1
:10CB3000002040F28F110246EF23BDE8F041F7F7E5
:10CB40006DBB07B50346009159689A680068DB68B9
:10CB5000FFF72EFF0EBD70B5064E044606F10C051C
:10CB60001C360FC885E80F0094E8030086E8030030
:10CB700070BD00BF4C31002010B5094C0246216A3F
:10CB8000E069FFF7FDFEE369626901339342E36107
:10CB900004DBE368E361236A0133236210BD00BF55
:10CBA0004C31002070472DE9F74F99460C9B0191BD
:10CBB000924613F801BB054600241DE018F8013B1E
:10CBC000FBB113F0040F4FF61E0305D09A450AD0AF
:10CBD00028463146524604E0994504D0284631465D
:10CBE0004A46FFF7CDFE013701365F454346E5DB98
:10CBF00001340135502C03D0019E98460027F4E7FC
:10CC000008242046BDE8FE8F2DE9F0411E460F4660
:10CC1000B6B2C7F1F00714460546F7F707FBB91B94
:10CC2000A8B289B2F7F7F2FA20463146F7F7FAFAD6
:10CC3000BDE8F041F7F7F4BA30F0030309D131F061
:10CC4000030208D140EA81000449091891F8000E56
:10CC50007047002070471846704700BF783B0208B5
:10CC60002DE9F04F85B004469A469DF839009DF8AD
:10CC700038300D4616469DF83AB002900393274689
:10CC800045E0C5EB0A01701E0139C01B3B1BC8EB18
:10CC900001019842A8BF18464145A8BF4146FFF789
:10CCA000CBFF68BBC9F1EF0189B2B8B2F7F7AEFAB2
:10CCB000F7F7DAFA1A4BC10001F0FF01C208000AC7
:10CCC00000EA0303C1EB0B000190DDF808C00398F4
:10CCD00002F0FC02C2EB0C0EC3EB000C03EB6C0386
:10CCE000DDF804C0DB1001EB6C00C01040EAC32388
:10CCF00002EB6E00801043EA401080B2F7F788FA2A
:10CD000009F1010908F10108D145BADB0137B74241
:10CD100003DAA9464FF00008F6E705B0BDE8F08F4A
:10CD2000F8FF07002DE9F74F06468A4615461C46D0
:10CD3000BDF830B088462DE00AF10303984509D1CB
:10CD4000E71E414630462A463B46CDF800B0FFF785
:10CD50002FFEB846B146002718E0A81B0138611E17
:10CD6000C01BC8EB0101CAEB0803B842A8BF384694
:10CD70009942A8BF1946FFF75FFF20B948464146D0
:10CD80005A46FFF7FDFD09F101090137A945E4DB2A
:10CD900008F10108A045CFDBBDE8FE8F07B50346CB
:10CDA000009159689A680068DB68FFF7BBFF0EBD09
:10CDB0002DE9F74F01909DF830001F460D46924631
:10CDC000FFF7AAFB4FF61E039F4283461DD10024A6
:10CDD0001BF80480019F6FEA08085FFA88F80826AC
:10CDE00018F0800F04D0384661195246FFF7C8FD8D
:10CDF000013EF6B2013726B14FEA48085FFA88F8DB
:10CE0000EEE701340E2CE3D145E09A451FD1002412
:10CE10001BF80490DDF804806FEA09095FFA89F9CC
:10CE2000082619F0800F04D1404661193A46FFF7F1
:10CE3000A7FD013EF6B208F1010826B14FEA490903
:10CE40005FFA89F9EDE701340E2CE1D123E00024EB
:10CE50001BF80490019E6FEA09095FFA89F94FF007
:10CE6000080819F0800F08F1FF38304614BF524609
:10CE70003A4629465FFA88F8FFF782FD0136B8F195
:10CE8000000F04D04FEA49095FFA89F9E9E7013454
:10CE900001350E2CDCD10820BDE8FE8F2DE9F743CB
:10CEA0000A9F05460E4691469846AFB1387818B9A4
:10CEB00013E00A2B02D110362C4607E000932046DF
:10CEC00031464A464346FFF773FF241817F8013BE3
:10CED000002BEED1601B00E03846BDE8FE83DDE7A5
:10CEE0002DE9F043A5B015462CAA0E4652F8041BB6
:10CEF00007460DF1080823A899462292CDF88C80A8
:10CF0000FFF7B1F9314604462A4638464B46CDF87C
:10CF10000080FFF7E4FF204625B0BDE8F08337B579
:10CF2000124B05460C46009330211F2328204FF654
:10CF3000FF72FFF7D4FF20211F234FF6FF72282036
:10CF40000095FFF7CCFFA0B2FFF7A0FA10210090E8
:10CF50004FF6FF7228201F23FFF7C1FF4FF47A70AE
:10CF600003B0BDE83040FFF779BA00BF8F4902082F
:10CF700008B502480421FFF7D2FFFEE7A1490208E5
:10CF80000FB430B5A5B028AA52F8041B02AC23A8F0
:10CF900023942292FFF767F923941EE00A2B134C87
:10CFA00003D0656AB5F5C47F09DBA26A00230E329F
:10CFB000E02A6362A2620DDD0C4A93620AE00093EC
:10CFC0002846A16A4FF6FF724FF43043FFF7F0FE98
:10CFD00040196062239B01332393239B1B78002B12
:10CFE000DCD125B0BDE8304004B070474C310020A2
:10CFF0002DE9F74FC0EB020B5F1A1FFA8BFBBFB294
:10D000000FFA8BFA0FFA87F84FEADB3BFF0BBDF8FC
:10D010003090BAF1000FD4BFCBF1000BCBF1010B74
:10D02000B8F1000FD4BF7F42C7F10107BAF1000F7A
:10D03000B8BFCAF1000AB8F1000FB8BFC8F10008C4
:10D040004FEA4A0A4FEA480800921FFA8AFA1FFA82
:10D0500088F84A46019304460D460FFA8AF6FFF710
:10D060008FFC0FFA88F39E4220DB1FFA88F8A8EBAA
:10D070006606B6B216E016F4004F09D11EB94FFA93
:10D080008BF3002B04DD7BB2CAEB0606ED18B6B2BB
:10D090004FFA8BF3E4184644204629464A46B6B276
:10D0A000FFF76EFC009B9C42E5D11EE01FFA8AFA56
:10D0B000AAEB6306B6B215E016F4004F09D116B913
:10D0C0007BB2002B05DD4FFA8BF3C8EB0606E418A4
:10D0D000B6B27BB2ED185644204629464A46B6B24F
:10D0E000FFF74EFC019B9D42E6D1BDE8FE8F08B5DF
:10D0F00000210420F7F7AEF8C3439BB2C3F38020AE
:10D1000013F4006F1CBF40F0020080B213F0080F50
:10D1100018BF40F0040013F4004F18BF40F008009F
:10D1200013F4804F18BF40F0100013F4005F18BFD5
:10D1300040F0200013F4807F18BF40F0400013F44B
:10D14000007F18BF40F0800008BD07B50B2000210C
:10D15000F7F780F848B9084B303000931E211F22A2
:10D160004FF6FF73FFF79AFEFEE71420002103B08D
:10D170005DF804EBF7F76AB8C7490208034B0146AC
:10D1800083F82C002420F7F761B800BF4C31002051
:10D19000014B93F82C0070474C3100202DE9F14FE2
:10D1A00005460C460520002116469B469DF828A002
:10D1B000BDF82C90BDF83080BDF83470F7F746F814
:10D1C00009202946F7F742F80A202146F7F73EF8EA
:10D1D00000203146F7F73AF80B205946F7F736F8B2
:10D1E0000C205146F7F732F801204946F7F72EF8A0
:10D1F00007204146F7F72AF80820394601B0BDE874
:10D20000F04FF7F723B808B503200021F7F722F80D
:10D21000C0B208BDF7F70EB806200121F7F716B81F
:10D220002DE9F04106460C462220314615461F46A0
:10D23000F7F70CF821202146F7F708F8202047EAF5
:10D24000C501BDE8F041F7F701B8B0F5805F10B552
:10D2500003DD07486B21FFF762FE0024FFF7DAFFCA
:10D26000044B18510434B4F5804FF7D110BD00BF02
:10D27000E04902087C3100204FF480507047B0F53F
:10D28000805F10B5044603D303487921FFF747FEBA
:10D29000024800EB840010BDE04902087C31002008
:10D2A000034670B510200C4619461546F6F7CEFF1A
:10D2B00011202146F6F7CAFF12202946BDE870402A
:10D2C000F6F7C4BF094B10B51A68094C22F00102E9
:10D2D0001A60084A146043F2B0521A60064A11609C
:10D2E00090601A6842F001021A6010BD44040240C6
:10D2F000087400404C04024048040240034B0121E2
:10D30000A3F8480D03F554600830DBE734640020CF
:10D3100001460D20F6F79ABF004870477E71002045
:10D3200008B5034602730020012A587305D11A4636
:10D3300009480833F6F7AAFF06E0022A09D11A467F
:10D3400005480833F6F7A0FFD0F1010038BF0020F0
:10D3500008BD012008BD00BF7E71002008B503464E
:10D3600008461946F6F794FFD0F1010038BF0020B7
:10D3700008BD10B5044608462146F6F78BFF20B9D4
:10D38000637B01300133637310BD002010BD10B505
:10D39000037B0446022B10D1B1F1FF3F08BF417B54
:10D3A000224608BF4902074804F10803F6F774FF54
:10D3B00028B903232373013010BD012010BD0020C4
:10D3C00010BD00BF7E710020F0B502EBD2770024C3
:10D3D0007F1001EB420523460DE0BB42B4BF31F89C
:10D3E00013C035F802CC065F013306FB0CF6360C91
:10D3F0000653023D04349342EFDBF0BD0CF056BA05
:10D40000420803460DD00021B3FBF2F0801840081B
:10D41000121A0132022A04D9192902D00131024616
:10D42000F2E7704705E0054A118811F0800FFAD045
:10D43000938010F8013B002BF5D170470038014074
:10D440000F4B10489A6942F480429A610E4A40F2AA
:10D450007123138142F22C039381138823F4A46374
:10D4600023F005031B041B0C1380084B5A6822F49D
:10D470007F6242F40A625A604FF480621A61D1E717
:10D48000001002400A4A020800380140000801402A
:10D4900010B54FF4FA70FEF7E1FFFFF759FAFFF706
:10D4A00054FEBDE81040CBE704F096BF0E200021EB
:10D4B000F6F7D0BE0D200021F6F7CCBE0F200021DC
:10D4C000F6F7C8BE10200021F6F7C4BEF6F7B6BEC8
:10D4D000014B9868704700BF4C3100202DE9F043A4
:10D4E0003F3189B0234B804687B28CB2ADF1020246
:10D4F00013F8010C1978C0108910C00249014118B5
:10D500005878043301EBD00122F8021F1A498B42EC
:10D51000EED11A4E3D4616F8013B08AA1B0902EB54
:10D52000430328460135214633F8202CADB208F1DB
:10D53000FF09FFF725FA4D4502DD013CA4B23D4647
:10D5400016F8013C08AA03F00F0302EB4303284638
:10D550000135214633F8202CADB2FFF711FA4D45C5
:10D5600002DD013CA4B23D46054B9E42D3D109B039
:10D57000BDE8F08337D8030877D8030876D80308C6
:10D5800076F80308704700BF7047014B1868704772
:10D590008073002013B5FEF75BFF2A4B1A68B2F1C7
:10D5A000FF3F08BF18601B68C41AB4F57A7F0ED914
:10D5B0004FF47A72B4FBF2F402FB043321490B609E
:10D5C00003F0B0FD00F55850C36CE418C464FFF7D5
:10D5D0008EFD02AC24F8020D03F0A4FD00F56A50A4
:10D5E0002146303003F00AF903F09CFD00F56A5043
:10D5F0003030214603F00AF9BDF8063033B103F0AC
:10D6000091FD0221BDF8062007F039FEFFF7C0FDAD
:10D6100078B1FFF7F8FD60B1FFF72EFEFFF715FEBA
:10D6200003F080FD042146F2674207F028FEFFF771
:10D63000F3FD03F077FD0321002207F020FE012017
:10D640001CBD00BF043000200D4B10B5186004460F
:10D65000FFF71EFF03F066FD07F048FE03F062FDD2
:10D660000121002207F00BFE03F05CFD09F0BCFF76
:10D6700003F058FD09F0F2FFFFF7CEFD204610BD84
:10D680008073002008B5036849421B6849B2984777
:10D6900008BD0000014B1868704700BFAC5F02086E
:10D6A0007047012070474368826819688A181A60B9
:10D6B00070474368826819688A1A1A6070470820A0
:10D6C000704783681B78CB1805D4027B9342CCBF8C
:10D6D0000020012070470020704783681A780132CB
:10D6E0001A70704783681A78013A1A707047836815
:10D6F00019707047836818787047022070471820A7
:10D7000070470220704700207047002070470820B3
:10D7100070477047034B1B6818690028B8BF033077
:10D7200080107047A0AE002000207047192070477D
:10D73000034B1B6858690028B8BF0330801070473E
:10D74000A0AE0020002070471920704790F82800F4
:10D750007047002208B5036880F828200132027162
:10D760009B68984708BD0023037170470079704794
:10D77000436882681B68CB18934205DBC06883420C
:10D78000CCBF0020012070470020704743681A6812
:10D7900001321A60704743681A68013A1A6070478C
:10D7A000C36A70B500F12C050446DB6828460E46B6
:10D7B000984728B920463146BDE8704007F066BA60
:10D7C000E36A28465B68984770BD30B5028500253E
:10D7D0000122C56280F83020BDE8304007F0BAB9B8
:10D7E000F0B587B002AC043306460F4615460FCBA2
:10D7F00084E80F00059B30461A1D0B3303920593F6
:10D80000044945F002022346009707F0A3F907B048
:10D81000F0BD00BF605A0208F0B587B002AC043317
:10D8200006460F4615460FCB84E80F00059B304691
:10D830009A1C093303920593044945F002022346DA
:10D84000009707F087F907B0F0BD00BF6C5A0208D7
:10D850000285012207F07EB90148CE21FFF75FBBA8
:10D86000785A020808B50348CD21FFF758FB00207D
:10D8700008BD00BF785A02080148CC21FFF74FBB12
:10D88000785A02080148CB21FFF749BB785A0208B1
:10D890000148CA21FFF743BB785A020808B503487C
:10D8A000C821FFF73CFB022008BD00BF785A0208E0
:10D8B00008B503481C21FFF732FB002008BD00BF5C
:10D8C000925A020808B503481721FFF728FB0020E9
:10D8D00008BD00BF925A020801481321FFF71FBB81
:10D8E000925A020801480F21FFF719BB925A020809
:10D8F00001480B21FFF713BB925A020839B9042AD9
:10D9000005D146F26742934201D107F05FB97047F3
:10D9100039B9042A05D146F26742934201D107F092
:10D9200055B9704739B9042A05D146F26742934286
:10D9300001D107F04BB970472DE9F04186B00C9E3C
:10D9400088460021C162028580F8303005461127E3
:10D9500030465F4307F0B6F8FFB202AC50B1304634
:10D9600007F0B0F804300FC884E80F00059B0233BD
:10D97000039304E0331D0FCB84E80F00039BFF18D3
:10D9800028464146012202AB0597009607F0E2F8CF
:10D9900006B0BDE8F081FFF7CFBF00002DE9F041F0
:10D9A000DDF81880044615461F460E4621B9084882
:10D9B0004FF4E571FFF7B3FA204629463A460223B1
:10D9C0006663CDF81880BDE8F041FFF7B5BF00BF32
:10D9D000785A0208FFF7B0BF10B514244463BDE8BD
:10D9E0001040FFF7A9BF000073B5044616460D4668
:10D9F00019B907480C21FFF792FA65632046002108
:10DA000046F20C3202230096FFF796FF7CBD00BF62
:10DA1000AF5A020810B505244463BDE81040FFF773
:10DA20008BBF0000436B70B504460D461BB90B4815
:10DA30004221FFF774FA15F0100F08D06169636B8B
:10DA4000204646F66352BDE8704007F0C6B820464F
:10DA50002946BDE8704007F019B900BFDD5A020839
:10DA600011F0100F70B505460C4605D0416946F619
:10DA70006F52002307F0B1F828462146BDE87040F8
:10DA800007F004B911F0200F70B505460C4606D01A
:10DA9000406946F278520146002307F09EF8284676
:10DAA0002146BDE8704007F0F1B8000011F0010F09
:10DAB00070B504460D4615D0806A012103685B6885
:10DAC000984701280ED1A06A00210368DB689847B7
:10DAD000204607F07BF82046616947F27052002328
:10DAE00007F07BF815F0020F15D0A06A012103683A
:10DAF0001B68984701280ED1A06A002103689B6823
:10DB00009847204607F062F82046616947F2705254
:10DB1000002307F062F815F0100F0ED0A06A03681A
:10DB2000DB699847084B1B68984206D0204661691C
:10DB300046F66542A36A07F050F820462946BDE83C
:10DB40007040FFF79FBF00BFAC5F020811F0010FEC
:10DB500070B504460D4615D0406B012103685B6823
:10DB6000984701280ED1606B00210368DB68984755
:10DB7000204607F02BF82046616947F270520023D7
:10DB800007F02BF815F0020F15D0606B0121036828
:10DB90001B68984701280ED1606B002103689B68C1
:10DBA0009847204607F012F82046616947F2705204
:10DBB000002307F012F815F0100F0ED0606B036809
:10DBC000DB699847084B1B68984206D0204661697C
:10DBD00046F66542636B07F000F820462946BDE82B
:10DBE0007040FFF73DBF00BFAC5F020811F0010FAE
:10DBF00070B504460D4615D0406B012103685B6883
:10DC0000984701280ED1606B00210368DB689847B4
:10DC1000204606F0DBFF2046616946F675120023B8
:10DC200006F0DBFF15F0020F15D0606B01210368D1
:10DC30001B68984701280ED1606B002103689B6820
:10DC40009847204606F0C2FF2046616946F67512E5
:10DC5000002306F0C2FF20462946BDE8704007F0C9
:10DC600015B80000436B70B504460D461BB91A4841
:10DC70002A21FFF754F915F0100F08D06169636B82
:10DC8000204646F66352BDE8704006F0A6BF636BBF
:10DC90001A79043AD2B2012A17D815F0010F08D028
:10DCA000DA6812F1FE0F04DB013ADA60204606F072
:10DCB0008DFF15F0020F08D0636BDA68FE2A04DCD2
:10DCC0000132DA60204606F081FF20462946BDE891
:10DCD000704006F0DBBF00BFAF5A0208436B70B55F
:10DCE00004460D461BB91D482221FFF718F915F00F
:10DCF000100F08D06169636B204646F66352BDE899
:10DD0000704006F06ABF15F0010F0ED0636B1A79F0
:10DD10005AB1013A1A71204606F058FF204661694F
:10DD200046F67512636B06F058FF15F0020F0FD020
:10DD3000636B1A79092A0BD801321A71204606F052
:10DD400045FF2046616946F67512636B06F045FF94
:10DD500020462946BDE8704006F098BF085B0208DF
:10DD600011F0010F70B504460D460DD0436B012B29
:10DD70000ADD013B436306F029FF2046616946F650
:10DD80007512002306F029FF15F0020F0ED0636B09
:10DD9000182B0BDC01336363204606F017FF204687
:10DDA000616946F67512002306F017FF20462946E2
:10DDB000BDE87040FFF754BE13B503469C685B682E
:10DDC0002478088853F8243000934FF6FF73002A14
:10DDD00014BF1A46002249684FF61E03FFF75EF88B
:10DDE0001CBD00002DE9F341264D84682B68466870
:10DDF0009A8D254B2146009330460023FFF74EF8BD
:10DE00002B68224F93F82A30214657F82330801987
:10DE100000934FF6FF720023FFF740F82B6806F1DE
:10DE20006408B3F840201A4B214600934046002373
:10DE3000FFF734F82B68214693F83E30404457F8FA
:10DE400023304FF6FF7200930023FFF727F8114BA2
:10DE5000C83600932146002330464BF29652FFF716
:10DE60001DF82B68801993F878200B4B214653F846
:10DE700022304FF6FF7200930023FFF70FF8BDE842
:10DE8000FC8100BFA0AE0020C59B0208DC60020838
:10DE9000AB9C0208375B0208446102082DE9F3419C
:10DEA0000E88DFF85880083E4FF6FF75002A08BF3D
:10DEB0000025CDF80080B6B20C4607462A4630460B
:10DEC00049684FF61E03FEF76EFE7B683618B6B241
:10DED000009361682B4630464FF61E02FEF7DEFFC8
:10DEE00008F172033018009361682A464FF61E034A
:10DEF00080B2FEF758FEBDE8FC8100BF4852020820
:10DF000008B583681A78436853F8220014F07CF946
:10DF1000C3004FF6F87003EA000008BD7FB5436800
:10DF200004460D46164623B9114840F27A21FEF701
:10DF3000F6FF63681A68A36892FBF3F20A2392FB68
:10DF4000F3F103FB11220023ADF80C30303204ABA7
:10DF500003F8042D4FF6FF72009328686968002EBD
:10DF600008BF00224FF61E03FEF7B9FF7FBD00BFBA
:10DF7000785A0208F7B5044606F018FEA7884FF64F
:10DF8000FF75083F002808BF0025BFB20F4EA168EB
:10DF90002A4638464FF61E030096FEF704FE636AD3
:10DFA0003F18BFB20093A1682B4638464FF61E02B9
:10DFB000FEF774FF38187236A1682A464FF61E0322
:10DFC00080B20096FEF7EFFDFEBD00BF485202088A
:10DFD00070B50E4615461C4606F06CFD2A460146F5
:10DFE00023463046BDE8704006F0F7BD11F0010F42
:10DFF0002DE9F04104460D4616D0806A01210368E0
:10E000005B68984780B1A06A00210368DB68984785
:10E01000204606F04FFD06F0D9FD606947F27052C8
:10E020004169002306F0D9FD15F0020F16D0A06A51
:10E03000012103681B68984780B1A06A002103682A
:10E040009B689847204606F035FD06F0BFFD6069E5
:10E0500047F270524169002306F0BFFD15F00C0F26
:10E060000FD00C4E204629463768FFF70BFD33686A
:10E07000BB420CD0204606F01DFDBDE8F04106F085
:10E08000A5BD20462946BDE8F041FFF7FBBCBDE831
:10E09000F08100BFB4AE0020102970B505460C46D3
:10E0A00005D106F007FD036821465B6898472846BE
:10E0B0002146BDE8704006F0E9BD102910B50C46B8
:10E0C00006D106F0F7FC036821465B68984710BD4F
:10E0D000BDE8104006F0DABD2DE9F0471F4647F2D3
:10E0E00070539A4204460D4616463FD100F1400354
:10E0F00099423BD1C36A93F80480A8F104095FFAFE
:10E1000089F9B9F1010F8CBF4FF000094FF00109F7
:10E11000B9F1000F06D0A8F10503D3F1000848EBD0
:10E12000030801E04FF0010804F1B80A504606F078
:10E13000F6FD814506D04946504606F056FD4FF0A3
:10E14000010901E04FF0000904F17C0A504606F095
:10E15000E6FD804504D05046414606F046FD02E00B
:10E16000B9F1000F02D0204606F030FD20462946C6
:10E1700032463B46BDE8F047FFF72ABF08B5436883
:10E18000B3F9000006F072FB14F03EF8C3004FF63E
:10E19000F87003EA000008BD436873B54FF6FF76D8
:10E1A00005460C46002A08BF00261BB911489721D6
:10E1B000FEF7B5FE6B681868AB68984202DBEB6847
:10E1C000984209DD0C4B32460093206861684FF697
:10E1D0001E03FEF763FE0CE000B22568646806F0DB
:10E1E00045FB21460090324628464FF61E03FEF7B7
:10E1F00076FE7CBD3B5B0208565B02082DE9F341CD
:10E2000043680F88134E1C88083F0096BFB20D4626
:10E21000224649684FF61E033846FEF7C4FC3F18F5
:10E220002046D5F8048006F065FBBFB20090414659
:10E23000234638464FF61E02FEF751FE3818723656
:10E24000696822464FF61E0380B20096FEF7ABFCCB
:10E25000BDE8FC814852020811F0100F70B5044669
:10E2600017D006F029FC18B90A483D21FEF757FEE1
:10E27000204606F01FFC0546204606F01DFC03461E
:10E280005B6A2046294646F26452BDE8704006F0BB
:10E29000A4BC70BD585B020844F644418A4201D1D7
:10E2A00006F05EBE44F645418A4202D1012280F862
:10E2B0002820704710B5044606F052FE2046BDE8FF
:10E2C000104006F029BE10B5044606F049FE20466F
:10E2D000BDE8104006F020BE01604260704710B5F6
:10E2E0008360029B01604260C36010BD70B5DE2395
:10E2F00086B005460E46144600930C21162228339C
:10E3000002A8FFF7ECFF28460349224602AB00961D
:10E3100006F020FC06B070BD7B5B020870B5F023F0
:10E3200086B00E463C210446154600930A46283323
:10E3300002A8FFF7D4FF20462A4602AB10490096F8
:10E3400006F008FC04F1280002230E4948F21042AE
:10E350000094FFF720FB04F15C0002230A4948F215
:10E3600010420094FFF717FB04F19000074948F2B0
:10E37000104202230094FFF7DFFA06B070BD00BF21
:10E38000855B0208965B0208A05B0208A75B020897
:10E3900070B5DE2386B005460E4614460093002174
:10E3A0001622D33B02A8FFF79AFF2846044944F0FF
:10E3B000020202AB009606F0CDFB06B070BD00BFB6
:10E3C000B75B020870B5152386B005460E461446A5
:10E3D00000930C21102202A84FF49C73FFF77FFFDB
:10E3E0002846044944F0020202AB009606F0B2FB54
:10E3F00006B070BDCB5B020870B5F02386B0054651
:10E400000E461446009300211022A03302A8FFF705
:10E4100066FF2846044944F0120202AB009606F05B
:10E4200099FB06B070BD00BFDE5B020870B5F0233B
:10E4300086B005460E461446009300211022A033F4
:10E4400002A8FFF74CFF28460349224602AB00967C
:10E4500006F080FB06B070BDEE5B020870B5F023DD
:10E4600086B005460E461446009300211022A033C4
:10E4700002A8FFF734FF2846044944F0120202AB19
:10E48000009606F067FB06B070BD00BFF85B02089F
:10E4900070B5F02386B005460E4614460093002161
:10E4A0001022A03302A8FFF71AFF2846044944F0BF
:10E4B000020202AB009606F04DFB06B070BD00BF35
:10E4C000025C020882680368D0184010704738B5B3
:10E4D0008A680B68CD68D3184A680446AA18591090
:10E4E0005210FFF7F9FE204638BD10B504686118D8
:10E4F000016041688A1842608268D31A8360C268EA
:10E50000029BD31AC36010BD10B50468611A016084
:10E5100041688A1A42608268D3188360C268029B8D
:10E52000D318C36010BD82680368D01A704700001A
:10E53000F0B58BB006AC061D074696E80F0084E8E0
:10E540000F00012100220B462046009202ADFFF78A
:10E55000DBFF204648F21041FEF7F3FA94E80F0083
:10E5600085E80F00114B30461B68B3F87A40FFF77F
:10E57000DAFF039B04FB00F20133039304F5967466
:10E58000059B4443013B05937B68284603EB2434F9
:10E5900003EB2232089B04949C42C8BF04930021E1
:10E5A0000292FEF7CEFA0BB0F0BD00BFA0AE002085
:10E5B00073B5051D002104462846FEF7C2FA0E4B2E
:10E5C0001B68B3F88A60B3F87A30F61A36B2002EB8
:10E5D00010DB2846FFF7A7FF86420BDA6068074B7F
:10E5E000043800938019A16846F20C324FF61E03DE
:10E5F000FEF7D9FA7CBD00BFA0AE00202C53020864
:10E6000037B5051D002104462846FEF79AFA28462C
:10E61000FFF789FFA168A0F5807000EBD070401073
:10E620001831FEF75BFF534B702100930420002349
:10E6300048F21042FEF732FC4F4B70210093A020AD
:10E6400000234BF29652FEF729FC4C4B802148F2F6
:10E650001042009304200023FEF720FCFEF72AFF5F
:10E660008021002300904BF29652A020FEF716FC6A
:10E67000434B902148F21042009304200023FEF700
:10E680000DFCFEF71BFF9021002300904BF29652E9
:10E69000A020FEF703FC3B4B042048F21042A021CF
:10E6A00000930023FEF7FAFBFEF70CFF0090A0207A
:10E6B000002301464BF29652FEF7F0FB324BB0219D
:10E6C00048F21042009304200023FEF7E7FBFEF718
:10E6D000EDFEB02100234BF296520090A020FEF7F1
:10E6E000DDFBFEF7F5FE294B0446009304200023D2
:10E6F000C02148F21042FEF7D1FB254B254D9C422C
:10E7000006D0254B9C4201D064B114E0234B00E0BD
:10E71000234B0093A020C0214BF296520023FEF71A
:10E72000BDFB11E01F4BA0200093C0214BF296527D
:10E730002346FEF7B3FBA020C0214BF296520023E4
:10E7400000950194FEF7CCFB174BD021009348F2C3
:10E75000104200230420FEF7A1FBFEF7B7FED021F4
:10E7600001904BF29652A02000230095FEF7B8FBD3
:10E770003EBD00BF0C5C02081C5C0208315C020854
:10E78000435C0208535C0208615C02086E5C02088C
:10E7900027930402925C0208006167767E5C02089F
:10E7A000825C02088A5C0208975C0208C2684368BF
:10E7B000D01A70472DE9F0478AB003AE051D044614
:10E7C00095E80F0086E80F0001210B460A46304607
:10E7D0000091FFF799FE30464BF29651FEF71AF979
:10E7E00028460021FEF7ADF948F21043ADF81C3081
:10E7F0000023ADF81E30ADF82030ADF82230ADF872
:10E80000243019266068236907AA3018009205226F
:10E810000192043B421CA1681936FEF71BF9FA2E3F
:10E82000F0D1E13EA16807AB711800930523019375
:10E8300060684B1CE2681936FEF70CF9C82EF1D15E
:10E84000A36A002B38D02846FFF76DFE07462846FE
:10E85000FFF7ACFF23690025A0F13209A3F11908E5
:10E86000AA4627E0A28DA36A6A4392FBF7F233F827
:10E870001260B6F5805F03D311484921FEF74FFBC4
:10E880004B465E4344BF06F57E661F36626836130C
:10E89000B6B2002D08BFB246AA184FF6FF73009318
:10E8A000CAEB0801501EC6EB0803FEF7A1FB0135B9
:10E8B000ADB2B246BD42D5DB0AB0BDE8F08700BFBD
:10E8C000A65C020813B504460068E368009100F1F5
:10E8D0000C026168FEF726FA20684BF2965300930B
:10E8E00008306168A268E368FEF762F81CBD13B5E2
:10E8F00004460068009102386168A268E368FEF788
:10E9000011FA20686168A268E36806304FF6FF7468
:10E910000131013A013B0094FEF704FA1CBD07B532
:10E920000346002200680092596800F10802DB6883
:10E93000FEF73EF80EBD37B5044600680025616855
:10E9400000F10802E3680095FEF732F8A2686168FA
:10E95000101FE3680095FEF72BF83EBDC36A37B57C
:10E9600004460BB11B880385204606F01FF9231DC2
:10E9700018B11846FFF7DFFF02E01846FFF7CFFF98
:10E98000636820460433636006F010F90546218D64
:10E99000201D4DB1FFF7ABFF636A93B16068009330
:10E9A0000C30A168002208E0FFF78CFF636A43B1D6
:10E9B0006068A16800930C302A464FF61E03FEF7EC
:10E9C0006DFA6368043B63603EBD0000436B2DE954
:10E9D000F0431F795B79A7F10102574247EB020729
:10E9E00048F21048002F18BF4FF00008012B87B0E5
:10E9F000044607D002D3022B0ED108E0394B1B6826
:10EA00009B8D08E0374B1B68B3F8403003E0354B73
:10EA10001B68B3F89A3103872046FFF79FFF636BAB
:10EA2000D4F804909A79304BA56853F8223009F154
:10EA30000E0600933046294642464FF61E03FEF767
:10EA40002DFA002F4BD0636B284A99799F6852F8B2
:10EA5000214038460021103513F04CF968B1244BA1
:10EA600030460093424629464FF61E03FEF79BF8B8
:10EA700007F100428619174601E009F114063846ED
:10EA800012F026FB02460B4602A81A49FDF752FF78
:10EA900005E006AA02EB0903002203F8112C02AFDD
:10EAA000384613F0B1FB8146204613F0ADFB4844D5
:10EAB0000728EED83046294642464FF61E030097F7
:10EAC000FEF70DFA5CB123784BB1043630182946B5
:10EAD00044F208224FF61E030094FEF7DFF907B058
:10EAE000BDE8F083A0AE00207C620208AC620208A0
:10EAF0005B530208D25C02082DE9F041044686B05F
:10EB0000FFF72CFF6568A768636A103500932846F5
:10EB1000394600224FF61E03FEF7C0F9204607F1E2
:10EB2000100606F043F8002830D0DFF89480314614
:10EB3000002228464FF61E03CDF80080FEF733F87A
:10EB40004519606B1E3703685B6998473246431965
:10EB5000294602A80097FFF7C2FB002102A8FDF793
:10EB6000F0FF676B20463B681D6906F01FF802A99D
:10EB700002463846A84708F17203009304983146CC
:10EB800000224FF61E03FEF70EF815E0606B1E37ED
:10EB900003685B69984729464319324602A80097E3
:10EBA000FFF79DFB666B204633681D6905F0FEFF8D
:10EBB00002A902463046A84706B0BDE8F08100BF72
:10EBC000485202082DE9F041466A002586B0044605
:10EBD0004562FFF7C3FE6662231D02AE0FCB86E8D7
:10EBE0000F00304610212A462B460095FFF77DFC8A
:10EBF000636A2A46009303994FF61E030298FEF7B4
:10EC00004DF9039B20461033039305F0CFFF0246D6
:10EC100000282FD0029FDFF86C80083F03992A4616
:10EC200038464FF61E030297CDF80080FDF7BBFF74
:10EC3000C0190290606B03685B69984703990746A7
:10EC4000029801F10E033A180095FDF7B1FE606BD2
:10EC50003146036801221B699847029808F1720344
:10EC60003818009303992A464FF61E030290FDF7C9
:10EC70009AFF04E0606B314603681B69984706B051
:10EC8000BDE8F081485202087FB50646FFF766FEF0
:10EC90000D4B706B009312F03BFE0C4912F040FFDD
:10ECA0000B4912F081FD12F013FA7568B4681C3537
:10ECB0001034CDE902010022284621464FF61E03FA
:10ECC000FEF70EF97FBD00BFD65C020800002041B0
:10ECD0000AD7233C73B50546FFF740FE6B6B6C68A3
:10ECE000AE681B690E340022009331464FF61E03B6
:10ECF0002046FEF7D3F86B6B31461A79114B001999
:10ED000053F82230002200934FF61E03FEF7C6F898
:10ED10006B6B06F110011A79052A01D10A4A06E047
:10ED2000042A03D0094A00929B6802E0084A009234
:10ED3000DB680193204600224FF61E03FEF7D0F851
:10ED40007CBD00BF14630208DC5C02081C8802085A
:10ED5000E35C0208436BF7B51D79044648F21043A3
:10ED6000002D0CBF1D460025FFF7F8FD6768A6685B
:10ED70000C4B0E37009331462A4638464FF61E0399
:10ED8000FEF78CF8636B38461A79074B06F11001D1
:10ED900053F822302A4600934FF61E03FEF77EF802
:10EDA000FEBD00BFE75C0208E86202087FB50646C8
:10EDB000FFF7D4FD0D4B706B009312F0A9FD0C49C9
:10EDC00012F0AEFE0B4912F0EFFC12F081F97568FB
:10EDD000B4681C351034CDE90201002228462146D2
:10EDE0004FF61E03FEF77CF87FBD00BFD65C02081D
:10EDF000000020410AD7233C73B58268C3680E46E1
:10EE0000416804464FF4E045101F043104320433D6
:10EE10000095FDF787FFE3682068A268191F04309A
:10EE2000043204330095FDF77DFF2068616800F12E
:10EE30000C02E3680096FDF775FF2068A2684BF2AC
:10EE4000965508306168043AE3680095FDF7B0FD17
:10EE5000A2686168A2F10800E3680095FDF762FF0F
:10EE60007CBD73B58268C3680E46416804464FF4A2
:10EE7000E045101F0431043204330095FDF752FFC2
:10EE8000E3682068A268191F043004320433009537
:10EE9000FDF748FF20686168A268E3680096FDF707
:10EEA00041FF7CBD37B5044605F080FE0546218D47
:10EEB000201D45B1FFF7D5FF6068636A0C300093F1
:10EEC000A168002207E0FFF797FF6068636AA16806
:10EED00000930C302A464FF61E03FDF7DFFF3EBDC0
:10EEE00070B586B002AC02250E460FC884E80F004C
:10EEF00020460021FDF752FF2A462B462046294690
:10EF00000095FFF7F2FA20463146FDF747FF20460D
:10EF100029460E222B460095FFF7E7FA20464BF2D2
:10EF20009651FDF73BFF06B070BD73B50446051D55
:10EF3000218D2846FFF7D4FF2846FFF7C3FA656AFC
:10EF40000646284613F060F9A168C0B28000301A66
:10EF5000023100224FF61E030095FDF79FFF7CBD96
:10EF6000F0B58BB0054602AC061D96E80F0084E8AC
:10EF70000F00298D3046FFF7B3FF2046FFF7A2FAB6
:10EF80006E6A0746304613F03FF90399C0B280001D
:10EF900002310022381A4FF61E030096FDF77EFF5D
:10EFA000122104230A46009320460B46FFF79DFAE0
:10EFB000E86A13F029F92146064608A8FFF787FA00
:10EFC000089B06A82146F600A3EB6606FFF77FFA2A
:10EFD000EB6A079900933046073900224FF61E036B
:10EFE000FDF75CFF0BB0F0BDF0B587B0054602AC95
:10EFF000061D96E80F0084E80F00298D3046FFF7C4
:10F000006FFF2046FFF75EFA6E6A0746304613F040
:10F01000FBF80399C0B2800002310022381A4FF683
:10F020001E030096FDF73AFF1221042300932046A9
:10F030000A460B46FFF759FAEB6A029803990093C8
:10F040000430043100224FF61E03FDF727FF07B0FE
:10F05000F0BD4BF29651FDF774BD2DE9F041012151
:10F0600004460026FDF777FDD02514E0EB10DA0208
:10F070004FEAA50842EA4818204648EA0308FFF785
:10F0800052FA074602E04046FDF776FD013FFAD20C
:10F090000D3DEDB201362046FFF788FB8642E5DBE9
:10F0A000BDE8F041FDF77EBD10B5044605F07EFDDC
:10F0B000231D20B91846BDE81040FFF7CABF184607
:10F0C000BDE81040FFF7C9BF2DE9F04786B0044600
:10F0D00005F06CFD4FF6FF76002808BF002620469D
:10F0E000FFF7E2FF636A6068324600930430A1686C
:10F0F0004FF61E03FDF7D2FEA06A01210368656882
:10F100005B6898478146A06A0121036805F178078A
:10F110001B689847B9F1010F804606D1224B05F1D3
:10F1200070000093A168324609E0B9F1000F0AD1DE
:10F130001D4BA168009305F1700048F210424FF694
:10F140001E03FDF730FDD4F828A002AD231D0FCB20
:10F1500085E80F00DAF800302046D3F810900297C7
:10F16000049705F023FD294602465046C847A06A89
:10F1700003685B699847B8F1010F384404D10B4B21
:10F18000A1680093324607E0B8F1000F08D1074BA1
:10F19000A168009348F210424FF61E03FDF703FDED
:10F1A00006B0BDE8F08700BFB1530208235402083F
:10F1B00037B5054605F0FAFC4FF6FF74002808BF86
:10F1C00000242846FFF770FF6B6A686800930430DC
:10F1D000A96822464FF61E03FDF760FE3EBD13B53B
:10F1E0000446FFF761FF636A606800930430A1681A
:10F1F00000224FF61E03FDF751FE1CBDF0B587B08F
:10F20000044605F0D3FC4FF6FF75002808BF002523
:10F21000204605F0CBFC68B102AE231D0FCB86E87B
:10F220000F00A0F108030293049B304608330493B7
:10F23000FFF713FF204605F0B9FC48B1144B606896
:10F2400000930738A1682A464FF61E03FDF7ABFC72
:10F25000A76A20463B681E6905F0A8FC211D0246EE
:10F260003846B047A06A676803685B6998470646F6
:10F27000204605F09BFC48B1064B781C0093801992
:10F28000A1682A464FF61E03FDF78DFC07B0F0BDBE
:10F29000B153020823540208C162704773B5044693
:10F2A00016460D4619B90C480D21FDF738FE0B4BDB
:10F2B00000211B6820469B8D0A4623876563022335
:10F2C0000096FEF739FB204604F1380102B0BDE894
:10F2D0007040FFF7E1BF00BFDD5A0208A0AE00207A
:10F2E00073B5054616460C4619B90A480C21FDF7B8
:10F2F00016FE6C63284634F8062F00210223009680
:10F30000FEF71AFB2846214602B0BDE87040FFF721
:10F31000C3BF00BF085B020808B50379012B09D001
:10F3200002D3022B0FD10AE08368188800F01F0077
:10F33000400808BD83681888C0F3C31008BD8368FF
:10F340001888000B08BD03484FF48271FDF7E7FDF4
:10F35000002008BD3B5B020830B54FF6FF7585B055
:10F360000C46002A08BF0025FFF7D6FF05F0B2FAC9
:10F3700000238DF80D3003AB8DF80C00009320684E
:10F3800061682A464FF61E03FDF7A9FD05B030BDA2
:10F39000002908B50CDDFFF7BFFF0E288CBF002049
:10F3A000012008BDFFF7B8FF003818BF012008BDD5
:10F3B000F8DB002008BD00000379012B12D002D336
:10F3C000022B2CD11DE08268138823F01F031B043D
:10F3D0001B0C0F2902D04900C9B200E01F2141EAED
:10F3E00003031AE08268138823F4FC631B041B0CDC
:10F3F0000F2902D08900C9B200E03F2143EA41133E
:10F400000BE0826813885B055B0D0F2902D0490071
:10F41000C9B200E01F2143EAC123138070470248AC
:10F420004FF48E71FDF77BBD3B5B020810B50446BF
:10F43000FFF772FF30B1411EC9B22046BDE810404F
:10F44000FFF7BABF10BD10B50446FFF765FF0E28E1
:10F4500006D8411CC9B22046BDE81040FFF7ACBF3A
:10F4600010BDC8684042704710B5044605F064FC02
:10F47000014B2046236010BD604B0208014B036026
:10F48000704700BFA84B020810B50446FFF7F6FF0F
:10F49000014B2046236010BD804B020810B5044686
:10F4A000FFF7ECFF014B2046236010BD384E0208E9
:10F4B00010B5044605F040FC014B2046236010BD0A
:10F4C000F04B020810B50446FFF7F2FF014B20464F
:10F4D000236010BDD04B020810B50446FFF7E8FFCB
:10F4E000014B2046236010BD5850020838B50D4B23
:10F4F0001B68D3F8A440002C11DDD3F89C00013028
:10F5000012F006FA0146084812F00AFB05462046AA
:10F5100012F0FEF90146284612F002FB38BD002029
:10F5200038BD00BFA0AE002000BA5B4A37B5044624
:10F53000FFF714FA2046FFF7D9FF12F003FC12F090
:10F54000E7F908216568A46805F01AFA1C3510343B
:10F5500000902146284600224FF61E03FDF7BFFC0F
:10F560003EBD000038B5104B084610491C6812F02B
:10F5700023FA0546D4F8A40012F0CAF90146284639
:10F5800012F01AFA01460A4812F0CAFA12F0DAFB2F
:10F59000D4F89C3001380128B8BF0120C4F89C0081
:10F5A000C01A18BF012038BDA0AE00200000A04145
:10F5B0004054894C2DE9F04711F0010904460D46ED
:10F5C00003D111F0020F00F0CE802046FFF78EFF2E
:10F5D00000210646012712F0A1FB00B9002717F011
:10F5E000FF0F03D162482321FDF799FC30466149A2
:10F5F00012F08AFBE8B930465F4912F085FBD8B9B2
:10F6000030465E4912F080FBC0B930465C4912F0CA
:10F610007BFBA8B930465B4912F076FB90B93046C7
:10F62000594912F071FB78B93046584912F06CFB19
:10F6300060B94FF07E570AE0554F08E04D4F06E0A5
:10F640004D4F04E04D4F02E04D4F00E04D4FB9F1FA
:10F65000000F11D03046394612F06AFB28B130460F
:10F66000394612F09FF8804600E0B046404600213F
:10F6700012F04AFB10B903E0B04601E04FF07E58AB
:10F6800015F0020F10D04046424912F033FB20B172
:10F690004046394612F088F880464046002112F074
:10F6A00033FB08B14FF07E583946404612F038FA25
:10F6B00012F048FB12F02CF9394612F07DF94FF0A8
:10F6C0007E51074612F016FB08B14FF07E573846C0
:10F6D000314612F005FB002843D139462046FFF79A
:10F6E00041FF80462046FFF701FF314682463846FB
:10F6F00012F01EFB38B15046314612F005FB0028CF
:10F7000018BF4FF000083846314612F0F3FA20B126
:10F710005046314612F002FB10B9B8F1000F16D175
:10F720001D4BB9F1000F07D01B68D3F89C00B0F552
:10F73000803F0CDA013005E01B68D3F89C000128FB
:10F7400005DD0138C3F89C0080B2FDF7E1FD2046DD
:10F7500005F03CFA2046616946F67512002305F073
:10F760003CFA20462946BDE8F047FEF779B900BFCC
:10F77000F15C02080000C84200007A4400401C46C8
:10F780000050C347002474498096184B20BCBE4CDF
:10F79000000020418096984BA0AE002010B5044692
:10F7A00005F0CAFA024B204623600023A36210BD75
:10F7B000204A020810B5044605F0BEFA044B204664
:10F7C0002360012384F82830013BE36210BD00BFB1
:10F7D000904F020805F0FAB947F269418A4201D117
:10F7E000FFF7F8BF44F644418A4205D001318A420E
:10F7F00002D1012280F8282070470000074A0848FB
:10F800001168084B30B50468074DCB1805FB04336D
:10F810000131036058041160400C30BD44AE00203B
:10F8200008300020F390240021F17D0030B5254BF5
:10F8300089B0044605AD93E807000C3385E807005E
:10F8400093E8070094F8283002AD85E80700B3B1CB
:10F85000201D4FF6FF71FDF774F9606821691A4B9E
:10F860000830009314394FF61E030022FDF716FBF3
:10F87000002384F82830059BE362029B2363204623
:10F88000FFF7BCFF032290FBF2F202EB420208A951
:10F89000821A01EB82020346E16A52F80C0C9B00CB
:10F8A00040184010E06252F8181C226B89184FF67D
:10F8B000FC72491003EA0202216309B0BDE830403E
:10F8C000FDF75EB898540208215D020810B501707A
:10F8D0004270837010BD0000F8B5114B4FF4AF7744
:10F8E00007FB013700F144040E2615E07B5D202B59
:10F8F00002D0232B06D101E0012300E0002304F80D
:10F90000013B03E00748F521FDF709FB0135192DFF
:10F91000ECD11937013E01D00025E7E7F8BD00BF63
:10F92000B05402082E5D0208192303FB0213C0180D
:10F93000443070472DE9F0474FEA41180F242FE07B
:10F94000032B03D8DFE803F005090C0F00252E4632
:10F950000BE0C0F10F063D4607E02646054604E0F1
:10F960002546064601E005463E46134946EA05158A
:10F970004AEA400601EB8606D6F8C86346FA09FC57
:10F980001CF00F0C08BF4FF0020C01EB4C01B1F85A
:10F99000C8160130102822F81510D1D1013C09D326
:10F9A000C4F10F0704F0070948EAE70A4FEA89099A
:10F9B0000020C5E7BDE8F0874852020870B5ADF5F4
:10F9C000027D0C4606461546FFF7AEFF0178052975
:10F9D00003D1304602AA736B06E0042908BFB36B5B
:10F9E000304602AA18BF0023FFF7A4FF02A8691C33
:10F9F000621CAB1C00904FF4807001900901200143
:10FA000012011B01FDF726F80DF5027D70BD11F006
:10FA1000020F034606D0426B0132032A42630EDD19
:10FA2000002206E011F0010F07D0426B002A02DD30
:10FA3000013A5A6303E00322FBE705F027B9D96ACC
:10FA40001A6B1846FFF7BABF70B5064600240AE0E5
:10FA50002946304622460135FFF7B0FF192DF7D170
:10FA600001340E2C01D00025F2E770BD10B504461C
:10FA700005F076FA236C6FF00901594301F5967190
:10FA800020466429B8BF6421BDE8104005F078B96C
:10FA9000074A08481168084B30B50468074DCB1871
:10FAA00005FB04330131036058041160400C30BD84
:10FAB00048AE002014300020F390240021F17D0096
:10FAC00073B504462046FFF7E3FF1923B0FBF3F6B6
:10FAD00006FB13062046FFF7DBFF0E23B0FBF3F512
:10FAE00005FB1305314620462A46FFF71DFF037824
:10FAF000012BE7D101330370EAB2023B01A8F1B256
:10FB0000FFF7E4FE019B00201A0CDBB263F3070051
:10FB10009DF8053063F30F20D3B263F317407CBD2B
:10FB2000002310B5044643632046FFF7B1FF1923B5
:10FB3000B0FBF3F202FB13032046E362FFF7A8FFDA
:10FB40000E23B0FBF3F202FB1302E16A22632046AC
:10FB5000FFF7EAFE0378012BE6D10433037010BDF2
:10FB600030B5CC0124128460C46099244C43241223
:10FB70000461B32404FB02F54C4324128461CD24B8
:10FB8000426062431212C2613C224A43D2110262B5
:10FB900046224A43D21142623222016051432D1261
:10FBA000C9114561816230BDFF29A8BFFF2121EA4B
:10FBB000E1707047C9431E2300204000420001321B
:10FBC0009A40521801D501301146023B13F1020F41
:10FBD000F3D170472DE9F04F436885B004461546D0
:10FBE00002930026BDE0E268A168B21A5243791A76
:10FBF00001FB0121236A090491FBF3F1204691FBEB
:10FC0000F3F1FFF7D7FFFF2809DCC0F1FF0808EB8D
:10FC10008808B8F1FF0FA8BF4FF0FF0801E04FF0D0
:10FC2000000862692169B21A5243791A01FB012165
:10FC3000636A090491FBF3F191FBF3F12046FFF7AE
:10FC4000B9FF4043E26948BFFF30B21A5243A1698D
:10FC5000A36A791A01FB0121090491FBF3F191FBDD
:10FC6000F3F14FEA202A2046FFF7A4FFB5F902304E
:10FC7000BAF1FF0FA8BF4FF0FF0AB5F90410FF2833
:10FC8000D8BFC0F1FF0003FB0AF3C8BF0020414307
:10FC9000B5F90020B5F90AB002EB232303EB2121CB
:10FCA000B5F908300BFB00FB03FB0AF3B5F906209E
:10FCB00002EB232303EB2B2BB5F90E3003FB0AFADF
:10FCC000B5F90C3003EB2A2AB5F910305843B5F9D1
:10FCD00014300AEB202AFF2B05D0B5F9123003FBB4
:10FCE00008F84FEA28282046FFF75EFF5946844669
:10FCF0002046CDF804C0FFF757FF51468346204603
:10FD0000FFF752FFB9F80020DDF804C0D300D10896
:10FD1000D20A01F0FC0103F0FF03D200C3EB0C0A8E
:10FD2000801AC1EB0B0C08FB0AFA08FB0CFC08FB61
:10FD300000F802EB282801EB2C2C4FEAE8014FEAEF
:10FD4000AC0CC90241EA4C1103EB2A2341EAE3035C
:10FD500029F8023B0137039B49469F42FFF643AF18
:10FD60000136029B9E4204DA2368894603930027EA
:10FD7000F1E705B0BDE8F08F2DE9F04186B0064609
:10FD80000D4614460021142201A898460C9F12F03B
:10FD9000D9F84FF6C473ADF80830ADF80E30ADF8B1
:10FDA0001430BDF83430ADF80440ADF80A80C4F129
:10FDB000F004C8F1F008ADF810703046C7F1F00754
:10FDC000294601AAADF80640ADF80C80ADF81270D6
:10FDD000ADF81630FFF7FEFE06B0BDE8F08113B5B2
:10FDE000140C130A04F0FF040094D2B2E624DBB230
:10FDF0000194FFF7C1FF1CBD10B5044604F09CFF41
:10FE0000064B2046202140F8283B0A46FFF7A8FE73
:10FE1000012384F85438204610BD00BFE04F02088B
:10FE200004F0D4BE47F269418A4201D1FFF7F8BF1E
:10FE300044F644418A4205D001318A4202D101226E
:10FE400080F8542870470000074A08481168084B9A
:10FE500030B50468074DCB1805FB0433013103604E
:10FE600058041160400C30BD4CAE0020183000200A
:10FE7000F390240021F17D002DE9F04390F85438EF
:10FE800093B0044673B3051D0EAF0AAE0DF118080A
:10FE900095E80F0087E80F0086E80F0088E80F005C
:10FEA0002846FEF783FC4FF0030990FBF9F0119010
:10FEB0000B902846FEF77AFC400090FBF9F00D907D
:10FEC00007904FF6FF713846FCF73BFE30460021A5
:10FED000FCF737FE40464FF47841FCF732FE002332
:10FEE00084F854382046FFF7AFFF261D05463046FC
:10FEF000FEF719FBA76AC71BB5FBF7F307FB135700
:10FF000063682046FF18FFF79FFF05463046FEF75F
:10FF10004DFCE66A861BB5FBF6F306FB1356A36899
:10FF20002046F618FFF790FFE26AA36AB21805466A
:10FF3000FB1800923946324602A804F15406FEF737
:10FF4000CEF902A83146FCF7B7FD2A115523A910B6
:10FF500002F003025A4301F00301594305F003057F
:10FF60005D43120442EA012204F1280031462A438B
:10FF7000FFF735FF02A83146FCF7B8FD13B0BDE826
:10FF8000F083000010B5044604F0D6FE014B204675
:10FF9000236010BD0850020810B5054C236818698D
:10FFA000FCF7AAFA23685869BDE81040FCF7ABBA21
:10FFB000A0AE0020024B89001B681961FFF7ECBF5F
:10FFC000A0AE0020054B89001B6810B55961FFF7F2
:10FFD000E3FF6420BDE81040FCF74ABAA0AE002061
:10FFE0002DE9F04186B0044604F0E0FD4BF2965551
:10FFF00022694FF6FF73002818BF1D466168E36849
:020000040801F1
:10000000101F083B0C3A0090123102A8FEF767F966
:1000100002A844F20821FCF794FD02210A460B468F
:1000200002A80091FEF761FA02A8FEF77CFA2368A5
:1000300080461B6A2046984723680746DB6A2046AD
:100040009847236806469B6A20469847A8F11008FF
:1000500007FB08F7361A029B97FBF6F7FF18029783
:1000600002A8103729460497FCF76BFD06B0BDE8DF
:10007000F081036870B51B6A0E460446984716F077
:10008000010F05460DD0236820469B6A984785429C
:1000900007DD236820465B6A691E98472046FFF704
:1000A0009FFF16F0020F0DD023682046DB6A9847A9
:1000B000854207DA236820465B6A691C9847204618
:1000C000FFF78EFF20463146BDE87040FDF7C8BC03
:1000D00010B50446FEF742FC2046BDE81040FFF78D
:1000E0007FBF01604260704770470430704710B5B1
:1000F0000021044611F0FEFD08B104F10044204641
:1001000010BD70470430704701604260704710B501
:1001100001604260836010BD014B0360704700BF07
:100120008851020810B50446FFF7F6FF044B20463D
:100130002360002384F828302371636210BD00BF60
:100140006851020870B51E46002304461546037127
:10015000437111B1012905D101E0012300E002231F
:10016000836004E0054840F20111FCF7D8FE4FF02F
:10017000FF3323616561666270BD00BF495D02089F
:100180008368012B04D1064B80891B68D885704792
:10019000022B04D1024B80891B68A3F842007047F0
:1001A000A0AE0020C161026270470000032380F806
:1001B00028300148FCF7E4BE6F5D0208012380F897
:1001C00028307047022380F8283070472DE9F0412D
:1001D000C66B0746002E3FDD013EC663002E3BD1B5
:1001E0004FF0FF342546B0467B6B012B04D13046DF
:1001F000FDF745F8037800E000237A6B022A03D16B
:100200003046FDF73CF84378B5F1FF3F06D09D42FC
:10021000B8BF1D469C42A8BF1C4601E01C461D46B7
:100220000136B6F5805F9844DED1404611F070FB90
:100230004FF0665111F0C0FB0646281B11F068FB19
:100240004FF07A5111F0B8FB2C3702463146384650
:10025000BDE8F041FFF7A6BFBDE8F0812DE9F04110
:10026000044686B051B9042A08D146F26745AB422C
:1002700004D106B0BDE8F041FFF7A8BF04F5C67091
:10028000814228D146F66540824224D104F12C05F2
:1002900094F8551094F8562004F158032846FFF7B7
:1002A00051FF204604F07CFC2846FDF752FA204618
:1002B00004F032FE2846FDF749FA022805D0204610
:1002C00006B0BDE8F0410BF0A5B9204606B0BDE888
:1002D000F0410BF073B904F5AC70814240F09C80A2
:1002E00046F66540824240F09780204604F014FEB6
:1002F0004E4B94F856601D6894F85530012B11D17F
:100300004FF0300E0EFB065E0EF5E2770EF5457EE1
:10031000BEE80F000FC7BEE80F000FC79EE80F0032
:1003200087E80F00424B3027009394F85520414B4B
:10033000774353F82230DFF80881019394F8562070
:100340003D4BEE1953F8223024214FF6FF72002462
:1003500002931E200023FCF7C3FDD6F8C801CDF898
:1003600000800194B6F9C43103904042029311F029
:10037000CFFA4FF0685111F01FFB10F0A9FE4FF6B5
:10038000FF72CDE9040123463C211E20FCF7A8FDA5
:100390000123D6F8CC01CDF800800193B6F9C6311F
:1003A00003904042029311F0B3FA4FF0685111F0FC
:1003B00003FB10F08DFE4FF6FF72CDE904012346DA
:1003C0001E204C21FCF78CFDED1906F5E77605F5AE
:1003D000EC754FF05408194B55F8040F0194009335
:1003E00036F9023F0390029311F092FA4FF06851F0
:1003F00011F0E2FA10F06CFE08F11008CDE90401EA
:1004000000231E2041464FF6FF72FCF769FD0134C0
:10041000B8F1B40FDFD105E0204606B0BDE8F041E9
:10042000FDF7D6BD06B0BDE8F08100BFA0AE00204C
:10043000845D020824620208DC600208B05D0208E4
:100440009C5D020810B5044604F076FC014B204682
:10045000236010BD184B020810B50446FFF7F2FFE9
:10046000014B2046236010BD3050020810B50446F1
:10047000FFF704F8014B2046236010BD78500208B6
:1004800010B50446FFF714F8014B2046236010BD59
:10049000C050020870B50546FFF70AF8064B2C4617
:1004A00044F8283B05F1D80620462C34FFF7E8FF36
:1004B000B442F9D1284670BDA050020810B50446D8
:1004C000FEF7DCFF014B2046236010BDE050020820
:1004D00010B50446FEF7C8FF214B204640F82C3BE0
:1004E000FEF7FAFF04F15400FEF7F6FF04F17C007A
:1004F000FEF7F2FF04F1A400FEF7EEFF04F1CC00DA
:10050000FFF7B4FF04F1D800FFF7B0FF04F1E400F7
:10051000FFF7ACFF04F1F000FFF7A8FF04F1FC00C7
:10052000FFF7B8FF04F5EA70FFF7A0FF04F5F070DD
:10053000FFF79CFF04F5F670FFF798FF04F5FC70D9
:10054000FFF794FF04F50170FFF7A4FF04F537707F
:10055000FFF7B4FF04F53970FEF7B4FF204610BD75
:100560005080020810B50446FEF77EFF04F12C000F
:10057000FFF7D8FD164B04F1880023602033E362B7
:10058000FEF7AAFF04F1B000FEF7A6FF04F1D800C1
:10059000FEF77AFF04F1E800FEF794FF04F58A7095
:1005A000FEF772FF04F59270FEF78CFF04F5A87059
:1005B000FFF784FF04F5AC70FEF784FF04F5C2700A
:1005C000FFF77CFF04F5C670FEF77CFF204610BDE8
:1005D0000851020810B50446FEF76AFF014B204699
:1005E000236010BDA851020810B50446FEF73CFF79
:1005F0002D4B204640F86C3BFFF7ECFF04F19400D4
:10060000FFF7E8FF04F1BC00FFF7E4FF04F1E400AA
:10061000FEF762FF04F58670FEF75EFF04F59A7040
:10062000FEF75AFF04F5AE70FEF756FF04F5C270F0
:10063000FEF752FF04F5D670FEF74EFF04F5EA70A0
:10064000FEF722FF04F5F270FEF73CFF04F504709C
:10065000FEF71AFF04F50870FEF734FF04F5137077
:10066000FFF72CFF04F51570FEF72CFF04F5207042
:10067000FFF724FF04F52270FEF724FF04F52D7028
:10068000FFF7F4FE04F53070FFF7F0FE04F5337069
:10069000FFF7ECFE04F53670FFF7E8FE04F539705D
:1006A000FFF7F8FE204610BD407F020810B5044653
:1006B00004F042FB144B204640F8283BFFF7CCFEE9
:1006C00004F16000FFF7BEFE04F19400FFF7BAFEEC
:1006D00004F1C800FFF7B6FE04F1FC00FFF7B2FE1C
:1006E00004F59870FFF7AEFE04F5B270FFF7F0FE68
:1006F00004F58E600C30FFF735FF04F5C66004305A
:10070000FFF772FF204610BDA880020810B504460E
:1007100004F012FB054B20462360012384F830309F
:100720000023A362002384F8313010BDA07E0208AC
:1007300070B504460D46164604F0FEFA024BA5625B
:100740002360E662204670BD8096020870B50446BC
:100750000D46164604F0F0FA024BA5622360E662ED
:10076000204670BD5896020870B504460D461646E0
:1007700004F0E2FA034BED00F6002360A562E662A6
:10078000204670BD3096020810B520213222044662
:10079000FFF7CEFF014B2046236010BD484A0208F8
:1007A000202110B50A460446FFF7C2FF014B204640
:1007B000236010BD704A020810B5202107220446AC
:1007C000FFF7C4FF014B2046236010BD984A020882
:1007D00010B5202110220446FFF7C6FF014B20462A
:1007E000236010BDC04A020810B50446FBF730FE76
:1007F00040F22D1360602381204610BD038813B999
:1008000040F22D13038109880180704738B50446F2
:100810000D46FBF71DFE62682389821A9A4215D99C
:1008200023889BB12B80238940F22D129342606074
:1008300002D14FF4967307E0B3F5967F01D164239C
:1008400002E00A2B04D90A3B238138BD00232B8008
:1008500038BD000010B5044604F06EFA014B204686
:10086000236010BD1079020810B50446FFF7EAFDB9
:10087000014B2046236010BDE84A020810B504462B
:10088000FEF7F2FD114B204640F8303BFEF7FCFD31
:1008900004F14000FEF7F8FD04F15000FEF7F4FD0E
:1008A00004F16000FEF7F0FD04F17000FEF70AFEAF
:1008B00004F19C00FEF706FE04F1C800FEF702FEFC
:1008C00004F1F400FEF7FEFD204610BD404B020887
:1008D00070B5054604F030FA084B2C4644F8283B26
:1008E00005F5C87620463C34FFF7BEFFB442F9D187
:1008F0002046FFF7C3FF284670BD00BF40880208AE
:1009000010B50446FFF79EFD014B2046236010BD45
:10091000704C020810B50446FFF7F2FF014B204669
:10092000236010BD384C020810B50446FFF7E8FFFD
:10093000014B2046236010BDA84C020810B50446A8
:1009400004F0FAF9074B204640F8283BFFF7E2FF96
:1009500004F15C00FFF7E8FF04F19000FFF772FD7F
:10096000204610BD104C020810B50446FFF76AFD82
:10097000014B2046236010BDE04C020810B5044630
:1009800004F0DAF9154B204640F8283BFEF77CFDD1
:1009900004F13800FEF778FD04F14800FEF774FD1D
:1009A00004F15800FEF770FD04F16800FEF76CFDDD
:1009B00004F17800FFF7D8FF04F1B000FFF7D4FF8F
:1009C00004F1E800FFF7D0FF04F59070FFF7CCFFCB
:1009D00004F5AC70FFF7C8FF204610BDC88E0208B2
:1009E00010B50446FFF72EFD014B2046236010BDD5
:1009F000384D020810B50446FFF7F2FF034B2046BE
:100A000040F8383BFEF740FD204610BD084D020877
:100A100010B50446FFF716FD014B2046236010BDBC
:100A2000684D020810B50446FFF70CFD014B204647
:100A3000236010BD904D020810B5044604F07CF907
:100A4000074B204640F8283BFFF7D4FF04F1700025
:100A5000FFF7DEFF04F1A400FFF7E4FF204610BD1E
:100A600098A1020870B5054604F066F9064B2C46BD
:100A700044F8283B05F5967620463434FFF7E2FC2F
:100A8000B442F9D1284670BD50A2020870B505469F
:100A900004F052F9064B2C4644F8283B05F59676AF
:100AA00020463434FFF7CEFCB442F9D1284670BD5D
:100AB000F0A1020810B50446FFF7C4FC014B204624
:100AC000236010BDB84D020810B50446FFF7BAFC0C
:100AD000014B2046236010BDE84D020810B50446C6
:100AE000FEF7C2FC0D4B204640F8303BFEF7CCFC35
:100AF00004F14000FEF7E6FC04F16C00FEF7CEFCCA
:100B000004F17C00FEF7DEFC04F1A800FEF7C6FC51
:100B100004F1B800FEF7D6FC204610BD184E0208BE
:100B200010B50446FEF7AAFC014B2046236010BD19
:100B3000804E020810B50446FEF7A0FC014B20468B
:100B4000236010BDA84E020810B50446FEF78CFCC9
:100B5000154B204640F8303BFFF7E2FF04F1380028
:100B6000FFF7E8FF04F14400FFF7E4FF04F1500051
:100B7000FFF7E0FF04F15C00FEF7A4FC04F188003D
:100B8000FEF7A0FC04F1B400FEF79CFC04F1E000C9
:100B9000FEF798FC04F58670FEF776FC04F58E707F
:100BA000FEF790FC204610BD604E020810B50446CA
:100BB00004F0C2F80D4B204640F8283BFFF77AFFBF
:100BC00004F16000FFF776FF04F19800FFF772FF71
:100BD00004F1D000FFF778FF04F58470FFF77EFF83
:100BE00004F5F670FFF7B0FF204610BD708E0208C6
:100BF00010B5044604F0A0F8014B2046236010BD58
:100C0000D04E020810B5044604F096F8014B204679
:100C1000236010BDF84E020810B5044604F08CF8AD
:100C2000014B2046236010BD204F020810B504463A
:100C300004F082F8014B2046236010BD684F020883
:100C400010B5044604F078F8014B2046236010BD2F
:100C50007098020810B5044604F06EF8014B204667
:100C6000236010BDC851020810B5044604F064F8B2
:100C7000114B204640F8283BFFF7ECFF04F15400ED
:100C8000FFF7E8FF04F18000FFF7E4FF04F1AC0098
:100C9000FFF7E0FF04F1D800FFF7DCFF04F58270F6
:100CA000FFF7D8FF04F59870FFF7D4FF04F5AE7096
:100CB000FFF7D0FF204610BDB879020810B50446F2
:100CC00004F03AF8014B2046236010BDF0510208B1
:100CD00010B5044604F030F8014B2046236010BDE7
:100CE0003052020810B5044604F026F8054B2046A1
:100CF00040F8383BFFF7ECFF04F16000FFF7E8FF36
:100D0000204610BD10520208F8B5046805460E468C
:100D10001046214610F046FD0746B6F90200B6F926
:100D20000060801B10F0F4FD0146384610F044FED0
:100D300021460746686810F035FD0146384610F038
:100D4000EFFE0446304610F0E3FD0146204610F069
:100D50002BFD10F0F7FFF8BD0A4600F10801FFF780
:100D6000D3BF00000A4B10B5406B1C6810F0D0FDDB
:100D7000084910F0D5FE04F58C6404340146204681
:100D8000FFF7EAFF80B2BDE81040FCF7B7BA00BF3A
:100D9000A0AE00200000204111F0010F70B5044604
:100DA0000D4609D0436B032B06DD013B436303F083
:100DB0000DFF2046FFF7D6FF15F0020F0AD0636B38
:100DC000182B07DC01332046636303F0FFFE204647
:100DD000FFF7C8FF20462946BDE87040FCF740BE3B
:100DE000084A03461068996900F58C6010B5043014
:100DF000FFF7B2FF044B012118801846BDE81040F0
:100E0000FCF760BAA0AE002050AE002070B50523FC
:100E1000002408E0E5186D1030F91560B242B8BF43
:100E20002B46A8BF2C461D1B012DF3DC30F91450B6
:100E300051F8244051F82310521B091B4A4330F942
:100E40001300451B92FBF5F0001970BDB0F900309E
:100E500010B50C684968D21A091B4A43B0F9020060
:100E6000C31A92FBF3F0001910BD00002DE9F843FE
:100E70008F7930257D43B1F90A90064605F11801B6
:100E80004019144671184A460C30FFF7BFFF8046E0
:100E900060607019011D4A46FFF7D8FF044BA0603F
:100EA00053F8273090FBF8F0E0602360BDE8F8834A
:100EB000404F02082DE9F0412E4D86B00446002136
:100EC0000430FBF73EFE2B68C827B3F88830216951
:100ED0007B430539284EA1EB132160684FF61E03B2
:100EE00046F20C320096FBF75EFE296891F83C3022
:100EF000DBB101F5457002AA3831FFF7B7FFD5F82D
:100F0000008002A908F54570FEF7ABFA80B24743AE
:100F10002169B8F84020053965366068A1EB1721D2
:100F20004FF61E030096FBF73EFE296891F8283025
:100F3000EBB101F5E27002AA2431FFF797FF0D4BE8
:100F400002A91D6805F5E270FEF78BFAC82100B210
:100F5000484321690539A1EB2021E82907D8074B2F
:100F6000AA8D606800934FF61E03FBF71CFE06B0C7
:100F7000BDE8F081A0AE002030590208FA590208FD
:100F8000002301608380C2807047000010B50446D2
:100F900003F0D2FE064B04F50E702360002384F8A4
:100FA000283004F5D1713222FFF7EAFF204610BD48
:100FB000B84F020838B5044603F0BEFE504B204639
:100FC00040F8283BFFF746FC04F1540001F092FC86
:100FD00004F53970FEF7E2FB04F54570FFF7D4FB2A
:100FE00004F55170FFF7DCFB04F55D70FFF7E4FBDF
:100FF00004F56970FFF7ECFB04F5767006F048FB2A
:1010000004F52E6008300BF0E1FA04F5606008305A
:10101000FFF75EFC04F584503830FFF78FFC04F5D1
:101020008A503C30FFF7AAFC04F598500C30FFF7CB
:1010300003FD04F59E502830FFF714FD04F5A85079
:101040001430FFF723FD04F5B250FFF7AFFD04F5B0
:10105000CA503430FFF7CCFD04F5CC5004F5CE5522
:101060001C30FFF7CFFD281DFFF7D6FD05F12C0042
:10107000FFF7DCFD04F5D0501430FEF79BFB04F5C0
:10108000D2500830FFF782FF04F5E4500830FEF735
:10109000B3FE04F512506030FEF774FF04F51450EF
:1010A0000830FFF703FB04F53C506830FFF72EFBD8
:1010B00004F53E501C3009F015FE04F5485504F5C2
:1010C00045500EF09DFF281DFFF7BAFD05F12C00DD
:1010D00004F54E55FFF7C8FD05F13400FFF7EEFDAE
:1010E00005F16400FFF7FEFD04F550506C300BF085
:1010F000A2FF04F5525020300DF043F8204638BDD1
:10110000E067020810B50446FFF754FF04F5595094
:1011100002F08EFB04F56A503030FFF765FB204685
:1011200010BD000010B5064C236813F0010F04D168
:101130000448FFF7E7FF01232360024810BD00BF0A
:10114000847300208873002010B50C46FBF780F9EB
:101150000419FCF71AFAFCF71DFAFBF779F9A0421B
:10116000F7D310BD00238380704730B590F8283046
:1011700087B00446002B5ED00021FEF7ADFB204671
:10118000FEF7CEFC2046FEF79BFC8DF80000C0F376
:101190000723C0F307408DF802008DF80130009B53
:1011A0002046ADF814301B0C8DF81630FEF788FC85
:1011B0008DF80000C0F30723C0F307408DF802004C
:1011C0008DF80130009B2046ADF810301B0C8DF8D7
:1011D0001230FEF775FC8DF80000C0F30723C0F352
:1011E00007408DF802008DF80130009B2046ADF8D5
:1011F0000C301B0C8DF80E30FEF762FC8DF80000F1
:10120000C0F30723C0F307408DF802008DF80130CA
:10121000009B0025ADF808301B0C8DF80A30032325
:10122000E36304F50E702564FFF79CFF2046FEF78C
:101230001DFC84F82850204607B0BDE83040FEF77A
:1012400003BC80887047000073B501918288C38811
:1012500004469A4203D309488321FBF760FE02AAA1
:10126000A38832F8046D206803EB43019278451897
:1012700001334652AA70A3807CBD00BFC45D020842
:1012800038B50C1E054602DA8388E41804D42846D3
:10129000FFF7D7FF844203DB0448A821FBF73FFE9A
:1012A000286804EB4404001938BD00BFC45D02087F
:1012B000818070478088704738B50C1E054602DA79
:1012C0008388E41804D42846FFF7F4FF844203DB44
:1012D0000348A821FBF723FE286800EBC40038BDB3
:1012E000C45D02082DE9F74F0D4601929846044669
:1012F000FFF7E0FF01462846FFF7DAFF00264EE041
:10130000012E01DD711E00E000212046FFF7D4FF11
:10131000FEF7EBFE3146D0F800B02046FFF7CCFFD9
:10132000FEF7E3FED0F800A02046FFF7C3FF013828
:10133000864201DA711C00E031462046FFF7BCFF0F
:10134000FEF7D3FE3146D0F800902846FFF7B4FFF1
:10135000314607462046FFF7AFFF03C887E8030082
:1013600031462846FFF7A8FFFEF7BFFE0199074662
:10137000584610F021FB41468346504610F01CFBB6
:101380000146584610F010FA0C998246484610F073
:1013900013FB0146504610F007FA0136386020462C
:1013A000FFF788FF8642ABDBBDE8FE8F2DE9F843EF
:1013B00005468846FFF77EFF0024461E11E03719D8
:1013C0007F1039462846FFF777FFFEF78DFE03466C
:1013D0001968404610F0ACFC002808BF3E4618BF14
:1013E0003C46331B012BEADC21462846FFF764FF0D
:1013F000FEF77BFE214607682846FFF75DFFFEF7F4
:1014000073FE03461968404610F0CCF93146804619
:101410002846FFF751FFFEF767FE2146D0F80090FF
:101420002846FFF749FFFEF75FFE03461968484666
:1014300010F0B8F90146404610F072FB3146804684
:101440002846FFF739FFFEF750FE2146066828467A
:10145000FFF732FFFEF749FE03461968304610F0E9
:10146000A1F90146404610F0A7FA0146384610F0AF
:101470009BF9BDE8F88300007FB502AB83E8060066
:10148000002620E0002E02DD1248FBF779FD3146F0
:1014900002A8FFF711FFFEF727FE00680FF018FE05
:1014A00004460D4602A83146FFF706FFFEF71DFE73
:1014B00000680FF00DFE2246CDE900012B460648DC
:1014C000FBF75EFD013602A8FFF7F4FE8642D9DB8A
:1014D0007FBD00BF20A10208E25D0208016000217B
:1014E0008180C2807047016000218180C280704786
:1014F00013B56B4683E806008288C38804469A4287
:1015000003D307488321FBF70AFDA38822686946B5
:1015100002EBC302013303C982E80300A3801CBDB0
:10152000C45D02088088704730B585B0044601A8C4
:1015300080E80E00A288E3889A4203D308488321FA
:10154000FBF7EDFCA58823680C2202FB053301AAFA
:10155000013507CA83E80700A58005B030BD00BF8C
:10156000C45D0208016000218180C28070478088CC
:101570007047000038B50C1E054602DA8388E4186F
:1015800004D42846FFF7F3FF844203DB0448A82174
:10159000FBF7C5FC2B680C2000FB043038BD00BFF6
:1015A000C45D02088388C288CB189BB29A428380AC
:1015B00003D202489721FBF7B2BC7047C45D020812
:1015C00070B50C460546FFF73CFE844203DB0F482E
:1015D000AE21FBF7A4FC04EB440608E02B680134C1
:1015E0009B191A8823F8032C9A7803F8012C2846B3
:1015F000FFF727FE013803368442EFDB28464FF021
:10160000FF31BDE87040FFF7CDBF00BFC45D0208E9
:101610002DE9F04387B0044603F04EFA844240F0CF
:10162000B980E16A226BFEF77FF903230370E16A58
:101630002046226B04F50E75FEF7C0F92846FFF729
:1016400000FE60B994F82C1005A894F8302094F8A6
:101650003430FEF73BF928460599FFF7F5FD676B37
:101660004E4B204613F90790E36A99444C4BC4F85B
:101670002C9013F90780236B494698444246C4F8DE
:101680003080FEF751F9FBB206465FFA89F15FFA46
:1016900088F204A8FEF71AF928460499FFF7D4FD4A
:1016A0003378022B24D1E36B302B01DC0133E3636D
:1016B0002046FEF705FA8DF80000C0F30723C0F3BB
:1016C00007408DF801308DF80200009920468AB25B
:1016D0000B0CADF80C10120AC9B28DF80E30FEF7E3
:1016E0006DF90520FAF7C4FE2046FEF7BFF90DE0BC
:1016F000042B0BD0012B09D0C820FAF7B9FE2046E5
:1017000003F02EFC012384F8283043E0E16A226BC9
:101710002046FEF709F905230370E16A2046226B93
:10172000FEF74CF92846FFF78CFDE36B984214DD79
:1017300000212846FFF7A4FD06463178727820463E
:10174000FEF7F2F801230370317820467278FEF735
:1017500035F928460021FFF733FF2846FFF771FDD2
:10176000E36B834216DC00212846FFF789FD012147
:1017700006462846FFF784FD83782046A363317828
:101780007278FEF7D1F8042303703178204672781E
:10179000FEF714F907B0BDE8F08300BF1030002059
:1017A0000C3000208388C288CB189BB29A42838079
:1017B00003D202489721FBF7B2BB7047C45D020811
:1017C000F8B50C4605461746FFF774FD84420646F9
:1017D00003DB0E48B721FBF7A2FB28460121FFF7E8
:1017E000E1FF3346F60005E0891901F1080203C95B
:1017F00082E80300013B083EA3422968F4DA01EBCA
:10180000C40497E8030084E80300F8BDC45D02083F
:101810002DE9F04704460D46084602211646FFF71B
:1018200047FD00212846FFF747FD002107462046D7
:10183000FFF742FD03C887E8030001212846FFF7B0
:101840003BFD07462046FFF735FD411E2046FFF7CA
:1018500033FD03C887E8030068E041462046FFF7F0
:101860002BFDFEF742FC4146D0F800902046FFF7E2
:1018700023FDFEF739FC034619682846FFF796FD5D
:10188000014648460FF08EFFFEF731FC394681468F
:101890002046FFF711FDFEF728FC3946D0F800A0DE
:1018A0002046FFF709FDFEF71FFC0346196828468E
:1018B000FFF77CFD014650460FF074FFFEF717FC62
:1018C0000146484610F034FA002818BF474608F190
:1018D00001082046FFF7EEFC8045BEDB4FF0000814
:1018E0001FE041462846FFF7E7FCFEF7FDFB3946BF
:1018F000D0F800902046FFF7DFFCFEF7F5FB03462B
:101900001968484610F014FA48B139462046FFF7E6
:10191000D3FC414602462846FFF752FF06E008F195
:1019200001082846FFF7C6FC8045DADB2846FFF7AA
:10193000C1FCB04203DA4FF001080027C9E7BDE857
:10194000F087000038B50C1E054602DA8388E418DB
:1019500004D42846FFF7E6FD844203DB0348A821B0
:10196000FBF7DDFA286800EBC40038BDC45D02084F
:101970002DE9F04F804685B008460391FFF7D2FD70
:1019800000240346002702942646A146254637E058
:10199000394603980193FFF7D5FFFEF7B3FB3946AD
:1019A000D0F800B00398FFF7CDFFFEF7AAFB594629
:1019B000D0F800A028460FF0F7FE594605465846D5
:1019C0000FF0FAFF014648460FF0EEFE5146814601
:1019D00030460FF0E9FE5146064650460FF0ECFF48
:1019E000014602980FF0E0FE5146029058460FF073
:1019F000E3FF014620460FF0D7FE019B0446013766
:101A00009F42C5DB18460FF083FF494682460FF020
:101A1000D3FF2946074628460FF0CEFF0146384639
:101A20000FF0C0FE2146074650460FF0C5FF314675
:101A3000834628460FF0C0FF014658460FF0B2FE1D
:101A40003946834610F06CF84946C8F80000304625
:101A50000FF0B2FF2946814620460FF0ADFF014648
:101A600048460FF09FFE394610F05AF85946C8F81C
:101A7000040058460FF0A0FF0299044650460FF0AC
:101A80009BFF3146054630460FF096FF014628463B
:101A90000FF088FE014638460FF08EFF01462046C3
:101AA00010F03EF8C8F80800404605B0BDE8F08FD9
:101AB0002DE9F04F4269A24B0446ADF5026D53F893
:101AC000222083B09F48A168FBF75AFAA368012B34
