:020000040800F2
:10C000000000012071270108A5250108A7250108C6
:10C01000A9250108AB250108AD2501080000000095
:10C02000000000000000000000000000B125010831
:10C03000AF25010800000000B3250108B52501085F
:10C04000B7250108B9250108BB250108BD25010850
:10C05000BF250108C1250108C3250108C525010820
:10C06000C7250108C9250108CB250108CD250108F0
:10C07000CF250108D1250108D3250108D5250108C0
:10C08000D7250108D9250108DB250108DD25010890
:10C09000E1250108E5250108E7250108E925010852
:10C0A000EB250108ED250108EF250108F125010820
:10C0B000F3250108F5250108E9260108EB2601080A
:10C0C000ED260108EF260108F1260108F3260108F4
:10C0D000F5260108F72601080527010807270108AA
:10C0E000092701080B2701080D2701080F27010860
:10C0F0001127010813270108152701081727010830
:10C10000192701081B2701081D2701081F270108FF
:10C1100021270108232701082527010827270108CF
:10C12000292701082B2701082D2701082F2701089F
:10C1300020B10368197003680133036070472DE96B
:10C14000F041161E04460D4614DD002200E00132C7
:10C15000A95C0029FBD1B24203F00208B4BFC2EBD4
:10C1600006060E46B8F1000F0CBF4FF020084FF046
:10C17000300801E04FF0200813F0010709D105E075
:10C1800020464146FFF7D4FF0137013E002EF7DC81
:10C1900005E0002703E02046FFF7CAFF013715F846
:10C1A000011B0029F7D105E020464146FFF7C0FFFB
:10C1B0000137013E002EF7DC3846BDE8F0812DE95D
:10C1C000FF410A9F05460B9EDDF830C08E4651B9EF
:10C1D00030238DF804308DF805103A4601A9334616
:10C1E000FFF7ADFF3CE03BB10A2A07D1002905DA91
:10C1F000C1F1000E012402E01C4600E0002404A965
:10C20000002301F8013D0EE0BEFBF2F302FB13EE4A
:10C21000BEF1090FC4BFACF13A0086440EF1300EF6
:10C2200001F801ED9E468846BEF1000FECD184B1C5
:10C230004FB116F0020F06D028462D21FFF778FFE8
:10C24000013F012405E02D2301F1FF3801F8013CF5
:10C250000024284641463A463346FFF770FF00194E
:10C2600004B0BDE8F0812DE9F0478AB006460D46DE
:10C2700005920024DBE0252B40F0D38015F8013F28
:10C28000002B00F0D880252B00F0CB802D2B02D185
:10C2900001352C3B03E0002301E043F00203294673
:10C2A00015F8012B302AF8D0002702E00A2202FB01
:10C2B00007070A780D46A2F130005FFA80FC0131D1
:10C2C000BCF1090FF2D9732A09D1059A3046111D24
:10C2D000059111685C4A002908BF11469DE0642A57
:10C2E0000ED1059A01936123111D029300970591C8
:10C2F00030461168603B0A22FFF761FF241895E081
:10C30000662A54D1059B073323F0070303F1080283
:10C31000D3E90001059216F097FD0021804617F041
:10C320008FF838B12D238DF8183008F100480DF141
:10C33000190A01E00DF1180A404617F0A9F8012387
:10C3400000E013460A225A439042FADA90FBF3F2D5
:10C3500002F1300103FB12000A2293FBF2F30AF808
:10C36000011B002BF2D124328AF80020002F08BFD5
:10C3700003279946404617F08BF816F06FFE0146EA
:10C38000404616F0B5FD314916F0BCFE804617F068
:10C390007FF809F101093030B9450AF8010FE9DBEE
:10C3A00000228AF80120304606A9202336E0782AA8
:10C3B0000AD1059A01936123111D009702930591FB
:10C3C00030461168102219E0582A0BD1059A0193C2
:10C3D0004123111D02930097059130461168413B9E
:10C3E000102289E7752A0BD1059A01936123111D4B
:10C3F000009702930591304611680A22613B7BE762
:10C40000632A13D1059A3046111D126805918DF8E3
:10C41000242000228DF8252009A93A46FFF78FFE37
:10C420006CE730462978FFF783FE013401352B781D
:10C43000002B7FF420AF16B1336800221A7020461B
:10C440000AB0BDE8F08700BFB869020800002041CB
:10C45000014B1868704700BFA8A30020034B188049
:10C460001A8892B2002AFBD1704700BFB4A3002003
:10C47000044B10B5196804460320F7F7E7FE024B9A
:10C480001C8010BD00300020B6A3002030B5002372
:10C4900008E00A24B0FBF4F104FB11003030D05462
:10C4A000013388B2084A0028F3D1D0545910013B17
:10C4B000D31804E0145C5D7815545C700130013BC6
:10C4C0008842F7DB004830BD3C32002008B506202A
:10C4D0000021F7F7BFFE5A234343A3F58223A3F5B8
:10C4E0006B6340F2145093FBF0F00A306428A8BF4D
:10C4F000642020EAE07008BD0128ACBF014601219C
:10C500000220F7F7A3BE00EBD070024B401018607A
:10C51000704700BF00300020052810B507D8044B35
:10C5200053F8200018B1046805F0EEFFA04710BDD5
:10C53000E05A0208C0B2F7F789BE47F26623984274
:10C5400001D1F7F777BEC0B2F7F784BE024B0E22D7
:10C5500002FB0030704700BFF85A0208034B1880F6
:10C560001A8892B2002AFBD1704700BFB4A3002002
:10C57000044A4FF4805313604FF0C0421080024AC7
:10C5800013607047141401401014014010B5EF20DF
:10C59000FFF7EEFF4FF0C0431A881C8818881A88EE
:10C5A0001988C3B2C9B241EA046141EA03431206E1
:10C5B00043EA1242014B9A6010BD00BF3C3200209A
:10C5C000054B4FF480521A604FF0C0431880034867
:10C5D00002601980704700BF14140140101401401C
:10C5E0002DE9F041E9204FF0C044FFF7C1FF2022C0
:10C5F00022801120FFF7BCFF6420FFF7AFFFD1209E
:10C60000FFF7B6FF002517225E232580D020238068
:10C610002280FFF7ADFF0C260723238036202380DE
:10C620004FF040082680FFF7A3FF3046A4F80080B3
:10C630004936FFF79DFF26803A20FFF799FF2680B5
:10C64000C120FFF795FF533E10232380C020238095
:10C6500026802680FFF78CFF012735232580C52003
:10C6600023802580258027802680FFF781FF278073
:10C67000D220FFF77DFF22232780C8202380FFF7E9
:10C6800077FF7322372327802280238004220F2301
:10C6900025802380268022806722A4F800802280C3
:10C6A0002580802226802380082323802920228041
:10C6B0002580FFF75DFF2C20BDE8F04158E7002002
:10C6C00008B50146FFF77CFF00200146FFF778FF21
:10C6D00000200146FFF774FF00200146FFF770FFBE
:10C6E0000A20FFF73BFF01214FF4C060FFF768FF0E
:10C6F0000A20FFF733FF40214FF4DE60FFF760FFB1
:10C700000A20FFF72BFF4FF480604FF4C441FFF77E
:10C7100057FF082040F60801FFF752FF01204FF4B1
:10C720008071FFF74DFF02204FF48071FFF748FF43
:10C7300003203021FFF744FF09200121FFF740FFCC
:10C740000C200021FFF73CFF90204FF40041FFF741
:10C7500037FF0F200021FFF733FF10201621FFF7CE
:10C760002FFF112040F20111FFF72AFF12200021B4
:10C77000FFF726FF13200121FFF722FF4FF48070FF
:10C780004FF44C71FFF71CFF40F2011040F23721CB
:10C79000FFF716FF40F203104FF47061FFF710FF30
:10C7A0004FF420704FF4D641FFF70AFF4CF2B0115E
:10C7B0004FF48170FFF704FF6420FFF7CFFE4FF4C2
:10C7C00040704FF44061FFF7FBFE40F2013045F648
:10C7D0000B21FFF7F5FE40F2023040F60611FFF79D
:10C7E000EFFE40F2033041F21701FFF7E9FE4FF48C
:10C7F00041704FF40C51FFF7E3FE40F205304FF467
:10C80000B851FFF7DDFE40F2063046F20931FFF77E
:10C81000D7FE40F2073040F60941FFF7D1FE4FF452
:10C82000427041F20C01FFF7CBFE40F2093042F2B8
:10C830003221FFF7C5FE4FF404700021FFF7C0FE60
:10C8400040F21120EF21FFF7BBFE40F21220002141
:10C85000FFF7B6FE40F2132040F28F11FFF7B0FE53
:10C860004FF4A0600021FFF7ABFE40F20150002121
:10C87000FFF7A6FE40F202500521FFF7A1FE40F2AD
:10C8800001400121FFF79CFE002140F20440FFF728
:10C8900097FE6420FFF762FE4FF480710720FFF7D8
:10C8A0008FFE6420FFF75AFE4FF400700021FFF75F
:10C8B00087FE002140F20120FFF782FE054A4FF477
:10C8C0008053136040F202214FF0C0421180024AAF
:10C8D000136008BD141401401014014070B5104CD1
:10C8E0004FF480534FF40065236001202560FFF76B
:10C8F00035FE0C4B0A201D60FFF730FE322025600C
:10C90000FFF72CFEFFF742FE074B9A68074B9A424F
:10C9100002D1BDE8704063E6BDE87040CFE600BFDD
:10C9200010140140141401403C32002027930402EB
:10C930000B4B10B59A680B4B4FF0C0449A4209D18B
:10C940002E20FFF715FE238824882C20A4B2FFF7A1
:10C950000FFE02E023882488A4B2204610BD00BF49
:10C960003C320020279304020EB403B503AA52F808
:10C97000041B019001A80092FFF775FCBDE80C4074
:10C9800003B07047AAE713B502AC24F8020D0020EB
:10C990000146F7F73BFC20464BF68031F7F744FCA5
:10C9A000F7F73EFC20464BF68031F7F73DFCF7F7F2
:10C9B00037FC1CBDC1F1EF0110B580B289B214463D
:10C9C000F7F724FC2046BDE81040F7F721BCC1F181
:10C9D000EF0110B580B289B2F7F718FCBDE810403E
:10C9E000F7F742BC38B5151A5C1A6C434BF67F3525
:10C9F000AC4280B202F1FF35C3F1F0020FD9C1F1B0
:10CA0000EF0392B2A9B29BB26508F7F707FC04A83E
:10CA1000A9B2F7F709FC641BF7F702FC06E0C1F1C5
:10CA2000EF0392B2A9B29BB2F7F7F8FB04A8A1B248
:10CA3000F7F7FAFBF7F7F4FB002040F28F110246FC
:10CA4000EF23F7F7EBFB38BD37B50D46B0F9021011
:10CA500004464B1CB0F90000B4F904200095FFF720
:10CA6000C1FFB4F90630B4F90000591EB4F904202E
:10CA70000095FFF7B7FFB4F90000B4F90210421CAB
:10CA8000B4F906300095FFF7ADFFB4F90420B4F90E
:10CA90000210B4F90630501E0095FFF7A3FF3EBD0B
:10CAA0002DE9F14F0A9C1E460B9B88461746511EE6
:10CAB00004EB4309C6F1F002C8F1EF03054689B261
:10CAC00080B292B29BB2F7F7A9FBA2460CE03AF80B
:10CAD000020BF7F79DFBCA4508BFA2460BF1010BFD
:10CAE000BB45F4DB08F10108B04501DAAB46F7E7D6
:10CAF000002040F28F110246EF2301B0BDE8F04F55
:10CB0000F7F78CBB2DE9F843B0F80080044689465E
:10CB10001FFA88F7002614E0B4F9065009E0C5F1C1
:10CB2000EF01384689B2F7F771FBFFF701FF29F8EB
:10CB3000020BB4F90230013D9D42F0DA01370136B3
:10CB4000BFB20FFA88F2B4F90430B2189A42E3DBAC
:10CB5000BDE8F8832DE9F047C28843880D468188F7
:10CB6000C2F1F0020139C3F1EF03044689B2008833
:10CB700092B29BB2F7F752FB0026B4F8028010E0A5
:10CB8000B4F80090002703E035F8020BF7F740FBFC
:10CB90000FFA89F2B4F90430BA1801379A42F3DB7C
:10CBA00001360FFA88F2B4F90630B2189A42E7DB80
:10CBB000002040F28F110246EF23BDE8F047F7F75F
:10CBC0002DBB13B50346B3F90240B3F90420B0F905
:10CBD0000000B3F9063000912146FFF703FF1CBDAA
:10CBE0000268034BDA6042681A6102685A61704752
:10CBF0003C32002010B50B4C0246B4F91610B4F9C3
:10CC00001400FFF7D7FEA38AB4F910200133A382E2
:10CC10001BB29A4204DCA389A382E38A0133E38234
:10CC200010BD00BF3C32002070472DE9F74F9946F8
:10CC30000C9B0191924613F801BB054600241DE0B0
:10CC400018F8013BFBB113F0040F4FF61E0305D09B
:10CC50009A450AD028463146524604E0994504D008
:10CC6000284631464A46FFF7A5FE013701365F45A3
:10CC70004346E5DB01340135502C03D0019E984634
:10CC80000027F4E708242046BDE8FE8F2DE9F04197
:10CC90001E460F46B6B2C7F1F00714460546F7F731
:10CCA000C5FAB91BA8B289B2F7F7B0FA20463146E7
:10CCB000F7F7B8FABDE8F041F7F7B2BA30F003037E
:10CCC00009D131F0030208D140EA81000449091872
:10CCD00091F8180E7047002070471846704700BF43
:10CCE000E05A02082DE9F04F85B004469A469DF8B7
:10CCF00039009DF838300D4616469DF83AB002903E
:10CD00000393274645E0C5EB0A01701E0139C01B9D
:10CD10003B1BC8EB01019842A8BF18464145A8BF7C
:10CD20004146FFF7CBFF68BBC9F1EF0189B2B8B24A
:10CD3000F7F76CFAF7F798FA1A4BC10001F0FF0108
:10CD4000C208000A00EA0303C1EB0B000190DDF802
:10CD500008C0039802F0FC02C2EB0C0EC3EB000CFF
:10CD600003EB6C03DDF804C0DB1001EB6C00C010BA
:10CD700040EAC32302EB6E00801043EA401080B209
:10CD8000F7F746FA09F1010908F10108D145BADBC4
:10CD90000137B74203DAA9464FF00008F6E705B0BD
:10CDA000BDE8F08FF8FF07002DE9F74F06468A46E9
:10CDB00015461C46BDF830B088462DE00AF1030345
:10CDC000984509D1E71E414630462A463B46CDF8F4
:10CDD00000B0FFF707FEB846B146002718E0A81BD1
:10CDE0000138611EC01BC8EB0101CAEB0803B84241
:10CDF000A8BF38469942A8BF1946FFF75FFF20B980
:10CE0000484641465A46FFF7D5FD09F10109013769
:10CE1000A945E4DB08F10108A045CFDBBDE8FE8FA2
:10CE200013B50346B3F90240B3F90420B0F900008A
:10CE3000B3F9063000912146FFF7B6FF1CBD2DE97E
:10CE4000F74F01909DF830001F460D469246FFF7C0
:10CE50007DFB4FF61E039F4283461DD100241BF825
:10CE60000480019F6FEA08085FFA88F8082618F026
:10CE7000800F04D0384661195246FFF79BFD013EF2
:10CE8000F6B2013726B14FEA48085FFA88F8EEE7B4
:10CE900001340E2CE3D145E09A451FD100241BF844
:10CEA0000490DDF804806FEA09095FFA89F9082621
:10CEB00019F0800F04D1404661193A46FFF77AFD18
:10CEC000013EF6B208F1010826B14FEA49095FFABE
:10CED00089F9EDE701340E2CE1D123E000241BF8A1
:10CEE0000490019E6FEA09095FFA89F94FF008087A
:10CEF00019F0800F08F1FF38304614BF52463A4609
:10CF000029465FFA88F8FFF755FD0136B8F1000FA2
:10CF100004D04FEA49095FFA89F9E9E7013401359C
:10CF20000E2CDCD10820BDE8FE8F2DE9F7430A9FC7
:10CF300005460E4691469846AFB1387818B913E0C9
:10CF40000A2B02D110362C4607E0009320463146CA
:10CF50004A464346FFF773FF241817F8013B002B9E
:10CF6000EED1601B00E03846BDE8FE83DDE72DE929
:10CF7000F043A5B015462CAA0E4652F8041B0746EE
:10CF80000DF1080823A899462292CDF88C80FFF76E
:10CF90006AF9314604462A4638464B46CDF80080A9
:10CFA000FFF7E4FF204625B0BDE8F08337B5124B0C
:10CFB00005460C46009330211F2328204FF6FF72B0
:10CFC000FFF7D4FF20211F234FF6FF722820009582
:10CFD000FFF7CCFFA0B2FFF759FA102100904FF6EF
:10CFE000FF7228201F23FFF7C1FF4FF47A7003B0B0
:10CFF000BDE83040FFF732BABF69020808B5024801
:10D000000421FFF7D3FFFEE7D16902080FB430B562
:10D01000A5B028AA52F8041B02AC23A8239422929C
:10D02000FFF721F923941EE00A2B134C03D0A569C6
:10D03000B5F5C47F09DBE26900230E32E02AA36163
:10D04000E2610DDD0C4AD3610AE000932846E169F4
:10D050004FF6FF724FF43043FFF7F1FE4019A06125
:10D06000239B01332393239B1B78002BDCD125B01A
:10D07000BDE8304004B070473C3200202DE9F74F46
:10D08000C0EB020B5F1A1FFA8BFBBFB20FFA8BFAD1
:10D090000FFA87F84FEADB3BFF0BBDF83090BAF18F
:10D0A000000FD4BFCBF1000BCBF1010BB8F1000F97
:10D0B000D4BF7F42C7F10107BAF1000FB8BFCAF170
:10D0C000000AB8F1000FB8BFC8F100084FEA4A0AD9
:10D0D0004FEA480800921FFA8AFA1FFA88F84A466F
:10D0E000019304460D460FFA8AF6FFF763FC0FFA28
:10D0F00088F39E4220DB1FFA88F8A8EB6606B6B2DA
:10D1000016E016F4004F09D11EB94FFA8BF3002B2D
:10D1100004DD7BB2CAEB0606ED18B6B24FFA8BF30C
:10D12000E4184644204629464A46B6B2FFF742FC78
:10D13000009B9C42E5D11EE01FFA8AFAAAEB630627
:10D14000B6B215E016F4004F09D116B97BB2002B28
:10D1500005DD4FFA8BF3C8EB0606E418B6B27BB2D6
:10D16000ED185644204629464A46B6B2FFF722FC3F
:10D17000019B9D42E6D1BDE8FE8F08B50021042049
:10D18000F7F768F8C3439BB2C3F3802013F4006F32
:10D190001CBF40F0020080B213F4805F18BF40F45F
:10D1A000807013F0080F18BF40F0040013F4004F14
:10D1B00018BF40F0080013F0400F18BF40F4007093
:10D1C00013F4804F18BF40F0100013F4005F18BF35
:10D1D00040F0200013F4807F18BF40F0400013F4AB
:10D1E000007F18BF40F0800008BD07B50B2000216C
:10D1F000F7F730F840B9084B303000931E211F225A
:10D200004FF6FF73FFF791FE1420002103B05DF885
:10D2100004EBF7F71BB800BFF7690208024B0146A1
:10D2200018712420F7F712B800300020014B18794C
:10D23000704700BF0030002070B50CE09C1804EB74
:10D24000D474641050F8246025468E4201D2621CCA
:10D2500001E004D9631E9342F0DA4FF0FF3528460F
:10D2600070BD2DE9F84F214C074604F56260083087
:10D270000E4615469846002215230C99FFF7DCFF51
:10D28000B0F1FF3F9DF82890BDF82CA083462AD02E
:10D290000C9A174B05209A600021F6F7D7FF09205A
:10D2A0003946F6F7D3FF0A203146F6F7CFFF0020C4
:10D2B0002946F6F7CBFF0B204146F6F7C7FF0C20B7
:10D2C0004946F6F7C3FF04EB4B0401205146F6F73D
:10D2D000BDFF0720B4F8801EF6F7B8FF0820B4F8A9
:10D2E000AC1EF6F7B3FFBDE8F88F00BFE05A0208A6
:10D2F0000030002008B503200021F6F7ABFFC0B2D4
:10D3000008BDF6F797BF08B506200121F6F79EFF86
:10D31000FFF79EF8014B186208BD00BF3C320020A9
:10D320002DE9F04106460C462220314615461F469F
:10D33000F6F78CFF21202146F6F788FF202047EAE8
:10D34000C501BDE8F041F6F781BFB0F5805F10B5CB
:10D3500003DD0748CA21FFF729FE0024FFF7D1FFAC
:10D36000044B18510434B4F5804FF7D110BD00BF01
:10D37000106A0208603200204FF480507047B0F508
:10D38000805F10B5044603D30348DA21FFF70EFE91
:10D39000024800EB840010BD106A020860320020D1
:10D3A00010B500210220F6F755FF00210120F6F705
:10D3B00051FF002100F001040320F6F74BFF10F0AD
:10D3C000010F18BF44F00204204610BD08B5FFF756
:10D3D0003FF80B4B1B6AC01A15F040FE094915F0C7
:10D3E00045FF094B996815F041FF084915F08AFE81
:10D3F00016F04EF8B0F5805FA8BF4FF4805008BD1E
:10D400003C32002000007A44003000200000F0414F
:10D41000034670B510200C4619461546F6F716FF60
:10D4200011202146F6F712FF12202946BDE8704070
:10D43000F6F70CBF094B10B51A68094C22F001022F
:10D440001A60084A146043F2B0521A60064A11602A
:10D4500090601A6842F001021A6010BD4404024054
:10D46000087400404C04024048040240034B012170
:10D47000A3F83C0D03F552601C30DBE72465002067
:10D4800001460D20F6F7E2BE0048704762720020A8
:10D4900008B5034602730020012A587305D11A46C5
:10D4A00009480833F6F7F2FE06E0022A09D11A46C7
:10D4B00005480833F6F7E8FED0F1010038BF002038
:10D4C00008BD012008BD00BF6272002008B50346F8
:10D4D00008461946F6F7DCFED0F1010038BF0020FF
:10D4E00008BD10B5044608462146F6F7D3FE20B91C
:10D4F000637B01300133637310BD002010BD10B594
:10D50000037B0446022B10D1B1F1FF3F08BF417BE2
:10D51000224608BF4902074804F10803F6F7BCFE9B
:10D5200028B903232373013010BD012010BD002052
:10D5300010BD00BF62720020F0B502EBD27700246C
:10D540007F1001EB420523460DE0BB42B4BF31F82A
:10D5500013C035F802CC065F013306FB0CF6360C1F
:10D560000653023D04349342EFDBF0BD0CF00ABBDE
:10D57000420803460DD00021B3FBF2F080184008AA
:10D58000121A0132022A04D9192902D001310246A5
:10D59000F2E7704705E0054A118811F0800FFAD0D4
:10D5A000938010F8013B002BF5D170470038014003
:10D5B0000F4B10489A6942F480429A610E4A40F239
:10D5C0007123138142F22C039381138823F4A46303
:10D5D00023F005031B041B0C1380084B5A6822F42C
:10D5E0007F6242F40A625A604FF480621A61D1E7A6
:10D5F000001002403A6A0208003801400008014069
:10D6000010B54FF4FA70FEF729FFFFF7BBF9FFF7EB
:10D61000ECFDBDE81040CBE704F0A8BF0E200021D0
:10D62000F6F718BE0D200021F6F714BE0F200021DA
:10D63000F6F710BE10200021F6F70CBEF6F7FEBD7F
:10D64000014B9868704700BF3C3200202DE9F04341
:10D650003F3189B0234B804687B28CB2ADF10202D4
:10D6600013F8010C1978C0108910C0024901411843
:10D670005878043301EBD00122F8021F1A498B427B
:10D68000EED11A4E3D4616F8013B08AA1B0902EBE3
:10D69000430328460135214633F8202CADB208F16A
:10D6A000FF09FFF787F94D4502DD013CA4B23D4675
:10D6B00016F8013C08AA03F00F0302EB43032846C7
:10D6C0000135214633F8202CADB2FFF773F94D45F3
:10D6D00002DD013CA4B23D46054B9E42D3D109B0C8
:10D6E000BDE8F08337D8030877D8030876D8030855
:10D6F00076F80308704700BF7047014B1868704701
:10D700006474002037B5FEF7A3FE294C2368B3F1FB
:10D71000FF3F08BF20602368C51AB5F57A7F0ED990
:10D720004FF47A72B5FBF2F502FB053320490B602A
:10D7300004F04CFB00F52850036BED180563FFF770
:10D740001CFDADF8060000B9A08004F03FFB00F519
:10D750003A500DF106017C3003F068F904F036FB15
:10D7600000F53A507C300DF1060103F067F9BDF881
:10D770000630ABB104F02AFB0221BDF8062008F008
:10D78000DBF8BDF80620A3889A4206D0094B1B6837
:10D790001B7A13B93220FEF76BFEBDF80630A3806A
:10D7A00004F014FB0321002208F0C6F801203EBD5E
:10D7B00010300020C8A300200C4B10B518600446A0
:10D7C000FFF71EFF04F002FB07F014FF04F0FEFA5F
:10D7D0000121002208F0B0F813F076F913F030F9C7
:10D7E00012F08CFFFFF78FFD204610BD64740020FF
:10D7F00008B5036849421B6849B2984708BD000054
:10D80000014B1868704700BF207B02087047012059
:10D8100070474368826819688A181A6070474368BD
:10D82000826819688A1A1A607047082070478368EE
:10D830001B78CB1805D4027B9342CCBF002001207B
:10D8400070470020704783681A7801321A70704759
:10D8500083681A78013A1A707047836819707047A4
:10D86000836818787047022070471820704702209C
:10D870007047002070470020704708207047000064
:10D88000034B1B68586A0028B8BF033080107047EC
:10D89000C8A300200020704719207047034B1B6865
:10D8A000986A0028B8BF033080107047C8A30020D2
:10D8B000002070471920704770477047436882689E
:10D8C0001B68CB18934205DBC0688342CCBF0020A5
:10D8D000012070470020704743681A6801321A60BF
:10D8E000704743681A68013A1A60704702484FF45B
:10D8F0008871FFF75BBB00BFB076020808B503482C
:10D9000040F20F11FFF752FB002008BDB07602086D
:10D9100002484FF48771FFF749BB00BFB076020899
:10D92000024840F20D11FFF741BB00BFB07602087C
:10D9300002484FF48671FFF739BB00BFB07602088A
:10D9400008B503484FF48571FFF730FB022008BD8E
:10D95000B076020839B9042A05D146F267429342EB
:10D9600001D107F0EDBA704739B9042A05D146F262
:10D970006742934201D107F0E3BA704739B9042AEC
:10D9800005D146F26742934201D107F0D9BA7047F8
:10D99000C36A70B504460D461BB90B484221FFF718
:10D9A00005FB15F0100F08D0E168E36A204646F643
:10D9B0006352BDE8704007F0CABA20462946BDE868
:10D9C000704007F03ABB00BFCA76020811F0100F92
:10D9D00070B505460C4605D0C16846F66F52002367
:10D9E00007F0B5FA28462146BDE8704007F025BB90
:10D9F00011F0010F70B504460D4615D0C06A012123
:10DA000003685B68984701280ED1E06A002103682B
:10DA1000DB689847204607F093FA2046E16847F212
:10DA20007052002307F093FA15F0020F15D0E06A48
:10DA3000012103681B68984701280ED1E06A002184
:10DA400003689B689847204607F07AFA2046E16809
:10DA500047F27052002307F07AFA15F0100F0ED03B
:10DA6000E06A0368DB699847084B1B68984206D058
:10DA70002046E16846F66542E36A07F068FA204608
:10DA80002946BDE87040FFF7A1BF00BF207B020818
:10DA900011F0010F70B504460D460DD0C36A002B7E
:10DAA0000ADD013BC36207F04BFA2046E16846F607
:10DAB0007512002307F04BFA15F0020F0ED0E36A3F
:10DAC000132B0BDC0133E362204607F039FA2046C2
:10DAD000E16846F67512002307F039FA2046294618
:10DAE000BDE87040FFF772BF11F0010F70B504463A
:10DAF0000D460DD0C36A012B0ADD013BC36207F05E
:10DB00001FFA2046E16846F67512002307F01FFA57
:10DB100015F0020F0ED0E36A1D2B0BDC0133E3621C
:10DB2000204607F00DFA2046E16846F675120023FC
:10DB300007F00DFA20462946BDE87040FFF746BFC2
:10DB400011F0200F70B505460C4606D0C06846F2AD
:10DB500078520146002307F0FAF928462146BDE82D
:10DB6000704007F06ABA000011F0010F70B504466A
:10DB70000D4615D0006A012103685B6898470128AB
:10DB80000ED1206A00210368DB689847204607F021
:10DB9000D7F92046E16847F27052002307F0D7F921
:10DBA00015F0020F15D0206A012103681B68984701
:10DBB00001280ED1206A002103689B6898472046FF
:10DBC00007F0BEF92046E16847F27052002307F0E3
:10DBD000BEF915F0100F0ED0206A0368DB69984774
:10DBE000084B1B68984206D02046E16846F665421D
:10DBF000236A07F0ACF920462946BDE87040FFF7DC
:10DC00009FBF00BF207B020811F0010F70B50446D2
:10DC10000D4615D0C06A012103685B68984701284A
:10DC20000ED1E06A00210368DB689847204607F0C0
:10DC300087F92046E16846F67512002307F087F958
:10DC400015F0020F15D0E06A012103681B689847A0
:10DC500001280ED1E06A002103689B68984720469E
:10DC600007F06EF92046E16846F67512002307F0CA
:10DC70006EF920462946BDE8704007F0DEB9000085
:10DC8000C36A70B504460D461BB91A482A21FFF72E
:10DC90008DF915F0100F08D0E168E36A204646F6CA
:10DCA0006352BDE8704007F052B9E36A1A79043A4A
:10DCB000D2B2012A17D815F0010F08D0DA6812F194
:10DCC000FE0F04DB013ADA60204607F039F915F05F
:10DCD000020F08D0E36ADA68FE2A04DC0132DA6057
:10DCE000204607F02DF920462946BDE8704007F090
:10DCF000A4B900BFF5760208C36A70B504460D46A4
:10DD00001BB91D482221FFF751F915F0100F08D05B
:10DD1000E168E36A204646F66352BDE8704007F0CA
:10DD200016B915F0010F0ED0E36A1A795AB1013A0B
:10DD30001A71204607F004F92046E16846F675128C
:10DD4000E36A07F004F915F0020F0FD0E36A1A79BD
:10DD5000092A0BD801321A71204607F0F1F8204643
:10DD6000E16846F67512E36A07F0F1F820462946A5
:10DD7000BDE8704007F061B92377020830B502842E
:10DD800000250122456280F82820BDE8304007F0D8
:10DD90009BB800007FB5043302AC05460E4693E8FD
:10DDA000030084E80300BDF80E30284604339BB21C
:10DDB000ADF80A300733ADF80E30044942F00202E4
:10DDC0002346009607F080F87FBD00BF5277020817
:10DDD0007FB5043302AC05460E4693E8030084E8A1
:10DDE0000300BDF80E30284602339BB2ADF80A306E
:10DDF0000733ADF80E30044942F002022346009684
:10DE000007F062F87FBD00BF5E77020830B5049D61
:10DE1000028401224562BDE8304007F055B82DE983
:10DE2000FF410A9E0D4600214162028480F828309D
:10DE300004464FF01108304608FB03F806F0FCFFDB
:10DE40005FFA88F802AF68B1304606F0F5FF04309B
:10DE500003C887E80300BDF80E3002339BB2ADF86B
:10DE60000A3006E0331D93E8030087E80300BDF89D
:10DE70000A30984420462946012202ABADF80E80B4
:10DE8000009607F021F8BDE8FF81FFF7C8BF00004A
:10DE90002DE9F041DDF81880044615461F460E4670
:10DEA00021B908484FF40371FFF780F8204629464E
:10DEB0003A460223E662CDF81880BDE8F041FFF74C
:10DEC000AEBF00BFB0760208FFF7A9BF10B50A24A5
:10DED000C462BDE81040FFF7A2BF10B50A24C462B7
:10DEE000BDE81040FFF79BBF73B5044616460D46CC
:10DEF00019B907480C21FFF759F8E56220460021BF
:10DF000046F20C3202230096FFF789FF7CBD00BF6A
:10DF1000F576020810B50524C462BDE81040FFF78D
:10DF20007EBF13B503469C685B682478088853F865
:10DF30002430B1F9021000934FF6FF73002A14BF8A
:10DF40001A4600224FF61E03FEF7EFFF1CBD00002D
:10DF50002DE9F341274DB0F906402B68B0F9046074
:10DF6000B3F84020244B2146009330460023FEF7AF
:10DF7000DCFF2B68214F93F83E30214657F82330C1
:10DF8000801900934FF6FF720023FEF7CEFF2B6837
:10DF900006F16408B3F85420194B2146009340461B
:10DFA0000023FEF7C2FF2B68214693F8523040440D
:10DFB00057F823304FF6FF7200930023FEF7B5FFAA
:10DFC000104BC83600932146002330464BF2965240
:10DFD000FEF7ABFF2B68801993F88C200A4B214683
:10DFE00053F822304FF6FF7200930023FEF79DFF97
:10DFF000BDE8FC81C8A30020C1990208247C020866
:10E00000A79A02086A7702088C7C0208F7B50E8886
:10E01000154B083E4FF6FF75002A08BF0025B6B223
:10E020000C460746B1F902102A46009330464FF6D7
:10E030001E03FEF7FAFD7B683618B6B2B4F902107B
:10E04000009330462B464FF61E02FEF76EFF074B3D
:10E0500030180093B4F902102A464FF61E0380B21E
:10E06000FEF7E3FDFEBD00BFB251060824520608CC
:10E0700073B5044606F054FFA688144B083E4FF6CD
:10E08000FF75002808BF0025B6B2B4F9061000934A
:10E090002A4630464FF61E03FEF7C7FDE3693618E1
:10E0A000B6B2B4F90610009330462B464FF61E0266
:10E0B000FEF73BFF064B30180093B4F906102A46D2
:10E0C0004FF61E0380B2FEF7B0FD7CBDB2510608CC
:10E0D0002452060808B583681A78436853F822006A
:10E0E00015F026FDC3004FF6F87003EA000008BDE6
:10E0F0007FB5436804460D46164623B912484FF4CF
:10E100002F71FEF753FF63681A68A36892FBF3F25E
:10E110000A2392FBF3F103FB11220023ADF80C302C
:10E12000303204AB03F8042D4FF6FF720093B5F9BB
:10E130000000B5F90210002E08BF00224FF61E03A2
:10E14000FEF714FF7FBD00BFB076020870B50E4623
:10E1500015461C4606F069FE2A460146234630460F
:10E16000BDE8704006F0F3BE11F0010F2DE9F0415B
:10E1700004460D4616D0006A012103685B68984783
:10E1800080B1206A00210368DB689847204606F0CA
:10E190004CFE06F0D5FEE06847F27052C1680023DD
:10E1A00006F0D5FE15F0020F16D0206A0121036893
:10E1B0001B68984780B1206A002103689B689847D4
:10E1C000204606F032FE06F0BBFEE06847F27052D1
:10E1D000C168002306F0BBFE15F00C0F0FD00C4EEB
:10E1E000204629463768FFF7ABFC3368BB420CD0AA
:10E1F000204606F01AFEBDE8F04106F0A1BE20461A
:10E200002946BDE8F041FFF79BBCBDE8F08100BFA7
:10E21000DCA3002010B50C4606F007FE036821467B
:10E220005B68984710BD11F0130F10B50C4606D06F
:10E2300006F0FBFD036821465B68984710BDBDE80A
:10E24000104006F0FABE000011F0030F10B507D021
:10E25000FFF7DAFC044B1868BDE8104005F086BCF7
:10E26000BDE81040FFF7D0BCC8A3002011F0030F99
:10E2700010B507D0FFF7C8FC044B1868BDE8104084
:10E2800005F074BCBDE81040FFF7BEBCC8A3002079
:10E290002DE9F0471F4647F270539A4204460D4657
:10E2A00016463FD100F1380399423BD1436A93F8B7
:10E2B0000480A8F104095FFA89F9B9F1010F8CBF54
:10E2C0004FF000094FF00109B9F1000F06D0A8F195
:10E2D0000503D3F1000848EB030801E04FF0010803
:10E2E00004F1A00A504606F014FF814506D04946C5
:10E2F000504606F034FE4FF0010901E04FF00009EE
:10E3000004F16C0A504606F004FF804504D05046E4
:10E31000414606F024FE02E0B9F1000F02D020468B
:10E3200006F00EFE2046294632463B46BDE8F04741
:10E33000FFF70CBF08B54368B3F9000006F03AFCDC
:10E3400015F0F6FBC3004FF6F87003EA000008BDB5
:10E350004368F7B54FF6FF7604460D46002A08BF1E
:10E3600000261BB913489721FEF720FE6368B5F914
:10E3700000701868A368984202DBE36898420ADDDF
:10E380000D4BB5F902100093384632464FF61E0386
:10E39000FEF7CBFD0CE000B2B5F9024006F00AFC36
:10E3A00021460090324638464FF61E03FEF7DEFD4A
:10E3B000FEBD00BF6E77020889770208F7B5436893
:10E3C0000E881C88083E134BB6B20D462246B1F9A2
:10E3D0000210304600934FF61E03FEF726FC361857
:10E3E0002046B5F9027006F029FCB6B20090394615
:10E3F000234630464FF61E02FEF7B8FD064B301896
:10E400000093B5F9021022464FF61E0380B2FEF7C4
:10E410000CFCFEBDB25106082452060844F64441E5
:10E420008A4201D106F08CBF44F645418A4202D1AE
:10E43000012280F82020704710B5044606F080FFC6
:10E440002046BDE8104006F059BF10B5044606F05E
:10E4500077FF2046BDE8104006F050BF11F0100FC6
:10E4600070B5044617D006F0E2FC18B90A483D2101
:10E47000FEF79CFD204606F0D8FC0546204606F037
:10E48000D6FC0346DB692046294646F26452BDE8C5
:10E49000704006F05CBD70BD8B7702080180428041
:10E4A000704710B58380BDF8083001804280C3807A
:10E4B00010BD00007FB50E46F0233C2104461546F2
:10E4C00000930A46283302A8FFF7EBFF20462A46AE
:10E4D00002AB1049009606F0F7FC04F1200002237D
:10E4E0000D4948F210420094FFF7CFFC04F14C00B4
:10E4F00002230A4948F210420094FFF7C6FC04F1D7
:10E500007800074948F2104202230094FFF787FC85
:10E510007FBD00BFAE770208BF770208C977020847
:10E52000D07702087FB5DE2305460E4614460093D9
:10E5300000211622D33B02A8FFF7B3FF2846044967
:10E5400044F0020202AB009606F0BEFC7FBD00BFA5
:10E55000E07702087FB5152305460E461446009362
:10E560000C21102202A84FF49C73FFF79AFF284653
:10E57000034944F0020202AB009606F0A5FC7FBD01
:10E58000F47702087FB5F02305460E461446009343
:10E5900000211022A03302A8FFF783FF2846044978
:10E5A00044F0020202AB009606F08EFC7FBD00BF75
:10E5B000077802087FB5F02305460E4614460093FF
:10E5C00000211022A03302A8FFF76BFF2846044960
:10E5D00044F0020202AB009606F076FC7FBD00BF5D
:10E5E0001378020870B5F02388B004460E4615462D
:10E5F000009300211022A03306A8FFF752FF204607
:10E600001A4945F0200206AB009606F05DFCB4F90D
:10E610000A204FF4967100924FF4A573103A04A8A3
:10E62000FFF73FFF04F140001149012204AB0094C1
:10E6300006F04AFCB4F90A204FF4B47100924FF48A
:10E64000C373103A02A8FFF72CFF04F12000094918
:10E65000012202AB009406F037FC00232366FEF78C
:10E660008BFE0138606608B070BD00BF23780208D9
:10E6700030780208357802087FB5F02305460E464B
:10E680001446009300211022A03302A8FFF709FFCF
:10E690002846044944F0120202AB009606F014FC2E
:10E6A0007FBD00BF3A7802087FB5F02305460E46CD
:10E6B0001446009300211022A03302A8FFF7F1FEB8
:10E6C00028460349224602AB009606F0FDFB7FBDBB
:10E6D0004A780208B0F90420B0F90030D018401090
:10E6E000704707B5B0F90030B0F90410B0F9062052
:10E6F000C918B0F902304910D218521001A8FFF71A
:10E70000CDFE019B00209AB262F30F001B0C63F355
:10E710001F400EBD10B504880919018041885218A8
:10E7200042808288D31A8380C288029BD31AC38016
:10E7300010BD10B50488611A018041888A1A428090
:10E7400082889B188380029AC388D318C38010BD27
:10E75000B0F90420B0F90030D01A7047F0B587B096
:10E7600004AC051D064695E8030084E8030001217A
:10E7700000220B4620460092FFF7DBFF204648F2BE
:10E780001041FEF71EFA94E80300184B02AF1B6815
:10E7900087E803002846B3F88E40FFF7D9FFBDF89D
:10E7A0000A3004FB00F20133ADF80A3004F5967428
:10E7B000BDF80E304443013BADF80E30B388384607
:10E7C00003EB223203EB2434BDF81430ADF80C40D7
:10E7D000ADF8082024B21AB29442C8BFADF80C308C
:10E7E0000021FEF7EEF907B0F0BD00BFC8A300207E
:10E7F00073B5051D002104462846FEF7E2F90F4BCC
:10E800001B68B3F89E60B3F88E30F61A36B2002E4D
:10E8100012DB2846FFF79CFF86420DDAB4F90400AC
:10E82000074B04380093B4F90610801946F20C32F5
:10E830004FF61E03FEF7F9F97CBD00BFC8A3002008
:10E840001E51060830B5051D85B004460021284636
:10E85000FEF7B7F9384B802100930420002348F2DB
:10E860001042FEF762FB354B802100934423019355
:10E87000A020443B4BF29652FEF779FB304B90219F
:10E8800000930420002348F21042FEF74EFB2D4B6C
:10E8900090210093A02000234BF29652FEF745FBF7
:10E8A000294BA02100930420002348F21042FEF7D8
:10E8B0003CFB264BA0200093014600234BF29652CE
:10E8C000FEF733FB224BB02100930420002348F2D3
:10E8D0001042FEF72AFB1F4BB0210093A0204BF201
:10E8E00096520023FEF721FB1B4BC021009304200E
:10E8F000002348F21042FEF718FB184BC02100938A
:10E900000423019301330293033B03934BF296528A
:10E91000023BA020FEF72BFB2846FFF719FFB4F9B6
:10E920000610A0F5807000EBD0704010183105B0D3
:10E93000BDE83040FEF78ABE5478020866780208C7
:10E94000727802087C780208847802088E780208BF
:10E950009B780208AB780208C0780208D2780208D7
:10E96000F7B5061D002105463046FEF72AF9514B42
:10E97000802148F21042009304200023FEF7D5FACC
:10E98000FEF750FE8021002300904BF29652A0200B
:10E99000FEF7CBFA484B902148F210420093042036
:10E9A0000023FEF7C2FAFEF741FE902100230090FB
:10E9B0004BF29652A020FEF7B8FA404BA02148F245
:10E9C0001042009304200023FEF7AFFAFEF732FE58
:10E9D0000090A020002301464BF29652FEF7A5FAC4
:10E9E000374BB02148F21042009304200023FEF779
:10E9F0009CFAFEF713FEB02100234BF296520090D2
:10EA0000A020FEF792FAFEF71BFE2E4B0446009361
:10EA100004200023C02148F21042FEF786FA2A4B58
:10EA20002A4F9C4204D02A4B9C4203D064B114E08C
:10EA3000284B00E0284B0093A020C0214BF29652B7
:10EA40000023FEF772FA11E0244BA0200093C021AE
:10EA50004BF296522346FEF768FAA020C0214BF2F3
:10EA60009652002300970194FEF781FA1C4BD021A7
:10EA7000009348F2104200230420FEF756FAFEF7F6
:10EA8000DDFDD02101904BF296520023A02000978B
:10EA9000FEF76DFA3046FFF75BFEB5F90610A0F5FC
:10EAA000807000EBD0704010183103B0BDE8F0402A
:10EAB000FEF7CCBDDF780208F17802080179020880
:10EAC0000F7902081C790208766761004079020814
:10EAD000279304022C790208307902083879020859
:10EAE00045790208B0F90620B0F90230D01A704713
:10EAF0000388CB1803808388C91843888180D31882
:10EB00004380C388D218C2807047002303804380AB
:10EB10008380C3807047B0F90420B0F900309A4276
:10EB2000D4BF0020012070472DE9F04F00F12606E8
:10EB30008BB004463046FFF7EEFF0546002847D16C
:10EB400008AF04F1040898E8030087E803000121F6
:10EB50000A460B4638460091FFF7EBFD38464BF26C
:10EB60009651FDF771FF29464046FEF72AF848F214
:10EB70001042ADF81650ADF81850ADF81A50ADF877
:10EB80001C50ADF814201935B4F90400B4F90A305A
:10EB900005AA2818009205220192043B421CB4F9F0
:10EBA00006101935FDF77CFFFA2DEDD1E13DB4F9E2
:10EBB000061005AB6918009305230193B4F904000E
:10EBC0004B1CB4F908201935FDF76AFFC82DEED1AA
:10EBD000236A002B00F0A780251D2846FFF7B8FD0B
:10EBE00080462846FFF77EFFB4F90AA0323803902A
:10EBF0002046AAF1190A06F093F960B1216BA38CA3
:10EC000001FB08F198FBF3F202EBD27291FBF3F3F4
:10EC100003EB620301E06FF0130330460293FFF74A
:10EC20007AFF18B9E084A4F82A802BE0B4F9042014
:10EC3000B4F9263000259A42A8BF1346E384B4F9FC
:10EC40000820B4F92A3001219A42B8BF13466385DF
:10EC50002A460B4630460095FFF75CFD30462946B4
:10EC6000FDF7AFFF012130462A460B460095FFF71E
:10EC700060FDB4F90410B4F906203046494252420E
:10EC8000FFF736FF4FF00009E58CCB4644E0A28C3D
:10EC9000236A6A4392FBF8F233F81270B7F5805F8B
:10ECA00003D322485D21FEF781F9039AB4F9263097
:10ECB000574344BF07F57E671F373F13B4F904205D
:10ECC000BFB29D4208BFBB46AA184FF6FF73009320
:10ECD000501EC7EB0A03CBEB0A01FEF7CFF9029BEC
:10ECE0009D4208BFB94603339D4212D1B4F90400D6
:10ECF0000F4B626B0638AAF1040100934019C9EB6F
:10ED00000101082A14BF16221F224FF61E03FDF729
:10ED10008CFF0135ADB2BB46B4F92A309D42B6DB5B
:10ED20003046FFF7F2FE0BB0BDE8F08F54790208D1
:10ED30004C5B060813B50446B4F90220B0F9000094
:10ED4000B4F906300091114600F10C02FEF72CF8E0
:10ED5000B4F90000B4F90210B4F90420B4F9063093
:10ED600008304BF296540094FDF73CFE1CBD37B5BD
:10ED70000446B4F90250B0F90000B4F90420B4F923
:10ED80000630023800912946FEF70EF8B4F900006B
:10ED9000B4F90210B4F90420B4F9063006304FF685
:10EDA000FF740131013A013B0094FDF7FDFF3EBDC8
:10EDB00007B50346B0F900000022B3F90210B3F919
:10EDC0000630009200F10802FDF70CFE0EBD37B5CB
:10EDD0000446B0F90000B4F90210B4F90630002579
:10EDE00000F108020095FDF7FDFDB4F90420B4F927
:10EDF0000210B4F90630101F0095FDF7F3FD3EBD7B
:10EE0000436A37B504460BB11B880384204606F0DD
:10EE100087F8231D18B11846FFF7D9FF02E01846FE
:10EE2000FFF7C6FFA38820460433A38006F078F8D6
:10EE30000546218C201D5DB1FFF799FFE369B3B151
:10EE4000B4F90400B4F9061000930C3000220AE073
:10EE5000FFF770FFE36953B1B4F90400B4F9061089
:10EE600000930C302A464FF61E03FEF75EF8A38887
:10EE7000043BA3803EBD0000C36A2DE9F0431F7927
:10EE80005B79A7F10102574247EB020748F21048AD
:10EE9000002F18BF4FF00008012B87B0044608D0A0
:10EEA00002D3022B0FD109E03A4B1B68B3F8403074
:10EEB00008E0384B1B68B3F8543003E0354B1B684F
:10EEC000B3F8B23103862046FFF79AFFE36AB4F93C
:10EED00004909A79304BB4F9065053F8223009F176
:10EEE0000E0600933046294642464FF61E03FEF7B3
:10EEF0001CF8002F4BD0E36A284A99799F6852F892
:10EF0000214038460021103514F09AFA68B1244B9C
:10EF100030460093424629464FF61E03FDF785FE14
:10EF200007F100428619174601E009F11406384638
:10EF300013F0FCFC02460B4602A81A49FDF714FD2B
:10EF400005E006AA02EB0903002203F8112C02AF28
:10EF5000384614F0EDFD8146204614F0E9FD4844A2
:10EF60000728EED83046294642464FF61E03009742
:10EF7000FDF7FCFF5CB123784BB10436301829460D
:10EF800044F208224FF61E030094FDF7CEFF07B0AF
:10EF9000BDE8F083C8A30020C87D0208F87D020800
:10EFA000F65A060880790208F0B5C669002585B0D2
:10EFB0000446C561FFF724FFE661231D02AE93E816
:10EFC00003002A4686E803002B46304610210095B0
:10EFD000FFF7A0FBE3692A46BDF90A100093BDF9CB
:10EFE00008004FF61E03FDF7A0FFBDF80A302046CB
:10EFF0001033ADF80A3005F093FF0246002837D0F1
:10F00000BDF808701E4B083FBFB2BDF90A102A4672
:10F01000009338B24FF61E03ADF80870FDF705FEF9
:10F020003818ADF80800E06A03685B699847BDF9D5
:10F030000A100746BDF9080001F10E033A180095C1
:10F04000FDF7D0FCE06A3146036801221B6998474E
:10F05000BDF80830BDF90A10FF180A4B38B200930A
:10F060002A464FF61E03ADF80870FDF7DEFD04E0FA
:10F07000E06A314603681B69984705B0F0BD00BFE0
:10F08000B251060824520608F0B5044685B0FFF7D1
:10F09000B7FEB4F90450B4F90670E3691035009373
:10F0A0002846394600224FF61E03FDF73EFF204654
:10F0B00007F1100605F034FF00282ED0234B31460F
:10F0C0000022009328464FF61E03FDF7AEFD4519BA
:10F0D000E06A1E3703685B69984732464319294640
:10F0E00002A80097FFF7DDF9002102A8FDF769FDEE
:10F0F000E76A20463B681D6905F012FF02A9024637
:10F100003846A847124BBDF90C0000933146002247
:10F110004FF61E03FDF789FD15E0E06A1E37036810
:10F120005B69984729464319324602A80097FFF7C2
:10F13000B8F9E66A204633681D6905F0F1FE02A9B8
:10F1400002463046A84705B0F0BD00BFB2510608E0
:10F150002452060813B50446FFF752FE084BB4F9D3
:10F1600004000093E36AB4F9061003EB83030193F0
:10F170001C30103100224FF61E03FDF7F8FE1CBDB7
:10F18000D191020813B50446FFF73AFE084BB4F9D3
:10F1900004000093E36AB4F9061003EB83030193C0
:10F1A0001C30103100224FF61E03FDF7E0FE1CBD9F
:10F1B000D191020873B50546FFF722FEEB6AB5F957
:10F1C0000440B5F906601B690E34002200933146F5
:10F1D0004FF61E032046FDF7A8FEEB6A31461A796A
:10F1E000114B001953F82230002200934FF61E03F2
:10F1F000FDF79BFEEB6A06F110011A79052A01D191
:10F200000A4A06E0042A03D0094A00929B6802E0F9
:10F21000084A0092DB680193204600224FF61E0345
:10F22000FDF7A5FE7CBD00BF607E02088479020860
:10F23000D19102088B790208C36AF7B51D7904469B
:10F2400048F21043002D0CBF1D460025FFF7D8FDE6
:10F25000B4F90470B4F906600C4B0E3700933146D4
:10F260002A4638464FF61E03FDF75FFEE36A38462E
:10F270001A79074B06F1100153F822302A46009301
:10F280004FF61E03FDF751FEFEBD00BF8F79020849
:10F29000347E02087FB50646FFF7B2FD0E4BF06ADA
:10F2A000009313F0DBFE0D4913F0E0FF0C4913F05F
:10F2B00021FE13F03BFBB6F90450B6F906401C35AD
:10F2C0001034CDE902010022284621464FF61E03E4
:10F2D000FDF74DFE7FBD00BF997902080000204177
:10F2E0000AD7233C73B5B0F90420B0F906300E46B6
:10F2F000B0F9021004464FF4E045101F0431043207
:10F3000004330095FDF750FDB4F90630B4F9000060
:10F31000B4F90420191F0430043204330095FDF7BA
:10F3200043FDB4F90000B4F90210B4F9063000F15D
:10F330000C020096FDF738FDB4F90000B4F9042082
:10F34000B4F90210B4F906304BF296550830043A7D
:10F350000095FDF747FBB4F90420B4F90210B4F9A5
:10F360000630A2F108000095FDF71EFD7CBD73B5C7
:10F37000B0F90420B0F906300E46B0F90210044688
:10F380004FF4E045101F0431043204330095FDF7BB
:10F390000BFDB4F90630B4F90000B4F90420191FCC
:10F3A0000430043204330095FDF7FEFCB4F900008C
:10F3B000B4F90210B4F90420B4F906300096FDF750
:10F3C000F3FC7CBD30B5024685B00D46006851683F
:10F3D00002AB022403C302A80021FDF721FD22464F
:10F3E000234602A821460094FFF794F902A8294673
:10F3F000FDF716FD02A821460E2223460094FFF7D2
:10F4000089F902A84BF29651FDF70AFD05B030BD0F
:10F4100073B50446051D218C2846FFF7D3FF284607
:10F42000FFF758F9E5690646284614F081FBB4F960
:10F430000610C0B28000301A023100224FF61E03BF
:10F440000095FDF772FD7CBDF0B589B0031D054642
:10F4500004AC93E8030084E803001846298CFFF706
:10F46000B1FF2046FFF736F9EE690746304614F043
:10F470005FFBBDF91210C0B2800002310022381AC1
:10F480004FF61E030096FDF750FD122104230A4695
:10F49000009320460B46FFF73DF9686A14F048FBDD
:10F4A00007462046FFF71DF9ADF80800C0F30F40EE
:10F4B000ADF80A00029E20460796FFF712F9ADF854
:10F4C0000800C0F30F40ADF80A0002996B6AFF0014
:10F4D00036B2A6EB67060691091400933046073949
:10F4E00000224FF61E03FDF720FD09B0F0BDF0B578
:10F4F00085B0031D044602AD93E8030085E80300D0
:10F500001846218CFFF75EFF2846FFF7E3F8E6690F
:10F510000746304614F00CFBBDF90A10C0B280005B
:10F5200002310022381A4FF61E030096FDF7FDFC4B
:10F5300012210423009328460A460B46FFF7EAF8F7
:10F54000636ABDF90800BDF90A1000930430043164
:10F5500000224FF61E03FDF7E8FC05B0F0BD4BF2AC
:10F560009651FDF72EBB2DE9F041012104460026FE
:10F57000FDF736FBD02514E0EB10DA024FEAA508C0
:10F5800042EA4818204648EA0308FFF7E1F8074630
:10F5900002E04046FDF72EFB013FFAD20D3DEDB2F1
:10F5A00001362046FFF79EFA8642E5DBBDE8F041D2
:10F5B000FDF73ABB10B5044605F0B2FC231D20B997
:10F5C0001846BDE81040FFF7CABF1846BDE8104016
:10F5D000FFF7C9BF2DE9FF47044605F0A1FC4FF630
:10F5E000FF75002808BF00252046FFF7E3FFE36909
:10F5F000B4F904002A46B4F90610009304304FF61B
:10F600001E03FDF792FC206A01210368B4F904800F
:10F610005B6898478146206A0121036808F17807F2
:10F620001B689847B9F1010F064607D1244BB4F97E
:10F630000610009308F170002A460AE0B9F1000FA5
:10F640000BD11F4BB4F90610009308F1700048F27B
:10F6500010424FF61E03FDF7E8FAD4F820A0231D50
:10F6600093E803000DF10809DAF8003089E8030097
:10F670002046D3F81080ADF80870ADF80C7005F096
:10F680004FFC494602465046C047206A03685B6902
:10F690009847012E384405D10A4BB4F9061000935F
:10F6A0002A4606E04EB9074BB4F90610009348F21B
:10F6B00010424FF61E03FDF7B8FABDE8FF8700BF02
:10F6C000A84E06081A4F060837B5054605F028FC6F
:10F6D0004FF6FF74002808BF00242846FFF76AFF92
:10F6E000EB69B5F904000093B5F906100430224621
:10F6F0004FF61E03FDF719FC3EBD13B50446FFF798
:10F7000059FFE369B4F904000093B4F9061004301A
:10F7100000224FF61E03FDF708FC1CBDF0B585B0B6
:10F72000044605F0FDFB4FF6FF75002808BF0025D5
:10F73000204605F0F5FB90B102AB221D92E80300D4
:10F7400083E80300BDF808201846083AADF8082001
:10F75000BDF80C200832ADF80C20FFF704FF20465E
:10F7600005F0DEFB58B1174BB4F904000093B4F96F
:10F77000061007382A464FF61E03FDF756FA276A89
:10F7800020463B681E6905F0CBFB211D024638462A
:10F79000B047206AA78803685B69984706462046F9
:10F7A00005F0BEFB58B1084B3FB2781C0093B4F98A
:10F7B000061080192A464FF61E03FDF736FA05B0EB
:10F7C000F0BD00BFA84E06081A4F060838B54FF620
:10F7D0001F03994204460A4607D00569616980689B
:10F7E000E3682818C918FDF7E5F86269236912F083
:10F7F000010F07D0591E002921610BDA0132236164
:10F80000626138BDA069591C8142216102DB01326D
:10F810002361626138BD10B500231A46416811F8B2
:10F82000014B416004F07F019140073214F0800FDA
:10F8300043EA0103F2D1184610BD38B54FF0FF334B
:10F8400003600B780446472B0D461CD18B1C43608C
:10F85000FFF7E1FFA0612046FFF7DDFFE0616B7875
:10F86000422B10D1234604F1200061680A4612F8A9
:10F87000015B626049780132626041EA05221A84C4
:10F8800002338342F1D138BD03460068B0F1FF3F37
:10F8900006D15A6812F8010B18605A6000117047BF
:10F8A0004FF0FF3200F00F001A60704770B500246F
:10F8B000064625463046FFF7E7FFC0B200F00703D3
:10F8C000AB40033510F0080F44EA0304F2D12046A0
:10F8D00070BD00002DE9F8434FF0FF3303600133A2
:10F8E000036143618769C36904468160C260D0F8DF
:10F8F00004805F4301262FE0AEB12046FFF7D6FF1C
:10F90000451C2046FFF7C0FF0026814607E009F1AD
:10F910001003204634F81310FFF758FF0136AE42AB
:10F92000F5DB002612E02046FFF7AEFF451C0AE09B
:10F930002046FFF7A9FF00F1100334F8131020460A
:10F94000FFF744FF0136AE42F2DB01267F1B03D5F1
:10F9500004484821FDF72AFB002FCDDCC4F80480C1
:10F96000BDE8F8839F790208074A08481168084BE8
:10F9700030B50468074DCB1805FB04330131036033
:10F9800058041160400C30BD78A3002018300020CE
:10F99000F390240021F17D0030B5264B89B0044658
:10F9A00005AD93E807000C3385E8070093E80700EE
:10F9B00094F8203002AD85E80700C3B1201D4FF652
:10F9C000FF71FDF7FEF8B4F90400B4F90A101A4B00
:10F9D0000830009314394FF61E030022FDF7A5FAF4
:10F9E000002384F82030059B6362029BA362FFF72B
:10F9F000BBFF032290FBF2F202EB420208A9821A3B
:10FA000001EB82020346616A52F80C0C9B0040181D
:10FA10004010606252F8181CA26A89184FF6FC72F6
:10FA2000491003EA0202A16209B0BDE83040FCF7C8
:10FA3000C1BF00BF18720208B7790208416270475F
:10FA400073B5044616460D4619B90C480D21FDF74D
:10FA5000ADFA0B4B00211B682046B3F840300A4634
:10FA60002386E56202230096FEF7D9F9204604F1C9
:10FA7000300102B0BDE87040FFF7E0BFCA7602086F
:10FA8000C8A3002073B5054616460C4619B90A48A6
:10FA90000C21FDF78BFAEC62284634F8062F002182
:10FAA00002230096FEF7BBF92846214602B0BDE8C6
:10FAB0007040FFF7C3BF00BF237702082DE9F04174
:10FAC0000C46154698460026A75B1FB94FF61F0344
:10FAD000A3530DE0FA08294602F0FC02404605F067
:10FAE00071F9FA0AA0530021D20005F06BF9A05376
:10FAF0000236202EE8D1BDE8F08110B592B0044660
:10FB000005F00EFA231D218C70B11846FFF72FFC6B
:10FB1000616A21B302A8FFF790FE20460AA94EF2BF
:10FB200010424FF6FF730DE01846FFF7DBFB616AEA
:10FB3000A9B102A8FFF781FE20460AA94EF21C7265
:10FB40004BF29653FFF7BAFF089BB4F90810B4F9CB
:10FB50000A20C91A099B02A8D21AFFF7BBFEE36963
:10FB6000B4F904000093B4F906100C3000224FF6EB
:10FB70001E03FDF7DAF912B010BD41608260037315
:10FB80007047000008B50379012B09D002D3022B7E
:10FB90000FD10AE08368188800F01F00400808BDF4
:10FBA00083681888C0F3C31008BD83681888000BE9
:10FBB00008BD03484FF48271FDF7F8F9002008BD35
:10FBC0006E77020830B54FF6FF7585B00C46002AF7
:10FBD00008BF0025FFF7D6FF05F020F800238DF8B9
:10FBE0000D3003AB8DF80C000093B4F90000B4F9AC
:10FBF00002102A464FF61E03FDF7B8F905B030BDD6
:10FC0000002908B50CDDFFF7BDFF0E288CBF0020D2
:10FC1000012008BDFFF7B6FF003818BF012008BD5E
:10FC2000F8DB002008BD00000379012B12D002D3BD
:10FC3000022B2CD11DE08268138823F01F031B04C4
:10FC40001B0C0F2902D04900C9B200E01F2141EA74
:10FC500003031AE08268138823F4FC631B041B0C63
:10FC60000F2902D08900C9B200E03F2143EA4113C5
:10FC70000BE0826813885B055B0D0F2902D04900F9
:10FC8000C9B200E01F2143EAC12313807047024834
:10FC90004FF48E71FDF78AB96E77020810B50446ED
:10FCA000FFF770FF30B1411EC9B22046BDE81040D9
:10FCB000FFF7BABF10BD10B50446FFF763FF0E286B
:10FCC00006D8411CC9B22046BDE81040FFF7ACBFC2
:10FCD00010BDC8684042704710B5044605F026FACA
:10FCE000014B2046236010BD606B0208014B03608E
:10FCF000704700BFA86B020810B50446FFF7F6FF77
:10FD0000014B2046236010BD806B020810B50446ED
:10FD1000FFF7ECFF014B2046236010BDD06E0208B8
:10FD200010B5044605F002FA014B2046236010BDD1
:10FD3000F06B020810B50446FFF7F2FF014B2046B6
:10FD4000236010BDD06B020810B50446FFF7E8FF32
:10FD5000014B2046236010BD7070020838B50D4B72
:10FD60001B68D3F8BC40002C11DDD3F8B000013083
:10FD700013F074F90146084813F078FA0546204656
:10FD800013F06CF90146284613F070FA38BD0020D4
:10FD900038BD00BFC8A3002000BA5B4A37B504468F
:10FDA000FFF72EF82046FFF7D9FF13F071FB13F091
:10FDB00055F90821B4F90450B4F9064004F084FF61
:10FDC0001C35103400902146284600224FF61E03B1
:10FDD000FDF7CCF83EBD000038B5104B0846104981
:10FDE0001C6813F08FF90546D4F8BC0013F036F9FF
:10FDF0000146284613F086F901460A4813F036FA00
:10FE000013F046FBD4F8B03001380128B8BF012008
:10FE1000C4F8B000C01A18BF012038BDC8A3002024
:10FE20000000A0414054894C2DE9F04711F0010930
:10FE300004460D4603D111F0020F00F0CE8020469B
:10FE4000FFF78CFF00210646012713F00DFB00B9D8
:10FE5000002717F0FF0F03D162482321FDF7A6F812
:10FE60003046614913F0F6FAE8B930465F4913F0BD
:10FE7000F1FAD8B930465E4913F0ECFAC0B9304611
:10FE80005C4913F0E7FAA8B930465B4913F0E2FA8F
:10FE900090B93046594913F0DDFA78B930465849DF
:10FEA00013F0D8FA60B94FF07E570AE0554F08E0DA
:10FEB0004D4F06E04D4F04E04D4F02E04D4F00E046
:10FEC0004D4FB9F1000F11D03046394613F0D6FA34
:10FED00028B13046394613F00BF8804600E0B046B2
:10FEE0004046002113F0B6FA10B903E0B04601E035
:10FEF0004FF07E5815F0020F10D04046424913F0E3
:10FF00009FFA20B14046394612F0F4FF8046404641
:10FF1000002113F09FFA08B14FF07E583946404651
:10FF200013F0A4F913F0B4FA13F098F8394613F06B
:10FF3000E9F84FF07E51074613F082FA08B14FF00E
:10FF40007E573846314613F071FA002843D13946BE
:10FF50002046FFF741FF80462046FFF7FFFE31466F
:10FF60008246384613F08AFA38B15046314613F0CB
:10FF700071FA002818BF4FF000083846314613F0D8
:10FF80005FFA20B15046314613F06EFA10B9B8F15D
:10FF9000000F16D11D4BB9F1000F07D01B68D3F825
:10FFA000B000B0F5803F0CDA013005E01B68D3F8F3
:10FFB000B000012805DD0138C3F8B00080B2FDF7BC
:10FFC0005FFA204604F0BCFF2046E16846F6751251
:10FFD000002304F0BCFF20462946BDE8F047FDF7AA
:10FFE000F5BC00BFC47902080000C84200007A4492
:10FFF00000401C460050C347002474498096184BAB
:020000040801F1
:1000000020BCBE4C000020418096984BC8A3002025
:1000100010B5054C2368586AFCF76EFA2368986A95
:10002000BDE81040FCF76FBAC8A3002010B5054C1E
:10003000890023685962FFF7EBFF2068BDE8104094
:1000400003F094BDC8A3002010B5074C89002368B5
:100050009962FFF7DDFF6420FCF70AFA2068BDE82B
:10006000104003F083BD00BFC8A300202DE9FF416D
:10007000044604F055FF4BF29655B4F90A204FF6AA
:10008000FF73002818BF1D46B4F90410B4F90830F6
:10009000101F083B0C3A0090123102A8FEF701FA3B
:1000A00002A844F20821FCF78CFD02210A460B4607
:1000B00002A80091FEF72EFB02A8FEF749FB236879
:1000C0008046DB6920469847236807469B6A20469E
:1000D0009847236806465B6A20469847A8F11008AF
:1000E00007FB08F7361ABDF8083097FBF6F7FF183C
:1000F000BFB2ADF8087002A810372946ADF80C70F1
:10010000FCF75FFDBDE8FF81036870B5DB690E4653
:100110000446984716F0010F05460DD02368204687
:100120005B6A9847854207DD236820461B6A691E83
:1001300098472046FFF79AFF16F0020F0DD023686C
:1001400020469B6A9847854207DA236820461B6A47
:10015000691C98472046FFF789FF20463146BDE8D5
:100160007040FDF733BC10B50446FEF749FE20464B
:10017000BDE81040FFF77ABF0A4B73B51A6800F16B
:10018000300405460E462046083201230649FFF793
:10019000F4FC28462146054A48F210430096FDF734
:1001A00077FE7CBDC8A30020EC7E0208F47902082B
:1001B00007B5009111461A4648F21043FDF768FE54
:1001C0000EBD4160704700007FB51546F023282220
:1001D00004460E4600933C219B1802A8FEF761F9E5
:1001E0002A4602AB214D20462149009604F06CFEC0
:1001F00004F120002146FFF7BFFF296804F16006E3
:1002000030460C31FFF7DDFF324604F1680021462D
:10021000184BFFF7CDFF296804F1980630461031DE
:10022000FFF7CFFF324604F1A0002146124BFFF743
:10023000BFFF296804F1D00630461431FFF7C1FF33
:10024000324604F1D80021460C4BFFF7B1FF296874
:1002500004F5847630461831FFF7B3FF04F5887053
:1002600021463246064BFFF7A3FF7FBDC8A30020FF
:10027000017A0208157A0208237A0208337A020802
:100280003D7A0208436810B51C68002C06DB08F0B4
:10029000D5FF0C2303FB0404606810BD024BE4434C
:1002A00053F8240010BD00BFF47E020808B5FFF724
:1002B000E9FF13F03DFCC3004FF6F87003EA0000BD
:1002C00008BD73B54FF6FF740E88002A08BF0024DE
:1002D000B1F90250FFF7D6FF29460090224630467A
:1002E0004FF61E03FCF721FE7CBD000038B50C461E
:1002F000154608F0A3FF002C02DB08D1002D06DA1A
:10030000114B2D1915F1050FB8BF1D461AE0002D30
:100310004FF00C030ADD651C03FB040402E00C34FF
:1003200083B10135237B022BF9D10AE0651E03FB63
:10033000040403E014F80C3D23B1013DB5F1FF3F87
:10034000F8D1014D284638BD19FCFFFF10B54468AF
:100350004FF0FF322168FFF7C9FF206010BD10B5D4
:10036000446801222168FFF7C1FF206010BD000032
:1003700008B543680A461968FFF7B8FF024BC01A70
:1003800018BF012008BD00BF19FCFFFF10B50446CF
:1003900004F0CCFE014B2046236010BD186B020810
:1003A00010B50446FFF7F2FF014B2046236010BD55
:1003B0004870020810B50446FFF798FC014B204630
:1003C000236010BD9070020810B50446FFF7A8FC2A
:1003D000014B2046236010BDD870020870B5054659
:1003E000FFF79EFC064B2C4644F8203B05F1B00677
:1003F00020462434FFF7E8FFB442F9D1284670BD07
:10040000B870020810B50446FFF770FC014B204697
:10041000236010BDF870020810B50446FFF75CFCBD
:10042000214B204640F8243BFFF78EFC04F14400AA
:10043000FFF78AFC04F16400FFF786FC04F18400F6
:10044000FFF782FC04F1A400FFF7B4FF04F1B00051
:10045000FFF7B0FF04F1BC00FFF7ACFF04F1C800E8
:10046000FFF7A8FF04F1D400FFF7B8FF04F5C2704E
:10047000FFF7A0FF04F5C870FFF79CFF04F5CE70EE
:10048000FFF798FF04F5D470FFF794FF04F5DA70D6
:10049000FFF7A4FF04F51970FFF7B4FF04F51B7014
:1004A000FFF748FC204610BD608D020810B50446D9
:1004B000FFF736FC014B2046236010BD2071020877
:1004C00010B50446FFF708FC2D4B204640F8643B6E
:1004D000FFF7ECFF04F18400FFF7E8FF04F1A4004C
:1004E000FFF7E4FF04F1C400FFF72EFC04F1E40081
:1004F000FFF72AFC04F58270FFF726FC04F59270E2
:10050000FFF722FC04F5A270FFF71EFC04F5B270A1
:10051000FFF71AFC04F5C270FFF7EEFB04F5CA7092
:10052000FFF708FC04F5DC70FFF7E6FB04F5E47068
:10053000FFF700FC04F5F670FFF764FF04F5FA70AE
:10054000FFF7F8FB04F50670FFF75CFF04F5087091
:10055000FFF7F0FB04F51170FFF72CFF04F51470A2
:10056000FFF728FF04F51770FFF724FF04F51A7052
:10057000FFF720FF04F51D70FFF730FF204610BD88
:10058000808C020810B5044604F0D0FD114B2046C3
:1005900040F8203BFFF704FF04F15000FFF7F6FEA0
:1005A00004F17C00FFF7F2FE04F1A800FFF7EEFE75
:1005B00004F1D400FFF7EAFE04F58070FFF7E6FED1
:1005C00004F59670FFF728FF04F57170FFF778FFC8
:1005D000204610BDB88D020870B504460D4616467B
:1005E00004F0A4FD024B256223606662204670BDC4
:1005F0007095020870B504460D46164604F096FD47
:10060000024B256223606662204670BD5095020849
:1006100070B504460D46164604F088FD034BED0008
:10062000F600236025626662204670BD30950208A0
:1006300010B5202132220446FFF7CEFF014B2046A1
:10064000236010BD706A0208202110B50A460446D6
:10065000FFF7C2FF014B2046236010BD906A0208DD
:1006600010B5202107220446FFF7C4FF014B2046A6
:10067000236010BDB06A020810B520211022044684
:10068000FFF7C6FF014B2046236010BDD06A020869
:1006900070B5438986B0A3F11802153BADF812205E
:1006A000ADF816300546066EFCF766FE4FF4C874CA
:1006B0006643B6FBF0F06D6EADF81000FCF75CFE23
:1006C00001356543BDF81030B5FBF0F5ADF81450B9
:1006D0001AB22DB2AD1A012D07DC0233ADF8143079
:1006E0001BB2A342C8BFADF8144004AC20464FF67D
:1006F000FF71FCF766FABDF8102013B2002B0EDD77
:1007000002AB94E8030083E80300ADF80C20184620
:10071000002244F20821ADF80820FCF752FABDF897
:10072000142013B2B3F5C87F0FDA02AB04A903C9D2
:1007300083E80300ADF8082018464FF4C87244F26D
:100740000821ADF80C20FCF73CFAFCF73FFE04460C
:10075000FCF712FE4FF4C8735C43BDF91210BDF9EB
:1007600016301F22B4FBF0F0009201310246013B2B
:10077000FCF784FC06B070BD10B5044604F0D6FC4E
:10078000044B20462360012384F82030013B636240
:1007900010BD00BFE071020804F0D2BB47F269410E
:1007A0008A4201D1FFF7F8BF44F644418A4205D09E
:1007B00001318A4202D1012280F82020704710B511
:1007C00001704270837010BDF8B5114B4FF4AF77D4
:1007D00007FB013700F13C040E2615E07B5D202B62
:1007E00002D0232B06D101E0012300E0002304F80E
:1007F000013B03E00748F821FCF7D8FB0135192D30
:10080000ECD11937013E01D00025E7E7F8BD00BF64
:1008100030720208477A0208192303FB0213C0183A
:100820003C30704773B50646FFF79EF81923B0FBBE
:10083000F3F505FB1305FFF797F80E23B0FBF3F470
:1008400004FB1304294630462246FFF7E5FF0378F0
:10085000012BE9D101330370E2B2023B01A8E9B2F6
:10086000FFF7ADFF019B00201A0CDBB263F307001A
:100870009DF8053063F30F20D3B263F317407CBDBE
:10088000002310B50446C362FFF76EF81923B0FBCE
:10089000F3F202FB13036362FFF766F80E23B0FB6B
:1008A000F3F202FB1302616AA2622046FFF7B4FF73
:1008B0000378012BE8D10433037010BD2DE9F04714
:1008C0004FEA41180F242FE0032B03D8DFE803F091
:1008D00005090C0F00252E460BE0C0F10F063D4622
:1008E00007E02646054604E02546064601E00546A3
:1008F0003E46134946EA05154AEA400601EB8606DC
:10090000D6F8786146FA09FC1CF00F0C08BF4FF0CE
:10091000020C01EB4C01B1F878140130102822F8D8
:100920001510D1D1013C09D3C4F10F0704F0070918
:1009300048EAE70A4FEA89090020C5E7BDE8F087E1
:100940001872020870B5ADF5027D0C4606461546D4
:10095000FFF762FF0178052903D1304602AAF36A46
:1009600006E0042908BF336B304602AA18BF0023F3
:10097000FFF7A4FF02A8691C621CAB1C00904FF497
:10098000807001900901200112011B01FCF788F819
:100990000DF5027D70BD11F0020F034606D0C26A4C
:1009A0000132032AC2620EDD002206E011F0010FBF
:1009B00007D0C26A002A02DD013ADA6203E00322AC
:1009C000FBE704F03ABB596A9A6A1846FFF7BABFC8
:1009D00070B5064600240AE0294630462246013515
:1009E000FFF7B0FF192DF7D101340E2C01D00025EF
:1009F000F2E770BD10B5044604F0A2FCA36B6FF0E3
:100A00000901594301F5967120466429B8BF642154
:100A1000BDE8104004F0AEBB10B50446FBF718FD6E
:100A200040F22D1360602381204610BD038813B966
:100A300040F22D13038109880180704738B50446C0
:100A40000D46FBF705FD62682389821A9A4215D983
:100A500023889BB12B80238940F22D129342606042
:100A600002D14FF4967307E0B3F5967F01D164236A
:100A700002E00A2B04D90A3B238138BD00232B80D6
:100A800038BD000010B5044604F050FB014B204671
:100A9000236010BD288A020810B5044604F046FB06
:100AA000014B2046236010BD506A020810B5044671
:100AB000FFF76CFC014B2046236010BDF06A020872
:100AC00010B50446FFF708F9114B204640F8283BC3
:100AD000FFF712F904F13800FFF70EF904F14800AE
:100AE000FFF70AF904F15800FFF706F904F168006E
:100AF000FFF720F904F18C00FFF71CF904F1B000B6
:100B0000FFF718F904F1D400FFF714F9204610BDDF
:100B1000406B020870B5054604F008FB084B2C46F4
:100B200044F8203B05F5AC7620463434FFF7BEFF91
:100B3000B442F9D12046FFF7C3FF284670BD00BF7D
:100B4000F091020810B50446FFF720FC014B204647
:100B5000236010BD686C020810B50446FFF7F2FF71
:100B6000014B2046236010BD306C020810B50446CE
:100B7000FFF7E8FF014B2046236010BDA06C020880
:100B800010B5044604F0D2FA094B204640F8203B49
:100B9000FFF7E2FF04F14C00FFF7E8FF04F17800F3
:100BA000FFF7F4FB04F1A400FFF7F0FB204610BDB3
:100BB000106C020810B50446FFF7E8FB014B204615
:100BC000236010BD206D020810B50446FFF7F2FF48
:100BD000034B204640F8303BFFF78EF8204610BD0F
:100BE000F86C020810B50446FFF780F8014B204668
:100BF000236010BD486D020810B50446FFF7DAFF08
:100C0000014B2046236010BD706D020810B50446EC
:100C100004F08CFA134B204640F8203BFFF7D4FF3A
:100C200004F16000FFF7DEFF04F16800FFF7E4FF66
:100C300004F19800FFF7D6FF04F1A000FFF7DCFFF6
:100C400004F1D000FFF7CEFF04F1D800FFF7D4FF86
:100C500004F58470FFF7C6FF04F58870FFF7CCFF3A
:100C6000204610BDD86C020810B50446FFF78EFB75
:100C7000014B2046236010BD986D020810B5044654
:100C800004F054FA194B204640F8203BFFF734F8A3
:100C900004F13000FFF730F804F14000FFF72CF8C2
:100CA00004F15000FFF728F804F16000FFF724F882
:100CB00004F17000FFF720F804F18000FFF7D4FF83
:100CC00004F1B000FFF7D0FF04F1E000FFF7CCFF24
:100CD00004F58870FFF7C8FF04F5A070FFF7C4FFA4
:100CE00004F5B870FFF7C0FF204610BDF09402086D
:100CF00010B50446FFF75EFF034B204640F8303B3B
:100D0000FEF7FAFF204610BDC06D020810B504467C
:100D1000FFF73CFB014B2046236010BDE86D020845
:100D200010B50446FFF732FB014B2046236010BD8F
:100D3000106E020810B50446FFF728FB014B204651
:100D4000236010BD386E020810B5044604F0EEF9B9
:100D5000094B204640F8203BFFF7CAFF04F1600032
:100D6000FFF7D4FF04F18C00FFF7DAFF04F1BC00B9
:100D7000FFF7E0FF204610BD909F020870B50546C2
:100D800004F0D4F9064B2C4644F8203B05F1FC0650
:100D900020462C34FFF7FAFAB442F9D1284670BD48
:100DA00070A0020810B5044604F0C0F90D4B2046AF
:100DB00040F8203BFFF7EAFA04F14C00FFF7E6FAAF
:100DC00004F17800FFF7E2FA04F1A400FFF7DEFA7D
:100DD00004F1D000FFF7DAFA04F1FC00FFF7D6FACD
:100DE000204610BDE09F020810B50446FFF7CEFA7A
:100DF000014B2046236010BD606E020810B504460A
:100E0000FFF7C4FA014B2046236010BD886E02082C
:100E100010B50446FEF760FF0D4B204640F8283B16
:100E2000FEF76AFF04F13800FEF784FF04F15C006E
:100E3000FEF76CFF04F16C00FEF77CFF04F19000FC
:100E4000FEF764FF04F1A000FEF774FF204610BD1A
:100E5000B06E020810B50446FEF748FF014B20466D
:100E6000236010BD186F020810B50446FEF73EFF60
:100E7000014B2046236010BD406F020810B50446A8
:100E8000FEF72AFF154B204640F8283BFFF7E2FF0C
:100E900004F13000FFF7E8FF04F13C00FFF7E4FF46
:100EA00004F14800FFF7E0FF04F15400FEF742FFB1
:100EB00004F17800FEF73EFF04F19C00FEF73AFFD4
:100EC00004F1C000FEF736FF04F1E400FEF714FF62
:100ED00004F1F400FEF72EFF204610BDF86E020864
:100EE00010B5044604F022F90D4B204640F8203B93
:100EF000FFF77AFF04F15000FFF776FF04F180005E
:100F0000FFF772FF04F1B000FFF778FF04F1E00093
:100F1000FFF77EFF04F5D270FFF7B0FF204610BD4B
:100F2000A094020810B5044604F000F9014B2046D5
:100F3000236010BD686F020810B5044604F0F6F88F
:100F4000014B2046236010BD886F020810B504468F
:100F500004F0ECF8014B2046236010BDA86F020896
:100F600010B5044604F0E2F8014B2046236010BDA2
:100F7000E86F020810B5044604F0D8F8014B20468B
:100F8000236010BD0870020810B5044604F0CEF8C6
:100F9000014B2046236010BD2870020810B504469E
:100FA00004F0C4F8014B2046236010BD6896020887
:100FB00010B5044604F0BAF8014B2046236010BD7A
:100FC0004071020810B5044604F0B0F8114B2046F9
:100FD00040F8203BFFF7ECFF04F14800FFF7E8FF83
:100FE00004F17000FFF7E4FF04F19800FFF7E0FF61
:100FF00004F1C000FFF7DCFF04F1E800FFF7D8FFC1
:1010000004F58870FFF7D4FF04F59C70FFF7D0FF5C
:10101000204610BDD88A020810B5044604F086F8B0
:10102000014B2046236010BD6071020810B50446D4
:1010300004F07CF8014B2046236010BDA07102082B
:1010400010B5044604F072F8054B204640F8303BDA
:10105000FFF7ECFF04F15000FFF7E8FF204610BD5A
:101060008071020870B5044604F060F80A4B20460F
:1010700040F8303BFFF7DAFF04F15000FFF7D6FFEE
:1010800004F1700504F1F00628462035FFF7CEFF85
:10109000B542F9D1204670BD58AC020810B50446DF
:1010A00004F044F8014B2046236010BD38AC020820
:1010B00010B5044604F03AF8054B204640F8203BB2
:1010C000FFF7B4FF04F14000FFF7B0FF204610BD6A
:1010D000C0710208F8B5046805460E461046214660
:1010E00011F006FF0746B6F90200B6F90060801B52
:1010F00011F0B4FF0146384612F004F821460746C5
:10110000686811F0F5FE0146384612F0AFF8044663
:10111000304611F0A3FF0146204611F0EBFE12F01D
:10112000B7F9F8BD0A4600F10801FFF7D3BF000088
:101130000A4B10B5C06A1C6811F090FF084912F004
:1011400095F804F59A640C3401462046FFF7EAFF4F
:1011500080B2BDE81040FCF789B900BFC8A30020E9
:101160000000204111F0010F70B504460D4609D072
:10117000C36A032B06DD013BC36203F0E1FE204698
:10118000FFF7D6FF15F0020F0AD0E36A182B07DC31
:1011900001332046E36203F0D3FE2046FFF7C8FF89
:1011A00020462946BDE87040FCF710BC70B5052309
:1011B000002408E0E5186D1030F91560B242B8BFA0
:1011C0002B46A8BF2C461D1B012DF3DC30F9145013
:1011D00051F8244051F82310521B091B4A4330F99F
:1011E0001300451B92FBF5F0001970BDB0F90030FB
:1011F00010B50C684968D21A091B4A43B0F90200BD
:10120000C31A92FBF3F0001910BD00002DE9F8435A
:101210008F7930257D43B1F90A90064605F1180112
:101220004019144671184A460C30FFF7BFFF80463C
:1012300060607019011D4A46FFF7D8FF044BA0609B
:1012400053F8273090FBF8F0E0602360BDE8F883A6
:10125000C06F0208F0B5314D87B00446002104305C
:10126000FBF7AFFC2B68C826B3F89C30B4F90A1022
:1012700073432B4A0539A1EB132100924FF61E034D
:10128000B4F9040046F20C32FBF7CFFC296891F860
:101290005030E3B101F5577002AA4C31FFF7B6FFA9
:1012A0002F6802A907F55770FEF713FD80B2464379
:1012B000B4F90A101B4B0539B7F85420B4F90400EF
:1012C0000093A1EB16214FF61E03FBF7AEFC296835
:1012D00091F83C3003B301F5EE7002AA3831FFF704
:1012E00095FF0E4B02A91D6805F5EE70FEF7F1FCA7
:1012F000C82100B24843B4F90A100539A1EB2021F6
:10130000E82909D8084BB5F84020B4F90400009347
:101310004FF61E03FBF789FC07B0F0BDC8A3002001
:10132000B95006084D510608545006080868904206
:1013300001DA0A6070479842C8BF0B60704713B566
:101340000B780C469B18009301A8FF2369460022E6
:10135000FFF7ECFF009B23701CBD00009D4B2DE9A7
:10136000F0411B68044693F8A8300D46072B03D0C4
:1013700099487C21FBF71AFE15F0020F29D0256B46
:101380000FF0E0F80368013B9D4280F2208104F1F8
:101390000408231D03CBC4F82600C4F82A104046D5
:1013A000FDF7D6F9256BA78C05FB00F6E38C96FBC1
:1013B000F7F6023B9E19B6B2E6844046FDF7C8F93F
:1013C000400090FBF7F70437F61901356685256371
:1013D00024E015F0010F26D0256B002D40F3F78097
:1013E000013D271D231D03CB2563C4F82600C4F847
:1013F0002A103846FDF7ACF94543A68CE38C95FBE3
:10140000F6F5023B5D19ADB2E5843846FDF7A0F96B
:10141000400090FBF6F60436AD1965852046BDE820
:10142000F04103F08DBD15F0040F3AD0256B002D6F
:1014300004DB0FF087F803689D4203DB66489721C1
:10144000FBF7B4FD0FF07AF8216B626B4118204670
:10145000FFF775FF636B082B12D1256B0FF072F845
:10146000036801359D420BDA0FF068F8216B626B5F
:10147000013102EBD272411852102046FFF75FFF94
:10148000636B082B4FD1236B012B4CDD0FF056F80B
:10149000216B626B013902EBD27241185210204667
:1014A0003FE015F0080F74D0256B002D04DB0FF022
:1014B00049F803689D4203DB4748AD21FBF776FD01
:1014C0000FF03CF8216B626B411852422046FFF747
:1014D00036FF636B082B13D1256B0FF033F80368CD
:1014E00001359D420CDA0FF029F8626B216B02EB9B
:1014F000D27201315210411852422046FFF71FFFAD
:10150000636B082B0FD1236B012B0CDD0FF016F84A
:10151000626B216B02EBD2720139521041185242B8
:101520002046FFF70CFF0FF0E9F8261D231D03CB23
:10153000C4F82600C4F82A103046FDF709F9276BD5
:10154000E38C4743A58C013B97FBF5F7DF19BFB24E
:10155000636B07F10A081FFA88F8082BE784A4F8E0
:101560002A807FF45BAF3046FDF7F2F843005B4220
:1015700093FBF5F30137FF18E7843046FDF7E8F8F1
:10158000400008F1FF3890FBF5F5A844A4F82A8044
:1015900044E715F0100F08D0636B2046082B14BFEA
:1015A00008230123636303F0CBFC15F0200F0ED05A
:1015B000A36B1BB90848CA21FBF7F8FCA16B2046B6
:1015C00046F278520023BDE8F04103F0C0BCBDE80C
:1015D000F08100BFC8A300205479020800292DE93A
:1015E000F74F0F46B8BF01F1FF073F1240F6FF73F8
:1015F000C8B207F10A099945A8BF99460D4611F0EE
:101600002DFD4FF06E5111F07DFD2B4911F07AFD4B
:1016100011F08CF912F0A8FB11F016FCA7F10A04E6
:1016200024EAE4748046002637E02046FBF7A7FE54
:1016300090F800A0204611F011FD8346284611F0D5
:101640000DFD4FF06E5111F05DFD0146584611F051
:101650004FFC0021834611F0E9FE78B9584617493E
:1016600011F050FDE31B13F0010F01460CBF08F110
:101670000040404611F0FAFD834601E04FF07E5BEA
:10168000504611F0EBFC0146584611F03BFD014677
:10169000304611F02FFC013406464C45C5DD30467E
:1016A00011F0F6FE69460090002201A8FF23FFF723
:1016B0003DFE0098BDE8FE8FDB0F4940D80F494042
:1016C0002DE9F04FEDB00E4607920446FBF754FEAD
:1016D000FBF73BFEFBF77AFE0023054609AA41F221
:1016E0008200D0520233B3F5C67FF7D1B4F90800B7
:1016F000B4F90A10AC4B283800932639002348F27D
:101700001042FBF734FC226E636EAD1A9B1AB3F5E0
:10171000C87F4FF4C87203F10103C0F28F805543B4
:10172000012E95FBF3F3069301DD751E00E0002505
:101730004FF0FF377CE0626E216E0132521A02FBDD
:1017400005F301356A434FF4C87093FBF0F392FB45
:10175000F0F25B185218002109A841F2820C20F81F
:1017600001C00231B1F5C67FF6D106998B4508D18B
:1017700000214FF01F0C20F801C00431B1F5C47FE7
:10178000F7D14FF0FF389A46A446C1461C4633466F
:101790002E4615461EE050460493CDF814C0FBF7C4
:1017A000EEFD0178C620414340F2FF72090A09A804
:1017B000A24520F81120049BDDF814C006D089450D
:1017C000A8BF89468845B8BF884601E08846894653
:1017D0000AF1010AAA45DEDB9B45354664461E46F2
:1017E00005DDB845B8BFB846B945A8BFB94608EB4E
:1017F000090707EBD7777F10B34519DB0DF1240CF0
:101800000CEB49030BE033F8021B41F282029142D8
:1018100004BF4FF4826023F8020C09F10109C145AD
:10182000F1DB5846B4F9061009AAC623FBF72EFAD5
:101830000799AB468D42FFF67EAF98E05543012EE7
:1018400095FBF3F3CCBF06F1FF3A4FF0000A4FF0DF
:10185000FF38069357460025434684E0616E226EAA
:101860000131891A090279434FF4C870120291FBC1
:10187000F0F1891857454FEA212B40F38A805B45E8
:1018800000F087805846FBF77AFDD0F800900121E0
:10189000C6225FFA89F35343C63A1B0A09A841F2EC
:1018A000820C20F802C00232B2F5C67FF6D1069A49
:1018B000974208D100224FF01F0C20F802C00432DA
:1018C000B2F5C47FF7D157451ED09D4204DB6A1C98
:1018D00009A800EB420215E009AA681E02EB4000CD
:1018E0002A4601324FF4826C9A4220F802CFF8D196
:1018F0006A1CED43ED18551907E04FF4826022F899
:10190000020D013D9D42F8D11D4609AA41B140F2A8
:10191000FF7C22F813C03BB1581E22F810C003E030
:101920004FF4826022F81300B8F1FF3F0BD009AAF0
:1019300040F2FF7C22F818C0B8F1000F03D008F184
:10194000FF3822F818C0002914BF98464FF0FF381E
:10195000B74206DB3846B4F9061009AAC623FBF7DE
:1019600095F901375B4607988742FFF677AFBEB916
:101970000E4BB4F90A100093236E30460193636E48
:10198000103902934FF6FF7248F21043FBF7EFFA5B
:1019900006E02046FFF722FE002160F3070977E703
:1019A0006DB0BDE8F08F00BF627A0208677A020866
:1019B00010B500214FF4C8720446FFF781FE20469F
:1019C000BDE81040FEF764BEFFF7F2BF30B544F645
:1019D0004445AA4203D1BDE8304003F0B1BC44F60F
:1019E0004545AA4204D16421BDE8304003F0C2BBA2
:1019F00059B9042A09D146F26742934205D14FF4FE
:101A0000C872BDE83040FFF75BBE30BD0B4B10B570
:101A10001A6804460132132A1A6001DD00221A6096
:101A2000196814234A1C204659435A43FFF748FEBD
:101A30002046BDE81040FEF72BBE00BF74A3002077
:101A400013B54FF4C87204460021FFF739FE204653
:101A5000FEF71EFEB4F90A3048F210420092002050
:101A6000A3F114014FF4C872FAF7BCFF1CBDF0B526
:101A7000102987B004460D4640F0B58003F0D7F931
:101A800004F12003834201D1FBF73DFC204603F023
:101A9000CEF904F14003834240F09F800023236687
:101AA000FBF76AFC606695E003F0C1F904F12003DE
:101AB00083423BD1226E666EB61A0F2E01DD3311C2
:101AC00000E02B46D31A274647F8603FFBF754FC4B
