:020000040800F2
:10C000000000012005200108391E01083B1E01081F
:10C010003D1E01083F1E0108411E010800000000EE
:10C02000000000000000000000000000451E0108A4
:10C03000431E010800000000471E0108491E0108B8
:10C040004B1E01084D1E01084F1E0108511E01081C
:10C05000531E0108551E0108571E0108591E0108EC
:10C060005B1E01085D1E01085F1E0108611E0108BC
:10C07000631E0108651E0108671E0108691E01088C
:10C080006B1E01086D1E01086F1E0108711E01085C
:10C09000751E0108791E01087B1E01087D1E01081E
:10C0A0007F1E0108811E0108831E0108851E0108EC
:10C0B000871E0108891E01087D1F01087F1F0108D6
:10C0C000811F0108831F0108851F0108871F0108C0
:10C0D000891F01088B1F0108991F01089B1F010878
:10C0E0009D1F01089F1F0108A11F0108A31F010830
:10C0F000A51F0108A71F0108A91F0108AB1F010800
:10C10000AD1F0108AF1F0108B11F0108B31F0108CF
:10C11000B51F0108B71F0108B91F0108BB1F01089F
:10C12000BD1F0108BF1F0108C11F0108C31F01086F
:10C1300020B10368197003680133036070472DE96B
:10C14000F041161E04460D4614DD002200E00132C7
:10C15000A95C0029FBD1B24203F00208B4BFC2EBD4
:10C1600006060E46B8F1000F0CBF4FF020084FF046
:10C17000300801E04FF0200813F0010709D105E075
:10C1800020464146FFF7D4FF0137013E002EF7DC81
:10C1900005E0002703E02046FFF7CAFF013715F846
:10C1A000011B0029F7D105E020464146FFF7C0FFFB
:10C1B0000137013E002EF7DC3846BDE8F0812DE95D
:10C1C000FF410A9F05460B9EDDF830C08E4651B9EF
:10C1D00030238DF804308DF805103A4601A9334616
:10C1E000FFF7ADFF3CE03BB10A2A07D1002905DA91
:10C1F000C1F1000E012402E01C4600E0002404A965
:10C20000002301F8013D0EE0BEFBF2F302FB13EE4A
:10C21000BEF1090FC4BFACF13A0086440EF1300EF6
:10C2200001F801ED9E468846BEF1000FECD184B1C5
:10C230004FB116F0020F06D028462D21FFF778FFE8
:10C24000013F012405E02D2301F1FF3801F8013CF5
:10C250000024284641463A463346FFF770FF00194E
:10C2600004B0BDE8F0812DE9F0478AB006460D46DE
:10C2700005920024DBE0252B40F0D38015F8013F28
:10C28000002B00F0D880252B00F0CB802D2B02D185
:10C2900001352C3B03E0002301E043F00203294673
:10C2A00015F8012B302AF8D0002702E00A2202FB01
:10C2B00007070A780D46A2F130005FFA80FC0131D1
:10C2C000BCF1090FF2D9732A09D1059A3046111D24
:10C2D000059111685C4A002908BF11469DE0642A57
:10C2E0000ED1059A01936123111D029300970591C8
:10C2F00030461168603B0A22FFF761FF241895E081
:10C30000662A54D1059B073323F0070303F1080283
:10C31000D3E90001059213F057FF0021804614F085
:10C320004FFA38B12D238DF8183008F100480DF17F
:10C33000190A01E00DF1180A404614F069FA0123C8
:10C3400000E013460A225A439042FADA90FBF3F2D5
:10C3500002F1300103FB12000A2293FBF2F30AF808
:10C36000011B002BF2D124328AF80020002F08BFD5
:10C3700003279946404614F04BFA14F02FF8014673
:10C38000404613F075FF314914F07CF8804614F0F4
:10C390003FFA09F101093030B9450AF8010FE9DB2C
:10C3A00000228AF80120304606A9202336E0782AA8
:10C3B0000AD1059A01936123111D009702930591FB
:10C3C00030461168102219E0582A0BD1059A0193C2
:10C3D0004123111D02930097059130461168413B9E
:10C3E000102289E7752A0BD1059A01936123111D4B
:10C3F000009702930591304611680A22613B7BE762
:10C40000632A13D1059A3046111D126805918DF8E3
:10C41000242000228DF8252009A93A46FFF78FFE37
:10C420006CE730462978FFF783FE013401352B781D
:10C43000002B7FF420AF16B1336800221A7020461B
:10C440000AB0BDE8F08700BF583402080000204160
:10C45000014B1868704700BF98A90020034B188053
:10C460001A8892B2002AFBD1704700BFA4A900200D
:10C4700010B5322104460320F7F7E8FE014B1C807B
:10C4800010BD00BFA6A9002030B5002308E00A2493
:10C49000B0FBF4F104FB11003030D054013388B20A
:10C4A000084A0028F3D1D0545910013BD31804E0B6
:10C4B000145C5D7815545C700130013B8842F7DBF9
:10C4C000004830BD3031002008B506200021F7F7C4
:10C4D000C1FE5A234343A3F58223A3F56B6340F2C5
:10C4E000145093FBF0F00A306428A8BF642020EABF
:10C4F000E07008BD024B0E2202FB0030704700BF07
:10C5000048260208034B18801A8892B2002AFBD1F1
:10C51000704700BFA4A90020044A4FF48053136061
:10C520004FF0C0421080024A13607047141401405B
:10C530001014014010B5EF20FFF7EEFF4FF0C0439D
:10C540001A881C8818881A881988C3B2C9B241EAA7
:10C55000046141EA0343120643EA1242014B9A6026
:10C5600010BD00BF30310020054B4FF480521A60DF
:10C570004FF0C0431880034802601980704700BF25
:10C5800014140140101401402DE9F041E9204FF04E
:10C59000C044FFF7C1FF202222801120FFF7BCFF1B
:10C5A0006420FFF7AFFFD120FFF7B6FF0025172269
:10C5B0005E232580D02023802280FFF7ADFF0C264C
:10C5C00007232380362023804FF040082680FFF782
:10C5D000A3FF3046A4F800804936FFF79DFF268070
:10C5E0003A20FFF799FF2680C120FFF795FF533EC1
:10C5F00010232380C020238026802680FFF78CFF15
:10C60000012735232580C52023802580258027808C
:10C610002680FFF781FF2780D220FFF77DFF2223AE
:10C620002780C8202380FFF777FF732237232780D6
:10C630002280238004220F232580238026802280CD
:10C640006722A4F800802280258080222680238013
:10C6500008232380292022802580FFF75DFF2C20DE
:10C66000BDE8F04158E7002008B50146FFF77CFF20
:10C6700000200146FFF778FF00200146FFF774FF16
:10C6800000200146FFF770FF0A20FFF73BFF012162
:10C690004FF4C060FFF768FF0A20FFF733FF402127
:10C6A0004FF4DE60FFF760FF0A20FFF72BFF4FF427
:10C6B00080604FF4C441FFF757FF082040F608019F
:10C6C000FFF752FF01204FF48071FFF74DFF02206A
:10C6D0004FF48071FFF748FF03203021FFF744FF3C
:10C6E00009200121FFF740FF0C200021FFF73CFF4C
:10C6F00090204FF40041FFF737FF0F200021FFF794
:10C7000033FF10201621FFF72FFF112040F20111F7
:10C71000FFF72AFF12200021FFF726FF1320012137
:10C72000FFF722FF4FF480704FF44C71FFF71CFFAE
:10C7300040F2011040F23721FFF716FF40F20310DC
:10C740004FF47061FFF710FF4FF420704FF4D641A3
:10C75000FFF70AFF4CF2B0114FF48170FFF704FFAE
:10C760006420FFF7CFFE4FF440704FF44061FFF7B5
:10C77000FBFE40F2013045F60B21FFF7F5FE40F2DB
:10C78000023040F60611FFF7EFFE40F2033041F2AF
:10C790001701FFF7E9FE4FF441704FF40C51FFF71A
:10C7A000E3FE40F205304FF4B851FFF7DDFE40F2F2
:10C7B000063046F20931FFF7D7FE40F2073040F667
:10C7C0000941FFF7D1FE4FF4427041F20C01FFF72F
:10C7D000CBFE40F2093042F23221FFF7C5FE4FF4A2
:10C7E00004700021FFF7C0FE40F21120EF21FFF797
:10C7F000BBFE40F212200021FFF7B6FE40F21320EC
:10C8000040F28F11FFF7B0FE4FF4A0600021FFF758
:10C81000ABFE40F201500021FFF7A6FE40F20250AD
:10C820000521FFF7A1FE40F201400121FFF79CFE28
:10C83000002140F20440FFF797FE6420FFF762FEFC
:10C840004FF480710720FFF78FFE6420FFF75AFE38
:10C850004FF400700021FFF787FE002140F2012015
:10C86000FFF782FE054A4FF48053136040F2022125
:10C870004FF0C0421180024A136008BD14140140F9
:10C880001014014070B5104C4FF480534FF4006504
:10C89000236001202560FFF735FE0C4B0A201D6048
:10C8A000FFF730FE32202560FFF72CFEFFF742FE37
:10C8B000074B9A68074B9A4202D1BDE8704063E685
:10C8C000BDE87040CFE600BF1014014014140140D1
:10C8D00030310020279304020B4B10B59A680B4BA4
:10C8E0004FF0C0449A4209D12E20FFF715FE23884D
:10C8F00024882C20A4B2FFF70FFE02E023882488AE
:10C90000A4B2204610BD00BF30310020279304029E
:10C910000EB403B503AA52F8041B019001A80092BB
:10C92000FFF7A1FCBDE80C4003B07047AAE713B5C0
:10C9300002AC24F8020D00200146F7F767FC204600
:10C940004BF68031F7F770FCF7F76AFC20464BF6A0
:10C950008031F7F769FCF7F763FC1CBDC1F1EF010B
:10C9600010B580B289B21446F7F750FC2046BDE8F6
:10C970001040F7F74DBCC1F1EF0110B580B289B29C
:10C98000F7F744FCBDE81040F7F76EBC38B5151A50
:10C990005C1A6C434BF67F35AC4280B202F1FF3536
:10C9A000C3F1F0020FD9C1F1EF0392B2A9B29BB269
:10C9B0006508F7F733FC04A8A9B2F7F735FC641B48
:10C9C000F7F72EFC06E0C1F1EF0392B2A9B29BB2D9
:10C9D000F7F724FC04A8A1B2F7F726FCF7F720FC30
:10C9E000002040F28F110246EF23F7F717FC38BD05
:10C9F00037B50D464168044600954B1CA268006897
:10CA0000FFF7C4FFE3682068591EA2680095FFF78E
:10CA1000BDFF20686168421CE3680095FFF7B6FF20
:10CA2000A2686168501EE3680095FFF7AFFF3EBD46
:10CA30002DE9F14F0A9C1E460B9B88461746511E56
:10CA400004EB4309C6F1F002C8F1EF03054689B2D1
:10CA500080B292B29BB2F7F7E1FBA2460CE03AF843
:10CA6000020BF7F7D5FBCA4508BFA2460BF1010B35
:10CA7000BB45F4DB08F10108B04501DAAB46F7E746
:10CA8000002040F28F110246EF2301B0BDE8F04FC5
:10CA9000F7F7C4BBF8B505460F46046810E0EE682A
:10CAA00009E0C6F1EF01A0B289B2F7F7AFFBFFF7DB
:10CAB00013FF27F8020B6B68013E9E42F1DA013446
:10CAC000AB689C42EBDBF8BD2DE9F041C2684368DE
:10CAD0000D468168C2F1F0020139C3F1EF0304464B
:10CAE00089B2008892B29BB2F7F798FB66680AE0B9
:10CAF000276804E035F8020BF7F78AFB0137A368D3
:10CB00009F42F7DB0136E3689E42F1DB002040F2F2
:10CB10008F110246EF23BDE8F041F7F77FBB07B561
:10CB20000346009159689A680068DB68FFF72EFF9A
:10CB30000EBD70B5064E044606F10C051C360FC836
:10CB400085E80F0094E8030086E8030070BD00BF8D
:10CB50003031002010B5094C0246216AE069FFF728
:10CB6000FDFEE369626901339342E36104DBE3683C
:10CB7000E361236A0133236210BD00BF303100201E
:10CB800070472DE9F74F99460C9B0191924613F897
:10CB900001BB054600241DE018F8013BFBB113F072
:10CBA000040F4FF61E0305D09A450AD02846314699
:10CBB000524604E0994504D0284631464A46FFF7DC
:10CBC000CDFE013701365F454346E5DB01340135D3
:10CBD000502C03D0019E98460027F4E708242046F5
:10CBE000BDE8FE8F2DE9F0411E460F46B6B2C7F1F3
:10CBF000F00714460546F7F719FBB91BA8B289B22E
:10CC0000F7F704FB20463146F7F70CFBBDE8F0418F
:10CC1000F7F706BB30F0030309D131F0030208D166
:10CC200040EA81000449091891F8000E704700207D
:10CC300070471846704700BF482602082DE9F04F9C
:10CC400085B004469A469DF839009DF838300D4667
:10CC500016469DF83AB002900393274645E0C5EB8F
:10CC60000A01701E0139C01B3B1BC8EB0101984231
:10CC7000A8BF18464145A8BF4146FFF7CBFF68BB98
:10CC8000C9F1EF0189B2B8B2F7F7C0FAF7F7ECFAD9
:10CC90001A4BC10001F0FF01C208000A00EA0303B9
:10CCA000C1EB0B000190DDF808C0039802F0FC0214
:10CCB000C2EB0C0EC3EB000C03EB6C03DDF804C0FD
:10CCC000DB1001EB6C00C01040EAC32302EB6E00E6
:10CCD000801043EA401080B2F7F79AFA09F101098F
:10CCE00008F10108D145BADB0137B74203DAA9469A
:10CCF0004FF00008F6E705B0BDE8F08FF8FF070039
:10CD00002DE9F74F06468A4615461C46BDF830B059
:10CD100088462DE00AF10303984509D1E71E4146F4
:10CD200030462A463B46CDF800B0FFF72FFEB84606
:10CD3000B146002718E0A81B0138611EC01BC8EBD4
:10CD40000101CAEB0803B842A8BF38469942A8BF00
:10CD50001946FFF75FFF20B9484641465A46FFF79C
:10CD6000FDFD09F101090137A945E4DB08F10108DE
:10CD7000A045CFDBBDE8FE8F07B50346009159689B
:10CD80009A680068DB68FFF7BBFF0EBD2DE9F74F1F
:10CD900001909DF830001F460D469246FFF7AAFB12
:10CDA0004FF61E039F4283461DD100241BF80480CA
:10CDB000019F6FEA08085FFA88F8082618F0800FCC
:10CDC00004D0384661195246FFF7C8FD013EF6B25D
:10CDD000013726B14FEA48085FFA88F8EEE70134D8
:10CDE0000E2CE3D145E09A451FD100241BF8049096
:10CDF000DDF804806FEA09095FFA89F9082619F05D
:10CE0000800F04D1404661193A46FFF7A7FD013E65
:10CE1000F6B208F1010826B14FEA49095FFA89F92B
:10CE2000EDE701340E2CE1D123E000241BF804903F
:10CE3000019E6FEA09095FFA89F94FF0080819F0B5
:10CE4000800F08F1FF38304614BF52463A46294653
:10CE50005FFA88F8FFF782FD0136B8F1000F04D0C1
:10CE60004FEA49095FFA89F9E9E7013401350E2CE7
:10CE7000DCD10820BDE8FE8F2DE9F7430A9F054667
:10CE80000E4691469846AFB1387818B913E00A2B90
:10CE900002D110362C4607E00093204631464A4620
:10CEA0004346FFF773FF241817F8013B002BEED120
:10CEB000601B00E03846BDE8FE83DDE72DE9F04366
:10CEC000A5B015462CAA0E4652F8041B07460DF1D4
:10CED000080823A899462292CDF88C80FFF7C3F961
:10CEE000314604462A4638464B46CDF80080FFF7C7
:10CEF000E4FF204625B0BDE8F08337B5124B054668
:10CF00000C46009330211F2328204FF6FF72FFF7B5
:10CF1000D4FF20211F234FF6FF7228200095FFF732
:10CF2000CCFFA0B2FFF7B0FA102100904FF6FF72CD
:10CF300028201F23FFF7C1FF4FF47A7003B0BDE82C
:10CF40003040FFF78BBA00BF5F34020808B50248D3
:10CF50000421FFF7D2FFFEE7713402080FB430B5A9
:10CF6000A5B028AA52F8041B02AC23A8239422924D
:10CF7000FFF779F923941EE00A2B134C03D0656A5E
:10CF8000B5F5C47F09DBA26A00230E32E02A636292
:10CF9000A2620DDD0C4A93620AE000932846A16A62
:10CFA0004FF6FF724FF43043FFF7F0FE4019606216
:10CFB000239B01332393239B1B78002BDCD125B0CB
:10CFC000BDE8304004B07047303100202DE9F74F04
:10CFD000C0EB020B5F1A1FFA8BFBBFB20FFA8BFA82
:10CFE0000FFA87F84FEADB3BFF0BBDF83090BAF140
:10CFF000000FD4BFCBF1000BCBF1010BB8F1000F48
:10D00000D4BF7F42C7F10107BAF1000FB8BFCAF120
:10D01000000AB8F1000FB8BFC8F100084FEA4A0A89
:10D020004FEA480800921FFA8AFA1FFA88F84A461F
:10D03000019304460D460FFA8AF6FFF78FFC0FFAAC
:10D0400088F39E4220DB1FFA88F8A8EB6606B6B28A
:10D0500016E016F4004F09D11EB94FFA8BF3002BDE
:10D0600004DD7BB2CAEB0606ED18B6B24FFA8BF3BD
:10D07000E4184644204629464A46B6B2FFF76EFCFD
:10D08000009B9C42E5D11EE01FFA8AFAAAEB6306D8
:10D09000B6B215E016F4004F09D116B97BB2002BD9
:10D0A00005DD4FFA8BF3C8EB0606E418B6B27BB287
:10D0B000ED185644204629464A46B6B2FFF74EFCC4
:10D0C000019B9D42E6D1BDE8FE8F08B500210420FA
:10D0D000F7F7C0F8C3439BB2C3F3802013F4006F8B
:10D0E0001CBF40F0020080B213F0080F18BF40F0E0
:10D0F000040013F4004F18BF40F0080013F4804FF1
:10D1000018BF40F0100013F4005F18BF40F020007B
:10D1100013F4807F18BF40F0400013F4007F18BF65
:10D1200040F0800008BD07B50B200021F7F792F80A
:10D1300048B9084B303000931E211F224FF6FF7371
:10D14000FFF79AFEFEE71420002103B05DF804EB20
:10D15000F7F77CB897340208034B014683F82C009C
:10D160002420F7F773B800BF30310020014B93F84B
:10D170002C007047303100202DE9F14F05460C4658
:10D180000520002116469B469DF828A0BDF82C904E
:10D19000BDF83080BDF83470F7F758F809202946FB
:10D1A000F7F754F80A202146F7F750F800203146E7
:10D1B000F7F74CF80B205946F7F748F80C20514682
:10D1C000F7F744F801204946F7F740F807204146B1
:10D1D000F7F73CF80820394601B0BDE8F04FF7F703
:10D1E00035B808B503200021F7F734F8C0B208BD00
:10D1F000F7F720B806200121F7F728B82DE9F0410C
:10D2000006460C462220314615461F46F7F71EF803
:10D2100021202146F7F71AF8202047EAC501BDE88A
:10D22000F041F7F713B8B0F5805F10B503DD07489C
:10D230006B21FFF762FE0024FFF7DAFF044B185161
:10D240000434B4F5804FF7D110BD00BFB0340208EC
:10D25000603100204FF480507047B0F5805F10B50A
:10D26000044603D303487921FFF747FE024800EB49
:10D27000840010BDB034020860310020034670B550
:10D2800010200C4619461546F6F7E0FF11202146FE
:10D29000F6F7DCFF12202946BDE87040F6F7D6BF4E
:10D2A000094B10B51A68094C22F001021A60084AAD
:10D2B000146043F2B0521A60064A116090601A6816
:10D2C00042F001021A6010BD44040240087400409C
:10D2D0004C04024048040240034B0121A3F8480DCE
:10D2E00003F554600830DBE71864002001460D2088
:10D2F000F6F7ACBF004870476271002008B50346DE
:10D3000002730020012A587305D11A4609480833D0
:10D31000F6F7BCFF06E0022A09D11A460548083391
:10D32000F6F7B2FFD0F1010038BF002008BD0120A0
:10D3300008BD00BF6271002008B5034608461946C3
:10D34000F6F7A6FFD0F1010038BF002008BD10B5E8
:10D35000044608462146F6F79DFF20B9637B01305D
:10D360000133637310BD002010BD10B5037B04466C
:10D37000022B10D1B1F1FF3F08BF417B224608BF0D
:10D380004902074804F10803F6F786FF28B903238A
:10D390002373013010BD012010BD002010BD00BF5F
:10D3A00062710020F0B502EBD27700247F1001EB10
:10D3B000420523460DE0BB42B4BF31F813C035F837
:10D3C00002CC065F013306FB0CF6360C0653023D19
:10D3D00004349342EFDBF0BD0BF0D4BF42080346A8
:10D3E0000DD00021B3FBF2F080184008121A013270
:10D3F000022A04D9192902D001310246F2E7704706
:10D4000005E0054A118811F0800FFAD0938010F8DA
:10D41000013B002BF5D17047003801400F4B1048FD
:10D420009A6942F480429A610E4A40F27123138154
:10D4300042F22C039381138823F4A46323F00503A1
:10D440001B041B0C1380084B5A6822F47F6242F4C1
:10D450000A625A604FF480621A61D1E700100240FC
:10D46000DA340208003801400008014010B54FF4DA
:10D47000FA70FEF7F3FFFFF759FAFFF754FEBDE825
:10D480001040CBE704F0BCBC0E200021F6F7E2BE52
:10D490000D200021F6F7DEBE0F200021F6F7DABEE0
:10D4A00010200021F6F7D6BEF6F7C8BE014B9868EB
:10D4B000704700BF303100202DE9F0433F3189B083
:10D4C000234B804687B28CB2ADF1020213F8010CF7
:10D4D0001978C0108910C0024901411858780433E6
:10D4E00001EBD00122F8021F1A498B42EED11A4EED
:10D4F0003D4616F8013B08AA1B0902EB43032846E8
:10D500000135214633F8202CADB208F1FF09FFF7B1
:10D5100025FA4D4502DD013CA4B23D4616F8013C1A
:10D5200008AA03F00F0302EB430328460135214606
:10D5300033F8202CADB2FFF711FA4D4502DD013C66
:10D54000A4B23D46054B9E42D3D109B0BDE8F0835D
:10D5500037D8030877D8030876D8030876F8030885
:10D56000704700BF7047014B186870476473002014
:10D5700013B5FEF76DFF2A4B1A68B2F1FF3F08BFE3
:10D5800018601B68C41AB4F57A7F0ED94FF47A720A
:10D59000B4FBF2F402FB043321490B6003F0D6FA2A
:10D5A00000F546508369E4188461FFF78EFD02ACF4
:10D5B00024F8020D03F0CAFA00F5565021466430F3
:10D5C00002F092FE03F0C2FA00F556506430214694
:10D5D00002F092FEBDF8063033B103F0B7FA022133
:10D5E000BDF8062007F049FCFFF7C0FD78B1FFF752
:10D5F000F8FD60B1FFF72EFEFFF715FE03F0A6FA67
:10D60000042146F2674207F038FCFFF7F3FD03F010
:10D610009DFA0321002207F030FC01201CBD00BF51
:10D62000003000200D4B10B518600446FFF71EFFB8
:10D6300003F08CFA07F056FC03F088FA012100226F
:10D6400007F01BFC03F082FA09F0B8FD03F07EFA44
:10D6500009F0EEFDFFF7CEFD204610BD64730020FB
:10D6600008B5036849421B6849B2984708BD0000E5
:10D67000014B1868704700BF244C02080120704716
:10D680004368826819688A181A607047436882681C
:10D6900019688A1A1A6070470820704783681B78D7
:10D6A000CB1805D4027B9342CCBF002001207047E9
:10D6B0000020704783681A7801321A7070478368B7
:10D6C0001A78013A1A707047836819707047836836
:10D6D000187870474368B0F908201B88CB181BB234
:10D6E0009A4206DCB0F90A009842B4BF002001203B
:10D6F00070470020704743681A8801321A807047CB
:10D7000043681A88013A1A8070470220704718202F
:10D7100070470220704700207047002070470820A3
:10D720007047704790F828007047002208B50368DA
:10D7300080F82820013202719B68984708BD0023B9
:10D740000371704700797047436882681B68CB1883
:10D75000934205DBC0688342CCBF002001207047A4
:10D760000020704743681A6801321A6070474368A6
:10D770001A68013A1A607047C36A70B500F12C0547
:10D780000446DB6828460E46984728B920463146AD
:10D79000BDE8704007F078B8E36A28465B689847B0
:10D7A00070BD30B5028500250122C56280F83020A9
:10D7B000BDE8304006F0CCBFF0B587B002AC043312
:10D7C00006460F4615460FCB84E80F00059B3046F2
:10D7D0001A1D0B3303920593044945F002022346B8
:10D7E000009706F0B5FF07B0F0BD00BF384402084F
:10D7F000F0B587B002AC043306460F4615460FCB92
:10D8000084E80F00059B30469A1C09330392059368
:10D81000044945F002022346009706F099FF07B03D
:10D82000F0BD00BF444402080285012206F090BF0B
:10D830000148CE21FFF761BB5044020808B50348F8
:10D84000CD21FFF75AFB002008BD00BF504402085D
:10D850000148CC21FFF751BB504402080148CB21BD
:10D86000FFF74BBB504402080148CA21FFF745BBF4
:10D870005044020808B50348C821FFF73EFB0220C8
:10D8800008BD00BF5044020808B503481C21FFF73B
:10D8900034FB002008BD00BF6A44020808B50348F5
:10D8A0001721FFF72AFB002008BD00BF6A440208C9
:10D8B00001481321FFF721BB6A44020801480F21E8
:10D8C000FFF71BBB6A44020801480B21FFF715BB99
:10D8D0006A44020813B503469C685B68247808888C
:10D8E00053F8243000934FF6FF73002A14BF1A46F2
:10D8F000002249684FF61E03FFF7BEFA1CBD000068
:10D900002DE9F341254D84682B6846689A8C244B99
:10D910002146009330460023FFF7AEFA2B68214FD3
:10D9200093F82230214657F82330801900934FF6A0
:10D93000FF720023FFF7A0FA2B6806F164081A8F24
:10D94000194B2146009340460023FFF795FA2B68B8
:10D95000214693F83630404457F823304FF6FF7293
:10D9600000930023FFF788FA104BC8360093214636
:10D97000002330464BF29652FFF77EFA2B6880194F
:10D9800093F870200A4B214653F822304FF6FF726D
:10D9900000930023FFF770FABDE8FC81B8AD0020CA
:10D9A0009D850208544D02088386020887440208B8
:10D9B000BC4D020839B9042A05D146F267429342A8
:10D9C00001D106F001BF704739B9042A05D146F2EA
:10D9D0006742934201D106F0F7BE704739B9042A75
:10D9E00005D146F26742934201D106F0EDBE704781
:10D9F0002DE9F04186B00C9E88460021C162028567
:10DA000080F830300546112730465F4306F058FE57
:10DA1000FFB202AC50B1304606F052FE04300FC8DF
:10DA200084E80F00059B0233039304E0331D0FCB02
:10DA300084E80F00039BFF1828464146012202ABF1
:10DA40000597009606F084FE06B0BDE8F081000060
:10DA50002DE9F041DDF81880044615461F460E46B4
:10DA600021B9084840F2AF11FFF747FA204629468E
:10DA70003A4602236663CDF81880BDE8F041FFF70F
:10DA8000B7BF00BF5044020873B5044616460D46A2
:10DA900019B907480C21FFF730FA656320460021C9
:10DAA00046F20C3202230096FFF7A2FF7CBD00BFB6
:10DAB0008B440208436B70B504460D461BB90B48F6
:10DAC0003D21FFF71AFA15F0100F08D06169636B5A
:10DAD000204646F66352BDE8704006F07CBE204604
:10DAE0002946BDE8704006F0CFBE00BFB944020829
:10DAF00011F0100F70B505460C4605D0416946F689
:10DB00006F52002306F067FE28462146BDE87040AC
:10DB100006F0BABE11F0200F70B505460C4606D0CF
:10DB2000406946F278520146002306F054FE28462A
:10DB30002146BDE8704006F0A7BE000011F0010FBD
:10DB400070B504460D4615D0806A012103685B68F4
:10DB5000984701280ED1A06A00210368DB68984726
:10DB6000204606F031FE2046616947F270520023DC
:10DB700006F031FE15F0020F15D0A06A01210368EE
:10DB80001B68984701280ED1A06A002103689B6892
:10DB90009847204606F018FE2046616947F2705209
:10DBA000002306F018FE15F0100F0ED0A06A0368CF
:10DBB000DB699847084B1B68984206D0204661698C
:10DBC00046F66542A36A06F006FE20462946BDE8F1
:10DBD0007040FFF79FBF00BF244C020811F0010FF7
:10DBE00070B504460D4615D0406B012103685B6893
:10DBF000984701280ED1606B00210368DB689847C5
:10DC0000204606F0E1FD2046616947F2705200238C
:10DC100006F0E1FD15F0020F15D0606B01210368DD
:10DC20001B68984701280ED1606B002103689B6830
:10DC30009847204606F0C8FD2046616947F27052B9
:10DC4000002306F0C8FD15F0100F0ED0606B0368BE
:10DC5000DB699847084B1B68984206D020466169EB
:10DC600046F66542636B06F0B6FD20462946BDE8E0
:10DC70007040FFF73DBF00BF244C020811F0010FB8
:10DC800070B504460D4615D0406B012103685B68F2
:10DC9000984701280ED1606B00210368DB68984724
:10DCA000204606F091FD2046616946F67512002374
:10DCB00006F091FD15F0020F15D0606B012103688D
:10DCC0001B68984701280ED1606B002103689B6890
:10DCD0009847204606F078FD2046616946F67512A1
:10DCE000002306F078FD20462946BDE8704006F086
:10DCF000CBBD0000436B70B504460D461BB91A48F6
:10DD00002A21FFF7FAF815F0100F08D06169636B4C
:10DD1000204646F66352BDE8704006F05CBD636B7A
:10DD20001A79043AD2B2012A17D815F0010F08D097
:10DD3000DA6812F1FE0F04DB013ADA60204606F0E1
:10DD400043FD15F0020F08D0636BDA68FE2A04DC8D
:10DD50000132DA60204606F037FD20462946BDE84C
:10DD6000704006F091BD00BF8B440208436B70B554
:10DD700004460D461BB91D482221FFF7BEF815F0D9
:10DD8000100F08D06169636B204646F66352BDE808
:10DD9000704006F020BD15F0010F0ED0636B1A79AC
:10DDA0005AB1013A1A71204606F00EFD204661690B
:10DDB00046F67512636B06F00EFD15F0020F0FD0DC
:10DDC000636B1A79092A0BD801321A71204606F0C2
:10DDD000FBFC2046616946F67512636B06F0FBFC9E
:10DDE00020462946BDE8704006F04EBDE4440208D6
:10DDF0002DE9F3410E88DFF85880083E4FF6FF7595
:10DE0000002A08BF0025CDF80080B6B20C460746B0
:10DE10002A46304649684FF61E03FEF7B2FE7B687D
:10DE20003618B6B2009361682B4630464FF61E0294
:10DE3000FFF722F808F172033018009361682A4650
:10DE40004FF61E0380B2FEF79CFEBDE8FC8100BFCA
:10DE5000203C020808B583681A78436853F822000A
:10DE600012F038FFC3004FF6F87003EA000008BD57
:10DE70007FB5436804460D46164623B9114840F263
:10DE80005F21FFF73AF863681A68A36892FBF3F220
:10DE90000A2392FBF3F103FB11220023ADF80C30AF
:10DEA000303204AB03F8042D4FF6FF72009328685C
:10DEB0006968002E08BF00224FF61E03FEF7FDFF23
:10DEC0007FBD00BF50440208F7B5044606F06CFC65
:10DED000A7884FF6FF75083F002808BF0025BFB28E
:10DEE0000F4EA1682A4638464FF61E030096FEF7ED
:10DEF00048FE636A3F18BFB20093A1682B463846BC
:10DF00004FF61E02FEF7B8FF38187236A1682A468F
:10DF10004FF61E0380B20096FEF733FEFEBD00BF33
:10DF2000203C020870B50E4615461C4606F0C0FBA4
:10DF30002A46014623463046BDE8704006F04BBCF9
:10DF400011F0010F2DE9F04104460D4616D0806A0C
:10DF5000012103685B68984780B1A06A00210368CB
:10DF6000DB689847204606F0A3FB06F02DFC6069AD
:10DF700047F270524169002306F02DFC15F0020FA4
:10DF800016D0A06A012103681B68984780B1A06A77
:10DF9000002103689B689847204606F089FB06F03D
:10DFA00013FC606947F270524169002306F013FCCC
:10DFB00015F00C0F0FD00C4E204629463768FFF79E
:10DFC000A9FD3368BB420CD0204606F071FBBDE8CA
:10DFD000F04106F0F9BB20462946BDE8F041FFF7C5
:10DFE00099BDBDE8F08100BFCCAD0020102970B50F
:10DFF00005460C4605D106F05BFB036821465B68CD
:10E00000984728462146BDE8704006F03DBC1029DF
:10E0100010B50C4606D106F04BFB036821465B6841
:10E02000984710BDBDE8104006F02EBC08B5436807
:10E03000B3F9000006F046FA12F04CFEC3004FF6AA
:10E04000F87003EA000008BD436873B54FF6FF7629
:10E0500005460C46002A08BF00261BB912485D2160
:10E06000FEF74BFF6A68B5F90830B2F90000834249
:10E0700003DCB5F90A30834209DA0C4B32460093CF
:10E08000206861684FF61E03FEF7F6FE0BE0256878
:10E09000646806F017FA21460090324628464FF68B
:10E0A0001E03FEF70AFF7CBD134502082E45020839
:10E0B00008B54368B3F9000006F004FA12F00AFE4E
:10E0C000C3004FF6F87003EA000008BD436873B55B
:10E0D0004FF6FF7605460C46002A08BF00261BB9FE
:10E0E00011489721FEF709FF6B681868AB689842E2
:10E0F00002DBEB68984209DD0C4B32460093206846
:10E1000061684FF61E03FEF7B7FE0CE000B225680B
:10E11000646806F0D7F921460090324628464FF64B
:10E120001E03FEF7CAFE7CBD134502082E450208F9
:10E130002DE9F0471F4647F270539A4204460D46B8
:10E1400016463FD100F1400399423BD1C36A93F890
:10E150000480A8F104095FFA89F9B9F1010F8CBFB5
:10E160004FF000094FF00109B9F1000F06D0A8F1F6
:10E170000503D3F1000848EB030801E04FF0010864
:10E1800004F1B80A504606F0C8FB814506D049465E
:10E19000504606F028FB4FF0010901E04FF000095E
:10E1A00004F17C0A504606F0B8FB804504D0504686
:10E1B000414606F018FB02E0B9F1000F02D02046FC
:10E1C00006F002FB2046294632463B46BDE8F047B2
:10E1D000FFF7A8BE2DE9F34143680F88134E1C8852
:10E1E000083F0096BFB20D46224649684FF61E030F
:10E1F0003846FEF7C6FC3F182046D5F8048006F0E6
:10E20000A5F9BFB200904146234638464FF61E029C
:10E21000FEF753FE38187236696822464FF61E0321
:10E2200080B20096FEF7ADFCBDE8FC81203C020800
:10E2300011F0100F70B5044617D006F03BFA18B96C
:10E240000A483D21FEF759FE204606F031FA054600
:10E25000204606F02FFA03465B6A2046294646F21E
:10E260006452BDE8704006F0B6BA70BD3045020891
:10E2700044F644418A4201D106F070BC44F645415F
:10E280008A4202D1012280F82820704710B5044646
:10E2900006F064FC2046BDE8104006F03BBC10B51B
:10E2A000044606F05BFC2046BDE8104006F032BC98
:10E2B00001604260704710B58360029B016042605C
:10E2C000C36010BD70B5DE2386B005460E46144609
:10E2D00000930C2116225A3302A8FFF7ECFF2846C0
:10E2E0000349224602AB009606F032FA06B070BD32
:10E2F0005345020870B5F02386B004460E46154615
:10E3000000931422A03302A84FF49E71FFF7D3FFAD
:10E3100020462A4602AB1E49009606F019FA04F17F
:10E32000280001231B494FF6FF720094FFF760FBA2
:10E3300004F15C000123184948F210420094FFF7F1
:10E3400057FB04F190000123144948F21042009455
:10E35000FFF74EFB04F1C4000223114948F21042BA
:10E360000094FFF745FB04F1F80002230D4948F241
:10E3700010420094FFF73CFB04F596700A4948F2FE
:10E38000104201230094FFF733FB06B070BD00BFBD
:10E390005D4502086E450208734502087A45020889
:10E3A00081450208924502081046020870B5F02324
:10E3B00086B004460E46154600931422A03302A8E8
:10E3C0004FF49E71FFF777FF20462A4602AB1049B3
:10E3D000009606F0BDF904F1280001230D4948F22A
:10E3E00010420094FFF704FB04F15C0001230A498A
:10E3F00048F210420094FFF7FBFA04F1900007493D
:10E4000048F2104201230094FFF7F2FA06B070BD03
:10E41000A1450208AF450208B7450208BC450208FD
:10E4200070B5DE2386B005460E46144600930021E3
:10E430001622D33B02A8FFF73EFF2846044944F0CA
:10E44000020202AB009606F083F906B070BD00BF71
:10E45000C145020870B5152386B005460E46144620
:10E4600000930C21102202A84FF49C73FFF723FFA6
:10E470002846044944F0020202AB009606F068F90F
:10E4800006B070BDD545020870B5F02386B00546CC
:10E490000E461446009300211022A03302A8FFF775
:10E4A0000AFF2846044944F0120202AB009606F027
:10E4B0004FF906B070BD00BFE845020870B5F02303
:10E4C00086B005460E461446009300211022A03364
:10E4D00002A8FFF7F0FE28460349224602AB009649
:10E4E00006F036F906B070BDF845020870B5F023A5
:10E4F00086B005460E461446009300211022A03334
:10E5000002A8FFF7D8FE2846044944F0120202ABE5
:10E51000009606F01DF906B070BD00BF0246020865
:10E5200070B5F02386B005460E46144600930021D0
:10E530001022A03302A8FFF7BEFE2846044944F08B
:10E54000020202AB009606F003F906B070BD00BFF0
:10E550000C46020882680368D0184010704738B52E
:10E560008A680B68CD68D3184A680446AA185910FF
:10E570005210FFF79DFE204638BD10B504686118A3
:10E58000016041688A1842608268D31A8360C26859
:10E59000029BD31AC36010BD10B50468611A0160F4
:10E5A00041688A1A42608268D3188360C268029BFD
:10E5B000D318C36010BD000030B58BB003AD031D90
:10E5C00004460FCB85E80F0001210B4628460A467A
:10E5D0000091FFF7E1FF28464BF29651FEF708FA4B
:10E5E00048F21043ADF81C300023ADF81E30ADF8F2
:10E5F0002030ADF82230ADF824301E25606807AB1E
:10E600002818009305230193421CA16823691E3535
:10E61000FEF70EFAB5F5967FF0D11925A16807AB84
:10E62000691800930523019360684B1CE268193553
:10E63000FEF7FEF9C82DF1D16068A1680B4B0431DB
:10E640000093043044F208224FF61E03FEF714FC38
:10E6500060682169064B0430009310394FF6FF7251
:10E660004FF61E03FEF708FC0BB030BD164602083D
:10E670001F46020882680368D01A7047F0B58BB055
:10E6800006AC061D074696E80F0084E80F0001213E
:10E6900000220B462046009202ADFFF77DFF204688
:10E6A00048F21041FEF73BFA94E80F0085E80F00AE
:10E6B000114B30461B68B3F87240FFF7DBFF039B3A
:10E6C00004FB00F20133039304F59674059B444365
:10E6D000013B05937B68284603EB243403EB22328D
:10E6E000089B04949C42C8BF049300210292FEF749
:10E6F00016FA0BB0F0BD00BFB8AD002073B5051D14
:10E70000002104462846FEF70AFA0E4B1B68B3F8B0
:10E710008260B3F87230F61A36B2002E10DB28464B
:10E72000FFF7A8FF86420BDA6068074B04380093B6
:10E730008019A16846F20C324FF61E03FEF721FA4B
:10E740007CBD00BFB8AD0020043D020837B5051DF3
:10E75000002104462846FEF7E2F92846FFF78AFF23
:10E76000A168A0F5807000EBD07040101831FEF762
:10E77000A3FE444B702100930420002348F2104272
:10E78000FEF77AFB404B70210093A02000234BF250
:10E790009652FEF771FB3D4B8021009348F21042E8
:10E7A00000230420FEF768FBFEF772FE8021009034
:10E7B0000023A0204BF29652FEF75EFB344B9021D3
:10E7C000009348F2104200230420FEF755FBFEF7A9
:10E7D00063FE902100900023A0204BF29652FEF79A
:10E7E0004BFB2C4B04200093A021002348F2104245
:10E7F000FEF742FBFEF754FE0090A02000230146E6
:10E800004BF29652FEF738FB234BB021009348F2AF
:10E81000104200230420FEF72FFBFEF735FEB02147
:10E8200000900023A0204BF29652FEF725FB1B4BD5
:10E83000C021009348F2104200230420FEF71CFB85
:10E84000FEF734FE164C0190C0210023A0204BF2AD
:10E8500096520094FEF732FB124BD021009348F2FF
:10E86000104200230420FEF707FBFEF71DFED02117
:10E8700001904BF29652A02000230094FEF71EFB5D
:10E880003EBD00BF3D460208284602084D4602082C
:10E890005F4602086F4602087D4602088A46020863
:10E8A000984602089D460208C2684368D01A70471D
:10E8B0002DE9F347041D054600212046FEF72FF9F8
:10E8C0002846FFF779FEAB6A002B38D02046FFF7C9
:10E8D000D1FE07462046FFF7E7FF2B690024A0F191
:10E8E0003209A3F11908A24627E0AA8DAB6A624358
:10E8F00092FBF7F233F81260B6F5805F03D311484C
:10E900002421FEF7FAFA4B465E4344BF06F57E66C5
:10E910001F366A683613B6B2002C08BFB246A2187A
:10E920004FF6FF730093CAEB0801501EC6EB0803B5
:10E93000FEF74CFB0134A4B2B246BC42D5DBBDE8C5
:10E94000FC8700BFAC46020813B504460068E368C4
:10E95000009100F10C026168FEF7D2F920684BF2D9
:10E960009653009308306168A268E368FEF70EF8DA
:10E970001CBD13B504460068009102386168A268A6
:10E98000E368FEF7BDF920686168A268E3680630B5
:10E990004FF6FF740131013A013B0094FEF7B0F9E4
:10E9A0001CBD07B50346002200680092596800F1BB
:10E9B0000802DB68FDF7EAFF0EBD37B504460068C4
:10E9C0000025616800F10802E3680095FDF7DEFFAD
:10E9D000A2686168101FE3680095FDF7D7FF3EBD90
:10E9E000C36A37B504460BB11B880385204605F082
:10E9F000DBFE231D18B11846FFF7DFFF02E01846C3
:10EA0000FFF7CFFF636820460433636005F0CCFE58
:10EA10000546218D201D4DB1FFF7ABFF636A93B111
:10EA2000606800930C30A168002208E0FFF78CFFBB
:10EA3000636A43B16068A16800930C302A464FF6C0
:10EA40001E03FEF719FA6368043B63603EBD0000D5
:10EA5000436B2DE9F0431F7948F21048A7F10102FA
:10EA6000574247EB02075A7987B00446002F18BF78
:10EA70004FF00008364B12B91B689B8C01E01B68F5
:10EA80001B8F23872046FFF7ABFF636BD4F80490FE
:10EA90009A79304BA56853F8223009F10E0600939D
:10EAA0003046294642464FF61E03FEF7E5F9002F91
:10EAB0004BD0636B284A99799F6852F821403846B9
:10EAC0000021103511F07CFE68B1244B30460093D4
:10EAD000424629464FF61E03FEF753F807F100425F
:10EAE0008619174601E009F11406384611F056F868
:10EAF00002460B4602A81A49FDF70AFF05E006AADE
:10EB000002EB0903002203F8112C02AF384612F081
:10EB1000E1F88146204612F0DDF848440728EED897
:10EB20003046294642464FF61E030097FEF7C5F9C8
:10EB30005CB123784BB104363018294644F20822E0
:10EB40004FF61E030094FEF797F907B0BDE8F08377
:10EB5000B8AD0020E44E0208144F0208333D02080D
:10EB6000DB4602082DE9F041044686B0FFF738FF86
:10EB70006568A768636A1035009328463946002205
:10EB80004FF61E03FEF778F9204607F1100605F050
:10EB90000BFE002830D0DFF8948031460022284652
:10EBA0004FF61E03CDF80080FDF7EBFF4519606BB3
:10EBB0001E3703685B69984732464319294602A805
:10EBC0000097FFF778FB002102A8FDF7A8FF676B0D
:10EBD00020463B681D6905F0E7FD02A9024638465C
:10EBE000A84708F1720300930498314600224FF6BB
:10EBF0001E03FDF7C6FF15E0606B1E3703685B69F7
:10EC0000984729464319324602A80097FFF753FB5D
:10EC1000666B204633681D6905F0C6FD02A90246F1
:10EC20003046A84706B0BDE8F08100BF203C02088E
:10EC30002DE9F041466A002586B004464562FFF79B
:10EC4000CFFE6662231D02AE0FCB86E80F00304672
:10EC500010212A462B460095FFF78FFC636A2A464F
:10EC6000009303994FF61E030298FEF705F9039BE4
:10EC700020461033039305F097FD024600282FD05D
:10EC8000029FDFF86C80083F03992A4638464FF60A
:10EC90001E030297CDF80080FDF773FFC0190290A4
:10ECA000606B03685B69984703990746029801F116
:10ECB0000E033A180095FDF769FE606B3146036854
:10ECC00001221B699847029808F1720338180093D3
:10ECD00003992A464FF61E030290FDF752FF04E007
:10ECE000606B314603681B69984706B0BDE8F08148
:10ECF000203C020873B50546FFF772FE6B6B6C682B
:10ED0000AE681B690E340022009331464FF61E0395
:10ED10002046FEF7B1F86B6B31461A79114B00199A
:10ED200053F82230002200934FF61E03FEF7A4F89A
:10ED30006B6B06F110011A79052A01D10A4A06E027
:10ED4000042A03D0094A00929B6802E0084A009214
:10ED5000DB680193204600224FF61E03FEF7AEF853
:10ED60007CBD00BF7C4F0208DF46020884720208A7
:10ED7000E6460208436BF7B51D79044648F2104396
:10ED8000002D0CBF1D460025FFF72AFE6768A66808
:10ED90000C4B0E37009331462A4638464FF61E0379
:10EDA000FEF76AF8636B38461A79074B06F11001D3
:10EDB00053F822302A4600934FF61E03FEF75CF804
:10EDC000FEBD00BFEA460208504F020873B58268D4
:10EDD000C3680E46416804464FF4E045101F0431F5
:10EDE000043204330095FDF78BFFE3682068A268C6
:10EDF000191F0430043204330095FDF781FF2068A9
:10EE0000616800F10C02E3680096FDF779FF206865
:10EE1000A2684BF2965508306168043AE3680095A1
:10EE2000FDF7B4FDA2686168A2F10800E3680095EF
:10EE3000FDF766FF7CBD73B58268C3680E46416806
:10EE400004464FF4E045101F0431043204330095AA
:10EE5000FDF756FFE3682068A268191F04300432EA
:10EE600004330095FDF74CFF20686168A268E368F1
:10EE70000096FDF745FF7CBD37B5044605F094FCD0
:10EE80000546218D201D45B1FFF7D5FF6068636AF7
:10EE90000C300093A168002207E0FFF797FF60683D
:10EEA000636AA16800930C302A464FF61E03FDF7F3
:10EEB000E3FF3EBD70B586B002AC02250E460FC81A
:10EEC00084E80F0020460021FDF756FF2A462B4616
:10EED000204629460095FFF750FB20463146FDF7B6
:10EEE0004BFF204629460E222B460095FFF745FB97
:10EEF00020464BF29651FDF73FFF06B070BD73B54B
:10EF00000446051D218D2846FFF7D4FF2846FFF74C
:10EF100021FB656A0646284611F0DCFEA168C0B2F6
:10EF20008000301A023100224FF61E030095FDF7D3
:10EF3000A3FF7CBDF0B58BB0054602AC061D96E87C
:10EF40000F0084E80F00298D3046FFF7B3FF2046FD
:10EF5000FFF700FB6E6A0746304611F0BBFE0399CF
:10EF6000C0B2800002310022381A4FF61E0300960C
:10EF7000FDF782FF122104230A46009320460B4628
:10EF8000FFF7FBFAE86A11F0A5FE2146064608A83D
:10EF9000FFF7E5FA089B06A82146F600A3EB6606F4
:10EFA000FFF7DDFAEB6A0799009330460739002234
:10EFB0004FF61E03FDF760FF0BB0F0BDF0B587B054
:10EFC000054602AC061D96E80F0084E80F00298D67
:10EFD0003046FFF76FFF2046FFF7BCFA6E6A074620
:10EFE000304611F077FE0399C0B280000231002252
:10EFF000381A4FF61E030096FDF73EFF1221042338
:10F00000009320460A460B46FFF7B7FAEB6A0298D0
:10F01000039900930430043100224FF61E03FDF7DC
:10F020002BFF07B0F0BD4BF29651FDF778BD2DE9EF
:10F03000F041012104460026FDF77BFDD02514E0B8
:10F04000EB10DA024FEAA50842EA4818204648EADF
:10F050000308FFF70FFB074602E04046FDF77AFD85
:10F06000013FFAD20D3DEDB201362046FFF71CFC00
:10F070008642E5DBBDE8F041FDF782BD10B50446F0
:10F0800005F092FB231D20B91846BDE81040FFF79C
:10F09000CABF1846BDE81040FFF7C9BF2DE9F047C9
:10F0A00086B0044605F080FB4FF6FF76002808BFC7
:10F0B00000262046FFF7E2FF636A6068324600934D
:10F0C0000430A1684FF61E03FDF7D6FEA06A0121A9
:10F0D000036865685B6898478146A06A01210368F8
:10F0E00005F178071B689847B9F1010F804606D1F2
:10F0F000224B05F170000093A168324609E0B9F196
:10F10000000F0AD11D4BA168009305F1700048F271
:10F1100010424FF61E03FDF734FDD4F828A002ADCF
:10F12000231D0FCB85E80F00DAF800302046D3F816
:10F1300010900297049705F037FB29460246504687
:10F14000C847A06A03685B699847B8F1010F384463
:10F1500004D10B4BA1680093324607E0B8F1000FD1
:10F1600008D1074BA168009348F210424FF61E03E6
:10F17000FDF707FD06B0BDE8F08700BF893D020836
:10F18000FB3D020837B5054605F00EFB4FF6FF7450
:10F19000002808BF00242846FFF770FF6B6A6868E4
:10F1A00000930430A96822464FF61E03FDF764FE63
:10F1B0003EBD13B50446FFF761FF636A60680093C4
:10F1C0000430A16800224FF61E03FDF755FE1CBD5A
:10F1D000F0B587B0044605F0E7FA4FF6FF75002852
:10F1E00008BF0025204605F0DFFA68B102AE231DF6
:10F1F0000FCB86E80F00A0F108030293049B304672
:10F2000008330493FFF713FF204605F0CDFA48B109
:10F21000144B606800930738A1682A464FF61E0316
:10F22000FDF7AFFCA76A20463B681E6905F0BCFAF3
:10F23000211D02463846B047A06A676803685B69CB
:10F2400098470646204605F0AFFA48B1064B781CB1
:10F2500000938019A1682A464FF61E03FDF791FC22
:10F2600007B0F0BD893D0208FB3D0208C16270474E
:10F2700073B5044616460D4619B90C480D21FDF725
:10F280003CFE0B4B00211B6820469B8C0A462387C3
:10F29000656302230096FEF7ABFB204604F13801BC
:10F2A00002B0BDE87040FFF7E1BF00BFB9440208FB
:10F2B000B8AD002073B5054616460C4619B90A4884
:10F2C0000C21FDF71AFE6C63284634F8062F002146
:10F2D00002230096FEF78CFB2846214602B0BDE8CB
:10F2E0007040FFF7C3BF00BFE444020808B50379CC
:10F2F000012B09D002D3022B0FD10AE083681888B2
:10F3000000F01F00400808BD83681888C0F3C310D0
:10F3100008BD83681888000B08BD03484FF482714C
:10F32000FDF7EBFD002008BD1345020830B54FF690
:10F33000FF7585B00C46002A08BF0025FFF7D6FFF1
:10F3400005F0F4F800238DF80D3003AB8DF80C00B8
:10F350000093206861682A464FF61E03FDF7ADFD55
:10F3600005B030BD002908B50CDDFFF7BFFF0E2842
:10F370008CBF0020012008BDFFF7B8FF003818BF80
:10F38000012008BDF8DB002008BD00000379012B37
:10F3900012D002D3022B2CD11DE08268138823F0F7
:10F3A0001F031B041B0C0F2902D04900C9B200E047
:10F3B0001F2141EA03031AE08268138823F4FC63E7
:10F3C0001B041B0C0F2902D08900C9B200E03F21A9
:10F3D00043EA41130BE0826813885B055B0D0F293C
:10F3E00002D04900C9B200E01F2143EAC1231380C3
:10F3F000704702484FF48E71FDF77FBD1345020838
:10F4000010B50446FFF772FF30B1411EC9B2204665
:10F41000BDE81040FFF7BABF10BD10B50446FFF7B6
:10F4200065FF0E2806D8411CC9B22046BDE8104031
:10F43000FFF7ACBF10BDC8684042704710B5044626
:10F4400005F078FA014B2046236010BD58360208BB
:10F45000014B0360704700BFA036020810B5044698
:10F46000FFF7F6FF014B2046236010BD78360208F7
:10F4700010B50446FFF7ECFF014B2046236010BD9A
:10F480003038020810B5044605F054FA014B204606
:10F49000236010BDE836020810B50446FFF7F2FFFE
:10F4A000014B2046236010BDC836020810B5044643
:10F4B000FFF7E8FF014B2046236010BD503A0208D9
:10F4C00010B5044605F036FA014B2046236010BD06
:10F4D0001835020810B500210446282211F098FAC8
:10F4E0002046FFF7EDFF034B204623600023A36275
:10F4F00010BD00BFF034020810B5044605F01AFA3A
:10F50000044B20462360012384F82830013BE3624A
:10F5100010BD00BFB039020805F056B947F2694185
:10F520008A4201D1FFF7F8BF44F644418A4205D030
:10F5300001318A4202D1012280F828207047000060
:10F54000074A08481168084B30B50468074DCB18C6
:10F5500005FB04330131036058041160400C30BDD9
:10F560005CA9002004300020F390240021F17D00EC
:10F5700030B5254B89B0044605AD93E807000C3340
:10F5800085E8070093E8070094F8283002AD85E885
:10F590000700B3B1201D4FF6FF71FDF7C0FA606898
:10F5A00021691A4B0830009314394FF61E030022CC
:10F5B000FDF762FC002384F82830059BE362029B80
:10F5C00023632046FFF7BCFF032290FBF2F202EB1D
:10F5D000420208A9821A01EB82020346E16A52F84C
:10F5E0000C0C9B0040184010E06252F8181C226B73
:10F5F00089184FF6FC72491003EA0202216309B030
:10F60000BDE83040FDF7AAB9703E0208F446020892
:10F6100010B501704270837010BD0000F8B5114B39
:10F620004FF4AF7707FB013700F144040E2615E0D5
:10F630007B5D202B02D0232B06D101E0012300E0CB
:10F64000002304F8013B03E00748F521FDF755FCD2
:10F650000135192DECD11937013E01D00025E7E71E
:10F66000F8BD00BF883E020801470208192303FBCA
:10F670000213C018443070472DE9F0474FEA411893
:10F680000F242FE0032B03D8DFE803F005090C0F4C
:10F6900000252E460BE0C0F10F063D4607E026464A
:10F6A000054604E02546064601E005463E46134968
:10F6B00046EA05154AEA400601EB8606D6F8C86315
:10F6C00046FA09FC1CF00F0C08BF4FF0020C01EBCE
:10F6D0004C01B1F8C8160130102822F81510D1D10C
:10F6E000013C09D3C4F10F0704F0070948EAE70A0F
:10F6F0004FEA89090020C5E7BDE8F087203C0208F1
:10F7000070B5ADF5027D0C4606461546FFF7AEFF17
:10F710000178052903D1304602AA736B06E004295B
:10F7200008BFB36B304602AA18BF0023FFF7A4FF3F
:10F7300002A8691C621CAB1C00904FF48070019001
:10F740000901200112011B01FDF772F90DF5027D7F
:10F7500070BD11F0020F034606D0426B0132032A3E
:10F7600042630EDD002206E011F0010F07D0426B6C
:10F77000002A02DD013A5A6303E00322FBE705F0A9
:10F7800083B8D96A1A6B1846FFF7BABF70B5064638
:10F7900000240AE02946304622460135FFF7B0FF33
:10F7A000192DF7D101340E2C01D00025F2E770BDE0
:10F7B00010B5044605F0D2F9236C6FF009015943E6
:10F7C00001F5967120466429B8BF6421BDE8104058
:10F7D00005F0D4B8074A08481168084B30B50468EA
:10F7E000074DCB1805FB0433013103605804116049
:10F7F000400C30BD60A9002010300020F3902400A0
:10F8000021F17D0073B504462046FFF7E3FF19237D
:10F81000B0FBF3F606FB13062046FFF7DBFF0E23D3
:10F82000B0FBF3F505FB1305314620462A46FFF7EA
:10F830001DFF0378012BE7D101330370EAB2023BCD
:10F8400001A8F1B2FFF7E4FE019B00201A0CDBB225
:10F8500063F307009DF8053063F30F20D3B263F321
:10F8600017407CBD002310B5044643632046FFF7D4
:10F87000B1FF1923B0FBF3F202FB13032046E3624E
:10F88000FFF7A8FF0E23B0FBF3F202FB1302E16ABD
:10F8900022632046FFF7EAFE0378012BE6D104330A
:10F8A000037010BD30B5CC0124128460C46099246B
:10F8B0004C4324120461B32404FB02F54C4324128C
:10F8C0008461CD24426062431212C2613C224A43E9
:10F8D000D211026246224A43D211426232220160B0
:10F8E00051432D12C9114561816230BDFF29A8BF66
:10F8F000FF2121EAE1707047C9431E230020400028
:10F90000420001329A40521801D501301146023BA3
:10F9100013F1020FF3D170472DE9F04F436885B022
:10F920000446154602930026BDE0E268A168B21ABB
:10F930005243791A01FB0121236A090491FBF3F177
:10F94000204691FBF3F1FFF7D7FFFF2809DCC0F158
:10F95000FF0808EB8808B8F1FF0FA8BF4FF0FF08B9
:10F9600001E04FF0000862692169B21A5243791A26
:10F9700001FB0121636A090491FBF3F191FBF3F1AF
:10F980002046FFF7B9FF4043E26948BFFF30B21A93
:10F990005243A169A36A791A01FB0121090491FB71
:10F9A000F3F191FBF3F14FEA202A2046FFF7A4FF81
:10F9B000B5F90230BAF1FF0FA8BF4FF0FF0AB5F951
:10F9C0000410FF28D8BFC0F1FF0003FB0AF3C8BF33
:10F9D00000204143B5F90020B5F90AB002EB23231A
:10F9E00003EB2121B5F908300BFB00FB03FB0AF305
:10F9F000B5F9062002EB232303EB2B2BB5F90E30D0
:10FA000003FB0AFAB5F90C3003EB2A2AB5F91030DA
:10FA10005843B5F914300AEB202AFF2B05D0B5F96D
:10FA2000123003FB08F84FEA28282046FFF75EFF54
:10FA3000594684462046CDF804C0FFF757FF51468B
:10FA400083462046FFF752FFB9F80020DDF804C0D6
:10FA5000D300D108D20A01F0FC0103F0FF03D20069
:10FA6000C3EB0C0A801AC1EB0B0C08FB0AFA08FB6B
:10FA70000CFC08FB00F802EB282801EB2C2C4FEAC9
:10FA8000E8014FEAAC0CC90241EA4C1103EB2A230E
:10FA900041EAE30329F8023B0137039B49469F42B1
:10FAA000FFF643AF0136029B9E4204DA2368894683
:10FAB00003930027F1E705B0BDE8F08F2DE9F04191
:10FAC00086B006460D4614460021142201A8984629
:10FAD0000C9F10F09DFF4FF6C473ADF80830ADF8E1
:10FAE0000E30ADF81430BDF83430ADF80440ADF848
:10FAF0000A80C4F1F004C8F1F008ADF81070304687
:10FB0000C7F1F007294601AAADF80640ADF80C8010
:10FB1000ADF81270ADF81630FFF7FEFE06B0BDE886
:10FB2000F08113B5140C130A04F0FF040094D2B250
:10FB3000E624DBB20194FFF7C1FF1CBD10B50446FB
:10FB400004F0F8FE064B2046202140F8283B0A46E8
:10FB5000FFF7A8FE012384F85438204610BD00BFEB
:10FB6000003A020804F030BE47F269418A4201D1EE
:10FB7000FFF7F8BF44F644418A4205D001318A427A
:10FB800002D1012280F8542870470000074A084833
:10FB90001168084B30B50468074DCB1805FB0433DA
:10FBA0000131036058041160400C30BD64A900208D
:10FBB00014300020F390240021F17D002DE9F04362
:10FBC00090F8543893B0044673B3051D0EAF0AAED7
:10FBD0000DF1180895E80F0087E80F0086E80F0080
:10FBE00088E80F002846FEF75FFE4FF0030990FB00
:10FBF000F9F011900B902846FEF756FE400090FB5E
:10FC0000F9F00D9007904FF6FF713846FCF787FF2B
:10FC100030460021FCF783FF40464FF47841FCF763
:10FC20007EFF002384F854382046FFF7AFFF261DDF
:10FC300005463046FEF71EFDA76AC71BB5FBF7F366
:10FC400007FB135763682046FF18FFF79FFF054621
:10FC50003046FEF729FEE66A861BB5FBF6F306FB87
:10FC60001356A3682046F618FFF790FFE26AA36ACE
:10FC7000B2180546FB1800923946324602A804F134
:10FC80005406FEF718FB02A83146FCF703FF2A11C1
:10FC90005523A91002F003025A4301F0030159430E
:10FCA00005F003055D43120442EA012204F1280035
:10FCB00031462A43FFF735FF02A83146FCF704FF1F
:10FCC00013B0BDE8F083000010B5044604F032FE26
:10FCD000014B2046236010BD283A020801604260B3
:10FCE000704770470430704710B50021044610F08B
:10FCF00067FD08B104F10044204610BD7047043090
:10FD0000704701604260704710B5016042608360D7
:10FD100010BD0000014B0360704700BF803B02082C
:10FD200010B50446FFF7F6FF044B2046236000237E
:10FD300084F828302371636210BD00BF603B020865
:10FD400070B51E460023044615460371437111B178
:10FD5000012905D101E0012300E00223836004E0D2
:10FD6000054840F20111FDF7C8F84FF0FF33236159
:10FD70006561666270BD00BF1C4702088368012B85
:10FD800004D1064B80891B68D8847047022B03D1AD
:10FD9000024B80891B685887704700BFB8AD0020B0
:10FDA000C161026270470000032380F828300148D7
:10FDB000FDF7D4B842470208012380F82830704785
:10FDC000022380F8283070472DE9F041C66B0746C2
:10FDD000002E3FDD013EC663002E3BD14FF0FF34C5
:10FDE0002546B0467B6B012B04D13046FDF735FA32
:10FDF000037800E000237A6B022A03D13046FDF736
:10FE00002CFA4378B5F1FF3F06D09D42B8BF1D469E
:10FE10009C42A8BF1C4601E01C461D460136B6F5B3
:10FE2000805F9844DED1404610F0D8FA4FF066511A
:10FE300010F028FB0646281B10F0D0FA4FF07A513C
:10FE400010F020FB2C37024631463846BDE8F04121
:10FE5000FFF7A6BFBDE8F0812DE9F041044686B06A
:10FE600051B9042A08D146F26745AB4204D106B025
:10FE7000BDE8F041FFF7A8BF04F5C673994228D149
:10FE800046F665439A4224D104F12C0594F85510A6
:10FE900094F8562004F158032846FFF751FF2046F6
:10FEA00004F07CFC2846FDF740FC204604F032FEBE
:10FEB0002846FDF737FC022805D0204606B0BDE8ED
:10FEC000F0410BF093B8204606B0BDE8F0410BF0CE
:10FED00061B804F5AC73994240F0988046F66543EA
:10FEE0009A4240F09380204604F014FE494B94F867
:10FEF00056601D6894F85530012B11D14FF0300E2B
:10FF00000EFB065E0EF5D6770EF53F7EBEE80F00BF
:10FF10000FC7BEE80F000FC79EE80F0087E80F006D
:10FF20003D4B3027009394F855203C4B774353F8D2
:10FF30002230DFF8F480019394F85620384BEE1904
:10FF400053F8223024214FF6FF72002402931E2022
:10FF50000023FCF7B3FFD6F8B001CDF80080019480
:10FF6000B6F9AC3103904042029310F037FA4FF0EB
:10FF7000685110F087FA0FF011FE4FF6FF72CDE9CD
:10FF8000040123463C211E20FCF798FF0123D6F8EC
:10FF9000B401CDF800800193B6F9AE310390404230
:10FFA000029310F01BFA4FF0685110F06BFA0FF04B
:10FFB000F5FD4FF6FF72CDE9040123461E204C21CA
:10FFC000FCF77CFFED1906F5DB7605F5E0755427A7
:10FFD000144B55F8040F0194009336F9023F039037
:10FFE000029310F0FBF94FF0685110F04BFA0FF04C
:10FFF000D5FD1037CDE9040100231E2039464FF608
:020000040801F1
:10000000FF720134FCF75AFF062CE1D106B0BDE8BF
:10001000F08100BFB8AD002057470208904E02089B
:10002000544D0208834702086F47020810B5044682
:1000300004F080FC014B2046236010BD10360208FE
:1000400010B50446FFF704FA014B2046236010BDAB
:10005000703A020810B50446FFF714FA014B204627
:10006000236010BDB83A020870B50546FFF70AFADA
:10007000064B2C4644F8283B05F1D80620462C3484
:10008000FFF7E8FFB442F9D1284670BD983A02085C
:1000900010B50446FFF7DCF9014B2046236010BD84
:1000A000D83A020810B50446FFF7C8F9214B20469C
:1000B00040F82C3BFFF7FAF904F15400FFF7F6F98A
:1000C00004F17C00FFF7F2F904F1A400FFF7EEF968
:1000D00004F1CC00FFF7B4FF04F1D800FFF7B0FF44
:1000E00004F1E400FFF7ACFF04F1F000FFF7A8FF14
:1000F00004F1FC00FFF7B8FF04F5EA70FFF7A0FF7A
:1001000004F5F070FFF79CFF04F5F670FFF798FF19
:1001100004F5FC70FFF794FF04F50170FFF7A4FFEE
:1001200004F53770FFF7B4FF04F53970FFF7B4F941
:10013000204610BD486B020810B50446FFF77EF953
:1001400004F12C00FFF7ECFD164B04F1880023604E
:100150002033E362FFF7AAF904F1B000FFF7A6F934
:1001600004F1D800FFF77AF904F1E800FFF794F9F9
:1001700004F58A70FFF772F904F59270FFF78CF9B5
:1001800004F5A870FFF784FF04F5AC70FFF784F95D
:1001900004F5C270FFF77CFF04F5C670FFF77CF929
:1001A000204610BD003B020810B5044604F0C2FB17
:1001B000104B204640F8283BFFF738FF04F15C0065
:1001C000FFF734FF04F19000FFF730FF04F1C400A3
:1001D000FFF72CFF04F1F800FFF728FF04F59670F5
:1001E000FFF760FF04F588600430FFF7A5FF2046A5
:1001F00010BD00BFA06B020810B5044604F09AFBC6
:10020000054B20462360012384F830300023A3628D
:10021000002384F8313010BD986A020870B5044696
:100220000D46164604F086FB024BA5622360E6628B
:10023000204670BD5880020870B504460D4616462B
:1002400004F078FB024BA5622360E662204670BD95
:100250003080020870B504460D46164604F06AFB6D
:10026000034BED00F6002360A562E662204670BDF8
:100270000880020810B5202132220446FFF7CEFF85
:10028000014B2046236010BD40350208202110B5E7
:100290000A460446FFF7C2FF014B2046236010BD0B
:1002A0006835020810B5202107220446FFF7C4FF75
:1002B000014B2046236010BD9035020810B5202167
:1002C00010220446FFF7C6FF014B2046236010BDF5
:1002D000B835020810B50446FCF7BAF840F22D1301
:1002E00060602381204610BD038813B940F22D13AE
:1002F000038109880180704738B504460D46FCF734
:10030000A7F862682389821A9A4215D923889BB17B
:100310002B80238940F22D129342606002D14FF46A
:10032000967307E0B3F5967F01D1642302E00A2BB0
:1003300004D90A3B238138BD00232B8038BD00003F
:1003400010B5044604F0F6FA014B2046236010BDB8
:100350001865020810B50446FFF768FE014B2046F9
:10036000236010BDE035020810B50446FFF766F8BB
:10037000114B204640F8303BFFF770F804F1400085
:10038000FFF76CF804F15000FFF768F804F1600023
:10039000FFF764F804F17000FFF77EF804F19C00A9
:1003A000FFF77AF804F1C800FFF776F804F1F400DB
:1003B000FFF772F8204610BD3836020870B50546C2
:1003C00004F0B8FA084B2C4644F8283B05F5C876EB
:1003D00020463C34FFF7BEFFB442F9D12046FFF778
:1003E000C3FF284670BD00BFA872020810B50446BE
:1003F00004F0A0FA0D4B204640F8283BFFF716FE0C
:1004000004F15C00FFF712FE04F19000FFF70EFE0E
:1004100004F1C400FFF70AFE04F1F800FFF706FE3E
:1004200004F59670FFF702FE204610BD083702085B
:1004300010B50446FFF7FAFD014B2046236010BDBE
:100440003037020810B5044604F074FA154B204604
:1004500040F8283BFFF702F804F13800FEF7FEFFF2
:1004600004F14800FEF7FAFF04F15800FEF7F6FF2A
:1004700004F16800FEF7F2FF04F17800FFF7D8FFFF
:1004800004F1B000FFF7D4FF04F1E800FFF7D0FF5C
:1004900004F59070FFF7CCFF04F5AC70FFF7C8FFD0
:1004A000204610BDA078020810B50446FFF7BEFD37
:1004B000014B2046236010BD5837020810B5044692
:1004C000FEF7C6FF014B2046236010BD88370208A7
:1004D00010B5044604F02EFA154B204640F8283B90
:1004E000FFF7E2FF04F16000FFF7DEFF04F1980080
:1004F000FFF7DAFF04F1D000FFF7D6FF04F58470B0
:10050000FFF7D2FF04F5A070FEF7A8FF04F5A8706E
:10051000FFF7D4FF04F5AE70FFF7D0FF04F5B47019
:10052000FFF7CCFF04F5BA70FFF7C8FF204610BDF7
:100530005849020810B50446FFF778FD014B2046E4
:10054000236010BDB037020810B50446FFF76EFDFA
:10055000014B2046236010BDE037020810B5044669
:10056000FEF76CFF0D4B204640F8303BFEF776FF60
:1005700004F14000FEF790FF04F16C00FEF778FFF5
:1005800004F17C00FEF788FF04F1A800FEF770FF7D
:1005900004F1B800FEF780FF204610BD10380208B5
:1005A00010B50446FEF754FF014B2046236010BDF2
:1005B0007838020810B50446FEF74AFF014B204682
:1005C000236010BDA038020810B50446FEF736FFC0
:1005D000154B204640F8303BFFF7E2FF04F13800AE
:1005E000FFF7E8FF04F14400FFF7E4FF04F15000D7
:1005F000FFF7E0FF04F15C00FEF74EFF04F1880016
:10060000FEF74AFF04F1B400FEF746FF04F1E000F4
:10061000FEF742FF04F58670FEF720FF04F58E70AA
:10062000FEF73AFF204610BD5838020810B50446C0
:1006300004F080F90D4B204640F8283BFFF77AFF85
:1006400004F16000FFF776FF04F19800FFF772FFF6
:1006500004F1D000FFF778FF04F58470FFF77EFF08
:1006600004F5F670FFF7B0FF204610BD4878020889
:1006700010B5044604F05EF9074B204640F8283BCD
:10068000FFF7D4FC04F15C00FFF7D0FC04F190000C
:10069000FFF7CCFC204610BDC838020810B5044650
:1006A00004F048F9014B2046236010BDF0380208E1
:1006B00010B5044604F03EF9014B2046236010BDFE
:1006C0001839020810B5044604F034F9014B2046ED
:1006D000236010BD4039020810B5044604F02AF921
:1006E000014B2046236010BD8839020810B504462E
:1006F00004F020F9014B2046236010BD4882020817
:1007000010B5044604F016F9014B2046236010BDD5
:10071000A03B020810B5044604F00CF9114B20462A
:1007200040F8283BFFF7ECFF04F15400FFF7E8FF27
:1007300004F18000FFF7E4FF04F1AC00FFF7E0FFF5
:1007400004F1D800FFF7DCFF04F58270FFF7D8FF53
:1007500004F59870FFF7D4FF04F5AE70FFF7D0FFF3
:10076000204610BDB065020810B5044604F0E2F85A
:10077000014B2046236010BDC83B020810B504465B
:1007800004F0D8F8014B2046236010BD083C020855
:1007900010B5044604F0CEF8054B204640F8383B2F
:1007A000FFF7ECFF04F16000FFF7E8FF204610BD03
:1007B000E83B0208F8B5046805460E461046214697
:1007C0000FF056FD0746B6F90200B6F90060801B2F
:1007D0000FF004FE014638460FF054FE214607464E
:1007E00068680FF045FD014638460FF0FFFE0446ED
:1007F00030460FF0F3FD014620460FF03BFD10F0B0
:1008000007F8F8BD0A4600F10801FFF7D3BF000062
:10081000084A03461068996900F5886010B50C30E5
:10082000FFF7F0FF044B012118801846BDE8104087
:10083000FCF736BDB8AD002068A9002070B50523CF
:10084000002408E0E5186D1030F91560B242B8BF19
:100850002B46A8BF2C461D1B012DF3DC30F914508C
:1008600051F8244051F82310521B091B4A4330F918
:100870001300451B92FBF5F0001970BDB0F9003074
:1008800010B50C684968D21A091B4A43B0F9020036
:10089000C31A92FBF3F0001910BD00002DE9F843D4
:1008A0008F7930257D43B1F90A90064605F118018C
:1008B0004019144671184A460C30FFF7BFFF8046B6
:1008C00060607019011D4A46FFF7D8FF044BA06015
:1008D00053F8273090FBF8F0E0602360BDE8F88320
:1008E000603902082DE9F0412E4D86B00446002102
:1008F0000430FCF714F92B68C827B3F8803021695D
:100900007B430539284EA1EB132160684FF61E0387
:1009100046F20C320096FCF734F9296891F834302D
:10092000DBB101F53F7002AA3031FFF7B7FFD5F810
:10093000008002A908F53F70FEF77DFD80B24743B5
:100940002169B8F83820053965366068A1EB1721B0
:100950004FF61E030096FCF714F9296891F8203031
:10096000EBB101F5D67002AA1C31FFF797FF0D4BD2
:1009700002A91D6805F5D670FEF75DFDC82100B21D
:10098000484321690539A1EB2021E82907D8074B05
:10099000AA8C606800934FF61E03FCF7F2F806B0CD
:1009A000BDE8F081B8AD002008430208D243020838
:1009B000002301608380C2807047000010B50446A8
:1009C00003F0B8FF064B04F50E702360002384F893
:1009D000283004F5D1713222FFF7EAFF204610BD1E
:1009E000D839020838B5044603F0A4FF4E4B204620
:1009F00040F8283BFFF7A4FC04F1540001F070FE1E
:100A000004F53970FEF766FD04F54570FFF732FC1A
:100A100004F55170FFF73AFC04F55D70FFF742FCF6
:100A200004F56970FFF74AFC04F5767006F01AFCCD
:100A300004F52E6008300AF03FFF04F560600830CE
:100A4000FFF7BCFC04F584503830FFF7CFFC04F509
:100A500090501830FFF7F6FC04F59C502830FFF753
:100A600037FD04F5A8502C30FFF7E0FD04F5C35026
:100A7000FFF7FEFD04F5C85004F5CA552430FFF712
:100A80000DFE05F10C00FFF713FE05F13400FFF732
:100A900019FE04F5CC5004F5CE551C30FFF71CFEB2
:100AA000281DFEF729FD05F13800FFF787FF04F543
:100AB000E05004F512553830FFF740F805F110000A
:100AC000FFF702F905F1380004F52A55FFF76CFB32
:100AD00005F13400FFF790FB05F1680009F06EFEA8
:100AE00004F5325004F534550C300EF087FA05F158
:100AF0005000FFF7FBFD05F1780004F53C55FFF7CA
:100B000009FE2846FFF730FE05F1300004F53E559A
:100B1000FFF73EFE05F138000BF003FC05F16C0019
:100B20000CF043FB204638BD2054020810B50446A3
:100B3000FFF758FF04F546500C3002F0E5FC04F5D1
:100B400056506430FFF7C6FB204610BD10B5064C6A
:100B5000236813F0010F04D10448FFF7E7FF0123D6
:100B60002360024810BD00BF687300206C73002032
:100B700010B50C46FBF76CFC0419FCF7F4FCFCF711
:100B8000F7FCFBF765FCA042F7D310BD0023838080
:100B9000704730B590F8283087B00446002B5ED0FF
:100BA0000021FEF73BFD2046FEF75CFE2046FEF7E7
:100BB00029FE8DF80000C0F30723C0F307408DF82D
:100BC00002008DF80130009B2046ADF814301B0C5C
:100BD0008DF81630FEF716FE8DF80000C0F30723DF
:100BE000C0F307408DF802008DF80130009B2046CD
:100BF000ADF810301B0C8DF81230FEF703FE8DF8A7
:100C00000000C0F30723C0F307408DF802008DF801
:100C10000130009B2046ADF80C301B0C8DF80E30D7
:100C2000FEF7F0FD8DF80000C0F30723C0F3074086
:100C30008DF802008DF80130009B0025ADF80830DA
:100C40001B0C8DF80A300323E36304F50E70256452
:100C5000FFF79CFF2046FEF7ABFD84F828502046A6
:100C600007B0BDE83040FEF791BD808870470000B6
:100C700073B501918288C38804469A4203D3094818
:100C80008321FCF73AF902AAA38832F8046D2068A0
:100C900003EB43019278451801334652AA70A380B2
:100CA0007CBD00BF9747020838B50C1E054602DA26
:100CB0008388E41804D42846FFF7D7FF844203DB77
:100CC0000448A821FCF719F9286804EB440400192A
:100CD00038BD00BF97470208818070478088704701
:100CE00038B50C1E054602DA8388E41804D4284679
:100CF000FFF7F4FF844203DB0348A821FCF7FDF86B
:100D0000286800EBC40038BD974702082DE9F74F6B
:100D10000D46019298460446FFF7E0FF014628463B
:100D2000FFF7DAFF00264EE0012E01DD711E00E024
:100D300000212046FFF7D4FFFEF7D4FF3146D0F85C
:100D400000B02046FFF7CCFFFEF7CCFFD0F800A0A4
:100D50002046FFF7C3FF0138864201DA711C00E02C
:100D600031462046FFF7BCFFFEF7BCFF3146D0F806
:100D700000902846FFF7B4FF314607462046FFF7AC
:100D8000AFFF03C887E8030031462846FFF7A8FFF6
:100D9000FEF7A8FF0199074658460FF073FB41463E
:100DA000834650460FF06EFB014658460FF062FA3C
:100DB0000C99824648460FF065FB014650460FF0FD
:100DC00059FA013638602046FFF788FF8642ABDBD0
:100DD000BDE8FE8F2DE9F84305468846FFF77EFF04
:100DE0000024461E11E037197F1039462846FFF7C8
:100DF00077FFFEF776FF0346196840460FF0FEFCCA
:100E0000002808BF3E4618BF3C46331B012BEADCD6
:100E100021462846FFF764FFFEF764FF2146076876
:100E20002846FFF75DFFFEF75CFF03461968404662
:100E30000FF01EFA314680462846FFF751FFFEF7B5
:100E400050FF2146D0F800902846FFF749FFFEF7F3
:100E500048FF0346196848460FF00AFA0146404623
:100E60000FF0C4FB314680462846FFF739FFFEF7F6
:100E700039FF214606682846FFF732FFFEF732FFAA
:100E80000346196830460FF0F3F9014640460FF06B
:100E9000F9FA014638460FF0EDF9BDE8F883000095
:100EA0007FB502AB83E80600002620E0002E02DDBD
:100EB0001248FCF753F8314602A8FFF711FFFEF77E
:100EC00010FF00680EF06AFE04460D4602A8314687
:100ED000FFF706FFFEF706FF00680EF05FFE2246F2
:100EE000CDE900012B460648FCF738F8013602A888
:100EF000FFF7F4FE8642D9DB7FBD00BFF88A020807
:100F0000B5470208016000218180C28070470160FE
:100F100000218180C280704713B56B4683E80600CC
:100F20008288C38804469A4203D307488321FBF78B
:100F3000E4FFA3882268694602EBC302013303C9B8
:100F400082E80300A3801CBD974702088088704791
:100F500030B585B0044601A880E80E00A288E38879
:100F60009A4203D308488321FBF7C7FFA58823686B
:100F70000C2202FB053301AA013507CA83E80700EA
:100F8000A58005B030BD00BF974702080160002171
:100F90008180C280704780887047000038B50C1E81
:100FA000054602DA8388E41804D42846FFF7F3FFE5
:100FB000844203DB0448A821FBF79FFF2B680C2029
:100FC00000FB043038BD00BF974702088388C28801
:100FD000CB189BB29A42838003D202489721FBF739
:100FE0008CBF70479747020870B50C460546FFF75F
:100FF0003CFE844203DB0F48AE21FBF77EFF04EB8F
:10100000440608E02B6801349B191A8823F8032C46
:101010009A7803F8012C2846FFF727FE013803369B
:101020008442EFDB28464FF0FF31BDE87040FFF708
:10103000CDBF00BF974702082DE9F04387B00446B3
:1010400003F038FB844240F0B980E16A226BFEF77E
:101050000DFB03230370E16A2046226B04F50E7535
:10106000FEF74EFB2846FFF700FE60B994F82C10FF
:1010700005A894F8302094F83430FEF7C9FA2846D1
:101080000599FFF7F5FD676B4E4B204613F9079066
:10109000E36A99444C4BC4F82C9013F90780236BF6
:1010A000494698444246C4F83080FEF7DFFAFBB266
:1010B00006465FFA89F15FFA88F204A8FEF7A8FAFB
:1010C00028460499FFF7D4FD3378022B24D1E36B33
:1010D000302B01DC0133E3632046FEF793FB8DF8F0
:1010E0000000C0F30723C0F307408DF801308DF8EE
:1010F0000200009920468AB20B0CADF80C10120ABF
:10110000C9B28DF80E30FEF7FBFA0520FBF7B0F9F7
:101110002046FEF74DFB0DE0042B0BD0012B09D030
:10112000C820FBF7A5F9204603F018FD012384F839
:10113000283043E0E16A226B2046FEF797FA052348
:101140000370E16A2046226BFEF7DAFA2846FFF7C1
:101150008CFDE36B984214DD00212846FFF7A4FDC7
:101160000646317872782046FEF780FA0123037034
:10117000317820467278FEF7C3FA28460021FFF73F
:1011800033FF2846FFF771FDE36B834216DC002135
:101190002846FFF789FD012106462846FFF784FD12
:1011A00083782046A36331787278FEF75FFA0423D0
:1011B0000370317820467278FEF7A2FA07B0BDE8D6
:1011C000F08300BF0C300020083000208388C288E4
:1011D000CB189BB29A42838003D202489721FBF737
:1011E0008CBE704797470208F8B50C46054617466F
:1011F000FFF774FD8442064603DB0E48B721FBF778
:101200007CFE28460121FFF7E1FF3346F60005E0AA
:10121000891901F1080203C982E80300013B083E75
:10122000A3422968F4DA01EBC40497E8030084E8D8
:101230000300F8BD974702082DE9F04704460D4624
:10124000084602211646FFF747FD00212846FFF712
:1012500047FD002107462046FFF742FD03C887E807
:10126000030001212846FFF73BFD07462046FFF714
:1012700035FD411E2046FFF733FD03C887E8030014
:1012800068E041462046FFF72BFDFEF72BFD414667
:10129000D0F800902046FFF723FDFEF722FD03461D
:1012A00019682846FFF796FD014648460EF0E0FF14
:1012B000FEF71AFD394681462046FFF711FDFEF77D
:1012C00011FD3946D0F800A02046FFF709FDFEF7D2
:1012D00008FD034619682846FFF77CFD0146504685
:1012E0000EF0C6FFFEF700FD014648460FF086FAF5
:1012F000002818BF474608F101082046FFF7EEFC1A
:101300008045BEDB4FF000081FE041462846FFF74E
:10131000E7FCFEF7E6FC3946D0F800902046FFF7E0
:10132000DFFCFEF7DEFC0346196848460FF066FA5C
:1013300048B139462046FFF7D3FC414602462846CD
:10134000FFF752FF06E008F101082846FFF7C6FC48
:101350008045DADB2846FFF7C1FCB04203DA4FF0E4
:1013600001080027C9E7BDE8F087000038B50C1E6A
:10137000054602DA8388E41804D42846FFF7E6FD20
:10138000844203DB0348A821FBF7B7FD286800EB84
:10139000C40038BD974702082DE9F04F804685B05C
:1013A00008460391FFF7D2FD00240346002702946C
:1013B0002646A146254637E0394603980193FFF7B4
:1013C000D5FFFEF79CFC3946D0F800B00398FFF734
:1013D000CDFFFEF793FC5946D0F800A028460EF04A
:1013E00049FF5946054658460FF04CF80146484615
:1013F0000EF040FF5146814630460EF03BFF51460D
:10140000064650460FF03EF8014602980EF032FFB5
:101410005146029058460FF035F8014620460EF02E
:1014200029FF019B044601379F42C5DB18460EF099
:10143000D5FF494682460FF025F82946074628463B
:101440000FF020F8014638460EF012FF21460746FD
:1014500050460FF017F83146834628460FF012F831
:10146000014658460EF004FF394683460FF0BEF899
:101470004946C8F8000030460FF004F82946814676
:1014800020460EF0FFFF014648460EF0F1FE3946B9
:101490000FF0ACF85946C8F8040058460EF0F2FFB9
:1014A0000299044650460EF0EDFF3146054630469F
:1014B0000EF0E8FF014628460EF0DAFE01463846F7
:1014C0000EF0E0FF014620460FF090F8C8F8080043
:1014D000404605B0BDE8F08F2DE9F04F4269A24BC0
:1014E0000446ADF5026D53F8222083B09F48A168F1
:1014F000FBF734FDA368012B05D19D4B62691B6886
:1015000083F8222006E0022B04D1994B62691B6804
:1015100083F836200DF5026005A93D22FFF7F2FCA5
:101520006FF01303EBE02046FEF728FC05F046FEC3
:101530000DF5006018300DF5D8611922FFF7E7FCB2
:101540008C4BA3617DE02046FFF762F920466421C1
:10155000FFF70EFB2379002B2FD0032323614FF0DD
:101560007E532362A0690EF019FB02460B468248A7
:10157000E168FBF7F3FC002505E020466421FFF756
:10158000F7FA2379CBB12369002BF6DCD4F820805D
:101590004FF07E5140460FF01DF9F8B940460EF06D
:1015A000FDFA0B4602467548FBF7D8FC20464FF47F
:1015B000FA71FFF7DDFA23791BB92046FEF7F4FB39
:1015C000F2E10123ED18092D2361DCDD4FF4FA70FF
:1015D000FAF74EFF6A48FBF7C1FC62E0E0690EF0E3
:1015E000DDFA064640460F460EF0D8FA3246CDE9FF
:1015F00000013B466348FBF7B1FCE6694FF08341CD
:1016000030460FF0F1F890B130465F490FF0E2F844
:1016100068B10DF50165A16932462846FEF771FBF8
:1016200095E806000DF500601830FFF775FCE069DD
:1016300056490FF0D9F858B9A0694E490EF01AFE74
:10164000A061A06952490FF0C5F800287FF47BAF74
:101650000DF500601830FFF779FC01284DDD0DF520
:10166000FA600DF5006104301831FFF795FEDDF8E2
:10167000DC070EF093FA3AA3D3E90023DDF8D46730
:10168000DDF8D857804689460EF04EFD88B14FF4FC
:10169000FA70FAF7EDFE3F48E16842464B46FBF729
:1016A0005DFC4FF4FA70FAF7D9FE2046FEF784FB92
:1016B0007AE131464FF07E500EF098FF0EF06EFA50
:1016C000824628468B460EF069FA0DF5F967CDE99A
:1016D000000152463048E1685B46CDE90289FBF7DC
:1016E0003DFCE16832462B463846FEF70DFB97E895
:1016F0000E000DF50260FFF72BFCE3680533E36095
:10170000E368B3F58C7F7FF70EAF0DF500600DF544
:101710009B613D220830FFF739FCBCA93D220DF545
:101720000060FFF733FC0DF5F76102220DF5FF6055
:10173000FFF72CFC0DF5F16106220DF5FE60FFF7B9
:1017400025FC0DF50260FFF726FC01460DF5006053
:101750000830FFF7C1FA002542E000BFAFF3008078
:10176000AE47E17A14AEEF3F544D0208C447020879
:10177000B8AD0020CDCCCC3DE6470208FC470208BE
:1017800023480208554802080000704366E6794382
:101790009A99214069480208A34802080DF50060A3
:1017A00029460830FFF79CFA294607460DF50260E6
:1017B000FFF7F4FB00680EF011FE294680460DF598
:1017C0000260FFF7EBFB0DF5FD6603464146304630
:1017D0009A68FEF783FA96E8030087E8030001356C
:1017E0000DF50260FFF7D7FB8542D7DB0DF50060F2
:1017F0000DF5FF6102220830FFF71EFD0DF50260B6
:10180000FFF7C9FB01460DF500600830FFF764FAE9
:10181000002521E00DF5006029460830FFF760FA49
:10182000294607460DF50260FFF7B8FB00680EF089
:10183000D5FD294680460DF50260FFF7AFFB0DF59B
:10184000FC660346414630465A68FEF747FA96E87A
:10185000030087E8030001350DF50260FFF79BFBED
:101860008542D7DB0DF500604FF07A5208300DF558
:1018700000614FF07C530092FFF748FA0DF50061CC
:1018800000234FF07C520DF50060083100920DF5F9
:10189000FE66FFF73BFA0DF5006031460622083080
:1018A000FFF7CAFC4348FBF759FB0DF5FF654248BB
:1018B000FBF754FB95E806002046FFF7F1FA3F4896
:1018C000FBF74CFB3E48FBF749FB96E80600204639
:1018D000FFF7E6FA3948FBF741FB636A002B5ED05D
:1018E0006269384B4FF08F4053F822100EF07EFEA5
:1018F00006462846FFF7F2F9022804D032484FF492
:10190000DC71FBF7FAFA002529460DF5FF60676ADE
:10191000FFF7E6F900680EF07BFF294627F815006F
:101920000DF5FF60676AFFF7DBF90346596830463B
:101930000EF0A8FD0EF06CFF07EB85070135022DB8
:101940007860E1D10DF5FE60FFF7C8F9062804D0F4
:101950001D484FF4DF71FBF7D0FA002529460DF53D
:10196000FE60676AFFF7BCF92B1D006807EB4307B1
:101970000EF04EFF2946B8800DF5FE60676AFFF74E
:10198000AFF90346596830460EF07CFD0EF040FF7B
:1019900005F106080135062D47F82800DED120465E
:1019A000FEF70EFA002323710BB00DF5006DBDE8B4
:1019B000F08F00BFCA480208E0480208E648020863
:1019C000E9480208383B02081C470208AFF30080D0
:1019D00013B54FF000600A4900F0F6F800F0FAF98C
:1019E000F2F744FC01A8FBF71DFE01A8FBF7C0FDC0
:1019F00004460028F9D101A8FBF7B4FD20461CBD20
:101A000000C000080B4B4FF0FF316FF07042C3F87D
:101A10008010C3F88420C3F88011C3F88421002308
:101A200003F1C001034A013300200F2B42F82100CB
:101A3000F6D1704700E100E0094B4FF02062094900
:101A40005A6000229A60D9601A615A619A61DA611B
:101A50001A625A62013A9A62DA621A63704700BFE8
:101A600000ED00E00000FA0540F0BE60024B40F4DB
:101A70002020D860704700BF00ED00E0C37870B54B
:101A80006BB31D4B4578DB688178DB4303F4E0637F
:101A90001B0AC3F1040215FA02F20F25DD400D40C6
:101AA000154302782D0102F00304E400FF21A54054
:101AB000A140124B9208C03253F8226026EA01047A
:101AC00005EA0101214343F822100278012051095F
