:020000040800F2
:10C0000000000120A5320108B9300108BB30010849
:10C01000BD300108BF300108C13001080000000038
:10C02000000000000000000000000000C530010812
:10C03000C330010800000000C7300108C930010802
:10C04000CB300108CD300108CF300108D1300108D4
:10C05000D3300108D5300108D7300108D9300108A4
:10C06000DB300108DD300108DF300108E130010874
:10C07000E3300108E5300108E7300108E930010844
:10C08000EB300108ED300108EF300108F130010814
:10C09000F5300108F9300108FB300108FD300108D6
:10C0A000FF300108013101080331010805310108A1
:10C0B00007310108093101081D3201081F3201084A
:10C0C00021320108233201082532010827320108F4
:10C0D000293201082B320108393201083B320108AC
:10C0E0003D3201083F320108413201084332010864
:10C0F0004532010847320108493201084B32010834
:10C100004D3201084F320108513201085332010803
:10C110005532010857320108593201085B320108D3
:10C120005D3201085F3201086132010863320108A3
:10C1300020B10368197003680133036070472DE96B
:10C14000F041161E04460D4614DD002200E00132C7
:10C15000A95C0029FBD1B24203F00208B4BFC2EBD4
:10C1600006060E46B8F1000F0CBF4FF020084FF046
:10C17000300801E04FF0200813F0010709D105E075
:10C1800020464146FFF7D4FF0137013E002EF7DC81
:10C1900005E0002703E02046FFF7CAFF013715F846
:10C1A000011B0029F7D105E020464146FFF7C0FFFB
:10C1B0000137013E002EF7DC3846BDE8F0812DE95D
:10C1C000FF410A9F05460B9EDDF830C08E4651B9EF
:10C1D00030238DF804308DF805103A4601A9334616
:10C1E000FFF7ADFF3CE03BB10A2A07D1002905DA91
:10C1F000C1F1000E012402E01C4600E0002404A965
:10C20000002301F8013D0EE0BEFBF2F302FB13EE4A
:10C21000BEF1090FC4BFACF13A0086440EF1300EF6
:10C2200001F801ED9E468846BEF1000FECD184B1C5
:10C230004FB116F0020F06D028462D21FFF778FFE8
:10C24000013F012405E02D2301F1FF3801F8013CF5
:10C250000024284641463A463346FFF770FF00194E
:10C2600004B0BDE8F0812DE9F0478AB006460D46DE
:10C2700005920024DBE0252B40F0D38015F8013F28
:10C28000002B00F0D880252B00F0CB802D2B02D185
:10C2900001352C3B03E0002301E043F00203294673
:10C2A00015F8012B302AF8D0002702E00A2202FB01
:10C2B00007070A780D46A2F130005FFA80FC0131D1
:10C2C000BCF1090FF2D9732A09D1059A3046111D24
:10C2D000059111685C4A002908BF11469DE0642A57
:10C2E0000ED1059A01936123111D029300970591C8
:10C2F00030461168603B0A22FFF761FF241895E081
:10C30000662A54D1059B073323F0070303F1080283
:10C31000D3E90001059217F00FFC0021804617F0C9
:10C3200007FF38B12D238DF8183008F100480DF1C2
:10C33000190A01E00DF1180A404617F021FF012308
:10C3400000E013460A225A439042FADA90FBF3F2D5
:10C3500002F1300103FB12000A2293FBF2F30AF808
:10C36000011B002BF2D124328AF80020002F08BFD5
:10C3700003279946404617F003FF17F0E7FC0146F4
:10C38000404617F02DFC314917F034FD804617F078
:10C39000F7FE09F101093030B9450AF8010FE9DB70
:10C3A00000228AF80120304606A9202336E0782AA8
:10C3B0000AD1059A01936123111D009702930591FB
:10C3C00030461168102219E0582A0BD1059A0193C2
:10C3D0004123111D02930097059130461168413B9E
:10C3E000102289E7752A0BD1059A01936123111D4B
:10C3F000009702930591304611680A22613B7BE762
:10C40000632A13D1059A3046111D126805918DF8E3
:10C41000242000228DF8252009A93A46FFF78FFE37
:10C420006CE730462978FFF783FE013401352B781D
:10C43000002B7FF420AF16B1336800221A7020461B
:10C440000AB0BDE8F08700BF407602080000204136
:10C45000014BD86C80B2704700240140014B186832
:10C46000704700BF30A7002001461420F7F7EEBE4A
:10C47000034B18801A8892B2002AFBD1704700BF84
:10C480003CA70020044B10B5196804460320F7F7B9
:10C49000DDFE024B1C8010BD003000203EA70020B6
:10C4A00030B5002308E00A24B0FBF4F104FB1100CE
:10C4B0003030D054013388B2084A0028F3D1D05428
:10C4C0005910013BD31804E0145C5D7815545C707E
:10C4D0000130013B8842F7DB004830BD6C32002060
:10C4E00008B506200021F7F7B5FE5A234343A3F50C
:10C4F0008223A3F56B6340F2145093FBF0F00A30F3
:10C500006428A8BF642020EAE07008BD0128ACBF01
:10C51000014601210220F7F799BE00EBD070024BD3
:10C5200040101860704700BF00300020052810B58B
:10C5300007D8044B53F8200018B1046806F06AFDD0
:10C54000A04710BD68670208C0B2F7F77FBE47F288
:10C550006623984201D1F7F76DBEC0B2F7F77ABEF5
:10C5600043680A6823F4702323F4807313430A7921
:10C5700010B543EA022343608A68CB6884681A4393
:10C58000094B04EA030342EA03034A7943EA4203FC
:10C5900083600B7CC26A013B22F47002DBB242EA88
:10C5A0000353C36210BD00BFFDF7F1FF002303601A
:10C5B000037143718360C36001330374704719B121
:10C5C000836843F0010302E0836823F00103836082
:10C5D000704719B1836843F4807302E0836823F4E1
:10C5E000807383607047C9B212B14368194302E097
:10C5F000436823EA010141607047836843F0080300
:10C60000836070478068C0F3C0007047836843F060
:10C610000403836070478068C0F38000704719B1DD
:10C62000836843F4A00302E0836823F4A0038360DB
:10C6300070478068C0F3805070474368013923F425
:10C64000604343EA41334360704719B1436843F4A0
:10C65000006302E0436823F40063436070470929E4
:10C6600070B54FEA41040BD964181E3C0725A5405C
:10C67000A340C66826EA050545EA0304C4600AE04B
:10C6800064180725A54013FA04F4066926EA05058F
:10C6900045EA04030361062A0CD8013A02EB820240
:10C6A0001F2393409140446B24EA030343EA0102B1
:10C6B000426370BD0C2A4FEA82030BD89A18233AC2
:10C6C0001F2393409140046B24EA030343EA0102D1
:10C6D000026370BD9A18413A1F2393409140C46A87
:10C6E00024EA030343EA0102C26270BD19B1836800
:10C6F00043F4801302E0836823F48013836070475F
:10C70000C06C80B27047014B186870474C240140E0
:10C7100019B1436843F4806302E0436823F4806303
:10C720004360704719B1436843F4805302E04368A3
:10C7300023F4805343607047836823F4E04341EA65
:10C7400003038360704719B1836843F4004302E038
:10C75000836823F400438360704719B1836843F40E
:10C76000021302E0836823F4021383607047806839
:10C77000C0F340507047092970B54FEA41040BD906
:10C7800064181E3C0725A540A340C66826EA050597
:10C7900045EA0304C4600AE064180725A54013FABB
:10C7A00004F4066926EA050545EA04030361836B80
:10C7B00003F440146FEA145412190332D2B202EB9C
:10C7C00082021F249440914023EA04030B438363B5
:10C7D00070BD836B013923F4401343EA0153836333
:10C7E000704782B00A5002B0704782B00190283082
:10C7F000405880B202B07047436823F4400323F4EA
:10C80000007341EA030343607047416282627047EC
:10C81000436823F01F0341EA030343607047054B5D
:10C8200018B19A6842F4000202E09A6822F4000209
:10C830009A60704700240140036819420CBF002031
:10C8400001207047C943016070474368006810EADF
:10C85000112004D0C9B219420CBF0020012070473A
:10C860006FEA112101607047044B11B1DA6810437F
:10C8700002E0DA6822EA0000D86070470010024047
:10C8800007B5124B019098420DD0114B984212D02F
:10C89000104B984219D14FF400700121FFF7E4FFCB
:10C8A0004FF400700EE04FF480600121FFF7DCFFD1
:10C8B0004FF4806006E04FF400400121FFF7D4FF01
:10C8C0004FF400400021FFF7CFFF0EBD00280140CC
:10C8D000003C014000240140044B11B15A6910434F
:10C8E00002E05A6922EA00005861704700100240D5
:10C8F000044B11B19A69104302E09A6922EA0000E0
:10C90000986170470010024008B50120FFF787FFCB
:10C9100010210A4801220523FFF7A1FE0120FFF79D
:10C92000A7FD06480121FFF77AFE02210348FFF721
:10C9300083FF0128F9D1FFF78BFD08BD00240140DA
:10C9400008B50120FFF76BFF11210A4801220523DA
:10C95000FFF785FE0120FFF78BFD06480121FFF759
:10C960005EFE02210348FFF767FF0128F9D1FFF7B8
:10C970006FFD08BD00240140024B0E2202FB003077
:10C98000704700BF80670208034B18801A8892B274
:10C99000002AFBD1704700BF3CA70020044A4FF497
:10C9A000805313604FF0C0421080024A13607047FA
:10C9B000141401401014014010B5EF20FFF7EEFFF2
:10C9C0004FF0C0431A881C8818881A881988C3B287
:10C9D000C9B241EA046141EA0343120643EA124242
:10C9E000014B9A6010BD00BF6C320020054B4FF424
:10C9F00080521A604FF0C0431880034802601980CB
:10CA0000704700BF14140140101401402DE9F0419B
:10CA1000E9204FF0C044FFF7C1FF202222801120FF
:10CA2000FFF7BCFF6420FFF7AFFFD120FFF7B6FF91
:10CA3000002517225E232580D02023802280FFF747
:10CA4000ADFF0C2607232380362023804FF04008BB
:10CA50002680FFF7A3FF3046A4F800804936FFF791
:10CA60009DFF26803A20FFF799FF2680C120FFF71F
:10CA700095FF533E10232380C020238026802680EC
:10CA8000FFF78CFF012735232580C52023802580D3
:10CA9000258027802680FFF781FF2780D220FFF79F
:10CAA0007DFF22232780C8202380FFF777FF732292
:10CAB000372327802280238004220F232580238090
:10CAC000268022806722A4F8008022802580802290
:10CAD0002680238008232380292022802580FFF7B9
:10CAE0005DFF2C20BDE8F04158E7002008B5014665
:10CAF000FFF77CFF00200146FFF778FF002001468A
:10CB0000FFF774FF00200146FFF770FF0A20FFF7D0
:10CB10003BFF01214FF4C060FFF768FF0A20FFF7D9
:10CB200033FF40214FF4DE60FFF760FF0A20FFF77C
:10CB30002BFF4FF480604FF4C441FFF757FF0820EC
:10CB400040F60801FFF752FF01204FF48071FFF714
:10CB50004DFF02204FF48071FFF748FF0320302182
:10CB6000FFF744FF09200121FFF740FF0C200021BF
:10CB7000FFF73CFF90204FF40041FFF737FF0F20F5
:10CB80000021FFF733FF10201621FFF72FFF1120A0
:10CB900040F20111FFF72AFF12200021FFF726FFC4
:10CBA00013200121FFF722FF4FF480704FF44C71E6
:10CBB000FFF71CFF40F2011040F23721FFF716FF8C
:10CBC00040F203104FF47061FFF710FF4FF4207034
:10CBD0004FF4D641FFF70AFF4CF2B0114FF48170C9
:10CBE000FFF704FF6420FFF7CFFE4FF440704FF4CF
:10CBF0004061FFF7FBFE40F2013045F60B21FFF7E5
:10CC0000F5FE40F2023040F60611FFF7EFFE40F26B
:10CC1000033041F21701FFF7E9FE4FF441704FF482
:10CC20000C51FFF7E3FE40F205304FF4B851FFF727
:10CC3000DDFE40F2063046F20931FFF7D7FE40F242
:10CC4000073040F60941FFF7D1FE4FF4427041F240
:10CC50000C01FFF7CBFE40F2093042F23221FFF720
:10CC6000C5FE4FF404700021FFF7C0FE40F2112012
:10CC7000EF21FFF7BBFE40F212200021FFF7B6FEC6
:10CC800040F2132040F28F11FFF7B0FE4FF4A06086
:10CC90000021FFF7ABFE40F201500021FFF7A6FE96
:10CCA00040F202500521FFF7A1FE40F201400121B0
:10CCB000FFF79CFE002140F20440FFF797FE64203E
:10CCC000FFF762FE4FF480710720FFF78FFE6420AC
:10CCD000FFF75AFE4FF400700021FFF787FE002196
:10CCE00040F20120FFF782FE054A4FF480531360A3
:10CCF00040F202214FF0C0421180024A136008BD89
:10CD0000141401401014014070B5104C4FF48053BE
:10CD10004FF40065236001202560FFF735FE0C4BC2
:10CD20000A201D60FFF730FE32202560FFF72CFE41
:10CD3000FFF742FE074B9A68074B9A4202D1BDE8C3
:10CD4000704063E6BDE87040CFE600BF10140140BC
:10CD5000141401406C320020279304020B4B10B5D1
:10CD60009A680B4B4FF0C0449A4209D12E20FFF72E
:10CD700015FE238824882C20A4B2FFF70FFE02E0C2
:10CD800023882488A4B2204610BD00BF6C32002046
:10CD9000279304020EB403B503AA52F8041B0190B2
:10CDA00001A80092FFF75FFABDE80C4003B070479E
:10CDB000AAE713B502AC24F8020D00200146F7F7EC
:10CDC00025FA20464BF68031F7F72EFAF7F728FAC6
:10CDD00020464BF68031F7F727FAF7F721FA1CBD0A
:10CDE000C1F1EF0110B580B289B21446F7F70EFA1F
:10CDF0002046BDE81040F7F70BBAC1F1EF0110B5BE
:10CE000080B289B2F7F702FABDE81040F7F72CBA02
:10CE100038B5151A5C1A6C434BF67F35AC4280B2BC
:10CE200002F1FF35C3F1F0020FD9C1F1EF0392B265
:10CE3000A9B29BB26508F7F7F1F904A8A9B2F7F710
:10CE4000F3F9641BF7F7ECF906E0C1F1EF0392B2D6
:10CE5000A9B29BB2F7F7E2F904A8A1B2F7F7E4F997
:10CE6000F7F7DEF9002040F28F110246EF23F7F7C3
:10CE7000D5F938BD37B50D46B0F9021004464B1C44
:10CE8000B0F90000B4F904200095FFF7C1FFB4F930
:10CE90000630B4F90000591EB4F904200095FFF7DC
:10CEA000B7FFB4F90000B4F90210421CB4F906301F
:10CEB0000095FFF7ADFFB4F90420B4F90210B4F9FE
:10CEC0000630501E0095FFF7A3FF3EBD2DE9F14F40
:10CED0000A9C1E460B9B88461746511E04EB4309CD
:10CEE000C6F1F002C8F1EF03054689B280B292B2F2
:10CEF0009BB2F7F793F9A2460CE03AF8020BF7F76A
:10CF000087F9CA4508BFA2460BF1010BBB45F4DB0C
:10CF100008F10108B04501DAAB46F7E7002040F21E
:10CF20008F110246EF2301B0BDE8F04FF7F776B955
:10CF30002DE9F843B0F80080044689461FFA88F7C7
:10CF4000002614E0B4F9065009E0C5F1EF013846B7
:10CF500089B2F7F75BF9FFF701FF29F8020BB4F983
:10CF60000230013D9D42F0DA01370136BFB20FFABF
:10CF700088F2B4F90430B2189A42E3DBBDE8F883D2
:10CF80002DE9F047C28843880D468188C2F1F0023E
:10CF90000139C3F1EF03044689B2008892B29BB213
:10CFA000F7F73CF90026B4F8028010E0B4F80090DE
:10CFB000002703E035F8020BF7F72AF90FFA89F298
:10CFC000B4F90430BA1801379A42F3DB01360FFA8C
:10CFD00088F2B4F90630B2189A42E7DB002040F23A
:10CFE0008F110246EF23BDE8F047F7F717B913B5E5
:10CFF0000346B3F90240B3F90420B0F90000B3F9D5
:10D00000063000912146FFF703FF1CBD0268034B69
:10D01000DA6042681A6102685A6170476C32002017
:10D0200010B50B4C0246B4F91610B4F91400FFF712
:10D03000D7FEA38AB4F910200133A3821BB29A420F
:10D0400004DCA389A382E38A0133E38210BD00BF1D
:10D050006C32002070472DE9F74F99460C9B0191E7
:10D06000924613F801BB054600241DE018F8013B69
:10D07000FBB113F0040F4FF61E0305D09A450AD0FA
:10D0800028463146524604E0994504D028463146A8
:10D090004A46FFF7A5FE013701365F454346E5DB0B
:10D0A00001340135502C03D0019E98460027F4E747
:10D0B00008242046BDE8FE8F2DE9F0411E460F46AC
:10D0C000B6B2C7F1F00714460546F7F7AFF8B91B3B
:10D0D000A8B289B2F7F79AF820463146F7F7A2F8D6
:10D0E000BDE8F041F7F79CB830F0030309D131F007
:10D0F000030208D140EA81000449091891F8180E8A
:10D100007047002070471846704700BF68670208E4
:10D110002DE9F04F85B004469A469DF839009DF8F8
:10D1200038300D4616469DF83AB0029003932746D4
:10D1300045E0C5EB0A01701E0139C01B3B1BC8EB63
:10D1400001019842A8BF18464145A8BF4146FFF7D4
:10D15000CBFF68BBC9F1EF0189B2B8B2F7F756F857
:10D16000F7F782F81A4BC10001F0FF01C208000A6C
:10D1700000EA0303C1EB0B000190DDF808C003983F
:10D1800002F0FC02C2EB0C0EC3EB000C03EB6C03D1
:10D19000DDF804C0DB1001EB6C00C01040EAC323D3
:10D1A00002EB6E00801043EA401080B2F7F730F8CF
:10D1B00009F1010908F10108D145BADB0137B7428D
:10D1C00003DAA9464FF00008F6E705B0BDE8F08F96
:10D1D000F8FF07002DE9F74F06468A4615461C461C
:10D1E000BDF830B088462DE00AF10303984509D117
:10D1F000E71E414630462A463B46CDF800B0FFF7D1
:10D2000007FEB846B146002718E0A81B0138611E8A
:10D21000C01BC8EB0101CAEB0803B842A8BF3846DF
:10D220009942A8BF1946FFF75FFF20B9484641461B
:10D230005A46FFF7D5FD09F101090137A945E4DB9D
:10D2400008F10108A045CFDBBDE8FE8F13B503460A
:10D25000B3F90240B3F90420B0F90000B3F9063085
:10D2600000912146FFF7B6FF1CBD2DE9F74F019055
:10D270009DF830001F460D469246FFF77DFB4FF6A6
:10D280001E039F4283461DD100241BF80480019F8A
:10D290006FEA08085FFA88F8082618F0800F04D0B3
:10D2A000384661195246FFF79BFD013EF6B2013741
:10D2B00026B14FEA48085FFA88F8EEE701340E2CF1
:10D2C000E3D145E09A451FD100241BF80490DDF816
:10D2D00004806FEA09095FFA89F9082619F0800FBE
:10D2E00004D1404661193A46FFF77AFD013EF6B295
:10D2F00008F1010826B14FEA49095FFA89F9EDE71B
:10D3000001340E2CE1D123E000241BF80490019E8F
:10D310006FEA09095FFA89F94FF0080819F0800FE0
:10D3200008F1FF38304614BF52463A4629465FFAA4
:10D3300088F8FFF755FD0136B8F1000F04D04FEA29
:10D3400049095FFA89F9E9E7013401350E2CDCD18E
:10D350000820BDE8FE8F2DE9F7430A9F05460E46DB
:10D3600091469846AFB1387818B913E00A2B02D12C
:10D3700010362C4607E00093204631464A46434685
:10D38000FFF773FF241817F8013B002BEED1601B49
:10D3900000E03846BDE8FE83DDE72DE9F043A5B0A7
:10D3A00015462CAA0E4652F8041B07460DF1080834
:10D3B00023A899462292CDF88C80FEF754FF31467F
:10D3C00004462A4638464B46CDF80080FFF7E4FF76
:10D3D000204625B0BDE8F08337B5124B05460C4614
:10D3E000009330211F2328204FF6FF72FFF7D4FF50
:10D3F00020211F234FF6FF7228200095FFF7CCFF56
:10D40000A0B2FFF74DF8102100904FF6FF722820D0
:10D410001F23FFF7C1FF4FF47A7003B0BDE830401F
:10D42000FFF726B84776020808B502480421FFF73F
:10D43000D3FFFEE7597602080FB430B5A5B028AA8D
:10D4400052F8041B02AC23A823942292FEF70BFF90
:10D4500023941EE00A2B134C03D0A569B5F5C47FB5
:10D4600009DBE26900230E32E02AA361E2610DDDEF
:10D470000C4AD3610AE000932846E1694FF6FF7237
:10D480004FF43043FFF7F1FE4019A061239B0133B5
:10D490002393239B1B78002BDCD125B0BDE83040C3
:10D4A00004B070476C3200202DE9F74FC0EB020B3F
:10D4B0005F1A1FFA8BFBBFB20FFA8BFA0FFA87F8CD
:10D4C0004FEADB3BFF0BBDF83090BAF1000FD4BF41
:10D4D000CBF1000BCBF1010BB8F1000FD4BF7F42B1
:10D4E000C7F10107BAF1000FB8BFCAF1000AB8F1DD
:10D4F000000FB8BFC8F100084FEA4A0A4FEA4808CF
:10D5000000921FFA8AFA1FFA88F84A4601930446E5
:10D510000D460FFA8AF6FFF763FC0FFA88F39E4276
:10D5200020DB1FFA88F8A8EB6606B6B216E016F400
:10D53000004F09D11EB94FFA8BF3002B04DD7BB2EB
:10D54000CAEB0606ED18B6B24FFA8BF3E418464460
:10D55000204629464A46B6B2FFF742FC009B9C4251
:10D56000E5D11EE01FFA8AFAAAEB6306B6B215E00F
:10D5700016F4004F09D116B97BB2002B05DD4FFA26
:10D580008BF3C8EB0606E418B6B27BB2ED1856442E
:10D59000204629464A46B6B2FFF722FC019B9D422F
:10D5A000E6D1BDE8FE8F0020FFF7E6B908B50021FF
:10D5B0000420F6F74FFEC3439BB2C3F3802013F45D
:10D5C000006F1CBF40F0020080B213F4805F18BFF0
:10D5D00040F4807013F0080F18BF40F0040013F4FB
:10D5E000004F18BF40F0080013F0400F18BF40F480
:10D5F000007013F4804F18BF40F0100013F4005F68
:10D6000018BF40F0200013F4807F18BF40F04000A6
:10D6100013F4007F18BF40F0800008BD07B50B2051
:10D620000021F6F717FE40B9074B303000931E215A
:10D630001F224FF6FF73FFF78EFE1420002103B068
:10D640005DF804EBF6F702BE7F760208024B014656
:10D6500018712420F6F7FABD00300020014B18792C
:10D66000704700BF0030002070B50CE09C1804EB40
:10D67000D474641050F8246025468E4201D2621C96
:10D6800001E004D9631E9342F0DA4FF0FF352846DB
:10D6900070BD2DE9F84F214C074604F56260083053
:10D6A0000E4615469846002215230C99FFF7DCFF1D
:10D6B000B0F1FF3F9DF82890BDF82CA083462AD0FA
:10D6C0000C9A174B05209A600021F6F7BFFD092040
:10D6D0003946F6F7BBFD0A203146F6F7B7FD0020C4
:10D6E0002946F6F7B3FD0B204146F6F7AFFD0C20B7
:10D6F0004946F6F7ABFD04EB4B0401205146F6F723
:10D70000A5FD0720B4F8801EF6F7A0FD0820B4F8A8
:10D71000AC1EF6F79BFDBDE8F88F00BF68670208F6
:10D720000030002008B503200021F6F793FDC0B2B9
:10D7300008BDF6F77FBD08B506200121F6F786FD86
:10D74000FEF78CFE014B186208BD00BF6C32002052
:10D750002DE9F04106460C462220314615461F466B
:10D76000F6F774FD21202146F6F770FD202047EAE8
:10D77000C501BDE8F041F6F769BDB0F5805F70B551
:10D7800003DD0A48CA21FFF727FE094C04F580454E
:10D790002668FFF7CEFF06F07F4620F07F4040EA84
:10D7A000060644F8046BAC42F2D170BD98760208CC
:10D7B000903200204FF480507047B0F5805F10B574
:10D7C000044603D30348DB21FFF706FE024800EBC3
:10D7D000840010BD987602089032002010B5002118
:10D7E0000220F6F737FD00210120F6F733FD002176
:10D7F00000F001040320F6F72DFD10F0010F18BF13
:10D8000044F00204204610BD08B5FEF727FE0B4B7E
:10D810001B6AC01A16F09AFA094916F09FFB094BC9
:10D82000996816F09BFB084916F0E4FA16F0A8FC7C
:10D83000B0F5805FA8BF4FF4805008BD6C32002067
:10D8400000007A44003000200000F041034670B52B
:10D8500010200C4619461546F6F7F8FC1120214613
:10D86000F6F7F4FC12202946BDE87040F6F7EEBC4E
:10D87000094B10B51A68094C22F001021A60084AD7
:10D88000146043F2B0521A60064A116090601A6840
:10D8900042F001021A6010BD4404024008740040C6
:10D8A0004C04024048040240034B0121A3F83C0D04
:10D8B00003F552601C30DBE75465002001460D2063
:10D8C000F6F7C4BC004870479272002008B50346C2
:10D8D00002730020012A587305D11A4609480833FB
:10D8E000F6F7D4FC06E0022A09D11A4605480833A7
:10D8F000F6F7CAFCD0F1010038BF002008BD0120B6
:10D9000008BD00BF9272002008B5034608461946BC
:10D91000F6F7BEFCD0F1010038BF002008BD10B5FD
:10D92000044608462146F6F7B5FC20B9637B013072
:10D930000133637310BD002010BD10B5037B044696
:10D94000022B10D1B1F1FF3F08BF417B224608BF37
:10D950004902074804F10803F6F79EFC28B903239F
:10D960002373013010BD012010BD002010BD00BF89
:10D9700092720020F0B502EBD27700247F1001EB09
:10D98000420523460DE0BB42B4BF31F813C035F861
:10D9900002CC065F013306FB0CF6360C0653023D43
:10D9A00004349342EFDBF0BD0CF0A0B8420803460C
:10D9B0000DD00021B3FBF2F080184008121A01329A
:10D9C000022A04D9192902D001310246F2E7704730
:10D9D000024B034A93FBF0F31381704700A24A0401
:10D9E0000038014005E0054A118811F0800FFAD097
:10D9F000938010F8013B002BF5D1704700380140AF
:10DA00000F4B10489A6942F480429A610E4A40F2E4
:10DA10007123138142F22C039381138823F4A463AE
:10DA200023F005031B041B0C1380084B5A6822F4D7
:10DA30007F6242F40A625A604FF480621A61D1E751
:10DA400000100240C2760208003801400008014080
:10DA500010B54FF4FA70FEF70BFDFFF7A9F9FFF7C9
:10DA6000DDFDBDE81040CBE705F006BB034B1A888F
:10DA700012F0800FFAD09880704700BF0038014044
:10DA80000E200021F6F7E6BB0D200021F6F7E2BBE1
:10DA90000F200021F6F7DEBB10200021F6F7DABBDD
:10DAA000F6F7CCBB014B9868704700BF6C32002082
:10DAB0002DE9F0433F3189B0234B804687B28CB2C9
:10DAC000ADF1020213F8010C1978C0108910C002E0
:10DAD000490141185878043301EBD00122F8021FA4
:10DAE0001A498B42EED11A4E3D4616F8013B08AA60
:10DAF0001B0902EB430328460135214633F8202C4D
:10DB0000ADB208F1FF09FFF76BF94D4502DD013CAD
:10DB1000A4B23D4616F8013C08AA03F00F0302EB3D
:10DB2000430328460135214633F8202CADB2FFF7D8
:10DB300057F94D4502DD013CA4B23D46054B9E42DE
:10DB4000D3D109B0BDE8F08337D8030877D80308EC
:10DB500076D8030876F80308704700BF014B1860B9
:10DB6000704700BF947400207047014B18687047DD
:10DB70009474002037B5FEF771FC294C2368B3F18B
:10DB8000FF3F08BF20602368C51AB5F57A7F0ED91C
:10DB90004FF47A72B5FBF2F502FB053320490B60B6
:10DBA00004F096FE00F534504368ED184560FFF729
:10DBB000FDFCADF8060000B9A08004F089FE00F578
:10DBC00046500DF10601543003F022FC04F080FEB3
:10DBD00000F5465054300DF1060103F021FCBDF86C
:10DBE0000630ABB104F074FE0221BDF8062008F047
:10DBF00013FABDF80620A3889A4206D0094B1B6889
:10DC00001B7A13B93220FEF73DFCBDF80630A38025
:10DC100004F05EFE0321002208F0FEF901203EBD63
:10DC20001030002050A7002010B5FFF711FF04F0BE
:10DC30004FFE07F0D8FF04F04BFE0121002208F050
:10DC4000EBF912F009FE12F0C1FD12F029FCBDE85B
:10DC50001040FFF770BD00BF08B5036849421B685C
:10DC600049B2984708BD0000014B1868704700BFD3
:10DC700070890208704701207047436882681968FC
:10DC80008A181A6070474368826819688A1A1A608D
:10DC900070470820704783681B78CB1805D4027B37
:10DCA0009342CCBF0020012070470020704783685A
:10DCB0001A7801321A70704783681A78013A1A701C
:10DCC000704783681970704783681878704702201E
:10DCD00070471820704702207047002070470020CE
:10DCE0007047082070470000034B1B68586A0028E3
:10DCF000B8BF03308010704750A700200020704745
:10DD000019207047034B1B68986A0028B8BF03307E
:10DD10008010704750A700200020704719207047DE
:10DD200070477047436882681B68CB18934205DBD5
:10DD3000C0688342CCBF002001207047002070479C
:10DD400043681A6801321A60704743681A68013ADA
:10DD50001A60704702484FF48871FFF73DBB00BF5F
:10DD6000D883020808B5034840F20F11FFF734FBCF
:10DD7000002008BDD883020802484FF48771FFF7DE
:10DD80002BBB00BFD8830208024840F20D11FFF7F9
:10DD900023BB00BFD883020802484FF48671FFF707
:10DDA0001BBB00BFD883020808B503484FF4857138
:10DDB000FFF712FB022008BDD883020839B9042AF4
:10DDC00005D146F26742934201D107F0D7BA7047B6
:10DDD00039B9042A05D146F26742934201D107F0CE
:10DDE000CDBA704739B9042A05D146F26742934249
:10DDF00001D107F0C3BA7047C36A70B504460D4637
:10DE00001BB90B484221FFF7E7FA15F0100F08D0B5
:10DE1000E168E36A204646F66352BDE8704007F0C9
:10DE2000B4BA20462946BDE8704007F024BB00BFC5
:10DE3000F283020811F0100F70B505460C4605D0AC
:10DE4000C16846F66F52002307F09FFA2846214624
:10DE5000BDE8704007F00FBB11F0010F70B504462C
:10DE60000D4615D0C06A012103685B6898470128F8
:10DE70000ED1E06A00210368DB689847204607F06E
:10DE80007DFA2046E16847F27052002307F07DFAE0
:10DE900015F0020F15D0E06A012103681B6898474E
:10DEA00001280ED1E06A002103689B68984720464C
:10DEB00007F064FA2046E16847F27052002307F049
:10DEC00064FA15F0100F0ED0E06A0368DB6998471A
:10DED000084B1B68984206D02046E16846F665422A
:10DEE000E36A07F052FA20462946BDE87040FFF782
:10DEF000A1BF00BF7089020811F0010F70B5044680
:10DF00000D460DD0C36A002B0ADD013BC36207F04A
:10DF100035FA2046E16846F67512002307F035FA17
:10DF200015F0020F0ED0E36A132B0BDC0133E36212
:10DF3000204607F023FA2046E16846F675120023D2
:10DF400007F023FA20462946BDE87040FFF772BF6C
:10DF500011F0010F70B504460D460DD0C36A012BB8
:10DF60000ADD013BC36207F009FA2046E16846F684
:10DF70007512002307F009FA15F0020F0ED0E36ABC
:10DF80001D2B0BDC0133E362204607F0F7F9204636
:10DF9000E16846F67512002307F0F7F92046294696
:10DFA000BDE87040FFF746BF11F0200F70B5054681
:10DFB0000C4606D0C06846F278520146002307F0AE
:10DFC000E4F928462146BDE8704007F054BA000045
:10DFD00011F0010F70B504460D4615D0006A0121FD
:10DFE00003685B68984701280ED1206A0021036806
:10DFF000DB689847204607F0C1F92046E16847F200
:10E000007052002307F0C1F915F0020F15D0206AF5
:10E01000012103681B68984701280ED1206A00215E
:10E0200003689B689847204607F0A8F92046E168F6
:10E0300047F27052002307F0A8F915F0100F0ED028
:10E04000206A0368DB699847084B1B68984206D032
:10E050002046E16846F66542236A07F096F92046B5
:10E060002946BDE87040FFF79FBF00BF70890208D6
:10E0700011F0010F70B504460D4615D0C06A01219C
:10E0800003685B68984701280ED1E06A00210368A5
:10E09000DB689847204607F071F92046E16846F6AC
:10E0A0007512002307F071F915F0020F15D0E06A20
:10E0B000012103681B68984701280ED1E06A0021FE
:10E0C00003689B689847204607F058F92046E168A6
:10E0D00046F67512002307F058F920462946BDE898
:10E0E000704007F0C8B90000C36A70B504460D4619
:10E0F0001BB91A482A21FFF76FF915F0100F08D045
:10E10000E168E36A204646F66352BDE8704007F0D6
:10E110003CB9E36A1A79043AD2B2012A17D815F049
:10E12000010F08D0DA6812F1FE0F04DB013ADA6061
:10E13000204607F023F915F0020F08D0E36ADA68E9
:10E14000FE2A04DC0132DA60204607F017F9204687
:10E150002946BDE8704007F08EB900BF1D84020853
:10E16000C36A70B504460D461BB91D482221FFF74E
:10E1700033F915F0100F08D0E168E36A204646F63F
:10E180006352BDE8704007F000B915F0010F0ED0E2
:10E19000E36A1A795AB1013A1A71204607F0EEF88B
:10E1A0002046E16846F67512E36A07F0EEF815F0CE
:10E1B000020F0FD0E36A1A790B2A0BD801321A71B9
:10E1C000204607F0DBF82046E16846F67512E36A60
:10E1D00007F0DBF820462946BDE8704007F04BB950
:10E1E0004B84020830B5028400250122456280F884
:10E1F0002820BDE8304007F085B800007FB5043323
:10E2000002AC05460E4693E8030084E80300BDF81F
:10E210000E30284604339BB2ADF80A300733ADF810
:10E220000E30044942F002022346009607F06AF8D5
:10E230007FBD00BF7A8402087FB5043302AC054677
:10E240000E4693E8030084E80300BDF80E3028462C
:10E2500002339BB2ADF80A300733ADF80E300449F3
:10E2600042F002022346009607F04CF87FBD00BF43
:10E270008684020830B5049D028401224562BDE80F
:10E28000304007F03FB82DE9FF410A9E0D460021BE
:10E290004162028480F8283004464FF0110830466D
:10E2A00008FB03F806F0E6FF5FFA88F802AF68B1F2
:10E2B000304606F0DFFF043003C887E80300BDF8EE
:10E2C0000E3002339BB2ADF80A3006E0331D93E8FE
:10E2D000030087E80300BDF80A3098442046294629
:10E2E000012202ABADF80E80009607F00BF8BDE8F6
:10E2F000FF81FFF7C8BF00002DE9F041DDF818806D
:10E30000044615461F460E4621B908484FF40371CE
:10E31000FFF762F8204629463A460223E662CDF826
:10E320001880BDE8F041FFF7AEBF00BFD8830208F8
:10E33000DBB2FFF7A8BFFFF7A6BF10B50A24C4627F
:10E34000BDE81040FFF79FBF10B50A24C462BDE8C6
:10E350001040FFF798BF000073B5044616460D46FF
:10E3600019B907480C21FFF737F8E562204600216C
:10E3700046F20C3202230096FFF785FF7CBD00BFFA
:10E380001D84020810B50524C462BDE81040FFF7E3
:10E390007ABF13B503469C685B682478088853F8F5
:10E3A0002430B1F9021000934FF6FF73002A14BF16
:10E3B0001A4600224FF61E03FEF7CDFF1CBD0000DB
:10E3C0002DE9F341274DB0F906402B68B0F9046000
:10E3D000B3F84420244B2146009330460023FEF737
:10E3E000BAFF2B68214F93F84230214657F823306B
:10E3F000801900934FF6FF720023FEF7ACFF2B68E5
:10E4000006F16408B3F85820194B214600934046A2
:10E410000023FEF7A0FF2B68214693F856304044B6
:10E4200057F823304FF6FF7200930023FEF793FF57
:10E43000104BC83600932146002330464BF29652CB
:10E44000FEF789FF2B68801993F890200A4B21462C
:10E4500053F822304FF6FF7200930023FEF77BFF44
:10E46000BDE8FC8150A70020E3A70208748A0208D7
:10E47000C9A8020892840208DC8A020813B5043095
:10E480000021FEF7B4FD2D4B402100930420002312
:10E4900048F21042FEF75FFF294B50210093294CB0
:10E4A0000023042048F21042FEF755FF60210023AC
:10E4B000082044F208220094FEF74DFF224B702101
:10E4C00000930420002348F21042FEF744FF1F4B44
:10E4D000802100930420002348F21042FEF73BFF06
:10E4E0001B4B902100930420002348F21042FEF7BA
:10E4F00032FFB0210023082044F208220094FEF7E6
:10E500002AFF144BC0210093042048F2104200233C
:10E51000FEF721FF104BD02100930420002348F286
:10E520001042FEF718FF0D4B04200093E02148F243
:10E5300010420023FEF70FFF1CBD00BF96840208A7
:10E54000A7840208B4840208DD840208F484020867
:10E550001085020821850208348502084C850208CE
:10E56000F7B50E88154B083E4FF6FF75002A08BF19
:10E570000025B6B20C460746B1F902102A460093B0
:10E5800030464FF61E03FEF766FD7B683618B6B2BE
:10E59000B4F90210009330462B464FF61E02FEF7E8
:10E5A000DAFE074B30180093B4F902102A464FF6F2
:10E5B0001E0380B2FEF74FFDFEBD00BF246E0608AD
:10E5C000966E060873B5044606F0C8FEA688144B7E
:10E5D000083E4FF6FF75002808BF0025B6B2B4F913
:10E5E000061000932A4630464FF61E03FEF733FD11
:10E5F000E3693618B6B2B4F90610009330462B46DC
:10E600004FF61E02FEF7A7FE064B30180093B4F932
:10E6100006102A464FF61E0380B2FEF71CFD7CBD95
:10E62000246E0608966E060808B583681A78436853
:10E6300053F8220016F0C2F8C3004FF6F87003EA50
:10E64000000008BD7FB5436804460D46164623B951
:10E6500012484FF42F71FEF7BFFE63681A68A36873
:10E6600092FBF3F20A2392FBF3F103FB1122002346
:10E67000ADF80C30303204AB03F8042D4FF6FF72C6
:10E680000093B5F90000B5F90210002E08BF002272
:10E690004FF61E03FEF780FE7FBD00BFD883020841
:10E6A00070B50E4615461C4606F0DDFD2A460146AD
:10E6B00023463046BDE8704006F067BE11F0130FE8
:10E6C00070B505460C4607D006F0CDFD0222014686
:10E6D0002346284606F059FE28462146BDE87040EC
:10E6E00006F0C9BE11F0010F2DE9F04104460D46B8
:10E6F00016D0006A012103685B68984780B1206AE0
:10E7000000210368DB689847204606F0ACFD06F060
:10E7100035FEE06847F27052C168002306F035FE0E
:10E7200015F0020F16D0206A012103681B68984774
:10E7300080B1206A002103689B689847204606F054
:10E7400092FD06F01BFEE06847F27052C16800239C
:10E7500006F01BFE15F00C0F0FD00C4E204629467C
:10E760003768FFF721FC3368BB420CD0204606F027
:10E770007AFDBDE8F04106F001BE20462946BDE81D
:10E78000F041FFF711BCBDE8F08100BF64A7002095
:10E7900010B50C4606F067FD036821465B68984794
:10E7A00010BD11F0130F10B50C4606D006F05BFD3E
:10E7B000036821465B68984710BDBDE8104006F02D
:10E7C0005ABE000011F0030F10B507D0FFF750FC40
:10E7D000044B1868BDE8104005F0A6BBBDE810402A
:10E7E000FFF746BC50A7002011F0030F10B507D06B
:10E7F000FFF73EFC044B1868BDE8104005F094BBE1
:10E80000BDE81040FFF734BC50A7002011F0030F03
:10E8100010B507D0FFF72CFC044B1868BDE810407A
:10E8200005F082BBBDE81040FFF722BC50A70020D6
:10E8300008B54368B3F9000006F0CAFB15F0BEFF47
:10E84000C3004FF6F87003EA000008BD4368F7B54F
:10E850004FF6FF7604460D46002A08BF00261BB976
:10E8600013489721FEF7B8FD6368B5F90070186882
:10E87000A368984202DBE36898420ADD0D4BB5F9C4
:10E8800002100093384632464FF61E03FEF763FD32
:10E890000CE000B2B5F9024006F09AFB2146009068
:10E8A000324638464FF61E03FEF776FDFEBD00BF2A
:10E8B00059850208748502082DE9F0471F4647F282
:10E8C00070539A4204460D4616463FD100F1380374
:10E8D00099423BD1436A93F80480A8F104095FFA96
:10E8E00089F9B9F1010F8CBF4FF000094FF0010910
:10E8F000B9F1000F06D0A8F10503D3F1000848EBE9
:10E90000030801E04FF0010804F1A00A504606F0A8
:10E910001EFE814506D04946504606F03EFD4FF0AA
:10E92000010901E04FF0000904F16C0A504606F0BD
:10E930000EFE804504D05046414606F02EFD02E012
:10E94000B9F1000F02D0204606F018FD20462946F6
:10E9500032463B46BDE8F047FFF7A2BEF7B5436835
:10E960000E881C88083E134BB6B20D462246B1F9FC
:10E970000210304600934FF61E03FEF76CFB36186C
:10E980002046B5F9027006F067FBB6B20090394632
:10E99000234630464FF61E02FEF7FEFC064B3018AB
:10E9A0000093B5F9021022464FF61E0380B2FEF71F
:10E9B00052FBFEBD246E0608966E060844F64441DE
:10E9C0008A4201D106F0EEBE44F645418A4202D1A8
:10E9D000012280F82020704744F644439A4201D136
:10E9E00006F0E0BE44F645439A4202D1642106F0A7
:10E9F000DFBD704711F0100F70B5044617D006F058
:10EA000034FC18B90A483D21FEF7E6FC204606F022
:10EA10002AFC0546204606F028FC0346DB69204612
:10EA2000294646F26452BDE8704006F0AEBC70BDA7
:10EA30007685020801804280704710B58380BDF85A
:10EA4000083001804280C38010BD00007FB5DE2306
:10EA500005460E461446009300211622D33B02A819
:10EA6000FFF7EBFF2846044944F0020202AB009690
:10EA700006F048FC7FBD00BF998502087FB51523CD
:10EA800005460E46144600930C21102202A84FF4AE
:10EA90009C73FFF7D2FF2846034944F0020202AB01
:10EAA000009606F02FFC7FBDAD8502087FB5F023F0
:10EAB00005460E461446009300211022A03302A8FA
:10EAC000FFF7BBFF2846044944F0020202AB009660
:10EAD00006F018FC7FBD00BFC08502087FB5F0239B
:10EAE00005460E461446009300211022A03302A8CA
:10EAF000FFF7A3FF2846044944F0020202AB009648
:10EB000006F000FC7FBD00BFCC8502087FB5F02376
:10EB100005460E461446009300211022A03302A899
:10EB2000FFF78BFF2846044944F0020202AB00962F
:10EB300006F0E8FB7FBD00BFDC85020870B5F0235E
:10EB400088B004460E461546009300211022A033DB
:10EB500006A8FFF772FF20461A4945F0200206ABCF
:10EB6000009606F0CFFBB4F90A204FF4967100929C
:10EB70004FF4A573103A04A8FFF75FFF04F14000BB
:10EB80001149012204AB009406F0BCFBB4F90A2041
:10EB90004FF4B47100924FF4C373103A02A8FFF718
:10EBA0004CFF04F120000949012202AB009406F059
:10EBB000A9FB00232366FEF7FDFD0138606608B05F
:10EBC00070BD00BFEC850208F9850208FE850208C9
:10EBD0007FB5F02305460E4614460093002110220F
:10EBE000A03302A8FFF729FF2846044944F0120287
:10EBF00002AB009606F086FB7FBD00BF03860208CD
:10EC00007FB5F02305460E461446009300211022DE
:10EC1000A03302A8FFF711FF28460349224602ABA2
:10EC2000009606F06FFB7FBD13860208B0F9042042
:10EC3000B0F90030D0184010704707B5B0F9003077
:10EC4000B0F90410B0F90620C918B0F90230491023
:10EC5000D218521001A8FFF7EDFE019B00209AB2D6
:10EC600062F30F001B0C63F31F400EBD10B5048848
:10EC7000091901804188521842808288D31A838002
:10EC8000C288029BD31AC38010BD10B50488611AD4
:10EC9000018041888A1A428082889B188380029A68
:10ECA000C388D318C38010BDB0F90420B0F9003078
:10ECB000D01A7047F0B587B004AC051D064695E83C
:10ECC000030084E80300012100220B462046009245
:10ECD000FFF7DBFF204648F21041FEF788F994E881
:10ECE0000300184B02AF1B6887E803002846B3F8FF
:10ECF0009240FFF7D9FFBDF80A3004FB00F2013360
:10ED0000ADF80A3004F59674BDF80E304443013B6B
:10ED1000ADF80E30B388384603EB223203EB2434CF
:10ED2000BDF81430ADF80C40ADF8082024B21AB28A
:10ED30009442C8BFADF80C300021FEF758F907B077
:10ED4000F0BD00BF50A7002073B5051D002104468B
:10ED50002846FEF74CF90F4B1B68B3F8A260B3F8D6
:10ED60009230F61A36B2002E12DB2846FFF79CFFCF
:10ED700086420DDAB4F90400074B04380093B4F965
:10ED80000610801946F20C324FF61E03FEF763F9A7
:10ED90007CBD00BF50A70020906D060830B5051D52
:10EDA00085B0044600212846FEF721F9384B802122
:10EDB00000930420002348F21042FEF7CCFA354BB2
:10EDC0008021009356230193A020563B4BF296528C
:10EDD000FEF7E3FA304B902100930420002348F221
:10EDE0001042FEF7B8FA2D4B90210093A02000238B
:10EDF0004BF29652FEF7AFFA294BA0210093042064
:10EE0000002348F21042FEF7A6FA264BA0200093FA
:10EE1000014600234BF29652FEF79DFA224BB02199
:10EE200000930420002348F21042FEF794FA1F4B8F
:10EE3000B0210093A0204BF296520023FEF78BFAEC
:10EE40001B4BC02100930420002348F21042FEF720
:10EE500082FA184BC02100930423019301330293DB
:10EE6000033B03934BF29652023BA020FEF795FA28
:10EE70002846FFF719FFB4F90610A0F5807000EBE3
:10EE8000D0704010183105B0BDE83040FEF710BE1C
:10EE90001D8602082F8602083B8602084586020866
:10EEA0004D860208578602086486020874860208A6
:10EEB000898602089B860208F7B5061D00210546D3
:10EEC0003046FEF794F8514B802148F210420093EF
:10EED00004200023FEF73FFAFEF7D6FD8021002331
:10EEE00000904BF29652A020FEF735FA484B902145
:10EEF00048F21042009304200023FEF72CFAFEF79C
:10EF0000C7FD9021002300904BF29652A020FEF7FF
:10EF100022FA404BA02148F2104200930420002323
:10EF2000FEF719FAFEF7B8FD0090A0200023014675
:10EF30004BF29652FEF70FFA374BB02148F21042CF
:10EF4000009304200023FEF706FAFEF799FDB02196
:10EF500000234BF296520090A020FEF7FCF9FEF73A
:10EF6000A1FD2E4B0446009304200023C02148F24B
:10EF70001042FEF7F0F92A4B2A4F9C4204D02A4B4C
:10EF80009C4203D064B114E0284B00E0284B00936E
:10EF9000A020C0214BF296520023FEF7DCF911E0CD
:10EFA000244BA0200093C0214BF296522346FEF73B
:10EFB000D2F9A020C0214BF2965200230097019471
:10EFC000FEF7EBF91C4BD021009348F210420023CE
:10EFD0000420FEF7C0F9FEF763FDD02101904BF24B
:10EFE00096520023A0200097FEF7D7F93046FFF78E
:10EFF0005BFEB5F90610A0F5807000EBD0704010F4
:10F00000183103B0BDE8F040FEF752BDA8860208F3
:10F01000BA860208CA860208D8860208E58602086F
:10F02000766761000987020827930402F5860208C3
:10F03000F9860208018702080E870208B0F9062047
:10F04000B0F90230D01A70470388CB180380838848
:10F05000C91843888180D3184380C388D218C280DE
:10F0600070470023038043808380C3807047B0F9DA
:10F070000420B0F900309A42D4BF0020012070472C
:10F080002DE9F04F00F126068BB004463046FFF71D
:10F09000EEFF0546002847D108AF04F1040898E8C0
:10F0A000030087E8030001210A460B463846009119
:10F0B000FFF7EBFD38464BF29651FDF7DBFE294694
:10F0C0004046FDF794FF48F21042ADF81650ADF8F7
:10F0D0001850ADF81A50ADF81C50ADF81420193581
:10F0E000B4F90400B4F90A3005AA281800920522E0
:10F0F0000192043B421CB4F906101935FDF7E6FEF7
:10F10000FA2DEDD1E13DB4F9061005AB6918009375
:10F1100005230193B4F904004B1CB4F908201935F8
:10F12000FDF7D4FEC82DEED1236A002B00F0A78096
:10F13000251D2846FFF7B8FD80462846FFF77EFFCD
:10F14000B4F90AA0323803902046AAF1190A06F051
:10F1500005F960B1216BA38C01FB08F198FBF3F278
:10F1600002EBD27291FBF3F303EB620301E06FF069
:10F17000130330460293FFF77AFF18B9E084A4F82E
:10F180002A802BE0B4F90420B4F9263000259A42F5
:10F19000A8BF1346E384B4F90820B4F92A3001214A
:10F1A0009A42B8BF134663852A460B4630460095FF
:10F1B000FFF75CFD30462946FDF719FF0121304677
:10F1C0002A460B460095FFF760FDB4F90410B4F928
:10F1D0000620304649425242FFF736FF4FF0000901
:10F1E000E58CCB4644E0A28C236A6A4392FBF8F29A
:10F1F00033F81270B7F5805F03D322485D21FEF724
:10F20000EBF8039AB4F92630574344BF07F57E67FD
:10F210001F373F13B4F90420BFB29D4208BFBB465D
:10F22000AA184FF6FF730093501EC7EB0A03CBEBEF
:10F230000A01FEF739F9029B9D4208BFB946033324
:10F240009D4212D1B4F904000F4B626B0638AAF14B
:10F25000040100934019C9EB0101082A14BF1622CA
:10F260001F224FF61E03FDF7F6FE0135ADB2BB4679
:10F27000B4F92A309D42B6DB3046FFF7F2FE0BB000
:10F28000BDE8F08F1D870208BE77060813B5044657
:10F29000B4F90220B0F90000B4F90630009111462B
:10F2A00000F10C02FDF796FFB4F90000B4F902106A
:10F2B000B4F90420B4F9063008304BF296540094A7
:10F2C000FDF7A6FD1CBD37B50446B4F90250B0F9F0
:10F2D0000000B4F90420B4F9063002380091294640
:10F2E000FDF778FFB4F90000B4F90210B4F9042076
:10F2F000B4F9063006304FF6FF740131013A013B94
:10F300000094FDF767FF3EBD07B50346B0F9000066
:10F310000022B3F90210B3F90630009200F108029E
:10F32000FDF776FD0EBD37B50446B0F90000B4F91F
:10F330000210B4F90630002500F108020095FDF72F
:10F3400067FDB4F90420B4F90210B4F90630101FB7
:10F350000095FDF75DFD3EBD436A37B504460BB130
:10F360001B880384204605F0F9FF231D18B11846B9
:10F37000FFF7D9FF02E01846FFF7C6FFA388204633
:10F380000433A38005F0EAFF0546218C201D5DB102
:10F39000FFF799FFE369B3B1B4F90400B4F90610BB
:10F3A00000930C3000220AE0FFF770FFE36953B1CD
:10F3B000B4F90400B4F9061000930C302A464FF655
:10F3C0001E03FDF7C8FFA388043BA3803EBD0000D9
:10F3D000C36A2DE9F0431F795B79A7F10102574217
:10F3E00047EB020748F21048002F18BF4FF0000803
:10F3F000012B87B0044608D002D3022B0FD109E0BD
:10F400003A4B1B68B3F8443008E0384B1B68B3F83C
:10F41000583003E0354B1B68B3F8B63103862046FD
:10F42000FFF79AFFE36AB4F904909A79304BB4F984
:10F43000065053F8223009F10E0600933046294653
:10F4400042464FF61E03FDF786FF002F4BD0E36ABE
:10F45000284A99799F6852F8214038460021103592
:10F4600014F066FE68B1244B3046009342462946AC
:10F470004FF61E03FDF7EFFD07F100428619174610
:10F4800001E009F11406384614F0C8F802460B46AC
:10F4900002A81A49FDF77EFC05E006AA02EB090363
:10F4A000002203F8112C02AF384615F087F9814687
:10F4B000204615F083F948440728EED830462946FF
:10F4C00042464FF61E030097FDF766FF5CB12378B6
:10F4D0004BB104363018294644F208224FF61E0379
:10F4E0000094FDF738FF07B0BDE8F08350A7002077
:10F4F000188C0208488C02086877060849870208B9
:10F50000F0B5C669002585B00446C561FFF724FF44
:10F51000E661231D02AE93E803002A4686E8030055
:10F520002B46304610210095FFF7A0FBE3692A46E1
:10F53000BDF90A100093BDF908004FF61E03FDF750
:10F540000AFFBDF80A3020461033ADF80A3005F046
:10F5500005FF0246002837D0BDF808701E4B083F53
:10F56000BFB2BDF90A102A46009338B24FF61E0307
:10F57000ADF80870FDF76FFD3818ADF80800E06AC7
:10F5800003685B699847BDF90A100746BDF9080092
:10F5900001F10E033A180095FDF73AFCE06A314696
:10F5A000036801221B699847BDF80830BDF90A10AD
:10F5B000FF180A4B38B200932A464FF61E03ADF8E7
:10F5C0000870FDF748FD04E0E06A314603681B69F6
:10F5D000984705B0F0BD00BF246E0608966E060879
:10F5E000F0B5044685B0FFF7B7FEB4F90450B4F99E
:10F5F0000670E369103500932846394600224FF61D
:10F600001E03FDF7A8FE204607F1100605F0A6FE32
:10F6100000282ED0234B31460022009328464FF677
:10F620001E03FDF718FD4519E06A1E3703685B6984
:10F63000984732464319294602A80097FFF7FDF97B
:10F64000002102A8FDF7D3FCE76A20463B681D694C
:10F6500005F084FE02A902463846A847124BBDF9C0
:10F660000C000093314600224FF61E03FDF7F3FC19
:10F6700015E0E06A1E3703685B699847294643191D
:10F68000324602A80097FFF7D8F9E66A20463368A9
:10F690001D6905F063FE02A902463046A84705B081
:10F6A000F0BD00BF246E0608966E0608FFF754BE34
:10F6B00013B50446FFF750FE084BB4F9040000935D
:10F6C000E36AB4F9061003EB830301931C30103195
:10F6D00000224FF61E03FDF760FE1CBDD19F0208FD
:10F6E00013B50446FFF738FE084BB4F90400009345
:10F6F000E36AB4F9061003EB830301931C30103165
:10F7000000224FF61E03FDF748FE1CBDD19F0208E4
:10F7100073B50546FFF720FEEB6AB5F90440B5F96D
:10F7200006601B690E340022009331464FF61E031B
:10F730002046FDF710FEEB6A31461A79114B00198D
:10F7400053F82230002200934FF61E03FDF703FE0C
:10F75000EB6A06F110011A79052A01D10A4A06E07E
:10F76000042A03D0094A00929B6802E0084A0092EA
:10F77000DB680193204600224FF61E03FDF70DFEC5
:10F780007CBD00BFB88C02084D870208D19F0208DB
:10F7900054870208C36AF7B51D79044648F210433E
:10F7A000002D0CBF1D460025FFF7D6FDB4F90470EF
:10F7B000B4F906600C4B0E37009331462A463846A2
:10F7C0004FF61E03FDF7C7FDE36A38461A79074B6B
:10F7D00006F1100153F822302A4600934FF61E031B
:10F7E000FDF7B9FDFEBD00BF58870208848C0208F2
:10F7F0007FB50646FFF7B0FD0E4BF06A009314F09C
:10F80000A5FA0D4914F0AAFB0C4914F0EBF913F01A
:10F8100005FFB6F90450B6F906401C351034CDE9A1
:10F8200002010022284621464FF61E03FDF7B5FDD2
:10F830007FBD00BF62870208000020410AD7233C39
:10F8400073B5B0F90420B0F906300E46B0F90210D5
:10F8500004464FF4E045101F043104320433009590
:10F86000FDF7B8FCB4F90630B4F90000B4F904208F
:10F87000191F0430043204330095FDF7ABFCB4F9D2
:10F880000000B4F90210B4F9063000F10C02009641
:10F89000FDF7A0FCB4F90000B4F90420B4F902109B
:10F8A000B4F906304BF296550830043A0095FDF74E
:10F8B000AFFAB4F90420B4F90210B4F90630A2F199
:10F8C00008000095FDF786FC7CBD73B5B0F90420F7
:10F8D000B0F906300E46B0F9021004464FF4E04588
:10F8E000101F0431043204330095FDF773FCB4F9A2
:10F8F0000630B4F90000B4F90420191F04300432B2
:10F9000004330095FDF766FCB4F90000B4F9021069
:10F91000B4F90420B4F906300096FDF75BFC7CBD19
:10F9200030B5024685B00D460068516802AB02242E
:10F9300003C302A80021FDF789FC2246234602A842
:10F9400021460094FFF792F902A82946FDF77EFCB4
:10F9500002A821460E2223460094FFF787F902A849
:10F960004BF29651FDF772FC05B030BD73B50446FD
:10F97000051D218C2846FFF7D3FF2846FFF756F9CF
:10F98000E5690646284614F019FFB4F90610C0B21E
:10F990008000301A023100224FF61E030095FDF759
:10F9A000DAFC7CBDF0B589B0031D054604AC93E8D4
:10F9B000030084E803001846298CFFF7B1FF2046B6
:10F9C000FFF734F9EE690746304614F0F7FEBDF94B
:10F9D0001210C0B2800002310022381A4FF61E0306
:10F9E0000096FDF7B8FC122104230A460093204636
:10F9F0000B46FFF73BF9686A14F0E0FE0746204625
:10FA0000FFF71BF9ADF80800C0F30F40ADF80A008E
:10FA1000029E20460796FFF710F9ADF80800C0F3E4
:10FA20000F40ADF80A0002996B6AFF0036B2A6EBF0
:10FA300067060691091400933046073900224FF6F5
:10FA40001E03FDF788FC09B0F0BDF0B585B0031DBD
:10FA5000044602AD93E8030085E803001846218CB4
:10FA6000FFF75EFF2846FFF7E1F8E66907463046F4
:10FA700014F0A4FEBDF90A10C0B2800002310022C9
:10FA8000381A4FF61E030096FDF765FC1221042379
:10FA9000009328460A460B46FFF7E8F8636ABDF96B
:10FAA0000800BDF90A1000930430043100224FF61B
:10FAB0001E03FDF750FC05B0F0BD4BF29651FDF76B
:10FAC00096BA2DE9F041012104460026FDF79EFA81
:10FAD000D02514E0EB10DA024FEAA50842EA4818F4
:10FAE000204648EA0308FFF7DFF8074602E04046F1
:10FAF000FDF796FA013FFAD20D3DEDB201362046F0
:10FB0000FFF79CFA8642E5DBBDE8F041FDF7A2BABB
:10FB100010B5044605F022FC231D20B91846BDE8A7
:10FB20001040FFF7CABF1846BDE81040FFF7C9BF35
:10FB30002DE9FF47044605F011FC4FF6FF7500283C
:10FB400008BF00252046FFF7E3FFE369B4F904008E
:10FB50002A46B4F90610009304304FF61E03FDF751
:10FB6000FAFB206A01210368B4F904805B689847B6
:10FB70008146206A0121036808F178071B689847CD
:10FB8000B9F1010F064607D1244BB4F906100093D2
:10FB900008F170002A460AE0B9F1000F0BD11F4BA3
:10FBA000B4F90610009308F1700048F210424FF6C5
:10FBB0001E03FDF750FAD4F820A0231D93E803009C
:10FBC0000DF10809DAF8003089E803002046D3F87F
:10FBD0001080ADF80870ADF80C7005F0BFFB494619
:10FBE00002465046C047206A03685B699847012E69
:10FBF000384405D10A4BB4F9061000932A4606E0B2
:10FC00004EB9074BB4F90610009348F210424FF674
:10FC10001E03FDF720FABDE8FF8700BF1A6B060838
:10FC20008C6B060837B5054605F098FB4FF6FF7458
:10FC3000002808BF00242846FFF76AFFEB69B5F9E2
:10FC400004000093B5F90610043022464FF61E0357
:10FC5000FDF781FB3EBD13B50446FFF759FFE3698D
:10FC6000B4F904000093B4F90610043000224FF6F2
:10FC70001E03FDF770FB1CBDF0B585B0044605F012
:10FC80006DFB4FF6FF75002808BF0025204605F0E4
:10FC900065FB90B102AB221D92E8030083E80300EC
:10FCA000BDF808201846083AADF80820BDF80C2029
:10FCB0000832ADF80C20FFF704FF204605F04EFB9C
:10FCC00058B1174BB4F904000093B4F90610073883
:10FCD0002A464FF61E03FDF7BEF9276A20463B6809
:10FCE0001E6905F03BFB211D02463846B047206ADD
:10FCF000A78803685B6998470646204605F02EFBF7
:10FD000058B1084B3FB2781C0093B4F90610801923
:10FD10002A464FF61E03FDF79EF905B0F0BD00BF61
:10FD20001A6B06088C6B060838B54FF61F0399420C
:10FD300004460A4607D0056961698068E3682818A7
:10FD4000C918FDF74DF86269236912F0010F07D059
:10FD5000591E002921610BDA01322361626138BD2D
:10FD6000A069591C8142216102DB01322361626179
:10FD700038BD10B500231A46416811F8014B4160A7
:10FD800004F07F019140073214F0800F43EA010331
:10FD9000F2D1184610BD38B54FF0FF3303600B7831
:10FDA0000446472B0D461CD18B1C4360FFF7E1FF37
:10FDB000A0612046FFF7DDFFE0616B78422B10D198
:10FDC000234604F1200061680A4612F8015B626074
:10FDD00049780132626041EA05221A840233834283
:10FDE000F1D138BD03460068B0F1FF3F06D15A6833
:10FDF00012F8010B18605A60001170474FF0FF3283
:10FE000000F00F001A60704770B5002406462546C2
:10FE10003046FFF7E7FFC0B200F00703AB40033501
:10FE200010F0080F44EA0304F2D1204670BD000030
:10FE30002DE9F8434FF0FF33036001330361436161
:10FE40008769C36904468160C260D0F804805F435B
:10FE500001262FE0AEB12046FFF7D6FF451C204615
:10FE6000FFF7C0FF0026814607E009F11003204696
:10FE700034F81310FFF758FF0136AE42F5DB0026C9
:10FE800012E02046FFF7AEFF451C0AE02046FFF7D0
:10FE9000A9FF00F1100334F813102046FFF744FFC8
:10FEA0000136AE42F2DB01267F1B03D50448482110
:10FEB000FDF792FA002FCDDCC4F80480BDE8F8838A
:10FEC00068870208074A08481168084B30B504687B
:10FED000074DCB1805FB0433013103605804116052
:10FEE000400C30BDA0A6002018300020F390240064
:10FEF00021F17D0030B5264B89B0044605AD93E86D
:10FF000007000C3385E8070093E8070094F82030D9
:10FF100002AD85E80700C3B1201D4FF6FF71FDF764
:10FF200066F8B4F90400B4F90A101A4B08300093CB
:10FF300014394FF61E030022FDF70DFA002384F852
:10FF40002030059B6362029BA362FFF7BBFF032285
:10FF500090FBF2F202EB420208A9821A01EB820244
:10FF60000346616A52F80C0C9B0040184010606216
:10FF700052F8181CA26A89184FF6FC72491003EA5D
:10FF80000202A16209B0BDE83040FCF729BF00BF02
:10FF9000407F0208808702084162704773B50446BB
:10FFA00016460D4619B90C480D21FDF715FA0B4BF5
:10FFB00000211B682046B3F844300A462386E562D8
:10FFC00002230096FEF75FF9204604F1300102B0EB
:10FFD000BDE87040FFF7E0BFF283020850A70020A1
:10FFE00073B5054616460C4619B90A480C21FDF7AB
:10FFF000F3F9EC62284634F8062F0021022300961C
:020000040801F1
:10000000FEF741F92846214602B0BDE87040FFF7EF
:10001000C3BF00BF4B8402082DE9F0410C461546D2
:1000200098460026A75B1FB94FF61F03A3530DE0A8
:10003000FA08294602F0FC02404605F0D1F8FA0A17
:10004000A0530021D20005F0CBF8A0530236202E99
:10005000E8D1BDE8F08110B592B0044605F07EF914
:10006000231D218C70B11846FFF72FFC616A21B364
:1000700002A8FFF790FE20460AA94EF210424FF662
:10008000FF730DE01846FFF7DBFB616AA9B102A818
:10009000FFF781FE20460AA94EF21C724BF29653DE
:1000A000FFF7BAFF089BB4F90810B4F90A20C91A7F
:1000B000099B02A8D21AFFF7BBFEE369B4F904005A
:1000C0000093B4F906100C3000224FF61E03FDF722
:1000D00042F912B010BD41608260037370470000A6
:1000E00008B50379012B09D002D3022B0FD10AE006
:1000F0008368188800F01F00400808BD83681888CE
:10010000C0F3C31008BD83681888000B08BD0348FE
:100110004FF48271FDF760F9002008BD598502088F
:1001200030B54FF6FF7585B00C46002A08BF002594
:10013000FFF7D6FF04F080FF00238DF80D3003ABEE
:100140008DF80C000093B4F90000B4F902102A46AF
:100150004FF61E03FDF720F905B030BD002908B5A4
:100160000CDDFFF7BDFF0E288CBF0020012008BD6D
:10017000FFF7B6FF003818BF012008BDF8DB0020EC
:1001800008BD00000379012B12D002D3022B2CD121
:100190001DE08268138823F01F031B041B0C0F292A
:1001A00002D04900C9B200E01F2141EA03031AE06E
:1001B0008268138823F4FC631B041B0C0F2902D0F4
:1001C0008900C9B200E03F2143EA41130BE0826895
:1001D00013885B055B0D0F2902D04900C9B200E00E
:1001E0001F2143EAC1231380704702484FF48E71E8
:1001F000FDF7F2B85985020810B50446FFF770FF05
:1002000030B1411EC9B22046BDE81040FFF7BABF69
:1002100010BD10B50446FFF763FF0E2806D8411C39
:10022000C9B22046BDE81040FFF7ACBF10BDC8689A
:100230004042704710B5044605F096F9014B204640
:10024000236010BDF0770208014B0360704700BFC8
:100250003878020810B50446FFF7F6FF014B204638
:10026000236010BD1078020810B50446FFF7ECFFBC
:10027000014B2046236010BDD87B020810B5044610
:1002800005F072F9014B2046236010BD807802080A
:1002900010B50446FFF7F2FF014B2046236010BD66
:1002A0006078020810B50446FFF7E8FF014B2046CE
:1002B000236010BD987D020810B5044605F072FA5F
:1002C0002046BDE8104005F037BAFFF7F5BFFFF74D
:1002D000F3BF000038B50D4B1B68D3F8C040002CAD
:1002E00011DDD3F8B400013013F030FD01460848A9
:1002F00013F034FE0546204613F028FD014628463B
:1003000013F02CFE38BD002038BD00BF50A70020E0
:1003100000BA5B4A37B50446FFF71EF82046FFF7E0
:10032000D9FF13F02DFF13F011FD0821B4F904508B
:10033000B4F9064004F0D6FE1C3510340090214676
:10034000284600224FF61E03FDF726F83EBD0000AA
:1003500038B5104B084610491C6813F04BFD054694
:10036000D4F8C00013F0F2FC0146284613F042FD19
:1003700001460A4813F0F2FD13F002FFD4F8B4303E
:1003800001380128B8BF0120C4F8B400C01A18BF52
:10039000012038BD50A700200000A0414054894CE6
:1003A0002DE9F04711F0010904460D4603D111F083
:1003B000020F00F0CE802046FFF78CFF002106469A
:1003C000012713F0C9FE00B9002717F0FF0F03D172
:1003D00062482321FDF700F83046614913F0B2FE70
:1003E000E8B930465F4913F0ADFED8B930465E49F2
:1003F00013F0A8FEC0B930465C4913F0A3FEA8B9BB
:1004000030465B4913F09EFE90B93046594913F0CF
:1004100099FE78B93046584913F094FE60B94FF010
:100420007E570AE0554F08E04D4F06E04D4F04E07F
:100430004D4F02E04D4F00E04D4FB9F1000F11D08C
:100440003046394613F092FE28B13046394613F053
:10045000C7FB804600E0B0464046002113F072FE24
:1004600010B903E0B04601E04FF07E5815F0020FDE
:1004700010D04046424913F05BFE20B14046394659
:1004800013F0B0FB80464046002113F05BFE08B13C
:100490004FF07E583946404613F060FD13F070FE71
:1004A00013F054FC394613F0A5FC4FF07E5107467B
:1004B00013F03EFE08B14FF07E573846314613F038
:1004C0002DFE002843D139462046FFF741FF8046E4
:1004D0002046FFF7FFFE31468246384613F046FEBF
:1004E00038B15046314613F02DFE002818BF4FF0AA
:1004F00000083846314613F01BFE20B15046314605
:1005000013F02AFE10B9B8F1000F16D11D4BB9F146
:10051000000F07D01B68D3F8B400B0F5803F0CDAA9
:10052000013005E01B68D3F8B400012805DD01386F
:10053000C3F8B40080B2FDF7C1F9204604F01EFFF5
:100540002046E16846F67512002304F01EFF20469F
:100550002946BDE8F047FDF76DBC00BF8D87020856
:100560000000C84200007A4400401C460050C347C7
:10057000002474498096184B20BCBE4C00002041DA
:100580008096984B50A7002000230360436083604F
:10059000704710B50446FFF7F7FF204610BD83688B
:1005A00030B5456803B985608368DC225343B83AA7
:1005B00002FB0533002BB8BFFF331A1282600468B8
:1005C00005B944604368DC256B43B83D05FB043343
:1005D000002BB8BFFF331B1243600CB90B02036042
:1005E0000368DC2463434FF4105404FB01310029F9
:1005F000B8BFFF3109120160101EB8BFFF300012F2
:1006000030BD0000F0B585B0FCF77EF90746FCF779
:1006100097F9644C0646236813F0010F04D1624831
:10062000FFF7B7FF0123236039465F48FFF7B7FFA5
:100630005E4D04467021F0204BF296520023009547
:100640000197FCF7AAFE002C40D04BF296520023F3
:100650008021F02001940095FCF79FFEA4F5066030
:10066000193813F073FB524913F0C4FB514913F0CE
:1006700075FC0146504813F0B3FA504B50490093B3
:10068000044613F0AFFA12F0C9FF4BF29652CDE9CF
:10069000020100239021F020FCF77FFE494920460B
:1006A00013F0A8FB484B4FF08441009313F09AFAE3
:1006B000434913F097FA12F0B1FF4BF29652CDE98D
:1006C00002010023F020A021FCF767FE3F4C2368C5
:1006D00013F0010F04D13E48FFF75BFF01232360B5
:1006E00031463B48FFF75BFF3A4D0446C021F020FE
:1006F0004BF29652002300950196FCF74EFE0CB388
:100700004BF29652D0210023F02000950194FCF783
:1007100044FE314B2046009313F018FB2F4913F091
:1007200069FB2F4913F01AFC254913F05BFA12F00C
:1007300075FF4BF29652CDE902010023F020E02133
:10074000FCF72BFE00210620FBF701FF00210546E8
:100750000520FBF7FCFE234B04462846009313F0CC
:10076000F5FA214913F046FB12F058FF0023CDE9BA
:1007700002014BF296524021F020FCF70EFE1B4B7B
:100780001B4AF020002C0CBF14461C46194B50216C
:1007900000934BF2965200230194FCF7FEFD05B046
:1007A000F0BD00BF7CA6002090A600206CB302081C
:1007B000CCCC90410000CA42CDCC4C40C48702084A
:1007C0000AD7A33B6666E63FCD87020880A60020D5
:1007D00084A6002092940208D6870208333333405F
:1007E0000080DB44DE8702086F12833ABD8702086F
:1007F000C1870208E587020810B5054C2368586ACE
:10080000FBF784FE2368986ABDE81040FBF785BEBD
:1008100050A7002010B5054C890023685962FFF7E6
:10082000EBFF2068BDE8104003F07EBB50A700201E
:1008300010B5074C890023689962FFF7DDFF64203B
:10084000FBF720FE2068BDE8104003F06DBB00BF41
:1008500050A700202DE9FF41044604F07FFD4BF234
:100860009655B4F90A204FF6FF73002818BF1D46AD
:10087000B4F90410B4F90830101F083B0C3A00908A
:10088000123102A8FEF7D9F802A844F20821FCF7B9
:10089000AEFB02210A460B4602A80091FEF7E6F9DC
:1008A00002A8FEF701FA23688046DB6920469847D4
:1008B000236807469B6A20469847236806465B6A7A
:1008C00020469847A8F1100807FB08F7361ABDF82C
:1008D000083097FBF6F7FF18BFB2ADF8087002A812
:1008E00010372946ADF80C70FCF781FBBDE8FF819D
:1008F000036870B5DB690E460446984716F0010F91
:1009000005460DD0236820465B6A9847854207DD7F
:10091000236820461B6A691E98472046FFF79AFF06
:1009200016F0020F0DD0236820469B6A9847854237
:1009300007DA236820461B6A691C98472046FFF7A0
:1009400089FF20463146BDE87040FDF773BA10B507
:100950000446FEF701FD2046BDE81040FFF77ABFD0
:10096000014B18682C30704750A7002008B5FFF7DE
:10097000F7FF0368013B036008BD08B5FFF7F0FF10
:1009800003680133036008BD38B504460D46FFF720
:10099000E7FF006863682D189D4205DBA06885426B
:1009A000CCBF0020012038BD002038BD41608260EE
:1009B0007047000010B5FFF7D3FF006838B100B2F0
:1009C00004F006FB0349044613F002FD00E0024C6C
:1009D000204610BDF0870208EA87020808B5FFF735
:1009E000E9FF13F0EBFEC3004FF6F87003EA0000D6
:1009F00008BD73B54FF6FF740E88002A08BF0024A7
:100A0000B1F90250FFF7D6FF294600902246304642
:100A10004FF61E03FCF79FFC7CBD2DE9F04100F171
:100A2000300405460F461646204600210F22DDF809
:100A30001880FFF7BBFF284621463A463346CDF8DB
:100A40001880BDE8F041FDF757BC00007FB50E46A9
:100A5000F0233C210446154600930A46283302A899
:100A6000FDF7EBFF20462A4602AB1049009604F042
:100A700049FC04F1200002230D4948F21042009481
:100A8000FDF737FC04F14C0002230A4948F21042FA
:100A90000094FDF72EFC04F17800074948F210425B
:100AA00002230094FFF7B9FF7FBD00BFF68702085D
:100AB0000788020811880208188802080A4B73B5D3
:100AC0001A6800F1300405460E462046083201231C
:100AD0000649FFF700FB28462146054A48F2104325
:100AE0000096FDF709FC7CBD50A70020448D02084C
:100AF0002B8802084160704710B5044608F0FCFAE4
:100B000063681B68002B04DA094ADB4352F82300B0
:100B100010BD0C2202FB030002780AB9406810BD28
:100B2000013B0C38B3F1FF3FF6D1002010BD00BFF0
:100B30004C8D0208436810B51C68002C06DB08F0D9
:100B4000DBFA0C2303FB0404606810BD002010BD19
:100B500038B50446FFF7D0FF05462046FFF7EAFF09
:100B600004461DB1284613F029FE05461CB1204657
:100B700013F024FE00E02046451904B10235ED00D3
:100B80004FF6F87005EA000038BD00002DE9F3418A
:100B90004FF6FF7607460C46002A08BF00260D8850
:100BA000FFF7AAFF80463846FFF7C4FF0746B8F1B3
:100BB000000F0BD02846B4F9021032464FF61E0340
:100BC000CDF80080FCF7C7FB2D18ADB2B7B10C4BC8
:100BD0000435ADB2B4F902100093284632464FF600
:100BE0001E03FCF7B8FB04352818B4F9021080B2D4
:100BF00032464FF61E030097FCF7ADFBBDE8FC81C3
:100C00003888020838B50C46154608F075FA2B19D5
:100C100005D5124A13F1050FB8BF13461BE0002D8E
:100C20004FF00C020BDD631C02FB040402E00C34E9
:100C30008AB90133227B022AF9D1084B0BE0631EEB
:100C400002FB040403E014F80C2D22B9013B002B35
:100C5000F9DA4FF0FF33184638BD00BF19FCFFFF2B
:100C600010B544684FF0FF322168FFF7CBFF2060DA
:100C700010BD10B5446801222168FFF7C3FF206052
:100C800010BD000008B543680A461968FFF7BAFFAF
:100C9000024BC01A18BF012008BD00BF19FCFFFF9E
:100CA00007B5009111461A4648F21043FDF724FBA0
:100CB0000EBD00007FB51546F023282204460E46DF
:100CC00000933C219B1802A8FDF7B7FE2A4602AB11
:100CD000214D20462149009604F014FB04F1200028
:100CE0002146FFF7EBFE296804F1600630460C311F
:100CF000FFF700FF324604F168002146184BFFF76A
:100D0000CFFF296804F1980630461031FFF7F2FE54
:100D1000324604F1A0002146124BFFF7C1FF2968BB
:100D200004F1D00630461431FFF7E4FE324604F1F8
:100D3000D80021460C4BFFF7B3FF296804F58476F1
:100D400030461831FFF7D6FE04F58870214632464A
:100D5000064BFFF7A5FF7FBD50A700203A88020889
:100D60004E8802085C8802086C88020876880208AF
:100D700010B5044604F0F8FB014B2046236010BD7B
:100D8000A877020810B50446FFF7F2FF014B204692
:100D9000236010BD707D020810B50446FFF754FAB9
:100DA000014B2046236010BDB87D020810B50446F3
:100DB000FFF764FA014B2046236010BD007E020855
:100DC00070B50546FFF75AFA064B2C4644F8203B0F
:100DD00005F1B00620462434FFF7E8FFB442F9D10C
:100DE000284670BDE07D020810B50446FFF72CFAD6
:100DF000014B2046236010BD207E020810B504463A
:100E0000FFF718FA214B204640F8243BFFF74AFA37
:100E100004F14400FFF746FA04F16400FFF742FAD8
:100E200004F18400FFF73EFA04F1A400FFF7B4FFD9
:100E300004F1B000FFF7B0FF04F1BC00FFF7ACFF16
:100E400004F1C800FFF7A8FF04F1D400FFF7B8FFD2
:100E500004F5C270FFF7A0FF04F5C870FFF79CFF10
:100E600004F5CE70FFF798FF04F5D470FFF794FFF8
:100E700004F5DA70FFF7A4FF04F51970FFF7B4FF6B
:100E800004F51B70FFF704FA204610BD609B0208B2
:100E900010B50446FFF7F2F9014B2046236010BD60
:100EA000487E020810B50446FFF7C4F92D4B2046D2
:100EB00040F8643BFFF7ECFF04F18400FFF7E8FF24
:100EC00004F1A400FFF7E4FF04F1C400FFF7EAF91E
:100ED00004F1E400FFF7E6F904F58270FFF7E2F9A8
:100EE00004F59270FFF7DEF904F5A270FFF7DAF966
:100EF00004F5B270FFF7D6F904F5C270FFF7AAF94E
:100F000004F5CA70FFF7C4F904F5DC70FFF7A2F925
:100F100004F5E470FFF7BCF904F5F670FFF764FF21
:100F200004F5FA70FFF7B4F904F50670FFF75CFFFB
:100F300004F50870FFF7ACF904F51170FFF72CFF0A
:100F400004F51470FFF728FF04F51770FFF724FF6E
:100F500004F51A70FFF720FF04F51D70FFF730FF4E
:100F6000204610BD809A020810B5044604F0FCFA31
:100F7000114B204640F8203BFFF704FF04F15000DE
:100F8000FFF7F6FE04F17C00FFF7F2FE04F1A80083
:100F9000FFF7EEFE04F1D400FFF7EAFE04F58070DF
:100FA000FFF7E6FE04F59670FFF728FF04F5717071
:100FB000FFF778FF204610BDB89B020870B50446C5
:100FC0000D46164604F0D0FA024B25622360666295
:100FD000204670BD88A3020870B504460D4616462B
:100FE00004F0C2FA024B256223606662204670BD9F
:100FF00068A3020870B504460D46164604F0B4FA1C
:10100000034BED00F600236025626662204670BD4A
:1010100048A3020810B5202132220446FFF7CEFF74
:10102000014B2046236010BD00770208202110B537
:101030000A460446FFF7C2FF014B2046236010BD5D
:101040002077020810B5202107220446FFF7C4FFCD
:10105000014B2046236010BD4077020810B52021C7
:1010600010220446FFF7C6FF014B2046236010BD47
:101070006077020870B5438986B0A3F11802153B6A
:10108000ADF81220ADF816300546066EFCF792FB5F
:101090004FF4C8746643B6FBF0F06D6EADF8100007
:1010A000FCF788FB01356543BDF81030B5FBF0F562
:1010B000ADF814501AB22DB2AD1A012D07DC02336F
:1010C000ADF814301BB2A342C8BFADF8144004AC55
:1010D00020464FF6FF71FBF78AFFBDF8102013B2D0
:1010E000002B0EDD02AB94E8030083E80300ADF8AB
:1010F0000C201846002244F20821ADF80820FBF726
:1011000076FFBDF8142013B2B3F5C87F0FDA02AB37
:1011100004A903C983E80300ADF8082018464FF47A
:10112000C87244F20821ADF80C20FBF760FFFCF711
:101130006BFB0446FCF73EFB4FF4C8735C43BDF900
:101140001210BDF916301F22B4FBF0F000920131ED
:101150000246013BFCF7A8F906B070BD10B5044685
:1011600004F002FA044B20462360012384F8203067
:10117000013B636210BD00BF087F020804F0FEB8A7
:1011800047F269418A4201D1FFF7F8BF44F6444172
:101190008A4205D001318A4202D1012280F8202002
:1011A000704710B501704270837010BDF8B5114BD7
:1011B0004FF4AF7707FB013700F13C040E2615E032
:1011C0007B5D202B02D0232B06D101E0012300E020
:1011D000002304F8013B03E00748F821FCF7FCF882
:1011E0000135192DECD11937013E01D00025E7E773
:1011F000F8BD00BF587F020880880208192303FB4E
:101200000213C0183C30704773B50646FEF75AFE0D
:101210001923B0FBF3F505FB1305FEF753FE0E2370
:10122000B0FBF3F404FB1304294630462246FFF7D3
:10123000E5FF0378012BE9D101330370E2B2023BF1
:1012400001A8E9B2FFF7ADFF019B00201A0CDBB249
:1012500063F307009DF8053063F30F20D3B263F307
:1012600017407CBD002310B50446C362FEF72AFE7A
:101270001923B0FBF3F202FB13036362FEF722FEB5
:101280000E23B0FBF3F202FB1302616AA262204656
:10129000FFF7B4FF0378012BE8D10433037010BDCE
:1012A0002DE9F0474FEA41180F242FE0032B03D814
:1012B000DFE803F005090C0F00252E460BE0C0F116
:1012C0000F063D4607E02646054604E0254606464D
:1012D00001E005463E46134946EA05154AEA40063E
:1012E00001EB8606D6F8786146FA09FC1CF00F0C73
:1012F00008BF4FF0020C01EB4C01B1F8781401303B
:10130000102822F81510D1D1013C09D3C4F10F07E0
:1013100004F0070948EAE70A4FEA89090020C5E70F
:10132000BDE8F087407F020870B5ADF5027D0C4640
:1013300006461546FFF762FF0178052903D13046BE
:1013400002AAF36A06E0042908BF336B304602AAFA
:1013500018BF0023FFF7A4FF02A8691C621CAB1C86
:1013600000904FF4807001900901200112011B01CF
:10137000FBF7ACFD0DF5027D70BD11F0020F0346C9
:1013800006D0C26A0132032AC2620EDD002206E0E4
:1013900011F0010F07D0C26A002A02DD013ADA62B9
:1013A00003E00322FBE704F066B8596A9A6A18461C
:1013B000FFF7BABF70B5064600240AE0294630465A
:1013C00022460135FFF7B0FF192DF7D101340E2C5D
:1013D00001D00025F2E770BD10B5044604F0E2F933
:1013E000A36B6FF00901594301F5967120466429FA
:1013F000B8BF6421BDE8104004F0DAB810B5044667
:10140000FBF72CF840F22D1360602381204610BDBD
:10141000038813B940F22D130381098801807047B6
:1014200038B504460D46FBF719F862682389821A1D
:101430009A4215D923889BB12B80238940F22D1223
:101440009342606002D14FF4967307E0B3F5967F44
:1014500001D1642302E00A2B04D90A3B238138BD61
:1014600000232B8038BD000010B5044604F07CF842
:10147000014B2046236010BD1898020810B50446A1
:1014800004F072F8014B2046236010BDE07602089C
:1014900010B50446FFF76CFC014B2046236010BDDD
:1014A0008077020810B50446FEF7C4FE114B2046B3
:1014B00040F8283BFEF7CEFE04F13800FEF7CAFEE6
:1014C00004F14800FEF7C6FE04F15800FEF7C2FE24
:1014D00004F16800FEF7DCFE04F18C00FEF7D8FE94
:1014E00004F1B000FEF7D4FE04F1D400FEF7D0FE04
:1014F000204610BDD077020870B5054604F034F8D8
:10150000084B2C4644F8203B05F5AC762046343495
:10151000FFF7BEFFB442F9D12046FFF7C3FF2846CC
:1015200070BD00BFF09F020810B50446FFF720FC15
:10153000014B2046236010BDF878020810B5044620
:10154000FFF7F2FF014B2046236010BDC078020870
:1015500010B50446FFF7E8FF014B2046236010BD9D
:101560003079020810B50446FFF702FC014B204613
:10157000236010BD9079020810B50446FEF764FEA2
:10158000014B2046236010BDB879020810B504460F
:10159000FFF7E8FF034B204640F8303BFFF7ECFF36
:1015A000204610BD6879020810B5044603F0DCFF40
:1015B000094B204640F8203BFFF7C0FF04F14C00E8
:1015C000FFF7C6FF04F17800FFF7E0FF04F1B40075
:1015D000FFF7CEFB204610BDA078020810B50446E8
:1015E000FFF7C0FF034B204640F8303BFEF732FECA
:1015F000204610BD007A020810B50446FEF724FE0E
:10160000014B2046236010BD287A020810B504461D
:10161000FFF7A8FF014B2046236010BD507A020857
:1016200010B5044603F0A0FF134B204640F8203BC2
:10163000FFF7D4FF04F16000FFF7DEFF04F168005C
:10164000FFF7E4FF04F19800FFF7D6FF04F1A000D4
:10165000FFF7DCFF04F1D000FFF7CEFF04F1D80064
:10166000FFF7D4FF04F58470FFF7C6FF04F5887018
:10167000FFF7CCFF204610BDE079020810B5044604
:10168000FFF776FB014B2046236010BD787A0208F5
:1016900010B5044603F068FF194B204640F8203B84
:1016A000FEF7D8FD04F13000FEF7D4FD04F1400050
:1016B000FEF7D0FD04F15000FEF7CCFD04F1600010
:1016C000FEF7C8FD04F17000FEF7C4FD04F18000D0
:1016D000FFF7D4FF04F1B000FFF7D0FF04F1E00002
:1016E000FFF7CCFF04F58870FFF7C8FF04F5A07082
:1016F000FFF7C4FF04F5B870FFF7C0FF204610BD28
:1017000008A3020810B50446FFF732FB014B204640
:10171000236010BDA07A020810B5044603F024FF30
:10172000154B204640F8203BFFF7ECFF04F14C003E
:10173000FFF7E8FF04F17800FFF7E4FF04F1A400ED
:10174000FFF7E0FF04F1D000FFF7DCFF04F1FC003D
:10175000FFF7D8FF04F59470FFF790FF04F5AC7025
:10176000FEF778FD04F5B470FFF788FF04F5CC7040
:10177000FEF770FD204610BD98B4020810B504466F
:10178000FFF7F0FE034B204640F8303BFEF762FDCA
:10179000204610BDC87A020810B50446FFF7E8FAE3
:1017A000014B2046236010BDF07A020810B50446B4
:1017B000FFF7DEFA014B2046236010BD187B0208BC
:1017C00010B50446FFF7D4FA014B2046236010BD44
:1017D000407B020810B5044603F0C6FE094B2046C4
:1017E00040F8203BFFF7CAFF04F16000FFF7D4FF89
:1017F00004F18C00FFF7DAFF04F1BC00FFF7E0FF13
:10180000204610BDB8AD020870B5054603F0ACFE29
:10181000064B2C4644F8203B05F1FC0620462C34B0
:10182000FFF7A6FAB442F9D1284670BD98AE020877
:1018300010B5044603F098FE0D4B204640F8203BBF
:10184000FFF796FA04F14C00FFF792FA04F17800E2
:10185000FFF78EFA04F1A400FFF78AFA04F1D00032
:10186000FFF786FA04F1FC00FFF782FA204610BD6C
:1018700008AE020810B50446FFF77AFA014B20467D
:10188000236010BD687B020810B50446FFF770FAAC
:10189000014B2046236010BD907B020810B5044622
:1018A000FEF7C8FC0D4B204640F8283BFEF7D2FC63
:1018B00004F13800FEF7ECFC04F15C00FEF7D4FC08
:1018C00004F16C00FEF7E4FC04F19000FEF7CCFCA0
:1018D00004F1A000FEF7DCFC204610BDB87B020836
:1018E00010B50446FEF7B0FC014B2046236010BD46
:1018F000207C020810B50446FEF7A6FC014B2046EA
:10190000236010BD487C020810B50446FEF792FC27
:10191000154B204640F8283BFFF7E2FF04F130006A
:10192000FFF7E8FF04F13C00FFF7E4FF04F1480093
:10193000FFF7E0FF04F15400FEF7AAFC04F1780081
:10194000FEF7A6FC04F19C00FEF7A2FC04F1C00027
:10195000FEF79EFC04F1E400FEF77CFC04F1F400C9
:10196000FEF796FC204610BD007C020810B5044628
:1019700003F0FAFD0D4B204640F8203BFFF77AFFBD
:1019800004F15000FFF776FF04F18000FFF772FFCB
:1019900004F1B000FFF778FF04F1E000FFF77EFFED
:1019A00004F5D270FFF7B0FF204610BDB8A20208C0
:1019B00010B5044603F0D8FD014B2046236010BD4E
:1019C000707C020810B5044603F0CEFD014B2046A2
:1019D000236010BD907C020810B5044603F0C4FDDE
:1019E000014B2046236010BDB07C020810B50446B0
:1019F00003F0BAFD014B2046236010BDF07C0208C5
:101A000010B5044603F0B0FD014B2046236010BD25
:101A1000107D020810B5044603F0A6FD014B2046D8
:101A2000236010BD307D020810B5044603F09CFD14
:101A3000014B2046236010BD507D020810B50446BE
:101A400003F092FD014B2046236010BD80A40208E4
:101A500010B5044603F088FD014B2046236010BDFD
:101A6000687E020810B5044603F07EFD114B204647
:101A700040F8203BFFF7ECFF04F14800FFF7E8FFD8
:101A800004F17000FFF7E4FF04F19800FFF7E0FFB6
:101A900004F1C000FFF7DCFF04F1E800FFF7D8FF16
:101AA00004F58870FFF7D4FF04F59C70FFF7D0FFB2
:101AB000204610BDD898020810B5044603F054FD26
:101AC000014B2046236010BD887E020810B50446F5
