:020000040800F2
:10C0000000000120312A01084528010847280108BD
:10C01000492801084B2801084D28010800000000AC
:10C02000000000000000000000000000512801088E
:10C030004F28010800000000532801085528010876
:10C0400057280108592801085B2801085D280108C4
:10C050005F28010861280108632801086528010894
:10C0600067280108692801086B2801086D28010864
:10C070006F28010871280108732801087528010834
:10C0800077280108792801087B2801087D28010804
:10C0900081280108852801088728010889280108C6
:10C0A0008B2801088D2801088F2801089128010894
:10C0B0009328010895280108A9290108AB2901083E
:10C0C000AD290108AF290108B1290108B3290108E8
:10C0D000B5290108B7290108C5290108C7290108A0
:10C0E000C9290108CB290108CD290108CF29010858
:10C0F000D1290108D3290108D5290108D729010828
:10C10000D9290108DB290108DD290108DF290108F7
:10C11000E1290108E3290108E5290108E7290108C7
:10C12000E9290108EB290108ED290108EF29010897
:10C1300020B10368197003680133036070472DE96B
:10C14000F041161E04460D4614DD002200E00132C7
:10C15000A95C0029FBD1B24203F00208B4BFC2EBD4
:10C1600006060E46B8F1000F0CBF4FF020084FF046
:10C17000300801E04FF0200813F0010709D105E075
:10C1800020464146FFF7D4FF0137013E002EF7DC81
:10C1900005E0002703E02046FFF7CAFF013715F846
:10C1A000011B0029F7D105E020464146FFF7C0FFFB
:10C1B0000137013E002EF7DC3846BDE8F0812DE95D
:10C1C000FF410A9F05460B9EDDF830C08E4651B9EF
:10C1D00030238DF804308DF805103A4601A9334616
:10C1E000FFF7ADFF3CE03BB10A2A07D1002905DA91
:10C1F000C1F1000E012402E01C4600E0002404A965
:10C20000002301F8013D0EE0BEFBF2F302FB13EE4A
:10C21000BEF1090FC4BFACF13A0086440EF1300EF6
:10C2200001F801ED9E468846BEF1000FECD184B1C5
:10C230004FB116F0020F06D028462D21FFF778FFE8
:10C24000013F012405E02D2301F1FF3801F8013CF5
:10C250000024284641463A463346FFF770FF00194E
:10C2600004B0BDE8F0812DE9F0478AB006460D46DE
:10C2700005920024DBE0252B40F0D38015F8013F28
:10C28000002B00F0D880252B00F0CB802D2B02D185
:10C2900001352C3B03E0002301E043F00203294673
:10C2A00015F8012B302AF8D0002702E00A2202FB01
:10C2B00007070A780D46A2F130005FFA80FC0131D1
:10C2C000BCF1090FF2D9732A09D1059A3046111D24
:10C2D000059111685C4A002908BF11469DE0642A57
:10C2E0000ED1059A01936123111D029300970591C8
:10C2F00030461168603B0A22FFF761FF241895E081
:10C30000662A54D1059B073323F0070303F1080283
:10C31000D3E90001059217F043FD0021804618F093
:10C320003BF838B12D238DF8183008F100480DF195
:10C33000190A01E00DF1180A404618F055F80123DA
:10C3400000E013460A225A439042FADA90FBF3F2D5
:10C3500002F1300103FB12000A2293FBF2F30AF808
:10C36000011B002BF2D124328AF80020002F08BFD5
:10C3700003279946404618F037F817F01BFE014690
:10C38000404617F061FD314917F068FE804618F00D
:10C390002BF809F101093030B9450AF8010FE9DB42
:10C3A00000228AF80120304606A9202336E0782AA8
:10C3B0000AD1059A01936123111D009702930591FB
:10C3C00030461168102219E0582A0BD1059A0193C2
:10C3D0004123111D02930097059130461168413B9E
:10C3E000102289E7752A0BD1059A01936123111D4B
:10C3F000009702930591304611680A22613B7BE762
:10C40000632A13D1059A3046111D126805918DF8E3
:10C41000242000228DF8252009A93A46FFF78FFE37
:10C420006CE730462978FFF783FE013401352B781D
:10C43000002B7FF420AF16B1336800221A7020461B
:10C440000AB0BDE8F08700BFA878020800002041CC
:10C45000014B1868704700BFECA40020014614206F
:10C46000F7F7F4BE034B18801A8892B2002AFBD16A
:10C47000704700BFF8A40020044B10B519680446AB
:10C480000320F7F7E3FE024B1C8010BD00300020B4
:10C49000FAA4002030B5002308E00A24B0FBF4F130
:10C4A00004FB11003030D054013388B2084A002810
:10C4B000F3D1D0545910013BD31804E0145C5D78DB
:10C4C00015545C700130013B8842F7DB004830BDF9
:10C4D0004832002008B506200021F7F7BBFE5A239A
:10C4E0004343A3F58223A3F56B6340F2145093FBFF
:10C4F000F0F00A306428A8BF642020EAE07008BD8C
:10C500000128ACBF014601210220F7F79FBE00EBD6
:10C51000D070024B40101860704700BF0030002000
:10C52000052810B507D8044B53F8200018B104684B
:10C5300006F036F9A04710BDD0690208C0B2F7F77F
:10C5400085BE47F26623984201D1F7F773BEC0B2A9
:10C55000F7F780BE43680A6823F4702323F48073DE
:10C5600013430A7910B543EA022343608A68CB6813
:10C5700084681A43094B04EA030342EA03034A7935
:10C5800043EA420383600B7CC26A013B22F47002DF
:10C59000DBB242EA0353C36210BD00BFFDF7F1FFF7
:10C5A00000230360037143718360C360013303742C
:10C5B000704719B1836843F0010302E0836823F0F8
:10C5C00001038360704719B1836843F4807302E00C
:10C5D000836823F4807383607047C9B212B14368E3
:10C5E000194302E0436823EA010141607047836810
:10C5F00043F00803836070478068C0F3C000704751
:10C60000836843F00403836070478068C0F3800050
:10C61000704719B1836843F4A00302E0836823F4F0
:10C62000A003836070478068C0F380507047436800
:10C63000013923F4604343EA41334360704719B141
:10C64000436843F4006302E0436823F400634360FB
:10C650007047092970B54FEA41040BD964181E3C94
:10C660000725A540A340C66826EA050545EA030458
:10C67000C4600AE064180725A54013FA04F40669AB
:10C6800026EA050545EA04030361062A0CD8013AA7
:10C6900002EB82021F2393409140446B24EA030380
:10C6A00043EA0102426370BD0C2A4FEA82030BD8B1
:10C6B0009A18233A1F2393409140046B24EA030302
:10C6C00043EA0102026370BD9A18413A1F23934066
:10C6D0009140C46A24EA030343EA0102C26270BDC6
:10C6E00019B1836843F4801302E0836823F4801354
:10C6F00083607047C06C80B27047014B1868704708
:10C700004C24014019B1436843F4806302E043685C
:10C7100023F480634360704719B1436843F4805346
:10C7200002E0436823F4805343607047836823F436
:10C73000E04341EA03038360704719B1836843F41F
:10C74000004302E0836823F400438360704719B11B
:10C75000836843F4021302E0836823F402138360C6
:10C7600070478068C0F340507047092970B54FEAA0
:10C7700041040BD964181E3C0725A540A340C66898
:10C7800026EA050545EA0304C4600AE064180725A3
:10C79000A54013FA04F4066926EA050545EA0403F0
:10C7A0000361836B03F440146FEA145412190332CB
:10C7B000D2B202EB82021F249440914023EA040388
:10C7C0000B43836370BD836B013923F4401343EA49
:10C7D00001538363704782B00A5002B0704782B041
:10C7E00001902830405880B202B07047436823F46B
:10C7F000400323F4007341EA03034360704741623E
:10C8000082627047436823F01F0341EA03034360D9
:10C810007047054B18B19A6842F4000202E09A682A
:10C8200022F400029A607047002401400368194214
:10C830000CBF002001207047C94301607047436866
:10C84000006810EA112004D0C9B219420CBF0020C0
:10C85000012070476FEA112101607047044B11B14C
:10C86000DA68104302E0DA6822EA0000D860704714
:10C870000010024007B5124B019098420DD0114BA9
:10C88000984212D0104B984219D14FF400700121F8
:10C89000FFF7E4FF4FF400700EE04FF480600121D9
:10C8A000FFF7DCFF4FF4806006E04FF40040012109
:10C8B000FFF7D4FF4FF400400021FFF7CFFF0EBD7C
:10C8C00000280140003C014000240140044B11B10C
:10C8D0005A69104302E05A6922EA00005861704721
:10C8E00000100240044B11B19A69104302E09A69AA
:10C8F00022EA0000986170470010024010B54FF422
:10C90000007086B00121FFF7EDFF012400234FF4F2
:10C9100060222B4801A901938DF808308DF8093069
:10C92000039204938DF81440FFF714FE1021224661
:10C9300007232348FFF78DFE2046FFF76AFF2048B4
:10C940002146FFF736FE1E48FFF751FE1C48FFF751
:10C9500053FE0028FAD11A48FFF752FE1848FFF795
:10C9600054FE0028FAD116480121FFF752FE022199
:10C970001348FFF75BFF0128F9D11148FFF7BAFE12
:10C9800004460020FFF745FF204617F013FB0D4932
:10C9900017F064FB4FF0665117F060FB01460A4840
:10C9A00017F052FA094917F059FB094917F00AFC28
:10C9B000084917F04BFA17F017FD06B010BD00BF7D
:10C9C00000240140333353408FC2B53F00007A4406
:10C9D00033338B400000C841024B0E2202FB003073
:10C9E000704700BFE8690208034B18801A8892B2AA
:10C9F000002AFBD1704700BFF8A40020044A4FF47E
:10CA0000805313604FF0C0421080024A1360704799
:10CA1000141401401014014010B5EF20FFF7EEFF91
:10CA20004FF0C0431A881C8818881A881988C3B226
:10CA3000C9B241EA046141EA0343120643EA1242E1
:10CA4000014B9A6010BD00BF48320020054B4FF4E7
:10CA500080521A604FF0C04318800348026019806A
:10CA6000704700BF14140140101401402DE9F0413B
:10CA7000E9204FF0C044FFF7C1FF2022228011209F
:10CA8000FFF7BCFF6420FFF7AFFFD120FFF7B6FF31
:10CA9000002517225E232580D02023802280FFF7E7
:10CAA000ADFF0C2607232380362023804FF040085B
:10CAB0002680FFF7A3FF3046A4F800804936FFF731
:10CAC0009DFF26803A20FFF799FF2680C120FFF7BF
:10CAD00095FF533E10232380C0202380268026808C
:10CAE000FFF78CFF012735232580C5202380258073
:10CAF000258027802680FFF781FF2780D220FFF73F
:10CB00007DFF22232780C8202380FFF777FF732231
:10CB1000372327802280238004220F23258023802F
:10CB2000268022806722A4F800802280258080222F
:10CB30002680238008232380292022802580FFF758
:10CB40005DFF2C20BDE8F04158E7002008B5014604
:10CB5000FFF77CFF00200146FFF778FF0020014629
:10CB6000FFF774FF00200146FFF770FF0A20FFF770
:10CB70003BFF01214FF4C060FFF768FF0A20FFF779
:10CB800033FF40214FF4DE60FFF760FF0A20FFF71C
:10CB90002BFF4FF480604FF4C441FFF757FF08208C
:10CBA00040F60801FFF752FF01204FF48071FFF7B4
:10CBB0004DFF02204FF48071FFF748FF0320302122
:10CBC000FFF744FF09200121FFF740FF0C2000215F
:10CBD000FFF73CFF90204FF40041FFF737FF0F2095
:10CBE0000021FFF733FF10201621FFF72FFF112040
:10CBF00040F20111FFF72AFF12200021FFF726FF64
:10CC000013200121FFF722FF4FF480704FF44C7185
:10CC1000FFF71CFF40F2011040F23721FFF716FF2B
:10CC200040F203104FF47061FFF710FF4FF42070D3
:10CC30004FF4D641FFF70AFF4CF2B0114FF4817068
:10CC4000FFF704FF6420FFF7CFFE4FF440704FF46E
:10CC50004061FFF7FBFE40F2013045F60B21FFF784
:10CC6000F5FE40F2023040F60611FFF7EFFE40F20B
:10CC7000033041F21701FFF7E9FE4FF441704FF422
:10CC80000C51FFF7E3FE40F205304FF4B851FFF7C7
:10CC9000DDFE40F2063046F20931FFF7D7FE40F2E2
:10CCA000073040F60941FFF7D1FE4FF4427041F2E0
:10CCB0000C01FFF7CBFE40F2093042F23221FFF7C0
:10CCC000C5FE4FF404700021FFF7C0FE40F21120B2
:10CCD000EF21FFF7BBFE40F212200021FFF7B6FE66
:10CCE00040F2132040F28F11FFF7B0FE4FF4A06026
:10CCF0000021FFF7ABFE40F201500021FFF7A6FE36
:10CD000040F202500521FFF7A1FE40F2014001214F
:10CD1000FFF79CFE002140F20440FFF797FE6420DD
:10CD2000FFF762FE4FF480710720FFF78FFE64204B
:10CD3000FFF75AFE4FF400700021FFF787FE002135
:10CD400040F20120FFF782FE054A4FF48053136042
:10CD500040F202214FF0C0421180024A136008BD28
:10CD6000141401401014014070B5104C4FF480535E
:10CD70004FF40065236001202560FFF735FE0C4B62
:10CD80000A201D60FFF730FE32202560FFF72CFEE1
:10CD9000FFF742FE074B9A68074B9A4202D1BDE863
:10CDA000704063E6BDE87040CFE600BF101401405C
:10CDB0001414014048320020279304020B4B10B595
:10CDC0009A680B4B4FF0C0449A4209D12E20FFF7CE
:10CDD00015FE238824882C20A4B2FFF70FFE02E062
:10CDE00023882488A4B2204610BD00BF483200200A
:10CDF000279304020EB403B503AA52F8041B019052
:10CE000001A80092FFF72FFABDE80C4003B070476D
:10CE1000AAE713B502AC24F8020D00200146F7F78B
:10CE2000F5F920464BF68031F7F7FEF9F7F7F8F9F8
:10CE300020464BF68031F7F7F7F9F7F7F1F91CBD0B
:10CE4000C1F1EF0110B580B289B21446F7F7DEF9EF
:10CE50002046BDE81040F7F7DBB9C1F1EF0110B58E
:10CE600080B289B2F7F7D2F9BDE81040F7F7FCB904
:10CE700038B5151A5C1A6C434BF67F35AC4280B25C
:10CE800002F1FF35C3F1F0020FD9C1F1EF0392B205
:10CE9000A9B29BB26508F7F7C1F904A8A9B2F7F7E0
:10CEA000C3F9641BF7F7BCF906E0C1F1EF0392B2D6
:10CEB000A9B29BB2F7F7B2F904A8A1B2F7F7B4F997
:10CEC000F7F7AEF9002040F28F110246EF23F7F793
:10CED000A5F938BD37B50D46B0F9021004464B1C14
:10CEE000B0F90000B4F904200095FFF7C1FFB4F9D0
:10CEF0000630B4F90000591EB4F904200095FFF77C
:10CF0000B7FFB4F90000B4F90210421CB4F90630BE
:10CF10000095FFF7ADFFB4F90420B4F90210B4F99D
:10CF20000630501E0095FFF7A3FF3EBD2DE9F14FDF
:10CF30000A9C1E460B9B88461746511E04EB43096C
:10CF4000C6F1F002C8F1EF03054689B280B292B291
:10CF50009BB2F7F763F9A2460CE03AF8020BF7F739
:10CF600057F9CA4508BFA2460BF1010BBB45F4DBDC
:10CF700008F10108B04501DAAB46F7E7002040F2BE
:10CF80008F110246EF2301B0BDE8F04FF7F746B925
:10CF90002DE9F843B0F80080044689461FFA88F767
:10CFA000002614E0B4F9065009E0C5F1EF01384657
:10CFB00089B2F7F72BF9FFF701FF29F8020BB4F953
:10CFC0000230013D9D42F0DA01370136BFB20FFA5F
:10CFD00088F2B4F90430B2189A42E3DBBDE8F88372
:10CFE0002DE9F047C28843880D468188C2F1F002DE
:10CFF0000139C3F1EF03044689B2008892B29BB2B3
:10D00000F7F70CF90026B4F8028010E0B4F80090AD
:10D01000002703E035F8020BF7F7FAF80FFA89F268
:10D02000B4F90430BA1801379A42F3DB01360FFA2B
:10D0300088F2B4F90630B2189A42E7DB002040F2D9
:10D040008F110246EF23BDE8F047F7F7E7B813B5B5
:10D050000346B3F90240B3F90420B0F90000B3F974
:10D06000063000912146FFF703FF1CBD0268034B09
:10D07000DA6042681A6102685A61704748320020DB
:10D0800010B50B4C0246B4F91610B4F91400FFF7B2
:10D09000D7FEA38AB4F910200133A3821BB29A42AF
:10D0A00004DCA389A382E38A0133E38210BD00BFBD
:10D0B0004832002070472DE9F74F99460C9B0191AB
:10D0C000924613F801BB054600241DE018F8013B09
:10D0D000FBB113F0040F4FF61E0305D09A450AD09A
:10D0E00028463146524604E0994504D02846314648
:10D0F0004A46FFF7A5FE013701365F454346E5DBAB
:10D1000001340135502C03D0019E98460027F4E7E6
:10D1100008242046BDE8FE8F2DE9F0411E460F464B
:10D12000B6B2C7F1F00714460546F7F77FF8B91B0A
:10D13000A8B289B2F7F76AF820463146F7F772F8D5
:10D14000BDE8F041F7F76CB830F0030309D131F0D6
:10D15000030208D140EA81000449091891F8180E29
:10D160007047002070471846704700BFD06902081A
:10D170002DE9F04F85B004469A469DF839009DF898
:10D1800038300D4616469DF83AB002900393274674
:10D1900045E0C5EB0A01701E0139C01B3B1BC8EB03
:10D1A00001019842A8BF18464145A8BF4146FFF774
:10D1B000CBFF68BBC9F1EF0189B2B8B2F7F726F827
:10D1C000F7F752F81A4BC10001F0FF01C208000A3C
:10D1D00000EA0303C1EB0B000190DDF808C00398DF
:10D1E00002F0FC02C2EB0C0EC3EB000C03EB6C0371
:10D1F000DDF804C0DB1001EB6C00C01040EAC32373
:10D2000002EB6E00801043EA401080B2F7F700F89E
:10D2100009F1010908F10108D145BADB0137B7422C
:10D2200003DAA9464FF00008F6E705B0BDE8F08F35
:10D23000F8FF07002DE9F74F06468A4615461C46BB
:10D24000BDF830B088462DE00AF10303984509D1B6
:10D25000E71E414630462A463B46CDF800B0FFF770
:10D2600007FEB846B146002718E0A81B0138611E2A
:10D27000C01BC8EB0101CAEB0803B842A8BF38467F
:10D280009942A8BF1946FFF75FFF20B948464146BB
:10D290005A46FFF7D5FD09F101090137A945E4DB3D
:10D2A00008F10108A045CFDBBDE8FE8F13B50346AA
:10D2B000B3F90240B3F90420B0F90000B3F9063025
:10D2C00000912146FFF7B6FF1CBD2DE9F74F0190F5
:10D2D0009DF830001F460D469246FFF77DFB4FF646
:10D2E0001E039F4283461DD100241BF80480019F2A
:10D2F0006FEA08085FFA88F8082618F0800F04D053
:10D30000384661195246FFF79BFD013EF6B20137E0
:10D3100026B14FEA48085FFA88F8EEE701340E2C90
:10D32000E3D145E09A451FD100241BF80490DDF8B5
:10D3300004806FEA09095FFA89F9082619F0800F5D
:10D3400004D1404661193A46FFF77AFD013EF6B234
:10D3500008F1010826B14FEA49095FFA89F9EDE7BA
:10D3600001340E2CE1D123E000241BF80490019E2F
:10D370006FEA09095FFA89F94FF0080819F0800F80
:10D3800008F1FF38304614BF52463A4629465FFA44
:10D3900088F8FFF755FD0136B8F1000F04D04FEAC9
:10D3A00049095FFA89F9E9E7013401350E2CDCD12E
:10D3B0000820BDE8FE8F2DE9F7430A9F05460E467B
:10D3C00091469846AFB1387818B913E00A2B02D1CC
:10D3D00010362C4607E00093204631464A46434625
:10D3E000FFF773FF241817F8013B002BEED1601BE9
:10D3F00000E03846BDE8FE83DDE72DE9F043A5B047
:10D4000015462CAA0E4652F8041B07460DF10808D3
:10D4100023A899462292CDF88C80FEF724FF31464E
:10D4200004462A4638464B46CDF80080FFF7E4FF15
:10D43000204625B0BDE8F08337B5124B05460C46B3
:10D44000009330211F2328204FF6FF72FFF7D4FFEF
:10D4500020211F234FF6FF7228200095FFF7CCFFF5
:10D46000A0B2FFF717F8102100904FF6FF722820A6
:10D470001F23FFF7C1FF4FF47A7003B0BDE83040BF
:10D48000FEF7F0BFAF78020808B502480421FFF7A5
:10D49000D3FFFEE7C17802080FB430B5A5B028AAC3
:10D4A00052F8041B02AC23A823942292FEF7DBFE61
:10D4B00023941EE00A2B134C03D0A569B5F5C47F55
:10D4C00009DBE26900230E32E02AA361E2610DDD8F
:10D4D0000C4AD3610AE000932846E1694FF6FF72D7
:10D4E0004FF43043FFF7F1FE4019A061239B013355
:10D4F0002393239B1B78002BDCD125B0BDE8304063
:10D5000004B07047483200202DE9F74FC0EB020B02
:10D510005F1A1FFA8BFBBFB20FFA8BFA0FFA87F86C
:10D520004FEADB3BFF0BBDF83090BAF1000FD4BFE0
:10D53000CBF1000BCBF1010BB8F1000FD4BF7F4250
:10D54000C7F10107BAF1000FB8BFCAF1000AB8F17C
:10D55000000FB8BFC8F100084FEA4A0A4FEA48086E
:10D5600000921FFA8AFA1FFA88F84A460193044685
:10D570000D460FFA8AF6FFF763FC0FFA88F39E4216
:10D5800020DB1FFA88F8A8EB6606B6B216E016F4A0
:10D59000004F09D11EB94FFA8BF3002B04DD7BB28B
:10D5A000CAEB0606ED18B6B24FFA8BF3E418464400
:10D5B000204629464A46B6B2FFF742FC009B9C42F1
:10D5C000E5D11EE01FFA8AFAAAEB6306B6B215E0AF
:10D5D00016F4004F09D116B97BB2002B05DD4FFAC6
:10D5E0008BF3C8EB0606E418B6B27BB2ED185644CE
:10D5F000204629464A46B6B2FFF722FC019B9D42CF
:10D60000E6D1BDE8FE8F08B500210420F6F722FE22
:10D61000C3439BB2C3F3802013F4006F1CBF40F0E0
:10D62000020080B213F4805F18BF40F4807013F0E2
:10D63000080F18BF40F0040013F4004F18BF40F06B
:10D64000080013F0400F18BF40F4007013F4804F2F
:10D6500018BF40F0100013F4005F18BF40F0200026
:10D6600013F4807F18BF40F0400013F4007F18BF10
:10D6700040F0800008BD07B50B200021F6F7EAFD59
:10D6800040B9084B303000931E211F224FF6FF7324
:10D69000FFF791FE1420002103B05DF804EBF6F7CC
:10D6A000D5BD00BFE7780208024B0146187124205F
:10D6B000F6F7CCBD00300020014B1879704700BF51
:10D6C0000030002070B50CE09C1804EBD47464109A
:10D6D00050F8246025468E4201D2621C01E004D934
:10D6E000631E9342F0DA4FF0FF35284670BD2DE9F6
:10D6F000F84F214C074604F5626008300E46154687
:10D700009846002215230C99FFF7DCFFB0F1FF3F8C
:10D710009DF82890BDF82CA083462AD00C9A174B70
:10D7200005209A600021F6F791FD09203946F6F7A9
:10D730008DFD0A203146F6F789FD00202946F6F7CF
:10D7400085FD0B204146F6F781FD0C204946F6F792
:10D750007DFD04EB4B0401205146F6F777FD0720D1
:10D76000B4F8801EF6F772FD0820B4F8AC1EF6F788
:10D770006DFDBDE8F88F00BFD069020800300020C1
:10D7800008B503200021F6F765FDC0B208BDF6F725
:10D7900051BD08B506200121F6F758FDFEF758FEE9
:10D7A000014B186208BD00BF483200202DE9F0414E
:10D7B00006460C462220314615461F46F6F746FD22
:10D7C00021202146F6F742FD202047EAC501BDE8A9
:10D7D000F041F6F73BBDB0F5805F70B503DD0A4858
:10D7E000CA21FFF729FE094C04F580452668FFF79A
:10D7F000CEFF06F07F4620F07F4040EA060644F860
:10D80000046BAC42F2D170BD007902086C3200208A
:10D810004FF480507047B0F5805F10B5044603D3D5
:10D820000348DB21FFF708FE024800EB840010BD2F
:10D83000007902086C32002010B500210220F6F7B2
:10D8400009FD00210120F6F705FD002100F001048B
:10D850000320F6F7FFFC10F0010F18BF44F002049C
:10D86000204610BD08B5FEF7F3FD0B4B1B6AC01A2E
:10D8700016F0A0FB094916F0A5FC094B996816F0B3
:10D88000A1FC084916F0EAFB16F0AEFDB0F5805F8A
:10D89000A8BF4FF4805008BD4832002000007A44F1
:10D8A000003000200000F041034670B510200C4607
:10D8B00019461546F6F7CAFC11202146F6F7C6FCB4
:10D8C00012202946BDE87040F6F7C0BC094B10B5E0
:10D8D0001A68094C22F001021A60084A146043F2E7
:10D8E000B0521A60064A116090601A6842F0010254
:10D8F0001A6010BD44040240087400404C04024009
:10D9000048040240034B0121A3F83C0D03F552608B
:10D910001C30DBE73065002001460D20F6F796BC91
:10D92000004870476E72002008B50346027300205D
:10D93000012A587305D11A4609480833F6F7A6FCA0
:10D9400006E0022A09D11A4605480833F6F79CFC7E
:10D95000D0F1010038BF002008BD012008BD00BF84
:10D960006E72002008B5034608461946F6F790FC8B
:10D97000D0F1010038BF002008BD10B504460846AC
:10D980002146F6F787FC20B9637B013001336373CE
:10D9900010BD002010BD10B5037B0446022B10D132
:10D9A000B1F1FF3F08BF417B224608BF490207484B
:10D9B00004F10803F6F770FC28B903232373013040
:10D9C00010BD012010BD002010BD00BF6E720020F0
:10D9D000F0B502EBD27700247F1001EB420523461D
:10D9E0000DE0BB42B4BF31F813C035F802CC065F7E
:10D9F000013306FB0CF6360C0653023D0434934209
:10DA0000EFDBF0BD0CF036BC420803460DD0002120
:10DA1000B3FBF2F080184008121A0132022A04D92E
:10DA2000192902D001310246F2E7704705E0054AA4
:10DA3000118811F0800FFAD0938010F8013B002B71
:10DA4000F5D17047003801400F4B10489A6942F4F5
:10DA500080429A610E4A40F27123138142F22C03F4
:10DA60009381138823F4A46323F005031B041B0C88
:10DA70001380084B5A6822F47F6242F40A625A60AB
:10DA80004FF480621A61D1E7001002402A7902083F
:10DA9000003801400008014010B54FF4FA70FEF75D
:10DAA000E1FCFFF7B5F9FFF7E6FDBDE81040CBE775
:10DAB00004F0A8BE034B1A8812F0800FFAD09880A9
:10DAC000704700BF003801400E200021F6F7C2BBAE
:10DAD0000D200021F6F7BEBB0F200021F6F7BABBE0
:10DAE00010200021F6F7B6BBF6F7A8BB014B9868EB
:10DAF000704700BF483200202DE9F0433F3189B024
:10DB0000234B804687B28CB2ADF1020213F8010CB0
:10DB10001978C0108910C00249014118587804339F
:10DB200001EBD00122F8021F1A498B42EED11A4EA6
:10DB30003D4616F8013B08AA1B0902EB43032846A1
:10DB40000135214633F8202CADB208F1FF09FFF76B
:10DB500077F94D4502DD013CA4B23D4616F8013C83
:10DB600008AA03F00F0302EB4303284601352146C0
:10DB700033F8202CADB2FFF763F94D4502DD013CCF
:10DB8000A4B23D46054B9E42D3D109B0BDE8F08317
:10DB900037D8030877D8030876D8030876F803083F
:10DBA000704700BF0C4B10B518600446FFF774FFB8
:10DBB00003F06CFE08F0C7F803F068FE01210022B4
:10DBC00008F0BEFA12F0ECFF12F0A6FF12F002FE0F
:10DBD000FFF7DFFD204610BD70740020704737B599
:10DBE000FEF736FC294C2368B3F1FF3F08BF2060E5
:10DBF0002368C51AB5F57A7F0ED94FF47A72B5FB52
:10DC0000F2F502FB053321490B6003F03FFE00F5FE
:10DC10002C504368ED184560FFF7F5FCADF80600A1
:10DC200000B9A08003F032FE00F53E500DF1060170
:10DC3000543003F08CF903F029FE00F53E505430C7
:10DC40000DF1060103F08BF9BDF80630ABB103F01E
:10DC50001DFE0221BDF8062008F072FABDF806206C
:10DC6000A3889A4206D00A4B1B681B7A13B932204C
:10DC7000FEF702FCBDF80630A38003F007FE032187
:10DC8000002208F05DFA01203EBD00BF10300020E8
:10DC90000CA50020014B1868704700BF707400206D
:10DCA00008B5036849421B6849B2984708BD00009F
:10DCB000014B1868704700BF288602087047012092
:10DCC00070474368826819688A181A607047436809
:10DCD000826819688A1A1A6070470820704783683A
:10DCE0001B78CB1805D4027B9342CCBF00200120C7
:10DCF00070470020704783681A7801321A707047A5
:10DD000083681A78013A1A707047836819707047EF
:10DD100083681878704702207047182070470220E7
:10DD200070470020704700207047082070470000AF
:10DD3000034B1B68586A0028B8BF03308010704737
:10DD40000CA500200020704719207047034B1B686A
:10DD5000986A0028B8BF0330801070470CA50020D7
:10DD600000207047192070477047704743688268E9
:10DD70001B68CB18934205DBC0688342CCBF0020F0
:10DD8000012070470020704743681A6801321A600A
:10DD9000704743681A68013A1A60704702484FF4A6
:10DDA0008871FFF749BB00BFC881020808B5034866
:10DDB00040F20F11FFF740FB002008BDC8810208A8
:10DDC00002484FF48771FFF737BB00BFC8810208D4
:10DDD000024840F20D11FFF72FBB00BFC8810208B7
:10DDE00002484FF48671FFF727BB00BFC8810208C5
:10DDF00008B503484FF48571FFF71EFB022008BDEC
:10DE0000C881020839B9042A05D146F26742934213
:10DE100001D107F08BBB704739B9042A05D146F20E
:10DE20006742934201D107F081BB704739B9042A98
:10DE300005D146F26742934201D107F077BB7047A4
:10DE4000C36A70B504460D461BB90B484221FFF763
:10DE5000F3FA15F0100F08D0E168E36A204646F6A1
:10DE60006352BDE8704007F068BB20462946BDE814
:10DE7000704007F0D8BB00BFE281020811F0100F1C
:10DE800070B505460C4605D0C16846F66F520023B2
:10DE900007F053FB28462146BDE8704007F0C3BB9E
:10DEA00011F0010F70B504460D4615D0C06A01216E
:10DEB00003685B68984701280ED1E06A0021036877
:10DEC000DB689847204607F031FB2046E16847F2BF
:10DED0007052002307F031FB15F0020F15D0E06AF5
:10DEE000012103681B68984701280ED1E06A0021D0
:10DEF00003689B689847204607F018FB2046E168B6
:10DF000047F27052002307F018FB15F0100F0ED0E7
:10DF1000E06A0368DB699847084B1B68984206D0A3
:10DF20002046E16846F66542E36A07F006FB2046B4
:10DF30002946BDE87040FFF7A1BF00BF2886020850
:10DF400011F0010F70B504460D460DD0C36A002BC9
:10DF50000ADD013BC36207F0E9FA2046E16846F6B4
:10DF60007512002307F0E9FA15F0020F0ED0E36AEC
:10DF7000132B0BDC0133E362204607F0D7FA20466F
:10DF8000E16846F67512002307F0D7FA20462946C5
:10DF9000BDE87040FFF772BF11F0010F70B5044685
:10DFA0000D460DD0C36A012B0ADD013BC36207F0A9
:10DFB000BDFA2046E16846F67512002307F0BDFA67
:10DFC00015F0020F0ED0E36A1D2B0BDC0133E36268
:10DFD000204607F0ABFA2046E16846F675120023AA
:10DFE00007F0ABFA20462946BDE87040FFF746BF70
:10DFF00011F0200F70B505460C4606D0C06846F2F9
:10E0000078520146002307F098FA28462146BDE8D9
:10E01000704007F008BB000011F0010F70B5044616
:10E020000D4615D0006A012103685B6898470128F6
:10E030000ED1206A00210368DB689847204607F06C
:10E0400075FA2046E16847F27052002307F075FA2E
:10E0500015F0020F15D0206A012103681B6898474C
:10E0600001280ED1206A002103689B68984720464A
:10E0700007F05CFA2046E16847F27052002307F08F
:10E080005CFA15F0100F0ED0206A0368DB69984720
:10E09000084B1B68984206D02046E16846F6654268
:10E0A000236A07F04AFA20462946BDE87040FFF788
:10E0B0009FBF00BF2886020811F0010F70B504460B
:10E0C0000D4615D0C06A012103685B689847012896
:10E0D0000ED1E06A00210368DB689847204607F00C
:10E0E00025FA2046E16846F67512002307F025FA66
:10E0F00015F0020F15D0E06A012103681B689847EC
:10E1000001280ED1E06A002103689B6898472046E9
:10E1100007F00CFA2046E16846F67512002307F076
:10E120000CFA20462946BDE8704007F07CBA000092
:10E13000C36A70B504460D461BB91A482A21FFF779
:10E140007BF915F0100F08D0E168E36A204646F627
:10E150006352BDE8704007F0F0B9E36A1A79043AF7
:10E16000D2B2012A17D815F0010F08D0DA6812F1DF
:10E17000FE0F04DB013ADA60204607F0D7F915F00C
:10E18000020F08D0E36ADA68FE2A04DC0132DA60A2
:10E19000204607F0CBF920462946BDE8704007F03D
:10E1A00042BA00BF0D820208C36A70B504460D462C
:10E1B0001BB91D482221FFF73FF915F0100F08D0B9
:10E1C000E168E36A204646F66352BDE8704007F016
:10E1D000B4B915F0010F0ED0E36A1A795AB1013AB9
:10E1E0001A71204607F0A2F92046E16846F675123A
:10E1F000E36A07F0A2F915F0020F0FD0E36A1A796B
:10E20000092A0BD801321A71204607F08FF92046EF
:10E21000E16846F67512E36A07F08FF92046294651
:10E22000BDE8704007F0FFB93B820208C36A70B5D1
:10E2300004460D461BB90B484221FFF7FDF815F0C7
:10E24000100F08D0E168E36A204646F66352BDE845
:10E25000704007F072B920462946BDE8704007F0CB
:10E26000E2B900BF6A82020830B5028400250122AB
:10E27000456280F82820BDE8304007F01BB9000057
:10E280007FB5043302AC05460E4693E8030084E8EC
:10E290000300BDF80E30284604339BB2ADF80A30B7
:10E2A0000733ADF80E30044942F0020223460096CF
:10E2B00007F000F97FBD00BF8C8202087FB50433F0
:10E2C00002AC05460E4693E8030084E80300BDF85F
:10E2D0000E30284602339BB2ADF80A300733ADF852
:10E2E0000E30044942F002022346009607F0E2F89D
:10E2F0007FBD00BF9882020830B5049D02840122D0
:10E300004562BDE8304007F0D5B82DE9FF410A9ECF
:10E310000D4600214162028480F8283004464FF007
:10E320001108304608FB03F807F07CF85FFA88F81C
:10E3300002AF68B1304607F075F8043003C887E8CB
:10E340000300BDF80E3002339BB2ADF80A3006E090
:10E35000331D93E8030087E80300BDF80A309844B2
:10E3600020462946012202ABADF80E80009607F048
:10E37000A1F8BDE8FF81FFF7C8BF00002DE9F0411B
:10E38000DDF81880044615461F460E4621B9084898
:10E390004FF40371FFF750F8204629463A4602230E
:10E3A000E662CDF81880BDE8F041FFF7AEBF00BFD0
:10E3B000C881020807B500930223FFF7A6FF0EBD30
:10E3C000FFF7A3BF10B50A24C462BDE81040FFF7F1
:10E3D0009CBF10B50A24C462BDE81040FFF795BF8A
:10E3E00073B5044616460D4619B907480C21FFF7C8
:10E3F00023F8E5622046002146F20C320223009603
:10E40000FFF783FF7CBD00BF0D82020810B5052415
:10E41000C462BDE81040FFF778BF13B503469C689F
:10E420005B682478088853F82430B1F9021000930F
:10E430004FF6FF73002A14BF1A4600224FF61E0340
:10E44000FEF7B9FF1CBD00002DE9F341274DB0F9DF
:10E4500006402B68B0F90460B3F84420244B2146F1
:10E46000009330460023FEF7A6FF2B68214F93F858
:10E470004230214657F82330801900934FF6FF723F
:10E480000023FEF798FF2B6806F16408B3F85820C4
:10E49000194B2146009340460023FEF78CFF2B6862
:10E4A000214693F85630404457F823304FF6FF7218
:10E4B00000930023FEF77FFF104BC83600932146E0
:10E4C000002330464BF29652FEF775FF2B688019F9
:10E4D00093F890200A4B214653F822304FF6FF72F2
:10E4E00000930023FEF767FFBDE8FC810CA5002028
:10E4F000A1A402082C87020887A50208A4820208AA
:10E5000094870208F7B50E88154B083E4FF6FF7545
:10E51000002A08BF0025B6B20C460746B1F9021022
:10E520002A46009330464FF61E03FEF7C4FD7B6873
:10E530003618B6B2B4F90210009330462B464FF6A7
:10E540001E02FEF738FF074B30180093B4F9021093
:10E550002A464FF61E0380B2FEF7ADFDFEBD00BF9A
:10E56000D06006084261060873B5044606F0CEFF87
:10E57000A688144B083E4FF6FF75002808BF0025FB
:10E58000B6B2B4F9061000932A4630464FF61E0381
:10E59000FEF791FDE3693618B6B2B4F906100093A0
:10E5A00030462B464FF61E02FEF705FF064B30188D
:10E5B0000093B4F906102A464FF61E0380B2FEF708
:10E5C0007AFD7CBDD06006084261060808B5836804
:10E5D0001A78436853F8220016F024FAC3004FF665
:10E5E000F87003EA000008BD7FB5436804460D4695
:10E5F000164623B912484FF42F71FEF71DFF6368CA
:10E600001A68A36892FBF3F20A2392FBF3F103FB6F
:10E6100011220023ADF80C30303204AB03F8042D86
:10E620004FF6FF720093B5F90000B5F90210002E05
:10E6300008BF00224FF61E03FEF7DEFE7FBD00BFBF
:10E64000C881020870B50E4615461C4606F0E3FE6A
:10E650002A46014623463046BDE8704006F06DBFAD
:10E6600011F0130F70B505460C4607D006F0D3FE27
:10E67000022201462346284606F05FFF284621462F
:10E68000BDE8704006F0CFBF11F0010F2DE9F04159
:10E6900004460D4616D0006A012103685B6898475E
:10E6A00080B1206A00210368DB689847204606F0A5
:10E6B000B2FE06F03BFFE06847F27052C1680023EB
:10E6C00006F03BFF15F0020F16D0206A0121036807
:10E6D0001B68984780B1206A002103689B689847AF
:10E6E000204606F098FE06F021FFE06847F27052DF
:10E6F000C168002306F021FF15F00C0F0FD00C4E5F
:10E70000204629463768FFF773FC3368BB420CD0BC
:10E71000204606F080FEBDE8F04106F007BF204627
:10E720002946BDE8F041FFF763BCBDE8F08100BFBA
:10E7300020A5002010B50C4606F06DFE03682146AA
:10E740005B68984710BD11F0130F10B50C4606D04A
:10E7500006F061FE036821465B68984710BDBDE87E
:10E76000104006F060BF000011F0030F10B507D095
:10E77000FFF7A2FC044B1868BDE8104005F0CEBBC3
:10E78000BDE81040FFF798BC0CA5002011F0030F66
:10E7900010B507D0FFF790FC044B1868BDE8104097
:10E7A00005F0BCBBBDE81040FFF786BC0CA50020FF
:10E7B00011F0030F10B507D0FFF77EFC044B18686B
:10E7C000BDE8104005F0AABBBDE81040FFF774BCDF
:10E7D0000CA5002008B54368B3F9000006F0D2FB91
:10E7E00016F020F9C3004FF6F87003EA000008BDE8
:10E7F0004368F7B54FF6FF7604460D46002A08BF7A
:10E8000000261BB913489721FEF716FE6368B5F979
:10E8100000701868A368984202DBE36898420ADD3A
:10E820000D4BB5F902100093384632464FF61E03E1
:10E83000FEF7C1FD0CE000B2B5F9024006F0A2FB04
:10E8400021460090324638464FF61E03FEF7D4FDAF
:10E85000FEBD00BFA8820208C38202082DE9F0476E
:10E860001F4647F270539A4204460D4616463FD162
:10E8700000F1380399423BD1436A93F80480A8F130
:10E8800004095FFA89F9B9F1010F8CBF4FF0000953
:10E890004FF00109B9F1000F06D0A8F10503D3F13B
:10E8A000000848EB030801E04FF0010804F1A00A5A
:10E8B000504606F024FF814506D04946504606F0F2
:10E8C00044FE4FF0010901E04FF0000904F16C0A29
:10E8D000504606F014FF804504D05046414606F0ED
:10E8E00034FE02E0B9F1000F02D0204606F01EFE11
:10E8F0002046294632463B46BDE8F047FFF7A2BE18
:10E90000F7B543680E881C88083E134BB6B20D4617
:10E910002246B1F90210304600934FF61E03FEF76F
:10E92000CAFB36182046B5F9027006F06FFBB6B286
:10E9300000903946234630464FF61E02FEF75CFD36
:10E94000064B30180093B5F9021022464FF61E030D
:10E9500080B2FEF7B0FBFEBDD0600608426106083B
:10E9600011F0100F70B5044617D006F056FD18B917
:10E970000A483D21FEF760FD204606F04CFD0546A5
:10E98000204606F04AFD0346DB692046294646F24A
:10E990006452BDE8704006F0D0BD70BDC58202086B
:10E9A00001804280704710B58380BDF80830018037
:10E9B0004280C38010BD00007FB5DE2305460E46B1
:10E9C0001446009300211622D33B02A8FFF7EBFF69
:10E9D0002846044944F0020202AB009606F06AFDA4
:10E9E0007FBD00BFE88202087FB5152305460E46AD
:10E9F000144600930C21102202A84FF49C73FFF7D9
:10EA0000D2FF2846034944F0020202AB009606F00A
:10EA100051FD7FBDFC8202087FB5F02305460E46FE
:10EA20001446009300211022A03302A8FFF7BBFF79
:10EA30002846044944F0120202AB009606F03AFD63
:10EA40007FBD00BF0F8302087FB5F02305460E4649
:10EA50001446009300211022A03302A8FFF7A3FF61
:10EA60002846044944F0020202AB009606F022FD5B
:10EA70007FBD00BF1F8302087FB5F02305460E4609
:10EA80001446009300211022A03302A8FFF78BFF49
:10EA90002846044944F0020202AB009606F00AFD43
:10EAA0007FBD00BF2B83020870B5F02388B00446F9
:10EAB0000E461546009300211022A03306A8FFF74A
:10EAC00072FF20461A4945F0200206AB009606F078
:10EAD000F1FCB4F90A204FF4967100924FF4A5733B
:10EAE000103A04A8FFF75FFF04F14000114901222A
:10EAF00004AB009406F0DEFCB4F90A204FF4B471C4
:10EB000000924FF4C373103A02A8FFF74CFF04F1D0
:10EB100020000949012202AB009406F0CBFC00233F
:10EB20002366FEF775FE0138606608B070BD00BF51
:10EB30003B830208488302084D830208B0F9042091
:10EB4000B0F90030D0184010704707B5B0F9003068
:10EB5000B0F90410B0F90620C918B0F90230491014
:10EB6000D218521001A8FFF71BFF019B00209AB298
:10EB700062F30F001B0C63F31F400EBD10B5048839
:10EB8000091901804188521842808288D31A8380F3
:10EB9000C288029BD31AC38010BD10B50488611AC5
:10EBA000018041888A1A428082889B188380029A59
:10EBB000C388D318C38010BDB0F90420B0F9003069
:10EBC000D01A7047F0B587B004AC051D064695E82D
:10EBD000030084E80300012100220B462046009236
:10EBE000FFF7DBFF204648F21041FEF730FA94E8C9
:10EBF0000300184B02AF1B6887E803002846B3F8F0
:10EC00009240FFF7D9FFBDF80A3004FB00F2013350
:10EC1000ADF80A3004F59674BDF80E304443013B5C
:10EC2000ADF80E30B388384603EB223203EB2434C0
:10EC3000BDF81430ADF80C40ADF8082024B21AB27B
:10EC40009442C8BFADF80C300021FEF700FA07B0BF
:10EC5000F0BD00BF0CA5002073B5051D00210446C2
:10EC60002846FEF7F4F90F4B1B68B3F8A260B3F81F
:10EC70009230F61A36B2002E12DB2846FFF79CFFC0
:10EC800086420DDAB4F90400074B04380093B4F956
:10EC90000610801946F20C324FF61E03FEF70BFAEF
:10ECA0007CBD00BF0CA500203C60060830B5051DEA
:10ECB00085B0044600212846FEF7C9F9384B80216B
:10ECC00000930420002348F21042FEF774FB354BFA
:10ECD000802100935B230193A0205B3B4BF2965273
:10ECE000FEF78BFB304B902100930420002348F269
:10ECF0001042FEF760FB2D4B90210093A0200023D3
:10ED00004BF29652FEF757FB294BA02100930420AB
:10ED1000002348F21042FEF74EFB264BA020009342
:10ED2000014600234BF29652FEF745FB224BB021E1
:10ED300000930420002348F21042FEF73CFB1F4BD7
:10ED4000B0210093A0204BF296520023FEF733FB34
:10ED50001B4BC02100930420002348F21042FEF711
:10ED60002AFB184BC0210093042301930133029323
:10ED7000033B03934BF29652023BA020FEF73DFB70
:10ED80002846FFF719FFB4F90610A0F5807000EBD4
:10ED9000D0704010183105B0BDE83040FEF7ACBE71
:10EDA0005283020864830208708302087A8302088F
:10EDB000828302088C83020899830208A9830208CF
:10EDC000BE830208D0830208F7B5061D0021054660
:10EDD0003046FEF73CF9514B802148F21042009337
:10EDE00004200023FEF7E7FAFEF772FE80210023DD
:10EDF00000904BF29652A020FEF7DDFA484B90218E
:10EE000048F21042009304200023FEF7D4FAFEF7E4
:10EE100063FE9021002300904BF29652A020FEF753
:10EE2000CAFA404BA02148F210420093042000236C
:10EE3000FEF7C1FAFEF754FE0090A0200023014621
:10EE40004BF29652FEF7B7FA374BB02148F2104218
:10EE5000009304200023FEF7AEFAFEF735FEB02142
:10EE600000234BF296520090A020FEF7A4FAFEF782
:10EE70003DFE2E4B0446009304200023C02148F29F
:10EE80001042FEF798FA2A4B2A4F9C4204D02A4B94
:10EE90009C4203D064B114E0284B00E0284B00935F
:10EEA000A020C0214BF296520023FEF784FA11E015
:10EEB000244BA0200093C0214BF296522346FEF72C
:10EEC0007AFAA020C0214BF29652002300970194B9
:10EED000FEF793FA1C4BD021009348F21042002316
:10EEE0000420FEF768FAFEF7FFFDD02101904BF2F7
:10EEF00096520023A0200097FEF77FFA3046FFF7D6
:10EF00005BFEB5F90610A0F5807000EBD0704010E4
:10EF1000183103B0BDE8F040FEF7EEBDDD83020816
:10EF2000EF830208FF8302080D8402081A84020896
:10EF3000766761003E840208279304022A8402084F
:10EF40002E8402083684020843840208B0F90620A1
:10EF5000B0F90230D01A70470388CB180380838839
:10EF6000C91843888180D3184380C388D218C280CF
:10EF700070470023038043808380C3807047B0F9CB
:10EF80000420B0F900309A42D4BF0020012070471D
:10EF90002DE9F04F00F126068BB004463046FFF70E
:10EFA000EEFF0546002847D108AF04F1040898E8B1
:10EFB000030087E8030001210A460B46384600910A
:10EFC000FFF7EBFD38464BF29651FDF783FF2946DC
:10EFD0004046FEF73CF848F21042ADF81650ADF846
:10EFE0001850ADF81A50ADF81C50ADF81420193572
:10EFF000B4F90400B4F90A3005AA281800920522D1
:10F000000192043B421CB4F906101935FDF78EFF3E
:10F01000FA2DEDD1E13DB4F9061005AB6918009366
:10F0200005230193B4F904004B1CB4F908201935E9
:10F03000FDF77CFFC82DEED1236A002B00F0A780DE
:10F04000251D2846FFF7B8FD80462846FFF77EFFBE
:10F05000B4F90AA0323803902046AAF1190A06F042
:10F0600055FA60B1216BA38C01FB08F198FBF3F218
:10F0700002EBD27291FBF3F303EB620301E06FF05A
:10F08000130330460293FFF77AFF18B9E084A4F81F
:10F090002A802BE0B4F90420B4F9263000259A42E6
:10F0A000A8BF1346E384B4F90820B4F92A3001213B
:10F0B0009A42B8BF134663852A460B4630460095F0
:10F0C000FFF75CFD30462946FDF7C1FF01213046C0
:10F0D0002A460B460095FFF760FDB4F90410B4F919
:10F0E0000620304649425242FFF736FF4FF00009F2
:10F0F000E58CCB4644E0A28C236A6A4392FBF8F28B
:10F1000033F81270B7F5805F03D322485D21FEF714
:10F1100093F9039AB4F92630574344BF07F57E6745
:10F120001F373F13B4F90420BFB29D4208BFBB464E
:10F13000AA184FF6FF730093501EC7EB0A03CBEBE0
:10F140000A01FEF7E1F9029B9D4208BFB94603336D
:10F150009D4212D1B4F904000F4B626B0638AAF13C
:10F16000040100934019C9EB0101082A14BF1622BB
:10F170001F224FF61E03FDF79EFF0135ADB2BB46C1
:10F18000B4F92A309D42B6DB3046FFF7F2FE0BB0F1
:10F19000BDE8F08F528402086A6A060813B5044677
:10F1A000B4F90220B0F90000B4F90630009111461C
:10F1B00000F10C02FEF73EF8B4F90000B4F90210B9
:10F1C000B4F90420B4F9063008304BF29654009498
:10F1D000FDF74EFE1CBD37B50446B4F90250B0F938
:10F1E0000000B4F90420B4F9063002380091294631
:10F1F000FEF720F8B4F90000B4F90210B4F90420C5
:10F20000B4F9063006304FF6FF740131013A013B84
:10F210000094FEF70FF83EBD07B50346B0F90000B5
:10F220000022B3F90210B3F90630009200F108028F
:10F23000FDF71EFE0EBD37B50446B0F90000B4F967
:10F240000210B4F90630002500F108020095FDF720
:10F250000FFEB4F90420B4F90210B4F90630101FFF
:10F260000095FDF705FE3EBD436A37B504460BB178
:10F270001B880384204606F049F9231D18B118465F
:10F28000FFF7D9FF02E01846FFF7C6FFA388204624
:10F290000433A38006F03AF90546218C201D5DB1A8
:10F2A000FFF799FFE369B3B1B4F90400B4F90610AC
:10F2B00000930C3000220AE0FFF770FFE36953B1BE
:10F2C000B4F90400B4F9061000930C302A464FF646
:10F2D0001E03FEF770F8A388043BA3803EBD000028
:10F2E000C36A2DE9F0431F795B79A7F10102574208
:10F2F00047EB020748F21048002F18BF4FF00008F4
:10F30000012B87B0044608D002D3022B0FD109E0AD
:10F310003A4B1B68B3F8443008E0384B1B68B3F82D
:10F32000583003E0354B1B68B3F8B63103862046EE
:10F33000FFF79AFFE36AB4F904909A79304BB4F975
:10F34000065053F8223009F10E0600933046294644
:10F3500042464FF61E03FEF72EF8002F4BD0E36A0D
:10F36000284A99799F6852F8214038460021103583
:10F3700015F012F868B1244B3046009342462946F6
:10F380004FF61E03FDF797FE07F100428619174658
:10F3900001E009F11406384614F074FA02460B46EF
:10F3A00002A81A49FDF726FD05E006AA02EB0903AB
:10F3B000002203F8112C02AF384615F033FB8146CA
:10F3C000204615F02FFB48440728EED83046294642
:10F3D00042464FF61E030097FEF70EF85CB1237805
:10F3E0004BB104363018294644F208224FF61E036A
:10F3F0000094FDF7E0FF07B0BDE8F0830CA5002006
:10F40000D088020800890208146A06087E8402086F
:10F41000F0B5C669002585B00446C561FFF724FF35
:10F42000E661231D02AE93E803002A4686E8030046
:10F430002B46304610210095FFF7A0FBE3692A46D2
:10F44000BDF90A100093BDF908004FF61E03FDF741
:10F45000B2FFBDF80A3020461033ADF80A3006F08E
:10F4600055F80246002837D0BDF808701E4B083FFB
:10F47000BFB2BDF90A102A46009338B24FF61E03F8
:10F48000ADF80870FDF717FE3818ADF80800E06A0F
:10F4900003685B699847BDF90A100746BDF9080083
:10F4A00001F10E033A180095FDF7E2FCE06A3146DF
:10F4B000036801221B699847BDF80830BDF90A109E
:10F4C000FF180A4B38B200932A464FF61E03ADF8D8
:10F4D0000870FDF7F0FD04E0E06A314603681B693F
:10F4E000984705B0F0BD00BFD0600608426106082D
:10F4F000F0B5044685B0FFF7B7FEB4F90450B4F98F
:10F500000670E369103500932846394600224FF60D
:10F510001E03FDF750FF204607F1100605F0F6FF29
:10F5200000282ED0234B31460022009328464FF668
:10F530001E03FDF7C0FD4519E06A1E3703685B69CD
:10F54000984732464319294602A80097FFF72BFA3D
:10F55000002102A8FDF77BFDE76A20463B681D6994
:10F5600005F0D4FF02A902463846A847124BBDF960
:10F570000C000093314600224FF61E03FDF79BFD61
:10F5800015E0E06A1E3703685B699847294643190E
:10F59000324602A80097FFF706FAE66A204633686B
:10F5A0001D6905F0B3FF02A902463046A84705B021
:10F5B000F0BD00BFD060060842610608FFF754BEE8
:10F5C00013B50446FFF750FE084BB4F9040000934E
:10F5D000E36AB4F9061003EB830301931C30103186
:10F5E00000224FF61E03FDF708FF1CBDB19C020868
:10F5F00013B50446FFF738FE084BB4F90400009336
:10F60000E36AB4F9061003EB830301931C30103155
:10F6100000224FF61E03FDF7F0FE1CBDB19C020850
:10F6200073B50546FFF720FEEB6AB5F90440B5F95E
:10F6300006601B690E340022009331464FF61E030C
:10F640002046FDF7B8FEEB6A31461A79114B0019D6
:10F6500053F82230002200934FF61E03FDF7ABFE55
:10F66000EB6A06F110011A79052A01D10A4A06E06F
:10F67000042A03D0094A00929B6802E0084A0092DB
:10F68000DB680193204600224FF61E03FDF7B5FE0E
:10F690007CBD00BF6889020882840208B19C020810
:10F6A00089840208C36AF7B51D79044648F21043FD
:10F6B000002D0CBF1D460025FFF7D6FDB4F90470E0
:10F6C000B4F906600C4B0E37009331462A46384693
:10F6D0004FF61E03FDF76FFEE36A38461A79074BB3
:10F6E00006F1100153F822302A4600934FF61E030C
:10F6F000FDF761FEFEBD00BF8D8402083C89020853
:10F700007FB50646FFF7B0FD0E4BF06A009314F08C
:10F7100051FC0D4914F056FD0C4914F097FB14F000
:10F72000B1F8B6F90450B6F906401C351034CDE9ED
:10F7300002010022284621464FF61E03FDF75DFE1A
:10F740007FBD00BF97840208000020410AD7233CF8
:10F75000C36A2DE9F0431F795B79A7F101014F429C
:10F7600047EB010748F21048002F18BF4FF0000880
:10F77000012B87B0044608D002D3022B0FD109E039
:10F780003A4B1B68B3F8443008E0384B1B68B3F8B9
:10F79000583003E0354B1B68B3F8B631038620467A
:10F7A000FFF762FDE36AB4F904909A79304BB4F93B
:10F7B000065053F8223009F10E06009330462946D0
:10F7C00042464FF61E03FDF7F6FD002F4BD0E36ACD
:10F7D000284A99799F6852F821403846002110350F
:10F7E00014F0DAFD68B1244B3046009342462946B6
:10F7F0004FF61E03FDF75FFC07F10042861917461E
:10F8000001E009F11406384614F03CF802460B46B4
:10F8100002A81A49FDF7EEFA05E006AA02EB090371
:10F82000002203F8112C02AF384615F0FBF8814690
:10F83000204615F0F7F848440728EED83046294608
:10F8400042464FF61E030097FDF7D6FD5CB12378C4
:10F850004BB104363018294644F208224FF61E03F5
:10F860000094FDF7A8FD07B0BDE8F0830CA50020CB
:10F87000D088020800890208146A06087E840208FB
:10F8800073B5B0F90420B0F906300E46B0F9021095
:10F8900004464FF4E045101F043104320433009550
:10F8A000FDF7C8FCB4F90630B4F90000B4F904203F
:10F8B000191F0430043204330095FDF7BBFCB4F982
:10F8C0000000B4F90210B4F9063000F10C02009601
:10F8D000FDF7B0FCB4F90000B4F90420B4F902104B
:10F8E000B4F906304BF296550830043A0095FDF70E
:10F8F000BFFAB4F90420B4F90210B4F90630A2F149
:10F9000008000095FDF796FC7CBD73B5B0F90420A6
:10F91000B0F906300E46B0F9021004464FF4E04547
:10F92000101F0431043204330095FDF783FCB4F951
:10F930000630B4F90000B4F90420191F0430043271
:10F9400004330095FDF776FCB4F90000B4F9021019
:10F95000B4F90420B4F906300096FDF76BFC7CBDC9
:10F9600030B5024685B00D460068516802AB0224EE
:10F9700003C302A80021FDF799FC2246234602A8F2
:10F9800021460094FFF7FAF802A82946FDF78EFCFD
:10F9900002A821460E2223460094FFF7EFF802A8A2
:10F9A0004BF29651FDF782FC05B030BD73B50446AD
:10F9B000051D218C2846FFF7D3FF2846FFF7BEF828
:10F9C000E5690646284615F02DF8B4F90610C0B2D0
:10F9D0008000301A023100224FF61E030095FDF719
:10F9E000EAFC7CBDF0B589B0031D054604AC93E884
:10F9F000030084E803001846298CFFF7B1FF204676
:10FA0000FFF79CF8EE690746304615F00BF8BDF994
:10FA10001210C0B2800002310022381A4FF61E03C5
:10FA20000096FDF7C8FC122104230A4600932046E5
:10FA30000B46FFF7A3F8686A14F0F4FF0746204668
:10FA4000FFF783F8ADF80800C0F30F40ADF80A00E7
:10FA5000029E20460796FFF778F8ADF80800C0F33D
:10FA60000F40ADF80A0002996B6AFF0036B2A6EBB0
:10FA700067060691091400933046073900224FF6B5
:10FA80001E03FDF798FC09B0F0BDF0B585B0031D6D
:10FA9000044602AD93E8030085E803001846218C74
:10FAA000FFF75EFF2846FFF749F8E669074630464C
:10FAB00014F0B8FFBDF90A10C0B280000231002274
:10FAC000381A4FF61E030096FDF775FC1221042329
:10FAD000009328460A460B46FFF750F8636ABDF9C3
:10FAE0000800BDF90A1000930430043100224FF6DB
:10FAF0001E03FDF760FC05B0F0BD4BF29651FDF71B
:10FB0000A6BA2DE9F041012104460026FDF7AEFA20
:10FB1000D02514E0EB10DA024FEAA50842EA4818B3
:10FB2000204648EA0308FFF747F8074602E0404648
:10FB3000FDF7A6FA013FFAD20D3DEDB2013620469F
:10FB4000FFF704FA8642E5DBBDE8F041FDF7B2BA03
:10FB500010B5044605F0DAFC231D20B91846BDE8AF
:10FB60001040FFF7CABF1846BDE81040FFF7C9BFF5
:10FB70002DE9FF47044605F0C9FC4FF6FF75002844
:10FB800008BF00252046FFF7E3FFE369B4F904004E
:10FB90002A46B4F90610009304304FF61E03FDF711
:10FBA0000AFC206A01210368B4F904805B68984765
:10FBB0008146206A0121036808F178071B6898478D
:10FBC000B9F1010F064607D1244BB4F90610009392
:10FBD00008F170002A460AE0B9F1000F0BD11F4B63
:10FBE000B4F90610009308F1700048F210424FF685
:10FBF0001E03FDF760FAD4F820A0231D93E803004C
:10FC00000DF10809DAF8003089E803002046D3F83E
:10FC10001080ADF80870ADF80C7005F077FC49461F
:10FC200002465046C047206A03685B699847012E28
:10FC3000384405D10A4BB4F9061000932A4606E071
:10FC40004EB9074BB4F90610009348F210424FF634
:10FC50001E03FDF730FABDE8FF8700BFC65D06084A
:10FC6000385E060837B5054605F050FC4FF6FF74C0
:10FC7000002808BF00242846FFF76AFFEB69B5F9A2
:10FC800004000093B5F90610043022464FF61E0317
:10FC9000FDF791FB3EBD13B50446FFF759FFE3693D
:10FCA000B4F904000093B4F90610043000224FF6B2
:10FCB0001E03FDF780FB1CBDF0B585B0044605F0C2
:10FCC00025FC4FF6FF75002808BF0025204605F0EB
:10FCD0001DFC90B102AB221D92E8030083E80300F3
:10FCE000BDF808201846083AADF80820BDF80C20E9
:10FCF0000832ADF80C20FFF704FF204605F006FCA3
:10FD000058B1174BB4F904000093B4F90610073842
:10FD10002A464FF61E03FDF7CEF9276A20463B68B8
:10FD20001E6905F0F3FB211D02463846B047206AE4
:10FD3000A78803685B6998470646204605F0E6FBFE
:10FD400058B1084B3FB2781C0093B4F906108019E3
:10FD50002A464FF61E03FDF7AEF905B0F0BD00BF11
:10FD6000C65D0608385E060838B54FF61F0399428F
:10FD700004460A4607D0056961698068E368281867
:10FD8000C918FDF75DF86269236912F0010F07D009
:10FD9000591E002921610BDA01322361626138BDED
:10FDA000A069591C8142216102DB01322361626139
:10FDB00038BD10B500231A46416811F8014B416067
:10FDC00004F07F019140073214F0800F43EA0103F1
:10FDD000F2D1184610BD38B54FF0FF3303600B78F1
:10FDE0000446472B0D461CD18B1C4360FFF7E1FFF7
:10FDF000A0612046FFF7DDFFE0616B78422B10D158
:10FE0000234604F1200061680A4612F8015B626033
:10FE100049780132626041EA05221A840233834242
:10FE2000F1D138BD03460068B0F1FF3F06D15A68F2
:10FE300012F8010B18605A60001170474FF0FF3242
:10FE400000F00F001A60704770B500240646254682
:10FE50003046FFF7E7FFC0B200F00703AB400335C1
:10FE600010F0080F44EA0304F2D1204670BD0000F0
:10FE70002DE9F8434FF0FF33036001330361436121
:10FE80008769C36904468160C260D0F804805F431B
:10FE900001262FE0AEB12046FFF7D6FF451C2046D5
:10FEA000FFF7C0FF0026814607E009F11003204656
:10FEB00034F81310FFF758FF0136AE42F5DB002689
:10FEC00012E02046FFF7AEFF451C0AE02046FFF790
:10FED000A9FF00F1100334F813102046FFF744FF88
:10FEE0000136AE42F2DB01267F1B03D504484821D0
:10FEF000FDF7A2FA002FCDDCC4F80480BDE8F8833A
:10FF00009D840208074A08481168084B30B5046808
:10FF1000074DCB1805FB0433013103605804116011
:10FF2000400C30BD58A4002018300020F39024006D
:10FF300021F17D0030B5264B89B0044605AD93E82C
:10FF400007000C3385E8070093E8070094F8203099
:10FF500002AD85E80700C3B1201D4FF6FF71FDF724
:10FF600076F8B4F90400B4F90A101A4B083000937B
:10FF700014394FF61E030022FDF71DFA002384F802
:10FF80002030059B6362029BA362FFF7BBFF032245
:10FF900090FBF2F202EB420208A9821A01EB820204
:10FFA0000346616A52F80C0C9B00401840106062D6
:10FFB00052F8181CA26A89184FF6FC72491003EA1D
:10FFC0000202A16209B0BDE83040FCF739BF00BFB2
:10FFD000B0810208B58402084162704773B50446D7
:10FFE00016460D4619B90C480D21FDF725FA0B4BA5
:10FFF00000211B682046B3F844300A462386E56298
:020000040801F1
:1000000002230096FEF781F9204604F1300102B088
:10001000BDE87040FFF7E0BFE28102080CA50020B8
:1000200073B5054616460C4619B90A480C21FDF76A
:1000300003FAEC62284634F8062F002102230096CA
:10004000FEF763F92846214602B0BDE87040FFF78D
:10005000C3BF00BF3B82020873B5044616460D4677
:1000600019B90C480D21FDF7E7F90B4B00211B686E
:100070002046B3F844300A462386E5620223009600
:10008000FEF743F9204604F1300102B0BDE87040AC
:10009000FFF7A2BF6A8202080CA500202DE9F041FB
:1000A0000C46154698460026A75B1FB94FF61F035E
:1000B000A3530DE0FA08294602F0FC02404605F081
:1000C00069F8FA0AA0530021D20005F063F8A053A2
:1000D0000236202EE8D1BDE8F08110B592B004467A
:1000E00005F014FA231D218C70B11846FFF70DFCA2
:1000F000616A21B302A8FFF76EFE20460AA94EF2FC
:1001000010424FF6FF730DE01846FFF7B9FB616A26
:10011000A9B102A8FFF75FFE20460AA94EF21C72A1
:100120004BF29653FFF7BAFF089BB4F90810B4F9E5
:100130000A20C91A099B02A8D21AFFF799FEE3699F
:10014000B4F904000093B4F906100C3000224FF605
:100150001E03FDF730F912B010BD416082600373D9
:100160007047000008B50379012B09D002D3022B98
:100170000FD10AE08368188800F01F00400808BD0E
:1001800083681888C0F3C31008BD83681888000B03
:1001900008BD03484FF48271FDF74EF9002008BDF9
:1001A000A882020830B54FF6FF7585B00C46002ACC
:1001B00008BF0025FFF7D6FF04F018FF00238DF8D5
:1001C0000D3003AB8DF80C000093B4F90000B4F9C6
:1001D00002102A464FF61E03FDF70EF905B030BD9A
:1001E000002908B50CDDFFF7BDFF0E288CBF0020ED
:1001F000012008BDFFF7B6FF003818BF012008BD79
:10020000F8DB002008BD00000379012B12D002D3D7
:10021000022B2CD11DE08268138823F01F031B04DE
:100220001B0C0F2902D04900C9B200E01F2141EA8E
:1002300003031AE08268138823F4FC631B041B0C7D
:100240000F2902D08900C9B200E03F2143EA4113DF
:100250000BE0826813885B055B0D0F2902D0490013
:10026000C9B200E01F2143EAC1231380704702484E
:100270004FF48E71FDF7E0B8A882020810B504466D
:10028000FFF770FF30B1411EC9B22046BDE81040F3
:10029000FFF7BABF10BD10B50446FFF763FF0E2885
:1002A00006D8411CC9B22046BDE81040FFF7ACBFDC
:1002B00010BDC8684042704710B5044605F02CFADE
:1002C000014B2046236010BD587A0208014B0360A1
:1002D000704700BFA07A020810B50446FFF7F6FF8A
:1002E000014B2046236010BD787A020810B5044601
:1002F000FFF7ECFF014B2046236010BD407E020853
:1003000010B5044605F008FA014B2046236010BDE5
:10031000E87A020810B50446FFF7F2FF014B2046C9
:10032000236010BDC87A020810B50446FFF7E8FF45
:10033000014B2046236010BD0080020810B5044622
:1003400005F0F4FA2046BDE8104005F0CDBAFFF7FD
:10035000F5BFFFF7F3BF000038B50D4B1B68D3F8AE
:10036000C040002C11DDD3F8B400013013F022FEA0
:100370000146084813F026FF0546204613F01AFEF2
:100380000146284613F01EFF38BD002038BD00BFCF
:100390000CA5002000BA5B4A37B50446FEF764FF9F
:1003A0002046FFF7D9FF14F01FF813F003FE0821D1
:1003B000B4F90450B4F9064004F06EFE1C35103454
:1003C00000902146284600224FF61E03FDF714F840
:1003D0003EBD000038B5104B084610491C6813F0AC
:1003E0003DFE0546D4F8C00013F0E4FD0146284662
:1003F00013F034FE01460A4813F0E4FE13F0F4FF54
:10040000D4F8B43001380128B8BF0120C4F8B400D2
:10041000C01A18BF012038BD0CA500200000A04163
:100420004054894C2DE9F04711F0010904460D466E
:1004300003D111F0020F00F0CE802046FFF78CFFB1
:1004400000210646012713F0BBFF00B9002717F073
:10045000FF0F03D162482321FCF7EEFF30466149CC
:1004600013F0A4FFE8B930465F4913F09FFFD8B9F5
:1004700030465E4913F09AFFC0B930465C4913F02C
:1004800095FFA8B930465B4913F090FF90B930460C
:10049000594913F08BFF78B93046584913F086FF5D
:1004A00060B94FF07E570AE0554F08E04D4F06E027
:1004B0004D4F04E04D4F02E04D4F00E04D4FB9F17C
:1004C000000F11D03046394613F084FF28B1304672
:1004D000394613F0B9FC804600E0B04640460021A2
:1004E00013F064FF10B903E0B04601E04FF07E580E
:1004F00015F0020F10D04046424913F04DFF20B1D5
:100500004046394613F0A2FC80464046002113F0D5
:100510004DFF08B14FF07E583946404613F052FE69
:1005200013F062FF13F046FD394613F097FD4FF0CC
:100530007E51074613F030FF08B14FF07E57384622
:10054000314613F01FFF002843D139462046FFF7FC
:1005500041FF80462046FFF7FFFE3146824638467F
:1005600013F038FF38B15046314613F01FFF002812
:1005700018BF4FF000083846314613F00DFF20B188
:100580005046314613F01CFF10B9B8F1000F16D1D8
:100590001D4BB9F1000F07D01B68D3F8B400B0F5BC
:1005A000803F0CDA013005E01B68D3F8B400012865
:1005B00005DD0138C3F8B40080B2FDF7ADF920467F
:1005C00004F0B4FF2046E16846F67512002304F0FB
:1005D000B4FF20462946BDE8F047FDF74FBC00BFF9
:1005E000C28402080000C84200007A4400401C4651
:1005F0000050C347002474498096184B20BCBE4C61
:10060000000020418096984B0CA5002010B5054CA9
:100610002368586AFBF774FF2368986ABDE81040A6
:10062000FBF775BF0CA5002010B5054C89002368A9
:100630005962FFF7EBFF2068BDE8104003F06EBC85
:100640000CA5002010B5074C890023689962FFF7BC
:10065000DDFF6420FBF710FF2068BDE8104003F0C9
:100660005DBC00BF0CA500202DE9FF41044604F04D
:100670004DFF4BF29655B4F90A204FF6FF73002850
:1006800018BF1D46B4F90410B4F90830101F083B18
:100690000C3A0090123102A8FEF785F902A844F244
:1006A0000821FCF7D4FC02210A460B4602A800915F
:1006B000FEF764FA02A8FEF77FFA23688046DB693A
:1006C00020469847236807469B6A20469847236838
:1006D00006465B6A20469847A8F1100807FB08F712
:1006E000361ABDF8083097FBF6F7FF18BFB2ADF821
:1006F000087002A810372946ADF80C70FCF7A7FC6B
:10070000BDE8FF81036870B5DB690E460446984773
:1007100016F0010F05460DD0236820465B6A984706
:10072000854207DD236820461B6A691E98472046DC
:10073000FFF79AFF16F0020F0DD0236820469B6A40
:100740009847854207DA236820461B6A691C984748
:100750002046FFF789FF20463146BDE87040FDF78F
:100760008DBB10B50446FEF77FFD2046BDE8104066
:10077000FFF77ABF014B18682C3070470CA500209A
:1007800008B5FFF7F7FF0368013B036008BD08B534
:10079000FFF7F0FF03680133036008BD38B5044676
:1007A0000D46FFF7E7FF006863682D189D4205DBE3
:1007B000A0688542CCBF0020012038BD002038BD94
:1007C000416082607047000010B5FFF7D3FF0068FA
:1007D00038B100B204F0D6FB0349044613F02CFFF5
:1007E00000E0024C204610BDF8840208F2840208A2
:1007F00008B5FFF7E9FF14F015F9C3004FF6F870DC
:1008000003EA000008BD73B54FF6FF740E88002A96
:1008100008BF0024B1F90250FFF7D6FF2946009027
:10082000224630464FF61E03FCF7C5FD7CBD2DE980
:10083000F04100F1300405460F46164620460021DF
:100840000F22DDF81880FFF7BBFF284621463A4605
:100850003346CDF81880BDE8F041FDF78FBD0000AC
:100860007FB50E46F0233C210446154600930A4608
:10087000283302A8FEF797F820462A4602AB104913
:10088000009604F017FE04F1200002230D4948F2FF
:1008900010420094FDF76FFD04F14C0002230A4959
:1008A00048F210420094FDF766FD04F17800074914
:1008B00048F2104202230094FFF7B9FF7FBD00BF4A
:1008C000FE8402080F8502081985020820850208A7
:1008D0000A4B73B51A6800F1300405460E462046EF
:1008E000083201230649FFF738FC28462146054A0D
:1008F00048F210430096FDF741FD7CBD0CA5002099
:10090000F48902083385020807B5009111461A469A
:1009100048F21043FDF732FD0EBD41607047000004
:100920007FB51546F023282204460E4600933C214D
:100930009B1802A8FEF737F82A4602AB214D204645
:100940002149009604F0B6FD04F120002146FFF78E
:10095000BFFF296804F1600630460C31FFF7DDFF68
:10096000324604F168002146184BFFF7CDFF296895
:1009700004F1980630461031FFF7CFFF324604F1FC
:10098000A0002146124BFFF7BFFF296804F1D006F3
:1009900030461431FFF7C1FF324604F1D80021463A
:1009A0000C4BFFF7B1FF296804F584763046183107
:1009B000FFF7B3FF04F5887021463246064BFFF778
:1009C000A3FF7FBD0CA500204085020854850208C6
:1009D00062850208728502087C850208436810B5AA
:1009E0001C68002C06DB08F03BFF0C2303FB04040F
:1009F000606810BD024BE44353F8240010BD00BFF3
:100A0000FC89020808B5FFF7E9FF14F00BF8C300F2
:100A10004FF6F87003EA000008BD73B54FF6FF7497
:100A20000E88002A08BF0024B1F90250FFF7D6FF54
:100A300029460090224630464FF61E03FCF7BBFCC9
:100A40007CBD000038B50C46154608F009FF002CA7
:100A500002DB08D1002D06DA114B2D1915F1050F17
:100A6000B8BF1D461AE0002D4FF00C030ADD651CCF
:100A700003FB040402E00C3483B10135237B022B19
:100A8000F9D10AE0651E03FB040403E014F80C3DF1
:100A900023B1013DB5F1FF3FF8D1014D284638BDE6
:100AA00019FCFFFF10B544684FF0FF322168FFF7D3
:100AB000C9FF206010BD10B5446801222168FFF70E
:100AC000C1FF206010BD000008B543680A461968E0
:100AD000FFF7B8FF024BC01A18BF012008BD00BFC6
:100AE00019FCFFFF10B5044604F016FE014B20462A
:100AF000236010BD107A020810B50446FFF7F2FF1C
:100B0000014B2046236010BDD87F020810B5044673
:100B1000FFF7DCFB014B2046236010BD208002085C
:100B200010B50446FFF7ECFB014B2046236010BDD7
:100B30006880020870B50546FFF7E2FB064B2C46BD
:100B400044F8203B05F1B00620462434FFF7E8FFC7
:100B5000B442F9D1284670BD4880020810B5044659
:100B6000FFF7B4FB014B2046236010BD88800208CC
:100B700010B50446FFF7A0FB214B204640F8243B6C
:100B8000FFF7D2FB04F14400FFF7CEFB04F1640051
:100B9000FFF7CAFB04F18400FFF7C6FB04F1A400D1
:100BA000FFF7B4FF04F1B000FFF7B0FF04F1BC00A1
:100BB000FFF7ACFF04F1C800FFF7A8FF04F1D40071
:100BC000FFF7B8FF04F5C270FFF7A0FF04F5C87087
:100BD000FFF79CFF04F5CE70FFF798FF04F5D47083
:100BE000FFF794FF04F5DA70FFF7A4FF04F519701E
:100BF000FFF7B4FF04F51B70FFF78CFB204610BD18
:100C00004098020810B50446FFF77AFB014B2046D6
:100C1000236010BDB080020810B50446FFF74CFBFE
:100C20002D4B204640F8643BFFF7ECFF04F18400B5
:100C3000FFF7E8FF04F1A400FFF7E4FF04F1C400AC
:100C4000FFF772FB04F1E400FFF76EFB04F582701E
:100C5000FFF76AFB04F59270FFF766FB04F5A270DC
:100C6000FFF762FB04F5B270FFF75EFB04F5C2709C
:100C7000FFF732FB04F5CA70FFF74CFB04F5DC709C
:100C8000FFF72AFB04F5E470FFF744FB04F5F67068
:100C9000FFF764FF04F5FA70FFF73CFB04F50670FC
:100CA000FFF75CFF04F50870FFF734FB04F51170E3
:100CB000FFF72CFF04F51470FFF728FF04F51770F9
:100CC000FFF724FF04F51A70FFF720FF04F51D70ED
:100CD000FFF730FF204610BD6097020810B50446AC
:100CE00004F01AFD114B204640F8203BFFF704FFAB
:100CF00004F15000FFF7F6FE04F17C00FFF7F2FE6E
:100D000004F1A800FFF7EEFE04F1D400FFF7EAFEBD
:100D100004F58070FFF7E6FE04F59670FFF728FFF4
:100D200004F57170FFF778FF204610BD989802080F
:100D300010B5044604F0F0FC054B20462360012367
:100D400084F8283000232362002384F8293010BD62
:100D500090B0020870B504460D46164604F0DCFC5F
:100D6000024B256223606662204670BD50A00208D7
:100D700070B504460D46164604F0CEFC024B2562C3
:100D800023606662204670BD30A0020870B504463C
:100D90000D46164604F0C0FC034BED00F600236040
:100DA00025626662204670BD10A0020810B52021A1
:100DB00032220446FFF7CEFF014B2046236010BDD0
:100DC00068790208202110B50A460446FFF7C2FFE1
:100DD000014B2046236010BD8879020810B5202100
:100DE00007220446FFF7C4FF014B2046236010BDD5
:100DF000A879020810B5202110220446FFF7C6FF8B
:100E0000014B2046236010BDC879020870B54389A4
:100E100086B0A3F11802153BADF81220ADF81630DC
:100E20000546066EFCF7F4FC4FF4C8746643B6FB47
:100E3000F0F06D6EADF81000FCF7EAFC013565438B
:100E4000BDF81030B5FBF0F5ADF814501AB22DB264
:100E5000AD1A012D07DC0233ADF814301BB2A342EA
:100E6000C8BFADF8144004AC20464FF6FF71FCF744
:100E7000EEF8BDF8102013B2002B0EDD02AB94E8A3
:100E8000030083E80300ADF80C201846002244F26A
:100E90000821ADF80820FCF7DAF8BDF8142013B2E9
:100EA000B3F5C87F0FDA02AB04A903C983E80300D6
:100EB000ADF8082018464FF4C87244F20821ADF886
:100EC0000C20FCF7C4F8FCF7CDFC0446FCF7A0FCB2
:100ED0004FF4C8735C43BDF91210BDF916301F22E0
:100EE000B4FBF0F0009201310246013BFCF70CFB31
:100EF00006B070BD10B5044604F00EFC044B20464D
:100F00002360012384F82030013B636210BD00BFE1
:100F1000787F020804F00ABB47F269418A4201D196
:100F2000FFF7F8BF44F644418A4205D001318A42B6
:100F300002D1012280F82020704710B50446FBF74B
:100F400087FA40F22D1360602381204610BD03888C
:100F500013B940F22D13038109880180704738B519
:100F600004460D46FBF774FA62682389821A9A4296
:100F700015D923889BB12B80238940F22D129342EF
:100F8000606002D14FF4967307E0B3F5967F01D10C
:100F9000642302E00A2B04D90A3B238138BD0023D5
:100FA0002B8038BD10B5044604F0B6FB014B20463B
:100FB000236010BD0895020810B5044604F0ACFB90
:100FC000014B2046236010BD4879020810B5044645
:100FD000FFF788FD014B2046236010BDE879020829
:100FE00010B50446FFF768F9114B204640F8283B3E
:100FF000FFF772F904F13800FFF76EF904F14800C9
:10100000FFF76AF904F15800FFF766F904F1680088
:10101000FFF780F904F18C00FFF77CF904F1B000D0
:10102000FFF778F904F1D400FFF774F9204610BDFA
:10103000387A020870B5054604F06EFB084B2C4662
:1010400044F8203B05F5AC7620463434FFF7BEFF6C
:10105000B442F9D12046FFF7C3FF284670BD00BF58
:10106000D09C020810B50446FFF73CFD014B20461A
:10107000236010BD607B020810B50446FFF7F2FF45
:10108000014B2046236010BD287B020810B50446A2
:10109000FFF7E8FF014B2046236010BD987B020854
:1010A00010B50446FFF71EFD014B2046236010BD1E
:1010B000F87B020810B50446FFF708F9014B2046FB
:1010C000236010BD207C020810B50446FFF7E8FF3E
:1010D000034B204640F8303BFFF7ECFF204610BDA5
:1010E000D07B020810B5044604F016FB094B2046DD
:1010F00040F8203BFFF7C0FF04F14C00FFF7C6FFAC
:1011000004F17800FFF7E0FF04F1B400FFF7EAFC18
:10111000204610BD087B020810B50446FFF7C0FF4B
:10112000034B204640F8303BFFF7D6F8204610BD71
:10113000687C020810B50446FFF7C8F8014B20464A
:10114000236010BD907C020810B50446FFF7A8FF8D
:10115000014B2046236010BDB87C020810B5044640
:1011600004F0DAFA134B204640F8203BFFF7D4FF97
:1011700004F16000FFF7DEFF04F16800FFF7E4FF11
:1011800004F19800FFF7D6FF04F1A000FFF7DCFFA1
:1011900004F1D000FFF7CEFF04F1D800FFF7D4FF31
:1011A00004F58470FFF7C6FF04F58870FFF7CCFFE5
:1011B000204610BD487C020810B50446FFF792FC9B
:1011C000014B2046236010BDE07C020810B50446A8
:1011D00004F0A2FA194B204640F8203BFFF77CF8B8
:1011E00004F13000FFF778F804F14000FFF774F8DD
:1011F00004F15000FFF770F804F16000FFF76CF89D
:1012000004F17000FFF768F804F18000FFF7D4FFE5
:1012100004F1B000FFF7D0FF04F1E000FFF7CCFFCE
:1012200004F58870FFF7C8FF04F5A070FFF7C4FF4E
:1012300004F5B870FFF7C0FF204610BDD09F02082C
:1012400010B50446FFF74EFC014B2046236010BD4D
:10125000087D020810B5044604F05EFA114B2046E2
:1012600040F8203BFFF7ECFF04F14C00FFF7E8FFEC
:1012700004F17800FFF7E4FF04F1A400FFF7E0FFBA
:1012800004F1D000FFF7DCFF04F1FC00FFF7D8FF0A
:1012900004F59470FFF790FF04F5AC70FFF71CF8AD
:1012A000204610BDA8AF020810B50446FFF7F8FEAF
:1012B000034B204640F8303BFFF70EF8204610BDA8
:1012C000307D020810B50446FFF70CFC014B2046A8
:1012D000236010BD587D020810B50446FFF702FCDC
:1012E000014B2046236010BD807D020810B50446E6
:1012F000FFF7F8FB014B2046236010BDA87D0208D4
:1013000010B5044604F008FA094B204640F8203B8B
:10131000FFF7CAFF04F16000FFF7D4FF04F18C006F
:10132000FFF7DAFF04F1BC00FFF7E0FF204610BD35
:1013300070AA020870B5054604F0EEF9064B2C467B
:1013400044F8203B05F1FC0620462C34FFF7CAFB8D
:10135000B442F9D1284670BD50AB020810B504461E
:1013600004F0DAF90D4B204640F8203BFFF7BAFBBA
:1013700004F14C00FFF7B6FB04F17800FFF7B2FB75
:1013800004F1A400FFF7AEFB04F1D000FFF7AAFBC5
:1013900004F1FC00FFF7A6FB204610BDC0AA02081E
:1013A00010B50446FFF79EFB014B2046236010BD9D
:1013B000D07D020810B50446FFF794FB014B204690
:1013C000236010BDF87D020810B50446FEF774FFD7
:1013D0000D4B204640F8283BFEF77EFF04F1380015
:1013E000FEF798FF04F15C00FEF780FF04F16C004B
:1013F000FEF790FF04F19000FEF778FF04F1A000E3
:10140000FEF788FF204610BD207E020810B5044676
:10141000FEF75CFF014B2046236010BD887E02086A
:1014200010B50446FEF752FF014B2046236010BD65
:10143000B07E020810B50446FEF73EFF154B20466D
:1014400040F8283BFFF7E2FF04F13000FFF7E8FF28
:1014500004F13C00FFF7E4FF04F14800FFF7E0FF70
:1014600004F15400FEF756FF04F17800FEF752FF36
:1014700004F19C00FEF74EFF04F1C000FEF74AFFA6
:1014800004F1E400FEF728FF04F1F400FEF742FF48
:10149000204610BD687E020810B5044604F03CF9F1
:1014A0000D4B204640F8203BFFF77AFF04F1500037
:1014B000FFF776FF04F18000FFF772FF04F1B00040
:1014C000FFF778FF04F1E000FFF77EFF04F5D2702C
:1014D000FFF7B0FF204610BD809F020810B50446FC
:1014E00004F01AF9014B2046236010BDD87E020893
:1014F00010B5044604F010F9014B2046236010BDDE
:10150000F87E020810B5044604F006F9014B2046A7
:10151000236010BD187F020810B5044604F0FCF8E3
:10152000014B2046236010BD587F020810B50446C9
:1015300004F0F2F8014B2046236010BD987F0208AA
:1015400010B5044604F0E8F8014B2046236010BDB6
:10155000B87F020810B50446FFF7C4FA014B2046D5
:10156000236010BDD080020810B50446FEF7A4FE2B
:10157000114B204640F8283BFEF7AEFE04F1380040
:10158000FEF7AAFE04F14800FEF7A6FE04F158009B
:10159000FEF7A2FE04F16800FEF7BCFE04F18C0029
:1015A000FEF7B8FE04F1B000FEF7B4FE04F1D4007B
:1015B000FEF7B0FE204610BDF880020870B5054663
:1015C00004F0AAF8084B2C4644F8203B05F5AC760D
:1015D00020463434FFF7BEFFB442F9D12046FFF76E
:1015E000C3FF284670BD00BFE0B0020810B5044636
:1015F00004F092F8014B2046236010BD48A1020878
:1016000010B5044604F088F8014B2046236010BD55
:101610001881020810B5044604F07EF8134B2046EA
:1016200040F8203BFFF7ECFF04F14800FFF7E8FF2C
:1016300004F17000FFF7E4FF04F19800FFF7E0FF0A
:1016400004F1C000FFF7DCFF04F1E800FFF7D8FF6A
:1016500004F58870FFF7D4FF04F59C70FFF7D0FF06
:1016600004F5B070FFF7CCFF204610BDB895020816
:1016700010B5044604F050F8014B2046236010BD1D
:101680003881020810B5044604F046F8014B2046A4
:10169000236010BD7881020810B5044604F03CF8C0
:1016A000054B204640F8303BFFF7ECFF04F15000BB
:1016B000FFF7E8FF204610BD5881020810B5044628
:1016C00004F02AF8014B2046236010BDD0AE02087A
:1016D00010B5044604F020F8054B204640F8203BA6
:1016E000FFF7D0FF04F14000FFF7CCFF204610BD0C
:1016F0009881020838B5044604F00EF85A4B20468B
:1017000040F8203BFFF74EFC04F1440001F082FB5F
:1017100004F53370FFF750FC04F54270FFF746FB09
:1017200004F54C70FFF74EFB04F55670FFF756FBBF
:1017300004F56070FFF75EFB04F56B7006F0E0FCEB
:1017400004F51A601C300BF005F904F546600C3006
:10175000FFF770FC04F56A601C30FFF7C3FC04F56A
:1017600078601C30FFF7FAFC04F586501C30FFF758
:101770002DFD04F592503C30FFF76CFD04F59E50B2
:101780002830FFF7BDFD04F5A6501430FFF7D2FD59
:1017900004F5AE501030FFF7E1FD04F5B6503830D7
:1017A000FFF77AFE04F5CC5004F5CE553430FFF740
:1017B00095FE05F11400FFF79BFE05F1340004F5DA
:1017C000D055FFF79FFE05F11400FFF7A5FE05F1C8
:1017D0003400FFF78FFB04F5D350FFF7A7FE04F5A5
:1017E000D450FFF7ADFE04F5D550FFF777FA04F5B6
:1017F00006507830FFF79CFA04F508502430FFF7C4
:10180000DDFE04F51050743009F04AFF04F516505F
:1018100004F51A5560300EF043F9281DFFF7E6FE77
:1018200005F1240004F52055FFF7F4FE05F12C0026
:10183000FFF71EFF05F1540004F52255FFF72CFFBA
:1018400005F144000BF0FFFD05F1700004F528558B
:101850000CF027FA05F14C00FFF730FF05F170009E
:10186000FFF736FF204638BDC08E020810B504468B
:10187000FFF740FF04F52A50643002F0E5FA04F562
:101880003E505430FFF759FB204610BD10B5064CB2
:10189000236813F0010F04D10448FFF7E7FF012389
:1018A0002360024810BD00BF7474002078740020CB
:1018B000F8B5046805460E461046214612F0C4FAF3
:1018C0000746B6F90200B6F90060801B12F072FB01
:1018D0000146384612F0C2FB21460746686812F0FE
:1018E000B3FA0146384612F06DFC0446304612F059
:1018F00061FB0146204612F0A9FA12F075FDF8BD11
:101900000A4600F10801FFF7D3BF0000094B10B5EC
:10191000C06A1C6812F04EFB074912F053FC04F534
:101920009C6401462046FFF7EBFF80B2BDE8104003
:10193000FBF7E8BF0CA500200000204111F0010FCB
:1019400070B504460D4609D0C36A032B06DD013B82
:10195000C36203F0EBFD2046FFF7D8FF15F0020F3E
:101960000AD0E36A182B07DC01332046E36203F058
:10197000DDFD2046FFF7CAFF20462946BDE870403E
:10198000FCF77CBA70B50523002408E0E5186D105B
:1019900030F91560B242B8BF2B46A8BF2C461D1BBC
:1019A000012DF3DC30F9145051F8244051F8231084
:1019B000521B091B4A4330F91300451B92FBF5F0FB
:1019C000001970BDB0F9003010B50C684968D21A22
:1019D000091B4A43B0F90200C31A92FBF3F0001945
:1019E00010BD00002DE9F8438F7930257D43B1F912
:1019F0000A90064605F118014019144671184A4626
:101A00000C30FFF7BFFF804660607019011D4A4629
:101A1000FFF7D8FF044BA06053F8273090FBF8F095
:101A2000E0602360BDE8F883307F0208F0B5314DF7
:101A300087B0044600210430FBF709FB2B68C82659
:101A4000B3F8A030B4F90A1073432B4A0539A1EB5F
:101A5000132100924FF61E03B4F9040046F20C3233
:101A6000FBF729FB296891F85430E3B101F5587070
:101A700002AA5031FFF7B6FF2F6802A907F5587088
:101A8000FEF717FC80B24643B4F90A101B4B053928
:101A9000B7F85820B4F904000093A1EB16214FF6D3
:101AA0001E03FBF708FB296891F8403003B301F5EA
:101AB000F07002AA3C31FFF795FF0E4B02A91D689A
:101AC00005F5F070FEF7F5FBC82100B24843B4F904
