:020000040800F2
:10C0000000000120C5340508D9320508DB320508D7
:10C01000DD320508DF320508E132050800000000C6
:10C02000000000000000000000000000E5320508EC
:10C03000E332050800000000E7320508E932050890
:10C04000EB320508ED320508EF320508F13205083C
:10C05000F3320508F5320508F7320508F93205080C
:10C06000FB320508FD320508FF32050801330508DB
:10C0700003330508053305080733050809330508A8
:10C080000B3305080D3305080F3305081133050878
:10C0900015330508193305081B3305081D3305083A
:10C0A0001F33050821330508233305082533050808
:10C0B00027330508293305083D3405083F340508B2
:10C0C000413405084334050845340508473405085C
:10C0D000493405084B340508593405085B34050814
:10C0E0005D3405085F3405086134050863340508CC
:10C0F0006534050867340508693405086B3405089C
:10C100006D3405086F34050871340508733405086B
:10C110007534050877340508793405087B3405083B
:10C120007D3405087F34050881340508833405080B
:10C1300044534F5F4150503A204761626F6E6174C3
:10C140006F72277320616C7465726E6174697665B5
:10C150002055493B416C7465722055493B476162EB
:10C160007269656C2056616C6B7920323031333BDB
:01C1700000CE
:020000040804EE
:10C0000020B10368197003680133036070472DE99C
:10C01000F041161E04460D4614DD002200E00132F8
:10C02000A95C0029FBD1B24203F00208B4BFC2EB05
:10C0300006060E46B8F1000F0CBF4FF020084FF077
:10C04000300801E04FF0200813F0010709D105E0A6
:10C0500020464146FFF7D4FF0137013E002EF7DCB2
:10C0600005E0002703E02046FFF7CAFF013715F877
:10C07000011B0029F7D105E020464146FFF7C0FF2C
:10C080000137013E002EF7DC3846BDE8F0812DE98E
:10C09000FF410A9F05460B9EDDF830C08E4651B920
:10C0A00030238DF804308DF805103A4601A9334647
:10C0B000FFF7ADFF3CE03BB10A2A07D1002905DAC2
:10C0C000C1F1000E012402E01C4600E0002404A996
:10C0D000002301F8013D0EE0BEFBF2F302FB13EE7C
:10C0E000BEF1090FC4BFACF13A0086440EF1300E28
:10C0F00001F801ED9E468846BEF1000FECD184B1F7
:10C100004FB116F0020F06D028462D21FFF778FF19
:10C11000013F012405E02D2301F1FF3801F8013C26
:10C120000024284641463A463346FFF770FF00197F
:10C1300004B0BDE8F0812DE9F0478AB006460D460F
:10C1400005920024DBE0252B40F0D38015F8013F59
:10C15000002B00F0D880252B00F0CB802D2B02D1B6
:10C1600001352C3B03E0002301E043F002032946A4
:10C1700015F8012B302AF8D0002702E00A2202FB32
:10C1800007070A780D46A2F130005FFA80FC013102
:10C19000BCF1090FF2D9732A09D1059A3046111D55
:10C1A000059111685C4A002908BF11469DE0642A88
:10C1B0000ED1059A01936123111D029300970591F9
:10C1C00030461168603B0A22FFF761FF241895E0B2
:10C1D000662A54D1059B073323F0070303F10802B5
:10C1E000D3E9000105921AF023FC002180461AF0E1
:10C1F0001BFF38B12D238DF8183008F100480DF1E0
:10C20000190A01E00DF1180A40461AF035FF012322
:10C2100000E013460A225A439042FADA90FBF3F206
:10C2200002F1300103FB12000A2293FBF2F30AF839
:10C23000011B002BF2D124328AF80020002F08BF06
:10C240000327994640461AF017FF1AF0FBFC0146F7
:10C2500040461AF041FC31491AF048FD80461AF078
:10C260000BFF09F101093030B9450AF8010FE9DB8C
:10C2700000228AF80120304606A9202336E0782AD9
:10C280000AD1059A01936123111D0097029305912C
:10C2900030461168102219E0582A0BD1059A0193F3
:10C2A0004123111D02930097059130461168413BCF
:10C2B000102289E7752A0BD1059A01936123111D7C
:10C2C000009702930591304611680A22613B7BE793
:10C2D000632A13D1059A3046111D126805918DF815
:10C2E000242000228DF8252009A93A46FFF78FFE69
:10C2F0006CE730462978FFF783FE013401352B784F
:10C30000002B7FF420AF16B1336800221A7020464C
:10C310000AB0BDE8F08700BF50A506080000204124
:10C32000014BD86C80B2704700240140014B186863
:10C33000704700BF3CA6002001461420B7F786BF17
:10C34000034B18801A8892B2002AFBD1704700BFB5
:10C3500048A60020044B10B5196804460320B7F71F
:10C3600075FF024B1C8010BD003000204AA6002043
:10C3700030B5002308E00A24B0FBF4F104FB1100FF
:10C380003030D054013388B2084A0028F3D1D05459
:10C390005910013BD31804E0145C5D7815545C70AF
:10C3A0000130013B8842F7DB004830BD903200206D
:10C3B00008B506200021B7F74DFF5A234343A3F5E4
:10C3C0008223A3F56B6340F2145093FBF0F00A3024
:10C3D0006428A8BF642020EAE07008BD0128ACBF33
:10C3E000014601210220B7F731BF00EBD070024BAC
:10C3F00040101860704700BF00300020052806D8A4
:10C40000034B53F8200010B1043006F013BF7047FF
:10C4100060960608052898BF094B10B59ABF03EB34
:10C4200080008369002303F548721846054953F8D4
:10C43000044B8C4202D09342F7D1002010BD00BFC4
:10C440006096060844534F5FC0B2B7F7FFBE47F28D
:10C450006623984201D1B7F7EDBEC0B2B7F7FABE76
:10C4600043680A6823F4702323F4807313430A7922
:10C4700010B543EA022343608A68CB6884681A4394
:10C48000094B04EA030342EA03034A7943EA4203FD
:10C4900083600B7CC26A013B22F47002DBB242EA89
:10C4A0000353C36210BD00BFFDF7F1FF002303601B
:10C4B000037143718360C36001330374704719B122
:10C4C000836843F0010302E0836823F00103836083
:10C4D000704719B1836843F4807302E0836823F4E2
:10C4E000807383607047C9B212B14368194302E098
:10C4F000436823EA010141607047836843F0080301
:10C50000836070478068C0F3C0007047836843F061
:10C510000403836070478068C0F38000704719B1DE
:10C52000836843F4A00302E0836823F4A0038360DC
:10C5300070478068C0F3805070474368013923F426
:10C54000604343EA41334360704719B1436843F4A1
:10C55000006302E0436823F40063436070470929E5
:10C5600070B54FEA41040BD964181E3C0725A5405D
:10C57000A340C66826EA050545EA0304C4600AE04C
:10C5800064180725A54013FA04F4066926EA050590
:10C5900045EA04030361062A0CD8013A02EB820241
:10C5A0001F2393409140446B24EA030343EA0102B2
:10C5B000426370BD0C2A4FEA82030BD89A18233AC3
:10C5C0001F2393409140046B24EA030343EA0102D2
:10C5D000026370BD9A18413A1F2393409140C46A88
:10C5E00024EA030343EA0102C26270BD19B1836801
:10C5F00043F4801302E0836823F480138360704760
:10C60000C06C80B27047014B186870474C240140E1
:10C6100019B1436843F4806302E0436823F4806304
:10C620004360704719B1436843F4805302E04368A4
:10C6300023F4805343607047836823F4E04341EA66
:10C6400003038360704719B1836843F4004302E039
:10C65000836823F400438360704719B1836843F40F
:10C66000021302E0836823F402138360704780683A
:10C67000C0F340507047092970B54FEA41040BD907
:10C6800064181E3C0725A540A340C66826EA050598
:10C6900045EA0304C4600AE064180725A54013FABC
:10C6A00004F4066926EA050545EA04030361836B81
:10C6B00003F440146FEA145412190332D2B202EB9D
:10C6C00082021F249440914023EA04030B438363B6
:10C6D00070BD836B013923F4401343EA0153836334
:10C6E000704782B00A5002B0704782B00190283083
:10C6F000405880B202B07047436823F4400323F4EB
:10C70000007341EA030343607047416282627047ED
:10C71000436823F01F0341EA030343607047054B5E
:10C7200018B19A6842F4000202E09A6822F400020A
:10C730009A60704700240140036819420CBF002032
:10C7400001207047C943016070474368006810EAE0
:10C75000112004D0C9B219420CBF0020012070473B
:10C760006FEA112101607047044B11B1DA68104380
:10C7700002E0DA6822EA0000D86070470010024048
:10C7800007B5124B019098420DD0114B984212D030
:10C79000104B984219D14FF400700121FFF7E4FFCC
:10C7A0004FF400700EE04FF480600121FFF7DCFFD2
:10C7B0004FF4806006E04FF400400121FFF7D4FF02
:10C7C0004FF400400021FFF7CFFF0EBD00280140CD
:10C7D000003C014000240140044B11B15A69104350
:10C7E00002E05A6922EA00005861704700100240D6
:10C7F000044B11B19A69104302E09A6922EA0000E1
:10C80000986170470010024008B50120FFF787FFCC
:10C8100010210A4801220523FFF7A1FE0120FFF79E
:10C820008FFD06480121FFF77AFE02210348FFF73A
:10C8300083FF0128F9D1FFF773FD08BD00240140F3
:10C8400008B50120FFF76BFF11210A4801220523DB
:10C85000FFF785FE0120FFF773FD06480121FFF772
:10C860005EFE02210348FFF767FF0128F9D1FFF7B9
:10C8700057FD08BD00240140024B0E2202FB003090
:10C88000704700BF90960608034B18801A8892B232
:10C89000002AFBD1704700BF48A60020044A4FF48D
:10C8A000805313604FF0C0421080024A13607047FB
:10C8B000141401401014014010B5EF20FFF7EEFFF3
:10C8C0004FF0C0431A881C8818881A881988C3B288
:10C8D000C9B241EA046141EA0343120643EA124243
:10C8E000014B9A6010BD00BF90320020054B4FF401
:10C8F00080521A604FF0C0431880034802601980CC
:10C90000704700BF14140140101401402DE9F0419C
:10C91000E9204FF0C044FFF7C1FF20222280112000
:10C92000FFF7BCFF6420FFF7AFFFD120FFF7B6FF92
:10C93000002517225E232580D02023802280FFF748
:10C94000ADFF0C2607232380362023804FF04008BC
:10C950002680FFF7A3FF3046A4F800804936FFF792
:10C960009DFF26803A20FFF799FF2680C120FFF720
:10C9700095FF533E10232380C020238026802680ED
:10C98000FFF78CFF012735232580C52023802580D4
:10C99000258027802680FFF781FF2780D220FFF7A0
:10C9A0007DFF22232780C8202380FFF777FF732293
:10C9B000372327802280238004220F232580238091
:10C9C000268022806722A4F8008022802580802291
:10C9D0002680238008232380292022802580FFF7BA
:10C9E0005DFF2C20BDE8F04158E7002008B5014666
:10C9F000FFF77CFF00200146FFF778FF002001468B
:10CA0000FFF774FF00200146FFF770FF0A20FFF7D1
:10CA10003BFF01214FF4C060FFF768FF0A20FFF7DA
:10CA200033FF40214FF4DE60FFF760FF0A20FFF77D
:10CA30002BFF4FF480604FF4C441FFF757FF0820ED
:10CA400040F60801FFF752FF01204FF48071FFF715
:10CA50004DFF02204FF48071FFF748FF0320302183
:10CA6000FFF744FF09200121FFF740FF0C200021C0
:10CA7000FFF73CFF90204FF40041FFF737FF0F20F6
:10CA80000021FFF733FF10201621FFF72FFF1120A1
:10CA900040F20111FFF72AFF12200021FFF726FFC5
:10CAA00013200121FFF722FF4FF480704FF44C71E7
:10CAB000FFF71CFF40F2011040F23721FFF716FF8D
:10CAC00040F203104FF47061FFF710FF4FF4207035
:10CAD0004FF4D641FFF70AFF4CF2B0114FF48170CA
:10CAE000FFF704FF6420FFF7CFFE4FF440704FF4D0
:10CAF0004061FFF7FBFE40F2013045F60B21FFF7E6
:10CB0000F5FE40F2023040F60611FFF7EFFE40F26C
:10CB1000033041F21701FFF7E9FE4FF441704FF483
:10CB20000C51FFF7E3FE40F205304FF4B851FFF728
:10CB3000DDFE40F2063046F20931FFF7D7FE40F243
:10CB4000073040F60941FFF7D1FE4FF4427041F241
:10CB50000C01FFF7CBFE40F2093042F23221FFF721
:10CB6000C5FE4FF404700021FFF7C0FE40F2112013
:10CB7000EF21FFF7BBFE40F212200021FFF7B6FEC7
:10CB800040F2132040F28F11FFF7B0FE4FF4A06087
:10CB90000021FFF7ABFE40F201500021FFF7A6FE97
:10CBA00040F202500521FFF7A1FE40F201400121B1
:10CBB000FFF79CFE002140F20440FFF797FE64203F
:10CBC000FFF762FE4FF480710720FFF78FFE6420AD
:10CBD000FFF75AFE4FF400700021FFF787FE002197
:10CBE00040F20120FFF782FE054A4FF480531360A4
:10CBF00040F202214FF0C0421180024A136008BD8A
:10CC0000141401401014014070B5104C4FF48053BF
:10CC10004FF40065236001202560FFF735FE0C4BC3
:10CC20000A201D60FFF730FE32202560FFF72CFE42
:10CC3000FFF742FE074B9A68074B9A4202D1BDE8C4
:10CC4000704063E6BDE87040CFE600BF10140140BD
:10CC50001414014090320020279304020B4B10B5AE
:10CC60009A680B4B4FF0C0449A4209D12E20FFF72F
:10CC700015FE238824882C20A4B2FFF70FFE02E0C3
:10CC800023882488A4B2204610BD00BF9032002023
:10CC9000279304020EB403B503AA52F8041B0190B3
:10CCA00001A80092FFF747FABDE80C4003B07047B7
:10CCB000AAE713B502AC24F8020D00200146B7F72D
:10CCC000A5FA20464BF68031B7F7AEFAB7F7A8FAC7
:10CCD00020464BF68031B7F7A7FAB7F7A1FA1CBD8B
:10CCE000C1F1EF0110B580B289B21446B7F78EFAE0
:10CCF0002046BDE81040B7F78BBAC1F1EF0110B57F
:10CD000080B289B2B7F782FABDE81040B7F7ACBA83
:10CD100038B5151A5C1A6C434BF67F35AC4280B2BD
:10CD200002F1FF35C3F1F0020FD9C1F1EF0392B266
:10CD3000A9B29BB26508B7F771FA04A8A9B2B7F710
:10CD400073FA641BB7F76CFA06E0C1F1EF0392B215
:10CD5000A9B29BB2B7F762FA04A8A1B2B7F764FA16
:10CD6000B7F75EFA002040F28F110246EF23B7F7C3
:10CD700055FA38BD37B50D46B0F9021004464B1CC4
:10CD8000B0F90000B4F904200095FFF7C1FFB4F931
:10CD90000630B4F90000591EB4F904200095FFF7DD
:10CDA000B7FFB4F90000B4F90210421CB4F9063020
:10CDB0000095FFF7ADFFB4F90420B4F90210B4F9FF
:10CDC0000630501E0095FFF7A3FF3EBD2DE9F14F41
:10CDD0000A9C1E460B9B88461746511E04EB4309CE
:10CDE000C6F1F002C8F1EF03054689B280B292B2F3
:10CDF0009BB2B7F713FAA2460CE03AF8020BB7F76A
:10CE000007FACA4508BFA2460BF1010BBB45F4DB8C
:10CE100008F10108B04501DAAB46F7E7002040F21F
:10CE20008F110246EF2301B0BDE8F04FB7F7F6B916
:10CE30002DE9F843B0F80080044689461FFA88F7C8
:10CE4000002614E0B4F9065009E0C5F1EF013846B8
:10CE500089B2B7F7DBF9FFF701FF29F8020BB4F944
:10CE60000230013D9D42F0DA01370136BFB20FFAC0
:10CE700088F2B4F90430B2189A42E3DBBDE8F883D3
:10CE80002DE9F047C28843880D468188C2F1F0023F
:10CE90000139C3F1EF03044689B2008892B29BB214
:10CEA000B7F7BCF90026B4F8028010E0B4F800909F
:10CEB000002703E035F8020BB7F7AAF90FFA89F259
:10CEC000B4F90430BA1801379A42F3DB01360FFA8D
:10CED00088F2B4F90630B2189A42E7DB002040F23B
:10CEE0008F110246EF23BDE8F047B7F797B913B5A6
:10CEF0000346B3F90240B3F90420B0F90000B3F9D6
:10CF0000063000912146FFF703FF1CBD0268034B6A
:10CF1000DA6042681A6102685A61704790320020F4
:10CF200010B50B4C0246B4F91610B4F91400FFF713
:10CF3000D7FEA38AB4F910200133A3821BB29A4210
:10CF400004DCA389A382E38A0133E38210BD00BF1E
:10CF50009032002070472DE9F74F99460C9B0191C4
:10CF6000924613F801BB054600241DE018F8013B6A
:10CF7000FBB113F0040F4FF61E0305D09A450AD0FB
:10CF800028463146524604E0994504D028463146A9
:10CF90004A46FFF7A5FE013701365F454346E5DB0C
:10CFA00001340135502C03D0019E98460027F4E748
:10CFB00008242046BDE8FE8F2DE9F0411E460F46AD
:10CFC000B6B2C7F1F00714460546B7F72FF9B91BFB
:10CFD000A8B289B2B7F71AF920463146B7F722F955
:10CFE000BDE8F041B7F71CB930F0030309D131F0C7
:10CFF000030208D140EA81000449091891F8300E73
:10D000007047002070471846704700BF60960608BA
:10D010002DE9F04F85B004469A469DF839009DF8F9
:10D0200038300D4616469DF83AB0029003932746D5
:10D0300045E0C5EB0A01701E0139C01B3B1BC8EB64
:10D0400001019842A8BF18464145A8BF4146FFF7D5
:10D05000CBFF68BBC9F1EF0189B2B8B2B7F7D6F818
:10D06000B7F702F91A4BC10001F0FF01C208000A2C
:10D0700000EA0303C1EB0B000190DDF808C0039840
:10D0800002F0FC02C2EB0C0EC3EB000C03EB6C03D2
:10D09000DDF804C0DB1001EB6C00C01040EAC323D4
:10D0A00002EB6E00801043EA401080B2B7F7B0F890
:10D0B00009F1010908F10108D145BADB0137B7428E
:10D0C00003DAA9464FF00008F6E705B0BDE8F08F97
:10D0D000F8FF07002DE9F74F06468A4615461C461D
:10D0E000BDF830B088462DE00AF10303984509D118
:10D0F000E71E414630462A463B46CDF800B0FFF7D2
:10D1000007FEB846B146002718E0A81B0138611E8B
:10D11000C01BC8EB0101CAEB0803B842A8BF3846E0
:10D120009942A8BF1946FFF75FFF20B9484641461C
:10D130005A46FFF7D5FD09F101090137A945E4DB9E
:10D1400008F10108A045CFDBBDE8FE8F13B503460B
:10D15000B3F90240B3F90420B0F90000B3F9063086
:10D1600000912146FFF7B6FF1CBD2DE9F74F019056
:10D170009DF830001F460D469246FFF77DFB4FF6A7
:10D180001E039F4283461DD100241BF80480019F8B
:10D190006FEA08085FFA88F8082618F0800F04D0B4
:10D1A000384661195246FFF79BFD013EF6B2013742
:10D1B00026B14FEA48085FFA88F8EEE701340E2CF2
:10D1C000E3D145E09A451FD100241BF80490DDF817
:10D1D00004806FEA09095FFA89F9082619F0800FBF
:10D1E00004D1404661193A46FFF77AFD013EF6B296
:10D1F00008F1010826B14FEA49095FFA89F9EDE71C
:10D2000001340E2CE1D123E000241BF80490019E90
:10D210006FEA09095FFA89F94FF0080819F0800FE1
:10D2200008F1FF38304614BF52463A4629465FFAA5
:10D2300088F8FFF755FD0136B8F1000F04D04FEA2A
:10D2400049095FFA89F9E9E7013401350E2CDCD18F
:10D250000820BDE8FE8F2DE9F7430A9F05460E46DC
:10D2600091469846AFB1387818B913E00A2B02D12D
:10D2700010362C4607E00093204631464A46434686
:10D28000FFF773FF241817F8013B002BEED1601B4A
:10D2900000E03846BDE8FE83DDE72DE9F043A5B0A8
:10D2A00015462CAA0E4652F8041B07460DF1080835
:10D2B00023A899462292CDF88C80FEF73CFF314698
:10D2C00004462A4638464B46CDF80080FFF7E4FF77
:10D2D000204625B0BDE8F08337B5124B05460C4615
:10D2E000009330211F2328204FF6FF72FFF7D4FF51
:10D2F00020211F234FF6FF7228200095FFF7CCFF57
:10D30000A0B2FFF735F8102100904FF6FF722820E9
:10D310001F23FFF7C1FF4FF47A7003B0BDE8304020
:10D32000FFF70EB857A5060808B502480421FFF715
:10D33000D3FFFEE769A506080FB430B5A5B028AA4B
:10D3400052F8041B02AC23A823942292FEF7F3FEAA
:10D3500023941EE00A2B134C03D0A569B5F5C47FB6
:10D3600009DBE26900230E32E02AA361E2610DDDF0
:10D370000C4AD3610AE000932846E1694FF6FF7238
:10D380004FF43043FFF7F1FE4019A061239B0133B6
:10D390002393239B1B78002BDCD125B0BDE83040C4
:10D3A00004B07047903200202DE9F74FC0EB020B1C
:10D3B0005F1A1FFA8BFBBFB20FFA8BFA0FFA87F8CE
:10D3C0004FEADB3BFF0BBDF83090BAF1000FD4BF42
:10D3D000CBF1000BCBF1010BB8F1000FD4BF7F42B2
:10D3E000C7F10107BAF1000FB8BFCAF1000AB8F1DE
:10D3F000000FB8BFC8F100084FEA4A0A4FEA4808D0
:10D4000000921FFA8AFA1FFA88F84A4601930446E6
:10D410000D460FFA8AF6FFF763FC0FFA88F39E4277
:10D4200020DB1FFA88F8A8EB6606B6B216E016F401
:10D43000004F09D11EB94FFA8BF3002B04DD7BB2EC
:10D44000CAEB0606ED18B6B24FFA8BF3E418464461
:10D45000204629464A46B6B2FFF742FC009B9C4252
:10D46000E5D11EE01FFA8AFAAAEB6306B6B215E010
:10D4700016F4004F09D116B97BB2002B05DD4FFA27
:10D480008BF3C8EB0606E418B6B27BB2ED1856442F
:10D49000204629464A46B6B2FFF722FC019B9D4230
:10D4A000E6D1BDE8FE8F0020FFF7E6B908B5002100
:10D4B0000420B6F7CFFEC3439BB2C3F3802013F41E
:10D4C000006F1CBF40F0020080B213F4805F18BFF1
:10D4D00040F4807013F0080F18BF40F0040013F4FC
:10D4E000004F18BF40F0080013F0400F18BF40F481
:10D4F000007013F4804F18BF40F0100013F4005F69
:10D5000018BF40F0200013F4807F18BF40F04000A7
:10D5100013F4007F18BF40F0800008BD07B50B2052
:10D520000021B6F797FE40B9074B303000931E211B
:10D530001F224FF6FF73FFF78EFE1420002103B069
:10D540005DF804EBB6F782BE8FA50608024B0146D4
:10D5500018712420B6F77ABE00300020014B1879EC
:10D56000704700BF0030002070B50CE09C1804EB41
:10D57000D474641050F8246025468E4201D2621C97
:10D5800001E004D9631E9342F0DA4FF0FF352846DC
:10D5900070BD2DE9F84F204C07460E4615469846BB
:10D5A0000022152304F564600C99FFF7DDFFB0F14C
:10D5B000FF3F9DF82890BDF82CA083462AD00C9AF6
:10D5C000164B05209A600021B6F740FE0920394627
:10D5D000B6F73CFE0A203146B6F738FE0020294651
:10D5E000B6F734FE0B204146B6F730FE0C20494614
:10D5F000B6F72CFE04EB4B0401205146B6F726FE8D
:10D600000720B4F8981EB6F721FE0820B4F8C41E0F
:10D61000B6F71CFEBDE8F88F6096060800300020C3
:10D6200008B503200021B6F715FEC0B208BDB6F755
:10D6300001BE08B506200121B6F708FEFEF776FE0A
:10D64000014B186208BD00BF903200202DE9F04167
:10D6500006460C462220314615461F46B6F7F6FD13
:10D6600021202146B6F7F2FD202047EAC501BDE89A
:10D67000F041B6F7EBBDB0F5805F70B503DD0A4849
:10D68000CA21FFF729FE094C04F580452668FFF7FB
:10D69000CEFF06F07F4620F07F4040EA060644F8C1
:10D6A000046BAC42F2D170BDA8A50608B4320020CC
:10D6B0004FF480507047B0F5805F10B5044603D337
:10D6C0000348DB21FFF708FE024800EB840010BD91
:10D6D000A8A50608B432002010B500210220B6F734
:10D6E000B9FD00210120B6F7B5FD002100F00104CD
:10D6F0000320B6F7AFFD10F0010F18BF44F002048D
:10D70000204610BD08B5FEF711FE0B4B1B6AC01A70
:10D7100019F098FA094919F09DFB094B996819F01D
:10D7200099FB084919F0E2FA19F0A6FCB0F5805F00
:10D73000A8BF4FF4805008BD9032002000007A440A
:10D74000003000200000F041034670B510200C4668
:10D7500019461546B6F77AFD11202146B6F776FD33
:10D7600012202946BDE87040B6F770BD094B10B5D0
:10D770001A68094C22F001021A60084A146043F248
:10D78000B0521A60064A116090601A6842F00102B5
:10D790001A6010BD44040240087400404C0402406A
:10D7A00048040240034B0121A3F83C0D03F55260ED
:10D7B0001C30DBE77865002001460D20B6F746BD3A
:10D7C00000487047B672002008B503460273002077
:10D7D000012A587305D11A4609480833B6F756FD91
:10D7E00006E0022A09D11A4605480833B6F74CFD6F
:10D7F000D0F1010038BF002008BD012008BD00BFE6
:10D80000B672002008B5034608461946B6F740FD33
:10D81000D0F1010038BF002008BD10B5044608460D
:10D820002146B6F737FD20B9637B013001336373BE
:10D8300010BD002010BD10B5037B0446022B10D193
:10D84000B1F1FF3F08BF417B224608BF49020748AC
:10D8500004F10803B6F720FD28B903232373013030
:10D8600010BD012010BD002010BD00BFB672002009
:10D87000024B034A93FBF0F31381704700A24A0462
:10D880000038014005E0054A118811F0800FFAD0F8
:10D89000938010F8013B002BF5D170470038014010
:10D8A0000F4B10489A6942F480429A610E4A40F246
:10D8B0007123138142F22C039381138823F4A46310
:10D8C00023F005031B041B0C1380084B5A6822F439
:10D8D0007F6242F40A625A604FF480621A61D1E7B3
:10D8E00000100240D2A5060800380140000801409F
:10D8F00010B54FF4FA70FEF723FDFFF7D9F9FFF7E3
:10D900000DFEBDE81040CBE705F0C6BC034B1A88FE
:10D9100012F0800FFAD09880704700BF00380140A5
:10D920000E200021B6F796BC0D200021B6F792BC60
:10D930000F200021B6F78EBC10200021B6F78ABC5C
:10D94000B6F77CBC014B9868704700BF903200204E
:10D950002DE9F0433F3189B0234B804687B28CB22A
:10D96000ADF1020213F8010C1978C0108910C00241
:10D97000490141185878043301EBD00122F8021F05
:10D980001A498B42EED11A4E3D4616F8013B08AAC1
:10D990001B0902EB430328460135214633F8202CAE
:10D9A000ADB208F1FF09FFF79BF94D4502DD013CDF
:10D9B000A4B23D4616F8013C08AA03F00F0302EB9F
:10D9C000430328460135214633F8202CADB2FFF73A
:10D9D00087F94D4502DD013CA4B23D46054B9E4210
:10D9E000D3D109B0BDE8F08337D8030877D803084E
:10D9F00076D8030876F803080020704700207047A7
:10DA00000020704700207047704700BF0368002B5C
:10DA100002DA0023036070478B42C8BF0160704781
:10DA2000014B1860704700BFB87400207047014B6D
:10DA300018687047B874002037B5FEF777FC294C9A
:10DA40002368B3F1FF3F08BF20602368C51AB5F50E
:10DA50007A7F0ED94FF47A72B5FBF2F502FB0533EB
:10DA600020490B6005F04AF800F52E50C36DED1803
:10DA7000C565FFF71BFDADF8060000B9A08005F0F5
:10DA80003DF800F542500DF106013C3004F01EFA5D
:10DA900005F034F800F542503C300DF1060104F079
:10DAA0001DFABDF80630ABB105F028F80221BDF82B
:10DAB000062009F0E5F9BDF80620A3889A4206D0B1
:10DAC000094B1B681B7A13B93220FEF743FCBDF8E3
:10DAD0000630A38005F012F80321002209F0D0F9E6
:10DAE00001203EBD103000205CA6002010B5FFF7DD
:10DAF000FFFE05F003F808F0F6FE04F0FFFF012139
:10DB0000002209F0BDF914F099FC14F051FC14F056
:10DB10009FFABDE81040FFF78CBD00BF08B5036851
:10DB200049421B6849B2984708BD0000014B18687C
:10DB3000704700BF10B9060870470120704743685E
:10DB4000826819688A181A60704743688268196881
:10DB50008A1A1A6070470820704783681B78CB18B0
:10DB600005D4027B9342CCBF0020012070470020E7
:10DB7000704783681A7801321A70704783681A7880
:10DB8000013A1A7070478368197070478368187873
:10DB9000704702207047182070470220704700200D
:10DBA000704700207047082070470000034B1B6837
:10DBB000586A0028B8BF0330801070475CA6002068
:10DBC0000020704719207047034B1B68986A002893
:10DBD000B8BF0330801070475CA60020002070475B
:10DBE0001920704770477047436882681B68CB18DC
:10DBF000934205DBC0688342CCBF00200120704700
:10DC00000020704743681A6801321A607047436801
:10DC10001A68013A1A60704702484FF48871FFF79A
:10DC20005BBB00BF30B3060808B5034840F20F11D4
:10DC3000FFF752FB002008BD30B3060802484FF43E
:10DC40008771FFF749BB00BF30B30608024840F2B6
:10DC50000D11FFF741BB00BF30B3060802484FF477
:10DC60008671FFF739BB00BF30B3060808B503481B
:10DC70004FF48571FFF730FB022008BD30B3060872
:10DC800039B9042A05D146F26742934201D108F01E
:10DC9000F1B9704739B9042A05D146F26742934277
:10DCA00001D108F0E7B9704739B9042A05D146F225
:10DCB0006742934201D108F0DDB97047C36A70B57D
:10DCC00004460D461BB90B484221FFF705FB15F032
:10DCD000100F08D0E168E36A204646F66352BDE8BB
:10DCE000704008F0CEB920462946BDE8704008F0E3
:10DCF0003EBA00BF4AB3060811F0100F70B50546D2
:10DD00000C4605D0C16846F66F52002308F0B9F9F9
:10DD100028462146BDE8704008F029BA11F0010FED
:10DD200070B504460D4615D0C06A012103685B68D2
:10DD3000984701280ED1E06A00210368DB68984704
:10DD4000204608F097F92046E16847F27052002318
:10DD500008F097F915F0020F15D0E06A0121036869
:10DD60001B68984701280ED1E06A002103689B6870
:10DD70009847204608F07EF92046E16847F2705245
:10DD8000002308F07EF915F0100F0ED0E06A03684A
:10DD9000DB699847084B1B68984206D02046E1682B
:10DDA00046F66542E36A08F06CF920462946BDE86C
:10DDB0007040FFF7A1BF00BF10B9060811F0010FB6
:10DDC00070B504460D460DD0C36A002B0ADD013B39
:10DDD000C36208F04FF92046E16846F67512002349
:10DDE00008F04FF915F0020F0ED0E36A132B0BDC8D
:10DDF0000133E362204608F03DF92046E16846F62B
:10DE00007512002308F03DF920462946BDE8704010
:10DE1000FFF772BF11F0010F70B504460D460DD02B
:10DE2000C36A012B0ADD013BC36208F023F92046D7
:10DE3000E16846F67512002308F023F915F0020F89
:10DE40000ED0E36A1D2B0BDC0133E362204608F0A1
:10DE500011F92046E16846F67512002308F011F921
:10DE600020462946BDE87040FFF746BF11F0200F5D
:10DE700070B505460C4606D0C06846F27852014699
:10DE8000002308F0FEF828462146BDE8704008F05F
:10DE90006EB9000011F0010F70B504460D4615D0A3
:10DEA000006A012103685B68984701280ED1206A47
:10DEB00000210368DB689847204608F0DBF820461D
:10DEC000E16847F27052002308F0DBF815F0020F0A
:10DED00015D0206A012103681B68984701280ED1DC
:10DEE000206A002103689B689847204608F0C2F822
:10DEF0002046E16847F27052002308F0C2F815F09E
:10DF0000100F0ED0206A0368DB699847084B1B6826
:10DF1000984206D02046E16846F66542236A08F03A
:10DF2000B0F820462946BDE87040FFF79FBF00BF0C
:10DF300010B9060811F0010F70B504460D4615D052
:10DF4000C06A012103685B68984701280ED1E06A26
:10DF500000210368DB689847204608F08BF82046CC
:10DF6000E16846F67512002308F08BF815F0020FF1
:10DF700015D0E06A012103681B68984701280ED17B
:10DF8000E06A002103689B689847204608F072F811
:10DF90002046E16846F67512002308F072F8204624
:10DFA0002946BDE8704008F0E2B80000C36A70B5C9
:10DFB00004460D461BB91A482A21FFF78DF915F0C2
:10DFC000100F08D0E168E36A204646F66352BDE8C8
:10DFD000704008F056B8E36A1A79043AD2B2012ABE
:10DFE00017D815F0010F08D0DA6812F1FE0F04DB24
:10DFF000013ADA60204608F03DF815F0020F08D02B
:10E00000E36ADA68FE2A04DC0132DA60204608F0AE
:10E0100031F820462946BDE8704008F0A8B800BF96
:10E0200075B30608C36A70B504460D461BB91D4892
:10E030002221FFF751F915F0100F08D0E168E36ACB
:10E04000204646F66352BDE8704008F01AB815F055
:10E05000010F0ED0E36A1A795AB1013A1A712046BB
:10E0600008F008F82046E16846F67512E36A08F001
:10E0700008F815F0020F0FD0E36A1A790B2A0BD8B3
:10E0800001321A71204607F0F5FF2046E16846F696
:10E090007512E36A07F0F5FF20462946BDE8704097
:10E0A00008F065B8A3B3060830B502840025012244
:10E0B000456280F82820BDE8304007F09FBF00008F
:10E0C0007FB5043302AC05460E4693E8030084E8AE
:10E0D0000300BDF80E30284604339BB2ADF80A3079
:10E0E0000733ADF80E30044942F002022346009691
:10E0F00007F084FF7FBD00BFD2B306087FB50433AD
:10E1000002AC05460E4693E8030084E80300BDF820
:10E110000E30284602339BB2ADF80A300733ADF813
:10E120000E30044942F002022346009607F066FFD3
:10E130007FBD00BFDEB3060830B5049D0284012216
:10E140004562BDE8304007F059BF2DE9FF410A9E06
:10E150000D4600214162028480F8283004464FF0C9
:10E160001108304608FB03F807F000FF5FFA88F853
:10E1700002AF68B1304607F0F9FE043003C887E803
:10E180000300BDF80E3002339BB2ADF80A3006E052
:10E19000331D93E8030087E80300BDF80A30984474
:10E1A00020462946012202ABADF80E80009607F00A
:10E1B00025FFBDE8FF81FFF7C8BF00002DE9F04152
:10E1C000DDF81880044615461F460E4621B908485A
:10E1D0004FF40371FFF780F8204629463A460223A0
:10E1E000E662CDF81880BDE8F041FFF7AEBF00BF92
:10E1F00030B30608DBB2FFF7A8BFFFF7A6BF10B524
:10E200000A24C462BDE81040FFF79FBF10B50A247E
:10E21000C462BDE81040FFF798BFFFF796BF00004B
:10E2200073B5044616460D4619B907480C21FFF789
:10E2300053F8E5622046002146F20C320223009694
:10E24000FFF783FF7CBD00BF75B3060810B505243A
:10E25000C462BDE81040FFF778BF13B503469C6861
:10E260005B682478088853F82430B1F902100093D1
:10E270004FF6FF73002A14BF1A4600224FF61E0302
:10E28000FEF7E9FF1CBD00002DE9F341274DB0F971
:10E2900006402B68B0F90460B3F84C20244B2146AB
:10E2A000009330460023FEF7D6FF2B68214F93F8EA
:10E2B0004A30214657F82330801900934FF6FF72F9
:10E2C0000023FEF7C8FF2B6806F16408B3F860204E
:10E2D000194B2146009340460023FEF7BCFF2B68F4
:10E2E000214693F85E30404457F823304FF6FF72D2
:10E2F00000930023FEF7AFFF104BC8360093214672
:10E30000002330464BF29652FEF7A5FF2B6880198A
:10E3100093F898200A4B214653F822304FF6FF72AB
:10E3200000930023FEF797FFBDE8FC815CA6002068
:10E33000D3EF060814BA0608B9F00608EAB30608CF
:10E340007CBA060813B504300021FEF7D0FD2D4B32
:10E35000402100930420002348F21042FEF77BFF87
:10E36000294B50210093294C0023042048F21042ED
:10E37000FEF771FF60210023082044F20822009478
:10E38000FEF769FF224B702100930420002348F21E
:10E390001042FEF760FF1F4B8021009304200023F2
:10E3A00048F21042FEF757FF1B4B902100930420C8
:10E3B000002348F21042FEF74EFFB0210023082050
:10E3C00044F208220094FEF746FF144BC02100934C
:10E3D000042048F210420023FEF73DFF104BD021ED
:10E3E00000930420002348F21042FEF734FF0D4B47
:10E3F00004200093E02148F210420023FEF72BFF97
:10E400001CBD00BFEEB30608FFB306080CB4060837
:10E4100035B406084CB4060868B4060879B4060892
:10E420008CB40608A4B40608F7B50E88154B083E50
:10E430004FF6FF75002A08BF0025B6B20C46074606
:10E44000B1F902102A46009330464FF61E03FEF73C
:10E4500082FD7B683618B6B2B4F9021000933046DC
:10E460002B464FF61E02FEF7F6FE074B30180093C0
:10E47000B4F902102A464FF61E0380B2FEF76BFD78
:10E48000FEBD00BF220507089405070873B50446C2
:10E4900007F0E0FDA688144B083E4FF6FF750028F4
:10E4A00008BF0025B6B2B4F9061000932A463046DC
:10E4B0004FF61E03FEF74FFDE3693618B6B2B4F906
:10E4C0000610009330462B464FF61E02FEF7C3FEA1
:10E4D000064B30180093B4F906102A464FF61E0377
:10E4E00080B2FEF738FD7CBD2205070894050708B9
:10E4F00013B504464FF6FF710430FEF7F8FCB4F98B
:10E500000400B4F90A10054B0830009314390022B6
:10E510004FF61E03FEF79FFE1CBD00BFB1B40608F8
:10E5200008B583681A78436853F8220019F0C2F8D6
:10E53000C3004FF6F87003EA000008BD7FB54368DA
:10E5400004460D46164623B912484FF42F71FEF7C4
:10E55000C3FE63681A68A36892FBF3F20A2392FB76
:10E56000F3F103FB11220023ADF80C30303204AB81
:10E5700003F8042D4FF6FF720093B5F90000B5F9CA
:10E580000210002E08BF00224FF61E03FEF784FE85
:10E590007FBD00BF30B3060870B50E4615461C4659
:10E5A00007F0DDFC2A46014623463046BDE87040B0
:10E5B00007F067BD11F0130F70B505460C4607D084
:10E5C00007F0CDFC022201462346284607F059FDFC
:10E5D00028462146BDE8704007F0C9BD11F0010F83
:10E5E0002DE9F04104460D4616D0006A012103686A
:10E5F0005B68984780B1206A00210368DB68984710
:10E60000204607F0ACFC07F035FDE06847F2705299
:10E61000C168002307F035FD15F0020F16D0206AFF
:10E62000012103681B68984780B1206A00210368B4
:10E630009B689847204607F092FC07F01BFDE068B6
:10E6400047F27052C168002307F01BFD15F00C0F54
:10E650000FD00C4E204629463768FFF707FC336879
:10E66000BB420CD0204607F07AFCBDE8F04107F031
:10E6700001BD20462946BDE8F041FFF7F7BBBDE8E4
:10E68000F08100BF70A6002010B50C4607F067FCB3
:10E69000036821465B68984710BD11F0130F10B551
:10E6A0000C4606D007F05BFC036821465B68984780
:10E6B00010BDBDE8104007F05ABD000011F0030F77
:10E6C00010B507D0FFF736FC044B1868BDE81040C2
:10E6D00006F0FEB9BDE81040FFF72CBC5CA6002098
:10E6E00011F0030F10B507D0FFF724FC044B186896
:10E6F000BDE8104006F0ECB9BDE81040FFF71ABCC9
:10E700005CA6002011F0030F10B507D0FFF712FC34
:10E71000044B1868BDE8104006F0DAB9BDE81040B7
:10E72000FFF708BC5CA6002008B54368B3F90000F9
:10E7300007F036FA18F0BEFFC3004FF6F87003EA90
:10E74000000008BD4368F7B54FF6FF7604460D4656
:10E75000002A08BF00261BB913489721FEF7BCFD0D
:10E760006368B5F900701868A368984202DBE36833
:10E7700098420ADD0D4BB5F9021000933846324637
:10E780004FF61E03FEF767FD0CE000B2B5F902403C
:10E7900007F006FA21460090324638464FF61E032F
:10E7A000FEF77AFDFEBD00BFBEB40608D9B4060868
:10E7B0002DE9F0471F4647F270539A4204460D4632
:10E7C00016463FD100F1380399423BD1436A93F892
:10E7D0000480A8F104095FFA89F9B9F1010F8CBF2F
:10E7E0004FF000094FF00109B9F1000F06D0A8F170
:10E7F0000503D3F1000848EB030801E04FF00108DE
:10E8000004F1A00A504607F028FD814506D049468C
:10E81000504607F03EFC4FF0010901E04FF00009BF
:10E8200004F16C0A504607F018FD804504D05046AC
:10E83000414607F02EFC02E0B9F1000F02D020465D
:10E8400007F018FC2046294632463B46BDE8F04713
:10E85000FFF7A2BEF7B543680E881C88083E134B2D
:10E86000B6B20D462246B1F90210304600934FF67B
:10E870001E03FEF770FB36182046B5F9027007F04C
:10E88000D3F9B6B200903946234630464FF61E0201
:10E89000FEF702FD064B30180093B5F90210224630
:10E8A0004FF61E0380B2FEF756FBFEBD2205070899
:10E8B0009405070844F644418A4201D107F0F8BDA7
:10E8C00044F645418A4202D1012280F82020704757
:10E8D00044F644439A4201D107F0EABD44F6454369
:10E8E0009A4202D1642107F0E9BC704770B5043048
:10E8F00092B00021FEF7FBFA01252824681EFDF7DF
:10E9000089FD064658B1204B029000930420214611
:10E9100048F2104200230195FEF7BFFC0AE01B4BB2
:10E92000042000932146334648F210420195FEF739
:10E93000B4FC174E342205A8002118F06BFC05AB7F
:10E9400006F13002306871680836964203C3F9D187
:10E950003188B27805AE19809A7030463B2118F0A4
:10E96000D7FC08B1002303700420002304F1100138
:10E970004BF2965200960135FEF78EFCB82C01D072
:10E980003034BBE712B070BDE3B4060808B5060822
:10E99000DBB4060811F0100F70B5044617D007F06D
:10E9A000E0FA18B90A483D21FEF796FC204607F028
:10E9B000D6FA0546204607F0D4FA0346DB6920461E
:10E9C000294646F26452BDE8704007F05ABB70BD5C
:10E9D00029B5060873B50D46044613F081FB15F002
:10E9E000010F01902BD0002829DD431F2E4E02A8D5
:10E9F000642140F8043DFFF709F833680198C3F833
:10EA0000CC0013F07BFB13F06BFB019B984205D00D
:10EA10003368D3F8C020013AC3F8C020336803F14B
:10EA2000C000D3F8BC10FEF7F1FF204607F022FB30
:10EA30002046E16846F67512002307F022FB15F028
:10EA4000020F2CD0019B632B29DC053302A8164E44
:10EA5000642140F8043DFEF7D9FF33680198C3F8FC
:10EA6000CC0013F04BFB13F03BFB019B984205D00D
:10EA70003368D3F8C0200132C3F8C020336803F1F3
:10EA8000C000D3F8BC10FEF7C1FF204607F0F2FA31
:10EA90002046E16846F67512002307F0F2FA204698
:10EAA0002946FFF729F97CBD5CA600200180428041
:10EAB000704710B58380BDF8083001804280C38064
:10EAC00010BD00007FB5DE2305460E4614460093B8
:10EAD00000211622D33B02A8FFF7EBFF284604498A
:10EAE00044F0020202AB009607F088FA7FBD00BF37
:10EAF0004CB506087FB5152305460E46144600930F
:10EB00000C21102202A84FF49C73FFF7D2FF284675
:10EB1000034944F0020202AB009607F06FFA7FBD92
:10EB200060B506087FB5F02305460E4614460093EF
:10EB300000211022A03302A8FFF7BBFF284604499A
:10EB400044F0020202AB009607F058FA7FBD00BF06
:10EB500073B506087FB5F02305460E4614460093AC
:10EB600000211022A03302A8FFF7A3FF2846044982
:10EB700044F0020202AB009607F040FA7FBD00BFEE
:10EB80007FB506087FB5F02305460E461446009370
:10EB900000211022A03302A8FFF78BFF284604496A
:10EBA00044F0020202AB009607F028FA7FBD00BFD6
:10EBB0008FB506087FB5F02305460E461446009330
:10EBC00000211022A03302A8FFF773FF2846044952
:10EBD00044F0020202AB009607F010FA7FBD00BFBE
:10EBE0009FB5060870B5F02388B004460E4615465A
:10EBF000009300211022A03306A8FFF75AFF2046F9
:10EC00001A4945F0200206AB009607F0F7F9B4F96F
:10EC10000A204FF4967100924FF4A573103A04A89D
:10EC2000FFF747FF04F140001149012204AB0094B3
:10EC300007F0E4F9B4F90A204FF4B47100924FF4EC
:10EC4000C373103A02A8FFF734FF04F1200009490A
:10EC5000012202AB009407F0D1F900232366FEF7EE
:10EC600027FD0138606608B070BD00BFB0B506086A
:10EC7000BDB50608C2B506087FB5F02305460E46A9
:10EC80001446009300211022A03302A8FFF711FFC1
:10EC90002846044944F0120202AB009607F0AEF990
:10ECA0007FBD00BFC7B506087FB5F02305460E46F9
:10ECB0001446009300211022A03302A8FFF7F9FEAA
:10ECC00028460349224602AB009607F097F97FBD1C
:10ECD000D7B50608B0F90420B0F90030D0184010BC
:10ECE000704707B5B0F90030B0F90410B0F906204C
:10ECF000C918B0F902304910D218521001A8FFF714
:10ED0000D5FE019B00209AB262F30F001B0C63F347
:10ED10001F400EBD10B504880919018041885218A2
:10ED200042808288D31A8380C288029BD31AC38010
:10ED300010BD10B50488611A018041888A1A42808A
:10ED400082889B188380029AC388D318C38010BD21
:10ED5000B0F90420B0F90030D01A7047F0B587B090
:10ED600004AC051D064695E8030084E80300012174
:10ED700000220B4620460092FFF7DBFF204648F2B8
:10ED80001041FEF7B4F894E80300184B02AF1B687B
:10ED900087E803002846B3F89A40FFF7D9FFBDF88B
:10EDA0000A3004FB00F20133ADF80A3004F5967422
:10EDB000BDF80E304443013BADF80E30B388384601
:10EDC00003EB223203EB2434BDF81430ADF80C40D1
:10EDD000ADF8082024B21AB29442C8BFADF80C3086
:10EDE0000021FEF784F807B0F0BD00BF5CA600204C
:10EDF00073B5051D002104462846FEF778F80F4B31
:10EE00001B68B3F8AA60B3F89A30F61A36B2002E2F
:10EE100012DB2846FFF79CFF86420DDAB4F90400A6
:10EE2000074B04380093B4F90610801946F20C32EF
:10EE30004FF61E03FEF78FF87CBD00BF5CA60020D6
:10EE40008E04070830B5051D85B00446002128460C
:10EE5000FEF74DF8384B802100930420002348F240
:10EE60001042FEF7F8F9354B802100936623019399
:10EE7000A020663B4BF29652FEF70FFA304B9021E2
:10EE800000930420002348F21042FEF7E4F92D4BD2
:10EE900090210093A02000234BF29652FEF7DBF95D
:10EEA000294BA02100930420002348F21042FEF7D2
:10EEB000D2F9264BA0200093014600234BF2965234
:10EEC000FEF7C9F9224BB02100930420002348F239
:10EED0001042FEF7C0F91F4BB0210093A0204BF267
:10EEE00096520023FEF7B7F91B4BC0210093042074
:10EEF000002348F21042FEF7AEF9184BC0210093F0
:10EF00000423019301330293033B03934BF2965284
:10EF1000023BA020FEF7C1F92846FFF719FFB4F91C
:10EF20000610A0F5807000EBD0704010183105B0CD
:10EF3000BDE83040FEF70CBDE1B50608F3B50608A4
:10EF4000FFB5060809B6060811B606081BB606087E
:10EF500028B6060838B606084DB606085FB6060895
:10EF6000F7B5061D002105463046FDF7C0FF514BA1
:10EF7000802148F21042009304200023FEF76BF931
:10EF8000FEF7D2FC8021002300904BF29652A02085
:10EF9000FEF761F9484B902148F21042009304209B
:10EFA0000023FEF758F9FEF7C3FC902100230090E0
:10EFB0004BF29652A020FEF74EF9404BA02148F2AA
:10EFC0001042009304200023FEF745F9FEF7B4FC3D
:10EFD0000090A020002301464BF29652FEF73BF929
:10EFE000374BB02148F21042009304200023FEF773
:10EFF00032F9FEF795FCB02100234BF296520090B7
:10F00000A020FEF728F9FEF79DFC2E4B0446009346
:10F0100004200023C02148F21042FEF71CF92A4BBD
:10F020002A4F9C4204D02A4B9C4203D064B114E086
:10F03000284B00E0284B0093A020C0214BF29652B1
:10F040000023FEF708F911E0244BA0200093C02113
:10F050004BF296522346FEF7FEF8A020C0214BF259
:10F060009652002300970194FEF717F91C4BD0210C
:10F07000009348F2104200230420FEF7ECF8FEF75C
:10F080005FFCD02101904BF296520023A020009704
:10F09000FEF703F93046FFF75BFEB5F90610A0F561
:10F0A000807000EBD0704010183103B0BDE8F04024
:10F0B000FEF74EBC6CB606087EB606088EB606088D
:10F0C0009CB60608A9B6060876676100CDB60608A4
:10F0D00027930402B9B60608BDB60608C5B60608E9
:10F0E000D2B60608B0F90620B0F90230D01A70473F
:10F0F0000388CB1803808388C91843888180D3187C
:10F100004380C388D218C2807047002303804380A5
:10F110008380C3807047B0F90420B0F900309A4270
:10F12000D4BF0020012070472DE9F04F00F12606E2
:10F130008BB004463046FFF7EEFF0546002847D166
:10F1400008AF04F1040898E8030087E803000121F0
:10F150000A460B4638460091FFF7EBFD38464BF266
:10F160009651FDF707FE29464046FDF7C0FE48F2DE
:10F170001042ADF81650ADF81850ADF81A50ADF871
:10F180001C50ADF814201935B4F90400B4F90A3054
:10F1900005AA2818009205220192043B421CB4F9EA
:10F1A00006101935FDF712FEFA2DEDD1E13DB4F947
:10F1B000061005AB6918009305230193B4F9040008
:10F1C0004B1CB4F908201935FDF700FEC82DEED10F
:10F1D000236A002B00F0A780251D2846FFF7B8FD05
:10F1E00080462846FFF77EFFB4F90AA03238039024
:10F1F0002046AAF1190A06F02DFF60B1216BA38CFD
:10F2000001FB08F198FBF3F202EBD27291FBF3F3EE
:10F2100003EB620301E06FF0130330460293FFF744
:10F220007AFF18B9E084A4F82A802BE0B4F904200E
:10F23000B4F9263000259A42A8BF1346E384B4F9F6
:10F240000820B4F92A3001219A42B8BF13466385D9
:10F250002A460B4630460095FFF75CFD30462946AE
:10F26000FDF745FE012130462A460B460095FFF783
:10F2700060FDB4F90410B4F9062030464942524208
:10F28000FFF736FF4FF00009E58CCB4644E0A28C37
:10F29000236A6A4392FBF8F233F81270B7F5805F85
:10F2A00003D322485D21FEF717F8039AB4F92630FC
:10F2B000574344BF07F57E671F373F13B4F9042057
:10F2C000BFB29D4208BFBB46AA184FF6FF7300931A
:10F2D000501EC7EB0A03CBEB0A01FEF765F8029B51
:10F2E0009D4208BFB94603339D4212D1B4F90400D0
:10F2F0000F4B626B0638AAF1040100934019C9EB69
:10F300000101082A14BF16221F224FF61E03FDF723
:10F3100022FE0135ADB2BB46B4F92A309D42B6DBC0
:10F320003046FFF7F2FE0BB0BDE8F08FE1B60608FD
:10F33000BC0E070813B50446B4F90220B0F900006A
:10F34000B4F906300091114600F10C02FDF7C2FE3F
:10F35000B4F90000B4F90210B4F90420B4F906308D
:10F3600008304BF296540094FDF7D2FC1CBD37B523
:10F370000446B4F90250B0F90000B4F90420B4F91D
:10F380000630023800912946FDF7A4FEB4F90000CA
:10F39000B4F90210B4F90420B4F9063006304FF67F
:10F3A000FF740131013A013B0094FDF793FE3EBD2D
:10F3B00007B50346B0F900000022B3F90210B3F913
:10F3C0000630009200F10802FDF7A2FC0EBD37B531
:10F3D0000446B0F90000B4F90210B4F90630002573
:10F3E00000F108020095FDF793FCB4F90420B4F98C
:10F3F0000210B4F90630101F0095FDF789FC3EBDE0
:10F40000436A37B504460BB11B880384204606F0D7
:10F4100021FE231D18B11846FFF7D9FF02E0184658
:10F42000FFF7C6FFA38820460433A38006F012FE30
:10F430000546218C201D5DB1FFF799FFE369B3B14B
:10F44000B4F90400B4F9061000930C3000220AE06D
:10F45000FFF770FFE36953B1B4F90400B4F9061083
:10F4600000930C302A464FF61E03FDF7F4FEA388E6
:10F47000043BA3803EBD0000C36A2DE9F0431F7921
:10F480005B79A7F10102574247EB020748F21048A7
:10F49000002F18BF4FF00008012B87B0044608D09A
:10F4A00002D3022B0FD109E03A4B1B68B3F84C3062
:10F4B00008E0384B1B68B3F8603003E0354B1B683D
:10F4C000B3F8C63103862046FFF79AFFE36AB4F922
:10F4D00004909A79304BB4F9065053F8223009F170
:10F4E0000E0600933046294642464FF61E03FDF7AE
:10F4F000B2FE002F4BD0E36A284A99799F6852F8F0
:10F50000214038460021103517F08EFD68B1244B9C
:10F5100030460093424629464FF61E03FDF71BFD79
:10F5200007F100428619174601E009F11406384632
:10F5300016F0F0FF02460B4602A81A49FDF7AAFB97
:10F5400005E006AA02EB0903002203F8112C02AF22
:10F55000384618F0AFF88146204618F0ABF848441A
:10F560000728EED83046294642464FF61E0300973C
:10F57000FDF792FE5CB123784BB104363018294672
:10F5800044F208224FF61E030094FDF764FE07B014
:10F59000BDE8F0835CA60020B0BB0608E4BB06080B
:10F5A000660E07080DB70608F0B5C669002585B0D8
:10F5B0000446C561FFF724FFE661231D02AE93E810
:10F5C00003002A4686E803002B46304610210095AA
:10F5D000FFF7A0FBE3692A46BDF90A100093BDF9C5
:10F5E00008004FF61E03FDF736FEBDF80A30204630
:10F5F0001033ADF80A3006F02DFD0246002837D052
:10F60000BDF808701E4B083FBFB2BDF90A102A466C
:10F61000009338B24FF61E03ADF80870FDF79BFC5F
:10F620003818ADF80800E06A03685B699847BDF9CF
:10F630000A100746BDF9080001F10E033A180095BB
:10F64000FDF766FBE06A3146036801221B699847B3
:10F65000BDF80830BDF90A10FF180A4B38B2009304
:10F660002A464FF61E03ADF80870FDF774FC04E05F
:10F67000E06A314603681B69984705B0F0BD00BFDA
:10F680002205070894050708F0B5044685B0FFF782
:10F69000B7FEB4F90450B4F90670E369103500936D
:10F6A0002846394600224FF61E03FDF7D4FD2046BA
:10F6B00007F1100606F0CEFC00282ED0234B314671
:10F6C0000022009328464FF61E03FDF744FC45191F
:10F6D000E06A1E3703685B6998473246431929463A
:10F6E00002A80097FFF7E5F9002102A8FDF7FFFB4C
:10F6F000E76A20463B681D6906F0ACFC02A9024699
:10F700003846A847124BBDF90C0000933146002241
:10F710004FF61E03FDF71FFC15E0E06A1E37036875
:10F720005B69984729464319324602A80097FFF7BC
:10F73000C0F9E66A204633681D6906F08BFC02A911
:10F7400002463046A84705B0F0BD00BF22050708B5
:10F7500094050708FFF754BE13B50446FFF750FEA3
:10F76000084BB4F904000093E36AB4F9061003EB04
:10F77000830301931C30103100224FF61E03FDF766
:10F780008CFD1CBDE1E7060813B50446FFF738FE03
:10F79000084BB4F904000093E36AB4F9061003EBD4
:10F7A000830301931C30103100224FF61E03FDF736
:10F7B00074FD1CBDE1E7060813B50446FFF720FE03
:10F7C00012F08EFCB4F90430B4F90610054A019029
:10F7D000009203F11C00103100224FF61E03FDF7CA
:10F7E0005CFD1CBDE1E7060873B50546FFF708FEA2
:10F7F000EB6AB5F90440B5F906601B690E340022C6
:10F80000009331464FF61E032046FDF724FDEB6AB8
:10F8100031461A79114B001953F822300022009317
:10F820004FF61E03FDF717FDEB6A06F110011A797A
:10F83000052A01D10A4A06E0042A03D0094A0092A7
:10F840009B6802E0084A0092DB6801932046002290
:10F850004FF61E03FDF721FD7CBD00BF54BC06081A
:10F8600011B70608E1E7060818B70608C36AF7B536
:10F870001D79044648F21043002D0CBF1D4600259B
:10F88000FFF7BEFDB4F90470B4F906600C4B0E37F7
:10F89000009331462A4638464FF61E03FDF7DBFC3F
:10F8A000E36A38461A79074B06F1100153F8223003
:10F8B0002A4600934FF61E03FDF7CDFCFEBD00BFA8
:10F8C0001CB7060820BC06087FB50646FFF798FD62
:10F8D0000E4BF06A009317F0B5F90D4917F0BAFA1C
:10F8E0000C4917F0FBF816F015FEB6F90450B6F9FE
:10F8F00006401C351034CDE902010022284621467D
:10F900004FF61E03FDF7C9FC7FBD00BF26B70608F2
:10F91000000020410AD7233C73B5B0F90420B0F9A8
:10F9200006300E46B0F9021004464FF4E045101FB1
:10F930000431043204330095FDF7CCFBB4F90630F2
:10F94000B4F90000B4F90420191F04300432043360
:10F950000095FDF7BFFBB4F90000B4F90210B4F94B
:10F96000063000F10C020096FDF7B4FBB4F900007C
:10F97000B4F90420B4F90210B4F906304BF29655EC
:10F980000830043A0095FDF7C3F9B4F90420B4F93E
:10F990000210B4F90630A2F108000095FDF79AFBB9
:10F9A0007CBD73B5B0F90420B0F906300E46B0F94D
:10F9B000021004464FF4E045101F043104320433B2
:10F9C0000095FDF787FBB4F90630B4F90000B4F9EF
:10F9D0000420191F0430043204330095FDF77AFB2C
:10F9E000B4F90000B4F90210B4F90420B4F90630F7
:10F9F0000096FDF76FFB7CBD30B5024685B00D4625
:10FA00000068516802AB022403C302A80021FDF77D
:10FA10009DFB2246234602A821460094FFF77AF96F
:10FA200002A82946FDF792FB02A821460E22234692
:10FA30000094FFF76FF902A84BF29651FDF786FB91
:10FA400005B030BD73B50446051D218C2846FFF76F
:10FA5000D3FF2846FFF73EF9E5690646284617F02A
:10FA600029FEB4F90610C0B28000301A023100221B
:10FA70004FF61E030095FDF7EEFB7CBDF0B589B097
:10FA8000031D054604AC93E8030084E80300184610
:10FA9000298CFFF7B1FF2046FFF71CF9EE690746F6
:10FAA000304617F007FEBDF91210C0B280000231D7
:10FAB0000022381A4FF61E030096FDF7CCFB1221E8
:10FAC00004230A46009320460B46FFF723F9686A91
:10FAD00017F0F0FD07462046FFF703F9ADF80800E0
:10FAE000C0F30F40ADF80A00029E20460796FFF7CC
:10FAF000F8F8ADF80800C0F30F40ADF80A0002991D
:10FB00006B6AFF0036B2A6EB6706069109140093F4
:10FB10003046073900224FF61E03FDF79CFB09B063
:10FB2000F0BDF0B585B0031D044602AD93E80300B7
:10FB300085E803001846218CFFF75EFF2846FFF793
:10FB4000C9F8E6690746304617F0B4FDBDF90A105A
:10FB5000C0B2800002310022381A4FF61E03009610
:10FB6000FDF779FB12210423009328460A460B4631
:10FB7000FFF7D0F8636ABDF90800BDF90A100093D9
:10FB80000430043100224FF61E03FDF764FB05B07C
:10FB9000F0BD4BF29651FDF7AAB92DE9F0410121D4
:10FBA00004460026FDF7B2F9D02514E0EB10DA0286
:10FBB0004FEAA50842EA4818204648EA0308FFF73A
:10FBC000C7F8074602E04046FDF7AAF9013FFAD21E
:10FBD0000D3DEDB201362046FFF784FA8642E5DBA3
:10FBE000BDE8F041FDF7B6B910B5044606F032FAAB
:10FBF000231D20B91846BDE81040FFF7CABF1846BC
:10FC0000BDE81040FFF7C9BF2DE9FF47044606F0E5
:10FC100021FA4FF6FF75002808BF00252046FFF7A0
:10FC2000E3FFE369B4F904002A46B4F9061000932F
:10FC300004304FF61E03FDF70EFB206A0121036816
:10FC4000B4F904805B6898478146206A0121036803
:10FC500008F178071B689847B9F1010F064607D1EC
:10FC6000244BB4F90610009308F170002A460AE00C
:10FC7000B9F1000F0BD11F4BB4F90610009308F136
:10FC8000700048F210424FF61E03FDF764F9D4F8F5
:10FC900020A0231D93E803000DF10809DAF80030D5
:10FCA00089E803002046D3F81080ADF80870ADF85D
:10FCB0000C7006F0CFF9494602465046C047206A0C
:10FCC00003685B699847012E384405D10A4BB4F9A3
:10FCD000061000932A4606E04EB9074BB4F9061009
:10FCE000009348F210424FF61E03FDF734F9BDE8C9
:10FCF000FF8700BF180207088A02070837B50546C4
:10FD000006F0A8F94FF6FF74002808BF0024284623
:10FD1000FFF76AFFEB69B5F904000093B5F9061027
:10FD2000043022464FF61E03FDF795FA3EBD13B58B
:10FD30000446FFF759FFE369B4F904000093B4F9EE
:10FD40000610043000224FF61E03FDF784FA1CBD96
:10FD5000F0B585B0044606F07DF94FF6FF75002832
:10FD600008BF0025204606F075F990B102AB221DB0
:10FD700092E8030083E80300BDF808201846083A1B
:10FD8000ADF80820BDF80C200832ADF80C20FFF7C4
:10FD900004FF204606F05EF958B1174BB4F9040091
:10FDA0000093B4F9061007382A464FF61E03FDF7F4
:10FDB000D2F8276A20463B681E6906F04BF9211DE0
:10FDC00002463846B047206AA78803685B699847AF
:10FDD0000646204606F03EF958B1084B3FB2781C63
:10FDE0000093B4F9061080192A464FF61E03FDF75A
:10FDF000B2F805B0F0BD00BF180207088A02070874
:10FE000038B54FF61F03994204460A4607D00569E4
:10FE100061698068E3682818C918FCF761FF6269A6
:10FE2000236912F0010F07D0591E002921610BDA56
:10FE300001322361626138BDA069591C8142216190
:10FE400002DB01322361626138BD10B500231A461E
:10FE5000416811F8014B416004F07F019140073285
:10FE600014F0800F43EA0103F2D1184610BD38B5F3
:10FE70004FF0FF3303600B780446472B0D461CD12F
:10FE80008B1C4360FFF7E1FFA0612046FFF7DDFF19
:10FE9000E0616B78422B10D1234604F120006168A9
:10FEA0000A4612F8015B626049780132626041EAF9
:10FEB00005221A8402338342F1D138BD034600681B
:10FEC000B0F1FF3F06D15A6812F8010B18605A6072
:10FED000001170474FF0FF3200F00F001A607047BA
:10FEE00070B50024064625463046FFF7E7FFC0B24E
:10FEF00000F00703AB40033510F0080F44EA030499
:10FF0000F2D1204670BD00002DE9F8434FF0FF33D9
:10FF100003600133036143618769C36904468160FB
:10FF2000C260D0F804805F4301262FE0AEB12046C6
:10FF3000FFF7D6FF451C2046FFF7C0FF002681468D
:10FF400007E009F11003204634F81310FFF758FFBB
:10FF50000136AE42F5DB002612E02046FFF7AEFF89
:10FF6000451C0AE02046FFF7A9FF00F1100334F812
:10FF700013102046FFF744FF0136AE42F2DB0126A4
:10FF80007F1B03D504484821FDF7A6F9002FCDDCDF
:10FF9000C4F80480BDE8F8832CB70608074A08486F
:10FFA0001168084B30B50468074DCB1805FB0433C6
:10FFB0000131036058041160400C30BDACA5002035
:10FFC00018300020F390240021F17D004162704739
:10FFD00073B5044616460D4619B90C480D21FDF7B8
:10FFE0007BF90B4B00211B682046B3F84C300A46C6
:10FFF0002386E56202230096FEF7A7F8204604F167
:020000040805ED
:10000000300102B0BDE87040FFF7E0BF4AB3060818
:100010005CA6002073B5054616460C4619B90A4879
:100020000C21FDF759F9EC62284634F8062F00211F
:1000300002230096FEF789F82846214602B0BDE863
:100040007040FFF7C3BF00BFA3B306082DE9F0411E
:100050000C46154698460026A75B1FB94FF61F03AE
:10006000A3530DE0FA08294602F0FC02404605F0D1
:1000700033FFFA0AA0530021D20005F02DFFA05350
:100080000236202EE8D1BDE8F08110B592B00446CA
:1000900005F0E0FF231D218C70B11846FFF781FCAD
:1000A000616A21B302A8FFF7E2FE20460AA94EF2D8
:1000B00010424FF6FF730DE01846FFF72DFC616A02
:1000C000A9B102A8FFF7D3FE20460AA94EF21C727E
:1000D0004BF29653FFF7BAFF089BB4F90810B4F936
:1000E0000A20C91A099B02A8D21AFFF70DFFE3697B
:1000F000B4F904000093B4F906100C3000224FF656
:100100001E03FDF7A8F812B010BD416082600373B2
:100110007047000008B50379012B09D002D3022BE8
:100120000FD10AE08368188800F01F00400808BD5E
:1001300083681888C0F3C31008BD83681888000B53
:1001400008BD03484FF48271FDF7C6F8002008BDD2
:10015000BEB4060830B54FF6FF7585B00C46002AD0
:1001600008BF0025FFF7D6FF05F04EFD00238DF8F0
:100170000D3003AB8DF80C000093B4F90000B4F916
:1001800002102A464FF61E03FDF786F805B030BD73
:10019000002908B50CDDFFF7BDFF0E288CBF00203D
:1001A000012008BDFFF7B6FF003818BF012008BDC9
:1001B000F8DB002008BD00000379012B12D002D328
:1001C000022B2CD11DE08268138823F01F031B042F
:1001D0001B0C0F2902D04900C9B200E01F2141EADF
:1001E00003031AE08268138823F4FC631B041B0CCE
:1001F0000F2902D08900C9B200E03F2143EA411330
:100200000BE0826813885B055B0D0F2902D0490063
:10021000C9B200E01F2143EAC1231380704702489E
:100220004FF48E71FDF758B8BEB4060810B50446F9
:10023000FFF770FF30B1411EC9B22046BDE8104043
:10024000FFF7BABF10BD10B50446FFF763FF0E28D5
:1002500006D8411CC9B22046BDE81040FFF7ACBF2C
:1002600010BDC8684042704710B5044606F002F859
:10027000014B2046236010BD00A70608014B036018
:10028000704700BF48A7060810B50446FFF7F6FF01
:10029000014B2046236010BD20A7060810B5044678
:1002A000FFF7ECFF014B2046236010BD10AB0608A2
:1002B00010B5044605F0DEFF014B2046236010BD5B
:1002C00090A7060810B50446FFF7F2FF014B204641
:1002D000236010BD70A7060810B50446FFF7E8FFBD
:1002E000014B2046236010BDF0AC060810B5044653
:1002F00006F0DEF82046BDE8104006F0A3B8FFF790
:10030000F5BFFFF7F3BF000038B5184B1C6894F831
:10031000B430052B11D1D4F8BC00013016F092FC9A
:100320000146134816F096FD0546D4F8B800013092
:1003300016F088FC0146284612E0D4F8D050002D73
:1003400011DDD4F8BC00013016F07CFC01460948F0
:1003500016F080FD0446284616F074FC014620463F
:1003600016F078FD38BD002038BD00BF5CA6002027
:100370004054894C00BA5B4A37B50446FFF740F851
:100380002046FFF7C1FF16F077FE16F05BFC082150
:10039000B4F90450B4F9064005F08CFC1C35103457
:1003A00000902146284600224FF61E03FCF774FFFA
:1003B0003EBD0000F8B5284B0D461C6894F8B460AB
:1003C000D4F8D070052E1AD10846244916F036FE0E
:1003D00068B92846224916F031FE50B9284621490D
:1003E00016F02CFE002814BF1220012002E0F0209D
:1003F00000E0B420431EC4F8B830012700E0142008
:1004000016F020FC294616F071FC0546384616F019
:1004100019FC0146284616F069FC0146124816F000
:1004200019FD16F029FE01380128ACBF034601234F
:10043000052E03D10828ACBF03460823D4F8BC50CE
:10044000D4F8CC005D1B18BF0125C4F8BC3011F0F6
:1004500055FE2846F8BD00BF5CA6002000002041E4
:100460000000FA4400409C464054894C2DE9F04776
:1004700011F0010904460D4603D111F0020F00F0FE
:10048000DA802046FFF740FF00210646012716F0DC
:10049000DFFD00B9002717F0FF0F03D168482321C3
:1004A000FCF71AFF3046674916F0C8FDE8B9304638
:1004B000654916F0C3FDD8B93046644916F0BEFD53
:1004C000C0B93046624916F0B9FDA8B93046614955
:1004D00016F0B4FD90B930465F4916F0AFFD78B91B
:1004E00030465E4916F0AAFD60B94FF07E570AE02B
:1004F0005B4F08E0534F06E0534F04E0534F02E0D8
:10050000534F00E0534FB9F1000F11D03046394638
:1005100016F0A8FD28B13046394616F0DDFA8046BF
:1005200000E0B0464046002116F088FD10B903E017
:10053000B04601E04FF07E5815F0020F10D0404653
:10054000484916F071FD20B14046394616F0C6FA0A
:1005500080464046002116F071FD08B14FF07E58EC
:100560003946404616F076FC16F086FD16F06AFB1A
:10057000394616F0BBFB4FF07E51074616F054FD8E
:1005800008B14FF07E573846314616F043FD00283B
:100590004FD139462046FFF70DFF80462046FFF732
:1005A000B3FE31468246384616F05CFD38B15046FF
:1005B000314616F043FD002818BF4FF000083846BA
:1005C000314616F031FD20B15046314616F040FD5F
:1005D00010B9B8F1000F22D1234BB9F1000F07D0A9
:1005E0001B68D3F8BC10B1F5803F18DA013105E083
:1005F0001B68D3F8BC10012911DD013993F8B42030
:10060000C3F8BC10052A89B206D1B3F8B800B3F814
:10061000C020FDF799F802E00846FDF7CDF8204626
:1006200005F028FD2046E16846F67512002305F026
:1006300028FD20462946BDE8F047FDF75DBB00BF19
:1006400044B706080000C84200007A4400401C4637
:100650000050C347002474498096184B20BCBE4C00
:10066000000020418096984B5CA6002013B50B78C3
:1006700002A89B180C4640F8043DFF21FDF7C6F97F
:10068000019B23701CBD00009D4B2DE9F0411B68B0
:10069000044693F8B4300D46072B03D099487C21CB
:1006A000FCF71AFE15F0020F29D0256B11F0DAFBCA
:1006B0000368013B9D4280F2208104F10408231D60
:1006C00003CBC4F82600C4F82A104046FEF740FBCE
:1006D000256BA78C05FB00F6E38C96FBF7F6023B37
:1006E0009E19B6B2E6844046FEF732FB400090FB0E
:1006F000F7F70437F61901356685256324E015F010
:10070000010F26D0256B002D40F3F780013D271DFA
:10071000231D03CB2563C4F82600C4F82A103846ED
:10072000FEF716FB4543A68CE38C95FBF6F5023BE2
:100730005D19ADB2E5843846FEF70AFB400090FB38
:10074000F6F60436AD1965852046BDE8F04105F0A2
:1007500091BC15F0040F3AD0256B002D04DB11F08D
:1007600081FB03689D4203DB66489721FCF7B4FDDB
:1007700011F074FB216B626B41182046FFF776FF86
:10078000636B082B12D1256B11F06CFB03680135EC
:100790009D420BDA11F062FB216B626B013102EBBF
:1007A000D272411852102046FFF760FF636B082B8E
:1007B0004FD1236B012B4CDD11F050FB216B626B91
:1007C000013902EBD2724118521020463FE015F079
:1007D000080F74D0256B002D04DB11F043FB036878
:1007E0009D4203DB4748AD21FCF776FD11F036FB57
:1007F000216B626B411852422046FFF737FF636B53
:10080000082B13D1256B11F02DFB036801359D4298
:100810000CDA11F023FB626B216B02EBD272013117
:100820005210411852422046FFF720FF636B082BFD
:100830000FD1236B012B0CDD11F010FB626B216BD0
:1008400002EBD27201395210411852422046FFF792
:100850000DFF11F0FDFB261D231D03CBC4F8260060
:10086000C4F82A103046FEF773FA276BE38C47432F
:10087000A58C013B97FBF5F7DF19BFB2636B07F15E
:100880000A081FFA88F8082BE784A4F82A807FF466
:100890005BAF3046FEF75CFA43005B4293FBF5F337
:1008A0000137FF18E7843046FEF752FA400008F19E
:1008B000FF3890FBF5F5A844A4F82A8044E715F02A
:1008C000100F08D0636B2046082B14BF08230123A8
:1008D000636305F0CFFB15F0200F0ED0A36B1BB99F
:1008E0000848CA21FCF7F8FCA16B204646F2785272
:1008F0000023BDE8F04105F0C4BBBDE8F08100BFB6
:100900005CA60020E1B60608002303604360836014
:10091000704710B50446FFF7F7FF204610BD836807
:1009200030B5456803B985608368DC225343B83A23
:1009300002FB0533002BB8BFFF331A128260046834
:1009400005B944604368DC256B43B83D05FB0433BF
:10095000002BB8BFFF331B1243600CB90B020360BE
:100960000368DC2463434FF4105404FB0131002975
:10097000B8BFFF3109120160101EB8BFFF3000126E
:1009800030BD0000F0B585B0FBF73EFF0746FBF732
:1009900057FF644C0646236813F0010F04D16248E8
:1009A000FFF7B7FF0123236039465F48FFF7B7FF22
:1009B0005E4D04467021F0204BF2965200230095C4
:1009C0000197FCF76AFC002C40D04BF296520023B2
:1009D0008021F02001940095FCF75FFCA4F50660EF
:1009E000193816F02FF9524916F080F9514916F0CE
:1009F00031FA0146504816F06FF8504B50490093B9
:100A0000044616F06BF815F085FD4BF29652CDE9D1
:100A1000020100239021F020FCF73FFC49492046C9
:100A200016F064F9484B4FF08441009316F056F8E5
:100A3000434916F053F815F06DFD4BF29652CDE98F
:100A400002010023F020A021FCF727FC3F4C236883
:100A500013F0010F04D13E48FFF75BFF0123236031
:100A600031463B48FFF75BFF3A4D0446C021F0207A
:100A70004BF29652002300950196FCF70EFC0CB346
:100A80004BF29652D0210023F02000950194FCF700
:100A900004FC314B2046009316F0D4F82F4916F091
:100AA00025F92F4916F0D6F9254916F017F815F053
:100AB00031FD4BF29652CDE902010023F020E021F6
:100AC000FCF7EBFB00210620FBF7C1FC00210546EB
:100AD0000520FBF7BCFC234B04462846009316F088
:100AE000B1F8214916F002F915F014FD0023CDE903
:100AF00002014BF296524021F020FCF7CEFB1B4B3B
:100B00001B4AF020002C0CBF14461C46194B5021E8
:100B100000934BF2965200230194FCF7BEFB05B004
:100B2000F0BD00BF88A500209CA5002075360708F1
:100B3000CCCC90410000CA42CDCC4C407BB70608DB
:100B40000AD7A33B6666E63F84B706088CA500205B
:100B500090A5002081CA06088DB7060833333340BC
:100B60000080DB4495B706086F12833A74B7060815
:100B700078B706089CB7060810B5054C2368586A74
:100B8000FBF72CFC2368986ABDE81040FBF72DBCEE
:100B90005CA6002010B5054C890023685962FFF758
:100BA000EBFF2068BDE8104003F092BF5CA6002078
:100BB00010B5074C890023689962FFF7DDFF6420B8
:100BC000FBF7C8FB2068BDE8104003F081BF00BF01
:100BD0005CA600202DE9FF41044605F03BFA4BF2EC
:100BE0009655B4F90A204FF6FF73002818BF1D462A
:100BF000B4F90410B4F90830101F083B0C3A009007
:100C0000123102A8FDF755FF02A844F20821FCF7B3
:100C10006EF902210A460B4602A80091FEF77AF807
:100C200002A8FEF795F823688046DB6920469847BE
:100C3000236807469B6A20469847236806465B6AF6
:100C400020469847A8F1100807FB08F7361ABDF8A8
:100C5000083097FBF6F7FF18BFB2ADF8087002A88E
:100C600010372946ADF80C70FCF741F9BDE8FF815B
:100C7000036870B5DB690E460446984716F0010F0D
:100C800005460DD0236820465B6A9847854207DDFC
:100C9000236820461B6A691E98472046FFF79AFF83
:100CA00016F0020F0DD0236820469B6A98478542B4
:100CB00007DA236820461B6A691C98472046FFF71D
:100CC00089FF20463146BDE87040FDF715B810B5E4
:100CD0000446FEF795FB2046BDE81040FFF77ABFBB
:100CE000014B18682C3070475CA6002008B5FFF750
:100CF000F7FF0368013B036008BD08B5FFF7F0FF8D
:100D000003680133036008BD38B504460D46FFF79C
:100D1000E7FF006863682D189D4205DBA0688542E7
:100D2000CCBF0020012038BD002038BD416082606A
:100D30007047000010B5FFF7D3FF006838B100B26C
:100D400004F02EFF0349044616F0BEFA00E0024C00
:100D5000204610BDA7B70608A1B7060808B5FFF7DB
:100D6000E9FF16F0A7FCC3004FF6F87003EA000095
:100D700008BD73B54FF6FF740E88002A08BF002423
:100D8000B1F90250FFF7D6FF2946009022463046BF
:100D90004FF61E03FCF75FFA7CBD2DE9F04100F130
:100DA000300405460F461646204600210F22DDF886
:100DB0001880FFF7BBFF284621463A463346CDF858
:100DC0001880BDE8F041FDF7F9B900007FB50E4687
:100DD000F0233C210446154600930A46283302A816
:100DE000FDF767FE20462A4602AB1049009605F043
:100DF00005F904F1200002230D4948F21042009445
:100E0000FDF7D9F904F14C0002230A4948F21042D7
:100E10000094FDF7D0F904F17800074948F2104238
:100E200002230094FFF7B9FF7FBD00BFADB70608EE
:100E3000BDCD0608CBCD0608BEB706080A4B73B574
:100E40001A6800F1300405460E4620460832012398
:100E50000649FFF75AF928462146054A48F2104349
:100E60000096FDF7ABF97CBD5CA60020E0BC06084F
:100E7000D1B706084160704710B504460AF0C0FBC0
:100E800063681B68002B04DA094ADB4352F823002D
:100E900010BD0C2202FB030002780AB9406810BDA5
:100EA000013B0C38B3F1FF3FF6D1002010BD00BF6D
:100EB000E8BC0608436810B51C68002C06DB0AF085
:100EC0009FFB0C2303FB0404606810BD002010BDD1
:100ED00038B50446FFF7D0FF05462046FFF7EAFF86
:100EE00004461DB1284616F0E5FB05461CB1204618
:100EF00016F0E0FB00E02046451904B10235ED0094
:100F00004FF6F87005EA000038BD00002DE9F34106
:100F10004FF6FF7607460C46002A08BF00260D88CC
:100F2000FFF7AAFF80463846FFF7C4FF0746B8F12F
:100F3000000F0BD02846B4F9021032464FF61E03BC
:100F4000CDF80080FCF787F92D18ADB2B7B10C4B86
:100F50000435ADB2B4F902100093284632464FF67C
:100F60001E03FCF778F904352818B4F9021080B292
:100F700032464FF61E030097FCF76DF9BDE8FC8181
:100F8000DEB7060838B50C4615460AF039FB2B19B2
:100F900005D5124A13F1050FB8BF13461BE0002D0B
:100FA0004FF00C020BDD631C02FB040402E00C3466
:100FB0008AB90133227B022AF9D1084B0BE0631E68
:100FC00002FB040403E014F80C2D22B9013B002BB2
:100FD000F9DA4FF0FF33184638BD00BF19FCFFFFA8
:100FE00010B544684FF0FF322168FFF7CBFF206057
:100FF00010BD10B5446801222168FFF7C3FF2060CF
:1010000010BD000008B543680A461968FFF7BAFF2B
:10101000024BC01A18BF012008BD00BF19FCFFFF1A
:1010200007B5009111461A4648F21043FDF7C6F87D
:101030000EBD00007FB51546F023282204460E465B
:1010400000933C219B1802A8FDF733FD2A4602AB12
:10105000214D20462149009604F0D0FF04F12000E4
:101060002146FFF7EBFE296804F1600630460C319B
:10107000FFF700FF324604F168002146184BFFF7E6
:10108000CFFF296804F1980630461031FFF7F2FED1
:10109000324604F1A0002146124BFFF7C1FF296838
:1010A00004F1D00630461431FFF7E4FE324604F175
:1010B000D80021460C4BFFF7B3FF296804F584766E
:1010C00030461831FFF7D6FE04F5887021463246C7
:1010D000064BFFF7A5FF7FBD5CA60020E0B7060822
:1010E000F4B7060802B8060812B806081CB80608C5
:1010F00010B5044605F0BEF8014B2046236010BD34
:10110000B8A6060810B50446FFF7F2FF014B2046CB
:10111000236010BDC8AC060810B50446FFF7AEF852
:10112000014B2046236010BD10AD060810B50446E3
:10113000FFF7BEF8014B2046236010BD58AD0608EE
:1011400070B50546FFF7B4F8064B2C4644F8203B33
:1011500005F1B00620462434FFF7E8FFB442F9D188
:10116000284670BD38AD060810B50446FFF786F86E
:10117000014B2046236010BD78AD060810B504462B
:10118000FFF772F8214B204640F8243BFFF7A4F804
:1011900004F14400FFF7A0F804F16400FFF79CF8A5
:1011A00004F18400FFF798F804F1A400FFF7B4FFFE
:1011B00004F1B000FFF7B0FF04F1BC00FFF7ACFF93
:1011C00004F1C800FFF7A8FF04F1D400FFF7B8FF4F
:1011D00004F5C270FFF7A0FF04F5C870FFF79CFF8D
:1011E00004F5CE70FFF798FF04F5D470FFF794FF75
:1011F00004F5DA70FFF7A4FF04F51970FFF7B4FFE8
:1012000004F51B70FFF75EF8204610BD80E306086A
:1012100010B50446FFF74CF8014B2046236010BD83
:10122000A0AD060810B50446FFF71EF82D4B20466A
:1012300040F8643BFFF7ECFF04F18400FFF7E8FFA0
:1012400004F1A400FFF7E4FF04F1C400FFF744F841
:1012500004F1E400FFF740F804F58270FFF73CF872
:1012600004F59270FFF738F804F5A270FFF734F830
:1012700004F5B270FFF730F804F5C270FFF704F818
:1012800004F5CA70FFF71EF804F5DC70FEF7FCFFEA
:1012900004F5E470FFF716F804F5F670FFF764FF45
:1012A00004F5FA70FFF70EF804F50670FFF75CFF1F
:1012B00004F50870FFF706F804F51170FFF72CFF2E
:1012C00004F51470FFF728FF04F51770FFF724FFEB
:1012D00004F51A70FFF720FF04F51D70FFF730FFCB
:1012E000204610BDA8E2060810B5044604F0C2FF6F
:1012F000114B204640F8203BFFF704FF04F150005B
:10130000FFF7F6FE04F17C00FFF7F2FE04F1A800FF
:10131000FFF7EEFE04F1D400FFF7EAFE04F580705B
:10132000FFF7E6FE04F59670FFF728FF04F57170ED
:10133000FFF778FF204610BDD8E3060870B50446D5
:101340000D46164604F096FF024B25622360666246
:10135000204670BD78EB060870B504460D4616466B
:1013600004F088FF024B256223606662204670BD50
:1013700058EB060870B504460D46164604F07AFF91
:10138000034BED00F600236025626662204670BDC7
:1013900038EB060810B5202132220446FFF7CEFFB5
:1013A000014B2046236010BD10A60608202110B571
:1013B0000A460446FFF7C2FF014B2046236010BDDA
:1013C00030A6060810B5202107220446FFF7C4FF07
:1013D000014B2046236010BD50A6060810B5202101
:1013E00010220446FFF7C6FF014B2046236010BDC4
:1013F00070A60608C8228260503AC260793A02613B
:1014000042610132027642768276704700292DE9E8
:10141000F74F0F46B8BF01F1FF073F1240F6FF73C9
:10142000C8B207F10A099945A8BF99460D4615F0BB
:1014300009FC4FF06E5115F059FC2B4915F056FC84
:1014400015F068F816F050FA15F0F2FAA7F10A0450
:1014500024EAE4748046002637E02046FCF72BF9A6
:1014600090F800A0204615F0EDFB8346284615F0C5
:10147000E9FB4FF06E5115F039FC0146584615F066
:101480002BFB0021834615F0C5FD78B95846174956
:1014900015F02CFCE31B13F0010F01460CBF08F103
:1014A0000040404615F0D6FC834601E04FF07E5BDD
:1014B000504615F0C7FB0146584615F017FC01468B
:1014C000304615F00BFB013406464C45C5DD304671
:1014D00015F0D2FD02AB43F8040D1846FF21FCF7CE
:1014E00095FA0198BDE8FE8FDB0F4940D80F4940BF
:1014F0002DE9F04FEDB00E4607920446FCF7D8F800
:10150000FCF7B9F8FCF7FEF80023054609AA41F2FA
:101510008200D0520233B3F5C67FF7D1B4F9080088
:10152000B4F90A10AC4B283800932639002348F24E
:101530001042FBF7B2FE226E636EAD1A9B1AB3F532
:10154000C87F4FF4C87203F10103C0F28F80554386
:10155000012E95FBF3F3069301DD751E00E00025D7
:101560004FF0FF377CE0626E216E0132521A02FBAF
:1015700005F301356A434FF4C87093FBF0F392FB17
:10158000F0F25B185218002109A841F2820C20F8F1
:1015900001C00231B1F5C67FF6D106998B4508D15D
:1015A00000214FF01F0C20F801C00431B1F5C47FB9
:1015B000F7D14FF0FF389A46A446C1461C46334641
:1015C0002E4615461EE050460493CDF814C0FCF795
:1015D00072F80178C620414340F2FF72090A09A857
:1015E000A24520F81120049BDDF814C006D08945DF
:1015F000A8BF89468845B8BF884601E08846894625
:101600000AF1010AAA45DEDB9B45354664461E46C3
:1016100005DDB845B8BFB846B945A8BFB94608EB1F
:10162000090707EBD7777F10B34519DB0DF1240CC1
:101630000CEB49030BE033F8021B41F282029142AA
:1016400004BF4FF4826023F8020C09F10109C1457F
:10165000F1DB5846B4F9061009AAC623FBF7ACFC27
:101660000799AB468D42FFF67EAF98E05543012EB9
:1016700095FBF3F3CCBF06F1FF3A4FF0000A4FF0B1
:10168000FF38069357460025434684E0616E226E7C
:101690000131891A090279434FF4C870120291FB93
:1016A000F0F1891857454FEA212B40F38A805B45BA
:1016B00000F087805846FBF7FEFFD0F8009001212C
:1016C000C6225FFA89F35343C63A1B0A09A841F2BE
:1016D000820C20F802C00232B2F5C67FF6D1069A1B
:1016E000974208D100224FF01F0C20F802C00432AC
:1016F000B2F5C47FF7D157451ED09D4204DB6A1C6A
:1017000009A800EB420215E009AA681E02EB40009E
:101710002A4601324FF4826C9A4220F802CFF8D167
:101720006A1CED43ED18551907E04FF4826022F86A
:10173000020D013D9D42F8D11D4609AA41B140F27A
:10174000FF7C22F813C03BB1581E22F810C003E002
:101750004FF4826022F81300B8F1FF3F0BD009AAC2
:1017600040F2FF7C22F818C0B8F1000F03D008F156
:10177000FF3822F818C0002914BF98464FF0FF38F0
:10178000B74206DB3846B4F9061009AAC623FBF7B0
:1017900013FC01375B4607988742FFF677AFBEB967
:1017A0000E4BB4F90A100093236E30460193636E1A
:1017B000103902934FF6FF7248F21043FBF76DFDAC
:1017C00006E02046FFF722FE002160F3070977E7D5
:1017D0006DB0BDE8F08F00BF6DCD060826B80608D5
:1017E00030B544F64445AA4203D1BDE8304004F088
:1017F0005FBE44F64545AA4204D16421BDE83040AD
:1018000004F05CBD59B9042A09D146F267429342FB
:1018100005D14FF4C872BDE83040FFF769BE30BD56
:1018200070B5438986B0A3F11802153BADF81220BC
:10183000ADF816300546066EFBF73AFF4FF4C87454
:101840006643B6FBF0F06D6EADF81000FBF730FFAD
:1018500001356543BDF81030B5FBF0F5ADF8145017
:101860001AB22DB2AD1A012D07DC0233ADF81430D7
:101870001BB2A342C8BFADF8144004AC20464FF6DB
:10188000FF71FBF734FBBDF8102013B2002B0EDD07
:1018900002AB94E8030083E80300ADF80C2018467F
:1018A000002244F20821ADF80820FBF720FBBDF828
:1018B000142013B2B3F5C87F0FDA02AB04A903C931
:1018C00083E80300ADF8082018464FF4C87244F2CC
:1018D0000821ADF80C20FBF70AFBFBF713FF0446C9
:1018E000FBF7E6FE4FF4C8735C43BDF91210BDF977
:1018F00016301F22B4FBF0F0009201310246013B8A
:10190000FBF752FD06B070BD10B500214FF4C87250
:101910000446FFF7EDFD2046BDE81040FFF780BF0D
:10192000FFF7F2BF0B4B10B51A6804460132132AB9
:101930001A6001DD00221A60196814234A1C20462F
:1019400059435A43FFF7D4FD2046BDE81040FFF746
:1019500067BF00BFA8A5002010292DE9F04104466B
