:020000040800F2
:10C0000000000120E93C0508FD3A0508FF3A050853
:10C01000013B0508033B0508053B0508000000003F
:10C02000000000000000000000000000093B0508BF
:10C03000073B0508000000000B3B05080D3B050809
:10C040000F3B0508113B0508133B0508153B050888
:10C05000173B0508193B05081B3B05081D3B050858
:10C060001F3B0508213B0508233B0508253B050828
:10C07000273B0508293B05082B3B05082D3B0508F8
:10C080002F3B0508313B0508333B0508353B0508C8
:10C09000393B05083D3B05083F3B0508413B05088A
:10C0A000433B0508453B0508473B0508493B050858
:10C0B0004B3B05084D3B0508613C0508633C050802
:10C0C000653C0508673C0508693C05086B3C0508AC
:10C0D0006D3C05086F3C05087D3C05087F3C050864
:10C0E000813C0508833C0508853C0508873C05081C
:10C0F000893C05088B3C05088D3C05088F3C0508EC
:10C10000913C0508933C0508953C0508973C0508BB
:10C11000993C05089B3C05089D3C05089F3C05088B
:10C12000A13C0508A33C0508A53C0508A73C05085B
:10C1300044534F5F4150503A204761626F6E6174C3
:10C140006F72277320616C7465726E6174697665B5
:10C150002055493B416C7465722055493B476162EB
:10C160007269656C2056616C6B7920323031333BDB
:01C1700000CE
:020000040804EE
:10C0000020B10368197003680133036070472DE99C
:10C01000F041161E04460D4614DD002200E00132F8
:10C02000A95C0029FBD1B24203F00208B4BFC2EB05
:10C0300006060E46B8F1000F0CBF4FF020084FF077
:10C04000300801E04FF0200813F0010709D105E0A6
:10C0500020464146FFF7D4FF0137013E002EF7DCB2
:10C0600005E0002703E02046FFF7CAFF013715F877
:10C07000011B0029F7D105E020464146FFF7C0FF2C
:10C080000137013E002EF7DC3846BDE8F0812DE98E
:10C09000FF410A9F05460B9EDDF830C08E4651B920
:10C0A00030238DF804308DF805103A4601A9334647
:10C0B000FFF7ADFF3CE03BB10A2A07D1002905DAC2
:10C0C000C1F1000E012402E01C4600E0002404A996
:10C0D000002301F8013D0EE0BEFBF2F302FB13EE7C
:10C0E000BEF1090FC4BFACF13A0086440EF1300E28
:10C0F00001F801ED9E468846BEF1000FECD184B1F7
:10C100004FB116F0020F06D028462D21FFF778FF19
:10C11000013F012405E02D2301F1FF3801F8013C26
:10C120000024284641463A463346FFF770FF00197F
:10C1300004B0BDE8F0812DE9F0478AB006460D460F
:10C1400005920024DBE0252B40F0D38015F8013F59
:10C15000002B00F0D880252B00F0CB802D2B02D1B6
:10C1600001352C3B03E0002301E043F002032946A4
:10C1700015F8012B302AF8D0002702E00A2202FB32
:10C1800007070A780D46A2F130005FFA80FC013102
:10C19000BCF1090FF2D9732A09D1059A3046111D55
:10C1A000059111685C4A002908BF11469DE0642A88
:10C1B0000ED1059A01936123111D029300970591F9
:10C1C00030461168603B0A22FFF761FF241895E0B2
:10C1D000662A54D1059B073323F0070303F10802B5
:10C1E000D3E9000105921BF0A3F9002180461BF062
:10C1F0009BFC38B12D238DF8183008F100480DF163
:10C20000190A01E00DF1180A40461BF0B5FC0123A4
:10C2100000E013460A225A439042FADA90FBF3F206
:10C2200002F1300103FB12000A2293FBF2F30AF839
:10C23000011B002BF2D124328AF80020002F08BF06
:10C240000327994640461BF097FC1BF07BFA0146FA
:10C2500040461BF0C1F931491BF0C8FA80461BF07B
:10C260008BFC09F101093030B9450AF8010FE9DB0F
:10C2700000228AF80120304606A9202336E0782AD9
:10C280000AD1059A01936123111D0097029305912C
:10C2900030461168102219E0582A0BD1059A0193F3
:10C2A0004123111D02930097059130461168413BCF
:10C2B000102289E7752A0BD1059A01936123111D7C
:10C2C000009702930591304611680A22613B7BE793
:10C2D000632A13D1059A3046111D126805918DF815
:10C2E000242000228DF8252009A93A46FFF78FFE69
:10C2F0006CE730462978FFF783FE013401352B784F
:10C30000002B7FF420AF16B1336800221A7020464C
:10C310000AB0BDE8F08700BF6CB0060800002041FD
:10C32000014BD86C80B2704700240140014B186863
:10C33000704700BFA8A6002001461420B7F786BFAB
:10C34000034B18801A8892B2002AFBD1704700BFB5
:10C35000B4A60020044B10B5196804460320B7F7B3
:10C3600075FF024B1C8010BD00300020B6A60020D7
:10C3700030B5002308E00A24B0FBF4F104FB1100FF
:10C380003030D054013388B2084A0028F3D1D05459
:10C390005910013BD31804E0145C5D7815545C70AF
:10C3A0000130013B8842F7DB004830BD9C32002061
:10C3B00008B506200021B7F74DFF5A234343A3F5E4
:10C3C0008223A3F56B6340F2145093FBF0F00A3024
:10C3D0006428A8BF642020EAE07008BD0128ACBF33
:10C3E000014601210220B7F731BF00EBD070024BAC
:10C3F00040101860704700BF00300020052810B5BD
:10C4000008D8054B53F8204024B1206807F024FBDE
:10C410006368984710BD00BF60A10608052898BF53
:10C42000174B30B59ABF03EB80008369002303F5F7
:10C4300048711A461046134C52F8045BA5421ED0B0
:10C440008A42F7D11A6810495D6802EA0101B1F128
:10C45000005F9C68D8680FD19D420DD995420BD2E0
:10C460009C4209D9944207D2984207D9074B90427F
:10C4700034BF1846002030BD002030BD002030BD44
:10C4800060A1060844534F5FFF0000FF73B0060829
:10C49000C0B2B7F7DBBE47F26623984201D1B7F7C7
:10C4A000C9BEC0B2B7F7D6BE43680A6823F470238A
:10C4B00023F4807313430A7910B543EA02234360DF
:10C4C0008A68CB6884681A43094B04EA030342EA8A
:10C4D00003034A7943EA420383600B7CC26A013B4F
:10C4E00022F47002DBB242EA0353C36210BD00BF04
:10C4F000FDF7F1FF00230360037143718360C360A4
:10C5000001330374704719B1836843F0010302E0FB
:10C51000836823F001038360704719B1836843F493
:10C52000807302E0836823F4807383607047C9B22C
:10C5300012B14368194302E0436823EA01014160F4
:10C540007047836843F00803836070478068C0F3D6
:10C55000C0007047836843F00403836070478068BD
:10C56000C0F38000704719B1836843F4A00302E070
:10C57000836823F4A003836070478068C0F3805011
:10C5800070474368013923F4604343EA4133436011
:10C59000704719B1436843F4006302E0436823F431
:10C5A000006343607047092970B54FEA41040BD915
:10C5B00064181E3C0725A540A340C66826EA050569
:10C5C00045EA0304C4600AE064180725A54013FA8D
:10C5D00004F4066926EA050545EA04030361062A10
:10C5E0000CD8013A02EB82021F2393409140446B26
:10C5F00024EA030343EA0102426370BD0C2A4FEAB6
:10C6000082030BD89A18233A1F2393409140046B5E
:10C6100024EA030343EA0102026370BD9A18413A17
:10C620001F2393409140C46A24EA030343EA0102B2
:10C63000C26270BD19B1836843F4801302E083685D
:10C6400023F4801383607047C06C80B27047014B45
:10C65000186870474C24014019B1436843F4806363
:10C6600002E0436823F480634360704719B1436874
:10C6700043F4805302E0436823F4805343607047DF
:10C68000836823F4E04341EA03038360704719B1F0
:10C69000836843F4004302E0836823F4004383602B
:10C6A000704719B1836843F4021302E0836823F4EE
:10C6B0000213836070478068C0F3405070470929B7
:10C6C00070B54FEA41040BD964181E3C0725A540FC
:10C6D000A340C66826EA050545EA0304C4600AE0EB
:10C6E00064180725A54013FA04F4066926EA05052F
:10C6F00045EA04030361836B03F440146FEA1454A6
:10C7000012190332D2B202EB82021F2494409140EC
:10C7100023EA04030B43836370BD836B013923F465
:10C72000401343EA01538363704782B00A5002B05A
:10C73000704782B001902830405880B202B07047F4
:10C74000436823F4400323F4007341EA0303436086
:10C750007047416282627047436823F01F0341EAD9
:10C76000030343607047054B18B19A6842F4000216
:10C7700002E09A6822F400029A60704700240140A7
:10C78000036819420CBF002001207047C9430160B3
:10C7900070474368006810EA112004D0C9B21942FA
:10C7A0000CBF0020012070476FEA11210160704723
:10C7B000044B11B1DA68104302E0DA6822EA0000A3
:10C7C000D86070470010024007B5124B01909842A4
:10C7D0000DD0114B984212D0104B984219D14FF402
:10C7E00000700121FFF7E4FF4FF400700EE04FF4FA
:10C7F00080600121FFF7DCFF4FF4806006E04FF41A
:10C8000000400121FFF7D4FF4FF400400021FFF763
:10C81000CFFF0EBD00280140003C01400024014034
:10C82000044B11B15A69104302E05A6922EA000030
:10C830005861704700100240044B11B19A691043CF
:10C8400002E09A6922EA00009861704700100240F5
:10C8500008B50120FFF787FF10210A4801220523B0
:10C86000FFF7A1FE0120FFF76BFD06480121FFF74E
:10C870007AFE02210348FFF783FF0128F9D1FFF771
:10C880004FFD08BD0024014008B50120FFF76BFFF4
:10C8900011210A4801220523FFF785FE0120FFF739
:10C8A0004FFD06480121FFF75EFE02210348FFF716
:10C8B00067FF0128F9D1FFF733FD08BD00240140CF
:10C8C000024B0E2202FB0030704700BF90A1060809
:10C8D000034B18801A8892B2002AFBD1704700BF20
:10C8E000B4A60020044A4FF4805313604FF0C042B6
:10C8F0001080024A13607047141401401014014064
:10C9000010B5EF20FFF7EEFF4FF0C0431A881C88E8
:10C9100018881A881988C3B2C9B241EA046141EA89
:10C920000343120643EA1242014B9A6010BD00BF56
:10C930009C320020054B4FF480521A604FF0C043E8
:10C940001880034802601980704700BF141401402A
:10C95000101401402DE9F041E9204FF0C044FFF7E9
:10C96000C1FF202222801120FFF7BCFF6420FFF7C7
:10C97000AFFFD120FFF7B6FF002517225E232580E9
:10C98000D02023802280FFF7ADFF0C2607232380D1
:10C99000362023804FF040082680FFF7A3FF304663
:10C9A000A4F800804936FFF79DFF26803A20FFF764
:10C9B00099FF2680C120FFF795FF533E1023238067
:10C9C000C020238026802680FFF78CFF0127352397
:10C9D0002580C52023802580258027802680FFF79D
:10C9E00081FF2780D220FFF77DFF22232780C820E8
:10C9F0002380FFF777FF732237232780228023804D
:10CA000004220F2325802380268022806722A4F819
:10CA10000080228025808022268023800823238096
:10CA2000292022802580FFF75DFF2C20BDE8F04102
:10CA300058E7002008B50146FFF77CFF00200146BB
:10CA4000FFF778FF00200146FFF774FF0020014642
:10CA5000FFF770FF0A20FFF73BFF01214FF4C06092
:10CA6000FFF768FF0A20FFF733FF40214FF4DE6035
:10CA7000FFF760FF0A20FFF72BFF4FF480604FF4B1
:10CA8000C441FFF757FF082040F60801FFF752FFA7
:10CA900001204FF48071FFF74DFF02204FF48071A9
:10CAA000FFF748FF03203021FFF744FF0920012151
:10CAB000FFF740FF0C200021FFF73CFF90204FF4D0
:10CAC0000041FFF737FF0F200021FFF733FF102051
:10CAD0001621FFF72FFF112040F20111FFF72AFF67
:10CAE00012200021FFF726FF13200121FFF722FF6C
:10CAF0004FF480704FF44C71FFF71CFF40F20110AF
:10CB000040F23721FFF716FF40F203104FF4706137
:10CB1000FFF710FF4FF420704FF4D641FFF70AFFE4
:10CB20004CF2B0114FF48170FFF704FF6420FFF75F
:10CB3000CFFE4FF440704FF44061FFF7FBFE40F230
:10CB4000013045F60B21FFF7F5FE40F2023040F6CA
:10CB50000611FFF7EFFE40F2033041F21701FFF735
:10CB6000E9FE4FF441704FF40C51FFF7E3FE40F241
:10CB700005304FF4B851FFF7DDFE40F2063046F2C3
:10CB80000931FFF7D7FE40F2073040F60941FFF7C1
:10CB9000D1FE4FF4427041F20C01FFF7CBFE40F2A0
:10CBA000093042F23221FFF7C5FE4FF40470002134
:10CBB000FFF7C0FE40F21120EF21FFF7BBFE40F26D
:10CBC00012200021FFF7B6FE40F2132040F28F1131
:10CBD000FFF7B0FE4FF4A0600021FFF7ABFE40F27C
:10CBE00001500021FFF7A6FE40F202500521FFF799
:10CBF000A1FE40F201400121FFF79CFE002140F21E
:10CC00000440FFF797FE6420FFF762FE4FF4807147
:10CC10000720FFF78FFE6420FFF75AFE4FF40070E5
:10CC20000021FFF787FE002140F20120FFF782FE7E
:10CC3000054A4FF48053136040F202214FF0C04286
:10CC40001180024A136008BD141401401014014001
:10CC500070B5104C4FF480534FF4006523600120F1
:10CC60002560FFF735FE0C4B0A201D60FFF730FEF4
:10CC700032202560FFF72CFEFFF742FE074B9A6833
:10CC8000074B9A4202D1BDE8704063E6BDE87040B0
:10CC9000CFE600BF10140140141401409C32002064
:10CCA000279304020B4B10B59A680B4B4FF0C0440E
:10CCB0009A4209D12E20FFF715FE238824882C20C4
:10CCC000A4B2FFF70FFE02E023882488A4B2204616
:10CCD00010BD00BF9C320020279304020EB403B5A0
:10CCE00003AA52F8041B019001A80092FFF723FA4F
:10CCF000BDE80C4003B07047AAE713B502AC24F8B6
:10CD0000020D00200146B7F781FA20464BF680312C
:10CD1000B7F78AFAB7F784FA20464BF68031B7F7AF
:10CD200083FAB7F77DFA1CBDC1F1EF0110B580B2EF
:10CD300089B21446B7F76AFA2046BDE81040B7F743
:10CD400067BAC1F1EF0110B580B289B2B7F75EFAE8
:10CD5000BDE81040B7F788BA38B5151A5C1A6C43AD
:10CD60004BF67F35AC4280B202F1FF35C3F1F002E1
:10CD70000FD9C1F1EF0392B2A9B29BB26508B7F720
:10CD80004DFA04A8A9B2B7F74FFA641BB7F748FAEF
:10CD900006E0C1F1EF0392B2A9B29BB2B7F73EFA37
:10CDA00004A8A1B2B7F740FAB7F73AFA002040F268
:10CDB0008F110246EF23B7F731FA38BD37B50D466C
:10CDC000B0F9021004464B1CB0F90000B4F904207D
:10CDD0000095FFF7C1FFB4F90630B4F90000591E01
:10CDE000B4F904200095FFF7B7FFB4F90000B4F9D7
:10CDF0000210421CB4F906300095FFF7ADFFB4F9FC
:10CE00000420B4F90210B4F90630501E0095FFF763
:10CE1000A3FF3EBD2DE9F14F0A9C1E460B9B8846A1
:10CE20001746511E04EB4309C6F1F002C8F1EF03A7
:10CE3000054689B280B292B29BB2B7F7EFF9A2462B
:10CE40000CE03AF8020BB7F7E3F9CA4508BFA2466F
:10CE50000BF1010BBB45F4DB08F10108B04501DA29
:10CE6000AB46F7E7002040F28F110246EF2301B0F6
:10CE7000BDE8F04FB7F7D2B92DE9F843B0F800801C
:10CE8000044689461FFA88F7002614E0B4F90650D4
:10CE900009E0C5F1EF01384689B2B7F7B7F9FFF7F6
:10CEA00001FF29F8020BB4F90230013D9D42F0DA8E
:10CEB00001370136BFB20FFA88F2B4F90430B21864
:10CEC0009A42E3DBBDE8F8832DE9F047C288438846
:10CED0000D468188C2F1F0020139C3F1EF03044627
:10CEE00089B2008892B29BB2B7F798F90026B4F8DD
:10CEF000028010E0B4F80090002703E035F8020B40
:10CF0000B7F786F90FFA89F2B4F90430BA18013785
:10CF10009A42F3DB01360FFA88F2B4F90630B21800
:10CF20009A42E7DB002040F28F110246EF23BDE872
:10CF3000F047B7F773B913B50346B3F90240B3F935
:10CF40000420B0F90000B3F9063000912146FFF744
:10CF500003FF1CBD0268034BDA6042681A61026875
:10CF60005A6170479C32002010B50B4C0246B4F950
:10CF70001610B4F91400FFF7D7FEA38AB4F91020F5
:10CF80000133A3821BB29A4204DCA389A382E38A01
:10CF90000133E38210BD00BF9C32002070472DE9B1
:10CFA000F74F99460C9B0191924613F801BB054639
:10CFB00000241DE018F8013BFBB113F0040F4FF6FD
:10CFC0001E0305D09A450AD028463146524604E051
:10CFD000994504D0284631464A46FFF7A5FE013759
:10CFE00001365F454346E5DB01340135502C03D063
:10CFF000019E98460027F4E708242046BDE8FE8FEE
:10D000002DE9F0411E460F46B6B2C7F1F0071446AF
:10D010000546B7F70BF9B91BA8B289B2B7F7F6F80E
:10D0200020463146B7F7FEF8BDE8F041B7F7F8B84B
:10D0300030F0030309D131F0030208D140EA810046
:10D040000449091891F8300E7047002070471846BF
:10D05000704700BF60A106082DE9F04F85B0044677
:10D060009A469DF839009DF838300D4616469DF8D1
:10D070003AB002900393274645E0C5EB0A01701EC3
:10D080000139C01B3B1BC8EB01019842A8BF1846E1
:10D090004145A8BF4146FFF7CBFF68BBC9F1EF018F
:10D0A00089B2B8B2B7F7B2F8B7F7DEF81A4BC100D9
:10D0B00001F0FF01C208000A00EA0303C1EB0B0004
:10D0C0000190DDF808C0039802F0FC02C2EB0C0EE0
:10D0D000C3EB000C03EB6C03DDF804C0DB1001EBC9
:10D0E0006C00C01040EAC32302EB6E00801043EADC
:10D0F000401080B2B7F78CF809F1010908F1010876
:10D10000D145BADB0137B74203DAA9464FF0000830
:10D11000F6E705B0BDE8F08FF8FF07002DE9F74FFF
:10D1200006468A4615461C46BDF830B088462DE0B6
:10D130000AF10303984509D1E71E414630462A46C5
:10D140003B46CDF800B0FFF707FEB846B1460027D2
:10D1500018E0A81B0138611EC01BC8EB0101CAEB17
:10D160000803B842A8BF38469942A8BF1946FFF73E
:10D170005FFF20B9484641465A46FFF7D5FD09F101
:10D1800001090137A945E4DB08F10108A045CFDB1F
:10D19000BDE8FE8F13B50346B3F90240B3F904208E
:10D1A000B0F90000B3F9063000912146FFF7B6FF51
:10D1B0001CBD2DE9F74F01909DF830001F460D462C
:10D1C0009246FFF77DFB4FF61E039F4283461DD11B
:10D1D00000241BF80480019F6FEA08085FFA88F8B2
:10D1E000082618F0800F04D0384661195246FFF720
:10D1F0009BFD013EF6B2013726B14FEA48085FFABF
:10D2000088F8EEE701340E2CE3D145E09A451FD1B2
:10D2100000241BF80490DDF804806FEA09095FFA26
:10D2200089F9082619F0800F04D1404661193A4661
:10D23000FFF77AFD013EF6B208F1010826B14FEA88
:10D2400049095FFA89F9EDE701340E2CE1D123E0B9
:10D2500000241BF80490019E6FEA09095FFA89F91E
:10D260004FF0080819F0800F08F1FF38304614BF5E
:10D2700052463A4629465FFA88F8FFF755FD0136CF
:10D28000B8F1000F04D04FEA49095FFA89F9E9E7DC
:10D29000013401350E2CDCD10820BDE8FE8F2DE9CC
:10D2A000F7430A9F05460E4691469846AFB1387837
:10D2B00018B913E00A2B02D110362C4607E0009370
:10D2C000204631464A464346FFF773FF241817F8B5
:10D2D000013B002BEED1601B00E03846BDE8FE8329
:10D2E000DDE72DE9F043A5B015462CAA0E4652F80D
:10D2F000041B07460DF1080823A899462292CDF891
:10D300008C80FEF718FF314604462A4638464B46C5
:10D31000CDF80080FFF7E4FF204625B0BDE8F0839C
:10D3200037B5124B05460C46009330211F232820A9
:10D330004FF6FF72FFF7D4FF20211F234FF6FF7235
:10D3400028200095FFF7CCFFA0B2FFF711F81021BD
:10D3500000904FF6FF7228201F23FFF7C1FF4FF404
:10D360007A7003B0BDE83040FEF7EABF7BB0060834
:10D3700008B502480421FFF7D3FFFEE78DB0060889
:10D380000FB430B5A5B028AA52F8041B02AC23A8EC
:10D3900023942292FEF7CFFE23941EE00A2B134C17
:10D3A00003D0A569B5F5C47F09DBE26900230E321D
:10D3B000E02AA361E2610DDD0C4AD3610AE000932B
:10D3C0002846E1694FF6FF724FF43043FFF7F1FE54
:10D3D0004019A061239B01332393239B1B78002BCF
:10D3E000DCD125B0BDE8304004B070479C3200204D
:10D3F0002DE9F74FC0EB020B5F1A1FFA8BFBBFB290
:10D400000FFA8BFA0FFA87F84FEADB3BFF0BBDF8F8
:10D410003090BAF1000FD4BFCBF1000BCBF1010B70
:10D42000B8F1000FD4BF7F42C7F10107BAF1000F76
:10D43000B8BFCAF1000AB8F1000FB8BFC8F10008C0
:10D440004FEA4A0A4FEA480800921FFA8AFA1FFA7E
:10D4500088F84A46019304460D460FFA8AF6FFF70C
:10D4600063FC0FFA88F39E4220DB1FFA88F8A8EBD2
:10D470006606B6B216E016F4004F09D11EB94FFA8F
:10D480008BF3002B04DD7BB2CAEB0606ED18B6B2B7
:10D490004FFA8BF3E4184644204629464A46B6B272
:10D4A000FFF742FC009B9C42E5D11EE01FFA8AFA7E
:10D4B000AAEB6306B6B215E016F4004F09D116B90F
:10D4C0007BB2002B05DD4FFA8BF3C8EB0606E418A0
:10D4D000B6B27BB2ED185644204629464A46B6B24B
:10D4E000FFF722FC019B9D42E6D1BDE8FE8F0020A4
:10D4F000FFF7E6B908B500210420B6F7ABFEC34339
:10D500009BB2C3F3802013F4006F1CBF40F00200F5
:10D5100080B213F4805F18BF40F4807013F0080FDE
:10D5200018BF40F0040013F4004F18BF40F008008B
:10D5300013F0400F18BF40F4007013F4804F18BF71
:10D5400040F0100013F4005F18BF40F0200013F407
:10D55000807F18BF40F0400013F4007F18BF40F0F8
:10D56000800008BD07B50B200021B6F773FE40B957
:10D57000074B303000931E211F224FF6FF73FFF739
:10D580008EFE1420002103B05DF804EBB6F75EBEFA
:10D59000B3B00608024B014618712420B6F756BEF8
:10D5A00000300020014B1879704700BF0030002088
:10D5B00070B50CE09C1804EBD474641050F824602F
:10D5C00025468E4201D2621C01E004D9631E9342BB
:10D5D000F0DA4FF0FF35284670BD2DE9F84F204CAA
:10D5E00007460E46154698460022152304F564604A
:10D5F0000C99FFF7DDFFB0F1FF3F9DF82890BDF8D3
:10D600002CA083462AD00C9A164B05209A60002144
:10D61000B6F71CFE09203946B6F718FE0A20314637
:10D62000B6F714FE00202946B6F710FE0B2041463F
:10D63000B6F70CFE0C204946B6F708FE04EB4B0487
:10D6400001205146B6F702FE0720B4F8981EB6F73F
:10D65000FDFD0820B4F8C41EB6F7F8FDBDE8F88F4C
:10D6600060A106080030002008B503200021B6F7AD
:10D67000F1FDC0B208BDB6F7DDBD08B50620012139
:10D68000B6F7E4FDFEF752FE014B186208BD00BF7D
:10D690009C3200202DE9F04106460C4622203146FE
:10D6A00015461F46B6F7D2FD21202146B6F7CEFD1E
:10D6B000202047EAC501BDE8F041B6F7C7BDB0F587
:10D6C000805F70B503DD0A48CA21FFF729FE094CC7
:10D6D00004F580452668FFF7CEFF06F07F4620F070
:10D6E0007F4040EA060644F8046BAC42F2D170BDBC
:10D6F000CCB00608C03200204FF480507047B0F51F
:10D70000805F10B5044603D30348DB21FFF708FE12
:10D71000024800EB840010BDCCB00608C0320020E7
:10D7200010B500210220B6F795FD00210120B6F7C3
:10D7300091FD002100F001040320B6F78BFD10F0ED
:10D74000010F18BF44F00204204610BD08B5FEF7D3
:10D75000EDFD0B4B1B6AC01A19F0F4FF09491AF0D2
:10D76000F9F8094B99681AF0F5F808491AF03EF8EB
:10D770001AF002FAB0F5805FA8BF4FF4805008BDE0
:10D780009C32002000007A44003000200000F0416C
:10D79000034670B510200C4619461546B6F756FDDF
:10D7A00011202146B6F752FD12202946BDE87040EF
:10D7B000B6F74CBD094B10B51A68094C22F00102AE
:10D7C0001A60084A146043F2B0521A60064A1160A7
:10D7D00090601A6842F001021A6010BD44040240D1
:10D7E000087400404C04024048040240034B0121ED
:10D7F000A3F83C0D03F552601C30DBE78465002084
:10D8000001460D20B6F722BD00487047C2720020C5
:10D8100008B5034602730020012A587305D11A4641
:10D8200009480833B6F732FD06E0022A09D11A4644
:10D8300005480833B6F728FDD0F1010038BF0020B5
:10D8400008BD012008BD00BFC272002008B5034614
:10D8500008461946B6F71CFDD0F1010038BF00207C
:10D8600008BD10B5044608462146B6F713FD20B999
:10D87000637B01300133637310BD002010BD10B510
:10D88000037B0446022B10D1B1F1FF3F08BF417B5F
:10D89000224608BF4902074804F10803B6F7FCFC1A
:10D8A00028B903232373013010BD012010BD0020CF
:10D8B00010BD00BFC2720020024B034A93FBF0F37D
:10D8C0001381704700A24A040038014005E0054A70
:10D8D000118811F0800FFAD0938010F8013B002BD3
:10D8E000F5D17047003801400F4B10489A6942F457
:10D8F00080429A610E4A40F27123138142F22C0356
:10D900009381138823F4A46323F005031B041B0CE9
:10D910001380084B5A6822F47F6242F40A625A600C
:10D920004FF480621A61D1E700100240F6B0060899
:10D93000003801400008014010B54FF4FA70FEF7BE
:10D94000FFFCFFF7D9F9FFF70DFEBDE81040CBE76C
:10D9500006F0B4B8034B1A8812F0800FFAD0988002
:10D96000704700BF003801400E200021B6F772BC9E
:10D970000D200021B6F76EBC0F200021B6F76ABC5F
:10D9800010200021B6F766BCB6F758BC014B98686A
:10D99000704700BF9C3200202DE9F0433F3189B031
:10D9A000234B804687B28CB2ADF1020213F8010C12
:10D9B0001978C0108910C002490141185878043301
:10D9C00001EBD00122F8021F1A498B42EED11A4E08
:10D9D0003D4616F8013B08AA1B0902EB4303284603
:10D9E0000135214633F8202CADB208F1FF09FFF7CD
:10D9F0009BF94D4502DD013CA4B23D4616F8013CC1
:10DA000008AA03F00F0302EB430328460135214621
:10DA100033F8202CADB2FFF787F94D4502DD013C0C
:10DA2000A4B23D46054B9E42D3D109B0BDE8F08378
:10DA300037D8030877D8030876D8030876F80308A0
:10DA4000002070470020704700207047002070477A
:10DA5000034B03EB8003D3F8F00E40EA81007047DC
:10DA600060A106080F2A70B505460C46164603D974
:10DA700012482421FFF754FC0F2C03D90F4825210D
:10DA8000FFF74EFC072C0E4B4FEA850503DC5D19B2
:10DA9000D5F8F03E05E05D19D5F8F03E04F0070436
:10DAA0000433A4000F22A24016FA04F4196821EAF4
:10DAB000020242EA04041C6070BD00BF05B1060802
:10DAC00060A10608074B03EB8003D3F8F03E01206A
:10DAD0001AB110FA01F11961704710FA01F1596198
:10DAE000704700BF60A1060801228A40054B03EB86
:10DAF0008003D3F8F03E9B681A420CBF002001203F
:10DB0000704700BF60A10608704700BF0368002B84
:10DB100002DA0023036070478B42C8BF0160704780
:10DB2000014B1860704700BFC47400207047014B60
:10DB300018687047C474002037B5FEF7F7FB294C0E
:10DB40002368B3F1FF3F08BF20602368C51AB5F50D
:10DB50007A7F0ED94FF47A72B5FBF2F502FB0533EA
:10DB600020490B6005F0DCFB00F53050C36BED186D
:10DB7000C563FFF7BFFCADF8060000B9A08005F053
:10DB8000CFFB00F544500DF106011C3004F09CFD64
:10DB900005F0C6FB00F544501C300DF1060104F001
:10DBA0009BFDBDF80630ABB105F0BAFB0221BDF814
:10DBB000062009F085FDBDF80620A3889A4206D00C
:10DBC000094B1B681B7A13B93220FEF7C3FBBDF863
:10DBD0000630A38005F0A4FB0321002209F070FDAC
:10DBE00001203EBD10300020C8A6002010B5FFF770
:10DBF000A3FE05F095FB09F08CFA05F091FB0121DD
:10DC0000002209F05DFD15F08FF915F047F914F0C9
:10DC100095FFBDE81040FFF730BD00BF08B50368B1
:10DC200049421B6849B2984708BD0000014B18687B
:10DC3000704700BF20C60608704701207047436840
:10DC4000826819688A181A60704743688268196880
:10DC50008A1A1A6070470820704783681B78CB18AF
:10DC600005D4027B9342CCBF0020012070470020E6
:10DC7000704783681A7801321A70704783681A787F
:10DC8000013A1A7070478368197070478368187872
:10DC9000704702207047182070470220704700200C
:10DCA000704700207047082070470000034B1B6836
:10DCB000586A0028B8BF033080107047C8A60020FB
:10DCC0000020704719207047034B1B68986A002892
:10DCD000B8BF033080107047C8A6002000207047EE
:10DCE0001920704770477047436882681B68CB18DB
:10DCF000934205DBC0688342CCBF002001207047FF
:10DD00000020704743681A6801321A607047436800
:10DD10001A68013A1A60704702484FF48871FFF799
:10DD2000FFBA00BFFCBE060808B5034840F20F1159
:10DD3000FFF7F6FA002008BDFCBE060802484FF4C3
:10DD40008771FFF7EDBA00BFFCBE0608024840F23B
:10DD50000D11FFF7E5BA00BFFCBE060802484FF4FC
:10DD60008671FFF7DDBA00BFFCBE060808B50348A0
:10DD70004FF48571FFF7D4FA022008BDFCBE0608F7
:10DD800039B9042A05D146F26742934201D108F01D
:10DD900083BD704739B9042A05D146F267429342E0
:10DDA00001D108F079BD704739B9042A05D146F28E
:10DDB0006742934201D108F06FBD7047C36A70B5E6
:10DDC00004460D461BB90B484221FFF7A9FA15F08E
:10DDD000100F08D0E168E36A204646F66352BDE8BA
:10DDE000704008F064BD20462946BDE8704008F048
:10DDF000D4BD00BF16BF060811F0100F70B5054660
:10DE00000C4605D0C16846F66F52002308F04FFD5E
:10DE100028462146BDE8704008F0BFBD11F0010F53
:10DE200070B504460D4615D0C06A012103685B68D1
:10DE3000984701280ED1E06A00210368DB68984703
:10DE4000204608F029FD2046E16847F27052002381
:10DE500008F02DFD15F0020F15D0E06A01210368CE
:10DE60001B68984701280ED1E06A002103689B686F
:10DE70009847204608F010FD2046E16847F27052AE
:10DE8000002308F014FD15F0100F0ED0E06A0368AF
:10DE9000DB699847084B1B68984206D02046E1682A
:10DEA00046F66542E36A08F002FD20462946BDE8D1
:10DEB0007040FFF7A1BF00BF20C6060811F0010F98
:10DEC00070B504460D460DD0C36A002B0ADD013B38
:10DED000C36208F0E1FC2046E16846F675120023B3
:10DEE00008F0E5FC15F0020F0ED0E36A132B0BDCF3
:10DEF0000133E362204608F0CFFC2046E16846F695
:10DF00007512002308F0D3FC20462946BDE8704076
:10DF1000FFF772BF11F0010F70B504460D460DD02A
:10DF2000C36A012B0ADD013BC36208F0B5FC204641
:10DF3000E16846F67512002308F0B9FC15F0020FEF
:10DF40000ED0E36A1D2B0BDC0133E362204608F0A0
:10DF5000A3FC2046E16846F67512002308F0A7FCF2
:10DF600020462946BDE87040FFF746BF11F0200F5C
:10DF700070B505460C4606D0C06846F27852014698
:10DF8000002308F094FC28462146BDE8704008F0C4
:10DF900004BD000011F0010F70B504460D4615D008
:10DFA000006A012103685B68984701280ED1206A46
:10DFB00000210368DB689847204608F06DFC204686
:10DFC000E16847F27052002308F071FC15F0020F6F
:10DFD00015D0206A012103681B68984701280ED1DB
:10DFE000206A002103689B689847204608F054FC8B
:10DFF0002046E16847F27052002308F058FC15F003
:10E00000100F0ED0206A0368DB699847084B1B6825
:10E01000984206D02046E16846F66542236A08F039
:10E0200046FC20462946BDE87040FFF79FBF00BF71
:10E0300020C6060811F0010F70B504460D4615D034
:10E04000C06A012103685B68984701280ED1E06A25
:10E0500000210368DB689847204608F01DFC204635
:10E06000E16846F67512002308F021FC15F0020F56
:10E0700015D0E06A012103681B68984701280ED17A
:10E08000E06A002103689B689847204608F004FC7A
:10E090002046E16846F67512002308F008FC204689
:10E0A0002946BDE8704008F078BC0000C36A70B52E
:10E0B00004460D461BB91A482A21FFF731F915F01D
:10E0C000100F08D0E168E36A204646F66352BDE8C7
:10E0D000704008F0ECBBE36A1A79043AD2B2012A24
:10E0E00017D815F0010F08D0DA6812F1FE0F04DB23
:10E0F000013ADA60204608F0CFFB15F0020F08D095
:10E10000E36ADA68FE2A04DC0132DA60204608F0AD
:10E11000C3FB20462946BDE8704008F03EBC00BF66
:10E1200041BF0608C36A70B504460D461BB91D48B9
:10E130002221FFF7F5F815F0100F08D0E168E36A27
:10E14000204646F66352BDE8704008F0B0BB15F0BB
:10E15000010F0ED0E36A1A795AB1013A1A712046BA
:10E1600008F09AFB2046E16846F67512E36A08F06B
:10E170009EFB15F0020F0FD0E36A1A790B2A0BD819
:10E1800001321A71204608F087FB2046E16846F606
:10E190007512E36A08F08BFB20462946BDE8704003
:10E1A00008F0FBBB6FBF060830B5028400250122D2
:10E1B000456280F82820BDE8304008F031BB0000FF
:10E1C0007FB5043302AC05460E4693E8030084E8AD
:10E1D0000300BDF80E30284604339BB2ADF80A3078
:10E1E0000733ADF80E30044942F002022346009690
:10E1F00008F016FB7FBD00BF9EBF06087FB5043345
:10E2000002AC05460E4693E8030084E80300BDF81F
:10E210000E30284602339BB2ADF80A300733ADF812
:10E220000E30044942F002022346009608F0F8FA44
:10E230007FBD00BFAABF060830B5049D028401223D
:10E240004562BDE8304008F0EBBA2DE9FF410A9E77
:10E250000D4600214162028480F8283004464FF0C8
:10E260001108304608FB03F808F092FA5FFA88F8C4
:10E2700002AF68B1304608F08BFA043003C887E873
:10E280000300BDF80E3002339BB2ADF80A3006E051
:10E29000331D93E8030087E80300BDF80A30984473
:10E2A00020462946012202ABADF80E80009608F008
:10E2B000B7FABDE8FF81FFF7C8BF00002DE9F041C4
:10E2C000DDF81880044615461F460E4621B9084859
:10E2D0004FF40371FFF724F8204629463A460223FB
:10E2E000E662CDF81880BDE8F041FFF7AEBF00BF91
:10E2F000FCBE0608DBB2FFF7A8BFFFF7A6BF10B54C
:10E300000A24C462BDE81040FFF79FBF10B50A247D
:10E31000C462BDE81040FFF798BFFFF796BF00004A
:10E3200073B5044616460D4619B907480C21FEF789
:10E33000F7FFE5622046002146F20C3202230096E8
:10E34000FFF783FF7CBD00BF41BF060810B5052461
:10E35000C462BDE81040FFF778BF13B503469C6860
:10E360005B682478088853F82430B1F902100093D0
:10E370004FF6FF73002A14BF1A4600224FF61E0301
:10E38000FEF78DFF1CBD00002DE9F341274DB0F9CC
:10E3900006402B68B0F90460B3F84C20244B2146AA
:10E3A000009330460023FEF77AFF2B68214F93F845
:10E3B0004A30214657F82330801900934FF6FF72F8
:10E3C0000023FEF76CFF2B6806F16408B3F86020A9
:10E3D000194B2146009340460023FEF760FF2B684F
:10E3E000214693F85E30404457F823304FF6FF72D1
:10E3F00000930023FEF753FF104BC83600932146CD
:10E40000002330464BF29652FEF749FF2B688019E5
:10E4100093F898200A4B214653F822304FF6FF72AA
:10E4200000930023FEF73BFFBDE8FC81C8A6002057
:10E43000D3FD060824C70608B9FE0608B6BF0608BD
:10E440008CC7060813B504300021FEF774FD2D4B70
:10E45000402100930420002348F21042FEF71FFFE2
:10E46000294B50210093294C0023042048F21042EC
:10E47000FEF715FF60210023082044F208220094D3
:10E48000FEF70DFF224B702100930420002348F279
:10E490001042FEF704FF1F4B80210093042000234D
:10E4A00048F21042FEF7FBFE1B4B90210093042024
:10E4B000002348F21042FEF7F2FEB02100230820AC
:10E4C00044F208220094FEF7EAFE144BC0210093A8
:10E4D000042048F210420023FEF7E1FE104BD02149
:10E4E00000930420002348F21042FEF7D8FE0D4BA3
:10E4F00004200093E02148F210420023FEF7CFFEF3
:10E500001CBD00BFBABF0608CBBF0608D8BF0608AF
:10E5100001C0060818C0060834C0060845C0060831
:10E5200058C0060870C00608F7B50E88154B083E9F
:10E530004FF6FF75002A08BF0025B6B20C46074605
:10E54000B1F902102A46009330464FF61E03FEF73B
:10E5500026FD7B683618B6B2B4F902100093304637
:10E560002B464FF61E02FEF79AFE074B301800931B
:10E57000B4F902102A464FF61E0380B2FEF70FFDD3
:10E58000FEBD00BF221307089413070873B50446A5
:10E5900008F072F9A688144B083E4FF6FF75002864
:10E5A00008BF0025B6B2B4F9061000932A463046DB
:10E5B0004FF61E03FEF7F3FCE3693618B6B2B4F962
:10E5C0000610009330462B464FF61E02FEF767FEFC
:10E5D000064B30180093B4F906102A464FF61E0376
:10E5E00080B2FEF7DCFC7CBD2213070894130708F9
:10E5F00013B504464FF6FF710430FEF79CFCB4F9E6
:10E600000400B4F90A10054B0830009314390022B5
:10E610004FF61E03FEF743FE1CBD00BF7DC006087B
:10E6200008B583681A78436853F8220019F0C2FDD0
:10E63000C3004FF6F87003EA000008BD7FB54368D9
:10E6400004460D46164623B912484FF42F71FEF7C3
:10E6500067FE63681A68A36892FBF3F20A2392FBD1
:10E66000F3F103FB11220023ADF80C30303204AB80
:10E6700003F8042D4FF6FF720093B5F90000B5F9C9
:10E680000210002E08BF00224FF61E03FEF728FEE0
:10E690007FBD00BFFCBE060870B50E4615461C4681
:10E6A00008F06FF82A46014623463046BDE8704020
:10E6B00008F0FDB811F0130F70B505460C4607D0F1
:10E6C00008F05FF8022201462346284608F0EFF8DA
:10E6D00028462146BDE8704008F05FB911F0010FEF
:10E6E0002DE9F04104460D4616D0006A0121036869
:10E6F0005B68984780B1206A00210368DB6898470F
:10E70000204608F03EF808F0C7F8E06847F270527B
:10E71000C168002308F0CBF815F0020F16D0206A6C
:10E72000012103681B68984780B1206A00210368B3
:10E730009B689847204608F024F808F0ADF8E06898
:10E7400047F27052C168002308F0B1F815F00C0FC1
:10E750000FD00C4E204629463768FFF707FC336878
:10E76000BB420CD0204608F00CF8BDE8F04108F0A0
:10E7700093B820462946BDE8F041FFF7F7BBBDE856
:10E78000F08100BFDCA6002010B50C4607F0F9FFB1
:10E79000036821465B68984710BD11F0130F10B550
:10E7A0000C4606D007F0EDFF036821465B689847EA
:10E7B00010BDBDE8104008F0F0B8000011F0030FE4
:10E7C00010B507D0FFF736FC044B1868BDE81040C1
:10E7D00006F090BDBDE81040FFF72CBCC8A6002095
:10E7E00011F0030F10B507D0FFF724FC044B186895
:10E7F000BDE8104006F07EBDBDE81040FFF71ABC32
:10E80000C8A6002011F0030F10B507D0FFF712FCC7
:10E81000044B1868BDE8104006F06CBDBDE8104020
:10E82000FFF708BCC8A6002008B54368B3F900008C
:10E8300007F0C8FD19F0BEFCC3004FF6F87003EAFC
:10E84000000008BD4368F7B54FF6FF7604460D4655
:10E85000002A08BF00261BB913489721FEF760FD68
:10E860006368B5F900701868A368984202DBE36832
:10E8700098420ADD0D4BB5F9021000933846324636
:10E880004FF61E03FEF70BFD0CE000B2B5F9024097
:10E8900007F098FD21460090324638464FF61E0399
:10E8A000FEF71EFDFEBD00BF8AC00608A5C0060813
:10E8B0002DE9F0471F4647F270539A4204460D4631
:10E8C00016463FD100F1380399423BD1436A93F891
:10E8D0000480A8F104095FFA89F9B9F1010F8CBF2E
:10E8E0004FF000094FF00109B9F1000F06D0A8F16F
:10E8F0000503D3F1000848EB030801E04FF00108DD
:10E9000004F1A00A504608F0BEF8814506D04946F9
:10E91000504607F0D4FF4FF0010901E04FF0000925
:10E9200004F16C0A504608F0AEF8804504D0504619
:10E93000414607F0C4FF02E0B9F1000F02D02046C3
:10E9400007F0AAFF2046294632463B46BDE8F0477D
:10E95000FFF7A2BEF7B543680E881C88083E134B2C
:10E96000B6B20D462246B1F90210304600934FF67A
:10E970001E03FEF714FB36182046B5F9027007F0A7
:10E9800065FDB6B200903946234630464FF61E026A
:10E99000FEF7A6FC064B30180093B5F9021022468C
:10E9A0004FF61E0380B2FEF7FAFAFEBD22130708E7
:10E9B0009413070844F644418A4201D108F08EB905
:10E9C00044F645418A4202D1012280F82020704756
:10E9D00044F644439A4201D108F080B944F64543D5
:10E9E0009A4202D1642108F07FB8704770B50430B4
:10E9F00092B00021FEF79FFA01252824681EFDF73A
:10EA00000DFD0646D0B1284919F088FA034648B9E9
:10EA1000264A04200092214648F210420195FEF752
:10EA200060FC16E0224B04200093214648F210427D
:10EA3000002301950296FEF754FC0AE01D4B0420CA
:10EA400000932146334648F210420195FEF749FCF7
:10EA5000194E342205A8002119F05CF905AB06F126
:10EA60003002306871680836964203C3F9D13188A4
:10EA7000B27805AE19809A7030463B2119F0C8F97A
:10EA800008B1002303700420002304F110014BF2AD
:10EA9000965200960135FEF723FCB82C01D0303495
:10EAA000ACE712B070BD00BF73B00608B5C0060871
:10EAB000D6C00608FBC00608A7C0060811F0100F54
:10EAC00070B5044617D007F05EFE18B90A483D211C
:10EAD000FEF726FC204607F054FE0546204607F0C8
:10EAE00052FE0346DB692046294646F26452BDE8E1
:10EAF000704007F0DCBE70BD1CC1060873B50D4642
:10EB0000044614F063F815F0010F01902BD0002893
:10EB100029DD431F2E4E02A8642140F8043DFEF774
:10EB2000F5FF33680198C3F8CC0014F05DF814F0D9
:10EB30004DF8019B984205D03368D3F8C020013AC4
:10EB4000C3F8C020336803F1C000D3F8BC10FEF74F
:10EB5000DDFF204607F0A0FE2046E16846F675126C
:10EB6000002307F0A4FE15F0020F2CD0019B632BAD
:10EB700029DC053302A8164E642140F8043DFEF757
:10EB8000C5FF33680198C3F8CC0014F02DF814F0D9
:10EB90001DF8019B984205D03368D3F8C02001329C
:10EBA000C3F8C020336803F1C000D3F8BC10FEF7EF
:10EBB000ADFF204607F070FE2046E16846F675126C
:10EBC000002307F074FE20462946FFF715F97CBDA7
:10EBD000C8A6002001804280704710B58380BDF830
:10EBE000083001804280C38010BD00007FB5DE2365
:10EBF00005460E461446009300211622D33B02A878
:10EC0000FFF7EBFF2846044944F0020202AB0096EE
:10EC100007F006FE7FBD00BF3FC106087FB5152384
:10EC200005460E46144600930C21102202A84FF40C
:10EC30009C73FFF7D2FF2846034944F0020202AB5F
:10EC4000009607F0EDFD7FBD53C106087FB5F023A8
:10EC500005460E461446009300211022A03302A858
:10EC6000FFF7BBFF2846044944F0020202AB0096BE
:10EC700007F0D6FD7FBD00BF66C106087FB5F02353
:10EC800005460E461446009300211022A03302A828
:10EC9000FFF7A3FF2846044944F0020202AB0096A6
:10ECA00007F0BEFD7FBD00BF72C106087FB5F0232F
:10ECB00005460E461446009300211022A03302A8F8
:10ECC000FFF78BFF2846044944F0020202AB00968E
:10ECD00007F0A6FD7FBD00BF82C106087FB5F02307
:10ECE00005460E461446009300211022A03302A8C8
:10ECF000FFF773FF2846044944F0020202AB009676
:10ED000007F08EFD7FBD00BF92C1060870B5F023ED
:10ED100088B004460E461546009300211022A03309
:10ED200006A8FFF75AFF20461A4945F0200206AB15
:10ED3000009607F075FDB4F90A204FF49671009221
:10ED40004FF4A573103A04A8FFF747FF04F1400001
:10ED50001149012204AB009407F062FDB4F90A20C6
:10ED60004FF4B47100924FF4C373103A02A8FFF746
:10ED700034FF04F120000949012202AB009407F09E
:10ED80004FFD00232366FEF7B7FC0138606608B02C
:10ED900070BD00BFA3C10608B0C10608B5C1060812
:10EDA0007FB5F02305460E4614460093002110223D
:10EDB000A03302A8FFF711FF2846044944F01202CD
:10EDC00002AB009607F02CFD7FBD00BFBAC106085C
:10EDD0007FB5F02305460E4614460093002110220D
:10EDE000A03302A8FFF7F9FE28460349224602ABEA
:10EDF000009607F015FD7FBDCAC10608B0F90420D2
:10EE0000B0F90030D0184010704707B5B0F90030A5
:10EE1000B0F90410B0F90620C918B0F90230491051
:10EE2000D218521001A8FFF7D5FE019B00209AB21C
:10EE300062F30F001B0C63F31F400EBD10B5048876
:10EE4000091901804188521842808288D31A838030
:10EE5000C288029BD31AC38010BD10B50488611A02
:10EE6000018041888A1A428082889B188380029A96
:10EE7000C388D318C38010BDB0F90420B0F90030A6
:10EE8000D01A7047F0B587B004AC051D064695E86A
:10EE9000030084E80300012100220B462046009273
:10EEA000FFF7DBFF204648F21041FEF744F894E8F4
:10EEB0000300184B02AF1B6887E803002846B3F82D
:10EEC0009A40FFF7D9FFBDF80A3004FB00F2013386
:10EED000ADF80A3004F59674BDF80E304443013B9A
:10EEE000ADF80E30B388384603EB223203EB2434FE
:10EEF000BDF81430ADF80C40ADF8082024B21AB2B9
:10EF00009442C8BFADF80C300021FEF714F807B0EA
:10EF1000F0BD00BFC8A6002073B5051D0021044642
:10EF20002846FEF708F80F4B1B68B3F8AA60B3F841
:10EF30009A30F61A36B2002E12DB2846FFF79CFFF5
:10EF400086420DDAB4F90400074B04380093B4F993
:10EF50000610801946F20C324FF61E03FEF71FF81A
:10EF60007CBD00BFC8A600208E12070830B5051D65
:10EF700085B0044600212846FDF7DDFF384B80218F
:10EF800000930420002348F21042FEF788F9354B25
:10EF9000802100936F230193A0206F3B4BF2965288
:10EFA000FEF79FF9304B902100930420002348F294
:10EFB0001042FEF774F92D4B90210093A0200023FE
:10EFC0004BF29652FEF76BF9294BA02100930420D7
:10EFD000002348F21042FEF762F9264BA02000936E
:10EFE000014600234BF29652FEF759F9224BB0210D
:10EFF00000930420002348F21042FEF750F91F4B03
:10F00000B0210093A0204BF296520023FEF747F95F
:10F010001B4BC02100930420002348F21042FEF74E
:10F020003EF9184BC021009304230193013302934E
:10F03000033B03934BF29652023BA020FEF751F99B
:10F040002846FFF719FFB4F90610A0F5807000EB11
:10F05000D0704010183105B0BDE83040FEF79CBCC0
:10F06000D4C10608E6C10608F2C10608FCC10608BC
:10F0700004C206080EC206081BC206082BC20608F8
:10F0800040C2060852C20608F7B5061D0021054613
:10F090003046FDF750FF514B802148F2104200935B
:10F0A00004200023FEF7FBF8FEF762FC802100231A
:10F0B00000904BF29652A020FEF7F1F8484B9021B9
:10F0C00048F21042009304200023FEF7E8F8FEF710
:10F0D00053FC9021002300904BF29652A020FEF7A3
:10F0E000DEF8404BA02148F2104200930420002398
:10F0F000FEF7D5F8FEF744FC0090A020002301465F
:10F100004BF29652FEF7CBF8374BB02148F2104243
:10F11000009304200023FEF7C2F8FEF725FCB0217F
:10F1200000234BF296520090A020FEF7B8F8FEF7AD
:10F130002DFC2E4B0446009304200023C02148F2EE
:10F140001042FEF7ACF82A4B2A4F9C4204D02A4BBF
:10F150009C4203D064B114E0284B00E0284B00939C
:10F16000A020C0214BF296520023FEF798F811E040
:10F17000244BA0200093C0214BF296522346FEF769
:10F180008EF8A020C0214BF29652002300970194E4
:10F19000FEF7A7F81C4BD021009348F21042002341
:10F1A0000420FEF77CF8FEF7EFFBD02101904BF234
:10F1B00096520023A0200097FEF793F83046FFF701
:10F1C0005BFEB5F90610A0F5807000EBD070401022
:10F1D000183103B0BDE8F040FEF7DEBB5FC20608A1
:10F1E00071C2060881C206088FC206089CC20608C2
:10F1F00076676100C0C2060827930402ACC2060805
:10F20000B0C20608B8C20608C5C20608B0F9062092
:10F21000B0F90230D01A70470388CB180380838876
:10F22000C91843888180D3184380C388D218C2800C
:10F2300070470023038043808380C3807047B0F908
:10F240000420B0F900309A42D4BF0020012070475A
:10F250002DE9F04F00F126068BB004463046FFF74B
:10F26000EEFF0546002847D108AF04F1040898E8EE
:10F27000030087E8030001210A460B463846009147
:10F28000FFF7EBFD38464BF29651FDF797FD294607
:10F290004046FDF750FE48F21042ADF81650ADF86A
:10F2A0001850ADF81A50ADF81C50ADF814201935AF
:10F2B000B4F90400B4F90A3005AA2818009205220E
:10F2C0000192043B421CB4F906101935FDF7A2FD6A
:10F2D000FA2DEDD1E13DB4F9061005AB69180093A4
:10F2E00005230193B4F904004B1CB4F90820193527
:10F2F000FDF790FDC82DEED1236A002B00F0A7800A
:10F30000251D2846FFF7B8FD80462846FFF77EFFFB
:10F31000B4F90AA0323803902046AAF1190A07F07E
:10F32000ABFA60B1216BA38C01FB08F198FBF3F2FF
:10F3300002EBD27291FBF3F303EB620301E06FF097
:10F34000130330460293FFF77AFF18B9E084A4F85C
:10F350002A802BE0B4F90420B4F9263000259A4223
:10F36000A8BF1346E384B4F90820B4F92A30012178
:10F370009A42B8BF134663852A460B46304600952D
:10F38000FFF75CFD30462946FDF7D5FD01213046EB
:10F390002A460B460095FFF760FDB4F90410B4F956
:10F3A0000620304649425242FFF736FF4FF000092F
:10F3B000E58CCB4644E0A28C236A6A4392FBF8F2C8
:10F3C00033F81270B7F5805F03D322485D21FDF753
:10F3D000A7FF039AB4F92630574344BF07F57E6769
:10F3E0001F373F13B4F90420BFB29D4208BFBB468C
:10F3F000AA184FF6FF730093501EC7EB0A03CBEB1E
:10F400000A01FDF7F5FF029B9D4208BFB946033391
:10F410009D4212D1B4F904000F4B626B0638AAF179
:10F42000040100934019C9EB0101082A14BF1622F8
:10F430001F224FF61E03FDF7B2FD0135ADB2BB46EC
:10F44000B4F92A309D42B6DB3046FFF7F2FE0BB02E
:10F45000BDE8F08FD4C20608BC1C070813B50446EB
:10F46000B4F90220B0F90000B4F906300091114659
:10F4700000F10C02FDF752FEB4F90000B4F90210DD
:10F48000B4F90420B4F9063008304BF296540094D5
:10F49000FDF762FC1CBD37B50446B4F90250B0F963
:10F4A0000000B4F90420B4F906300238009129466E
:10F4B000FDF734FEB4F90000B4F90210B4F90420E9
:10F4C000B4F9063006304FF6FF740131013A013BC2
:10F4D0000094FDF723FE3EBD07B50346B0F90000DA
:10F4E0000022B3F90210B3F90630009200F10802CD
:10F4F000FDF732FC0EBD37B50446B0F90000B4F993
:10F500000210B4F90630002500F108020095FDF75D
:10F5100023FCB4F90420B4F90210B4F90630101F2A
:10F520000095FDF719FC3EBD436A37B504460BB1A3
:10F530001B880384204607F09FF9231D18B1184645
:10F54000FFF7D9FF02E01846FFF7C6FFA388204661
:10F550000433A38007F090F90546218C201D5DB18E
:10F56000FFF799FFE369B3B1B4F90400B4F90610E9
:10F5700000930C3000220AE0FFF770FFE36953B1FB
:10F58000B4F90400B4F9061000930C302A464FF683
:10F590001E03FDF784FEA388043BA3803EBD00004C
:10F5A000C36A2DE9F0431F795B79A7F10102574245
:10F5B00047EB020748F21048002F18BF4FF0000831
:10F5C000012B87B0044608D002D3022B0FD109E0EB
:10F5D0003A4B1B68B3F84C3008E0384B1B68B3F863
:10F5E000603003E0354B1B68B3F8C6310386204614
:10F5F000FFF79AFFE36AB4F904909A79304BB4F9B3
:10F60000065053F8223009F10E0600933046294681
:10F6100042464FF61E03FDF742FE002F4BD0E36A31
:10F62000284A99799F6852F82140384600211035C0
:10F6300018F07AFA68B1244B3046009342462946C6
:10F640004FF61E03FDF7ABFC07F100428619174683
:10F6500001E009F11406384617F0DCFC02460B46BF
:10F6600002A81A49FDF73AFB05E006AA02EB0903D6
:10F67000002203F8112C02AF384618F09BFD81469A
:10F68000204618F097FD48440728EED83046294612
:10F6900042464FF61E030097FDF722FE5CB1237829
:10F6A0004BB104363018294644F208224FF61E03A7
:10F6B0000094FDF7F4FD07B0BDE8F083C8A6002074
:10F6C000C0C80608F4C80608661C070800C3060878
:10F6D000F0B5C669002585B00446C561FFF724FF73
:10F6E000E661231D02AE93E803002A4686E8030084
:10F6F0002B46304610210095FFF7A0FBE3692A4610
:10F70000BDF90A100093BDF908004FF61E03FDF77E
:10F71000C6FDBDF80A3020461033ADF80A3007F0B8
:10F72000ABF80246002837D0BDF808701E4B083FE2
:10F73000BFB2BDF90A102A46009338B24FF61E0335
:10F74000ADF80870FDF72BFC3818ADF80800E06A3A
:10F7500003685B699847BDF90A100746BDF90800C0
:10F7600001F10E033A180095FDF7F6FAE06A31460A
:10F77000036801221B699847BDF80830BDF90A10DB
:10F78000FF180A4B38B200932A464FF61E03ADF815
:10F790000870FDF704FC04E0E06A314603681B6969
:10F7A000984705B0F0BD00BF22130708941307085F
:10F7B000F0B5044685B0FFF7B7FEB4F90450B4F9CC
:10F7C0000670E369103500932846394600224FF64B
:10F7D0001E03FDF764FD204607F1100607F04CF804
:10F7E00000282ED0234B31460022009328464FF6A6
:10F7F0001E03FDF7D4FB4519E06A1E3703685B69F9
:10F80000984732464319294602A80097FFF7E5F9C1
:10F81000002102A8FDF78FFBE76A20463B681D69BF
:10F8200007F02AF802A902463846A847124BBDF94C
:10F830000C000093314600224FF61E03FDF7AFFB8C
:10F8400015E0E06A1E3703685B699847294643194B
:10F85000324602A80097FFF7C0F9E66A20463368EF
:10F860001D6907F009F802A902463046A84705B00D
:10F87000F0BD00BF2213070894130708FFF754BE1A
:10F8800013B50446FFF750FE084BB4F9040000938B
:10F89000E36AB4F9061003EB830301931C301031C3
:10F8A00000224FF61E03FDF71CFD1CBDC9F506081E
:10F8B00013B50446FFF738FE084BB4F90400009373
:10F8C000E36AB4F9061003EB830301931C30103193
:10F8D00000224FF61E03FDF704FD1CBDC9F5060806
:10F8E00013B50446FFF720FE13F070F9B4F90430A5
:10F8F000B4F90610054A0190009203F11C00103182
:10F9000000224FF61E03FDF7ECFC1CBDC9F50608EE
:10F9100073B50546FFF708FEEB6AB5F90440B5F983
:10F9200006601B690E340022009331464FF61E0319
:10F930002046FDF7B4FCEB6A31461A79114B0019E9
:10F9400053F82230002200934FF61E03FDF7A7FC68
:10F95000EB6A06F110011A79052A01D10A4A06E07C
:10F96000042A03D0094A00929B6802E0084A0092E8
:10F97000DB680193204600224FF61E03FDF7B1FC21
:10F980007CBD00BF64C9060804C30608C9F50608A3
:10F990000BC30608C36AF7B51D79044648F2104345
:10F9A000002D0CBF1D460025FFF7BEFDB4F9047005
:10F9B000B4F906600C4B0E37009331462A463846A0
:10F9C0004FF61E03FDF76BFCE36A38461A79074BC6
:10F9D00006F1100153F822302A4600934FF61E0319
:10F9E000FDF75DFCFEBD00BF0FC3060830C9060869
:10F9F0007FB50646FFF798FD0E4BF06A009317F0AF
:10FA0000A1FE0D4917F0A6FF0C4917F0E7FD17F00E
:10FA100001FBB6F90450B6F906401C351034CDE9A7
:10FA200002010022284621464FF61E03FDF759FC2D
:10FA30007FBD00BF19C30608000020410AD7233C40
:10FA400073B5B0F90420B0F906300E46B0F90210D3
:10FA500004464FF4E045101F04310432043300958E
:10FA6000FDF75CFBB4F90630B4F90000B4F90420EA
:10FA7000191F0430043204330095FDF74FFBB4F92D
:10FA80000000B4F90210B4F9063000F10C0200963F
:10FA9000FDF744FBB4F90000B4F90420B4F90210F6
:10FAA000B4F906304BF296550830043A0095FDF74C
:10FAB00053F9B4F90420B4F90210B4F90630A2F1F4
:10FAC00008000095FDF72AFB7CBD73B5B0F9042052
:10FAD000B0F906300E46B0F9021004464FF4E04586
:10FAE000101F0431043204330095FDF717FBB4F9FD
:10FAF0000630B4F90000B4F90420191F04300432B0
:10FB000004330095FDF70AFBB4F90000B4F90210C4
:10FB1000B4F90420B4F906300096FDF7FFFA7CBD75
:10FB200030B5024685B00D460068516802AB02242C
:10FB300003C302A80021FDF72DFB2246234602A89D
:10FB400021460094FFF77AF902A82946FDF722FB27
:10FB500002A821460E2223460094FFF76FF902A85F
:10FB60004BF29651FDF716FB05B030BD73B5044658
:10FB7000051D218C2846FFF7D3FF2846FFF73EF9E5
:10FB8000E5690646284618F015FBB4F90610C0B220
:10FB90008000301A023100224FF61E030095FDF757
:10FBA0007EFB7CBDF0B589B0031D054604AC93E82F
:10FBB000030084E803001846298CFFF7B1FF2046B4
:10FBC000FFF71CF9EE690746304618F0F3FABDF965
:10FBD0001210C0B2800002310022381A4FF61E0304
:10FBE0000096FDF75CFB122104230A460093204691
:10FBF0000B46FFF723F9686A18F0DCFA074620463F
:10FC0000FFF703F9ADF80800C0F30F40ADF80A00A4
:10FC1000029E20460796FFF7F8F8ADF80800C0F3FB
:10FC20000F40ADF80A0002996B6AFF0036B2A6EBEE
:10FC300067060691091400933046073900224FF6F3
:10FC40001E03FDF72CFB09B0F0BDF0B585B0031D18
:10FC5000044602AD93E8030085E803001846218CB2
:10FC6000FFF75EFF2846FFF7C9F8E669074630460A
:10FC700018F0A0FABDF90A10C0B2800002310022CB
:10FC8000381A4FF61E030096FDF709FB12210423D4
:10FC9000009328460A460B46FFF7D0F8636ABDF981
:10FCA0000800BDF90A1000930430043100224FF619
:10FCB0001E03FDF7F4FA05B0F0BD4BF29651FDF7C7
:10FCC0003AB92DE9F041012104460026FDF742F939
:10FCD000D02514E0EB10DA024FEAA50842EA4818F2
:10FCE000204648EA0308FFF7C7F8074602E0404607
:10FCF000FDF73AF9013FFAD20D3DEDB2013620464B
:10FD0000FFF784FA8642E5DBBDE8F041FDF746B92E
:10FD100010B5044606F0B0FD231D20B91846BDE815
:10FD20001040FFF7CABF1846BDE81040FFF7C9BF33
:10FD30002DE9FF47044606F09FFD4FF6FF750028AA
:10FD400008BF00252046FFF7E3FFE369B4F904008C
:10FD50002A46B4F90610009304304FF61E03FDF74F
:10FD60009EFA206A01210368B4F904805B68984711
:10FD70008146206A0121036808F178071B689847CB
:10FD8000B9F1010F064607D1244BB4F906100093D0
:10FD900008F170002A460AE0B9F1000F0BD11F4BA1
:10FDA000B4F90610009308F1700048F210424FF6C3
:10FDB0001E03FDF7F4F8D4F820A0231D93E80300F8
:10FDC0000DF10809DAF8003089E803002046D3F87D
:10FDD0001080ADF80870ADF80C7006F04DFD494686
:10FDE00002465046C047206A03685B699847012E67
:10FDF000384405D10A4BB4F9061000932A4606E0B0
:10FE00004EB9074BB4F90610009348F210424FF672
:10FE10001E03FDF7C4F8BDE8FF8700BF18100708F0
:10FE20008A10070837B5054606F026FD4FF6FF7421
:10FE3000002808BF00242846FFF76AFFEB69B5F9E0
:10FE400004000093B5F90610043022464FF61E0355
:10FE5000FDF725FA3EBD13B50446FFF759FFE369E8
:10FE6000B4F904000093B4F90610043000224FF6F0
:10FE70001E03FDF714FA1CBDF0B585B0044606F06C
:10FE8000FBFC4FF6FF75002808BF0025204606F052
:10FE9000F3FC90B102AB221D92E8030083E803005B
:10FEA000BDF808201846083AADF80820BDF80C2027
:10FEB0000832ADF80C20FFF704FF204606F0DCFC0A
:10FEC00058B1174BB4F904000093B4F90610073881
:10FED0002A464FF61E03FDF762F8276A20463B6864
:10FEE0001E6906F0C9FC211D02463846B047206A4B
:10FEF000A78803685B6998470646204606F0BCFC65
:10FF000058B1084B3FB2781C0093B4F90610801921
:10FF10002A464FF61E03FDF742F805B0F0BD00BFBC
:10FF2000181007088A10070838B54FF61F039942C2
:10FF300004460A4607D0056961698068E3682818A5
:10FF4000C918FCF7F1FE6269236912F0010F07D0AE
:10FF5000591E002921610BDA01322361626138BD2B
:10FF6000A069591C8142216102DB01322361626177
:10FF700038BD10B500231A46416811F8014B4160A5
:10FF800004F07F019140073214F0800F43EA01032F
:10FF9000F2D1184610BD38B54FF0FF3303600B782F
:10FFA0000446472B0D461CD18B1C4360FFF7E1FF35
:10FFB000A0612046FFF7DDFFE0616B78422B10D196
:10FFC000234604F1200061680A4612F8015B626072
:10FFD00049780132626041EA05221A840233834281
:10FFE000F1D138BD03460068B0F1FF3F06D15A6831
:10FFF00012F8010B18605A60001170474FF0FF3281
:020000040805ED
:1000000000F00F001A60704770B5002406462546C0
:100010003046FFF7E7FFC0B200F00703AB400335FF
:1000200010F0080F44EA0304F2D1204670BD00002E
:100030002DE9F8434FF0FF3303600133036143615F
:100040008769C36904468160C260D0F804805F4359
:1000500001262FE0AEB12046FFF7D6FF451C204613
:10006000FFF7C0FF0026814607E009F11003204694
:1000700034F81310FFF758FF0136AE42F5DB0026C7
:1000800012E02046FFF7AEFF451C0AE02046FFF7CE
:10009000A9FF00F1100334F813102046FFF744FFC6
:1000A0000136AE42F2DB01267F1B03D5044848210E
:1000B000FDF736F9002FCDDCC4F80480BDE8F883E5
:1000C0001FC30608074A08481168084B30B5046882
:1000D000074DCB1805FB0433013103605804116050
:1000E000400C30BD18A6002018300020F3902400EA
:1000F00021F17D004162704773B5044616460D46F6
:1001000019B90C480D21FDF70BF90B4B00211B68A9
:100110002046B3F84C300A462386E5620223009657
:10012000FEF793F8204604F1300102B0BDE87040BC
:10013000FFF7E0BF16BF0608C8A6002073B5054646
:1001400016460C4619B90A480C21FDF7E9F8EC628D
:10015000284634F8062F002102230096FEF775F892
:100160002846214602B0BDE87040FFF7C3BF00BF7C
:100170006FBF06082DE9F0410C461546984600264B
:10018000A75B1FB94FF61F03A3530DE0FA082946DA
:1001900002F0FC02404606F0B1FAFA0AA053002130
:1001A000D20006F0ABFAA0530236202EE8D1BDE80B
:1001B000F08110B592B0044606F05EFB231D218C41
:1001C00070B11846FFF781FC616A21B302A8FFF7FE
:1001D000E2FE20460AA94EF210424FF6FF730DE0F0
:1001E0001846FFF72DFC616AA9B102A8FFF7D3FEFC
:1001F00020460AA94EF21C724BF29653FFF7BAFF43
:10020000089BB4F90810B4F90A20C91A099B02A87E
:10021000D21AFFF70DFFE369B4F904000093B4F9B3
:1002200006100C3000224FF61E03FDF738F812B00E
:1002300010BD4160826003737047000008B5037908
:10024000012B09D002D3022B0FD10AE08368188852
:1002500000F01F00400808BD83681888C0F3C31071
:1002600008BD83681888000B08BD03484FF48271ED
:10027000FDF756F8002008BD8AC0060830B54FF6D5
:10028000FF7585B00C46002A08BF0025FFF7D6FF92
:1002900006F0CCF800238DF80D3003AB8DF80C0080
:1002A0000093B4F90000B4F902102A464FF61E0379
:1002B000FDF716F805B030BD002908B50CDDFFF7D5
:1002C000BDFF0E288CBF0020012008BDFFF7B6FF40
:1002D000003818BF012008BDF8DB002008BD000071
:1002E0000379012B12D002D3022B2CD11DE082689E
:1002F000138823F01F031B041B0C0F2902D0490095
:10030000C9B200E01F2141EA03031AE082681388A2
:1003100023F4FC631B041B0C0F2902D08900C9B213
:1003200000E03F2143EA41130BE0826813885B053C
:100330005B0D0F2902D04900C9B200E01F2143EA3A
:10034000C1231380704702484FF48E71FCF7E8BF59
:100350008AC0060810B50446FFF770FF30B1411E91
:10036000C9B22046BDE81040FFF7BABF10BD10B5B6
:100370000446FFF763FF0E2806D8411CC9B2204689
:10038000BDE81040FFF7ACBF10BDC86840427047E1
:1003900010B5044606F084FB014B2046236010BDD7
:1003A00048B20608014B0360704700BF90B20608D0
:1003B00010B50446FFF7F6FF014B2046236010BD41
:1003C00068B2060810B50446FFF7ECFF014B204663
:1003D000236010BD58B6060810B5044606F060FB51
:1003E000014B2046236010BDD8B2060810B5044664
:1003F000FFF7F2FF014B2046236010BDB8B206089C
:1004000010B50446FFF7E8FF014B2046236010BDFE
:1004100038B8060810B5044606F060FC2046BDE872
:10042000104006F025BCFFF7F5BFFFF7F3BF000053
:1004300038B5184B1C6894F8B430052B11D1D4F89A
:10044000BC00013017F07EF90146134817F082FA1C
:100450000546D4F8B800013017F074F90146284673
:1004600012E0D4F8D050002D11DDD4F8BC000130DA
:1004700017F068F90146094817F06CFA0446284657
:1004800017F060F90146204617F064FA38BD0020E5
:1004900038BD00BFC8A600204054894C00BA5B4A52
:1004A00037B50446FFF740F82046FFF7C1FF17F0C5
:1004B00063FB17F047F90821B4F90450B4F906407A
:1004C00006F00AF81C351034009021462846002218
:1004D0004FF61E03FCF704FF3EBD0000F8B5284BA5
:1004E0000D461C6894F8B460D4F8D070052E1AD16B
:1004F0000846244917F022FB68B92846224917F01C
:100500001DFB50B92846214917F018FB002814BFDD
:100510001220012002E0F02000E0B420431EC4F8C5
:10052000B830012700E0142017F00CF9294617F025
:100530005DF90546384617F005F90146284617F0DB
:1005400055F90146124817F005FA17F015FB013866
:100550000128ACBF03460123052E03D10828ACBFF8
:1005600003460823D4F8BC50D4F8CC005D1B18BF58
:100570000125C4F8BC3012F037FB2846F8BD00BF97
:10058000C8A60020000020410000FA4400409C461C
:100590004054894C2DE9F04711F0010904460D46FD
:1005A00003D111F0020F00F0DA802046FFF740FF80
:1005B00000210646012717F0CBFA00B9002717F0F3
:1005C000FF0F03D168482321FCF7AAFE3046674994
:1005D00017F0B4FAE8B93046654917F0AFFAD8B960
:1005E0003046644917F0AAFAC0B93046624917F09C
:1005F000A5FAA8B93046614917F0A0FA90B930467B
:100600005F4917F09BFA78B930465E4917F096FAC1
:1006100060B94FF07E570AE05B4F08E0534F06E0A9
:10062000534F04E0534F02E0534F00E0534FB9F1F2
:10063000000F11D03046394617F094FA28B13046F1
:10064000394616F0C9FF804600E0B046404600211A
:1006500017F074FA10B903E0B04601E04FF07E588D
:1006600015F0020F10D04046484917F05DFA20B14E
:100670004046394616F0B2FF80464046002117F04A
:100680005DFA08B14FF07E583946404617F062F9DE
:1006900017F072FA17F056F8394617F0A7F84FF02E
:1006A0007E51074617F040FA08B14FF07E573846A2
:1006B000314617F02FFA00284FD139462046FFF770
:1006C0000DFF80462046FFF7B3FE3146824638468E
:1006D00017F048FA38B15046314617F02FFA002883
:1006E00018BF4FF000083846314617F01DFA20B108
:1006F0005046314617F02CFA10B9B8F1000F22D14C
:10070000234BB9F1000F07D01B68D3F8BC10B1F52B
:10071000803F18DA013105E01B68D3F8BC100129CD
:1007200011DD013993F8B420C3F8BC10052A89B251
:1007300006D1B3F8B800B3F8C020FDF729F802E0FD
:100740000846FDF75DF8204606F0A6F82046E16869
:1007500046F67512002306F0AAF820462946BDE8A1
:10076000F047FDF749BB00BF37C306080000C84289
:1007700000007A4400401C460050C34700247449DE
:100780008096184B20BCBE4C000020418096984BB0
:10079000C8A6002013B50B7802A89B180C4640F899
:1007A000043DFF21FDF7B2F9019B23701CBD000041
:1007B0009D4B2DE9F0411B68044693F8B4300D467B
:1007C000072B03D099487C21FCF7AAFD15F0020FF6
:1007D00029D0256B12F0BCF80368013B9D4280F2E2
:1007E000208104F10408231D03CBC4F82600C4F8BB
:1007F0002A104046FEF740FB256BA78C05FB00F650
:10080000E38C96FBF7F6023B9E19B6B2E6844046AF
:10081000FEF732FB400090FBF7F70437F61901357D
:100820006685256324E015F0010F26D0256B002D89
:1008300040F3F780013D271D231D03CB2563C4F83A
:100840002600C4F82A103846FEF716FB4543A68C4E
:10085000E38C95FBF6F5023B5D19ADB2E5843846B5
:10086000FEF70AFB400090FBF6F60436AD196585ED
:100870002046BDE8F04106F00FB815F0040F3AD05D
:10088000256B002D04DB12F063F803689D4203DB47
:1008900066489721FCF744FD12F056F8216B626B15
:1008A00041182046FFF776FF636B082B12D1256BAA
:1008B00012F04EF8036801359D420BDA12F044F84D
:1008C000216B626B013102EBD2724118521020464B
:1008D000FFF760FF636B082B4FD1236B012B4CDDBF
:1008E00012F032F8216B626B013902EBD2724118BF
:1008F000521020463FE015F0080F74D0256B002DF4
:1009000004DB12F025F803689D4203DB4748AD2164
:10091000FCF706FD12F018F8216B626B4118524289
:100920002046FFF737FF636B082B13D1256B12F0BE
:100930000FF8036801359D420CDA12F005F8626B7E
:10094000216B02EBD2720131521041185242204603
:10095000FFF720FF636B082B0FD1236B012B0CDDFE
:1009600011F0F2FF626B216B02EBD272013952106F
:10097000411852422046FFF70DFF12F0DFF8261D06
:10098000231D03CBC4F82600C4F82A103046FEF716
:1009900073FA276BE38C4743A58C013B97FBF5F774
:1009A000DF19BFB2636B07F10A081FFA88F8082B3A
:1009B000E784A4F82A807FF45BAF3046FEF75CFA48
:1009C00043005B4293FBF5F30137FF18E7843046A1
:1009D000FEF752FA400008F1FF3890FBF5F5A84405
:1009E000A4F82A8044E715F0100F08D0636B204666
:1009F000082B14BF08230123636305F04DFF15F096
:100A0000200F0ED0A36B1BB90848CA21FCF788FC45
:100A1000A16B204646F278520023BDE8F04105F074
:100A200046BFBDE8F08100BFC8A60020D4C20608BA
:100A30000023036043608360704710B50446FFF7EE
:100A4000F7FF204610BD836830B5456803B985605F
:100A50008368DC225343B83A02FB0533002BB8BF4E
:100A6000FF331A128260046805B944604368DC25CC
:100A70006B43B83D05FB0433002BB8BFFF331B129B
:100A800043600CB90B0203600368DC2463434FF43A
:100A9000105404FB01310029B8BFFF310912016075
:100AA000101EB8BFFF30001230BD0000F0B585B099
:100AB000FBF7CEFE0746FBF7E7FE644C06462368CD
:100AC00013F0010F04D16248FFF7B7FF0123236041
:100AD00039465F48FFF7B7FF5E4D04467021F020AE
:100AE0004BF29652002300950197FCF7FAFB002C7D
:100AF00040D04BF2965200238021F02001940095C3
:100B0000FCF7EFFBA4F50660193816F01BFE5249FE
:100B100016F06CFE514916F01DFF0146504816F0C4
:100B20005BFD504B50490093044616F057FD16F0FC
:100B300071FA4BF29652CDE9020100239021F02088
:100B4000FCF7CFFB4949204616F050FE484B4FF0CA
:100B50008441009316F042FD434916F03FFD16F024
:100B600059FA4BF29652CDE902010023F020A02160
:100B7000FCF7B7FB3F4C236813F0010F04D13E484C
:100B8000FFF75BFF0123236031463B48FFF75BFF24
:100B90003A4D0446C021F0204BF2965200230095B6
:100BA0000196FCF79EFB0CB34BF29652D02100232A
:100BB000F02000950194FCF794FB314B2046009304
:100BC00016F0C0FD2F4916F011FE2F4916F0C2FE97
:100BD000254916F003FD16F01DFA4BF29652CDE9A9
:100BE00002010023F020E021FCF77BFB002106201E
:100BF000FBF751FC002105460520FBF74CFC234B7D
:100C000004462846009316F09DFD214916F0EEFD9E
:100C100016F000FA0023CDE902014BF29652402172
:100C2000F020FCF75EFB1B4B1B4AF020002C0CBF96
:100C300014461C46194B502100934BF29652002348
:100C40000194FCF74EFB05B0F0BD00BFF4A50020F9
:100C500008A600208A440708CCCC90410000CA4274
:100C6000CDCC4C406EC306080AD7A33B6666E63F70
:100C700077C30608F8A50020FCA50020E9D70608E0
:100C800080C30608333333400080DB4488C3060842
:100C90006F12833A67C306086BC3060892C406083E
:100CA00010B5054C2368586AFBF798FB2368986ACF
:100CB000BDE81040FBF799BBC8A6002010B5054C55
:100CC000890023685962FFF7EBFF2068BDE81040F8
:100CD00004F010BBC8A6002010B5074C890023689B
:100CE0009962FFF7DDFF6420FBF734FB2068BDE865
:100CF000104004F0FFBA00BFC8A600202DE9FF4154
:100D0000044605F0B9FD4BF29655B4F90A204FF6AA
:100D1000FF73002818BF1D46B4F90410B4F9083059
:100D2000101F083B0C3A0090123102A8FDF755FF46
:100D300002A844F20821FCF7FEF802210A460B46FD
:100D400002A80091FEF77AF802A8FEF795F823684A
:100D50008046DB6920469847236807469B6A204601
:100D60009847236806465B6A20469847A8F1100812
:100D700007FB08F7361ABDF8083097FBF6F7FF189F
:100D8000BFB2ADF8087002A810372946ADF80C7054
:100D9000FCF7D1F8BDE8FF81036870B5DB690E464A
:100DA0000446984716F0010F05460DD023682046EB
:100DB0005B6A9847854207DD236820461B6A691EE7
:100DC00098472046FFF79AFF16F0020F0DD02368D0
:100DD00020469B6A9847854207DA236820461B6AAB
:100DE000691C98472046FFF789FF20463146BDE839
:100DF0007040FDF701B810B50446FEF795FB20469C
:100E0000BDE81040FFF77ABF014B18682C307047DF
:100E1000C8A6002008B5FFF7F7FF0368013B036091
:100E200008BD08B5FFF7F0FF03680133036008BD94
:100E300038B504460D46FFF7E7FF006863682D18D4
:100E40009D4205DBA0688542CCBF0020012038BD53
:100E5000002038BD416082607047000010B5FFF788
:100E6000D3FF006838B100B205F0ACFA034904467C
:100E700016F0AAFF00E0024C204610BD95C30608FC
:100E80008FC3060808B5FFF7E9FF17F093F9C30011
:100E90004FF6F87003EA000008BD73B54FF6FF7413
:100EA0000E88002A08BF0024B1F90250FFF7D6FFD0
:100EB00029460090224630464FF61E03FCF7EFF914
:100EC0007CBD2DE9F04100F1300405460F46164681
:100ED000204600210F22DDF81880FFF7BBFF2846CF
:100EE00021463A463346CDF81880BDE8F041FDF77B
:100EF000E5B900007FB50E46F0233C2104461546B7
:100F000000930A46283302A8FDF767FE20462A46CA
:100F100002AB1049009605F083FC04F12000022387
:100F20000D4948F210420094FDF7C5F904F14C0058
:100F300002230A4948F210420094FDF7BCF904F17B
:100F40007800074948F2104202230094FFF7B9FFE6
:100F50007FBD00BF9BC3060825DB060833DB060800
:100F6000ACC306080A4B73B51A6800F13004054695
:100F70000E462046083201230649FFF75AF9284653
:100F80002146054A48F210430096FDF797F97CBDCB
:100F9000C8A60020F0C90608BFC306084160704714
:100FA00010B504460BF002F863681B68002B04DAE6
:100FB000094ADB4352F8230010BD0C2202FB030058
:100FC00002780AB9406810BD013B0C38B3F1FF3F0D
:100FD000F6D1002010BD00BFF8C90608436810B55F
:100FE0001C68002C06DB0AF0E1FF0C2303FB040461
:100FF000606810BD002010BD38B50446FFF7D0FF73
:1010000005462046FFF7EAFF04461DB1284617F0C3
:10101000D1F805461CB1204617F0CCF800E0204678
:10102000451904B10235ED004FF6F87005EA0000ED
:1010300038BD00002DE9F3414FF6FF7607460C4618
:10104000002A08BF00260D88FFF7AAFF8046384611
:10105000FFF7C4FF0746B8F1000F0BD02846B4F9DC
:10106000021032464FF61E03CDF80080FCF717F948
:101070002D18ADB2B7B10C4B0435ADB2B4F90210B6
:101080000093284632464FF61E03FCF708F9043554
:101090002818B4F9021080B232464FF61E030097AA
:1010A000FCF7FDF8BDE8FC81CCC3060838B50C465A
:1010B00015460AF07BFF2B1905D5124A13F1050FCF
:1010C000B8BF13461BE0002D4FF00C020BDD631C74
:1010D00002FB040402E00C348AB90133227B022AA9
:1010E000F9D1084B0BE0631E02FB040403E014F883
:1010F0000C2D22B9013B002BF9DA4FF0FF331846D3
:1011000038BD00BF19FCFFFF10B544684FF0FF3237
:101110002168FFF7CBFF206010BD10B544680122A5
:101120002168FFF7C3FF206010BD000008B54368C9
:101130000A461968FFF7BAFF024BC01A18BF012010
:1011400008BD00BF19FCFFFF07B5009111461A4604
:1011500048F21043FDF7B2F80EBD00007FB515460A
:10116000F023282204460E4600933C219B1802A837
:10117000FDF733FD2A4602AB214D2046214900965A
:1011800005F04EFB04F120002146FFF7EBFE296835
:1011900004F1600630460C31FFF700FF324604F1DF
:1011A00068002146184BFFF7CFFF296804F1980625
:1011B00030461031FFF7F2FE324604F1A00021461E
:1011C000124BFFF7C1FF296804F1D00630461431F5
:1011D000FFF7E4FE324604F1D80021460C4BFFF73E
:1011E000B3FF296804F5847630461831FFF7D6FE40
:1011F00004F5887021463246064BFFF7A5FF7FBDF8
:10120000C8A60020CEC30608E2C30608F0C306083D
:1012100000C406080AC4060810B5044605F040FCE0
:10122000014B2046236010BD00B2060810B50446ED
:10123000FFF7F2FF014B2046236010BD10B80608EF
:1012400010B50446FFF7AEF8014B2046236010BDF1
:1012500058B8060810B50446FFF7BEF8014B204603
:10126000236010BDA0B8060870B50546FFF7B4F8B6
:10127000064B2C4644F8203B05F1B00620462434AA
:10128000FFF7E8FFB442F9D1284670BD80B80608E0
:1012900010B50446FFF786F8014B2046236010BDC9
:1012A000C0B8060810B50446FFF772F8214B204677
:1012B00040F8243BFFF7A4F804F14400FFF7A0F83E
:1012C00004F16400FFF79CF804F18400FFF798F83C
:1012D00004F1A400FFF7B4FF04F1B000FFF7B0FF82
:1012E00004F1BC00FFF7ACFF04F1C800FFF7A8FF52
:1012F00004F1D400FFF7B8FF04F5C270FFF7A0FFB8
:1013000004F5C870FFF79CFF04F5CE70FFF798FF57
:1013100004F5D470FFF794FF04F5DA70FFF7A4FF2B
:1013200004F51970FFF7B4FF04F51B70FFF75EF8C2
:10133000204610BD70F1060810B50446FFF74CF8C2
:10134000014B2046236010BDE8B8060810B50446DE
:10135000FFF71EF82D4B204640F8643BFFF7ECFFEB
:1013600004F18400FFF7E8FF04F1A400FFF7E4FFB5
:1013700004F1C400FFF744F804F1E400FFF740F87B
:1013800004F58270FFF73CF804F59270FFF738F827
:1013900004F5A270FFF734F804F5B270FFF730F8E7
:1013A00004F5C270FFF704F804F5CA70FFF71EF8E1
:1013B00004F5DC70FEF7FCFF04F5E470FFF716F8A7
:1013C00004F5F670FFF764FF04F5FA70FFF70EF806
:1013D00004F50670FFF75CFF04F50870FFF706F8E8
:1013E00004F51170FFF72CFF04F51470FFF728FFC8
:1013F00004F51770FFF724FF04F51A70FFF720FFBC
:1014000004F51D70FFF730FF204610BD98F0060868
:1014100010B5044605F044FB114B204640F8203B34
:10142000FFF704FF04F15000FFF7F6FE04F17C0023
:10143000FFF7F2FE04F1A800FFF7EEFE04F1D4007E
:10144000FFF7EAFE04F58070FFF7E6FE04F59670FC
:10145000FFF728FF04F57170FFF778FF204610BDF5
:10146000C8F1060870B504460D46164605F018FB8F
:10147000024B256223606662204670BD78F906083B
:1014800070B504460D46164605F00AFB024B256270
:1014900023606662204670BD58F9060870B50446A0
:1014A0000D46164605F0FCFA034BED00F6002360EE
:1014B00025626662204670BD38F9060810B5202105
:1014C00032220446FFF7CEFF014B2046236010BDB9
:1014D00058B10608202110B50A460446FFF7C2FF9E
:1014E000014B2046236010BD78B1060810B52021BD
:1014F00007220446FFF7C4FF014B2046236010BDBE
:1015000098B1060810B5202110220446FFF7C6FF47
:10151000014B2046236010BDB8B10608C822826086
:10152000503AC260793A02614261013202764276F3
:101530008276704700292DE9F74F0F46B8BF01F1B9
:10154000FF073F1240F6FF73C8B207F10A09994539
:10155000A8BF99460D4616F0F5F84FF06E5116F0FB
:1015600045F92B4916F042F915F054FD16F03CFFF1
:1015700015F0DEFFA7F10A0424EAE4748046002691
:1015800037E02046FCF7BBF890F800A0204616F0A4
:10159000D9F88346284616F0D5F84FF06E5116F06C
:1015A00025F90146584616F017F80021834616F033
:1015B000B1FA78B95846174916F018F9E31B13F039
:1015C000010F01460CBF08F10040404616F0C2F979
:1015D000834601E04FF07E5B504616F0B3F80146BB
:1015E000584616F003F90146304615F0F7FF01346E
:1015F00006464C45C5DD304616F0BEFA02AB43F850
:10160000040D1846FF21FCF781FA0198BDE8FE8F12
:10161000DB0F4940D80F49402DE9F04FEDB00E46A1
:1016200007920446FCF768F8FCF749F8FCF78EF8D7
:101630000023054609AA41F28200D0520233B3F5D5
:10164000C67FF7D1B4F90800B4F90A10AC4B2838BA
:1016500000932639002348F21042FBF742FE226E27
:10166000636EAD1A9B1AB3F5C87F4FF4C87203F1CD
:101670000103C0F28F805543012E95FBF3F30693CF
:1016800001DD751E00E000254FF0FF377CE0626E43
:10169000216E0132521A02FB05F301356A434FF401
:1016A000C87093FBF0F392FBF0F25B185218002124
:1016B00009A841F2820C20F801C00231B1F5C67FC1
:1016C000F6D106998B4508D100214FF01F0C20F868
:1016D00001C00431B1F5C47FF7D14FF0FF389A460D
:1016E000A446C1461C4633462E4615461EE05046CB
:1016F0000493CDF814C0FCF702F80178C6204143EA
:1017000040F2FF72090A09A8A24520F81120049BA3
:10171000DDF814C006D08945A8BF89468845B8BF02
:10172000884601E0884689460AF1010AAA45DEDBBF
:101730009B45354664461E4605DDB845B8BFB846EC
:10174000B945A8BFB94608EB090707EBD7777F1063
:10175000B34519DB0DF1240C0CEB49030BE033F816
:10176000021B41F28202914204BF4FF4826023F8CF
:10177000020C09F10109C145F1DB5846B4F9061024
:1017800009AAC623FBF73CFC0799AB468D42FFF63E
:101790007EAF98E05543012E95FBF3F3CCBF06F1E5
:1017A000FF3A4FF0000A4FF0FF38069357460025E6
:1017B000434684E0616E226E0131891A0902794341
:1017C0004FF4C870120291FBF0F1891857454FEAA7
:1017D000212B40F38A805B4500F087805846FBF759
:1017E0008EFFD0F800900121C6225FFA89F353439F
:1017F000C63A1B0A09A841F2820C20F802C0023244
:10180000B2F5C67FF6D1069A974208D100224FF072
:101810001F0C20F802C00432B2F5C47FF7D157453F
:101820001ED09D4204DB6A1C09A800EB420215E0B1
:1018300009AA681E02EB40002A4601324FF4826C6E
:101840009A4220F802CFF8D16A1CED43ED185519E1
:1018500007E04FF4826022F8020D013D9D42F8D16D
:101860001D4609AA41B140F2FF7C22F813C03BB1EA
:10187000581E22F810C003E04FF4826022F81300D3
:10188000B8F1FF3F0BD009AA40F2FF7C22F818C044
:10189000B8F1000F03D008F1FF3822F818C0002972
:1018A00014BF98464FF0FF38B74206DB3846B4F90C
:1018B000061009AAC623FBF7A3FB01375B4607986E
:1018C0008742FFF677AFBEB90E4BB4F90A1000930A
:1018D000236E30460193636E103902934FF6FF7208
:1018E00048F21043FBF7FDFC06E02046FFF722FE1E
:1018F000002160F3070977E76DB0BDE8F08F00BF06
:10190000D5DA060814C4060830B544F64445AA42A0
:1019100003D1BDE8304005F0E1B944F64545AA429F
:1019200004D16421BDE8304005F0DEB859B9042A7D
:1019300009D146F26742934205D14FF4C872BDE81F
:101940003040FFF769BE30BD70B5438986B0A3F162
:101950001802153BADF81220ADF816300546066E9C
