:020000040800F2
:10C00000000001207D2E0108912C0108932C0108CD
:10C01000952C0108972C0108992C010800000000BC
:10C020000000000000000000000000009D2C01083E
:10C030009B2C0108000000009F2C0108A12C010886
:10C04000A32C0108A52C0108A72C0108A92C010884
:10C05000AB2C0108AD2C0108AF2C0108B12C010854
:10C06000B32C0108B52C0108B72C0108B92C010824
:10C07000BB2C0108BD2C0108BF2C0108C12C0108F4
:10C08000C32C0108C52C0108C72C0108C92C0108C4
:10C09000CD2C0108D12C0108D32C0108D52C010886
:10C0A000D72C0108D92C0108DB2C0108DD2C010854
:10C0B000DF2C0108E12C0108F52D0108F72D0108FE
:10C0C000F92D0108FB2D0108FD2D0108FF2D0108A8
:10C0D000012E0108032E0108112E0108132E01085C
:10C0E000152E0108172E0108192E01081B2E010814
:10C0F0001D2E01081F2E0108212E0108232E0108E4
:10C10000252E0108272E0108292E01082B2E0108B3
:10C110002D2E01082F2E0108312E0108332E010883
:10C12000352E0108372E0108392E01083B2E010853
:10C1300020B10368197003680133036070472DE96B
:10C14000F041161E04460D4614DD002200E00132C7
:10C15000A95C0029FBD1B24203F00208B4BFC2EBD4
:10C1600006060E46B8F1000F0CBF4FF020084FF046
:10C17000300801E04FF0200813F0010709D105E075
:10C1800020464146FFF7D4FF0137013E002EF7DC81
:10C1900005E0002703E02046FFF7CAFF013715F846
:10C1A000011B0029F7D105E020464146FFF7C0FFFB
:10C1B0000137013E002EF7DC3846BDE8F0812DE95D
:10C1C000FF410A9F05460B9EDDF830C08E4651B9EF
:10C1D00030238DF804308DF805103A4601A9334616
:10C1E000FFF7ADFF3CE03BB10A2A07D1002905DA91
:10C1F000C1F1000E012402E01C4600E0002404A965
:10C20000002301F8013D0EE0BEFBF2F302FB13EE4A
:10C21000BEF1090FC4BFACF13A0086440EF1300EF6
:10C2200001F801ED9E468846BEF1000FECD184B1C5
:10C230004FB116F0020F06D028462D21FFF778FFE8
:10C24000013F012405E02D2301F1FF3801F8013CF5
:10C250000024284641463A463346FFF770FF00194E
:10C2600004B0BDE8F0812DE9F0478AB006460D46DE
:10C2700005920024DBE0252B40F0D38015F8013F28
:10C28000002B00F0D880252B00F0CB802D2B02D185
:10C2900001352C3B03E0002301E043F00203294673
:10C2A00015F8012B302AF8D0002702E00A2202FB01
:10C2B00007070A780D46A2F130005FFA80FC0131D1
:10C2C000BCF1090FF2D9732A09D1059A3046111D24
:10C2D000059111685C4A002908BF11469DE0642A57
:10C2E0000ED1059A01936123111D029300970591C8
:10C2F00030461168603B0A22FFF761FF241895E081
:10C30000662A54D1059B073323F0070303F1080283
:10C31000D3E90001059217F09BF80021804617F041
:10C3200093FB38B12D238DF8183008F100480DF13A
:10C33000190A01E00DF1180A404617F0ADFB012380
:10C3400000E013460A225A439042FADA90FBF3F2D5
:10C3500002F1300103FB12000A2293FBF2F30AF808
:10C36000011B002BF2D124328AF80020002F08BFD5
:10C3700003279946404617F08FFB17F073F90146E3
:10C38000404617F0B9F8314917F0C0F9804617F068
:10C3900083FB09F101093030B9450AF8010FE9DBE7
:10C3A00000228AF80120304606A9202336E0782AA8
:10C3B0000AD1059A01936123111D009702930591FB
:10C3C00030461168102219E0582A0BD1059A0193C2
:10C3D0004123111D02930097059130461168413B9E
:10C3E000102289E7752A0BD1059A01936123111D4B
:10C3F000009702930591304611680A22613B7BE762
:10C40000632A13D1059A3046111D126805918DF8E3
:10C41000242000228DF8252009A93A46FFF78FFE37
:10C420006CE730462978FFF783FE013401352B781D
:10C43000002B7FF420AF16B1336800221A7020461B
:10C440000AB0BDE8F08700BF586F02080000204125
:10C45000014B1868704700BF08A600200146142051
:10C46000F7F7F4BE034B18801A8892B2002AFBD16A
:10C47000704700BF14A60020044B10B5196804468D
:10C480000320F7F7E3FE024B1C8010BD00300020B4
:10C4900016A6002030B5002308E00A24B0FBF4F112
:10C4A00004FB11003030D054013388B2084A002810
:10C4B000F3D1D0545910013BD31804E0145C5D78DB
:10C4C00015545C700130013B8842F7DB004830BDF9
:10C4D0005432002008B506200021F7F7BBFE5A238E
:10C4E0004343A3F58223A3F56B6340F2145093FBFF
:10C4F000F0F00A306428A8BF642020EAE07008BD8C
:10C500000128ACBF014601210220F7F79FBE00EBD6
:10C51000D070024B40101860704700BF0030002000
:10C52000052810B507D8044B53F8200018B104684B
:10C5300006F05CFBA04710BD80600208C0B2F7F7B0
:10C5400085BE47F26623984201D1F7F773BEC0B2A9
:10C55000F7F780BE43680A6823F4702323F48073DE
:10C5600013430A7910B543EA022343608A68CB6813
:10C5700084681A43094B04EA030342EA03034A7935
:10C5800043EA420383600B7CC26A013B22F47002DF
:10C59000DBB242EA0353C36210BD00BFFDF7F1FFF7
:10C5A00000230360037143718360C360013303742C
:10C5B000704719B1836843F0010302E0836823F0F8
:10C5C00001038360704719B1836843F4807302E00C
:10C5D000836823F4807383607047C9B212B14368E3
:10C5E000194302E0436823EA010141607047836810
:10C5F00043F00803836070478068C0F3C000704751
:10C60000836843F00403836070478068C0F3800050
:10C61000704719B1836843F4A00302E0836823F4F0
:10C62000A003836070478068C0F380507047436800
:10C63000013923F4604343EA41334360704719B141
:10C64000436843F4006302E0436823F400634360FB
:10C650007047092970B54FEA41040BD964181E3C94
:10C660000725A540A340C66826EA050545EA030458
:10C67000C4600AE064180725A54013FA04F40669AB
:10C6800026EA050545EA04030361062A0CD8013AA7
:10C6900002EB82021F2393409140446B24EA030380
:10C6A00043EA0102426370BD0C2A4FEA82030BD8B1
:10C6B0009A18233A1F2393409140046B24EA030302
:10C6C00043EA0102026370BD9A18413A1F23934066
:10C6D0009140C46A24EA030343EA0102C26270BDC6
:10C6E00019B1836843F4801302E0836823F4801354
:10C6F00083607047C06C80B27047014B1868704708
:10C700004C24014019B1436843F4806302E043685C
:10C7100023F480634360704719B1436843F4805346
:10C7200002E0436823F4805343607047836823F436
:10C73000E04341EA03038360704719B1836843F41F
:10C74000004302E0836823F400438360704719B11B
:10C75000836843F4021302E0836823F402138360C6
:10C7600070478068C0F340507047092970B54FEAA0
:10C7700041040BD964181E3C0725A540A340C66898
:10C7800026EA050545EA0304C4600AE064180725A3
:10C79000A54013FA04F4066926EA050545EA0403F0
:10C7A0000361836B03F440146FEA145412190332CB
:10C7B000D2B202EB82021F249440914023EA040388
:10C7C0000B43836370BD836B013923F4401343EA49
:10C7D00001538363704782B00A5002B0704782B041
:10C7E00001902830405880B202B07047436823F46B
:10C7F000400323F4007341EA03034360704741623E
:10C8000082627047436823F01F0341EA03034360D9
:10C810007047054B18B19A6842F4000202E09A682A
:10C8200022F400029A607047002401400368194214
:10C830000CBF002001207047C94301607047436866
:10C84000006810EA112004D0C9B219420CBF0020C0
:10C85000012070476FEA112101607047044B11B14C
:10C86000DA68104302E0DA6822EA0000D860704714
:10C870000010024007B5124B019098420DD0114BA9
:10C88000984212D0104B984219D14FF400700121F8
:10C89000FFF7E4FF4FF400700EE04FF480600121D9
:10C8A000FFF7DCFF4FF4806006E04FF40040012109
:10C8B000FFF7D4FF4FF400400021FFF7CFFF0EBD7C
:10C8C00000280140003C014000240140044B11B10C
:10C8D0005A69104302E05A6922EA00005861704721
:10C8E00000100240044B11B19A69104302E09A69AA
:10C8F00022EA0000986170470010024010B586B02F
:10C9000000234FF46022012401A9154801938DF8FA
:10C9100008308DF80930039204938DF81440FFF726
:10C9200019FE2046FFF775FF21460D48FFF741FE2F
:10C930002046FFF797FD0A48102122460523FFF7FE
:10C9400088FE07482146FFF764FE02210448FFF7EE
:10C950006DFF0128F9D10248FFF7CCFE06B010BDEB
:10C9600000240140024B0E2202FB0030704700BF42
:10C9700098600208034B18801A8892B2002AFBD1F3
:10C98000704700BF14A60020044A4FF48053136080
:10C990004FF0C0421080024A1360704714140140E7
:10C9A0001014014010B5EF20FFF7EEFF4FF0C04329
:10C9B0001A881C8818881A881988C3B2C9B241EA33
:10C9C000046141EA0343120643EA1242014B9A60B2
:10C9D00010BD00BF54320020054B4FF480521A6046
:10C9E0004FF0C0431880034802601980704700BFB1
:10C9F00014140140101401402DE9F041E9204FF0DA
:10CA0000C044FFF7C1FF202222801120FFF7BCFFA6
:10CA10006420FFF7AFFFD120FFF7B6FF00251722F4
:10CA20005E232580D02023802280FFF7ADFF0C26D7
:10CA300007232380362023804FF040082680FFF70D
:10CA4000A3FF3046A4F800804936FFF79DFF2680FB
:10CA50003A20FFF799FF2680C120FFF795FF533E4C
:10CA600010232380C020238026802680FFF78CFFA0
:10CA7000012735232580C520238025802580278018
:10CA80002680FFF781FF2780D220FFF77DFF22233A
:10CA90002780C8202380FFF777FF73223723278062
:10CAA0002280238004220F23258023802680228059
:10CAB0006722A4F80080228025808022268023809F
:10CAC00008232380292022802580FFF75DFF2C206A
:10CAD000BDE8F04158E7002008B50146FFF77CFFAC
:10CAE00000200146FFF778FF00200146FFF774FFA2
:10CAF00000200146FFF770FF0A20FFF73BFF0121EE
:10CB00004FF4C060FFF768FF0A20FFF733FF4021B2
:10CB10004FF4DE60FFF760FF0A20FFF72BFF4FF4B2
:10CB200080604FF4C441FFF757FF082040F608012A
:10CB3000FFF752FF01204FF48071FFF74DFF0220F5
:10CB40004FF48071FFF748FF03203021FFF744FFC7
:10CB500009200121FFF740FF0C200021FFF73CFFD7
:10CB600090204FF40041FFF737FF0F200021FFF71F
:10CB700033FF10201621FFF72FFF112040F2011183
:10CB8000FFF72AFF12200021FFF726FF13200121C3
:10CB9000FFF722FF4FF480704FF44C71FFF71CFF3A
:10CBA00040F2011040F23721FFF716FF40F2031068
:10CBB0004FF47061FFF710FF4FF420704FF4D6412F
:10CBC000FFF70AFF4CF2B0114FF48170FFF704FF3A
:10CBD0006420FFF7CFFE4FF440704FF44061FFF741
:10CBE000FBFE40F2013045F60B21FFF7F5FE40F267
:10CBF000023040F60611FFF7EFFE40F2033041F23B
:10CC00001701FFF7E9FE4FF441704FF40C51FFF7A5
:10CC1000E3FE40F205304FF4B851FFF7DDFE40F27D
:10CC2000063046F20931FFF7D7FE40F2073040F6F2
:10CC30000941FFF7D1FE4FF4427041F20C01FFF7BA
:10CC4000CBFE40F2093042F23221FFF7C5FE4FF42D
:10CC500004700021FFF7C0FE40F21120EF21FFF722
:10CC6000BBFE40F212200021FFF7B6FE40F2132077
:10CC700040F28F11FFF7B0FE4FF4A0600021FFF7E4
:10CC8000ABFE40F201500021FFF7A6FE40F2025039
:10CC90000521FFF7A1FE40F201400121FFF79CFEB4
:10CCA000002140F20440FFF797FE6420FFF762FE88
:10CCB0004FF480710720FFF78FFE6420FFF75AFEC4
:10CCC0004FF400700021FFF787FE002140F20120A1
:10CCD000FFF782FE054A4FF48053136040F20221B1
:10CCE0004FF0C0421180024A136008BD1414014085
:10CCF0001014014070B5104C4FF480534FF4006590
:10CD0000236001202560FFF735FE0C4B0A201D60D3
:10CD1000FFF730FE32202560FFF72CFEFFF742FEC2
:10CD2000074B9A68074B9A4202D1BDE8704063E610
:10CD3000BDE87040CFE600BF10140140141401405C
:10CD400054320020279304020B4B10B59A680B4B0A
:10CD50004FF0C0449A4209D12E20FFF715FE2388D8
:10CD600024882C20A4B2FFF70FFE02E02388248839
:10CD7000A4B2204610BD00BF543200202793040205
:10CD80000EB403B503AA52F8041B019001A8009247
:10CD9000FFF769FABDE80C4003B07047AAE713B586
:10CDA00002AC24F8020D00200146F7F72FFA2046C6
:10CDB0004BF68031F7F738FAF7F732FA20464BF6A0
:10CDC0008031F7F731FAF7F72BFA1CBDC1F1EF010B
:10CDD00010B580B289B21446F7F718FA2046BDE8BC
:10CDE0001040F7F715BAC1F1EF0110B580B289B262
:10CDF000F7F70CFABDE81040F7F736BA38B5151A50
:10CE00005C1A6C434BF67F35AC4280B202F1FF35C1
:10CE1000C3F1F0020FD9C1F1EF0392B2A9B29BB2F4
:10CE20006508F7F7FBF904A8A9B2F7F7FDF9641B49
:10CE3000F7F7F6F906E0C1F1EF0392B2A9B29BB29F
:10CE4000F7F7ECF904A8A1B2F7F7EEF9F7F7E8F96C
:10CE5000002040F28F110246EF23F7F7DFF938BDCB
:10CE600037B50D46B0F9021004464B1CB0F900006E
:10CE7000B4F904200095FFF7C1FFB4F90630B4F906
:10CE80000000591EB4F904200095FFF7B7FFB4F96C
:10CE90000000B4F90210421CB4F906300095FFF707
:10CEA000ADFFB4F90420B4F90210B4F90630501EF5
:10CEB0000095FFF7A3FF3EBD2DE9F14F0A9C1E46EA
:10CEC0000B9B88461746511E04EB4309C6F1F0023E
:10CED000C8F1EF03054689B280B292B29BB2F7F770
:10CEE0009DF9A2460CE03AF8020BF7F791F9CA4512
:10CEF00008BFA2460BF1010BBB45F4DB08F10108AA
:10CF0000B04501DAAB46F7E7002040F28F11024648
:10CF1000EF2301B0BDE8F04FF7F780B92DE9F843F2
:10CF2000B0F80080044689461FFA88F7002614E00E
:10CF3000B4F9065009E0C5F1EF01384689B2F7F7B8
:10CF400065F9FFF701FF29F8020BB4F90230013D42
:10CF50009D42F0DA01370136BFB20FFA88F2B4F918
:10CF60000430B2189A42E3DBBDE8F8832DE9F047BC
:10CF7000C28843880D468188C2F1F0020139C3F1AD
:10CF8000EF03044689B2008892B29BB2F7F746F9E4
:10CF90000026B4F8028010E0B4F80090002703E007
:10CFA00035F8020BF7F734F90FFA89F2B4F90430C7
:10CFB000BA1801379A42F3DB01360FFA88F2B4F956
:10CFC0000630B2189A42E7DB002040F28F11024689
:10CFD000EF23BDE8F047F7F721B913B50346B3F9DE
:10CFE0000240B3F90420B0F90000B3F90630009113
:10CFF0002146FFF703FF1CBD0268034BDA6042685D
:10D000001A6102685A6170475432002010B50B4C07
:10D010000246B4F91610B4F91400FFF7D7FEA38A3C
:10D02000B4F910200133A3821BB29A4204DCA38915
:10D03000A382E38A0133E38210BD00BF5432002093
:10D0400070472DE9F74F99460C9B0191924613F8D2
:10D0500001BB054600241DE018F8013BFBB113F0AD
:10D06000040F4FF61E0305D09A450AD028463146D4
:10D07000524604E0994504D0284631464A46FFF717
:10D08000A5FE013701365F454346E5DB0134013536
:10D09000502C03D0019E98460027F4E70824204630
:10D0A000BDE8FE8F2DE9F0411E460F46B6B2C7F12E
:10D0B000F00714460546F7F7B9F8B91BA8B289B2CC
:10D0C000F7F7A4F820463146F7F7ACF8BDE8F04191
:10D0D000F7F7A6B830F0030309D131F0030208D105
:10D0E00040EA81000449091891F8180E70470020A1
:10D0F00070471846704700BF806002082DE9F04F66
:10D1000085B004469A469DF839009DF838300D46A2
:10D1100016469DF83AB002900393274645E0C5EBCA
:10D120000A01701E0139C01B3B1BC8EB010198426C
:10D13000A8BF18464145A8BF4146FFF7CBFF68BBD3
:10D14000C9F1EF0189B2B8B2F7F760F8F7F78CF8D8
:10D150001A4BC10001F0FF01C208000A00EA0303F4
:10D16000C1EB0B000190DDF808C0039802F0FC024F
:10D17000C2EB0C0EC3EB000C03EB6C03DDF804C038
:10D18000DB1001EB6C00C01040EAC32302EB6E0021
:10D19000801043EA401080B2F7F73AF809F101092C
:10D1A00008F10108D145BADB0137B74203DAA946D5
:10D1B0004FF00008F6E705B0BDE8F08FF8FF070074
:10D1C0002DE9F74F06468A4615461C46BDF830B095
:10D1D00088462DE00AF10303984509D1E71E414630
:10D1E00030462A463B46CDF800B0FFF707FEB8466A
:10D1F000B146002718E0A81B0138611EC01BC8EB10
:10D200000101CAEB0803B842A8BF38469942A8BF3B
:10D210001946FFF75FFF20B9484641465A46FFF7D7
:10D22000D5FD09F101090137A945E4DB08F1010841
:10D23000A045CFDBBDE8FE8F13B50346B3F902402E
:10D24000B3F90420B0F90000B3F90630009121468B
:10D25000FFF7B6FF1CBD2DE9F74F01909DF8300098
:10D260001F460D469246FFF77DFB4FF61E039F4279
:10D2700083461DD100241BF80480019F6FEA080833
:10D280005FFA88F8082618F0800F04D03846611934
:10D290005246FFF79BFD013EF6B2013726B14FEA39
:10D2A00048085FFA88F8EEE701340E2CE3D145E038
:10D2B0009A451FD100241BF80490DDF804806FEA22
:10D2C00009095FFA89F9082619F0800F04D1404650
:10D2D00061193A46FFF77AFD013EF6B208F10108FE
:10D2E00026B14FEA49095FFA89F9EDE701340E2CBE
:10D2F000E1D123E000241BF80490019E6FEA0909A4
:10D300005FFA89F94FF0080819F0800F08F1FF382B
:10D31000304614BF52463A4629465FFA88F8FFF76E
:10D3200055FD0136B8F1000F04D04FEA49095FFA04
:10D3300089F9E9E7013401350E2CDCD10820BDE87C
:10D34000FE8F2DE9F7430A9F05460E469146984603
:10D35000AFB1387818B913E00A2B02D110362C4639
:10D3600007E00093204631464A464346FFF773FFE5
:10D37000241817F8013B002BEED1601B00E0384663
:10D38000BDE8FE83DDE72DE9F043A5B015462CAAE4
:10D390000E4652F8041B07460DF1080823A89946CB
:10D3A0002292CDF88C80FEF75EFF314604462A4675
:10D3B00038464B46CDF80080FFF7E4FF204625B005
:10D3C000BDE8F08337B5124B05460C46009330217B
:10D3D0001F2328204FF6FF72FFF7D4FF20211F23C1
:10D3E0004FF6FF7228200095FFF7CCFFA0B2FFF7A1
:10D3F00051F8102100904FF6FF7228201F23FFF7ED
:10D40000C1FF4FF47A7003B0BDE83040FFF72AB88F
:10D410005F6F020808B502480421FFF7D3FFFEE75B
:10D42000716F02080FB430B5A5B028AA52F8041BDA
:10D4300002AC23A823942292FEF715FF23941EE04A
:10D440000A2B134C03D0A569B5F5C47F09DBE2694B
:10D4500000230E32E02AA361E2610DDD0C4AD361A4
:10D460000AE000932846E1694FF6FF724FF430431B
:10D47000FFF7F1FE4019A061239B01332393239B07
:10D480001B78002BDCD125B0BDE8304004B07047DC
:10D49000543200202DE9F74FC0EB020B5F1A1FFA40
:10D4A0008BFBBFB20FFA8BFA0FFA87F84FEADB3B20
:10D4B000FF0BBDF83090BAF1000FD4BFCBF1000BD9
:10D4C000CBF1010BB8F1000FD4BF7F42C7F10107C8
:10D4D000BAF1000FB8BFCAF1000AB8F1000FB8BF27
:10D4E000C8F100084FEA4A0A4FEA480800921FFABA
:10D4F0008AFA1FFA88F84A46019304460D460FFA45
:10D500008AF6FFF763FC0FFA88F39E4220DB1FFACE
:10D5100088F8A8EB6606B6B216E016F4004F09D1FB
:10D520001EB94FFA8BF3002B04DD7BB2CAEB060663
:10D53000ED18B6B24FFA8BF3E4184644204629465C
:10D540004A46B6B2FFF742FC009B9C42E5D11EE082
:10D550001FFA8AFAAAEB6306B6B215E016F4004F7A
:10D5600009D116B97BB2002B05DD4FFA8BF3C8EB5E
:10D570000606E418B6B27BB2ED185644204629469A
:10D580004A46B6B2FFF722FC019B9D42E6D1BDE8B8
:10D59000FE8F0020FFF7E6B908B500210420F6F75A
:10D5A00059FEC3439BB2C3F3802013F4006F1CBF2A
:10D5B00040F0020080B213F4805F18BF40F4807026
:10D5C00013F0080F18BF40F0040013F4004F18BF09
:10D5D00040F0080013F0400F18BF40F4007013F43F
:10D5E000804F18BF40F0100013F4005F18BF40F0E8
:10D5F000200013F4807F18BF40F0400013F4007F38
:10D6000018BF40F0800008BD07B50B200021F6F7D9
:10D6100021FE40B9074B303000931E211F224FF6E8
:10D62000FF73FFF78EFE1420002103B05DF804EBBA
:10D63000F6F70CBE976F0208024B014618712420C2
:10D64000F6F704BE00300020014B1879704700BF88
:10D650000030002070B50CE09C1804EBD47464100A
:10D6600050F8246025468E4201D2621C01E004D9A4
:10D67000631E9342F0DA4FF0FF35284670BD2DE966
:10D68000F84F214C074604F5626008300E461546F7
:10D690009846002215230C99FFF7DCFFB0F1FF3FFD
:10D6A0009DF82890BDF82CA083462AD00C9A174BE1
:10D6B00005209A600021F6F7C9FD09203946F6F7E2
:10D6C000C5FD0A203146F6F7C1FD00202946F6F7D0
:10D6D000BDFD0B204146F6F7B9FD0C204946F6F793
:10D6E000B5FD04EB4B0401205146F6F7AFFD0720D2
:10D6F000B4F8801EF6F7AAFD0820B4F8AC1EF6F7C1
:10D70000A5FDBDE8F88F00BF806002080030002052
:10D7100008B503200021F6F79DFDC0B208BDF6F75D
:10D7200089BD08B506200121F6F790FDFEF790FEB1
:10D73000014B186208BD00BF543200202DE9F041B2
:10D7400006460C462220314615461F46F6F77EFD5A
:10D7500021202146F6F77AFD202047EAC501BDE8E1
:10D76000F041F6F773BDB0F5805F70B503DD0A4890
:10D77000CA21FFF727FE094C04F580452668FFF70C
:10D78000CEFF06F07F4620F07F4040EA060644F8D0
:10D79000046BAC42F2D170BDB06F02087832002049
:10D7A0004FF480507047B0F5805F10B5044603D346
:10D7B0000348DB21FFF706FE024800EB840010BDA2
:10D7C000B06F02087832002010B500210220F6F771
:10D7D00041FD00210120F6F73DFD002100F001048C
:10D7E0000320F6F737FD10F0010F18BF44F00204D4
:10D7F000204610BD08B5FEF72BFE0B4B1B6AC01A66
:10D8000015F030FF094916F035F8094B996816F004
:10D8100031F8084915F07AFF16F03EF9B0F5805F4F
:10D82000A8BF4FF4805008BD5432002000007A4455
:10D83000003000200000F041034670B510200C4677
:10D8400019461546F6F702FD11202146F6F7FEFCB3
:10D8500012202946BDE87040F6F7F8BC094B10B518
:10D860001A68094C22F001021A60084A146043F257
:10D87000B0521A60064A116090601A6842F00102C4
:10D880001A6010BD44040240087400404C04024079
:10D8900048040240034B0121A3F83C0D03F55260FC
:10D8A0001C30DBE73C65002001460D20F6F7CEBCBE
:10D8B000004870477A72002008B5034602730020C2
:10D8C000012A587305D11A4609480833F6F7DEFCD9
:10D8D00006E0022A09D11A4605480833F6F7D4FCB7
:10D8E000D0F1010038BF002008BD012008BD00BFF5
:10D8F0007A72002008B5034608461946F6F7C8FCB8
:10D90000D0F1010038BF002008BD10B5044608461C
:10D910002146F6F7BFFC20B9637B01300133637306
:10D9200010BD002010BD10B5037B0446022B10D1A2
:10D93000B1F1FF3F08BF417B224608BF49020748BB
:10D9400004F10803F6F7A8FC28B903232373013078
:10D9500010BD012010BD002010BD00BF7A72002054
:10D96000F0B502EBD27700247F1001EB420523468D
:10D970000DE0BB42B4BF31F813C035F802CC065FEE
:10D98000013306FB0CF6360C0653023D0434934279
:10D99000EFDBF0BD0CF052B9420803460DD0002178
:10D9A000B3FBF2F080184008121A0132022A04D99F
:10D9B000192902D001310246F2E7704705E0054A15
:10D9C000118811F0800FFAD0938010F8013B002BE2
:10D9D000F5D17047003801400F4B10489A6942F466
:10D9E00080429A610E4A40F27123138142F22C0365
:10D9F0009381138823F4A46323F005031B041B0CF9
:10DA00001380084B5A6822F47F6242F40A625A601B
:10DA10004FF480621A61D1E700100240DA6F020809
:10DA2000003801400008014010B54FF4FA70FEF7CD
:10DA300019FDFFF7B3F9FFF7E7FDBDE81040CBE7AD
:10DA400005F006B9034B1A8812F0800FFAD09880BF
:10DA5000704700BF003801400E200021F6F7FABBE6
:10DA60000D200021F6F7F6BB0F200021F6F7F2BBE0
:10DA700010200021F6F7EEBBF6F7E0BB014B9868EB
:10DA8000704700BF543200202DE9F0433F3189B088
:10DA9000234B804687B28CB2ADF1020213F8010C21
:10DAA0001978C0108910C002490141185878043310
:10DAB00001EBD00122F8021F1A498B42EED11A4E17
:10DAC0003D4616F8013B08AA1B0902EB4303284612
:10DAD0000135214633F8202CADB208F1FF09FFF7DC
:10DAE00075F94D4502DD013CA4B23D4616F8013CF6
:10DAF00008AA03F00F0302EB430328460135214631
:10DB000033F8202CADB2FFF761F94D4502DD013C41
:10DB1000A4B23D46054B9E42D3D109B0BDE8F08387
:10DB200037D8030877D8030876D8030876F80308AF
:10DB3000704700BF7047014B186870477C74002025
:10DB400037B5FEF785FC294C2368B3F1FF3F08BFCA
:10DB500020602368C51AB5F57A7F0ED94FF47A7222
:10DB6000B5FBF2F502FB053320490B6004F0A0FC85
:10DB700000F530504369ED184561FFF70DFDADF834
:10DB8000060000B9A08004F093FC00F542500DF1AE
:10DB90000601643003F056FA04F08AFC00F54250A6
:10DBA00064300DF1060103F055FABDF80630ABB153
:10DBB00004F07EFC0221BDF8062007F0D5FFBDF879
:10DBC0000620A3889A4206D0094B1B681B7A13B91A
:10DBD0003220FEF751FCBDF80630A38004F068FC4B
:10DBE0000321002207F0C0FF01203EBD10300020BD
:10DBF00028A600200C4B10B518600446FFF714FF50
:10DC000004F056FC07F09BFD04F052FC01210022B9
:10DC100007F0AAFF12F0A8FC12F062FC12F0BEFAA4
:10DC2000FFF77FFD204610BD7C74002008B5036817
:10DC300049421B6849B2984708BD0000014B18686B
:10DC4000704700BF68810208704701207047436831
:10DC5000826819688A181A60704743688268196870
:10DC60008A1A1A6070470820704783681B78CB189F
:10DC700005D4027B9342CCBF0020012070470020D6
:10DC8000704783681A7801321A70704783681A786F
:10DC9000013A1A7070478368197070478368187862
:10DCA00070470220704718207047022070470020FC
:10DCB000704700207047082070470000034B1B6826
:10DCC000586A0028B8BF03308010704728A600208B
:10DCD0000020704719207047034B1B68986A002882
:10DCE000B8BF03308010704728A60020002070477E
:10DCF0001920704770477047436882681B68CB18CB
:10DD0000934205DBC0688342CCBF002001207047EE
:10DD10000020704743681A6801321A6070474368F0
:10DD20001A68013A1A60704702484FF48871FFF789
:10DD300049BB00BFD07C020808B5034840F20F1170
:10DD4000FFF740FB002008BDD07C020802484FF4DA
:10DD50008771FFF737BB00BFD07C0208024840F252
:10DD60000D11FFF72FBB00BFD07C020802484FF413
:10DD70008671FFF727BB00BFD07C020808B50348B7
:10DD80004FF48571FFF71EFB022008BDD07C02080E
:10DD900039B9042A05D146F26742934201D107F00E
:10DDA000C1B8704739B9042A05D146F26742934297
:10DDB00001D107F0B7B8704739B9042A05D146F246
:10DDC0006742934201D107F0ADB87047C36A70B59E
:10DDD00004460D461BB90B484221FFF7F3FA15F034
:10DDE000100F08D0E168E36A204646F66352BDE8AA
:10DDF000704007F09EB820462946BDE8704007F005
:10DE00000EB900BFEA7C020811F0100F70B505468C
:10DE10000C4605D0C16846F66F52002307F089F81A
:10DE200028462146BDE8704007F0F9B811F0010F0F
:10DE300070B504460D4615D0C06A012103685B68C1
:10DE4000984701280ED1E06A00210368DB689847F3
:10DE5000204607F067F82046E16847F27052002339
:10DE600007F067F815F0020F15D0E06A012103688A
:10DE70001B68984701280ED1E06A002103689B685F
:10DE80009847204607F04EF82046E16847F2705266
:10DE9000002307F04EF815F0100F0ED0E06A03686B
:10DEA000DB699847084B1B68984206D02046E1681A
:10DEB00046F66542E36A07F03CF820462946BDE88D
:10DEC0007040FFF7A1BF00BF6881020811F0010F89
:10DED00070B504460D460DD0C36A002B0ADD013B28
:10DEE000C36207F01FF82046E16846F6751200236A
:10DEF00007F01FF815F0020F0ED0E36A132B0BDCAE
:10DF00000133E362204607F00DF82046E16846F64B
:10DF10007512002307F00DF820462946BDE8704031
:10DF2000FFF772BF11F0010F70B504460D460DD01A
:10DF3000C36A012B0ADD013BC36206F0F3FF2046F2
:10DF4000E16846F67512002306F0F3FF15F0020FA4
:10DF50000ED0E36A1D2B0BDC0133E362204606F092
:10DF6000E1FF2046E16846F67512002306F0E1FF66
:10DF700020462946BDE87040FFF746BF11F0200F4C
:10DF800070B505460C4606D0C06846F27852014688
:10DF9000002306F0CEFF28462146BDE8704007F07A
:10DFA0003EB8000011F0010F70B504460D4615D0C3
:10DFB000006A012103685B68984701280ED1206A36
:10DFC00000210368DB689847204606F0ABFF204637
:10DFD000E16847F27052002306F0ABFF15F0020F24
:10DFE00015D0206A012103681B68984701280ED1CB
:10DFF000206A002103689B689847204606F092FF3C
:10E000002046E16847F27052002306F092FF15F0B7
:10E01000100F0ED0206A0368DB699847084B1B6815
:10E02000984206D02046E16846F66542236A06F02B
:10E0300080FF20462946BDE87040FFF79FBF00BF24
:10E040006881020811F0010F70B504460D4615D025
:10E05000C06A012103685B68984701280ED1E06A15
:10E0600000210368DB689847204606F05BFF2046E6
:10E07000E16846F67512002306F05BFF15F0020F0B
:10E0800015D0E06A012103681B68984701280ED16A
:10E09000E06A002103689B689847204606F042FF2B
:10E0A0002046E16846F67512002306F042FF20463E
:10E0B0002946BDE8704006F0B2BF0000C36A70B5E3
:10E0C00004460D461BB91A482A21FFF77BF915F0C3
:10E0D000100F08D0E168E36A204646F66352BDE8B7
:10E0E000704006F026BFE36A1A79043AD2B2012AD8
:10E0F00017D815F0010F08D0DA6812F1FE0F04DB13
:10E10000013ADA60204606F00DFF15F0020F08D044
:10E11000E36ADA68FE2A04DC0132DA60204606F09F
:10E1200001FF20462946BDE8704006F078BF00BFD9
:10E13000157D0208C36A70B504460D461BB91D481B
:10E140002221FFF73FF915F0100F08D0E168E36ACC
:10E15000204646F66352BDE8704006F0EABE15F070
:10E16000010F0ED0E36A1A795AB1013A1A712046AA
:10E1700006F0D8FE2046E16846F67512E36A06F01E
:10E18000D8FE15F0020F0FD0E36A1A79092A0BD8CE
:10E1900001321A71204606F0C5FE2046E16846F6B7
:10E1A0007512E36A06F0C5FE20462946BDE87040B8
:10E1B00006F035BF437D020830B5028400250122F8
:10E1C000456280F82820BDE8304006F06FBE0000B0
:10E1D0007FB5043302AC05460E4693E8030084E89D
:10E1E0000300BDF80E30284604339BB2ADF80A3068
:10E1F0000733ADF80E30044942F002022346009680
:10E2000006F054FE7FBD00BF727D02087FB5043367
:10E2100002AC05460E4693E8030084E80300BDF80F
:10E220000E30284602339BB2ADF80A300733ADF802
:10E230000E30044942F002022346009606F036FEF4
:10E240007FBD00BF7E7D020830B5049D028401229F
:10E250004562BDE8304006F029BE2DE9FF410A9E27
:10E260000D4600214162028480F8283004464FF0B8
:10E270001108304608FB03F806F0D0FD5FFA88F875
:10E2800002AF68B1304606F0C9FD043003C887E824
:10E290000300BDF80E3002339BB2ADF80A3006E041
:10E2A000331D93E8030087E80300BDF80A30984463
:10E2B00020462946012202ABADF80E80009606F0FA
:10E2C000F5FDBDE8FF81FFF7C8BF00002DE9F04173
:10E2D000DDF81880044615461F460E4621B9084849
:10E2E0004FF40371FFF76EF8204629463A460223A1
:10E2F000E662CDF81880BDE8F041FFF7AEBF00BF81
:10E30000D07C0208DBB2FFF7A8BFFFF7A6BF10B5AD
:10E310000A24C462BDE81040FFF79FBF10B50A246D
:10E32000C462BDE81040FFF798BF000073B5044613
:10E3300016460D4619B907480C21FFF743F8E56268
:10E340002046002146F20C3202230096FFF785FF9B
:10E350007CBD00BF157D020810B50524C462BDE870
:10E360001040FFF77ABF13B503469C685B682478BA
:10E37000088853F82430B1F9021000934FF6FF7368
:10E38000002A14BF1A4600224FF61E03FEF7D9FFDB
:10E390001CBD00002DE9F341274DB0F906402B6864
:10E3A000B0F90460B3F84420244B21460093304672
:10E3B0000023FEF7C6FF2B68214F93F84230214619
:10E3C00057F82330801900934FF6FF720023FEF7B1
:10E3D000B8FF2B6806F16408B3F85820194B2146A2
:10E3E000009340460023FEF7ACFF2B68214693F8CC
:10E3F0005630404457F823304FF6FF720093002305
:10E40000FEF79FFF104BC83600932146002330468D
:10E410004BF29652FEF795FF2B68801993F89020E7
:10E420000A4B214653F822304FF6FF720093002327
:10E43000FEF787FFBDE8FC8128A60020C19F0208E7
:10E440006C820208A7A002088A7D0208D482020812
:10E45000F7B50E88154B083E4FF6FF75002A08BF2A
:10E460000025B6B20C460746B1F902102A460093C1
:10E4700030464FF61E03FEF7E4FD7B683618B6B251
:10E48000B4F90210009330462B464FF61E02FEF7F9
:10E4900058FF074B30180093B4F902102A464FF684
:10E4A0001E0380B2FEF7CDFDFEBD00BF386A060830
:10E4B000AA6A060873B5044606F024FDA688144B24
:10E4C000083E4FF6FF75002808BF0025B6B2B4F924
:10E4D000061000932A4630464FF61E03FEF7B1FDA4
:10E4E000E3693618B6B2B4F90610009330462B46ED
:10E4F0004FF61E02FEF725FF064B30180093B4F9C5
:10E5000006102A464FF61E0380B2FEF79AFD7CBD28
:10E51000386A0608AA6A060808B583681A78436844
:10E5200053F8220015F0D6FDC3004FF6F87003EA49
:10E53000000008BD7FB5436804460D46164623B962
:10E5400012484FF42F71FEF73DFF63681A68A36805
:10E5500092FBF3F20A2392FBF3F103FB1122002357
:10E56000ADF80C30303204AB03F8042D4FF6FF72D7
:10E570000093B5F90000B5F90210002E08BF002283
:10E580004FF61E03FEF7FEFE7FBD00BFD07C0208E3
:10E5900070B50E4615461C4606F039FC2A46014663
:10E5A00023463046BDE8704006F0C3BC11F0130F9F
:10E5B00070B505460C4607D006F029FC022201463C
:10E5C0002346284606F0B5FC28462146BDE87040A3
:10E5D00006F025BD11F0010F2DE9F04104460D466E
:10E5E00016D0006A012103685B68984780B1206AF1
:10E5F00000210368DB689847204606F008FC06F017
:10E6000091FCE06847F27052C168002306F091FC6B
:10E6100015F0020F16D0206A012103681B68984785
:10E6200080B1206A002103689B689847204606F065
:10E63000EEFB06F077FCE06847F27052C1680023F9
:10E6400006F077FC15F00C0F0FD00C4E2046294633
:10E650003768FFF793FC3368BB420CD0204606F0C6
:10E66000D6FBBDE8F04106F05DBC20462946BDE87A
:10E67000F041FFF783BCBDE8F08100BF3CA600205D
:10E6800010B50C4606F0C3FB036821465B6898474B
:10E6900010BD11F0130F10B50C4606D006F0B7FBF5
:10E6A000036821465B68984710BDBDE8104006F03E
:10E6B000B6BC000011F0030F10B507D0FFF7C2FC85
:10E6C000044B1868BDE8104005F00EBABDE81040D4
:10E6D000FFF7B8BC28A6002011F0030F10B507D033
:10E6E000FFF7B0FC044B1868BDE8104005F0FCB91A
:10E6F000BDE81040FFF7A6BC28A6002011F0030FCC
:10E7000010B507D0FFF79EFC044B1868BDE8104019
:10E7100005F0EAB9BDE81040FFF794BC28A6002038
:10E7200008B54368B3F9000006F026FA15F0D2FCEC
:10E73000C3004FF6F87003EA000008BD4368F7B560
:10E740004FF6FF7604460D46002A08BF00261BB987
:10E7500013489721FEF736FE6368B5F90070186814
:10E76000A368984202DBE36898420ADD0D4BB5F9D5
:10E7700002100093384632464FF61E03FEF7E1FDC5
:10E780000CE000B2B5F9024006F0F6F9214600901F
:10E79000324638464FF61E03FEF7F4FDFEBD00BFBD
:10E7A0008E7D0208A97D02082DE9F0471F4647F239
:10E7B00070539A4204460D4616463FD100F1380385
:10E7C00099423BD1436A93F80480A8F104095FFAA7
:10E7D00089F9B9F1010F8CBF4FF000094FF0010921
:10E7E000B9F1000F06D0A8F10503D3F1000848EBFA
:10E7F000030801E04FF0010804F1A00A504606F0BA
:10E800007AFC814506D04946504606F09AFB4FF007
:10E81000010901E04FF0000904F16C0A504606F0CE
:10E820006AFC804504D05046414606F08AFB02E06F
:10E83000B9F1000F02D0204606F074FB20462946AD
:10E8400032463B46BDE8F047FFF7A2BEF7B5436846
:10E850000E881C88083E134BB6B20D462246B1F90D
:10E860000210304600934FF61E03FEF7EAFB3618FF
:10E870002046B5F9027006F0C3F9B6B200903946E9
:10E88000234630464FF61E02FEF77CFD064B30183D
:10E890000093B5F9021022464FF61E0380B2FEF730
:10E8A000D0FBFEBD386A0608AA6A060844F6444151
:10E8B0008A4201D106F036BD44F645418A4202D172
:10E8C000012280F82020704711F0100F70B5044627
:10E8D00017D006F09EFA18B90A483D21FEF772FDDE
:10E8E000204606F094FA0546204606F092FA0346C2
:10E8F000DB692046294646F26452BDE8704006F0C6
:10E9000018BB70BDAB7D020801804280704710B516
:10E910008380BDF8083001804280C38010BD0000B4
:10E920007FB5DE2305460E461446009300211622CD
:10E93000D33B02A8FFF7EBFF2846044944F002024C
:10E9400002AB009606F0B2FA7FBD00BFCE7D020892
:10E950007FB5152305460E46144600930C21102260
:10E9600002A84FF49C73FFF7D2FF2846034944F0F6
:10E97000020202AB009606F099FA7FBDE27D020822
:10E980007FB5F02305460E46144600930021102261
:10E99000A03302A8FFF7BBFF2846044944F0020257
:10E9A00002AB009606F082FA7FBD00BFF57D02083B
:10E9B0007FB5F02305460E46144600930021102231
:10E9C000A03302A8FFF7A3FF2846044944F002023F
:10E9D00002AB009606F06AFA7FBD00BF017E020816
:10E9E00070B5F02388B004460E461546009300210A
:10E9F0001022A03306A8FFF78AFF20461A4945F0E7
:10EA0000200206AB009606F051FAB4F90A204FF442
:10EA1000967100924FF4A573103A04A8FFF777FFA0
:10EA200004F140001149012204AB009406F03EFAC3
:10EA3000B4F90A204FF4B47100924FF4C373103A42
:10EA400002A8FFF764FF04F120000949012202AB8C
:10EA5000009406F02BFA00232366FEF7A1FE01388E
:10EA6000606608B070BD00BF117E02081E7E0208FD
:10EA7000237E02087FB5F02305460E461446009318
:10EA800000211022A03302A8FFF741FF28460449C5
:10EA900044F0120202AB009606F008FA7FBD00BFF8
:10EAA000287E02087FB5F02305460E4614460093E3
:10EAB00000211022A03302A8FFF729FF28460349AE
:10EAC000224602AB009606F0F1F97FBD387E0208BF
:10EAD000B0F90420B0F90030D0184010704707B5E5
:10EAE000B0F90030B0F90410B0F90620C918B0F937
:10EAF00002304910D218521001A8FFF705FF019B00
:10EB000000209AB262F30F001B0C63F31F400EBD8E
:10EB100010B5048809190180418852184280828802
:10EB2000D31A8380C288029BD31AC38010BD10B54C
:10EB30000488611A018041888A1A428082889B1861
:10EB40008380029AC388D318C38010BDB0F9042013
:10EB5000B0F90030D01A7047F0B587B004AC051D8D
:10EB6000064695E8030084E80300012100220B46D5
:10EB700020460092FFF7DBFF204648F21041FEF7E7
:10EB80002CFA94E80300184B02AF1B6887E80300D7
:10EB90002846B3F89240FFF7D9FFBDF80A3004FBCE
:10EBA00000F20133ADF80A3004F59674BDF80E306A
:10EBB0004443013BADF80E30B388384603EB2232B4
:10EBC00003EB2434BDF81430ADF80C40ADF8082048
:10EBD00024B21AB29442C8BFADF80C300021FEF73F
:10EBE000FCF907B0F0BD00BF28A6002073B5051DD5
:10EBF000002104462846FEF7F0F90F4B1B68B3F8D6
:10EC0000A260B3F89230F61A36B2002E12DB284614
:10EC1000FFF79CFF86420DDAB4F90400074B043875
:10EC20000093B4F90610801946F20C324FF61E0319
:10EC3000FEF707FA7CBD00BF28A60020A4690608DD
:10EC400030B5051D85B0044600212846FEF7C5F9FC
:10EC5000384B802100930420002348F21042FEF735
:10EC600070FB354B8021009353230193A020533B2D
:10EC70004BF29652FEF787FB304B90210093042015
:10EC8000002348F21042FEF75CFB2D4B90210093CD
:10EC9000A02000234BF29652FEF753FB294BA021F4
:10ECA00000930420002348F21042FEF74AFB264B53
:10ECB000A0200093014600234BF29652FEF741FB41
:10ECC000224BB02100930420002348F21042FEF7AB
:10ECD00038FB1F4BB0210093A0204BF2965200232B
:10ECE000FEF72FFB1B4BC02100930420002348F2AA
:10ECF0001042FEF726FB184BC0210093042301931A
:10ED000001330293033B03934BF29652023BA02044
:10ED1000FEF739FB2846FFF719FFB4F90610A0F5F6
:10ED2000807000EBD0704010183105B0BDE8304065
:10ED3000FEF7AABE427E0208547E0208607E0208E8
:10ED40006A7E0208727E02087C7E0208897E0208C2
:10ED5000997E0208AE7E0208C07E0208F7B5061D45
:10ED6000002105463046FEF738F9514B802148F224
:10ED70001042009304200023FEF7E3FAFEF770FE32
:10ED80008021002300904BF29652A020FEF7D9FA82
:10ED9000484B902148F21042009304200023FEF7D4
:10EDA000D0FAFEF761FE9021002300904BF29652BC
:10EDB000A020FEF7C6FA404BA02148F21042009373
:10EDC00004200023FEF7BDFAFEF752FE0090A020BB
:10EDD000002301464BF29652FEF7B3FA374BB021AF
:10EDE00048F21042009304200023FEF7AAFAFEF72F
:10EDF00033FEB02100234BF296520090A020FEF784
:10EE0000A0FAFEF73BFE2E4B04460093042000239D
:10EE1000C02148F21042FEF794FA2A4B2A4F9C4236
:10EE200004D02A4B9C4203D064B114E0284B00E08C
:10EE3000284B0093A020C0214BF296520023FEF7EE
:10EE400080FA11E0244BA0200093C0214BF296528F
:10EE50002346FEF776FAA020C0214BF296520023FB
:10EE600000970194FEF78FFA1C4BD021009348F2D3
:10EE7000104200230420FEF764FAFEF7FDFDD021C6
:10EE800001904BF296520023A0200097FEF77BFAE8
:10EE90003046FFF75BFEB5F90610A0F5807000EB79
:10EEA000D0704010183103B0BDE8F040FEF7ECBD63
:10EEB000CD7E0208DF7E0208EF7E0208FD7E02089A
:10EEC0000A7F0208766761002E7F020827930402FA
:10EED0001A7F02081E7F0208267F0208337F02087D
:10EEE000B0F90620B0F90230D01A70470388CB1869
:10EEF00003808388C91843888180D3184380C388DE
:10EF0000D218C28070470023038043808380C3806F
:10EF10007047B0F90420B0F900309A42D4BF002005
:10EF2000012070472DE9F04F00F126068BB0044612
:10EF30003046FFF7EEFF0546002847D108AF04F141
:10EF4000040898E8030087E8030001210A460B46FD
:10EF500038460091FFF7EBFD38464BF29651FDF72E
:10EF60007FFF29464046FEF738F848F21042ADF8D8
:10EF70001650ADF81850ADF81A50ADF81C50ADF859
:10EF800014201935B4F90400B4F90A3005AA281878
:10EF9000009205220192043B421CB4F90610193577
:10EFA000FDF78AFFFA2DEDD1E13DB4F9061005AB6E
:10EFB0006918009305230193B4F904004B1CB4F9BC
:10EFC00008201935FDF778FFC82DEED1236A002BF4
:10EFD00000F0A780251D2846FFF7B8FD804628468B
:10EFE000FFF77EFFB4F90AA0323803902046AAF159
:10EFF000190A05F087FF60B1216BA38C01FB08F1B2
:10F0000098FBF3F202EBD27291FBF3F303EB620392
:10F0100001E06FF0130330460293FFF77AFF18B94F
:10F02000E084A4F82A802BE0B4F90420B4F9263057
:10F0300000259A42A8BF1346E384B4F90820B4F926
:10F040002A3001219A42B8BF134663852A460B46EF
:10F0500030460095FFF75CFD30462946FDF7BDFFC1
:10F06000012130462A460B460095FFF760FDB4F9B2
:10F070000410B4F90620304649425242FFF736FFE9
:10F080004FF00009E58CCB4644E0A28C236A6A432A
:10F0900092FBF8F233F81270B7F5805F03D3224881
:10F0A0005D21FEF78FF9039AB4F92630574344BF28
:10F0B00007F57E671F373F13B4F90420BFB29D42A6
:10F0C00008BFBB46AA184FF6FF730093501EC7EB4C
:10F0D0000A03CBEB0A01FEF7DDF9029B9D4208BF54
:10F0E000B94603339D4212D1B4F904000F4B626B51
:10F0F0000638AAF1040100934019C9EB0101082A5E
:10F1000014BF16221F224FF61E03FDF79AFF01358A
:10F11000ADB2BB46B4F92A309D42B6DB3046FFF7AC
:10F12000F2FE0BB0BDE8F08F427F0208D2730608F2
:10F1300013B50446B4F90220B0F90000B4F9063062
:10F140000091114600F10C02FEF73AF8B4F9000004
:10F15000B4F90210B4F90420B4F9063008304BF2C7
:10F1600096540094FDF74AFE1CBD37B50446B4F929
:10F170000250B0F90000B4F90420B4F906300238A6
:10F1800000912946FEF71CF8B4F90000B4F902100A
:10F19000B4F90420B4F9063006304FF6FF7401319B
:10F1A000013A013B0094FEF70BF83EBD07B503465C
:10F1B000B0F900000022B3F90210B3F90630009252
:10F1C00000F10802FDF71AFE0EBD37B50446B0F98E
:10F1D0000000B4F90210B4F90630002500F108026D
:10F1E0000095FDF70BFEB4F90420B4F90210B4F950
:10F1F0000630101F0095FDF701FE3EBD436A37B58E
:10F2000004460BB11B880384204605F07BFE231DBA
:10F2100018B11846FFF7D9FF02E01846FFF7C6FFFE
:10F22000A38820460433A38005F06CFE0546218C9C
:10F23000201D5DB1FFF799FFE369B3B1B4F9040094
:10F24000B4F9061000930C3000220AE0FFF770FFBB
:10F25000E36953B1B4F90400B4F9061000930C301B
:10F260002A464FF61E03FEF76CF8A388043BA380E2
:10F270003EBD0000C36A2DE9F0431F795B79A7F119
:10F280000102574247EB020748F21048002F18BF0F
:10F290004FF00008012B87B0044608D002D3022BA0
:10F2A0000FD109E03A4B1B68B3F8443008E0384B03
:10F2B0001B68B3F8583003E0354B1B68B3F8B63120
:10F2C00003862046FFF79AFFE36AB4F904909A791F
:10F2D000304BB4F9065053F8223009F10E06009372
:10F2E0003046294642464FF61E03FEF72AF8002F05
:10F2F0004BD0E36A284A99799F6852F821403846F2
:10F300000021103514F0A0FB68B1244B3046009367
:10F31000424629464FF61E03FDF793FE07F10042D1
:10F320008619174601E009F11406384613F002FE6B
:10F3300002460B4602A81A49FDF722FD05E006AA7F
:10F3400002EB0903002203F8112C02AF384614F037
:10F35000C1FE8146204614F0BDFE48440728EED881
:10F360003046294642464FF61E030097FEF70AF83C
:10F370005CB123784BB104363018294644F2082298
:10F380004FF61E030094FDF7DCFF07B0BDE8F083E5
:10F3900028A6002010840208408402087C73060816
:10F3A0006E7F0208F0B5C669002585B00446C561C8
:10F3B000FFF724FFE661231D02AE93E803002A460F
:10F3C00086E803002B46304610210095FFF7A0FB8E
:10F3D000E3692A46BDF90A100093BDF908004FF60B
:10F3E0001E03FDF7AEFFBDF80A3020461033ADF81E
:10F3F0000A3005F087FD0246002837D0BDF80870B6
:10F400001E4B083FBFB2BDF90A102A46009338B21E
:10F410004FF61E03ADF80870FDF713FE3818ADF86F
:10F420000800E06A03685B699847BDF90A1007465F
:10F43000BDF9080001F10E033A180095FDF7DEFC56
:10F44000E06A3146036801221B699847BDF808301D
:10F45000BDF90A10FF180A4B38B200932A464FF63E
:10F460001E03ADF80870FDF7ECFD04E0E06A3146DC
:10F4700003681B69984705B0F0BD00BF386A0608ED
:10F48000AA6A0608F0B5044685B0FFF7B7FEB4F9DE
:10F490000450B4F90670E3691035009328463946E4
:10F4A00000224FF61E03FDF74CFF204607F1100621
:10F4B00005F028FD00282ED0234B31460022009372
:10F4C00028464FF61E03FDF7BCFD4519E06A1E37BE
:10F4D00003685B69984732464319294602A800979A
:10F4E000FFF715FA002102A8FDF777FDE76A20462D
:10F4F0003B681D6905F006FD02A902463846A8478B
:10F50000124BBDF90C000093314600224FF61E034A
:10F51000FDF797FD15E0E06A1E3703685B699847C1
:10F5200029464319324602A80097FFF7F0F9E66A28
:10F53000204633681D6905F0E5FC02A90246304605
:10F54000A84705B0F0BD00BF386A0608AA6A0608D9
:10F55000FFF754BE13B50446FFF750FE084BB4F94D
:10F5600004000093E36AB4F9061003EB83030193EC
:10F570001C30103100224FF61E03FDF704FF1CBDA6
:10F58000D197020813B50446FFF738FE084BB4F9CB
:10F5900004000093E36AB4F9061003EB83030193BC
:10F5A0001C30103100224FF61E03FDF7ECFE1CBD8F
:10F5B000D197020873B50546FFF720FEEB6AB5F94F
:10F5C0000440B5F906601B690E34002200933146F1
:10F5D0004FF61E032046FDF7B4FEEB6A31461A795A
:10F5E000114B001953F82230002200934FF61E03EE
:10F5F000FDF7A7FEEB6A06F110011A79052A01D181
:10F600000A4A06E0042A03D0094A00929B6802E0F5
:10F61000084A0092DB680193204600224FF61E0341
:10F62000FDF7B1FE7CBD00BFA8840208727F02080E
:10F63000D1970208797F0208C36AF7B51D7904469D
:10F6400048F21043002D0CBF1D460025FFF7D6FDE4
:10F65000B4F90470B4F906600C4B0E3700933146D0
:10F660002A4638464FF61E03FDF76BFEE36A38461E
:10F670001A79074B06F1100153F822302A460093FD
:10F680004FF61E03FDF75DFEFEBD00BF7D7F020845
:10F690007C8402087FB50646FFF7B0FD0E4BF06A8A
:10F6A000009313F0DFFF0D4914F0E4F80C4913F058
:10F6B00025FF13F03FFCB6F90450B6F906401C359F
:10F6C0001034CDE902010022284621464FF61E03E0
:10F6D000FDF759FE7FBD00BF877F02080000204173
:10F6E0000AD7233C73B5B0F90420B0F906300E46B2
:10F6F000B0F9021004464FF4E045101F0431043203
:10F7000004330095FDF75CFDB4F90630B4F9000050
:10F71000B4F90420191F0430043204330095FDF7B6
:10F720004FFDB4F90000B4F90210B4F9063000F14D
:10F730000C020096FDF744FDB4F90000B4F9042072
:10F74000B4F90210B4F906304BF296550830043A79
:10F750000095FDF753FBB4F90420B4F90210B4F995
:10F760000630A2F108000095FDF72AFD7CBD73B5B7
:10F77000B0F90420B0F906300E46B0F90210044684
:10F780004FF4E045101F0431043204330095FDF7B7
:10F7900017FDB4F90630B4F90000B4F90420191FBC
:10F7A0000430043204330095FDF70AFDB4F900007B
:10F7B000B4F90210B4F90420B4F906300096FDF74C
:10F7C000FFFC7CBD30B5024685B00D46006851682F
:10F7D00002AB022403C302A80021FDF72DFD22463F
:10F7E000234602A821460094FFF792F902A8294671
:10F7F000FDF722FD02A821460E2223460094FFF7C2
:10F8000087F902A84BF29651FDF716FD05B030BD01
:10F8100073B50446051D218C2846FFF7D3FF284603
:10F82000FFF756F9E5690646284614F053FCB4F98B
:10F830000610C0B28000301A023100224FF61E03BB
:10F840000095FDF77EFD7CBDF0B589B0031D054632
:10F8500004AC93E8030084E803001846298CFFF702
:10F86000B1FF2046FFF734F9EE690746304614F041
:10F8700031FCBDF91210C0B2800002310022381AEA
:10F880004FF61E030096FDF75CFD122104230A4685
:10F89000009320460B46FFF73BF9686A14F01AFC08
:10F8A00007462046FFF71BF9ADF80800C0F30F40EC
:10F8B000ADF80A00029E20460796FFF710F9ADF852
:10F8C0000800C0F30F40ADF80A0002996B6AFF0010
:10F8D00036B2A6EB67060691091400933046073945
:10F8E00000224FF61E03FDF72CFD09B0F0BDF0B568
:10F8F00085B0031D044602AD93E8030085E80300CC
:10F900001846218CFFF75EFF2846FFF7E1F8E6690D
:10F910000746304614F0DEFBBDF90A10C0B2800085
:10F9200002310022381A4FF61E030096FDF709FD3A
:10F9300012210423009328460A460B46FFF7E8F8F5
:10F94000636ABDF90800BDF90A1000930430043160
:10F9500000224FF61E03FDF7F4FC05B0F0BD4BF29C
:10F960009651FDF73ABB2DE9F041012104460026EE
:10F97000FDF742FBD02514E0EB10DA024FEAA508B0
:10F9800042EA4818204648EA0308FFF7DFF807462E
:10F9900002E04046FDF73AFB013FFAD20D3DEDB2E1
:10F9A00001362046FFF79CFA8642E5DBBDE8F041D0
:10F9B000FDF746BB10B5044605F0A4FA231D20B997
:10F9C0001846BDE81040FFF7CABF1846BDE8104012
:10F9D000FFF7C9BF2DE9FF47044605F093FA4FF63C
:10F9E000FF75002808BF00252046FFF7E3FFE36905
:10F9F000B4F904002A46B4F90610009304304FF617
:10FA00001E03FDF79EFC206A01210368B4F90480FF
:10FA10005B6898478146206A0121036808F17807EE
:10FA20001B689847B9F1010F064607D1244BB4F97A
:10FA30000610009308F170002A460AE0B9F1000FA1
:10FA40000BD11F4BB4F90610009308F1700048F277
:10FA500010424FF61E03FDF7F4FAD4F820A0231D40
:10FA600093E803000DF10809DAF8003089E8030093
:10FA70002046D3F81080ADF80870ADF80C7005F092
:10FA800041FA494602465046C047206A03685B690E
:10FA90009847012E384405D10A4BB4F9061000935B
:10FAA0002A4606E04EB9074BB4F90610009348F217
:10FAB00010424FF61E03FDF7C4FABDE8FF8700BFF2
:10FAC0002E670608A067060837B5054605F01AFA3E
:10FAD0004FF6FF74002808BF00242846FFF76AFF8E
:10FAE000EB69B5F904000093B5F90610043022461D
:10FAF0004FF61E03FDF725FC3EBD13B50446FFF788
:10FB000059FFE369B4F904000093B4F90610043016
:10FB100000224FF61E03FDF714FC1CBDF0B585B0A6
:10FB2000044605F0EFF94FF6FF75002808BF0025E1
:10FB3000204605F0E7F990B102AB221D92E80300E0
:10FB400083E80300BDF808201846083AADF80820FD
:10FB5000BDF80C200832ADF80C20FFF704FF20465A
:10FB600005F0D0F958B1174BB4F904000093B4F97B
:10FB7000061007382A464FF61E03FDF762FA276A79
:10FB800020463B681E6905F0BDF9211D0246384636
:10FB9000B047206AA78803685B69984706462046F5
:10FBA00005F0B0F958B1084B3FB2781C0093B4F996
:10FBB000061080192A464FF61E03FDF742FA05B0DB
:10FBC000F0BD00BF2E670608A067060838B54FF6DF
:10FBD0001F03994204460A4607D005696169806897
:10FBE000E3682818C918FDF7F1F86269236912F073
:10FBF000010F07D0591E002921610BDA0132236160
:10FC0000626138BDA069591C8142216102DB013269
:10FC10002361626138BD10B500231A46416811F8AE
:10FC2000014B416004F07F019140073214F0800FD6
:10FC300043EA0103F2D1184610BD38B54FF0FF3347
:10FC400003600B780446472B0D461CD18B1C436088
:10FC5000FFF7E1FFA0612046FFF7DDFFE0616B7871
:10FC6000422B10D1234604F1200061680A4612F8A5
:10FC7000015B626049780132626041EA05221A84C0
:10FC800002338342F1D138BD03460068B0F1FF3F33
:10FC900006D15A6812F8010B18605A6000117047BB
:10FCA0004FF0FF3200F00F001A60704770B500246B
:10FCB000064625463046FFF7E7FFC0B200F00703CF
:10FCC000AB40033510F0080F44EA0304F2D120469C
:10FCD00070BD00002DE9F8434FF0FF33036001339E
:10FCE000036143618769C36904468160C260D0F8DB
:10FCF00004805F4301262FE0AEB12046FFF7D6FF18
:10FD0000451C2046FFF7C0FF0026814607E009F1A9
:10FD10001003204634F81310FFF758FF0136AE42A7
:10FD2000F5DB002612E02046FFF7AEFF451C0AE097
:10FD30002046FFF7A9FF00F1100334F81310204606
:10FD4000FFF744FF0136AE42F2DB01267F1B03D5ED
:10FD500004484821FDF736FB002FCDDCC4F80480B1
:10FD6000BDE8F8838D7F0208074A08481168084BF0
:10FD700030B50468074DCB1805FB0433013103602F
:10FD800058041160400C30BD78A5002018300020C8
:10FD9000F390240021F17D0030B5264B89B0044654
:10FDA00005AD93E807000C3385E8070093E80700EA
:10FDB00094F8203002AD85E80700C3B1201D4FF64E
:10FDC000FF71FDF70AF9B4F90400B4F90A101A4BEF
:10FDD0000830009314394FF61E030022FDF7B1FAE4
:10FDE000002384F82030059B6362029BA362FFF727
:10FDF000BBFF032290FBF2F202EB420208A9821A37
:10FE000001EB82020346616A52F80C0C9B00401819
:10FE10004010606252F8181CA26A89184FF6FC72F2
:10FE2000491003EA0202A16209B0BDE83040FCF7C4
:10FE3000CDBF00BF38780208A57F02084162704735
:10FE400073B5044616460D4619B90C480D21FDF749
:10FE5000B9FA0B4B00211B682046B3F844300A4620
:10FE60002386E56202230096FEF7F7F9204604F1A7
:10FE7000300102B0BDE87040FFF7E0BFEA7C020845
:10FE800028A6002073B5054616460C4619B90A483F
:10FE90000C21FDF797FAEC62284634F8062F002172
:10FEA00002230096FEF7D9F92846214602B0BDE8A4
:10FEB0007040FFF7C3BF00BF437D02082DE9F0414A
:10FEC0000C46154698460026A75B1FB94FF61F0340
:10FED000A3530DE0FA08294602F0FC02404604F064
:10FEE00053FFFA0AA0530021D20004F04DFFA053A3
:10FEF0000236202EE8D1BDE8F08110B592B004465C
:10FF000005F000F8231D218C70B11846FFF72FFC77
:10FF1000616A21B302A8FFF790FE20460AA94EF2BB
:10FF200010424FF6FF730DE01846FFF7DBFB616AE6
:10FF3000A9B102A8FFF781FE20460AA94EF21C7261
:10FF40004BF29653FFF7BAFF089BB4F90810B4F9C7
:10FF50000A20C91A099B02A8D21AFFF7BBFEE3695F
:10FF6000B4F904000093B4F906100C3000224FF6E7
:10FF70001E03FDF7E6F912B010BD41608260037305
:10FF80007047000008B50379012B09D002D3022B7A
:10FF90000FD10AE08368188800F01F00400808BDF0
:10FFA00083681888C0F3C31008BD83681888000BE5
:10FFB00008BD03484FF48271FDF704FA002008BD24
:10FFC0008E7D020830B54FF6FF7585B00C46002ACD
:10FFD00008BF0025FFF7D6FF04F002FE00238DF8CE
:10FFE0000D3003AB8DF80C000093B4F90000B4F9A8
:10FFF00002102A464FF61E03FDF7C4F905B030BDC6
:020000040801F1
:10000000002908B50CDDFFF7BDFF0E288CBF0020CE
:10001000012008BDFFF7B6FF003818BF012008BD5A
:10002000F8DB002008BD00000379012B12D002D3B9
:10003000022B2CD11DE08268138823F01F031B04C0
:100040001B0C0F2902D04900C9B200E01F2141EA70
:1000500003031AE08268138823F4FC631B041B0C5F
:100060000F2902D08900C9B200E03F2143EA4113C1
:100070000BE0826813885B055B0D0F2902D04900F5
:10008000C9B200E01F2143EAC12313807047024830
:100090004FF48E71FDF796B98E7D020810B50446B7
:1000A000FFF770FF30B1411EC9B22046BDE81040D5
:1000B000FFF7BABF10BD10B50446FFF763FF0E2867
:1000C00006D8411CC9B22046BDE81040FFF7ACBFBE
:1000D00010BDC8684042704710B5044605F018F8D6
:1000E000014B2046236010BD08710208014B0360DC
:1000F000704700BF5071020810B50446FFF7F6FFC5
:10010000014B2046236010BD2871020810B504463B
:10011000FFF7ECFF014B2046236010BDF07402088E
:1001200010B5044604F0F4FF014B2046236010BDD7
:100130009871020810B50446FFF7F2FF014B204604
:10014000236010BD7871020810B50446FFF7E8FF80
:10015000014B2046236010BD9076020810B504467E
:1001600005F0E0F82046BDE8104005F0B9B8FFF70B
:10017000F5BFFFF7F3BF000038B50D4B1B68D3F890
:10018000C040002C11DDD3F8B400013013F06AFA3E
:100190000146084813F06EFB0546204613F062FA4C
:1001A0000146284613F066FB38BD002038BD00BF6D
:1001B00028A6002000BA5B4A37B50446FFF71EF8B0
:1001C0002046FFF7D9FF13F067FC13F04BFA082124
:1001D000B4F90450B4F9064004F058FD1C3510344D
:1001E00000902146284600224FF61E03FDF7CAF86C
:1001F0003EBD000038B5104B084610491C6813F08E
:1002000085FA0546D4F8C00013F02CFA01462846BA
:1002100013F07CFA01460A4813F02CFB13F03CFC67
:10022000D4F8B43001380128B8BF0120C4F8B400B4
:10023000C01A18BF012038BD28A600200000A04128
:100240004054894C2DE9F04711F0010904460D4650
:1002500003D111F0020F00F0CE802046FFF78CFF93
:1002600000210646012713F003FC00B9002717F010
:10027000FF0F03D162482321FDF7A4F830466149FE
:1002800013F0ECFBE8B930465F4913F0E7FBD8B94F
:1002900030465E4913F0E2FBC0B930465C4913F0CA
:1002A000DDFBA8B930465B4913F0D8FB90B9304666
:1002B000594913F0D3FB78B93046584913F0CEFBB7
:1002C00060B94FF07E570AE0554F08E04D4F06E009
:1002D0004D4F04E04D4F02E04D4F00E04D4FB9F15E
:1002E000000F11D03046394613F0CCFB28B1304610
:1002F000394613F001F9804600E0B046404600213F
:1003000013F0ACFB10B903E0B04601E04FF07E58AB
:1003100015F0020F10D04046424913F095FB20B172
:100320004046394613F0EAF880464046002113F073
:1003300095FB08B14FF07E583946404613F09AFAC3
:1003400013F0AAFB13F08EF9394613F0DFF94FF0E2
:100350007E51074613F078FB08B14FF07E573846C0
:10036000314613F067FB002843D139462046FFF79A
:1003700041FF80462046FFF7FFFE31468246384661
:1003800013F080FB38B15046314613F067FB00286C
:1003900018BF4FF000083846314613F055FB20B126
:1003A0005046314613F064FB10B9B8F1000F16D176
:1003B0001D4BB9F1000F07D01B68D3F8B400B0F59E
:1003C000803F0CDA013005E01B68D3F8B400012847
:1003D00005DD0138C3F8B40080B2FDF765FA2046A8
:1003E00004F0A0FD2046E16846F67512002304F0F3
:1003F000A0FD20462946BDE8F047FDF705BD00BF3A
:10040000B27F02080000C84200007A4400401C4647
:100410000050C347002474498096184B20BCBE4C42
:10042000000020418096984B28A6002010B5054C6E
:100430002368586AFCF764F82368986ABDE810409E
:10044000FCF765B828A6002010B5054C8900236884
:100450005962FFF7EBFF2068BDE8104003F044BB92
:1004600028A6002010B5074C890023689962FFF781
:10047000DDFF6420FCF700F82068BDE8104003F0C1
:1004800033BB00BF28A600202DE9FF41044604F03D
:1004900039FD4BF29655B4F90A204FF6FF73002848
:1004A00018BF1D46B4F90410B4F90830101F083BFA
:1004B0000C3A0090123102A8FEF729FA02A844F281
:1004C0000821FCF78AFD02210A460B4602A800918A
:1004D000FEF71EFB02A8FEF739FB23688046DB69A6
:1004E00020469847236807469B6A2046984723681A
:1004F00006465B6A20469847A8F1100807FB08F7F4
:10050000361ABDF8083097FBF6F7FF18BFB2ADF802
:10051000087002A810372946ADF80C70FCF75DFD95
:10052000BDE8FF81036870B5DB690E460446984755
:1005300016F0010F05460DD0236820465B6A9847E8
:10054000854207DD236820461B6A691E98472046BE
:10055000FFF79AFF16F0020F0DD0236820469B6A22
:100560009847854207DA236820461B6A691C98472A
:100570002046FFF789FF20463146BDE87040FDF771
:1005800043BC10B50446FEF739FE2046BDE81040D6
:10059000FFF77ABF014B18682C30704728A600205F
:1005A00008B5FFF7F7FF0368013B036008BD08B516
:1005B000FFF7F0FF03680133036008BD38B5044658
:1005C0000D46FFF7E7FF006863682D189D4205DBC5
:1005D000A0688542CCBF0020012038BD002038BD76
:1005E000416082607047000010B5FFF7D3FF0068DC
:1005F00038B100B204F0C0FA0349044613F074FBAA
:1006000000E0024C204610BDE87F0208E27F0208AD
:1006100008B5FFF7E9FF13F05DFDC3004FF6F87072
:1006200003EA000008BD73B54FF6FF740E88002A78
:1006300008BF0024B1F90250FFF7D6FF2946009009
:10064000224630464FF61E03FCF77BFE7CBD2DE9AB
:10065000F04100F1300405460F46164620460021C1
:100660000F22DDF81880FFF7BBFF284621463A46E7
:100670003346CDF81880BDE8F041FDF727BE0000F5
:100680007FB50E46F0233C210446154600930A46EA
:10069000283302A8FEF73BF920462A4602AB104950
:1006A000009604F003FC04F1200002230D4948F2F7
:1006B00010420094FDF707FE04F14C0002230A49A2
:1006C00048F210420094FDF7FEFD04F1780007495E
:1006D00048F2104202230094FFF7B9FF7FBD00BF2C
:1006E000EE7F0208FF7F02080980020810800208DE
:1006F0000A4B73B51A6800F1300405460E462046D1
:10070000083201230649FFF738FC28462146054AEE
:1007100048F210430096FDF7D9FD7CBD28A60020C5
:1007200034850208238002084160704710B50446F2
:1007300008F092FD63681B68002B04DA094ADB436A
:1007400052F8230010BD0C2202FB030002780AB904
:10075000406810BD013B0C38B3F1FF3FF6D10020DB
:1007600010BD00BF3C850208436810B51C68002C12
:1007700006DB08F071FD0C2303FB0404606810BD68
:10078000002010BD38B50446FFF7D0FF05462046CF
:10079000FFF7EAFF04461DB1284613F09BFC05460F
:1007A0001CB1204613F096FC00E02046451904B128
:1007B0000235ED004FF6F87005EA000038BD000084
:1007C0002DE9F3414FF6FF7607460C46002A08BF95
:1007D00000260D88FFF7AAFF80463846FFF7C4FFC2
:1007E0000746B8F1000F0BD02846B4F90210324684
:1007F0004FF61E03CDF80080FCF7A3FD2D18ADB217
:10080000B7B10C4B0435ADB2B4F9021000932846D1
:1008100032464FF61E03FCF794FD04352818B4F950
:10082000021080B232464FF61E030097FCF789FD96
:10083000BDE8FC813080020838B50C46154608F04A
:100840000BFD2B1905D5124A13F1050FB8BF13463E
:100850001BE0002D4FF00C020BDD631C02FB0404B7
:1008600002E00C348AB90133227B022AF9D1084B09
:100870000BE0631E02FB040403E014F80C2D22B904
:10088000013B002BF9DA4FF0FF33184638BD00BFAB
:1008900019FCFFFF10B544684FF0FF322168FFF7E5
:1008A000CBFF206010BD10B5446801222168FFF71E
:1008B000C3FF206010BD000008B543680A461968F0
:1008C000FFF7BAFF024BC01A18BF012008BD00BFD6
:1008D00019FCFFFF07B5009111461A4648F2104374
:1008E000FDF7F4FC0EBD00007FB51546F02328226D
:1008F00004460E4600933C219B1802A8FEF707F819
:100900002A4602AB214D20462149009604F0CEFA3A
:1009100004F120002146FFF7EBFE296804F1600690
:1009200030460C31FFF700FF324604F168002146E3
:10093000184BFFF7CFFF296804F1980630461031B5
:10094000FFF7F2FE324604F1A0002146124BFFF7FA
:10095000C1FF296804F1D00630461431FFF7E4FEE8
:10096000324604F1D80021460C4BFFF7B3FF29684B
:1009700004F5847630461831FFF7D6FE04F588700A
:1009800021463246064BFFF7A5FF7FBD28A6002073
:1009900032800208468002085480020864800208FF
:1009A0006E80020810B5044604F0B2FB014B2046ED
:1009B000236010BDC070020810B50446FFF7F2FFB7
:1009C000014B2046236010BD6876020810B504462E
:1009D000FFF78CFB014B2046236010BDB076020868
:1009E00010B50446FFF79CFB014B2046236010BD69
:1009F000F876020870B50546FFF792FB064B2C46C9
:100A000044F8203B05F1B00620462434FFF7E8FF08
:100A1000B442F9D1284670BDD876020810B5044614
:100A2000FFF764FB014B2046236010BD18770208D6
:100A300010B50446FFF750FB214B204640F8243BFD
:100A4000FFF782FB04F14400FFF77EFB04F1640032
:100A5000FFF77AFB04F18400FFF776FB04F1A400B2
:100A6000FFF7B4FF04F1B000FFF7B0FF04F1BC00E2
:100A7000FFF7ACFF04F1C800FFF7A8FF04F1D400B2
:100A8000FFF7B8FF04F5C270FFF7A0FF04F5C870C8
:100A9000FFF79CFF04F5CE70FFF798FF04F5D470C4
:100AA000FFF794FF04F5DA70FFF7A4FF04F519705F
:100AB000FFF7B4FF04F51B70FFF73CFB204610BDA9
:100AC0006093020810B50446FFF72AFB014B20464D
:100AD000236010BD4077020810B50446FFF7FCFA0A
:100AE0002D4B204640F8643BFFF7ECFF04F18400F7
:100AF000FFF7E8FF04F1A400FFF7E4FF04F1C400EE
:100B0000FFF722FB04F1E400FFF71EFB04F58270FF
:100B1000FFF71AFB04F59270FFF716FB04F5A270BD
:100B2000FFF712FB04F5B270FFF70EFB04F5C2707D
:100B3000FFF7E2FA04F5CA70FFF7FCFA04F5DC707F
:100B4000FFF7DAFA04F5E470FFF7F4FA04F5F6704B
:100B5000FFF764FF04F5FA70FFF7ECFA04F506708E
:100B6000FFF75CFF04F50870FFF7E4FA04F5117075
:100B7000FFF72CFF04F51470FFF728FF04F517703A
:100B8000FFF724FF04F51A70FFF720FF04F51D702E
:100B9000FFF730FF204610BD8092020810B50446D2
:100BA00004F0B6FA114B204640F8203BFFF704FF53
:100BB00004F15000FFF7F6FE04F17C00FFF7F2FEAF
:100BC00004F1A800FFF7EEFE04F1D400FFF7EAFEFF
:100BD00004F58070FFF7E6FE04F59670FFF728FF36
:100BE00004F57170FFF778FF204610BDB893020836
:100BF00070B504460D46164604F08AFA024B25628B
:100C000023606662204670BD709B020870B5044682
:100C10000D46164604F07CFA024B2562236066629C
:100C2000204670BD509B020870B504460D4616461E
:100C300004F06EFA034BED00F60023602562666255
:100C4000204670BD309B020810B520213222044698
:100C5000FFF7CEFF014B2046236010BD187002083D
:100C6000202110B50A460446FFF7C2FF014B20467B
:100C7000236010BD3870020810B5202107220446F9
:100C8000FFF7C4FF014B2046236010BD58700208D7
:100C900010B5202110220446FFF7C6FF014B204665
:100CA000236010BD7870020870B5438986B0A3F147
:100CB0001802153BADF81220ADF816300546066E49
:100CC000FCF76EFD4FF4C8746643B6FBF0F06D6E32
:100CD000ADF81000FCF764FD01356543BDF8103038
:100CE000B5FBF0F5ADF814501AB22DB2AD1A012DC6
:100CF00007DC0233ADF814301BB2A342C8BFADF815
:100D0000144004AC20464FF6FF71FCF766F9BDF8BD
:100D1000102013B2002B0EDD02AB94E8030083E831
:100D20000300ADF80C201846002244F20821ADF86B
:100D30000820FCF752F9BDF8142013B2B3F5C87FB0
:100D40000FDA02AB04A903C983E80300ADF8082059
:100D500018464FF4C87244F20821ADF80C20FCF795
:100D60003CF9FCF747FD0446FCF71AFD4FF4C87345
:100D70005C43BDF91210BDF916301F22B4FBF0F030
:100D8000009201310246013BFCF784FB06B070BDC6
:100D900010B5044604F0BCF9044B2046236001233F
:100DA00084F82030013B636210BD00BF0078020868
:100DB00004F0B8B847F269418A4201D1FFF7F8BFA1
:100DC00044F644418A4205D001318A4202D10122CF
:100DD00080F82020704710B501704270837010BDFC
:100DE000F8B5114B4FF4AF7707FB013700F13C0426
:100DF0000E2615E07B5D202B02D0232B06D101E0CF
:100E0000012300E0002304F8013B03E00748F82138
:100E1000FCF7D8FA0135192DECD11937013E01D074
:100E20000025E7E7F8BD00BF507802087880020887
:100E3000192303FB0213C0183C30704773B50646F4
:100E4000FEF792FF1923B0FBF3F505FB1305FEF740
:100E50008BFF0E23B0FBF3F404FB1304294630464A
:100E60002246FFF7E5FF0378012BE9D10133037038
:100E7000E2B2023B01A8E9B2FFF7ADFF019B0020FF
:100E80001A0CDBB263F307009DF8053063F30F2003
:100E9000D3B263F317407CBD002310B50446C36290
:100EA000FEF762FF1923B0FBF3F202FB1303636248
:100EB000FEF75AFF0E23B0FBF3F202FB1302616A46
:100EC000A2622046FFF7B4FF0378012BE8D1043378
:100ED000037010BD2DE9F0474FEA41180F242FE0B1
:100EE000032B03D8DFE803F005090C0F00252E467D
:100EF0000BE0C0F10F063D4607E02646054604E03C
:100F00002546064601E005463E46134946EA0515D4
:100F10004AEA400601EB8606D6F8786146FA09FCF3
:100F20001CF00F0C08BF4FF0020C01EB4C01B1F8A4
:100F300078140130102822F81510D1D1013C09D3C2
:100F4000C4F10F0704F0070948EAE70A4FEA8909E4
:100F50000020C5E7BDE8F0873878020870B5ADF528
:100F6000027D0C4606461546FFF762FF017805290B
:100F700003D1304602AAF36A06E0042908BF336BA6
:100F8000304602AA18BF0023FFF7A4FF02A8691C7D
:100F9000621CAB1C00904FF480700190090120018D
:100FA00012011B01FBF788FF0DF5027D70BD11F0EA
:100FB000020F034606D0C26A0132032AC2620EDD66
:100FC000002206E011F0010F07D0C26A002A02DDFC
:100FD000013ADA6203E00322FBE704F020B8596A21
:100FE0009A6A1846FFF7BABF70B5064600240AE0B1
:100FF0002946304622460135FFF7B0FF192DF7D1BB
:1010000001340E2C01D00025F2E770BD10B5044666
:1010100004F088F9A36B6FF00901594301F596714B
:1010200020466429B8BF6421BDE8104004F094B89C
:1010300010B50446FBF70CFA40F22D1360602381D3
:10104000204610BD038813B940F22D13038109888F
:101050000180704738B504460D46FBF7F9F9626820
:101060002389821A9A4215D923889BB12B80238920
:1010700040F22D129342606002D14FF4967307E064
:10108000B3F5967F01D1642302E00A2B04D90A3B11
:10109000238138BD00232B8038BD000010B50446E5
:1010A00004F036F8014B2046236010BD2090020862
:1010B00010B5044604F02CF8014B2046236010BD07
:1010C000F86F020810B50446FFF76CFC014B204690
:1010D000236010BD9870020810B50446FEF7FCFFAF
:1010E000114B204640F8283BFFF706F804F1380082
:1010F000FFF702F804F14800FEF7FEFF04F1580084
:10110000FEF7FAFF04F16800FFF714F804F18C0011
:10111000FFF710F804F1B000FFF70CF804F1D40069
:10112000FFF708F8204610BDE870020870B50546C4
:1011300003F0EEFF084B2C4644F8203B05F5AC7657
:1011400020463434FFF7BEFFB442F9D12046FFF702
:10115000C3FF284670BD00BFF097020810B50446D3
:10116000FFF720FC014B2046236010BD10720208DF
:1011700010B50446FFF7F2FF014B2046236010BD77
:10118000D871020810B50446FFF7E8FF014B20466E
:10119000236010BD4872020810B50446FFF702FC38
:1011A000014B2046236010BDA872020810B504460A
:1011B000FEF79CFF014B2046236010BDD072020851
:1011C00010B50446FFF7E8FF034B204640F8303BDC
:1011D000FFF7ECFF204610BD8072020810B50446F0
:1011E00003F096FF094B204640F8203BFFF7C0FF75
:1011F00004F14C00FFF7C6FF04F17800FFF7E0FFB1
:1012000004F1B400FFF7CEFB204610BDB871020810
:1012100010B50446FFF7C0FF034B204640F8303BB3
:10122000FEF76AFF204610BD1873020810B5044689
:10123000FEF75CFF014B2046236010BD407302089F
:1012400010B50446FFF7A8FF014B2046236010BDF0
:101250006873020810B5044603F05AFF134B20468A
:1012600040F8203BFFF7D4FF04F16000FFF7DEFFFA
:1012700004F16800FFF7E4FF04F19800FFF7D6FFE0
:1012800004F1A000FFF7DCFF04F1D000FFF7CEFF70
:1012900004F1D800FFF7D4FF04F58470FFF7C6FF10
:1012A00004F58870FFF7CCFF204610BDF8720208E5
:1012B00010B50446FFF776FB014B2046236010BDB6
:1012C0009073020810B5044603F022FF194B204624
:1012D00040F8203BFEF710FF04F13000FEF70CFF52
:1012E00004F14000FEF708FF04F15000FEF704FF90
:1012F00004F16000FEF700FF04F17000FEF7FCFE51
:1013000004F18000FFF7D4FF04F1B000FFF7D0FF35
:1013100004F1E000FFF7CCFF04F58870FFF7C8FF89
:1013200004F5A070FFF7C4FF04F5B870FFF7C0FF25
:10133000204610BDF09A020810B50446FFF732FBB4
:10134000014B2046236010BDB873020810B5044657
:1013500003F0DEFE154B204640F8203BFFF7ECFF84
:1013600004F14C00FFF7E8FF04F17800FFF7E4FF19
:1013700004F1A400FFF7E0FF04F1D000FFF7DCFF69
:1013800004F1FC00FFF7D8FF04F59470FFF790FF1D
:1013900004F5AC70FEF7B0FE04F5B470FFF788FFFB
:1013A00004F5CC70FEF7A8FE204610BDB8AB0208CD
:1013B00010B50446FFF7F0FE034B204640F8303BE3
:1013C000FEF79AFE204610BDE073020810B50446F1
:1013D000FFF7E8FA014B2046236010BD08740208AD
:1013E00010B50446FFF7DEFA014B2046236010BD1E
:1013F0003074020810B50446FFF7D4FA014B2046BA
:10140000236010BD5874020810B5044603F080FE36
:10141000094B204640F8203BFFF7CAFF04F160006B
:10142000FFF7D4FF04F18C00FFF7DAFF04F1BC00F2
:10143000FFF7E0FF204610BD90A5020870B50546F5
:1014400003F066FE064B2C4644F8203B05F1FC06F3
:1014500020462C34FFF7A6FAB442F9D1284670BDD5
:1014600070A6020810B5044603F052FE0D4B20464C
:1014700040F8203BFFF796FA04F14C00FFF792FA90
:1014800004F17800FFF78EFA04F1A400FFF78AFA5E
:1014900004F1D000FFF786FA04F1FC00FFF782FAAE
:1014A000204610BDE0A5020810B50446FFF77AFA01
:1014B000014B2046236010BD8074020810B504461D
:1014C000FFF770FA014B2046236010BDA874020894
:1014D00010B50446FEF700FE0D4B204640F8283BB1
:1014E000FEF70AFE04F13800FEF724FE04F15C006A
:1014F000FEF70CFE04F16C00FEF71CFE04F19000F8
:10150000FEF704FE04F1A000FEF714FE204610BD15
:10151000D074020810B50446FEF7E8FD014B2046E2
:10152000236010BD3875020810B50446FEF7DEFDD5
:10153000014B2046236010BD6075020810B50446BB
:10154000FEF7CAFD154B204640F8283BFFF7E2FFA7
:1015500004F13000FFF7E8FF04F13C00FFF7E4FF7F
:1015600004F14800FFF7E0FF04F15400FEF7E2FD4C
:1015700004F17800FEF7DEFD04F19C00FEF7DAFDD1
:1015800004F1C000FEF7D6FD04F1E400FEF7B4FD5F
:1015900004F1F400FEF7CEFD204610BD18750208D8
:1015A00010B5044603F0B4FD0D4B204640F8203B37
:1015B000FFF77AFF04F15000FFF776FF04F1800097
:1015C000FFF772FF04F1B000FFF778FF04F1E000CD
:1015D000FFF77EFF04F5D270FFF7B0FF204610BD85
:1015E000A09A020810B5044603F092FD014B204674
:1015F000236010BD8875020810B5044603F088FD0D
:10160000014B2046236010BDA875020810B50446A2
:1016100003F07EFD014B2046236010BDC875020813
:1016200010B5044603F074FD014B2046236010BD45
:101630000876020810B5044603F06AFD014B204607
:10164000236010BD2876020810B5044603F060FD43
:10165000014B2046236010BD4876020810B50446B1
:1016600003F056FD014B2046236010BD689C020824
:1016700010B5044603F04CFD014B2046236010BD1D
:101680006077020810B5044603F042FD114B204676
:1016900040F8203BFFF7ECFF04F14800FFF7E8FFBC
:1016A00004F17000FFF7E4FF04F19800FFF7E0FF9A
:1016B00004F1C000FFF7DCFF04F1E800FFF7D8FFFA
:1016C00004F58870FFF7D4FF04F59C70FFF7D0FF96
:1016D000204610BDD890020810B5044603F018FD4E
:1016E000014B2046236010BD8077020810B50446E8
:1016F00003F00EFD014B2046236010BDC0770208A9
:1017000010B5044603F004FD054B204640F8303B7D
:10171000FFF7ECFF04F15000FFF7E8FF204610BD93
:10172000A077020870B5044603F0F2FC0A4B20468D
:1017300040F8303BFFF7DAFF04F15000FFF7D6FF27
:1017400004F1700504F1F00628462035FFF7CEFFBE
:10175000B542F9D1204670BD58AA020810B504461A
:1017600003F0D6FC014B2046236010BD38AA0208C6
:1017700010B5044603F0CCFC054B204640F8203B56
:10178000FFF7B4FF04F14000FFF7B0FF204610BDA3
:10179000E077020810B5044603F0BAFC014B20467E
:1017A000236010BD18AA0208F8B5046805460E4665
:1017B0001046214611F0A0FE0746B6F90200B6F920
:1017C0000060801B11F04EFF0146384611F09EFF6D
:1017D00021460746686811F08FFE0146384612F030
:1017E00049F80446304611F03DFF0146204611F00D
:1017F00085FE12F051F9F8BD0A4600F10801FFF725
:10180000D3BF0000094B10B5C06A1C6811F02AFF55
:10181000074912F02FF804F59C6401462046FFF7B3
:10182000EBFF80B2BDE81040FCF734B828A60020DA
:101830000000204111F0010F70B504460D4609D09B
:10184000C36A032B06DD013BC36203F06BFB20463A
:10185000FFF7D8FF15F0020F0AD0E36A182B07DC58
:1018600001332046E36203F05DFB2046FFF7CAFF29
:1018700020462946BDE87040FCF7C6BA70B505237E
:10188000002408E0E5186D1030F91560B242B8BFC9
:101890002B46A8BF2C461D1B012DF3DC30F914503C
:1018A00051F8244051F82310521B091B4A4330F9C8
:1018B0001300451B92FBF5F0001970BDB0F9003024
:1018C00010B50C684968D21A091B4A43B0F90200E6
:1018D000C31A92FBF3F0001910BD00002DE9F84384
:1018E0008F7930257D43B1F90A90064605F118013C
:1018F0004019144671184A460C30FFF7BFFF804666
:1019000060607019011D4A46FFF7D8FF044BA060C4
:1019100053F8273090FBF8F0E0602360BDE8F883CF
:10192000E0750208F0B5314D87B00446002104305F
:10193000FBF753FB2B68C826B3F8A030B4F90A10A4
:1019400073432B4A0539A1EB132100924FF61E0376
:10195000B4F9040046F20C32FBF773FB296891F8E6
:101960005430E3B101F5587002AA5031FFF7B6FFC9
:101970002F6802A907F55870FEF7ABFB80B246430B
:10198000B4F90A101B4B0539B7F85820B4F9040014
:101990000093A1EB16214FF61E03FBF752FB2968BB
:1019A00091F8403003B301F5F07002AA3C31FFF723
:1019B00095FF0E4B02A91D6805F5F070FEF789FB37
:1019C000C82100B24843B4F90A100539A1EB20211F
:1019D000E82909D8084BB5F84420B4F9040000936D
:1019E0004FF61E03FBF72DFB07B0F0BD28A6002025
:1019F0003F690608D3690608DA6806080868904255
:101A000001DA0A6070479842C8BF0B60704713B58F
:101A10000B780C469B18009301A8FF23694600220F
:101A2000FFF7ECFF009B23701CBD00009D4B2DE9D0
:101A3000F0411B68044693F8AC300D46072B03D0E9
:101A400099487C21FBF7BEFC15F0020F29D0256BCD
:101A50000EF0C8FA0368013B9D4280F2208104F138
:101A60000408231D03CBC4F82600C4F82A104046FE
:101A7000FDF76CF8256BA78C05FB00F6E38C96FB55
:101A8000F7F6023B9E19B6B2E6844046FDF75EF8D3
:101A9000400090FBF7F70437F6190135668525639A
:101AA00024E015F0010F26D0256B002D40F3F780C0
:101AB000013D271D231D03CB2563C4F82600C4F870
:101AC0002A103846FDF742F84543A68CE38C95FB77
