:020000040800F2
:10C000000000012011FB000879F900087BF9000805
:10C010007DF900087FF9000881F9000800000000A0
:10C0200000000000000000000000000085F900088A
:10C0300083F900080000000087F9000889F900086A
:10C040008BF900088DF900088FF9000891F90008B4
:10C0500093F9000895F9000897F9000899F9000884
:10C060009BF900089DF900089FF90008A1F9000854
:10C07000A3F90008A5F90008A7F90008A9F9000824
:10C08000ABF90008ADF90008AFF90008B1F90008F4
:10C09000B5F90008B9F90008BBF90008BDF90008B6
:10C0A000BFF90008C1F90008C3F90008C5F9000884
:10C0B000C7F90008C9F9000895FA000897FA0008BE
:10C0C00099FA00089BFA00089DFA00089FFA0008F8
:10C0D000A1FA0008A3FA0008A5FA0008A7FA0008C8
:10C0E000A9FA0008ABFA0008ADFA0008AFFA000898
:10C0F000B1FA0008B3FA0008B5FA0008B7FA000868
:10C10000B9FA0008BBFA0008BDFA0008BFFA000837
:10C11000C1FA0008C3FA0008C5FA0008C7FA000807
:10C12000C9FA0008CBFA0008CDFA0008CFFA0008D7
:10C1300020B10368197003680133036070472DE96B
:10C14000F041161E04460D4614DD002200E00132C7
:10C15000A95C0029FBD1B24203F00208B4BFC2EBD4
:10C1600006060E46B8F1000F0CBF4FF020084FF046
:10C17000300801E04FF0200813F0010709D105E075
:10C1800020464146FFF7D4FF0137013E002EF7DC81
:10C1900005E0002703E02046FFF7CAFF013715F846
:10C1A000011B0029F7D105E020464146FFF7C0FFFB
:10C1B0000137013E002EF7DC3846BDE8F0812DE95D
:10C1C000FF410A9F05460B9EDDF830C08E4651B9EF
:10C1D00030238DF804308DF805103A4601A9334616
:10C1E000FFF7ADFF3CE03BB10A2A07D1002905DA91
:10C1F000C1F1000E012402E01C4600E0002404A965
:10C20000002301F8013D0EE0BEFBF2F302FB13EE4A
:10C21000BEF1090FC4BFACF13A0086440EF1300EF6
:10C2200001F801ED9E468846BEF1000FECD184B1C5
:10C230004FB116F0020F06D028462D21FFF778FFE8
:10C24000013F012405E02D2301F1FF3801F8013CF5
:10C250000024284641463A463346FFF770FF00194E
:10C2600004B0BDE8F0812DE9F0478AB006460D46DE
:10C2700005920024DBE0252B40F0D38015F8013F28
:10C28000002B00F0D880252B00F0CB802D2B02D185
:10C2900001352C3B03E0002301E043F00203294673
:10C2A00015F8012B302AF8D0002702E00A2202FB01
:10C2B00007070A780D46A2F130005FFA80FC0131D1
:10C2C000BCF1090FF2D9732A09D1059A3046111D24
:10C2D000059111685C4A002908BF11469DE0642A57
:10C2E0000ED1059A01936123111D029300970591C8
:10C2F00030461168603B0A22FFF761FF241895E081
:10C30000662A54D1059B073323F0070303F1080283
:10C31000D3E9000105920AF05BFE002180460BF094
:10C3200053F938B12D238DF8183008F100480DF17C
:10C33000190A01E00DF1180A40460BF06DF90123CE
:10C3400000E013460A225A439042FADA90FBF3F2D5
:10C3500002F1300103FB12000A2293FBF2F30AF808
:10C36000011B002BF2D124328AF80020002F08BFD5
:10C370000327994640460BF04FF90AF033FF014678
:10C3800040460AF079FE31490AF080FF80460BF002
:10C3900043F909F101093030B9450AF8010FE9DB29
:10C3A00000228AF80120304606A9202336E0782AA8
:10C3B0000AD1059A01936123111D009702930591FB
:10C3C00030461168102219E0582A0BD1059A0193C2
:10C3D0004123111D02930097059130461168413B9E
:10C3E000102289E7752A0BD1059A01936123111D4B
:10C3F000009702930591304611680A22613B7BE762
:10C40000632A13D1059A3046111D126805918DF8E3
:10C41000242000228DF8252009A93A46FFF78FFE37
:10C420006CE730462978FFF783FE013401352B781D
:10C43000002B7FF420AF16B1336800221A7020461B
:10C440000AB0BDE8F08700BFA888010800002041BD
:10C45000014B1868704700BF90530020034B1880B1
:10C460001A8892B2002AFBD1704700BF9C5300206B
:10C4700010B5322104460320F7F7E8FE014B1C807B
:10C4800010BD00BF9E53002030B5002308E00A24F1
:10C49000B0FBF4F104FB11003030D054013388B20A
:10C4A000084A0028F3D1D0545910013BD31804E0B6
:10C4B000145C5D7815545C700130013B8842F7DBF9
:10C4C000004830BD14310020024B0E2202FB003028
:10C4D000704700BF987A0108034B18801A8892B2FF
:10C4E000002AFBD1704700BF9C530020044A4FF440
:10C4F000805313604FF0C0421080024A13607047AF
:10C50000141401401014014010B5EF20FFF7EEFFA6
:10C510004FF0C0431A881C8818881A881988C3B23B
:10C52000C9B241EA046141EA0343120643EA1242F6
:10C53000014B9A6010BD00BF14310020054B4FF431
:10C5400080521A604FF0C04318800348026019807F
:10C55000704700BF14140140101401400B4B10B57C
:10C560009A680B4B4FF0C0449A4209D12E20FFF736
:10C57000BDFF238824882C20A4B2FFF7B7FF02E078
:10C5800023882488A4B2204610BD00BF14310020A7
:10C59000279304020EB403B503AA52F8041B0190BA
:10C5A00001A80092FFF75FFEBDE80C4003B07047A2
:10C5B00013B502AC24F8020D00200146F7F726FE61
:10C5C00020464BF68031F7F72FFEF7F729FE20467D
:10C5D0004BF68031F7F728FEF7F722FE1CBDC1F1BC
:10C5E000EF0110B580B289B21446F7F70FFE20466E
:10C5F000BDE81040F7F70CBE38B5151A5C1A6C434D
:10C600004BF67F35AC4280B202F1FF35C3F1F00248
:10C610000FD9C1F1EF0392B2A9B29BB26508F7F747
:10C62000FDFD04A8A9B2F7F7FFFD641BF7F7F8FDBD
:10C6300006E0C1F1EF0392B2A9B29BB2F7F7EEFDAB
:10C6400004A8A1B2F7F7F0FDF7F7EAFD002040F2E9
:10C650008F110246EF23F7F7E1FD38BD37B50D46E0
:10C660004168044600954B1CA2680068FFF7C4FFB0
:10C67000E3682068591EA2680095FFF7BDFF206897
:10C680006168421CE3680095FFF7B6FFA268616825
:10C69000501EE3680095FFF7AFFF3EBD2DE9F14F57
:10C6A0000A9C1E460B9B88461746511E04EB430905
:10C6B000C6F1F002C8F1EF03054689B280B292B22A
:10C6C0009BB2F7F7ABFDA2460CE03AF8020BF7F786
:10C6D0009FFDCA4508BFA2460BF1010BBB45F4DB29
:10C6E00008F10108B04501DAAB46F7E7002040F257
:10C6F0008F110246EF2301B0BDE8F04FF7F78EBD72
:10C70000F8B505460F46046810E0EE6809E0C6F18A
:10C71000EF01A0B289B2F7F779FDFFF71FFF27F805
:10C72000020B6B68013E9E42F1DA0134AB689C4219
:10C73000EBDBF8BD2DE9F041C26843680D46816826
:10C74000C2F1F0020139C3F1EF03044689B2008857
:10C7500092B29BB2F7F762FD66680AE0276804E0D0
:10C7600035F8020BF7F754FD0137A3689F42F7DB5A
:10C770000136E3689E42F1DB002040F28F11024651
:10C78000EF23BDE8F041F7F749BD07B50346009137
:10C7900059689A680068DB68FFF72EFF0EBD70B518
:10C7A000064E044606F10C051C360FC885E80F003E
:10C7B00094E8030086E8030070BD00BF1431002038
:10C7C00010B5094C0246216AE069FFF708FFE369EA
:10C7D000626901339342E36104DBE368E361236A46
:10C7E0000133236210BD00BF1431002070472DE9D2
:10C7F000F74F99460C9B0191924613F801BB0546F1
:10C8000000241DE018F8013BFBB113F0040F4FF6B4
:10C810001E0305D09A450AD028463146524604E008
:10C82000994504D0284631464A46FFF7D8FE0137DD
:10C8300001365F454346E5DB01340135502C03D01A
:10C84000019E98460027F4E708242046BDE8FE8FA5
:10C850002DE9F0411E460F46B6B2C7F1F007144667
:10C860000546F7F7E3FCB91BA8B289B2F7F7CEFC8F
:10C8700020463146F7F7D6FCBDE8F041F7F7D0BCCB
:10C8800030F0030309D131F0030208D140EA8100FE
:10C890000449091891F8000E7047002070471846A7
:10C8A000704700BF987A01082DE9F74F06468A467F
:10C8B00015461C46BDF830B088462DE00AF103034A
:10C8C000984509D1E71E414630462A463B46CDF8F9
:10C8D00000B0FFF791FEB846B146002718E0A81B4C
:10C8E0000138611EC01BC8EB0101CAEB0803B84246
:10C8F000A8BF38469942A8BF1946FFF7C1FF20B923
:10C90000484641465A46FFF76AFE09F101090137D8
:10C91000A945E4DB08F10108A045CFDBBDE8FE8FA7
:10C9200007B50346009159689A680068DB68FFF70D
:10C93000BBFF0EBD2DE9F74F01909DF830001F465B
:10C940000D469246FFF7C0FD4FF61E039F428346F9
:10C950001DD100241BF80480019F6FEA08085FFACC
:10C9600088F8082618F0800F04D03846611952461E
:10C97000FFF735FE013EF6B2013726B14FEA48080F
:10C980005FFA88F8EEE701340E2CE3D145E09A45D2
:10C990001FD100241BF80490DDF804806FEA090918
:10C9A0005FFA89F9082619F0800F04D14046611911
:10C9B0003A46FFF714FE013EF6B208F1010826B12F
:10C9C0004FEA49095FFA89F9EDE701340E2CE1D10C
:10C9D00023E000241BF80490019E6FEA09095FFA26
:10C9E00089F94FF0080819F0800F08F1FF38304638
:10C9F00014BF52463A4629465FFA88F8FFF7EFFD22
:10CA00000136B8F1000F04D04FEA49095FFA89F9FD
:10CA1000E9E7013401350E2CDCD10820BDE8FE8F9A
:10CA20002DE9F7430A9F05460E4691469846AFB159
:10CA3000387818B913E00A2B02D110362C4607E0DB
:10CA40000093204631464A464346FFF773FF2418B9
:10CA500017F8013B002BEED1601B00E03846BDE823
:10CA6000FE83DDE72DE9F043A5B015462CAA0E465E
:10CA700052F8041B07460DF1080823A89946229294
:10CA8000CDF88C80FFF7EFFB314604462A46384646
:10CA90004B46CDF80080FFF7E4FF204625B0BDE807
:10CAA000F08337B5114B05460C46009330211F2308
:10CAB00028204FF6FF72FFF7D4FF20211F234FF6E7
:10CAC000FF7228200095FFF7CCFFA0B2FFF7DCFC37
:10CAD000102100904FF6FF7228201F23FFF7C1FF9F
:10CAE0004FF47A7003B0BDE83040B7E4AF88010876
:10CAF00070B54B4C4FF480534FF400652360012018
:10CB00002560FFF7E9FC474B0A201D60FFF7E4FCB6
:10CB100032202560FFF7E0FCFFF7F6FC424B9A68F5
:10CB2000424B9A4203D042483B21FFF7BAFFE9202B
:10CB30004FF0C044FFF7DAFC202323801120FFF7D9
:10CB4000D5FC6420FFF7C8FCD120FFF7CFFC002301
:10CB500023805E23238017232380D020FFF7C6FC89
:10CB60000723238023800C2323803620FFF7BEFC7D
:10CB7000402323800C20FFF7B9FC552323803A2063
:10CB8000FFF7B4FC55232380C120FFF7AFFC10232F
:10CB90002380238002232380C0202380FFF7A6FC6C
:10CBA0000023238035232380002323802380012337
:10CBB000238002232380C520FFF798FC01232380D4
:10CBC000D220FFF793FC0123238022232380C82057
:10CBD000FFF78CFC012323807323238037232380DA
:10CBE000002323800F232380022323800423238018
:10CBF0004023238067232380002323800223238074
:10CC00000F232380082323808023238000232920CF
:10CC10002380FFF76BFC2C20BDE8704066E400BF6A
:10CC20001014014014140140143100202793040211
:10CC3000C18801085CE708B502480421FFF731FF0D
:10CC4000FEE700BFEE8801080FB430B5A5B028AAF2
:10CC500052F8041B02AC23A823942292FFF703FB93
:10CC600023941EE00A2B134C03D0656AB5F5C47FEC
:10CC700009DBA26A00230E32E02A6362A2620DDDA4
:10CC80000C4A93620AE000932846A16A4FF6FF72AD
:10CC90004FF43043FFF74EFE40196062239B01338F
:10CCA0002393239B1B78002BDCD125B0BDE83040BB
:10CCB00004B07047143100202DE9F74FC0EB020B90
:10CCC0005F1A1FFA8BFBBFB20FFA8BFA0FFA87F8C5
:10CCD0004FEADB3BFF0BBDF83090BAF1000FD4BF39
:10CCE000CBF1000BCBF1010BB8F1000FD4BF7F42A9
:10CCF000C7F10107BAF1000FB8BFCAF1000AB8F1D5
:10CD0000000FB8BFC8F100084FEA4A0A4FEA4808C6
:10CD100000921FFA8AFA1FFA88F84A4601930446DD
:10CD20000D460FFA8AF6FFF75AFC0FFA88F39E4277
:10CD300020DB1FFA88F8A8EB6606B6B216E016F4F8
:10CD4000004F09D11EB94FFA8BF3002B04DD7BB2E3
:10CD5000CAEB0606ED18B6B24FFA8BF3E418464458
:10CD6000204629464A46B6B2FFF739FC009B9C4252
:10CD7000E5D11EE01FFA8AFAAAEB6306B6B215E007
:10CD800016F4004F09D116B97BB2002B05DD4FFA1E
:10CD90008BF3C8EB0606E418B6B27BB2ED18564426
:10CDA000204629464A46B6B2FFF719FC019B9D4230
:10CDB000E6D1BDE8FE8F08B50420F7F74BFAC34370
:10CDC0009BB2C3F3802013F4006F1CBF40F002003D
:10CDD00080B213F0080F18BF40F0040013F4004FA6
:10CDE00018BF40F0080013F4804F18BF40F0100047
:10CDF00013F4005F18BF40F0200008BD07B50B20FA
:10CE0000F7F728FA48B90A4B303000931E211F2249
:10CE10004FF6FF73FFF704FEFEE724200121F7F72A
:10CE200015FA1420002103B05DF804EBF7F70EBAF1
:10CE30001489010810B54FF4FA70FFF70FFBFFF7E4
:10CE4000F9FEBDE81040D9E72DE9F14F0546202055
:10CE50000C46014616469B469DF828A0BDF82C902E
:10CE6000BDF83080BDF83470F7F7F0F924200121C7
:10CE7000F7F7ECF905200021F7F7E8F90920294632
:10CE8000F7F7E4F90A202146F7F7E0F900203146E8
:10CE9000F7F7DCF90B205946F7F7D8F90C20514683
:10CEA000F7F7D4F901204946F7F7D0F907204146B2
:10CEB000F7F7CCF90820394601B0BDE8F04FF7F795
:10CEC000C5B908B50320F7F7C5F9C0B208BDF7F733
:10CED000B1B906200121F7F7B9B92DE9F0410646AD
:10CEE0000C462220314615461F46F7F7AFF92120A0
:10CEF0002146F7F7ABF9202047EAC501BDE8F0412C
:10CF0000F7F7A4B9034670B510200C46194615462C
:10CF1000F7F79CF911202146F7F798F912202946D6
:10CF2000BDE87040F7F792B9094B10B51A68094C83
:10CF300022F001021A60084A146043F2B0521A60EB
:10CF4000064A116090601A6842F001021A6010BD32
:10CF500044040240087400404C040240480402406B
:10CF600001460D20F7F772B90048704740310020A4
:10CF700008B5034602730020012A587305D11A46EA
:10CF800009480833F7F782F906E0022A09D11A4660
:10CF900005480833F7F778F9D0F1010038BF0020D1
:10CFA00008BD012008BD00BF4031002008B5034680
:10CFB00008461946F7F76CF9D0F1010038BF002098
:10CFC00008BD10B5044608462146F7F763F920B9B5
:10CFD000637B01300133637310BD002010BD38B591
:10CFE000037B0446022B15D1427BB1F1FF3F14BFF6
:10CFF0000D46550209482946FFF726FE08482946EE
:10D00000224604F10803F7F747F928B903232373ED
:10D01000013038BD012038BD002038BD2D89010800
:10D0200040310020F0B502EBD27700247F1001EBF5
:10D03000420523460DE0BB42B4BF31F813C035F8BA
:10D0400002CC065F013306FB0CF6360C0653023D9C
:10D0500004349342EFDBF0BD07F0CCBD430810B5BC
:10D06000024614D00021B2FBF3F0C01840081C1A8D
:10D0700001D4012C02E05B421B1A012BCCBF002320
:10D08000012323B9192902D001310346EBE710BD72
:10D09000704700BF7047014B18687047403300204D
:10D0A00013B5FFF788FE02AC24F8020D02F0D4F8A5
:10D0B000214600F5FE5001F0A7FC02F0CDF8214614
:10D0C00000F5FE5001F0A8FCBDF8063033B102F0C7
:10D0D000C3F80221BDF8062003F0E4F9FFF7F1FEE2
:10D0E00048B102F0B9F8002146F267420B4603F05E
:10D0F00091FBFFF7EEFE02F0AFF80321002203F0F0
:10D10000D1F901201CBD0E4B10B518600446FFF785
:10D1100091FE02F0A1F803F0D1FB02F09DF801218D
:10D12000002203F0BFF902F097F805F025FB02F0AA
:10D1300093F805F049FBFFF7CCFE204610BD00BF79
:10D140004033002008B5036849421B6849B298473C
:10D1500008BD0000014B1868704700BF2C9E0108F5
:10D1600083681B78CB1805D4027B9342CCBF002088
:10D17000012070470020704783681A7801321A70C6
:10D18000704783681A78013A1A707047836819707B
:10D1900070478368187870474368B0F908201B8887
:10D1A000CB181BB29A4206DCB0F90A009842B4BF11
:10D1B0000020012070470020704743681A88013220
:10D1C0001A80704743681A88013A1A80704744F6FB
:10D1D00044439A4205D001339A4202D1012380F898
:10D1E000283070477047704730B50285002501220E
:10D1F000C56280F83020BDE8304003F035B800004B
:10D2000070B586B002AC043205460E460FCA84E8FB
:10D210000F00059B28461A1D0B3303920593044902
:10D2200003222346009603F01FF806B070BD00BF2E
:10D230005C9801080285012203F016B813B5034675
:10D240009C685B682478088853F8243000934FF674
:10D25000FF73002A14BF1A46002249684FF61E03C6
:10D26000FFF7DEFB1CBD00000148C321FFF719BC1E
:10D270006898010808B50348C221FFF712FC002096
:10D2800008BD00BF689801080148C121FFF709BC2B
:10D29000689801080148C021FFF703BC689801089D
:10D2A0000148BF21FFF7FDBB6898010808B5034896
:10D2B000BD21FFF7F6FB022008BD00BF68980108FA
:10D2C0002DE9F04186B00C9E88460021C16202859E
:10D2D00080F830300546112730465F4302F07CFF6E
:10D2E000FFB202AC50B1304602F076FF04300FC8F6
:10D2F00084E80F00059B0233039304E0331D0FCB3A
:10D3000084E80F00039BFF1828464146012202AB28
:10D310000597009602F0A8FF06B0BDE8F081000076
:10D320002DE9F041DDF81880044615461F460E46EB
:10D3300021B908484FF4CB71FFF7B3FB20462946CB
:10D340003A4602236663CDF81880BDE8F041FFF746
:10D35000B7BF00BF6898010802F0C2BF02F0C0BFAB
:10D3600011F0010F70B504460D4615D0406B012138
:10D3700003685B68984701280ED1606B0021036841
:10D38000DB689847204602F0ABFF2046616946F60D
:10D390007512002302F0ABFF15F0020F15D0606B81
:10D3A000012103681B68984701280ED1606B00219A
:10D3B00003689B689847204602F092FF2046616907
:10D3C00046F67512002302F092FF20462946BDE87A
:10D3D000704002F0C8BF08B583681A78436853F8F4
:10D3E00022000AF0D1FAC3004FF6F87003EA0000F9
:10D3F00008BD08B54368B3F9000002F06DFE0AF0FD
:10D40000C3FAC3004FF6F87003EA000008BD00003D
:10D41000436873B54FF6FF7605460C46002A08BFF1
:10D4200000261BB912485D21FFF73BFB6A68B5F97E
:10D430000830B2F90000834203DCB5F90A308342B8
:10D4400009DA0C4B32460093206861684FF61E03E0
:10D45000FFF7E6FA0BE02568646802F03DFE21461E
:10D460000090324628464FF61E03FFF7FAFA7CBDBD
:10D47000829801089D98010813B5044602F0A7FEA2
:10D48000844207D1084B28200093014600224FF622
:10D49000FF7306E0054B2820009301464FF6FF720C
:10D4A0000023FFF7BDFA1CBD9F980108C098010832
:10D4B00044F644418A4201D103F080B844F6454124
:10D4C0008A4202D1012280F82820704744F6444362
:10D4D0009A420AD001339A4201D108F011BD46F2B6
:10D4E00067439A4201D108F0CFBC704770B504463B
:10D4F0000D4608F013FD18B92046294602F033FF07
:10D5000015F0100F08D0204608F008FD20B920467D
:10D51000BDE8704008F008BD204608F0FFFC20B1CF
:10D520002046BDE8704008F0F3BC70BD102970B50E
:10D5300005460C4605D102F048FE036821465B68AB
:10D54000984728462146BDE8704002F00CBF10B550
:10D55000044603F033F82046BDE8104003F00AB853
:10D5600010B5044603F02AF82046BDE8104003F049
:10D5700001B801604260704710B58360029B016092
:10D580004260C36010BD000070B5DE2386B0054662
:10D590000E46144600930C2116225A3302A8FFF7B8
:10D5A000EBFF28460349224602AB009602F05CFEE0
:10D5B00006B070BDE198010870B5F02386B004464E
:10D5C0000E46154600931422A03302A84FF49E7114
:10D5D000FFF7D2FF20462A4602AB2249009602F00E
:10D5E00043FE04F1280001231F4948F21042009431
:10D5F000FFF766FE04F15C0001231C4948F210426B
:10D600000094FFF75DFE04F190000123184948F2F1
:10D6100010420094FFF754FE04F1C40001231549A1
:10D6200048F210420094FFF74BFE04F59670022377
:10D6300011494FF6FF720094FFF742FE04F5B070F7
:10D6400002230E494FF6FF720094FFF739FE04F1F2
:10D65000F8000B4948F2104201230094FFF730FE16
:10D6600006B070BDEB980108FA980108FD98010812
:10D670000099010803990108069901080999010810
:10D680000C99010870B5F02386B004460E46154685
:10D6900000931422A03302A84FF49E71FFF76CFF91
:10D6A00020462A4602AB1E49009602F0DDFD04F139
:10D6B000280002231B4940F2FF720094FFF700FE8E
:10D6C00004F15C000223184940F2FF720094FFF756
:10D6D000F7FD04F190000223144940F2FF72009418
:10D6E000FFF7EEFD04F1C400022311494FF6E0728A
:10D6F0000094FFF7E5FD04F1F80002230D494FF611
:10D70000E0720094FFF7DCFD04F596700A494FF4CF
:10D71000FC6202230094FFF7D3FD06B070BD00BF8A
:10D720001899010825990108319901083E990108C5
:10D730004A990108559901086199010870B5F023CB
:10D7400086B004460E46154600931422A03302A864
:10D750004FF49E71FFF710FF20462A4602AB1E4988
:10D76000009602F081FD04F1280001231B494FF6C9
:10D77000FF720094FFF7A4FD04F15C000123184937
:10D7800048F210420094FFF79BFD04F19000012342
:10D79000144948F210420094FFF792FD04F1C400CE
:10D7A0000223114948F210420094FFF789FD04F169
:10D7B000F80002230D4948F210420094FFF780FD63
:10D7C00004F596700A4948F2104201230094FFF7CD
:10D7D00077FD06B070BD00BF6D9901087E99010804
:10D7E000839901088A99010891990108A299010871
:10D7F000B199010870B5F02386B004460E4615466F
:10D8000000931422A03302A84FF49E71FFF7B4FED8
:10D8100020462A4602AB1549009602F025FD04F188
:10D8200028000223124948F210420094FFF748FDF5
:10D8300004F15C0002230F4948F210420094FFF704
:10D840003FFD04F1900002230B4948F2104200947E
:10D85000FFF736FD04F1C400084948F210420223E4
:10D860000094FFF72DFD06B070BD00BFB799010809
:10D87000C7990108D0990108DF990108EB990108BF
:10D8800070B5F02386B004460E4615460093142268
:10D89000A03302A84FF49E71FFF76EFE20462A4681
:10D8A00002AB1549009602F0DFFC04F128000223C8
:10D8B00012494FF478420094FFF702FD04F15C0036
:10D8C00003230F4940F2FF720094FFF7F9FC04F1C3
:10D8D000900003230B4948F210420094FFF7F0FC3C
:10D8E00004F1C400084948F2104202230094FFF7F3
:10D8F000E7FC06B070BD00BFF7990108F399010875
:10D90000049A0108199A01082F9A010870B5F023AA
:10D9100086B004460E46154600931422A03302A892
:10D920004FF49E71FFF728FE20462A4602AB1049AD
:10D93000009602F099FC04F1280001230D4948F2F9
:10D9400010420094FFF7BCFC04F15C0001230A497B
:10D9500048F210420094FFF7B3FC04F1900007492D
:10D9600048F2104201230094FFF7AAFC06B070BDF4
:10D97000419A01084F9A0108579A01085C9A0108D8
:10D9800070B5DE2386B005460E461446009300218E
:10D990001622D33B02A8FFF7EFFD2846044944F0C6
:10D9A000020202AB009602F05FFC06B070BD00BF41
:10D9B000619A010870B5152386B005460E461446D7
:10D9C00000930C21102202A84FF49C73FFF7D4FDA2
:10D9D0002846044944F0020202AB009602F044FCDF
:10D9E00006B070BD759A010870B5F02386B0054683
:10D9F0000E461446009300211022A03302A8FFF720
:10DA0000BBFD2846044944F0020202AB009602F036
:10DA10002BFC06B070BD00BF889A010870B5F023DA
:10DA200086B005460E461446009300211022A0330E
:10DA300002A8FFF7A1FD28460349224602AB009643
:10DA400002F012FC06B070BD989A010870B5F02380
:10DA500086B005460E461446009300211022A033DE
:10DA600002A8FFF789FD28460349224602AB00962B
:10DA700002F0FAFB06B070BDA29A010870B5F0235F
:10DA800086B005460E461446009300211022A033AE
:10DA900002A8FFF771FD28460349224602AB009613
:10DAA00002F0E2FB06B070BDAC9A01088268036820
:10DAB000D0184010704738B58A680B68CD68D31805
:10DAC0004A680446AA1859105210FFF752FD204622
:10DAD00038BD10B504686118016041688A18426059
:10DAE0008268D31A8360C268029BD31AC36010BDD8
:10DAF00010B50468611A016041688A1A4260826840
:10DB0000D3188360C268029BD318C36010BD0000A5
:10DB100030B58BB003AD031D04460FCB85E80F0075
:10DB200001210B4628460A460091FFF7E1FF2846EF
:10DB30004BF29651FEF792FD48F21043ADF81C30BF
:10DB40000023ADF81E30ADF82030ADF82230ADF82E
:10DB500024301E25606807AB281800930523019325
:10DB6000421CA16823691E35FEF798FDB5F5967F26
:10DB7000F0D11925A16807AB69180093052301931B
:10DB800060684B1CE2681935FEF788FDC82DF1D19D
:10DB90006068A1680B4B04310093043044F2082202
:10DBA0004FF61E03FEF73CFF60682169064B043008
:10DBB000009310394FF6FF724FF61E03FEF730FF49
:10DBC0000BB030BDBC9A0108C59A01088268036891
:10DBD000D01A7047F0B58BB006AC061D002507467D
:10DBE00096E80F0084E80F0001212A460B462046E4
:10DBF0000095FFF77DFF204648F21041FEF72EFD0D
:10DC000001210A460B4620460091FFF762FF20469D
:10DC1000294602ADFEF7B9FD94E80F0085E80F0034
:10DC20000C4B30461B68B3F84240FFF7CFFF04FBB4
:10DC300000F204F5967460437B6840F2162103EB12
:10DC4000223203EB2033284602920493FEF79DFD17
:10DC50000BB0F0BDB057002073B5051D0021044680
:10DC60002846FEF792FD0D4B1B68B3F94A60B3F9E5
:10DC70004230F61AB61010D42846FFF7A7FF8642A6
:10DC80000BDA6068064B043800938019A16846F2ED
:10DC90000C324FF61E03FEF7AAFD7CBDB0570020E4
:10DCA000808D0108C2684368D01A70472DE9F34798
:10DCB000041D054600212046FEF767FD2846FFF7B4
:10DCC00027FFAB6A002B38D02046FFF77FFF0746BF
:10DCD0002046FFF7E7FF2B690024A0F13209A3F1EA
:10DCE0001908A24627E0AA8DAB6A624392FBF7F2BD
:10DCF00033F81260B6F5805F03D31148FE21FEF7BA
:10DD0000D0FE4B465E4344BF06F57E661F366A680A
:10DD10003613B6B2002C08BFB246A2184FF6FF73F6
:10DD20000093CAEB0801501EC6EB0803FEF7C4FFC0
:10DD30000134A4B2B246BC42D5DBBDE8FC8700BFCB
:10DD4000E39A0108826803689A42D4BF0020012048
:10DD5000704713B504460068E368009100F10C02B7
:10DD60006168FEF7A1FD20684BF2965300930830DE
:10DD70006168A268E368FEF73FFC1CBD13B504466A
:10DD80000068009102386168A268E368FEF78CFDC4
:10DD900020686168A268E36806304FF6FF740131BD
:10DDA000013A013B0094FEF77FFD1CBDC36A73B5C9
:10DDB00004460BB11B880385251D00212846FEF76C
:10DDC000E4FC636820460433636002F079FA218D35
:10DDD000064648B12846FFF7D1FF6068636A0C30F9
:10DDE0000093A168002208E02846FFF7B2FF6068B0
:10DDF000636AA16800930C3032464FF61E03FEF7AB
:10DE00000FFE6368043B63607CBD00002DE9F041B8
:10DE1000466A002586B004464562FFF7C7FF666282
:10DE2000231D02AE0FCB86E80F00304610212A4694
:10DE30002B460095FFF74DFE636A2A46009303992F
:10DE40004FF61E030298FEF7EBFD039B20461033AE
:10DE5000039302F035FA024600282FD0029FDFF824
:10DE60006C80083F03992A4638464FF61E030297F6
:10DE7000CDF80080FEF7BBFCC0190290606B036810
:10DE80005B69984703990746029801F10E033A1817
:10DE90000095FEF7B1FB606B3146036801221B69F8
:10DEA0009847029808F172033818009303992A469C
:10DEB0004FF61E030290FEF79AFC04E0606B3146B9
:10DEC00003681B69984706B0BDE8F081AF8D010873
:10DED00073B58268C3680E46416804464FF4E04556
:10DEE000101F0431043204330095FEF7DDFCE368B3
:10DEF0002068A268191F0430043204330095FEF72D
:10DF0000D3FC2068616800F10C02E3680096FEF71C
:10DF1000CBFC2068A2684BF2965508306168043A41
:10DF2000E3680095FEF768FBA2686168A2F108004B
:10DF3000E3680095FEF7B8FC7CBD73B58268C368E2
:10DF40000E46416804464FF4E045101F0431043288
:10DF500004330095FEF7A8FCE3682068A268191F47
:10DF60000430043204330095FEF79EFC206861689B
:10DF7000A268E3680096FEF797FC7CBD37B50446BF
:10DF800002F09EF90546218D201D45B1FFF7D5FF12
:10DF90006068636A0C300093A168002207E0FFF715
:10DFA00097FF6068636AA16800930C302A464FF6B9
:10DFB0001E03FEF735FD3EBD70B586B002AC0225EE
:10DFC0000E460FC884E80F0020460021FEF7A8FC8B
:10DFD0002A462B46204629460095FFF77AFD204623
:10DFE0003146FEF79DFC204629460E222B46009521
:10DFF000FFF76FFD20464BF29651FEF791FC06B0FD
:10E0000070BDF0B58BB0054602AC061D96E80F005A
:10E0100084E80F00298D3046FFF7CEFF2046FFF73A
:10E0200045FD6E6A0746304609F0AEFC0399C0B262
:10E03000800002310022381A4FF61E030096FEF7C8
:10E04000EFFC122104230A46009320460B46FFF7FB
:10E0500040FDE86A09F098FC2146064608A8FFF74B
:10E060002AFD089B06A82146F600A3EB6606FFF7EB
:10E0700022FDEB6A079900933046073900224FF6DC
:10E080001E03FEF7CDFC0BB0F0BD38B508461446B4
:10E090000D464FF4C872194609F0BEFBF4B11E23B9
:10E0A000B4FBF3F203FB12439BB243B905F5C37310
:10E0B00048F2104225F80A2F9D42F9D138BD0623B7
:10E0C000B4FBF3F203FB12439BB23BB905F5AF730C
:10E0D00048F2104225F8322F9D42F9D138BD000098
:10E0E00010B5044602F089F9014B2046236010BDAB
:10E0F000B089010810B500210446282209F08CFBE4
:10E100002046FFF7EDFF034B204623600023A36268
:10E1100010BD00BFD889010810B5044602F06DF9A2
:10E12000034B20462360002384F8283010BD00BF35
:10E13000988C0108074A08481168084B30B50468F4
:10E14000074DCB1805FB04330131036058041160FF
:10E15000400C30BD8453002000300020F390240098
:10E1600021F17D0030B5254B89B0044605AD93E81B
:10E1700007000C3385E8070093E8070094F828307F
:10E1800002AD85E80700B3B1201D4FF6FF71FEF721
:10E19000FCFA606821691A4B0830009314394FF675
:10E1A0001E030022FEF73CFC002384F82830059B68
:10E1B000E362029B23632046FFF7BCFF032290FB30
:10E1C000F2F202EB420208A9821A01EB8202034634
:10E1D000E16A52F80C0C9B0040184010E06252F8C3
:10E1E000181C226B89184FF6FC72491003EA0202D0
:10E1F000216309B0BDE83040FEF7F1B9948E010803
:10E20000069B010810B501704270837010BD0000BC
:10E21000F8B5114B4FF4AF7707FB013700F1440419
:10E220000E2615E07B5D202B02D0232B06D101E0CA
:10E23000012300E0002304F8013B03E00748F52137
:10E24000FEF72FFC0135192DECD11937013E01D015
:10E250000025E7E7F8BD00BFAC8E0108139B01085D
:10E26000192303FB0213C018443070472DE9F0470F
:10E270004FEA41180F242FE0032B03D8DFE803F007
:10E2800005090C0F00252E460BE0C0F10F063D4698
:10E2900007E02646054604E02546064601E0054619
:10E2A0003E46134946EA05154AEA400601EB860652
:10E2B000D6F88C6246FA09FC1CF00F0C08BF4FF030
:10E2C000020C01EB4C01B1F88C150130102822F83A
:10E2D0001510D1D1013C09D3C4F10F0704F007098F
:10E2E00048EAE70A4FEA89090020C5E7BDE8F08758
:10E2F000808D010870B5ADF5027D0C4606461546C9
:10E30000FFF7AEFF0178052903D1304602AA736BEF
:10E3100006E0042908BFB36B304602AA18BF0023E9
:10E32000FFF7A4FF02A8691C621CAB1C00904FF40D
:10E33000807001900901200112011B01FEF7AEF966
:10E340000DF5027D70BD11F0020F034606D0426B41
:10E350000132032A42630EDD002206E011F0010FB4
:10E3600007D0426B002A02DD013A5A6303E0032220
:10E37000FBE701F0F8BFD96A1A6B1846FFF7BABF7E
:10E3800070B5064600240AE029463046224601358B
:10E39000FFF7B0FF192DF7D101340E2C01D0002565
:10E3A000F2E770BD10B5044602F008F9236C6FF077
:10E3B0000401594301F5FA7120466429B8BF64216C
:10E3C000BDE8104002F03EB8074A08481168084B03
:10E3D00030B50468074DCB1805FB043301310360E9
:10E3E00058041160400C30BD885300200C300020D0
:10E3F000F390240021F17D0073B504462046FFF719
:10E40000E3FF1923B0FBF3F606FB13062046FFF7E4
:10E41000DBFF0E23B0FBF3F505FB13053146204669
:10E420002A46FFF71DFF0378012BE7D10133037064
:10E43000EAB2023B01A8F1B2FFF7E4FE019B002023
:10E440001A0CDBB263F307009DF8053063F30F206D
:10E45000D3B263F317407CBD002310B50446436379
:10E460002046FFF7B1FF1923B0FBF3F202FB1303C1
:10E470002046E362FFF7A8FF0E23B0FBF3F202FB96
:10E480001302E16A22632046FFF7EAFE0378012BBC
:10E49000E6D10433037010BD30B5CC012412846082
:10E4A000C46099244C4324120461B32404FB02F594
:10E4B0004C4324128461CD24426062431212C26133
:10E4C0003C224A43D211026246224A43D21142629E
:10E4D0003222016051432D12C9114561816230BD64
:10E4E000FF29A8BFFF2121EAE1707047C9431E231D
:10E4F00000204000420001329A40521801D50130FC
:10E500001146023B13F1020FF3D170472DE9F04F92
:10E51000436885B00446154602930026BDE0E268D4
:10E52000A168B21A5243791A01FB0121236A090436
:10E5300091FBF3F1204691FBF3F1FFF7D7FFFF28A2
:10E5400009DCC0F1FF0808EB8808B8F1FF0FA8BF8D
:10E550004FF0FF0801E04FF0000862692169B21A2C
:10E560005243791A01FB0121636A090491FBF3F11B
:10E5700091FBF3F12046FFF7B9FF4043E26948BF42
:10E58000FF30B21A5243A169A36A791A01FB012133
:10E59000090491FBF3F191FBF3F14FEA202A2046A5
:10E5A000FFF7A4FFB5F90230BAF1FF0FA8BF4FF093
:10E5B000FF0AB5F90410FF28D8BFC0F1FF0003FB24
:10E5C0000AF3C8BF00204143B5F90020B5F90AB0ED
:10E5D00002EB232303EB2121B5F908300BFB00FBF1
:10E5E00003FB0AF3B5F9062002EB232303EB2B2BE5
:10E5F000B5F90E3003FB0AFAB5F90C3003EB2A2A01
:10E60000B5F910305843B5F914300AEB202AFF2B26
:10E6100005D0B5F9123003FB08F84FEA2828204648
:10E62000FFF75EFF594684462046CDF804C0FFF749
:10E6300057FF514683462046FFF752FFB9F80020A6
:10E64000DDF804C0D300D108D20A01F0FC0103F0C8
:10E65000FF03D200C3EB0C0A801AC1EB0B0C08FBC2
:10E660000AFA08FB0CFC08FB00F802EB282801EB77
:10E670002C2C4FEAE8014FEAAC0CC90241EA4C11DC
:10E6800003EB2A2341EAE30329F8023B0137039B0A
:10E6900049469F42FFF643AF0136029B9E4204DA91
:10E6A0002368894603930027F1E705B0BDE8F08FA2
:10E6B0002DE9F04186B006460D461446002114228D
:10E6C00001A898460C9F09F0A7F84FF6C473ADF85F
:10E6D0000830ADF80E30ADF81430BDF83430ADF878
:10E6E0000440ADF80A80C4F1F004C8F1F008ADF8B8
:10E6F00010703046C7F1F007294601AAADF8064070
:10E70000ADF80C80ADF81270ADF81630FFF7FEFED4
:10E7100006B0BDE8F08113B5140C130A04F0FF0431
:10E720000094D2B2E624DBB20194FFF7C1FF1CBD16
:10E7300010B5044601F061FE044B2046202140F84C
:10E74000283B0A46FFF7A8FE204610BDE88C0108CA
:10E75000074A08481168084B30B50468074DCB18C4
:10E7600005FB04330131036058041160400C30BDD7
:10E770008C53002010300020F390240021F17D0004
:10E78000F0B587B00446FFF7E3FF261D0546304687
:10E79000FFF71CFAA76AC71BB5FBF7F307FB135774
:10E7A00063682046FF18FFF7D3FF05463046FFF7A2
:10E7B00079FAE66A861BB5FBF6F306FB1356A368E7
:10E7C0002046F618FFF7C4FFE26AA36AB2180546AE
:10E7D000FB1800923946324602A804F15406FEF7AF
:10E7E000CBFE02A83146FDF78BFF2A115523A91055
:10E7F00002F003025A4301F00301594305F00305F7
:10E800005D43120442EA012204F1280031462A4302
:10E81000FFF781FF02A83146FDF78CFF07B0F0BD7E
:10E8200010B5044601F0E9FD014B2046236010BD00
:10E83000108D010838B5084614460D464FF4C872CD
:10E84000194608F0E9FFF4B11E23B4FBF3F203FB11
:10E8500012439BB243B905F5C37348F2104225F841
:10E860000A2F9D42F9D138BD0623B4FBF3F203FB16
:10E8700012439BB23BB905F5AF7348F2104225F83D
:10E88000322F9D42F9D138BDF0B5ADF50A5D054690
:10E8900097B05548FFF756FA90B90DF50A54483429
:10E8A0002B1D0FCB84E80F00012120460A460B46A2
:10E8B0000091FFF71DF920464BF29651FDF7CEFE71
:10E8C000FEF7FFFA002800F08980484B0DF506504E
:10E8D0001B684FF496721C789E88A4F101035C4279
:10E8E00044EB03041C300021002C08BF002608F074
:10E8F00093FF0CB900244DE00024FEF7E8FAA3B220
:10E90000B3F5806F0BD20DF5805362000C3300021B
:10E9100023F81200002142F0010223F81210013402
:10E92000B4F5805FE9D10DF580500C3030494FF4DB
:10E930008062FEF777FB0DF5805103A80C314FF490
:10E940008062FEF789FB0DF506501C3000214FF464
:10E95000967208F061FF0DF10E07002437F9023CB2
:10E9600037F9040B5B4300FB0030FEF777FB0DF536
:10E970000652A3121C328008D15CC728A8BFC7204A
:10E9800004F516748842B8BF0846B4F5962FD054E3
:10E99000E4D1AFE70DF500510C31A2B200232846B7
:10E9A000FFF748FF0DF506531C33195D0DF50053B5
:10E9B0000C339A1E002302E022F8026F01338B42CF
:10E9C000FADB68680DF5005220180C32C823A968DC
:10E9D0000134FDF73DFFB4F5967FDBD10DF5377DB2
:10E9E0000DF5005DF0BD00BFC0570020B0570020FE
:10E9F0002C93010810B50446FDF72AFD40F22D13B3
:10EA000060602381204610BD038813B940F22D13A6
:10EA1000038109880180704738B504460D46FDF72B
:10EA200017FD62682389821A9A4215D923889BB1FF
:10EA30002B80238940F22D129342606002D14FF463
:10EA4000967307E0B3F5967F01D1642302E00A2BA9
:10EA500004D90A3B238138BD00232B8038BD000038
:10EA600010B5044601F0C9FC014B2046236010BDDF
:10EA7000D0B2010810B50446FFF732FB014B204627
:10EA8000236010BD5889010810B50446FFF728FB24
:10EA9000014B2046236010BD008A010810B50446D2
:10EAA00001F0ABFC014B2046236010BD508A0108E9
:10EAB00010B5044601F0A1FC0F4B204640F8283B5E
:10EAC000FFF7ECFF04F15C00FFF7E8FF04F19000B2
:10EAD000FFF7E4FF04F1C400FFF7E0FF04F1F800E2
:10EAE000FFF7DCFF04F59670FFF7D8FF04F5B07070
:10EAF000FFF7D4FF204610BD288A010810B5044650
:10EB000001F07BFC0D4B204640F8283BFFF7C6FF89
:10EB100004F15C00FFF7C2FF04F19000FFF7BEFFB5
:10EB200004F1C400FFF7BAFF04F1F800FFF7B6FFE5
:10EB300004F59670FFF7B2FF204610BD808A0108E9
:10EB400010B5044601F059FC0D4B204640F8283B17
:10EB5000FFF7A4FF04F15C00FFF7A0FF04F19000B1
:10EB6000FFF79CFF04F1C400FFF798FF04F1F800E1
:10EB7000FFF794FF04F59670FFF790FF204610BD55
:10EB8000A88A010810B5044601F037FC0D4B204659
:10EB900040F8283BFFF782FF04F15C00FFF77EFF9F
:10EBA00004F19000FFF77AFF04F1C400FFF776FF4D
:10EBB00004F1F800FFF772FF04F59670FFF76EFF9F
:10EBC000204610BDD08A010810B50446FFF766FF45
:10EBD000014B2046236010BDF88A0108014B0360F9
:10EBE000704700BF508B010810B50446FFF7F6FFD1
:10EBF000014B2046236010BD288B010810B5044648
:10EC0000FFF7ECFF014B2046236010BD788B010815
:10EC100010B5044601F0F1FB154B204640F8283BA7
:10EC2000FFF7D2FF04F16000FFF7CEFF04F1980078
:10EC3000FFF7CAFF04F1D000FFF7C6FF04F58470A8
:10EC4000FFF7C2FF04F5A070FFF7CEFF04F5A87030
:10EC5000FFF7D4FF04F5AE70FFF7D0FF04F5B470F2
:10EC6000FFF7CCFF04F5BA70FFF7C8FF204610BDD0
:10EC7000B89B010810B5044601F0BFFB094B2046C4
:10EC800040F8283BFFF70AFF04F15C00FFF706FF9E
:10EC900004F19000FFF702FF04F1C400FFF7FEFE4D
:10ECA000204610BDA08B010810B5044601F0A5FB5D
:10ECB000074B204640F8283BFFF7F0FE04F15C00CC
:10ECC000FFF7ECFE04F19000FFF7E8FE204610BDD0
:10ECD000C88B010810B5044601F08FFB014B20469C
:10ECE000236010BDF08B010810B5044601F085FBD0
:10ECF000014B2046236010BD188C010810B5044656
:10ED000001F07BFB014B2046236010BD708C010895
:10ED100010B5044601F071FB014B2046236010BD85
:10ED2000388D010810B5044601F067FB114B2046F1
:10ED300040F8283BFFF7ECFF04F15400FFF7E8FF31
:10ED400004F18000FFF7E4FF04F1AC00FFF7E0FFFF
:10ED500004F1D800FFF7DCFF04F58270FFF7D8FF5D
:10ED600004F59870FFF7D4FF04F5AE70FFF7D0FFFD
:10ED7000204610BD68B3010810B5044601F03DFB04
:10ED8000014B2046236010BD608D010810B50C8832
:10ED9000048014684988446052684180826010BDD4
:10EDA00030B500230446CD5AC55252F8045B0233F5
:10EDB000E56004340C2BF6D130BD30B505230022BC
:10EDC00008E0D418641030F91450A942B8BF2346A3
:10EDD000A8BF22469C1A012CF3DC30F9124000EB4C
:10EDE000830500EB8202D268ED68091BAD1A694306
:10EDF00030F91300041B91FBF4F0801830BDB0F91A
:10EE00000030426810B58468C91AA41A6143B0F989
:10EE10000200C31A91FBF3F0801810BD70B5164DB7
:10EE200004462B680E4613F0010F06D1134814490F
:10EE3000144AFFF7ABFF01232B60134D2B6813F02F
:10EE4000010F06D111481249124AFFF7A9FF012309
:10EE50002B6021460D48FFF7B0FF214605460748C5
:10EE6000FFF7CDFF06FB050690FBF5F506EB8606E2
:10EE7000C5EBE62070BD00BF1453002040530020B6
:10EE8000A48901089C890108185300201C53002004
:10EE900090890108788901082DE9F04F0546EFB007
:10EEA0005B48FEF74FFF80B96AAC2B1D0FCB84E89F
:10EEB0000F00012120460A460B460091FEF718FE7E
:10EEC00020464BF29651FDF7C9FBFDF7FAFF0028EB
:10EED00000F09B804F4E4E48336899889A8A039180
:10EEE00019780492059193F810A0FEF72BFF28B132
:10EEF000474B1A686B68C3EB020803E0281DFEF756
:10EF000065FE8046FDF7A4FA336841F28732DF6C74
:10EF1000B3F84A90C71B97428CBF00270127B3F86C
:10EF2000423027B1C3EB09091FFA89F901E04FF616
:10EF3000FF79002403E0FDF7CAFF0134A4B233686F
:10EF4000B3F942309C42F6DB00245CE0B9EB0403E9
:10EF500018BF0123284606A92246FFF796F8FDF7B9
:10EF6000B6FFBAF1010F834618D13368010AC9B25E
:10EF7000B3F90600FFF752FF80B203B2002B03DBA8
:10EF8000FF2BC8BFFF2000E00020C82300B2584379
:10EF9000049A001280B206AB23F81020059B012BC7
:10EFA00018D133685FFA8BF1B3F90600FFF736FF2B
:10EFB00080B203B2002B03DBFF2BC8BFFF2000E0B1
:10EFC0000020C82300B258430399001280B206AB58
:10EFD00023F8101077B114F0010F0BD03368C8225A
:10EFE000B3F9483044F208215A43121292B206ABE8
:10EFF00023F812106868A968201806AAC823FDF72C
:10F0000027FC0134A4B24445A0DB6FB0BDE8F08F0B
:10F01000C0570020B057002038B5134D04462B6868
:10F0200013F0010F06D111481149124AFFF7AEFE45
:10F0300001232B60104D2B6813F0010F06D10F48F0
:10F040000F49104AFFF7ACFE01232B6021460B4805
:10F05000FFF7B3FE214605460448FFF7D0FE90FBBC
:10F06000F5F0404238BD00BF4C53002078530020DB
:10F07000648C01085C8C010850530020545300201C
:10F08000508C0108388C0108F7B5234D0446002147
:10F090000430FDF77AFB2B68C827B3F848302169A4
:10F0A0007B4305391D4EA1EB132146F20C324FF67E
:10F0B0001E0360680096FDF79AFB2B681A7C8AB1E4
:10F0C000D88AFFF7A9FF80B2474321692B68053929
:10F0D0009A8A65366068A1EB17214FF61E030096E9
:10F0E000FDF785FB2B681A78A2B1B3F90600FFF78C
:10F0F00093FFC82300B24343074A216912680848B6
:10F1000005399288A1EB232100904FF61E03606819
:10F11000FDF76DFBFEBD00BFB05700202C97010826
:10F12000F6970108002301608380C28070470000C9
:10F1300010B5044601F061F9064B04F5F070236048
:10F14000002384F8283004F5D1711422FFF7EAFF78
:10F15000204610BDC08C010838B5044601F04DF9B9
:10F16000344B204640F8283BFFF77AFC04F154006A
:10F17000FFF780FC04F17C00FEF7BCFF04F1AC005B
:10F18000FFF782FC04F1D40003F036FB04F50060C5
:10F190001830FFF78DFC04F51A600C30FFF7AEFC59
:10F1A00004F530600C30FFF7CBFC04F546600C3002
:10F1B000FFF7E8FC04F55C600C30FFF729FD04F56F
:10F1C0007560FFF757FD04F5825004F58855083047
:10F1D000FFF76AFD05F10C00FFF77CFD05F1340037
:10F1E000FFF782FD04F58A5004F58C551C30FFF7BB
:10F1F00085FD281DFEF790FF05F13800FFF798FF09
:10F2000004F59D50FFF794FA04F5DE503430FFF713
:10F2100007FB04F5E15006F021FE04F5E6502C3022
:10F22000FFF780FD04F5F2503430FFF7A5FD2046CE
:10F2300038BD00BF98A1010810B50446FFF78CFF48
:10F2400004F5F450243000F04FFE04F5FE50FFF7B3
:10F25000D1FB204610BD000010B5064C236813F00A
:10F26000010F04D10448FFF7E7FF012323600248A0
:10F2700010BD00BF443300204833002000238380AA
:10F28000704730B590F8283085B00446002B38D050
:10F290000021FEF7BDFF2046FFF7DEF82046FFF70E
:10F2A000ABF88DF80000C0F30723C0F307408DF8DA
:10F2B00002008DF80130009B2046ADF80C301B0C8D
:10F2C0008DF80E30FFF798F88DF80000C0F3072393
:10F2D000C0F307408DF802008DF80130009B002537
:10F2E000ADF808301B0C8DF80A300323E36304F5F6
:10F2F000F0702564FFF7C2FF2046FFF753F884F84B
:10F300002850204605B0BDE83040FFF739B8808866
:10F310007047000073B501918288C38804469A4201
:10F3200003D309488321FDF7BCFB02AAA38832F866
:10F33000046D206803EB430192784518013346526F
:10F34000AA70A3807CBD00BF2E9B010838B50C1E9F
:10F35000054602DA8388E41804D42846FFF7D7FF6D
:10F36000844203DB0448A821FDF79BFB286804EBDB
:10F370004404001938BD00BF2E9B01088388C28851
:10F38000CB189BB29A42838003D202489721FDF7A3
:10F3900088BB70472E9B010870B50C460546FFF7E9
:10F3A000B6FF844203DB0F48AE21FDF77AFB04EB86
:10F3B000440608E02B6801349B191A8823F8032CB3
:10F3C0009A7803F8012C2846FFF7A1FF013803368D
:10F3D0008442EFDB28464FF0FF31BDE87040FFF775
:10F3E000CDBF00BF2E9B01082DE9F04387B0044636
:10F3F00000F0EDFE844240F0B780E16A226BFEF738
:10F400002FFF03230370E16A2046226B04F5F07599
:10F41000FEF770FF2846FFF77AFF60B994F82C10CA
:10F4200005A894F8302094F83430FEF7EBFE284617
:10F430000599FFF76FFF676B4D4B204613F9079057
:10F44000E36A99444B4BC4F82C9013F90780236B63
:10F45000494698444246C4F83080FEF701FFFBB2AB
:10F4600006465FFA89F15FFA88F204A8FEF7CAFE41
:10F4700028460499FFF74EFF3378022B24D1E36B23
:10F48000122B01DC0133E3632046FEF7B5FF8DF854
:10F490000000C0F30723C0F307408DF801308DF85A
:10F4A0000200009920468AB20B0CADF80C10120A2B
:10F4B000C9B28DF80E30FEF71DFF0520FCF7D8FF0E
:10F4C0002046FEF76FFF0BE0012B09D0C820FCF7A8
:10F4D000CFFF204601F072F8012384F8283043E082
:10F4E000E16A226B2046FEF7BBFE05230370E16A4A
:10F4F0002046226BFEF7FEFE2846FFF708FFE36B6F
:10F50000984214DD00212846FFF720FF0646317897
:10F5100072782046FEF7A4FE01230370317820465E
:10F520007278FEF7E7FE28460021FFF735FF2846F0
:10F53000FFF7EDFEE36B834216DC00212846FFF760
:10F5400005FF012106462846FFF700FF8378204685
:10F55000A36331787278FEF783FE04230370317859
:10F5600020467278FEF7C6FE07B0BDE8F08300BF04
:10F57000083000200430002013B54FF00060094926
:10F5800000F0F4F8F4F772FE01A8FDF7BCFD01A845
:10F59000FDF786FD04460028F9D101A8FDF77AFDA4
:10F5A00020461CBD00C000080B4B4FF0FF316FF030
:10F5B0007042C3F88010C3F88420C3F88011C3F8E8
:10F5C0008421002303F1C001034A013300200F2BE3
:10F5D00042F82100F6D1704700E100E0094B4FF0FE
:10F5E000206209495A6000229A60D9601A615A6102
:10F5F0009A61DA611A625A62013A9A62DA621A63AD
:10F60000704700BF00ED00E00000FA0540F0BE606A
:10F61000024B40F42020D860704700BF00ED00E0AE
:10F62000C37870B56BB31D4B4578DB688178DB43DD
:10F6300003F4E0631B0AC3F1040215FA02F20F257A
:10F64000DD400D40154302782D0102F00304E40073
:10F65000FF21A540A140124B9208C03253F822600E
:10F6600026EA010405EA0101214343F82210027849
:10F670000120510902F01F0210FA02F243F8212082
:10F6800070BD03780122590903F01F0312FA03F336
:10F69000034A203142F8213070BD00BF00ED00E088
:10F6A00000E100E00023037043708370C370704773
:10F6B00000F04BB900F047B900F04EB900F04AB97C
:10F6C000000100F04EB900F04FB9034B03485B68EE
:10F6D00003EA0000000B704700ED00E000F03F007F
:10F6E000012200F01F0312FA03F34009044A4030DC
:10F6F00052F820001840C31A584240EB03007047EC
:10F7000000E100E0014B1860704700BF00EF00E02F
:10F710004209012300F01F0013FA00F0024B60328F
:10F7200043F82200704700BF00E100E0024B586838
:10F730008005800D704700BF00ED00E0012200F061
:10F740001F0312FA03F34009044A803052F82000E4
:10F750001840C21A504240EB0200704700E100E03E
:10F76000014B1868704700BF00ED00E021F06041D8
:10F7700021F07F01014B01439960704700ED00E0EB
:10F78000014A024BDA6070470400FA0500ED00E020
:10F79000014A024BDA6070470100FA0500ED00E013
:10F7A000044B11B11A69104302E01A6922EA000001
:10F7B0001861704700ED00E0012300F01F0013FA0C
:10F7C00000F0054B11B15A6A104302E05A6A22EA6E
:10F7D00000005862704700BF00ED00E0134B70B5A9
:10F7E000DC68FF26E44304F4E064240AC4F1040561
:10F7F00036FA04F4A94002EA040400F0C002400909
:10F8000000F01800864044EA0101090111FA00F0F5
:10F810009209063253F8224024EA060643F8226091
:10F8200053F82260304343F8220070BD00ED00E041
:10F83000830A012203F00F0312FA03F3044A506A09
:10F8400003EA0000C11A484240EB0100704700BFC4
:10F8500000ED00E000F01F00012111FA00F0034B61
:10F860005A6840EA02025A60704700BF00ED00E0AB
:10F8700000F01F010139012010FA01F1024B5A6812
:10F8800041EA02025A60704700ED00E0830B01225A
:10F8900003F00F0312FA03F3054A506A03EA00006B
:10F8A000C3EB000CDCF1000040EB0C00704700BF24
:10F8B00000ED00E0830C13F003020A4B01D1D86A7B
:10F8C0007047012A0CD1020D02F00302986AD3009E
:10F8D000D840022A14BF00F00F0000F0FF0070476C
:10F8E000186B704700ED00E0034B10F4800F0CBF65
:10F8F000586B986B704700BF00ED00E030BF704759
:10F9000020BF704740BF7047BFF36F8F7047BFF392
:10F910004F8F7047BFF35F8F704701DF7047EFF382
:10F920001480704780F31488BFF36F8F7047EFF334
:10F930000980704780F309887047EFF308807047AB
:10F9400080F30888704762B6704772B67047EFF36D
:10F950001080704761B6704771B67047EFF313803F
:10F96000704780F311887047EFF31280704740BAF8
:10F97000704700BA704700007047FEE7FEE7FEE7F9
:10F98000FEE7704770477047704770477047704791
:10F9900070477047704770477047704770477047AF
:10F9A000704770477047704770477047704770479F
:10F9B000F4F726BCF4F726BC7047704770477047D1
:10F9C000704770477047704738B5314D13202B682A
:10F9D000002101332B60F4F739FC2B792C461BB145
:10F9E0002B79013B2B7138BD14232B71AB6813B1FC
:10F9F000AB68013BAB60A289254B92B2142A02D9B5
:10FA00009A89143A00E000229A81E289204B92B24E
:10FA1000132A03D9DA89143ADA8103E0032000219A
:10FA2000F4F714FC237C1A4D312B03D82B7C0133C3
:10FA30002B740EE00023042001212B74F4F706FC44
:10FA40006B8A01336B82AB8A9BB213B1AB8A013BE9
:10FA5000AB82A27D0E4B0132A275A27D0B2A09D981
:10FA600000229A75DA7DD2F1010238BF0022DA75E0
:10FA700001221A76627E064B12B15A7E013A5A76FC
:10FA8000A27E034B12B19A7E013A9A7638BD00BF2E
:10FA90009053002070477047704770477047704719
:10FAA000704770477047704770477047704770479E
:10FAB000704770477047704770477047704770478E
:10FAC000704770477047704770477047704770477E
:10FAD0000A4A0B4B9A4205D10A4B0AE052F8041B22
:10FAE00043F8041B08498B42F8D3F5E7002243F89A
:10FAF000042B064A9342F9D3704700BF50B901085E
:10FB0000003000201431002014310020DC6100207E
:10FB1000684620F007018D4601B5FFF7D9FFFFF7D2
:10FB20002BFDFEE7FEE770472DE9F047F02386B096
:10FB300004460E46154600931422A03302A84FF443
:10FB40009E71FDF719FD2A46384D204602AB384913
:10FB5000009600F089FB2A6804F5A07704F5B476D6
:10FB6000384650320423334900F0B0F904F5BA782E
:10FB7000304604F5C071002244F6206300F0AAF973
:10FB8000404604F5C171012242F2107300F0A2F95F
:10FB9000296804F5A8794846543100224FF4FA4305
:10FBA00000F098F9296804F5AE7A504658310022E1
:10FBB00004F128054FF4FA4300F08CF92846394641
:10FBC0001D4A44F216030094FDF7AAFB04F1D0008D
:10FBD00031461A4A44F216030094FDF7A1FB04F5DE
:10FBE00084704146164A44F216030094FDF798FBD0
:10FBF00004F160004946134A44F208230094FDF7DB
:10FC00008FFB04F1980051460F4A44F208230094F8
:10FC1000FDF786FB236820469E68294646F6751246
:10FC20000023B04706B0BDE8F08700BFB057002002
:10FC3000B89D0108EC9E0108CA9D0108CF9D0108EE
:10FC4000D49D0108D89D0108DC9D0108004870473B
:10FC5000B0530020034B03EB001398889B89984016
:10FC600080B27047509B0108294B2DE9F74F03EBF9
:10FC700000139E689D889C89FFF7ECFFB0F5007F1C
:10FC800003D924484F21FCF70CFF4CB9234604E06C
:10FC9000315B214A013311530234AB42F8DB34E0CB
:10FCA0004FF0010C0CFA04FC5FFA8CFC4FEA4C029A
:10FCB00001921949B346002324E0013393FBF5F286
:10FCC00005FB12323BF8027B36F812800022C7EBAC
:10FCD0000809CDF80090994610465346CA4609E0F7
:10FCE000C8EB0709914429FA04F90130B94423F813
:10FCF000029BC0B2DDF8009060454A44F0D3019AFF
:10FD000053468918AB428A46D7DB0348BDE8FE8FCD
:10FD1000509B0108E09D0108B053002044F6444385
:10FD20009A422DE9F74F04460F4604D1614B00215A
:10FD300018687C3007E044F645439A4208D15D4B91
:10FD4000012118687C3003B0BDE8F04F00F0D7BA4D
:10FD500046F675139A4240F0A98000F5847949452A
:10FD6000554D40F099802E6896F85000FFF772FFCD
:10FD7000B4F98231514A4343B2FBF3F3B3F5FA4F7E
:10FD800028BF4FF4FA431BB2013B04F16000B36596
:10FD900000F0A6FA04F1980000F0A2FA7CE022F04C
:10FDA0000202A4F880205A6D9B6D01320133534347
:10FDB000434A04F1D000B2FBF3F2A4F88221414A95
:10FDC000B2FBF3F3A4F88031B4F8F03043F002034F
:10FDD000A4F8F03000F084FA2B68996DB3F8540061
:10FDE0004A1C521089B292B2FDF78CF833E09B6D39
:10FDF0004FF0140B01330BFB03F342F00202A4F8A3
:10FE0000802030460193FFF725FF019B2B4A434397
:10FE1000B3FBFBFBB2FBFBFB2A4A8246B2FBF3F3CC
:10FE2000A4F88031B4F8F030A4F882B143F00203B2
:10FE3000A4F8F03004F1D00000F052FA474505D1A3
:10FE40003046FFF711FF5146FDF76EF82B68B3F807
:10FE50005800FDF785F8484600F042FA474525D19D
:10FE6000144F194B386803EB06167C30B168B28822
:10FE700000F034F838687C3000F032FA2B6893F8E0
:10FE80005030032BB4F828310CBF43F0020323F0A9
:10FE90000203A4F8283109E02B6804F1280893F83C
:10FEA0005060B4F88020032EA1D178E703B0BDE8FC
:10FEB000F08F00BF48590020B057002000E6DF0C4B
:10FEC00000F87D0100A24A04509B01084160826055
:10FED000037370474160028143817047816282856C
:10FEE00000F0FEB97047704770B5044688B000F165
:10FEF0005C0500F1B00628460C3500F0CDF8B5429F
:10FF0000F9D104F1B00505F1540628460C3500F08E
:10FF1000C3F8B542F9D104F5827000F0BDF804F5DC
:10FF2000887000F0CDF840F2FF70A0804E484F4B33
:10FF3000A0614F481C60E0614FF6E070A082642031
:10FF4000E0824C484C4BA0624C480122E0624FF6E4
:10FF50001F0060846420A0844948A360A0634948CE
:10FF6000494B62702270E2742274E06384F8362098
:10FF70004FF4FC600A320321E36060860023C8204E
:10FF800084F84020093AA170E3706374A37484F884
:10FF9000263084F82030A08684F8303084F8412060
:10FFA000A4F8423084F8441084F8453084F8463090
:10FFB00084F84730E364043384F85030AF3363652A
:10FFC00041F2EC33A365314B78209988A4F84A00BC
:10FFD0001868ADF81C101946069051F8060F8022DB
:10FFE0008988A4F84820049006AAADF8141092E875
:10FFF0000300C4F804010498A4F808111946C4F8D1
:020000040801F1
:100000000A0151F80C0FBDF81420029053F8120F9A
:1000100089889B88A4F80E21ADF80C1002AA0090E4
:10002000ADF8043092E80300C4F88000BDF8043055
:100030000098A4F88A30164BC4F88600C4F8103132
:100040004FF48073A4F81831124B4FF6F7724FF447
:100050000060A4F81A01A4F88410E280C4F81431F6
:10006000204608B070BD00BF4C9F0108B05700206B
:100070003E9F01085F9F01083A9F0108509F0108B9
:10008000729F0108639F01082C9F0108309E0108A0
:100090006ABC343E6ABCB43F0022027082712A32CC
:1000A0004270C2712B32827002722A32C270427266
:1000B0002B32027182722A324271C2727047000082
:1000C0000022026000220281024A42607F224281B5
:1000D000704700BF0000FE42002830B5174A04DA1E
:1000E000404200B20121002311E004D130231370FB
:1000F00001462F3B0BE000210B4608E00A2590FB50
:10010000F5F405FB14003030D054013320B2002840
:10011000F4DC11B12D21D15401330021D1545810F8
:10012000013BD31804E0545C5D7855545C70013198
:10013000013B8142F7DB014830BD00BFB4570020CE
:100140000F2810B5044603D903482721FCF7A9FC62
:10015000024B185D10BD00BF89A0010879A00108FD
:1001600038B5054600F01F004008FFF7E9FF074CCF
:100170002070C5F3C310FFF7E3FF6070280BFFF793
:10018000DFFF0023A070E370204638BDB457002085
:100190007047704770477047028C10B512F0080F17
:1001A00005D003680121DB680022984710BD8469EF
:1001B00008E0238C13F0010F03D0236820469B69CD
:1001C0009847E469002CF4D110BD40697047014B99
:1001D00018687047BC570020806920B100E01846BD
:1001E000C369002BFBD1704770B544690646E4B182
:1001F000A3691BB90E482F21FCF753FC73699C6956
:10020000B44211D03CB90A483321FCF74AFC02E061
:10021000B5420AD02C46E569002DF9D104483A21AF
:10022000FCF73FFC2C4600E00024204670BD00BFD8
:10023000D0A0010838B50446856903E02846FFF7D9
:10024000F9FFED69002DF9D163699A69A24202D1E3
:10025000E2699A6104E02046FFF7C6FFE369C361E3
:1002600000236361238438BD2DE9F041984643693A
:1002700004460E461746069D1BB10D485521FCF756
:1002800010FC6662261D98E80F0086E80F00002328
:100290006561A361E36127843DB12846FFF79CFFB8
:1002A00010B9AC61BDE8F081C461BDE8F08100BF68
:1002B000D0A00108014B1860704700BFBC57002058
:1002C000034B1B681B1A584240EB0300704700BFEA
:1002D000BC570020014B1868704700BFBC57002076
:1002E00008B503680121DB680022984708BD38B5CE
:1002F00005460868846808462946A04738BD038C2F
:1003000001290CBF43F0010323F00103038470476C
:10031000C36933B11A8C12B112F0020F0AD0DB6933
:10032000F7E742691AB1128C12F0080F02D1406946
:100330000028EDD11846704710B504462046FFF757
:1003400053FF30B1038C002BF9D013F0020F09D00A
:10035000F5E763691BB11B8C13F0080F02D16469C8
:10036000002CEBD110BD11F0080F70B504460D46FE
:1003700019D01D4B1B68834203D01C487A21FCF71F
:1003800090FB2046FFF7C4FF064660B18369002B4F
:1003900018BF1E463046FFF78DFF2046FFF7A0FF2F
:1003A0003046FFF79DFF15F0040F1BD00E4B1B6866
:1003B000A34203D00D488A21FCF773FB2046FFF7C8
:1003C000BBFF054670B1FFF707FF002818BF0546C1
:1003D0002846FFF76FFF2046FFF782FF2846BDE85B
:1003E00070407DE770BD00BFBC570020D0A0010861
:1003F0004069003818BF0120704738B50F4C104BCA
:1004000005460360A38A0133A38200234361A369E5
:100410008BB9A06104F1240104F11C00102200F04A
:1004200037F904F1E40004F1EC01082200F035F999
:10043000201D00F0E9F8284638BD00BFBC57002059
:10044000B0A001081FB5034601AC0A462046194674
:1004500000F004F994E80E00014800F023F91FBDF4
:10046000D857002070B5FBF7F3FF0024054611E0D4
:100470000B48214600F036F982684368AA1A9A426E
:10048000064606DD006803681B699847FBF7E0FF36
:10049000B0600134024800F023F98442E8DB70BD0B
:1004A000D8570020022938B50446154616D003292E
:1004B0001CD0012931D103681B689847A4690AE060
:1004C000238C13F0010F05D023682046DB6801213F
:1004D00000229847E469002CF2D138BDFFF7FAFEFC
:1004E000D8B10368A9B25B68984738BD43690BB9B6
:1004F000FFF7B8FF236820465B699847A4690AE0C4
:10050000238C13F0010F05D023682046DB680321FC
:1005100000229847E469002CF2D138BD70B588B04C
:1005200003AE044630460D4600F0A2F806AB93E851
:1005300003006B4683E803000C4896E80E0000F0C9
:10054000E9F80DB1284600E02046FFF7B3FE074862
:1005500000F000F90068FFF7C3FE0548211D00F018
:1005600059F82046FFF7BCFE08B070BDA058002027
:10057000C057002070B5104E86B0341DFFF75AFEEC
:1005800006F1E405204600F03FF8284600F0E2F8C6
:100590000068FFF78FFEB069FFF7A2FE284600F063
:1005A000D9F804300FC884E80F0001A8294600F0EC
:1005B000E3F806B070BD00BFBC57002070B505461B
:1005C00000240DE00948214600F08CF80368AB4296
:1005D00005D106482146BDE8704000F0F5B8013469
:1005E000024800F07DF88442ECDB70BDD857002053
:1005F00010B5002403480019143400F039F8A02C79
:10060000F8D110BDA8580020002303604360836028
:10061000C360704738B504460D46FDF793FB20B91B
:1006200095E80F0084E80F0038BD22682B689A42D5
:10063000D4BF2260236062686B689A42D4BF626054
:100640006360A268AB689A42ACBFA260A360E26834
:10065000EB689A42ACBFE260E36038BD10B5016060
:1006600042600446FBF7F4FEA060204610BD000087
:10067000064B30B553F8042B0446054644F8042BCA
:100680000FCB84E80F00284630BD00BFBC570020C8
:10069000002301608380C280704700230160838053
:1006A000C280704730B585B0044601A880E80E00CE
:1006B000A288E3889A4203D308488321FCF7F1F922
:1006C000A58823680C2202FB053301AA013507CA5D
:1006D00083E80700A58005B030BD00BF2E9B010850
:1006E0008088704738B50C1E054602DA8388E41806
:1006F00004D42846FFF7F4FF844203DB0448A82112
:10070000FCF7CFF92B680C2000FB043038BD00BF8C
:100710002E9B010884B0F8B5054607A880E80E00B6
:10072000AA88EB889A4203D309488321FCF7B9F9D8
:10073000AF882B68142606FB073607AC0FCC0FC614
:10074000226801373260AF80BDE8F84004B07047DE
:100750002E9B0108838810B504461BB905488921E2
:10076000FCF79FF9A2882368013A142000FB0230AD
:1007700010BD00BF2E9B01088B8870B504460E4645
:100780001BB909488F21FCF78CF9B3883268013B0B
:100790009BB2142505FB0325B38026460FCD0FC65B
:1007A0002A682046326070BD2E9B01088388C2886B
:1007B000CB189BB29A42838003D202489721FCF760
:1007C00070B970472E9B010870B50C460546FFF7BF
:1007D00087FF844203DB0E48AE21FCF762F90C264A
:1007E000664307E02A6801349219A2F10C0307CA94
:1007F00083E807002846FFF773FF01380C36844270
:10080000F0DB28464FF0FF31BDE87040FFF7CEBF68
:100810002E9B010870B51D4600F128038B4204464B
:10082000164620D144F644439A4208D1002D41D0C7
:1008300029460023FFF75BFD284600210BE044F624
:1008400045439A420BD1002D34D029460023FFF7AF
:100850004EFD28460121BDE87040FFF750BD44F62B
:1008600052439A420AD046F267439E4222D1B4F8DC
:10087000743013F0010F05D004F15400BDE870404E
:10088000FFF72EBDB4F8CC3013F0010F02D004F105
:10089000AC00F3E72046FFF79AFC84420AD02046DA
:1008A000FFF795FC324601462B462046BDE87040D6
:1008B000FFF71DBD70BD0020FBF77ABE634B2DE92D
:1008C000F0411860624B86B05B6D04461A78312A9D
:1008D00004D15A78732A01D19B781BB15D4812214B
:1008E000FCF7DFF85C4B00251868FFF7FCFA0021E5
:1008F000F02300930A46A03302A8FCF73DFE04F162
:10090000280602AB01222046544904F15408009500
:10091000FFF7AAFC3046214600F0BCF940462146CC
:100920000322FCF731FE04F17C0021460222FCF791
:100930002BFE04F1AC0021460222FCF725FE04F157
:10094000D4002146012201F0CFFE04F500601830EA
:1009500021462A46FCF730FE04F51A600C30214689
:100960002A46FCF78FFE04F5756021462A46FCF7FF
:1009700087FF04F530600C3021462A46FCF7DEFE86
:1009800004F546600C3021462A46FCF733FF04F597
:100990005C600C3021462A46FFF7C6F804F5825009
:1009A00004F58857083021462A46FCF7AFFF07F1C7
:1009B0000C0021464246FCF723FC07F13400214697
:1009C0000122FCF7DDFF04F58A501C30214601228C
:1009D000FCF7F0FF04F58C5704F5E15021462A4658
:1009E00005F008FA381D21462A46FCF7FDFF07F1FD
:1009F000380021462A46FDF711F804F59D5021469E
:100A00002A46FDF723F804F5E6502C3021462A4605
:100A100003F031FE04F5DE5021462A463430FDF75E
:100A20002DF8012384F850303046FFF743FC204670
:100A3000314646F26F720A4BFFF759FC20464FF4DD
:100A40007A71FFF7FFFC06B0BDE8F081485900203D
:100A5000949E0108DFA20108B0570020F9A2010806
:100A6000A69A01082DE9F0416E4CADF5067D63684C
:100A7000054613F0010F05D104F1080000F002FD56
:100A800001236360FCF770FA674E04463378002B4D
:100A900036D082AF384665490122FCF769FA002852
:100AA00000F0BC80DFF89CE197E80F008EE80F00B3
:100AB0004FF4FC6305F5F250009334305C4B29464B
:100AC0005C4A00F001F94FF400720021204606F064
:100AD000A3FE5949204606F0F9FE204606F054FFD1
:100AE00001305649201806F0F1FE38462146FCF741
:100AF00068FA18B95248A421FBF7D3FF00233370DA
:100B00000023504F23700DF5027E97E80F008EE80A
:100B10000F0070462146FCF749FAB84618B9484814
:100B2000AC21FBF7BEFF20464749042206F09AFDA0
:100B30000746002856D1211D444882AD00F071FCC3
:100B400098E80F0085E80F00204639464FF4007200
:100B500006F062FE1DE060550135B5F5007F19D144
:100B60003FB902A821462A4606F0AEFD384B1B6865
:100B7000236082A82146FCF724FA18B93048CC211A
:100B8000FBF78FFF204600214FF4007206F044FE71
:100B9000013700252D4801F0F5F8B0F1FF3FDAD11B
:100BA00047B982A82146FCF70CFA002836D1244820
:100BB000D72114E082A82146FCF703FA18B920488F
:100BC000DA21FBF76EFF82AC98E80F0084E80F0093
:100BD000204602A9FCF7F5F900BB1948DD21FBF717
:100BE00060FF1BE020461B49042206F03BFDA8B134
:100BF00023783BB963782BB9A3781BB9E3780BB999
:100C000001330AE01F2305F5F25000933430124BF4
:100C10002946124A00F058F8012333700DF5067D7D
:100C2000BDE8F081485900201530002021A40108BA
:100C30003DA401082DA401084DA401081FA301082B
:100C4000D9A30108385D0020A7A40108505900204D
:100C5000ACA40108B1A40108B6A4010850A301087E
:100C600000E700BF4FF480407047436810B504466A
:100C70000BB9FCF72EF9636813F0030F02D1FCF7F0
:100C800026F9A060636803F00302A2180133107A0A
:100C9000636010BD30B5102387B00D46002180F889
:100CA0002810044600930A4602A84FF4C873FCF7C4
:100CB00063FC20460349012202AB0095FFF7D4FAFA
:100CC00007B030BDB8A1010870B586B01546BDF8B3
:100CD0002820C362028504460E46FFF789FB28B12F
:100CE0002046FFF76BFC2046FFF744FCA02300934F
:100CF00028216422C83302A8FCF73EFC012202AB83
:100D0000204629460096FFF7AFFA00212046FFF75C
:100D100005FC6420FBF7ACFB204640F6B831FFF73A
:100D200091FB06B070BD000038B504464275836182
:100D30000D4679B1084606F027FEC0B2122820758C
:100D400003D906489421FBF7ACFE2046294606F05D
:100D5000BDFD01E001700175204638BDC4A1010848
:100D600001707047074B10B50446186801210368ED
:100D70000022DB68984720460721FFF7F1FF204655
:100D800010BD00BF4859002010B5044601F0F4FC26
:100D900020460721FFF7E4FF204610BD0122027024
:100DA00041607047002202704160704710B54B6887
:100DB00004461978FFF7F6FF204610BD4B6810B5C2
:100DC000B3F900100446FFF7EDFF204610BD4B6855
:100DD00010B519880446FFF7E5FF204610BD10B591
:100DE0004FF480510446FFF7DDFF204610BD10B5DB
:100DF00003704160826010BD10B50446037041600D
:100E0000101E02DA084606F0BFFDA060204610BDA5
:100E100005220270416070470822027041607047ED
:100E200009220270416070471FB503781BB9406802
:100E300006F0D8F913E0012B01D140680FE0092B2F
:100E400008D1416801A80B685B68984701A8FFF7C3
:100E5000EBFF04E00348F621FBF723FE002005B07A
:100E600000BD00BFC4A101081FB503780BB94068DD
:100E700016E0012B03D1406806F0CEFB10E0092BF1
:100E800008D1416801A80B685B68984701A8FFF783
:100E9000EBFF05E003484FF48171FBF702FE0020F1
:100EA00005B000BDC4A1010810B544680846FFF7AD
:100EB000DBFF207010BD10B544680846FFF7D4FF73
:100EC000208010BD10B544680846FFF7CDFF208094
:100ED00010BD0078431A584240EB03007047037876
:100EE000052B05D14068421A504240EB0200704782
:100EF00000207047A1F13000C3B2362B06D80B1189
:100F0000032B05D001F00F00093070474FF0FF3080
:100F1000704711F8013BA3F13002D2B2092AF8D987
:100F20002E2B0CBF4FF07E50002070472DE9F04172
:100F3000002313600B7890462D2B02D10131234FF3
:100F400001E04FF07E570E4600240FE02049204676
:100F500006F09CF90446284606F044F9014620466E
:100F600006F08CF81B4906F087F80446334616F85D
:100F7000015BA5F13002D2B2092AE7D92E2D19D191
:100F80001A46154D0FE006F02DF9294606F07EF9B8
:100F90000146204606F072F80F490446284606F03E
:100FA00075F9324605465078561C3038C2B2092AC7
:100FB0003346E8D91A782046002A08BF0023C8F82B
:100FC0000030394606F062F9BDE8F081000080BFCC
:100FD0000000204100004042CDCCCC3D002070B547
:100FE000106002E00A2303FB00500B4611F8014B8E
:100FF000A4F13005EEB2092EF4D9002C08BF00236D
:10100000136070BD38B5254D2C6814F0010443D130
:1010100023494FF0FF3223462248FFF785FE22493D
:101020004FF0FF3223462148FFF77EFE20494FF064
:10103000FF3223461F48FFF777FE1F494FF0FF326C
:1010400023461E48FFF770FE1D494FF0FF321D4B2F
:101050001D48FFF769FE1D4909221D4B1D48FFF77A
:1010600063FE1D4909221D4B1D48FFF75DFE1D490A
:1010700008221D4B1D48FFF757FE1D4908221D4B36
:101080001D48FFF751FE23461C4821464FF0FF3212
:10109000FFF74AFE01232B60024838BD485D00205F
:1010A000DFA101084C5D002018A30108685D002045
:1010B000E1A10108845D0020E3A10108A05D0020FA
:1010C000AAA401080D210108BC5D00209D9801081B
:1010D000A5200108D85D0020E5A101081520010820
:1010E000F45D0020E7A10108DD190108105E002071
:1010F000E9A10108AD1F01082C5E0020485E002018
:10110000F8B50F46FFF77EFF0025044613E038468A
:101110002146324606F068FC60B994F91530142B6C
:1011200001D01F2B0BD125B12B7DB34238BF2546F3
:1011300000E025461C34267D002EE8D12C462046B2
:10114000F8BD0000014B0360704700BF58A10108C3
:1011500010B50446FFF7F6FF014B2046236010BD93
:1011600048A1010810B5074C236813F0010F04D102
:101170000548FFF7EDFF0123236003480023436088
:1011800010BD00BFA4610020A861002010B5044676
:10119000FFF7E8FF01462046FFF73EFE204610BD60
:1011A00038B54D4C256815F0010540F093801422A8
:1011B0004A494B4B4B48FFF7B7FD14224A494B4B6A
:1011C0004B48FFF7B1FD1F224A494B4B4B48FFF7F5
:1011D000ABFD1F224A494B4B4B48FFF7A5FD1F2291
:1011E0004A494B4B4B48FFF79FFD1F224A494B4B47
:1011F0004B48FFF799FD1F224A494B4B4B48FFF7DD
:1012000093FD1F224A494B4B4B48FFF78DFD1F2290
:101210004A494B4B4B48FFF787FD1F224A494B4B2E
:101220004B48FFF781FD1F224A494B4B4B48FFF7C4
:101230007BFD1F224A494B4B4B48FFF775FD14229B
:101240004A494B4B4B48FFF76FFD14224A494B4B21
:101250004B48FFF769FD14224A494B4B4B48FFF7B7
:1012600063FD14224A494B4B4B48FFF75DFD4B4948
:1012700014224B4B4B48FFF757FD4B4914224B4B65
:101280004B48FFF751FD4B4914224B4B4B48FFF79E
:101290004BFD4B4914224B4B4B48FFF745FD4B4947
:1012A00014224B4B4B48FFF73FFD4B4914224B4B4D
:1012B0004B48FFF739FD4B4914224B4B4B48FFF786
:1012C00033FD2B464A4829464FF0FF32FFF72CFDED
:1012D00001232360034838BD645E0020EBA10108B0
:1012E000DF0D0108685E0020F6A101088D110108DC
:1012F000845E0020FFA1010879240108A05E00207F
:101300000DA2010839250108BC5E002019A20108C0
:1013100041240108D85E002029A20108C125010846
:10132000F45E002034A2010809240108105F0020A7
:1013300042A20108012501082C5F00204EA20108ED
:10134000D1230108485F00205EA201088925010819
:10135000645F002069A20108C9240108805F0020A1
:1013600076A20108992301089C5F002087A201084A
:10137000890D0108B85F002092A20108A515010897
:10138000D45F00209DA2010861150108F05F0020D4
:10139000A8A20108B12201080C600020B4A2010833
:1013A000591B010828600020C0A201084526010839
:1013B00044600020CCA20108812101086060002067
:1013C000D2A20108511C01087C600020D7A20108AC
:1013D000F11B010898600020B9A20108650D010801
:1013E000B4600020DDA201083D1A0108D060002091
:1013F000EC60002070B50E46FFF782FE054670B91E
:10140000FFF7CEFE044605E03046214606F0ECFA32
:1014100020B11C34227D002AF6D100E02546284662
:1014200070BD38B500F5C8750446284606F04EFA7A
:1014300000234FF0FF32C4F8D053C4F8DC33C4F8B3
:10144000D823C4F8D423C4F8E43384F8E03338BD97
:10145000014B0360704700BF88A1010810B5044626
:10146000FFF7F6FF014B2046236010BD78A101086D
:1014700010B50446FFF7F2FF014B2046236010BD74
:1014800068A1010810B50446FFF7F2FF014B2046A2
:10149000236010BDF8A00108002301608380C28092
:1014A0007047016000218180C280704730B585B0EF
:1014B000044601A880E80E00A288E3889A4203D37C
:1014C00008484621FBF7EDFAA58823680C2202FBA9
:1014D000053301AA013507CA83E80700A58005B0D6
:1014E00030BD00BFC4A10108036810B504461BB994
:1014F00004484021FBF7D5FAA088D0F1010038BF9D
:10150000002010BDC4A10108838810B504461BB992
:1015100005484C21FBF7C5FAA2882368013A0C2044
:1015200000FB023010BD00BFC4A1010838B58B8894
:1015300004460D461BB909485221FBF7B2FAAA88A6
:101540002968013A92B20C2303FB0213AA8093E8A4
:10155000070084E80700204638BD00BFC4A1010889
:1015600030B585B0044601A8FFF7E0FF01A8FFF7FA
:101570007BFC072804D920460621FFF7F1FB0BE08E
:10158000074B53F82050284606F0FEF9294602463C
:1015900003232046FFF730FC204605B030BD00BFD6
:1015A0005C9E010830B585B0044601A8FFF7BEFF78
:1015B00001A8FFF759FC152804D920460621FFF79A
:1015C000CFFB0BE0074B53F82050284606F0DCF920
:1015D0002946024603232046FFF70EFC204605B0AD
:1015E00030BD00BF949E01082DE9F04FEBB00446DA
:1015F00010220D4667A807A9FFF753FF284606F0FB
:10160000C3F92368281804901B688C492046984722
:10161000236882461B688A492046984723680090C1
:101620001B68884920469847236887491B6881467C
:1016300020469847236802901B68204683499847B4
:1016400000230390C4F88C31574685E12B78202B7A
:1016500000F07F81236820461B6829469847039A3B
:101660000646904204D1137DED18C4F88C518AE1EE
:10167000504502D0029B984201D164AF64E1009AC8
:10168000904201D0484534D167A8FFF72DFF0028CC
:1016900040F0818167A8FFF737FF5146FFF71FFC35
:1016A00078B967A8FFF730FF0299FFF718FC40B937
:1016B00067A8FFF729FF4946FFF711FC002800F053
:1016C0006F8161A867A9FFF731FF4E4540F0428165
:1016D0005BAF31463846FFF79BFB97E80E0004F5F9
:1016E000C270FFF7E3FE67A897E80E00FFF7DEFE83
:1016F00030E100B3437D5AB2142A01D0052A06D145
:1017000058AF38463146FFF783FB67A80BE01E3B16
:10171000DBB2012B00F2C98055AF38463146FFF7E6
:1017200077FB04F5C27097E80E00FFF7BFFE337D2C
:10173000013BED180EE12B78272B18D1691C00E036
:1017400045466B7805F101080BB1272BF8D152AD56
:10175000C1EB080202232846FFF749FB95E80E007B
:1017600004F5C270FFF7A2FE08F101089AE0302BE1
:1017700019D16A78782A16D10235002701E040EAAB
:10178000071729782046FFF7B5FBA8460135002842
:10179000F5DA4FAD39462846FFF704FB95E80E0011
:1017A00004F5C2707CE0A3F13002D2B2092A01D95B
:1017B0002E2B4FD14FF0000B0DF5D478294648F869
:1017C00004BD2046FFF7A5FB002105F0F3FE074608
:1017D000A0B9294642462046FFF7A8FBDDF8A481C0
:1017E0000146A84505D11A484FF4FD71FBF759F998
:1017F000D2E04CAD2846FFF7D1FA14E02946424624
:101800002046FFF7EBFBDDF8A4810146A84506D191
:101810000F484FF40171FBF744F95F46BCE049AD56
:101820002846FFF7BFFA04F5C27095E80E00FFF7EF
:101830003DFEB8F1000F35D1A5E000BFDFA10108E2
:1018400018A30108E1A10108AAA40108E3A1010865
:10185000C4A101082A4613789046A3F16101C9B2D8
:1018600001321929F7D9A3F14101C9B21929F2D9D5
:10187000A3F13001C9B20929EDD92E2BEBD05F2B92
:10188000E9D0A84500F0878046AF2946C5EB08029D
:1018900004233846FFF7ABFA97E80E0004F5C27050
:1018A000FFF704FE08F1FF3554E09FB1009B9F4213
:1018B00010D097F915301E2B0CD01F2B0AD043AF38
:1018C00000213846FFF76EFA97E80E0004F5C27063
:1018D000FFF7ECFD337D96F91580013BDDF814B080
:1018E000ED18002767A8FFF7FFFDB0B967A8FFF75D
:1018F0000BFE034693F800B05B6840AFBBF1050FE9
:1019000007C8019387E8070006D193F9157037EAF5
:10191000270728BF012700E0012767A8FFF7E4FD9C
:1019200078B967A8FFF7F0FD0099FFF7D8FA40B93A
:1019300067A8FFF7E9FD4946FFF7D1FA08B9B845AE
:101940003ADDCDF814B03DAF38463146FFF760FAC6
:10195000C9E63E4601353746049A9542FFF476AE15
:1019600011E067A8FFF7D0FD5146FFF7B8FA98B924
:1019700037AD284667A9FFF7D9FD95E80E0004F5B5
:10198000C270FFF793FD67A8FFF7AEFD074600287A
:10199000E7D0012700E0002738466BB0BDE8F08FA4
:1019A0005EAF384667A9FFF7C1FD97E80E0004F562
:1019B000C270FFF77BFD67E63AA867A9FFF7B6FD9F
:1019C000019B8DF800B1419340AB04F5C2700ECB82
:1019D000FFF76CFD86E700BF8088704770B504464E
:1019E00086B008460D46FFF7F7FF012809DC1248CC
:1019F00040F29221FBF755F820460621FFF7B0F997
:101A000016E0294603A8FFF791FD03A8FFF70CFA9B
:101A1000294606466846FFF789FD6846FFF704FA3F
:101A20000146304605F02AFB01462046FFF7B6F98D
:101A3000204606B070BD00BFC4A101082DE9F047E3
:101A4000044686B008460D46FFF7C6FF022803D0BD
:101A50003D4840F27D1115E0294603A8FFF766FDD9
:101A6000294668469DF80C90DDF81080059FFFF729
:101A70005DFD9DF800300199042B029D09D032488C
:101A80004FF4C171FBF70DF820460621FFF768F906
:101A900056E02E4E2A46304605F016FE00237355BA
:101AA000304605F071FFB9F1090F824600EB0605DB
:101AB0000AD1D8F8003003A85B6841469847059FD3
:101AC000049A9DF80C9000E04246B9F1080F25D821
