:020000040800F2
:10C0000000000120E1430508F541050829DF040887
:10C01000F7410508F9410508FB410508000000004B
:10C02000000000000000000000000000FF410508C3
:10C03000FD41050800000000014205080342050813
:10C040000542050807420508094205080B42050894
:10C050000D4205080F420508114205081342050864
:10C060001542050817420508194205081B42050834
:10C070001D4205081F420508214205082342050804
:10C080002542050827420508294205082B420508D4
:10C090002F42050833420508354205083742050896
:10C0A000394205083B4205083D4205083F42050864
:10C0B0004142050843420508594305085B4305080A
:10C0C0005D4305085F4305086143050863430508B0
:10C0D0006543050867430508754305087743050868
:10C0E000794305087B4305087D4305087F43050820
:10C0F00081430508834305088543050887430508F0
:10C10000894305088B4305088D4305088F430508BF
:10C11000914305089343050895430508974305088F
:10C12000994305089B4305089D4305089F4305085F
:10C1300044534F5F4150503A204761626F6E6174C3
:10C140006F72277320616C7465726E6174697665B5
:10C150002055493B416C7465722055493B476162EB
:10C160007269656C2056616C6B7920323031333BDB
:0CC170000000000042494F535DC4040869
:020000040804EE
:10C00000014B1868704700BF8CA6002020B1036860
:10C01000197003680133036070472DE9F041161E63
:10C0200004460D4614DD002200E00132A95C00291F
:10C03000FBD1B24203F00208B4BFC2EB06060E46C3
:10C04000B8F1000F0CBF4FF020084FF0300801E0AE
:10C050004FF0200813F0010709D105E020464146C2
:10C06000FFF7D4FF0137013E002EF7DC05E0002783
:10C0700003E02046FFF7CAFF013715F8011B00292E
:10C08000F7D105E020464146FFF7C0FF0137013EEA
:10C09000002EF7DC3846BDE8F0812DE9FF410A9F0C
:10C0A00005460B9EDDF830C08E4651B930238DF821
:10C0B00004308DF805103A4601A93346FFF7ADFF6D
:10C0C0003CE03BB10A2A07D1002905DAC1F1000E94
:10C0D000012402E01C4600E0002404A9002301F82A
:10C0E000013D0EE0BEFBF2F302FB13EEBEF1090FC1
:10C0F000C4BFACF13A0086440EF1300E01F801EDF8
:10C100009E468846BEF1000FECD184B14FB116F0C7
:10C11000020F06D028462D21FFF778FF013F0124AA
:10C1200005E02D2301F1FF3801F8013C00242846E9
:10C1300041463A463346FFF770FF001904B0BDE8A8
:10C14000F081054B10B5196804460320B8F77EF856
:10C15000024B1C8010BD00BF003000209AA60020BA
:10C1600008B500210420B8F775F8C3439BB2C3F3A8
:10C17000802013F4006F1CBF40F0020080B213F463
:10C18000805F18BF40F4807013F0080F18BF40F0B4
:10C19000040013F4004F18BF40F0080013F0400FE4
:10C1A00018BF40F4007013F4804F18BF40F0100027
:10C1B00013F4005F18BF40F0200013F4807F18BF15
:10C1C00040F0400013F4007F18BF40F0800008BD2D
:10C1D0002DE9F14F0A9C1E460B9B88461746511EBF
:10C1E00004EB4309C6F1F002C8F1EF03054689B23A
:10C1F00080B292B29BB2B8F711F8A2460CE03AF8BE
:10C20000020BB8F705F8CA4508BFA2460BF1010BAF
:10C21000BB45F4DB08F10108B04501DAAB46F7E7AE
:10C22000002040F28F110246EF2301B0BDE8F04F2D
:10C23000B7F7F4BFC1F1EF0110B580B289B214466F
:10C24000B7F7E4FF2046BDE81040B7F7E1BF2DE99E
:10C25000F0478AB006460D4605920024EDE0252BF6
:10C2600040F0E58015F8013F002B00F0EA80252B17
:10C2700000F0DD802D2B02D101352C3B03E00023A3
:10C2800001E043F00203294615F8012B302AF8D0CB
:10C29000002702E00A2202FB07070A780D46A2F1F6
:10C2A00030005FFA80FC0131BCF1090FF2D9732A2A
:10C2B0000DD1059A3046111D05911168654A002976
:10C2C00008BF11463A46FFF7A8FE2418B4E0642AD6
:10C2D0000ED1059A01936123111D029300970591D8
:10C2E00030461168603B0A22FFF7D7FE2418A3E00E
:10C2F000662A57D1059B073323F0070303F1080291
:10C30000D3E9000105921BF04BF9002180461BF098
:10C3100043FC38B12D238DF8183008F100480DF199
:10C32000190A01E00DF1180A40461BF05DFC0123DB
:10C3300000E013460A225A439042FADA90FBF3F2E5
:10C3400002F1300103FB12000A2293FBF2F30AF818
:10C35000011B002BF2D124328AF80020002F08BFE5
:10C360000327994640461BF03FFC1BF023FA014689
:10C3700040461BF069F938491BF070FA80461BF003
:10C3800033FC09F101093030B9450AF8010FE9DB46
:10C390000022304606A920238AF80120FFF73DFE3F
:10C3A000241849E0782A0ED1059A01936123111DC2
:10C3B00002930097059130461168613B1022FFF708
:10C3C0006CFE241838E0582A0ED1059A01934123B7
:10C3D000111D02930097059130461168413B1022D0
:10C3E000FFF75BFE241827E0752A0ED1059A01930A
:10C3F0006123111D02930097059130461168613B3E
:10C400000A22FFF74AFE241816E0632A14D1059A7F
:10C410003046111D126805918DF8242000228DF8F8
:10C42000252009A93A46FFF7F8FD241804E0304614
:10C430002978FFF7EBFD013401352B78002B7FF4D1
:10C440000EAF16B1336800221A7020460AB0BDE85C
:10C45000F08700BF1CBC06080000204110B5414910
:10C4600004461BF093FD002838D020463E491BF0BF
:10C470008DFD002839D020463C491BF087FD00285F
:10C480003AD020463A491BF081FD00283BD0204697
:10C4900038491BF07BFD00283CD0204636491BF074
:10C4A00075FD08B9354810BD204635491BF06EFDB5
:10C4B00008B9344810BD204633491BF067FD08B960
:10C4C000324810BD204632491BF060FD08B93148A2
:10C4D00010BD204630491BF059FD08B92F4810BD4A
:10C4E00020462F491BF052FD08B92E4810BD2046AA
:10C4F0002D491BF04BFD08B92C4810BD20462C4996
:10C500001BF044FD08B92B4810BD20462A491BF0FA
:10C510003DFD08B9294810BD204629491BF036FDCC
:10C5200008B9284810BD204627491BF02FFD08B93F
:10C53000264810BD204626491BF028FD08B925488D
:10C5400010BD204624491BF021FD08B9234810BD29
:10C55000204623491BF01AFD224B00280CBF184629
:10C56000002010BD23BC060837BC060848BC0608DE
:10C570005BBC06086EBC060880BC06087D3F05084B
:10C5800094BC06086D4200089FBC060805420008DE
:10C59000AABC0608014200082EBC060835C20408E1
:10C5A00042BC06086BD5040853BC060861C10408E8
:10C5B00066BC0608E9C5040879BC0608AFD50408BE
:10C5C000B3BC0608BDD60408BDBC06083DC60408B9
:10C5D000C7BC060801C00408DABC0608D1C10408BB
:10C5E000EDBC060843C1040810B505280DD8DFE8E6
:10C5F00000F01012030507090B4C0DE00B4C0BE08B
:10C600000B4C09E04FF0006406E040F00100804769
:10C6100010BD084C00E0084C206807F099FD6368E5
:10C620009847012010BD00BF00C00108004002086B
:10C630000040000800C00008004001080020D3E7C7
:10C64000014BD86C80B27047002401400146142091
:10C65000B7F7FCBD034B18801A8892B2002AFBD1B1
:10C66000704700BF98A6002030B5002308E00A24D8
:10C67000B0FBF4F104FB11003030D054013388B228
:10C68000084A0028F3D1D0545910013BD31804E0D4
:10C69000145C5D7815545C700130013B8842F7DB17
:10C6A000004830BD7432002008B506200021B7F7DD
:10C6B000D1FD5A234343A3F58223A3F56B6340F2D4
:10C6C000145093FBF0F00A306428A8BF642020EADD
:10C6D000E07008BD0128ACBF014601210220B7F778
:10C6E000B5BD00EBD070024B40101860704700BF22
:10C6F00000300020052898BF174B30B594BF53F881
:10C700002030002303F548711A461046134C52F8A6
:10C71000045BA5421ED08A42F7D11A6810495D68B1
:10C7200002EA0101B1F1005F9C68D8680FD19D4217
:10C730000DD995420BD29C4209D9944207D2984216
:10C7400007D9084B904234BF1846002030BD002066
:10C7500030BD002030BD00BF28AD060844534F5FF8
:10C76000FF0000FFFDBC0608C0B2B7F76FBD47F27F
:10C770006623984201D1B7F75DBDC0B2B7F76ABD75
:10C7800043680A6823F4702323F4807313430A79FF
:10C7900010B543EA022343608A68CB6884681A4371
:10C7A000094B04EA030342EA03034A7943EA4203DA
:10C7B00083600B7CC26A013B22F47002DBB242EA66
:10C7C0000353C36210BD00BFFDF7F1FF00230360F8
:10C7D000037143718360C36001330374704721B1F7
:10C7E000836843F0010383607047836823F001038B
:10C7F0008360704721B1836843F48073836070471E
:10C80000836823F4807383607047C9B21AB14368A8
:10C81000194341607047436823EA01014160704752
:10C82000836843F00803836070478068C0F3C000EA
:10C830007047836843F00403836070478068C0F3E7
:10C840008000704721B1836843F4A0038360704780
:10C85000836823F4A003836070478068C0F380502E
:10C8600070474368013923F4604343EA413343602E
:10C87000704721B1436843F40063436070474368E5
:10C8800023F4006343607047092970B54FEA4104FF
:10C890000BD964181E3C0725A540A340C66826EAAC
:10C8A000050545EA0304C4600AE064180725A540AD
:10C8B00013FA04F4066926EA050545EA0403036150
:10C8C000062A0CD8013A02EB82021F2393409140C2
:10C8D000446B24EA030343EA0102426370BD0C2A5D
:10C8E0004FEA82030BD89A18233A1F2393409140B2
:10C8F000046B24EA030343EA0102026370BD9A1841
:10C90000413A1F2393409140C46A24EA030343EA57
:10C910000102C26270BD21B1836843F48013836059
:10C920007047836823F4801383607047C06C80B2C3
:10C930007047014B186870474C24014021B143688F
:10C9400043F4806343607047436823F4806343602B
:10C95000704721B1436843F4805343607047436894
:10C9600023F4805343607047836823F4E04341EA33
:10C9700003038360704721B1836843F400438360FD
:10C980007047836823F400438360704721B1836854
:10C9900043F4021383607047836823F402138360B7
:10C9A00070478068C0F340507047092970B54FEA5E
:10C9B00041040BD964181E3C0725A540A340C66856
:10C9C00026EA050545EA0304C4600AE06418072561
:10C9D000A54013FA04F4066926EA050545EA0403AE
:10C9E0000361836B03F440146FEA14541219033289
:10C9F000D2B202EB82021F249440914023EA040346
:10CA00000B43836370BD836B013923F4401343EA06
:10CA100001538363704782B00A5002B0704782B0FE
:10CA200001902830405880B202B07047436823F428
:10CA3000400323F4007341EA0303436070474162FB
:10CA400082627047436823F01F0341EA0303436097
:10CA50007047064B20B19A6842F400029A60704712
:10CA60009A6822F400029A60704700BF00240140D7
:10CA7000036819420CBF002001207047C9430160C0
:10CA800070474368006810EA112004D0C9B2194207
:10CA90000CBF0020012070476FEA11210160704730
:10CAA000054B19B1DA681043D8607047DA6822EA9A
:10CAB0000000D860704700BF0010024007B5154B5A
:10CAC0000190984210D0144B984218D0134B9842C2
:10CAD0001FD101214FF40070FFF7E2FF4FF4007007
:10CAE0000021FFF7DDFF14E001214FF48060FFF724
:10CAF000D7FF4FF480600021FFF7D2FF09E04FF429
:10CB000000400121FFF7CCFF4FF400400021FFF768
:10CB1000C7FF0EBD00280140003C01400024014039
:10CB2000054B19B15A691043586170475A6922EA96
:10CB300000005861704700BF00100240054B19B15A
:10CB40009A691043986170479A6922EA00009861D7
:10CB5000704700BF0010024008B50120FFF779FFC1
:10CB600010210A4801220523FFF78EFE0120FFF75E
:10CB700071FD06480121FFF765FE02210348FFF71A
:10CB800077FF0128F9D1FFF75BFD08BD00240140C4
:10CB900008B50120FFF75DFF11210A480122052396
:10CBA000FFF772FE0120FFF755FD06480121FFF750
:10CBB00049FE02210348FFF75BFF0128F9D1FFF787
:10CBC0003FFD08BD00240140084B5A68B2F1FF3F09
:10CBD00007D1074A07491068401A18BF012058605A
:10CBE00011605868003818BF0120704700300020DD
:10CBF000F0170020708AB06A0048704700080020D3
:10CC00004FF47F607047024B0E2202FB00307047EA
:10CC100040AD0608034B18801A8892B2002AFBD157
:10CC2000704700BF98A60020044A4FF48053136059
:10CC30004FF0C0421080024A136070471414014044
:10CC40001014014010B5EF20FFF7EEFF4FF0C04386
:10CC50001A881C8818881A881988C3B2C9B241EA90
:10CC6000046141EA0343120643EA1242014B9A600F
:10CC700010BD00BF74320020054B4FF480521A6083
:10CC80004FF0C0431880034802601980704700BF0E
:10CC900014140140101401402DE9F041E9204FF037
:10CCA000C044FFF7C1FF202222801120FFF7BCFF04
:10CCB0006420FFF7AFFFD120FFF7B6FF0025172252
:10CCC0005E232580D02023802280FFF7ADFF0C2635
:10CCD00007232380362023804FF040082680FFF76B
:10CCE000A3FF3046A4F800804936FFF79DFF268059
:10CCF0003A20FFF799FF2680C120FFF795FF533EAA
:10CD000010232380C020238026802680FFF78CFFFD
:10CD1000012735232580C520238025802580278075
:10CD20002680FFF781FF2780D220FFF77DFF222397
:10CD30002780C8202380FFF777FF732237232780BF
:10CD40002280238004220F232580238026802280B6
:10CD50006722A4F8008022802580802226802380FC
:10CD600008232380292022802580FFF75DFF2C20C7
:10CD7000BDE8F04158E7002008B50146FFF77CFF09
:10CD800000200146FFF778FF00200146FFF774FFFF
:10CD900000200146FFF770FF0A20FFF73BFF01214B
:10CDA0004FF4C060FFF768FF0A20FFF733FF402110
:10CDB0004FF4DE60FFF760FF0A20FFF72BFF4FF410
:10CDC00080604FF4C441FFF757FF082040F6080188
:10CDD000FFF752FF01204FF48071FFF74DFF022053
:10CDE0004FF48071FFF748FF03203021FFF744FF25
:10CDF00009200121FFF740FF0C200021FFF73CFF35
:10CE000090204FF40041FFF737FF0F200021FFF77C
:10CE100033FF10201621FFF72FFF112040F20111E0
:10CE2000FFF72AFF12200021FFF726FF1320012120
:10CE3000FFF722FF4FF480704FF44C71FFF71CFF97
:10CE400040F2011040F23721FFF716FF40F20310C5
:10CE50004FF47061FFF710FF4FF420704FF4D6418C
:10CE6000FFF70AFF4CF2B0114FF48170FFF704FF97
:10CE70006420FFF7CFFE4FF440704FF44061FFF79E
:10CE8000FBFE40F2013045F60B21FFF7F5FE40F2C4
:10CE9000023040F60611FFF7EFFE40F2033041F298
:10CEA0001701FFF7E9FE4FF441704FF40C51FFF703
:10CEB000E3FE40F205304FF4B851FFF7DDFE40F2DB
:10CEC000063046F20931FFF7D7FE40F2073040F650
:10CED0000941FFF7D1FE4FF4427041F20C01FFF718
:10CEE000CBFE40F2093042F23221FFF7C5FE4FF48B
:10CEF00004700021FFF7C0FE40F21120EF21FFF780
:10CF0000BBFE40F212200021FFF7B6FE40F21320D4
:10CF100040F28F11FFF7B0FE4FF4A0600021FFF741
:10CF2000ABFE40F201500021FFF7A6FE40F2025096
:10CF30000521FFF7A1FE40F201400121FFF79CFE11
:10CF4000002140F20440FFF797FE6420FFF762FEE5
:10CF50004FF480710720FFF78FFE6420FFF75AFE21
:10CF60004FF400700021FFF787FE002140F20120FE
:10CF7000FFF782FE054A4FF48053136040F202210E
:10CF80004FF0C0421180024A136008BD14140140E2
:10CF90001014014070B5104C4FF480534FF40065ED
:10CFA000236001202560FFF735FE0C4B0A201D6031
:10CFB000FFF730FE32202560FFF72CFEFFF742FE20
:10CFC000074B9A68074B9A4202D1BDE8704063E66E
:10CFD000BDE87040CFE600BF1014014014140140BA
:10CFE00074320020279304020B4B10B59A680B4B48
:10CFF0004FF0C0449A4209D12E20FFF715FE238836
:10D0000024882C20A4B2FFF70FFE02E02388248896
:10D01000A4B2204610BD00BF743200202793040242
:10D020000EB403B503AA52F8041B019001A80092A4
:10D03000FFF70DF9BDE80C4003B07047AAE713B540
:10D0400002AC24F8020D00200146B7F7DFF82046B5
:10D050004BF68031B7F7E8F8B7F7E2F820464BF621
:10D060008031B7F7E1F8B7F7DBF81CBDC1F1EF018C
:10D0700010B580B289B2B7F7C9F8BDE81040B7F76C
:10D08000F3B838B5151A5C1A6C434BF67F35AC42D1
:10D0900080B202F1FF35C3F1F0020FD9C1F1EF0305
:10D0A00092B2A9B29BB26508B7F7B8F804A8A9B2C2
:10D0B000B7F7BAF8641BB7F7B3F806E0C1F1EF03AE
:10D0C00092B2A9B29BB2B7F7A9F804A8A1B2B7F778
:10D0D000ABF8B7F7A5F8002040F28F110246EF2316
:10D0E000B7F79CF838BD37B50D46B0F902100446C5
:10D0F0004B1CB0F90000B4F904200095FFF7C1FF04
:10D10000B4F90630B4F90000591EB4F904200095B2
:10D11000FFF7B7FFB4F90000B4F90210421CB4F9EC
:10D1200006300095FFF7ADFFB4F90420B4F9021002
:10D13000B4F90630501E0095FFF7A3FF3EBD2DE960
:10D14000F843B0F80080044689461FFA88F70026A5
:10D1500015E0B4F90650013D0AE0C5F1EF0138468B
:10D1600089B2B7F753F8FFF73FFF013D29F8020BEB
:10D17000B4F902309D42F0DA01370136BFB20FFA3E
:10D1800088F2B4F90430B2189A42E2DBBDE8F883C1
:10D190002DE9F047C28843880D468188C2F1F0022C
:10D1A0000139C3F1EF03044689B2008892B29BB201
:10D1B000B7F734F80026B4F8028010E0B4F8009015
:10D1C000002703E035F8020BB7F722F80FFA89F2CF
:10D1D000B4F90430BA1801379A42F3DB01360FFA7A
:10D1E00088F2B4F90630B2189A42E7DB002040F228
:10D1F0008F110246EF23BDE8F047B7F70FB813B51C
:10D200000346B3F90240B3F90420B0F90000B3F9C2
:10D21000063000912146FFF734FF1CBD0268034B26
:10D22000DA6042681A6102685A61704774320020FD
:10D2300010B50B4C0246B4F91610B4F91400FEF701
:10D24000F9FFA38AB4F910200133A3821BB29A42DA
:10D2500004DCA389A382E38A0133E38210BD00BF0B
:10D260007432002070472DE9F74F99460C9B0191CD
:10D27000924613F801BB054600241FE018F8013B55
:10D280000BB313F0040F4FF61E0307D09A450CD0D2
:10D29000284631465246FEF7CDFF06E0994504D0B8
:10D2A000284631464A46FEF7C5FF013701365F453D
:10D2B0004346E3DB01340135502C03D0019E9846F0
:10D2C0000027F4E708242046BDE8FE8F2DE9F04151
:10D2D0001E460F46B6B2C7F1F00714460546B6F72C
:10D2E000A5FFB91BA8B289B2B6F790FF2046314618
:10D2F000B6F798FFBDE8F041B6F792BF30F00303F0
:10D3000009D131F0030208D140EA8100044909182B
:10D3100091F8180E7047002070471846704700BFFC
:10D3200028AD06082DE9F04F85B004469A469DF8D1
:10D3300039009DF838300D4616469DF83AB00290F7
:10D340000393274645E0C5EB0A01701E0139C01B57
:10D350003B1BC8EB01019842A8BF18464145A8BF36
:10D360004146FFF7CBFF68BBC9F1EF0189B2B8B204
:10D37000B6F74CFFB6F778FF1A4BC10001F0FF017A
:10D38000C208000A00EA0303C1EB0B000190DDF8BC
:10D3900008C0039802F0FC02C2EB0C0EC3EB000CB9
:10D3A00003EB6C03DDF804C0DB1001EB6C00C01074
:10D3B00040EAC32302EB6E00801043EA401080B2C3
:10D3C000B6F726FF09F1010908F10108D145BADBDA
:10D3D0000137B74203DAA9464FF00008F6E705B077
:10D3E000BDE8F08FF8FF07002DE9F74F06468A46A3
:10D3F00015461C46BDF830B088462DE00AF10303FF
:10D40000984509D1E71E414630462A463B46CDF8AD
:10D4100000B0FFF736FEB846B146002718E0A81B5B
:10D420000138611EC01BC8EB0101CAEB0803B842FA
:10D43000A8BF38469942A8BF1946FFF75FFF20B939
:10D44000484641465A46FEF7F5FE09F10109013703
:10D45000A945E4DB08F10108A045CFDBBDE8FE8F5C
:10D4600013B50346B3F90240B3F90420B0F9000044
:10D47000B3F9063000912146FFF7B6FF1CBD2DE938
:10D48000F74F01909DF830001F460D469246FFF77A
:10D49000BAFB4FF61E039F4283461DD100241BF8A2
:10D4A0000480019F6FEA08085FFA88F8082618F0E0
:10D4B000800F04D0384661195246FEF7BBFE013E8C
:10D4C000F6B2013726B14FEA48085FFA88F8EEE76E
:10D4D00001340E2CE3D145E09A451FD100241BF8FE
:10D4E0000490DDF804806FEA09095FFA89F90826DB
:10D4F00019F0800F04D1404661193A46FEF79AFEB2
:10D50000013EF6B208F1010826B14FEA49095FFA77
:10D5100089F9EDE701340E2CE1D123E000241BF85A
:10D520000490019E6FEA09095FFA89F94FF0080833
:10D5300019F0800F08F1FF38304614BF52463A46C2
:10D5400029465FFA88F8FEF775FE0136B8F1000F3C
:10D5500004D04FEA49095FFA89F9E9E70134013556
:10D560000E2CDCD10820BDE8FE8F2DE9F7430A9F81
:10D5700005460E4691469846AFB1387818B913E083
:10D580000A2B02D110362C4607E000932046314684
:10D590004A464346FFF773FF241817F8013B002B58
:10D5A000EED1601B00E03846BDE8FE83DDE72DE9E3
:10D5B000F043A5B015462CAA0E4652F8041B0746A8
:10D5C0000DF1080823A899462292CDF88C80FEF729
:10D5D0003EFE314604462A4638464B46CDF800808A
:10D5E000FFF7E4FF204625B0BDE8F08337B5124BC6
:10D5F00005460C46009330211F2328204FF6FF726A
:10D60000FFF7D4FF20211F234FF6FF72282000953B
:10D61000FFF7CCFFA0B2FFF727F8102100904FF6DC
:10D62000FF7228201F23FFF7C1FF4FF47A7003B069
:10D63000BDE83040FFF70EB805BD060808B5024842
:10D640000421FFF7D3FFFEE717BD06080FB430B57E
:10D65000A5B028AA52F8041B02AC23A82394229256
:10D66000FEF7F5FD23941EE00A2B134C03D0A569A9
:10D67000B5F5C47F09DBE26900230E32E02AA3611D
:10D68000E2610DDD0C4AD3610AE000932846E169AE
:10D690004FF6FF724FF43043FFF7F1FE4019A061DF
:10D6A000239B01332393239B1B78002BDCD125B0D4
:10D6B000BDE8304004B07047743200200048C5E730
:10D6C0003DBD06082DE9F74FC0EB020B5F1A1FFAAC
:10D6D0008BFBBFB20FFA8BFA0FFA87F84FEADB3BEE
:10D6E000FF0BBDF83090BAF1000FD4BFCBF1000BA7
:10D6F000CBF1010BB8F1000FD4BF7F42C7F1010796
:10D70000BAF1000FB8BFCAF1000AB8F1000FB8BFF4
:10D71000C8F100084FEA4A0A4FEA480800921FFA87
:10D720008AFA1FFA88F84A46019304460D460FFA12
:10D730008AF6FEF77FFD0FFA88F39E4220DB1FFA80
:10D7400088F8A8EB6606B6B216E016F4004F09D1C9
:10D750001EB94FFA8BF3002B04DD7BB2CAEB060631
:10D76000ED18B6B24FFA8BF3E4184644204629462A
:10D770004A46B6B2FEF75EFD009B9C42E5D11EE034
:10D780001FFA8AFAAAEB6306B6B215E016F4004F48
:10D7900009D116B97BB2002B05DD4FFA8BF3C8EB2C
:10D7A0000606E418B6B27BB2ED1856442046294668
:10D7B0004A46B6B2FEF73EFD019B9D42E6D1BDE86A
:10D7C000FE8F0020FFF71FBA07B50B200021B6F728
:10D7D00041FD40B9074B303000931E211F224FF608
:10D7E000FF73FFF7C2FE1420002103B05DF804EBC5
:10D7F000B6F72CBD47BD0608024B0146187224201F
:10D80000B6F724BD00300020014B187A704700BFE6
:10D810000030002070B50CE09C1804EBD474641048
:10D8200050F8246025468E4201D2621C01E004D9E2
:10D83000631E9342F0DA4FF0FF35284670BD2DE9A4
:10D84000F84F214C074604F5626008300E46154635
:10D850009846002215230C99FFF7DCFFB0F1FF3F3B
:10D860009DF82890BDF82CA083462AD00C9A174B1F
:10D870000520DA600021B6F7E9FC09203946B6F741
:10D88000E5FC0A203146B6F7E1FC00202946B6F750
:10D89000DDFC0B204146B6F7D9FC0C204946B6F713
:10D8A000D5FC04EB4B0401205146B6F7CFFC072012
:10D8B000B4F8801EB6F7CAFC0820B4F8AC1EB6F760
:10D8C000C5FCBDE8F88F00BF28AD06080030002079
:10D8D00008B503200021B6F7BDFCC0B208BDB6F7FD
:10D8E000A9BC08B506200121B6F7B0FCFEF788FBFD
:10D8F000014B186208BD00BF743200202DE9F041D1
:10D9000006460C462220314615461F46B6F79EFCB9
:10D9100021202146B6F79AFC202047EAC501BDE840
:10D92000F041B6F793BCB0F5805F70B503DD0A48EF
:10D93000CA21FFF75BFE094C04F580452668FFF716
:10D94000CEFF06F07F4620F07F4040EA060644F80E
:10D95000046BAC42F2D170BD60BD0608F834002003
:10D960004FF480507047B0F5805F10B5044603D384
:10D970000348DB21FFF73AFE024800EB840010BDAC
:10D9800060BD0608F834002010B500210220B6F76B
:10D9900061FC00210120B6F75DFC002100F00104CC
:10D9A0000320B6F757FC10F0010F18BF44F0020433
:10D9B000204610BD08B5FEF723FB0B4B1B6AC01AAF
:10D9C00019F0F8FE094919F0FDFF094BD96819F063
:10D9D000F9FF084919F042FF1AF006F9B0F5805F27
:10D9E000A8BF4FF4805008BD7432002000007A4474
:10D9F000003000200000F041034670B510200C46B6
:10DA000019461546B6F722FC11202146B6F71EFC32
:10DA100012202946BDE87040B6F718BC094B10B576
:10DA20001A68094C22F001021A60084A146043F295
:10DA3000B0521A60064A116090601A6842F0010202
:10DA40001A6010BD44040240087400404C040240B7
:10DA500048040240074B10B523F8240F1846012153
:10DA6000FFF7DCFF0D204FF46161BDE81040B6F711
:10DA7000EDBB00BF7432002001460D20B6F7E6BBB7
:10DA8000004870479A32002008B503460273002010
:10DA9000012A587309D11A460B480833B6F7F6FB2A
:10DAA000D0F1010038BF002008BD022A09D11A4672
:10DAB00005480833B6F7E8FBD0F1010038BF002075
:10DAC00008BD012008BD00BF9A32002008B50346FA
:10DAD00008461946B6F7DCFBD0F1010038BF00203C
:10DAE00008BD10B5044608462146B6F7D3FB20B959
:10DAF000637B01300133637310BD002010BD10B58E
:10DB0000037B0446022B10D1B1F1FF3F08BF417BDC
:10DB1000224608BF4902074804F10803B6F7BCFBD8
:10DB200028B903232373013010BD012010BD00204C
:10DB300010BD00BF9A320020024B034A93FBF0F362
:10DB40001381704700A24A040038014005E0054AED
:10DB5000118811F0800FFAD0938010F8013B002B50
:10DB6000F5D17047003801400F4B10489A6942F4D4
:10DB700080429A610E4A40F27123138142F22C03D3
:10DB80009381138823F4A46323F005031B041B0C67
:10DB90001380084B5A6822F47F6242F40A625A608A
:10DBA0004FF480621A61D1E7001002408ABD060876
:10DBB000003801400008014010B5FFF705F850B1EA
:10DBC0004FF4FA70FEF746FDFFF738FA04480549AE
:10DBD000054AFFF725FAFFF7F7FDBDE81040C3E758
:10DBE0000008002099BD06085DC4040806F0E2BAEA
:10DBF000034B1A8812F0800FFAD09880704700BF4C
:10DC0000003801400E200021B6F724BB0D20002172
:10DC1000B6F720BB0F200021B6F71CBB1020002157
:10DC2000B6F718BBB6F70ABB014B9868704700BF40
:10DC3000743200202DE9F0433F3189B0234B8046F8
:10DC400087B28CB2ADF1020213F8010C1978C01042
:10DC50008910C002490141185878043301EBD00102
:10DC600022F8021F1A498B42EED11A4E3D4616F891
:10DC7000013B08AA1B0902EB430328460135214654
:10DC800033F8202CADB208F1FF09FEF7D3FA4D4569
:10DC900002DD013CA4B23D4616F8013C08AA03F09F
:10DCA0000F0302EB430328460135214633F8202CAD
:10DCB000ADB2FEF7BFFA4D4502DD013CA4B23D46D0
:10DCC000054B9E42D3D109B0BDE8F08337D8030895
:10DCD00077D8030876D8030876F803080020704741
:10DCE000002070470020704700207047034B03EB73
:10DCF0008003D3F8D80E40EA8100704728AD0608AB
:10DD00000F2A70B505460C46164603D91248242141
:10DD1000FFF76CFC0F2C03D90F482521FFF766FC99
:10DD2000072C0E4B4FEA850503DC5D19D5F8D83E6C
:10DD300005E05D19D5F8D83E04F007040433A400CB
:10DD40000F22A24016FA04F4196821EA020242EAFC
:10DD500004041C6070BD00BFB3BD060828AD0608F2
:10DD6000074B03EB8003D3F8D83E01201AB110FA19
:10DD700001F11961704710FA01F15961704700BF54
:10DD800028AD060801228A40054B03EB8003D3F837
:10DD9000D83E9B681A420CBF00200120704700BF8C
:10DDA00028AD060810B586B00446002102A810224E
:10DDB00019F0E8FF00230AE00E498A4205D806A8B8
:10DDC00000EB830141F8102C0133032B08DC0A4AD5
:10DDD000944205D254F8042B08498A42ECD2F4E765
:10DDE000059B074800930299039A049BFFF72EFCBA
:10DDF00006B010BD28AD06080000012000C00408D0
:10DE0000DEBD0608B0B5054600AF0C460320002174
:10DE1000B6F71CFA07482946FFF718FC06482146C2
:10DE2000FFF714FC3846FFF7BDFF0448FFF70EFC70
:10DE3000FEE700BFFCBD060806BE060814BE0608C5
:10DE400030B50D4691B0744613460090054903A8BD
:10DE50002A46FFF7E5F803A82146FFF7D3FF11B0E4
:10DE600030BD00BF36BE0608684620F007018D466B
:10DE700031B50021224C82B00320B6F7E7F92148E2
:10DE8000FFF7E4FBD4F828121F488A694B69FFF7B3
:10DE9000DDFB1E4B1E48D96A9A6A9B6BFFF7D6FBC7
:10DEA000D4F828321B48DA68009219685A689B68CF
:10DEB000FFF7CCFBD4F83852D4F83432D4F82C1213
:10DEC000D4F8302214480095FFF7C0FB1348D4F86B
:10DED0003C12D4F84022FFF7B9FBD4F8283210489E
:10DEE000D4F84412D4F848221B69FFF7AFFBD4F8EA
:10DEF00028021C30FFF756FF0A48FFF7A7FBFEE792
:10DF00007432002050BE060864BE060800ED00E032
:10DF100080BE0608A4BE0608C8BE0608ECBE0608F9
:10DF200000BF060814BE06080A4BEFF30882C3F8C8
:10DF30002C42C3F82822C3F83052C3F83462C3F825
:10DF40003872C3F83C82C3F84092C3F844A2C3F8C5
:10DF500048B289E774320020704700BF704710B59F
:10DF6000044605F067F9034B20462360024B1C6012
:10DF700010BD00BF38CD0608F8740020014B0360C7
:10DF8000704700BF38CD0608014B1868704700BFC6
:10DF9000F874002037B5FEF733F8284C2368B3F146
:10DFA000FF3F08BF20602368C51AB5F57A7F0ED9F8
:10DFB0004FF47A72B5FBF2F502FB05331F490B6093
:10DFC00005F028FD00F52E50836EED188566FEF7EE
:10DFD000C7F8ADF8060000B9A08005F01BFD00F5FC
:10DFE00042500DF10601543004F042FD05F012FDDF
:10DFF00000F5425054300DF1060104F041FDBDF82A
:10E0000006309BB1A2889A4206D00D4B1B681B7A42
:10E0100013B93220FEF795F805F0FCFC0221BDF89B
:10E02000062009F0BFFFBDF80630A38005F0F2FC22
:10E030000321002209F0B6FF01203EBD143000206C
:10E04000ACA6002010B5FFF7B7FD05F0E3FC09F022
:10E0500094FC05F0DFFC0121002209F0A3FF15F07C
:10E06000FFFC15F0B9FC15F007FBBDE81040FFF709
:10E0700038BC00BF08B5036849421B6849B29847DD
:10E0800008BD0000014B1868704700BF70D5060836
:10E090007047012070474368826819688A181A60BF
:10E0A00070474368826819688A1A1A6070470820A6
:10E0B000704783681B78CB1805D4027B9342CCBF92
:10E0C0000020012070470020704783681A780132D1
:10E0D0001A70704783681A78013A1A70704783681B
:10E0E000197070478368187870474368B0F9082042
:10E0F0001B88CB181BB29A4206DCB0F90A00984282
:10E10000B4BF0020012070470020704743681A8880
:10E1100001321A80704743681A88013A1A807047A2
:10E120000220704718207047022070470020704777
:10E130000020704708207047034B1B68586A00286E
:10E14000B8BF033080107047ACA600200020704795
:10E1500019207047034B1B68986A0028B8BF03302A
:10E1600080107047ACA6002000207047192070472F
:10E1700070477047436882681B68CB18934205DB81
:10E18000C0688342CCBF0020012070470020704748
:10E1900043681A6801321A60704743681A68013A86
:10E1A0001A60704702484FF48871FFF71FBA00BF2A
:10E1B00048CD060808B5034840F20F11FFF716FADC
:10E1C000002008BD48CD060802484FF48771FFF7CC
:10E1D0000DBA00BF48CD0608024840F20D11FFF706
:10E1E00005BA00BF48CD060802484FF48671FFF714
:10E1F000FDB900BF48CD060808B503484FF4857146
:10E20000FFF7F4F9022008BD48CD060839B9042A01
:10E2100005D146F26742934201D108F039BF7047F9
:10E2200039B9042A05D146F26742934201D108F078
:10E230002FBF704739B9042A05D146F2674293428D
:10E2400001D108F025BF70470D4B07B51B6893F847
:10E25000CC21A2B1B3F9D221C8214A43B0F90A10A6
:10E260000539A1EB2221E82909D8B3F8CE21054BC5
:10E27000B0F9040000934FF61E03FEF7F4FF0EBD45
:10E28000ACA600204A240708C36A70B504460D46B0
:10E290001BB90B484221FFF7A9F915F0100F08D060
:10E2A000E168E36A204646F66352BDE8704008F034
:10E2B000FABE20462946BDE8704008F073BF00BF93
:10E2C00062CD060811F0100F70B505460C4605D05A
:10E2D000C16846F66F52002308F0E5FE2846214645
:10E2E000BDE8704008F05EBF11F0010F70B5044644
:10E2F0000D4615D0C06A012103685B689847012864
:10E300000ED1E06A00210368DB689847204608F0D8
:10E31000BFFE2046E16847F27052002308F0C3FEBA
:10E3200015F0020F15D0E06A012103681B689847B9
:10E3300001280ED1E06A002103689B6898472046B7
:10E3400008F0A6FE2046E16847F27052002308F06C
:10E35000AAFE15F0100F0ED0E06A0368DB6998473B
:10E36000084B1B68984206D02046E16846F6654295
:10E37000E36A08F098FE20462946BDE87040FFF7A2
:10E38000A1BF00BF70D5060811F0010F70B504469B
:10E390000D460DD0C36A002B0ADD013BC36208F0B5
:10E3A00077FE2046E16846F67512002308F07BFEF2
:10E3B00015F0020F0ED0E36A132B0BDC0133E3627E
:10E3C000204608F065FE2046E16846F675120023F7
:10E3D00008F069FE20462946BDE87040FFF772BF8D
:10E3E00011F0010F70B504460D460DD0C36A012B24
:10E3F0000ADD013BC36208F04BFE2046E16846F6A9
:10E400007512002308F04FFE15F0020F0ED0E36ADC
:10E410001D2B0BDC0133E362204608F039FE204659
:10E42000E16846F67512002308F03DFE20462946B5
:10E43000BDE87040FFF746BF11F0200F70B50546EC
:10E440000C4606D0C06846F278520146002308F018
:10E450002AFE28462146BDE8704008F0A3BE000011
:10E4600011F0010F70B504460D4615D0006A012168
:10E4700003685B68984701280ED1206A0021036871
:10E48000DB689847204608F003FE2046E16847F223
:10E490007052002308F007FE15F0020F15D0206A15
:10E4A000012103681B68984701280ED1206A0021CA
:10E4B00003689B689847204608F0EAFD2046E1681B
:10E4C00047F27052002308F0EEFD15F0100F0ED049
:10E4D000206A0368DB699847084B1B68984206D09E
:10E4E0002046E16846F66542236A08F0DCFD2046D6
:10E4F0002946BDE87040FFF79FBF00BF70D50608F2
:10E5000011F0010F70B504460D4615D0C06A012107
:10E5100003685B68984701280ED1E06A0021036810
:10E52000DB689847204608F0B3FD2046E16846F6D0
:10E530007512002308F0B7FD15F0020F15D0E06A40
:10E54000012103681B68984701280ED1E06A002169
:10E5500003689B689847204608F09AFD2046E168CA
:10E5600046F67512002308F09EFD20462946BDE8B8
:10E57000704008F017BE0000C36A70B504460D462F
:10E580001BB91A482A21FFF731F815F0100F08D0EF
:10E59000E168E36A204646F66352BDE8704008F041
:10E5A00082BDE36A1A79043AD2B2012A17D815F06B
:10E5B000010F08D0DA6812F1FE0F04DB013ADA60CD
:10E5C000204608F065FD15F0020F08D0E36ADA680E
:10E5D000FE2A04DC0132DA60204608F059FD2046AC
:10E5E0002946BDE8704008F0DDBD00BF8DCD0608AE
:10E5F000C36A70B504460D461BB91D482221FEF7BB
:10E60000F5FF15F0100F08D0E168E36A204646F6E2
:10E610006352BDE8704008F046BD15F0010F0ED002
:10E62000E36A1A795AB1013A1A71204608F030FDAE
:10E630002046E16846F67512E36A08F034FD15F0ED
:10E64000020F0FD0E36A1A790C2A0BD801321A7123
:10E65000204608F01DFD2046E16846F67512E36A83
:10E6600008F021FD20462946BDE8704008F09ABD1B
:10E67000BBCD060830B5028400250122456280F832
:10E680002820BDE8304008F0C7BC00007FB5043347
:10E6900002AC05460E4693E8030084E80300BDF88B
:10E6A0000E30284604339BB2ADF80A300733ADF87C
:10E6B0000E30044942F002022346009608F0ACFCFA
:10E6C0007FBD00BFEACD06087FB5043302AC054626
:10E6D0000E4693E8030084E80300BDF80E30284698
:10E6E00002339BB2ADF80A300733ADF80E3004495F
:10E6F00042F002022346009608F08EFC7FBD00BF68
:10E70000F6CD060830B5049D028401224562BDE8BD
:10E71000304008F081BC2DE9FF410A9E0D460021E2
:10E720004162028480F8283004464FF011083046D8
:10E7300008FB03F808F028FC5FFA88F802AF68B11C
:10E74000304608F021FC043003C887E80300BDF818
:10E750000E3002339BB2ADF80A3006E0331D93E869
:10E76000030087E80300BDF80A3098442046294694
:10E77000012202ABADF80E80009608F04DFCBDE81A
:10E78000FF81FFF7C8BF00002DE9F041DDF81880D8
:10E79000044615461F460E4621B908484FF403713A
:10E7A000FEF724FF204629463A460223E662CDF8CA
:10E7B0001880BDE8F041FFF7AEBF00BF48CD0608A6
:10E7C000DBB2FFF7A8BFFFF7A6BF10B50A24C462EB
:10E7D000BDE81040FFF79FBF10B50A24C462BDE832
:10E7E0001040FFF798BFFFF796BF000073B50446CF
:10E7F00016460D4619B907480C21FEF7F7FEE562EB
:10E800002046002146F20C3202230096FFF783FFD8
:10E810007CBD00BF8DCD060810B50524C462BDE8DF
:10E820001040FFF778BF13B503469C685B682478F7
:10E83000088853F82430B1F9021000934FF6FF73A3
:10E84000002A14BF1A4600224FF61E03FEF78DFE63
:10E850001CBD00002DE9F341274DB0F906402B689F
:10E86000B0F90460B3F85020244B214600933046A1
:10E870000023FEF77AFE2B68214F93F84E30214695
:10E8800057F82330801900934FF6FF720023FEF7EC
:10E890006CFE2B6806F16408B3F86420194B21461E
:10E8A000009340460023FEF760FE2B68214693F854
:10E8B0006230404457F823304FF6FF720093002334
:10E8C000FEF753FE104BC836009321460023304616
:10E8D0004BF29652FEF749FE2B68801993F89C2064
:10E8E0000A4B214653F822304FF6FF720093002363
:10E8F000FEF73BFEBDE8FC81ACA60020FB0E07083E
:10E9000074D60608E10F070802CE0608DCD6060812
:10E9100013B504300021FEF772FC314B3021009317
:10E920000420002348F21042FEF71FFE2D4B402129
:10E9300000930420002348F21042FEF716FE2A4BF3
:10E9400050210093294C0023042048F21042FEF786
:10E950000CFE60210023082044F208220094FEF7F8
:10E9600004FE234B702100930420002348F2104240
:10E97000FEF7FBFD1F4B802100930420002348F28B
:10E980001042FEF7F2FD1C4B90210093042048F248
:10E9900010420023FEF7E9FDB021082044F20822CE
:10E9A00000230094FEF7E1FD144BC02100930420E6
:10E9B000002348F21042FEF7D8FD114BD0210093FE
:10E9C0000420002348F21042FEF7CFFD0D4B042037
:10E9D0000093E02148F210420023FEF7C6FD1CBD63
:10E9E00006CE060811CE060822CE06082FCE06084F
:10E9F00058CE06086FCE06088BCE06089CCE0608B9
:10EA0000AFCE0608C7CE0608F7B50E88154B083EF0
:10EA10004FF6FF75002A08BF0025B6B20C46074620
:10EA2000B1F902102A46009330464FF61E03FEF756
:10EA30001AFC7B683618B6B2B4F90210009330465F
:10EA40002B464FF61E02FEF790FD074B3018009341
:10EA5000B4F902102A464FF61E0380B2FEF703FCFB
:10EA6000FEBD00BFAF2407082125070873B5044683
:10EA700008F0FEFAA688144B083E4FF6FF750028F2
:10EA800008BF0025B6B2B4F9061000932A463046F6
:10EA90004FF61E03FEF7E7FBE3693618B6B2B4F98A
:10EAA0000610009330462B464FF61E02FEF75DFD22
:10EAB000064B30180093B4F906102A464FF61E0391
:10EAC00080B2FEF7D0FB7CBDAF24070821250708E4
:10EAD00013B504464FF6FF710430FEF790FBB4F90E
:10EAE0000400B4F90A10054B0830009314390022D1
:10EAF0004FF61E03FEF739FD1CBD00BFD4CE06083D
:10EB000008B583681A78436853F8220019F08AFB25
:10EB1000C3004FF6F87003EA000008BD7FB54368F4
:10EB200004460D46164623B912484FF42F71FEF7DE
:10EB30005DFD63681A68A36892FBF3F20A2392FBF7
:10EB4000F3F103FB11220023ADF80C30303204AB9B
:10EB500003F8042D4FF6FF720093B5F90000B5F9E4
:10EB60000210002E08BF00224FF61E03FEF71EFD06
:10EB70007FBD00BF48CD060870B50E4615461C4641
:10EB800008F0FBF92A46014623463046BDE87040AE
:10EB900008F089BA11F0130F70B505460C4607D07E
:10EBA00008F0EBF9022201462346284608F07BFADA
:10EBB00028462146BDE8704008F0F4BA10B50C466E
:10EBC00008F0DBF9036821465B68984710BD11F037
:10EBD000130F10B50C4606D008F0CFF90368214694
:10EBE0005B68984710BDBDE8104008F0DBBA000034
:10EBF00011F0030F10B507D0FFF782FC044B186823
:10EC0000BDE8104006F00ABFBDE81040FFF778BC31
:10EC1000ACA6002011F0030F10B507D0FFF770FC71
:10EC2000044B1868BDE8104006F0F8BEBDE810407F
:10EC3000FFF766BCACA6002011F0030F10B507D09B
:10EC4000FFF75EFC044B1868BDE8104006F0E6BE16
:10EC5000BDE81040FFF754BCACA6002008B54368DF
:10EC6000B3F9000007F0AAFF19F0DCFAC3004FF671
:10EC7000F87003EA000008BD4368F7B54FF6FF7669
:10EC800004460D46002A08BF00261BB913489721E9
:10EC9000FEF7ACFC6368B5F900701868A368984289
:10ECA00002DBE36898420ADD0D4BB5F902100093D0
:10ECB000384632464FF61E03FEF757FC0CE000B212
:10ECC000B5F9024007F07AFF2146009032463846F7
:10ECD0004FF61E03FEF76AFCFEBD00BFE1CE06083C
:10ECE000FCCE060808B54368B3F9000007F066FFDC
:10ECF00019F098FAC3004FF6F87003EA000008BD57
:10ED00004368F7B54FF6FF7604460D46002A08BF64
:10ED100000261BB914485D21FEF768FC6268B4F94F
:10ED20000830B2F90000B5F90070834203DCB4F991
:10ED30000A3083420ADA0D4BB5F9021000933846C7
:10ED400032464FF61E03FEF710FC0BE0B5F9024009
:10ED500007F034FF21460090324638464FF61E0336
:10ED6000FEF724FCFEBD00BFE1CE0608FCCE06087F
:10ED70002DE9F0471F4647F270539A4204460D466C
:10ED800016463FD100F1380399423BD1436A93F8CC
:10ED90000480A8F104095FFA89F9B9F1010F8CBF69
:10EDA0004FF000094FF00109B9F1000F06D0A8F1AA
:10EDB0000503D3F1000848EB030801E04FF0010818
:10EDC00004F1A00A504608F062FA814506D049468F
:10EDD000504608F070F94FF0010901E04FF00009CA
:10EDE00004F16C0A504608F052FA804504D05046AF
:10EDF000414608F060F902E0B9F1000F02D0204668
:10EE000008F046F92046294632463B46BDE8F04721
:10EE1000FFF7B2BEF7B543680E881C88083E134B57
:10EE2000B6B20D462246B1F90210304600934FF6B5
:10EE30001E03FEF718FA36182046B5F9027007F0DF
:10EE400001FFB6B200903946234630464FF61E0207
:10EE5000FEF7ACFB064B30180093B5F902102246C2
:10EE60004FF61E0380B2FEF7FEF9FEBDAF24070881
:10EE70002125070844F644418A4201D108F062BBCB
:10EE800044F645418A4202D1012280F82020704791
:10EE900044F644439A4201D108F054BB44F645433A
:10EEA0009A4202D1642108F04FBA704770B504301D
:10EEB00092B00021FEF7A3F901252824681EFDF772
:10EEC00019FC0646D0B1284919F060F8034648B944
:10EED000264A04200092214648F210420195FEF78E
:10EEE00066FB16E0224B04200093214648F21042B4
:10EEF000002301950296FEF75AFB0AE01D4B042001
:10EF000000932146334648F210420195FEF74FFB2D
:10EF1000194E342205A8002118F034FF05AB06F184
:10EF20003002306871680836964203C3F9D13188DF
:10EF3000B27805AE19809A7030463B2118F0A0FFD8
:10EF400008B1002303700420002304F110014BF2E8
:10EF5000965200960135FEF729FBB82C01D03034CB
:10EF6000ACE712B070BD00BFFDBC06080CCF0608B0
:10EF70002DCF060852CF0608FECE060811F0010F6D
:10EF800070B504460D4616D0006A012103685B681F
:10EF9000984780B1206A00210368DB6898472046C3
:10EFA00007F0EBFF08F074F8E06847F27052C168B0
:10EFB000002308F078F815F0020F16D0206A01211E
:10EFC00003681B68984780B1206A002103689B682A
:10EFD0009847204607F0D1FF08F05AF8E06847F25A
:10EFE0007052C168002308F05EF815F00C0F13D0C2
:10EFF000204607F0C4FF294606462046FFF71CFAC4
:10F00000204607F0BCFF86420CD0204607F0B5FF33
:10F01000BDE8704008F03CB820462946BDE8704085
:10F02000FFF70ABA70BD000011F0100F70B504466A
:10F0300017D007F0A4FF18B90A483D21FEF7D6FA09
:10F04000204607F09AFF0546204607F098FF034642
:10F05000DB692046294646F26452BDE8704008F05C
:10F0600022B870BD73CF060801804280704710B58A
:10F070008380BDF8083001804280C38010BD00004D
:10F080007FB5DE2305460E46144600930021162266
:10F09000D33B02A8FFF7EBFF2846044944F00202E5
:10F0A00002AB009607F0B8FF7FBD00BF96CF060801
:10F0B0007FB5DE2305460E46144600930021162236
:10F0C000D33B02A8FFF7D3FF2846044944F00202CD
:10F0D00002AB009607F0A0FF7FBD00BFAACF0608D5
:10F0E0007FB5152305460E46144600930C211022C9
:10F0F00002A84FF49C73FFF7BAFF2846034944F077
:10F10000020202AB009607F087FF7FBDC2CF060860
:10F110007FB5F02305460E461446009300211022C9
:10F12000A03302A8FFF7A3FF2846044944F00202D7
:10F1300002AB009607F070FF7FBD00BFD5CF060879
:10F140007FB5F02305460E46144600930021102299
:10F15000A03302A8FFF78BFF2846044944F00202BF
:10F1600002AB009607F058FF7FBD00BFE1CF060855
:10F170007FB5F02305460E46144600930021102269
:10F18000A03302A8FFF773FF2846044944F00202A7
:10F1900002AB009607F040FF7FBD00BFF1CF06082D
:10F1A0007FB5F02305460E46144600930021102239
:10F1B000A03302A8FFF75BFF2846044944F002028F
:10F1C00002AB009607F028FF7FBD00BF01D0060804
:10F1D0007FB5F02305460E46144600930021102209
:10F1E000A03302A8FFF743FF2846044944F0120267
:10F1F00002AB009607F010FF7FBD00BF12D00608DB
:10F200007FB5F02305460E461446009300211022D8
:10F21000A03302A8FFF72BFF28460349224602AB82
:10F22000009607F0F9FE7FBD22D00608B0F9042051
:10F23000B0F90030D0184010704707B5B0F9003071
:10F24000B0F90410B0F90620C918B0F9023049101D
:10F25000D218521001A8FFF707FF019B00209AB2B5
:10F2600062F30F001B0C63F31F400EBD10B5048842
:10F27000091901804188521842808288D31A8380FC
:10F28000C288029BD31AC38010BD10B50488611ACE
:10F29000018041888A1A428082889B188380029A62
:10F2A000C388D318C38010BDB0F90420B0F9003072
:10F2B000D01A7047F0B587B004AC051D064695E836
:10F2C000030084E80300012100220B46204600923F
:10F2D000FFF7DBFF204648F21041FDF790FF94E86E
:10F2E0000300184B02AF1B6887E803002846B3F8F9
:10F2F0009E40FFF7D9FFBDF80A3004FB00F201334E
:10F30000ADF80A3004F59674BDF80E304443013B65
:10F31000ADF80E30B388384603EB223203EB2434C9
:10F32000BDF81430ADF80C40ADF8082024B21AB284
:10F330009442C8BFADF80C300021FDF760FF07B064
:10F34000F0BD00BFACA6002073B5051D002104462A
:10F350002846FDF754FF0F4B1B68B3F8AE60B3F8B7
:10F360009E30F61A36B2002E12DB2846FFF79CFFBD
:10F3700086420DDAB4F90400074B04380093B4F95F
:10F380000610801946F20C324FF61E03FDF76BFF94
:10F390007CBD00BFACA60020B623070830B5051D14
:10F3A00085B0044600212846FDF729FF394B80210E
:10F3B00000930420002348F21042FEF7D6F8364BA3
:10F3C00080210093354BA02001938B2302934BF2B5
:10F3D00096528B3BFEF7EBF8314B902100930420C3
:10F3E000002348F21042FEF7C0F82E4B9021009304
:10F3F000A02000234BF29652FEF7B7F82A4BA0212B
:10F4000000930420002348F21042FEF7AEF8274B89
:10F41000A0200093014600234BF29652FEF7A5F878
:10F42000234BB02100930420002348F21042FEF742
:10F430009CF8204BB0210093A0204BF29652002361
:10F44000FEF793F81C4BC02100930420002348F2E0
:10F450001042FEF78AF8194BC02100930423019350
:10F4600001330293033B03934BF29652023BA020DD
:10F47000FEF79DF82846FFF717FFB4F90610A0F530
:10F48000807000EBD0704010183105B0BDE83040FE
:10F49000FEF7D0BB2CD006083ED0060849D006089F
:10F4A0004DD0060857D006085FD0060869D0060878
:10F4B00076D0060886D006089BD00608ADD0060890
:10F4C000F7B5061D002105463046FDF798FE514B65
:10F4D000802148F21042009304200023FEF745F8F3
:10F4E000FEF794FB8021002300904BF29652A0205F
:10F4F000FEF73BF8484B902148F21042009304205D
:10F500000023FEF732F8FEF785FB902100230090E0
:10F510004BF29652A020FEF728F8404BA02148F26B
:10F520001042009304200023FEF71FF8FEF776FB3D
:10F530000090A020002301464BF29652FEF715F8EA
:10F54000374BB02148F21042009304200023FEF70D
:10F550000CF8FEF757FBB02100234BF296520090B7
:10F56000A020FEF702F8FEF75FFB2E4B0446009347
:10F5700004200023C02148F21042FDF7F6FF2A4B79
:10F580002A4F9C4204D02A4B9C4203D064B114E021
:10F59000284B00E0284B0093A020C0214BF296524C
:10F5A0000023FDF7E2FF11E0244BA0200093C021CF
:10F5B0004BF296522346FDF7D8FFA020C0214BF214
:10F5C0009652002300970194FDF7F1FF1C4BD021C8
:10F5D000009348F2104200230420FDF7C6FFFEF717
:10F5E00021FBD02101904BF296520023A0200097DE
:10F5F000FDF7DDFF3046FFF757FEB5F90610A0F521
:10F60000807000EBD0704010183103B0BDE8F040BE
:10F61000FEF710BBBAD00608CCD00608DCD006082E
:10F62000EAD00608F7D00608766761001BD1060805
:10F630002793040207D106080BD1060813D1060848
:10F6400020D10608B0F90620B0F90230D01A704770
:10F650000388CB1803808388C91843888180D31816
:10F660004380C388D218C280704700230380438040
:10F670008380C3807047B0F90420B0F900309A420B
:10F68000D4BF0020012070472DE9F04F00F126067D
:10F690008BB004463046FFF7EEFF0546002847D101
:10F6A00008AF04F1040898E8030087E8030001218B
:10F6B0000A460B4638460091FFF7E7FD38464BF205
:10F6C0009651FDF710FD29464046FDF798FD48F29A
:10F6D0001042ADF81650ADF81850ADF81A50ADF80C
:10F6E0001C50ADF814201935B4F90400B4F90A30EF
:10F6F00005AA2818009205220192043B421CB4F985
:10F7000006101935FCF764FDFA2DEDD1E13DB4F991
:10F71000061005AB6918009305230193B4F90400A2
:10F720004B1CB4F908201935FCF752FDC82DEED159
:10F73000236A002B00F0A780251D2846FFF7B4FDA3
:10F7400080462846FFF77EFFB4F90AA032380390BE
:10F750002046AAF1190A07F08BFC60B1216BA38C3B
:10F7600001FB08F198FBF3F202EBD27291FBF3F389
:10F7700003EB620301E06FF0130330460293FFF7DF
:10F780007AFF18B9E084A4F82A802BE0B4F90420A9
:10F79000B4F9263000259A42A8BF1346E384B4F991
:10F7A0000820B4F92A3001219A42B8BF1346638574
:10F7B0002A460B4630460095FFF758FD304629464D
:10F7C000FDF71DFD012130462A460B460095FFF747
:10F7D0005CFDB4F90410B4F90620304649425242A7
:10F7E000FFF736FF4FF00009E58CCB4644E0A28CD2
:10F7F000236A6A4392FBF8F233F81270B7F5805F20
:10F8000003D322485D21FDF7F1FE039AB4F92630B7
:10F81000574344BF07F57E671F373F13B4F90420F1
:10F82000BFB29D4208BFBB46AA184FF6FF730093B4
:10F83000501EC7EB0A03CBEB0A01FDF743FF029B07
:10F840009D4208BFB94603339D4212D1B4F904006A
:10F850000F4B626B0638AAF1040100934019C9EB03
:10F860000101082A14BF16221F224FF61E03FDF7BE
:10F87000FAFC0135ADB2BB46B4F92A309D42B6DB85
:10F880003046FFF7F2FE0BB0BDE8F08F2FD106082F
:10F890004931070813B50446B4F90220B0F9000055
:10F8A000B4F906300091114600F10C02FDF79CFD01
:10F8B000B4F90000B4F90210B4F90420B4F9063028
:10F8C00008304BF296540094FDF7DBFB1CBD37B5B6
:10F8D0000446B4F90250B0F90000B4F90420B4F9B8
:10F8E0000630023800912946FDF77EFDB4F900008C
:10F8F000B4F90210B4F90420B4F9063006304FF61A
:10F90000FF740131013A013B0094FDF76DFD3EBDEE
:10F9100007B50346B0F900000022B3F90210B3F9AD
:10F920000630009200F10802FDF7ABFB0EBD37B5C3
:10F930000446B0F90000B4F90210B4F9063000250D
:10F9400000F108020095FDF79CFBB4F90420B4F91E
:10F950000210B4F90630101F0095FDF792FB3EBD72
:10F96000436A37B504460BB11B880384204607F071
:10F970007FFB231D18B11846FFF7D9FF02E0184698
:10F98000FFF7C6FFA38820460433A38007F070FB6F
:10F990000546218C201D5DB1FFF799FFE369B3B1E6
:10F9A000B4F90400B4F9061000930C3000220AE008
:10F9B000FFF770FFE36953B1B4F90400B4F906101E
:10F9C00000930C302A464FF61E03FDF7CEFDA388A8
:10F9D000043BA3803EBD0000C36A2DE9F0431F79BC
:10F9E0005B79A7F10102574247EB020748F2104842
:10F9F000002F18BF4FF00008012B8BB0044608D031
:10FA000002D3022B0FD109E03A4B1B68B3F85030F8
:10FA100008E0384B1B68B3F8643003E0354B1B68D3
:10FA2000B3F8CE3103862046FFF79AFFE36AB4F9B4
:10FA300004909A79304BB4F9065053F8223009F10A
:10FA40000E0600933046294642464FF61E03FDF748
:10FA50008CFD002F4BD0E36A284A99799F6852F8B1
:10FA6000214038460021103518F096F868B1244B33
:10FA700030460093424629464FF61E03FDF7F3FB3E
:10FA800007F100428619174601E009F114063846CD
:10FA900017F0F8FA02460B4602A81A49FDF7C0FA19
:10FAA00005E00AAA02EB0903002203F8212C02AFA9
:10FAB000384618F0B7FB8146204618F0B3FB48449F
:10FAC0000728EED83046294642464FF61E030097D7
:10FAD000FDF76CFD5CB123784BB104363018294634
:10FAE00044F208224FF61E030094FDF73EFD0BB0D2
:10FAF000BDE8F083ACA600207CD80608E0D8060854
:10FB0000F33007085BD10608F0B5C669002585B05B
:10FB10000446C561FFF724FFE661231D02AE93E8AA
:10FB200003002A4686E803002B4630461021009544
:10FB3000FFF79CFBE3692A46BDF90A100093BDF963
:10FB400008004FF61E03FDF710FDBDF80A302046F1
:10FB50001033ADF80A3007F08BFA0246002837D090
:10FB6000BDF808701E4B083FBFB2BDF90A102A4607
:10FB7000009338B24FF61E03ADF80870FDF773FB23
:10FB80003818ADF80800E06A03685B699847BDF96A
:10FB90000A100746BDF9080001F10E033A18009556
:10FBA000FDF76FFAE06A3146036801221B69984746
:10FBB000BDF80830BDF90A10FF180A4B38B200939F
:10FBC0002A464FF61E03ADF80870FDF74CFB04E023
:10FBD000E06A314603681B69984705B0F0BD00BF75
:10FBE000AF24070821250708F0B5044685B0FFF7C4
:10FBF000B7FEB4F90450B4F90670E3691035009308
:10FC00002846394600224FF61E03FDF7AEFC20467B
:10FC100007F1100607F02CFA00282ED0234B3146AE
:10FC20000022009328464FF61E03FDF71CFB4519E2
:10FC3000E06A1E3703685B699847324643192946D4
:10FC400002A80097FFF713FA002102A8FDF7D7FAE0
:10FC5000E76A20463B681D6907F00AFA02A90246D6
:10FC60003846A847124BBDF90C00009331460022DC
:10FC70004FF61E03FDF7F7FA15E0E06A1E3703683A
:10FC80005B69984729464319324602A80097FFF757
:10FC9000EEF9E66A204633681D6907F0E9F902A922
:10FCA00002463046A84705B0F0BD00BFAF240708A4
:10FCB00021250708FFF754BE13B50446FFF750FE91
:10FCC000084BB4F904000093E36AB4F9061003EB9F
:10FCD000830301931C30103100224FF61E03FDF701
:10FCE00066FC1CBD9806070813B50446FFF738FEEE
:10FCF000084BB4F904000093E36AB4F9061003EB6F
:10FD0000830301931C30103100224FF61E03FDF7D0
:10FD10004EFC1CBD9806070813B50446FFF720FEED
:10FD200013F0F2FCB4F90430B4F90610054A01905E
:10FD3000009203F11C00103100224FF61E03FDF764
:10FD400036FC1CBD9806070873B50546FFF708FE8C
:10FD5000EB6AB5F90440B5F906601B690E34002260
:10FD6000009331464FF61E032046FDF7FEFBEB6A7B
:10FD700031461A79114B001953F8223000220093B2
:10FD80004FF61E03FDF7F1FBEB6A06F110011A793D
:10FD9000052A01D10A4A06E0042A03D0094A009242
:10FDA0009B6802E0084A0092DB680193204600222B
:10FDB0004FF61E03FDF7FBFB7CBD00BF88D906088C
:10FDC0005FD106089806070866D10608C36AF7B52A
:10FDD0001D79044648F21043002D0CBF1D46002536
:10FDE000FFF7BEFDB4F90470B4F906600C4B0E3792
:10FDF000009331462A4638464FF61E03FDF7B5FB01
:10FE0000E36A38461A79074B06F1100153F822309D
:10FE10002A4600934FF61E03FDF7A7FBFEBD00BF69
:10FE20006AD1060850D906087FB50646FFF798FD47
:10FE30000E4BF06A009317F0BDFC0D4917F0C2FDA0
:10FE40000C4917F003FC17F01DF9B6F90450B6F988
:10FE500006401C351034CDE9020100222846214617
:10FE60004FF61E03FDF7A3FB7FBD00BF74D106084C
:10FE7000000020410AD7233C73B5B0F90420B0F943
:10FE800006300E46B0F9021004464FF4E045101F4C
:10FE90000431043204330095FDF7A6FAB4F90630B4
:10FEA000B4F90000B4F90420191F043004320433FB
:10FEB0000095FDF799FAB4F90000B4F90210B4F90D
:10FEC000063000F10C020096FDF78EFAB4F900003E
:10FED000B4F90420B4F90210B4F906304BF2965587
:10FEE0000830043A0095FDF7CCF8B4F90420B4F9D1
:10FEF0000210B4F90630A2F108000095FDF774FA7B
:10FF00007CBD73B5B0F90420B0F906300E46B0F9E7
:10FF1000021004464FF4E045101F0431043204334C
:10FF20000095FDF761FAB4F90630B4F90000B4F9B0
:10FF30000420191F0430043204330095FDF754FAED
:10FF4000B4F90000B4F90210B4F90420B4F9063091
:10FF50000096FDF749FA7CBD30B5024685B00D46E6
:10FF60000068516802AB022403C302A80021FDF718
:10FF700077FA2246234602A821460094FFF776F935
:10FF800002A82946FDF76CFA02A821460E22234654
:10FF90000094FFF76BF902A84BF29651FDF760FA57
:10FFA00005B030BD73B50446051D218C2846FFF70A
:10FFB000D3FF2846FFF73AF9E5690646284618F0C8
:10FFC00031F9B4F90610C0B28000301A02310022B3
:10FFD0004FF61E030095FDF7C8FA7CBDF0B589B059
:10FFE000031D054604AC93E8030084E803001846AB
:10FFF000298CFFF7B1FF2046FFF718F9EE69074695
:020000040805ED
:10000000304618F00FF9BDF91210C0B2800002316D
:100010000022381A4FF61E030096FDF7A6FA1221A9
:1000200004230A46009320460B46FFF71FF9686A2F
:1000300018F0F8F807462046FFF7FFF8ADF808007B
:10004000C0F30F40ADF80A00029E20460796FFF766
:10005000F4F8ADF80800C0F30F40ADF80A000299BB
:100060006B6AFF0036B2A6EB67060691091400938F
:100070003046073900224FF61E03FDF776FA09B025
:10008000F0BDF0B585B0031D044602AD93E8030052
:1000900085E803001846218CFFF75EFF2846FFF72E
:1000A000C5F8E6690746304618F0BCF8BDF90A10F5
:1000B000C0B2800002310022381A4FF61E030096AB
:1000C000FDF753FA12210423009328460A460B46F3
:1000D000FFF7CCF8636ABDF90800BDF90A10009378
:1000E0000430043100224FF61E03FDF73EFA05B03E
:1000F000F0BD4BF29651FDF782B82DE9F041012198
:1001000004460026FDF78AF8D02514E0EB10DA0249
:100110004FEAA50842EA4818204648EA0308FFF7D4
:10012000C3F8074602E04046FDF782F8013FFAD2E5
:100130000D3DEDB201362046FFF784FA8642E5DB3D
:10014000BDE8F041FDF78EB810B5044606F090FF0B
:10015000231D20B91846BDE81040FFF7CABF184656
:10016000BDE81040FFF7C9BF2DE9FF47044606F080
:100170007FFF4FF6FF75002808BF00252046FFF7D8
:10018000E3FFE369B4F904002A46B4F906100093CA
:1001900004304FF61E03FDF7E8F9206A01210368D9
:1001A000B4F904805B6898478146206A012103689E
:1001B00008F178071B689847B9F1010F064607D187
:1001C000244BB4F90610009308F170002A460AE0A7
:1001D000B9F1000F0BD11F4BB4F90610009308F1D1
:1001E000700048F210424FF61E03FDF73CF8D4F8B9
:1001F00020A0231D93E803000DF10809DAF8003070
:1002000089E803002046D3F81080ADF80870ADF8F7
:100210000C7006F02DFF494602465046C047206A42
:1002200003685B699847012E384405D10A4BB4F93D
:10023000061000932A4606E04EB9074BB4F90610A3
:10024000009348F210424FF61E03FDF70CF8BDE88C
:10025000FF8700BF40210708B221070837B50546D0
:1002600006F006FF4FF6FF74002808BF002428465A
:10027000FFF76AFFEB69B5F904000093B5F90610C2
:10028000043022464FF61E03FDF76FF93EBD13B54D
:100290000446FFF759FFE369B4F904000093B4F989
:1002A0000610043000224FF61E03FDF75EF91CBD58
:1002B000F0B585B0044606F0DBFE4FF6FF7500286A
:1002C00008BF0025204606F0D3FE90B102AB221DE8
:1002D00092E8030083E80300BDF808201846083AB6
:1002E000ADF80820BDF80C200832ADF80C20FFF75F
:1002F00004FF204606F0BCFE58B1174BB4F90400C9
:100300000093B4F9061007382A464FF61E03FCF78F
:10031000AAFF276A20463B681E6906F0A9FE211D38
:1003200002463846B047206AA78803685B69984749
:100330000646204606F09CFE58B1084B3FB2781C9A
:100340000093B4F9061080192A464FF61E03FCF7F5
:100350008AFF05B0F0BD00BF40210708B2210708A1
:1003600038B54FF61F03994204460A4607D005697F
:1003700061698068E3682818C918FBF75BFF626948
:10038000236912F0010F07D0591E002921610BDAF1
:1003900001322361626138BDA069591C814221612B
:1003A00002DB01322361626138BD10B500231A46B9
:1003B000416811F8014B416004F07F019140073220
:1003C00014F0800F43EA0103F2D1184610BD38B58E
:1003D0004FF0FF3303600B780446472B0D461CD1CA
:1003E0008B1C4360FFF7E1FFA0612046FFF7DDFFB4
:1003F000E0616B78422B10D1234604F12000616844
:100400000A4612F8015B626049780132626041EA93
:1004100005221A8402338342F1D138BD03460068B5
:10042000B0F1FF3F06D15A6812F8010B18605A600C
:10043000001170474FF0FF3200F00F001A60704754
:1004400070B50024064625463046FFF7E7FFC0B2E8
:1004500000F00703AB40033510F0080F44EA030433
:10046000F2D1204670BD00002DE9F8434FF0FF3374
:1004700003600133036143618769C3690446816096
:10048000C260D0F804805F4301262FE0AEB1204661
:10049000FFF7D6FF451C2046FFF7C0FF0026814628
:1004A00007E009F11003204634F81310FFF758FF56
:1004B0000136AE42F5DB002612E02046FFF7AEFF24
:1004C000451C0AE02046FFF7A9FF00F1100334F8AD
:1004D00013102046FFF744FF0136AE42F2DB01263F
:1004E0007F1B03D504484821FDF780F8002FCDDCA1
:1004F000C4F80480BDE8F8837AD10608074A0848A2
:100500001168084B30B50468074DCB1805FB043360
:100510000131036058041160400C30BD00A600207A
:100520001C300020F390240021F17D0041627047CF
:1005300073B5044616460D4619B90C480D21FDF752
:1005400055F80B4B00211B682046B3F850300A4683
:100550002386E56202230096FEF7DDF8204604F1CB
:10056000300102B0BDE87040FFF7E0BF62CD060881
:10057000ACA6002073B5054616460C4619B90A48C4
:100580000C21FDF733F8EC62284634F8062F0021E1
:1005900002230096FEF7BFF82846214602B0BDE8C8
:1005A0007040FFF7C3BF00BFBBCD06082DE9F04187
:1005B0000C46154698460026A75B1FB94FF61F0349
:1005C000A3530DE0FA08294602F0FC02404606F06B
:1005D00091FCFA0AA0530021D20006F08BFCA05334
:1005E0000236202EE8D1BDE8F08110B592B0044665
:1005F00006F03EFD231D218C70B11846FFF781FCEB
:10060000616A21B302A8FFF7E2FE20460AA94EF272
:1006100010424FF6FF730DE01846FFF72DFC616A9C
:10062000A9B102A8FFF7D3FE20460AA94EF21C7218
:100630004BF29653FFF7BAFF089BB4F90810B4F9D0
:100640000A20C91A099B02A8D21AFFF70DFFE36915
:10065000B4F904000093B4F906100C3000224FF6F0
:100660001E03FCF782FF12B010BD4160826003736D
:100670007047000008B50379012B09D002D3022B83
:100680000FD10AE08368188800F01F00400808BDF9
:1006900083681888C0F3C31008BD83681888000BEE
:1006A00008BD03484FF48271FCF7A0FF002008BD8D
:1006B000E1CE060830B54FF6FF7585B00C46002A2E
:1006C00008BF0025FFF7D6FF06F0ACFA00238DF82F
:1006D0000D3003AB8DF80C000093B4F90000B4F9B1
:1006E00002102A464FF61E03FCF760FF05B030BD2E
:1006F000002908B50CDDFFF7BDFF0E288CBF0020D8
:10070000012008BDFFF7B6FF003818BF012008BD63
:10071000F8DB002008BD00000379012B12D002D3C2
:10072000022B2CD11DE08268138823F01F031B04C9
:100730001B0C0F2902D04900C9B200E01F2141EA79
:1007400003031AE08268138823F4FC631B041B0C68
:100750000F2902D08900C9B200E03F2143EA4113CA
:100760000BE0826813885B055B0D0F2902D04900FE
:10077000C9B200E01F2143EAC12313807047024839
:100780004FF48E71FCF732BFE1CE060810B5044677
:10079000FFF770FF30B1411EC9B22046BDE81040DE
:1007A000FFF7BABF10BD10B50446FFF763FF0E2870
:1007B00006D8411CC9B22046BDE81040FFF7ACBFC7
:1007C00010BDC8684042704710B5044606F098FD59
:1007D000014B2046236010BD38C00608014B036062
:1007E000704700BF80C0060810B50446FFF7F6FF4B
:1007F000014B2046236010BD58C0060810B50446C2
:10080000FFF7ECFF014B2046236010BD48C40608EB
:1008100010B5044606F074FD014B2046236010BD60
:10082000C8C0060810B50446FFF7F2FF014B20468A
:10083000236010BDA8C0060810B50446FFF7E8FF06
:10084000014B2046236010BD70C6060810B5044653
:1008500006F078FE2046BDE8104006F03DBEFFF7EA
:10086000F5BFFFF7F3BF000038B5184B1C6894F8CC
:10087000BC30052B11D1D4F8C400013016F09AFF1A
:100880000146134817F09EF80546D4F8C000013021
:1008900016F090FF0146284612E0D4F8D850002DFB
:1008A00011DDD4F8C400013016F084FF0146094878
:1008B00017F088F80446284616F07CFF01462046CB
:1008C00017F080F838BD002038BD00BFACA600206E
:1008D0004054894C00BA5B4A37B50446FFF740F8EC
:1008E0002046FFF7C1FF17F07FF916F063FF0821DC
:1008F000B4F90450B4F9064006F0EAF91C35103496
:1009000000902146284600224FF61E03FCF74EFEBB
:100910003EBD0000F8B5284B0D461C6894F8BC603D
:10092000D4F8D870052E1AD10846244917F03EF99C
:1009300068B92846224917F039F950B928462149A3
:1009400017F034F9002814BF1220012002E0F02033
:1009500000E0B420431EC4F8C030012700E014209A
:1009600016F028FF294616F079FF0546384616F09E
:1009700021FF0146284616F071FF0146124817F084
:1009800021F817F031F901380128ACBF03460123E3
:10099000052E03D10828ACBF03460823D4F8C45061
:1009A000D4F8D4005D1B18BF0125C4F8C43012F080
:1009B000B9FE2846F8BD00BFACA6002000002041CB
:1009C0000000FA4400409C464054894C2DE9F04711
:1009D00011F0010904460D4603D111F0020F00F099
:1009E000DA802046FFF740FF00210646012717F076
:1009F000E7F800B9002717F0FF0F03D1684823215B
:100A0000FCF7F4FD3046674917F0D0F8E8B93046F6
:100A1000654917F0CBF8D8B93046644917F0C6F8E5
:100A2000C0B93046624917F0C1F8A8B930466149EB
:100A300017F0BCF890B930465F4917F0B7F878B9AD
:100A400030465E4917F0B2F860B94FF07E570AE0C1
:100A50005B4F08E0534F06E0534F04E0534F02E072
:100A6000534F00E0534FB9F1000F11D030463946D3
:100A700017F0B0F828B13046394616F0E5FD80464B
:100A800000E0B0464046002117F090F810B903E0AE
:100A9000B04601E04FF07E5815F0020F10D04046EE
:100AA000484917F079F820B14046394616F0CEFD96
:100AB00080464046002117F079F808B14FF07E5883
:100AC0003946404616F07EFF17F08EF816F072FE9B
:100AD000394616F0C3FE4FF07E51074617F05CF81A
:100AE00008B14FF07E573846314617F04BF80028D2
:100AF0004FD139462046FFF70DFF80462046FFF7CD
:100B0000B3FE31468246384617F064F838B1504695
:100B1000314617F04BF8002818BF4FF00008384650
:100B2000314617F039F820B15046314617F048F8F1
:100B300010B9B8F1000F22D1234BB9F1000F07D043
:100B40001B68D3F8C410B1F5803F18DA013105E015
:100B50001B68D3F8C410012911DD013993F8BC20BA
:100B6000C3F8C410052A89B206D1B3F8C000B3F89F
:100B7000C820FCF741FF02E00846FCF77DFF204655
:100B800006F086FA2046E16846F67512002306F064
:100B90008AFA20462946BDE8F047FDF793BB00BF1F
:100BA00092D106080000C84200007A4400401C466A
:100BB0000050C347002474498096184B20BCBE4C9B
:100BC000000020418096984BACA6002000230360D3
:100BD00043608360704710B50446FFF7F7FF204677
:100BE00010BD836830B5456803B985608368DC2231
:100BF0005343B83A02FB0533002BB8BFFF331A1238
:100C00008260046805B944604368DC256B43B83DE5
:100C100005FB0433002BB8BFFF331B1243600CB934
:100C20000B0203600368DC2463434FF4105404FB9D
:100C300001310029B8BFFF3109120160101EB8BF91
:100C4000FF30001230BD0000F0B585B0FBF784FF27
:100C50000746FBF79DFF6B4C0646236813F0010F18
:100C600004D16948FFF7B7FF01232360394666487E
:100C7000FFF7B7FF654D04467021F0204BF2965206
:100C8000002300950197FCF792FC002C40D04BF21A
:100C9000965200238021F02001940095FCF787FCF8
:100CA000A4F50660193816F085FD594916F0D6FDF1
:100CB000584916F087FE0146574816F0C5FC574BB9
:100CC00057490093044616F0C1FC16F0DBF94BF2CD
:100CD0009652CDE9020100239021F020FCF767FC39
:100CE0005049204616F0BAFD4F4B4FF08441009317
:100CF00016F0ACFC4A4916F0A9FC16F0C3F94BF209
:100D00009652CDE902010023F020A021FCF74FFC10
:100D1000464C236813F0010F04D14548FFF75BFFF1
:100D20000123236031464248FFF75BFF414D0446F3
:100D3000C021F0204BF29652002300950196FCF75B
:100D400036FC0CB34BF29652D0210023F0200095D4
:100D50000194FCF72CFC384B2046009316F02AFD3A
:100D6000364916F07BFD364916F02CFE2C4916F05C
:100D70006DFC16F087F94BF29652CDE90201002383
:100D8000F020E021FCF713FC00210620FBF7EFFC2C
:100D9000002105460520FBF7EAFC2A4B04462846BD
:100DA000009316F007FD284916F058FD16F06AF971
:100DB000264E274DCDE9020100234021F0204BF2C1
:100DC0009652FCF7F4FB002C0CBF33462B46214C0B
:100DD000502101934BF296520023F0200094FCF72F
:100DE000E6FBFBF7F1FE3021002808BF35464BF249
:100DF0009652F020002300940195FCF7D8FB05B033
:100E0000F0BD00BFE0A50020F4A50020E3440708E2
:100E1000CCCC90410000CA42CDCC4C40F6D2060862
:100E20000AD7A33B6666E63FC9D10608E4A50020C1
:100E3000E8A500208FE80608D2D1060833333340F6
:100E40000080DB44DAD106086F12833AC6D1060867
:100E5000C2D10608C1D3060810B5054C2368586AEC
:100E6000FBF738FC2368986ABDE81040FBF739BCF3
:100E7000ACA6002010B5054C890023685962FFF725
:100E8000EBFF2068BDE8104004F0C8BDACA6002010
:100E900010B5074C890023689962FFF7DDFF6420D5
:100EA000FBF74FF92068BDE8104004F0B7BD00BF64
:100EB000ACA600202DE9FF41044606F0D9F84BF21C
:100EC0009655B4F90A204FF6FF73002818BF1D4647
:100ED000B4F90410B4F90830101F083B0C3A009024
:100EE000123102A8FEF7C3F802A844F20821FCF769
:100EF00086F902210A460B4602A80091FEF7B6F9D0
:100F000002A8FEF7D1F923688046DB69204698479E
:100F1000236807469B6A20469847236806465B6A13
:100F200020469847A8F1100807FB08F7361ABDF8C5
:100F3000083097FBF6F7FF18BFB2ADF8087002A8AB
:100F400010372946ADF80C70FCF759F9BDE8FF8160
:100F5000036870B5DB690E460446984716F0010F2A
:100F600005460DD0236820465B6A9847854207DD19
:100F7000236820461B6A691E98472046FFF79AFFA0
:100F800016F0020F0DD0236820469B6A98478542D1
:100F900007DA236820461B6A691C98472046FFF73A
:100FA00089FF20463146BDE87040FDF78BB910B58A
:100FB0000446FEF7D5FC2046BDE81040FFF77ABF97
:100FC000014B18682C307047ACA6002008B5FFF71D
:100FD000F7FF0368013B036008BD08B5FFF7F0FFAA
:100FE00003680133036008BD38B504460D46FFF7BA
:100FF000E7FF006863682D189D4205DBA068854205
:10100000CCBF0020012038BD002038BD4160826087
:101010007047000010B5FFF7D3FF006838B100B289
:1010200005F0CCFD0349044616F006FF00E0024C33
:10103000204610BDE7D10608E1D1060808B5FFF744
:10104000E9FF17F0EFF8C3004FF6F87003EA00006D
:1010500008BD73B54FF6FF740E88002A08BF002440
:10106000B1F90250FFF7D6FF2946009022463046DC
:101070004FF61E03FCF779FA7CBD2DE9F04100F133
:10108000300405460F461646204600210F22DDF8A3
:101090001880FFF7BBFF284621463A463346CDF875
:1010A0001880BDE8F041FDF76FBB00007FB50E462C
:1010B000F0233C210446154600930A46283302A833
:1010C000FDF7D5FF20462A4602AB1049009605F0F1
:1010D000A3FF04F1200002230D4948F210420094BE
:1010E000FDF74FFB04F14C0002230A4948F210427D
:1010F0000094FDF746FB04F17800074948F21042DE
:1011000002230094FFF7B9FF7FBD00BFEDD10608B1
:10111000C2EB0608D0EB0608FED106080A4B73B5F1
:101120001A6800F1300405460E46204608320123B5
:101130000649FFF79AFA28462146054A48F2104325
:101140000096FDF721FB7CBDACA6002014DA060852
:1011500011D206084160704710B504460BF094FBAD
:1011600063681B68002B04DA094ADB4352F823004A
:1011700010BD0C2202FB030002780AB9406810BDC2
:10118000013B0C38B3F1FF3FF6D1002010BD00BF8A
:101190001CDA0608436810B51C68002C06DB0BF04F
:1011A00073FB0C2303FB0404606810BD002010BD1A
:1011B00038B50446FFF7D0FF05462046FFF7EAFFA3
:1011C00004461DB1284617F02DF805461CB12046EF
:1011D00017F028F800E02046451904B10235ED006B
:1011E0004FF6F87005EA000038BD00002DE9F34124
:1011F0004FF6FF7607460C46002A08BF00260D88EA
:10120000FFF7AAFF80463846FFF7C4FF0746B8F14C
:10121000000F0BD02846B4F9021032464FF61E03D9
:10122000CDF80080FCF7A1F92D18ADB2B7B10C4B89
:101230000435ADB2B4F902100093284632464FF699
:101240001E03FCF792F904352818B4F9021080B295
:1012500032464FF61E030097FCF787F9BDE8FC8184
:101260001ED2060838B50C4615460BF00DFB2B199F
:1012700005D5124A13F1050FB8BF13461BE0002D28
:101280004FF00C020BDD631C02FB040402E00C3483
:101290008AB90133227B022AF9D1084B0BE0631E85
:1012A00002FB040403E014F80C2D22B9013B002BCF
:1012B000F9DA4FF0FF33184638BD00BF19FCFFFFC5
:1012C00010B544684FF0FF322168FFF7CBFF206074
:1012D00010BD10B5446801222168FFF7C3FF2060EC
:1012E00010BD000008B543680A461968FFF7BAFF49
:1012F000024BC01A18BF012008BD00BF19FCFFFF38
:1013000007B5009111461A4648F21043FDF73CFA22
:101310000EBD00007FB51546F023282204460E4678
:1013200000933C219B1802A8FDF7A1FE2A4602ABC0
:10133000214D20462149009605F06EFE04F1200063
:101340002146FFF7EBFE296804F1600630460C31B8
:10135000FFF700FF324604F168002146184BFFF703
:10136000CFFF296804F1980630461031FFF7F2FEEE
:10137000324604F1A0002146124BFFF7C1FF296855
:1013800004F1D00630461431FFF7E4FE324604F192
:10139000D80021460C4BFFF7B3FF296804F584768B
:1013A00030461831FFF7D6FE04F5887021463246E4
:1013B000064BFFF7A5FF7FBDACA6002020D2060894
:1013C00034D2060842D2060852D206085CD2060879
:1013D00010B5044605F094FF014B2046236010BD74
:1013E000F0BF060810B50446FFF7F2FF014B204698
:1013F000236010BD48C6060810B50446FFF7EEF995
:10140000014B2046236010BD90C6060810B5044667
:10141000FFF7FEF9014B2046236010BDD8C6060831
:1014200070B50546FFF7F4F9064B2C4644F8203B0F
:1014300005F1B00620462434FFF7E8FFB442F9D1A5
:10144000284670BDB8C6060810B50446FFF7C6F9B1
:10145000014B2046236010BDF8C6060810B50446AF
:10146000FFF7B2F9214B204640F8243BFFF7E4F99F
:1014700004F14400FFF7E0F904F16400FFF7DCF940
:1014800004F18400FFF7D8F904F1A400FFF7B4FFDA
:1014900004F1B000FFF7B0FF04F1BC00FFF7ACFFB0
:1014A00004F1C800FFF7A8FF04F1D400FFF7B8FF6C
:1014B00004F5C270FFF7A0FF04F5C870FFF79CFFAA
:1014C00004F5CE70FFF798FF04F5D470FFF794FF92
:1014D00004F5DA70FFF7A4FF04F51970FFF7B4FF05
:1014E00004F51B70FFF79EF9204610BD3002070877
:1014F00010B50446FFF78CF9014B2046236010BD60
:1015000020C7060810B50446FFF75EF92D4B2046AC
:1015100040F8643BFFF7ECFF04F18400FFF7E8FFBD
:1015200004F1A400FFF7E4FF04F1C400FFF784F91D
:1015300004F1E400FFF780F904F58270FFF77CF90D
:1015400004F59270FFF778F904F5A270FFF774F9CB
:1015500004F5B270FFF770F904F5C270FFF744F9B3
:1015600004F5CA70FFF75EF904F5DC70FFF73CF98B
:1015700004F5E470FFF756F904F5F670FFF764FF21
:1015800004F5FA70FFF74EF904F50670FFF75CFFFB
:1015900004F50870FFF746F904F51170FFF72CFF0A
:1015A00004F51470FFF728FF04F51770FFF724FF08
:1015B00004F51A70FFF720FF04F51D70FFF730FFE8
:1015C000204610BD5801070810B5044605F098FEE6
:1015D000114B204640F8203BFFF704FF04F1500078
:1015E000FFF7F6FE04F17C00FFF7F2FE04F1A8001D
:1015F000FFF7EEFE04F1D400FFF7EAFE04F5807079
:10160000FFF7E6FE04F59670FFF728FF04F571700A
:10161000FFF778FF204610BD8802070870B5044622
:101620000D46164605F06CFE024B2562236066628D
:10163000204670BDA00A070870B504460D46164640
:1016400005F05EFE024B256223606662204670BD97
:10165000800A070870B504460D46164605F050FE90
:10166000034BED00F600236025626662204670BDE4
:10167000600A070810B5202132220446FFF7CEFF8A
:10168000014B2046236010BD48BF0608202110B53D
:101690000A460446FFF7C2FF014B2046236010BDF7
:1016A00068BF060810B5202107220446FFF7C4FFD3
:1016B000014B2046236010BD88BF060810B52021CD
:1016C00010220446FFF7C6FF014B2046236010BDE1
:1016D000A8BF0608C8228260503AC260793A026107
:1016E00042610132027642768276704710B5044636
:1016F00005F006FE034B204623604FF0FF332362C4
:10170000636210BDC0C7060830B587B0044606F056
:10171000E5FB002838D11D4B03AD93E807000C33DF
:1017200085E8070093E80700236A6D46B3F1FF3FA1
:1017300085E8070002D1039B60622362FEF7DEFEAC
:10174000032290FBF2F202EB420206A9821A01EB9D
:1017500082020346216A52F80C0C9B00401800EBF1
:10176000D0704010206252F8181C626A891801EB90
:10177000D1714FF6FC72491003EA0202616207B0B0
:10178000BDE83040FAF756BD07B030BD30C8060896
:1017900047F269439A4201D1FFF7B6BF704710B5CF
:1017A00001704270837010BD02EBD27310B55B10F4
:1017B000192404FB030312F0010F0B4493F83C00BF
:1017C00001D0000910BD00F00F0010BD30B502EBD4
:1017D000D2746410192505FB0414041912F0010FCA
:1017E00094F83C2015BF02F00F0222F00F0242EAEB
:1017F0000313134384F83C3030BD73B50646FEF73F
:101800007DFE1923B0FBF3F505FB1305FEF776FE0D
:101810000E23B0FBF3F404FB1304294630462246A2
:10182000FFF7C2FF0128EAD13046294622460223AB
:10183000FFF7CCFFE2B2002301A8E9B2FFF7AFFF48
:10184000019B00201A0CDBB263F307009DF8053002
:1018500063F30F20D3B263F317407CBDF8B5144B8C
:101860004FF4AF76074606FB013600251CE0335DDA
:10187000202B02D0232B0CD104E0384621462A46E7
:10188000012303E0384621462A460023FFF79EFF46
:1018900003E00848F721FBF7A9FE0134192CE6D133
:1018A000013519360E2D01D00024E0E7F8BD00BF48
:1018B00048C8060866D20608002370B50446C3620D
:1018C000FEF71CFE1923B0FBF3F202FB1303636265
:1018D000FEF714FE0E23B0FBF3F505FB1305666A55
:1018E000A562204631462A46FFF75EFF0128E7D170
:1018F000204631462A460523BDE87040FFF766BF03
:101900002DE9F0474FEA41180F242FE0032B03D8AD
:10191000DFE803F005090C0F00252E460BE0C0F1AF
:101920000F063D4607E02646054604E025460646E6
:1019300001E005463E46134946EA05154AEA4006D7
:1019400001EB8606D6F8786146FA09FC1CF00F0C0C
