:020000040800F2
:10C0000000000120A5200108D91E0108DB1E01083F
:10C01000DD1E0108DF1E0108E11E0108000000000E
:10C02000000000000000000000000000E51E010804
:10C03000E31E010800000000E71E0108E91E0108D8
:10C04000EB1E0108ED1E0108EF1E0108F11E01089C
:10C05000F31E0108F51E0108F71E0108F91E01086C
:10C06000FB1E0108FD1E0108FF1E0108011F01083B
:10C07000031F0108051F0108071F0108091F010808
:10C080000B1F01080D1F01080F1F0108111F0108D8
:10C09000151F0108191F01081B1F01081D1F01089A
:10C0A0001F1F0108211F0108231F0108251F010868
:10C0B000271F0108291F01081D2001081F20010852
:10C0C000212001082320010825200108272001083C
:10C0D000292001082B200108392001083B200108F4
:10C0E0003D2001083F2001084120010843200108AC
:10C0F0004520010847200108492001084B2001087C
:10C100004D2001084F20010851200108532001084B
:10C110005520010857200108592001085B2001081B
:10C120005D2001085F2001086120010863200108EB
:10C1300020B10368197003680133036070472DE96B
:10C14000F041161E04460D4614DD002200E00132C7
:10C15000A95C0029FBD1B24203F00208B4BFC2EBD4
:10C1600006060E46B8F1000F0CBF4FF020084FF046
:10C17000300801E04FF0200813F0010709D105E075
:10C1800020464146FFF7D4FF0137013E002EF7DC81
:10C1900005E0002703E02046FFF7CAFF013715F846
:10C1A000011B0029F7D105E020464146FFF7C0FFFB
:10C1B0000137013E002EF7DC3846BDE8F0812DE95D
:10C1C000FF410A9F05460B9EDDF830C08E4651B9EF
:10C1D00030238DF804308DF805103A4601A9334616
:10C1E000FFF7ADFF3CE03BB10A2A07D1002905DA91
:10C1F000C1F1000E012402E01C4600E0002404A965
:10C20000002301F8013D0EE0BEFBF2F302FB13EE4A
:10C21000BEF1090FC4BFACF13A0086440EF1300EF6
:10C2200001F801ED9E468846BEF1000FECD184B1C5
:10C230004FB116F0020F06D028462D21FFF778FFE8
:10C24000013F012405E02D2301F1FF3801F8013CF5
:10C250000024284641463A463346FFF770FF00194E
:10C2600004B0BDE8F0812DE9F0478AB006460D46DE
:10C2700005920024DBE0252B40F0D38015F8013F28
:10C28000002B00F0D880252B00F0CB802D2B02D185
:10C2900001352C3B03E0002301E043F00203294673
:10C2A00015F8012B302AF8D0002702E00A2202FB01
:10C2B00007070A780D46A2F130005FFA80FC0131D1
:10C2C000BCF1090FF2D9732A09D1059A3046111D24
:10C2D000059111685C4A002908BF11469DE0642A57
:10C2E0000ED1059A01936123111D029300970591C8
:10C2F00030461168603B0A22FFF761FF241895E081
:10C30000662A54D1059B073323F0070303F1080283
:10C31000D3E90001059216F005FF0021804617F0D1
:10C32000FDF938B12D238DF8183008F100480DF1D2
:10C33000190A01E00DF1180A404617F017FA012317
:10C3400000E013460A225A439042FADA90FBF3F2D5
:10C3500002F1300103FB12000A2293FBF2F30AF808
:10C36000011B002BF2D124328AF80020002F08BFD5
:10C3700003279946404617F0F9F916F0DDFF01460C
:10C38000404616F023FF314917F02AF8804617F08F
:10C39000EDF909F101093030B9450AF8010FE9DB7F
:10C3A00000228AF80120304606A9202336E0782AA8
:10C3B0000AD1059A01936123111D009702930591FB
:10C3C00030461168102219E0582A0BD1059A0193C2
:10C3D0004123111D02930097059130461168413B9E
:10C3E000102289E7752A0BD1059A01936123111D4B
:10C3F000009702930591304611680A22613B7BE762
:10C40000632A13D1059A3046111D126805918DF8E3
:10C41000242000228DF8252009A93A46FFF78FFE37
:10C420006CE730462978FFF783FE013401352B781D
:10C43000002B7FF420AF16B1336800221A7020461B
:10C440000AB0BDE8F08700BF906C020800002041F0
:10C45000014B1868704700BFD4A10020034B18801F
:10C460001A8892B2002AFBD1704700BFE0A10020D9
:10C47000044B10B5196804460320F7F7E7FE024B9A
:10C480001C8010BD00300020E2A1002030B5002348
:10C4900008E00A24B0FBF4F104FB11003030D05462
:10C4A000013388B2084A0028F3D1D0545910013B17
:10C4B000D31804E0145C5D7815545C700130013BC6
:10C4C0008842F7DB004830BD5032002008B5062016
:10C4D0000021F7F7BFFE5A234343A3F58223A3F5B8
:10C4E0006B6340F2145093FBF0F00A306428A8BF4D
:10C4F000642020EAE07008BD0128ACBF014601219C
:10C500000220F7F7A3BE00EBD070024B401018607A
:10C51000704700BF00300020052810B507D8044B35
:10C5200053F8200018B1046805F088FCA04710BD3E
:10C53000B85D0208C0B2F7F789BE47F26623984299
:10C5400001D1F7F777BEC0B2F7F784BE024B0E22D7
:10C5500002FB0030704700BFD05D0208034B18801B
:10C560001A8892B2002AFBD1704700BFE0A10020D8
:10C57000044A4FF4805313604FF0C0421080024AC7
:10C5800013607047141401401014014010B5EF20DF
:10C59000FFF7EEFF4FF0C0431A881C8818881A88EE
:10C5A0001988C3B2C9B241EA046141EA03431206E1
:10C5B00043EA1242014B9A6010BD00BF5032002086
:10C5C000054B4FF480521A604FF0C0431880034867
:10C5D00002601980704700BF14140140101401401C
:10C5E0002DE9F041E9204FF0C044FFF7C1FF2022C0
:10C5F00022801120FFF7BCFF6420FFF7AFFFD1209E
:10C60000FFF7B6FF002517225E232580D020238068
:10C610002280FFF7ADFF0C260723238036202380DE
:10C620004FF040082680FFF7A3FF3046A4F80080B3
:10C630004936FFF79DFF26803A20FFF799FF2680B5
:10C64000C120FFF795FF533E10232380C020238095
:10C6500026802680FFF78CFF012735232580C52003
:10C6600023802580258027802680FFF781FF278073
:10C67000D220FFF77DFF22232780C8202380FFF7E9
:10C6800077FF7322372327802280238004220F2301
:10C6900025802380268022806722A4F800802280C3
:10C6A0002580802226802380082323802920228041
:10C6B0002580FFF75DFF2C20BDE8F04158E7002002
:10C6C00008B50146FFF77CFF00200146FFF778FF21
:10C6D00000200146FFF774FF00200146FFF770FFBE
:10C6E0000A20FFF73BFF01214FF4C060FFF768FF0E
:10C6F0000A20FFF733FF40214FF4DE60FFF760FFB1
:10C700000A20FFF72BFF4FF480604FF4C441FFF77E
:10C7100057FF082040F60801FFF752FF01204FF4B1
:10C720008071FFF74DFF02204FF48071FFF748FF43
:10C7300003203021FFF744FF09200121FFF740FFCC
:10C740000C200021FFF73CFF90204FF40041FFF741
:10C7500037FF0F200021FFF733FF10201621FFF7CE
:10C760002FFF112040F20111FFF72AFF12200021B4
:10C77000FFF726FF13200121FFF722FF4FF48070FF
:10C780004FF44C71FFF71CFF40F2011040F23721CB
:10C79000FFF716FF40F203104FF47061FFF710FF30
:10C7A0004FF420704FF4D641FFF70AFF4CF2B0115E
:10C7B0004FF48170FFF704FF6420FFF7CFFE4FF4C2
:10C7C00040704FF44061FFF7FBFE40F2013045F648
:10C7D0000B21FFF7F5FE40F2023040F60611FFF79D
:10C7E000EFFE40F2033041F21701FFF7E9FE4FF48C
:10C7F00041704FF40C51FFF7E3FE40F205304FF467
:10C80000B851FFF7DDFE40F2063046F20931FFF77E
:10C81000D7FE40F2073040F60941FFF7D1FE4FF452
:10C82000427041F20C01FFF7CBFE40F2093042F2B8
:10C830003221FFF7C5FE4FF404700021FFF7C0FE60
:10C8400040F21120EF21FFF7BBFE40F21220002141
:10C85000FFF7B6FE40F2132040F28F11FFF7B0FE53
:10C860004FF4A0600021FFF7ABFE40F20150002121
:10C87000FFF7A6FE40F202500521FFF7A1FE40F2AD
:10C8800001400121FFF79CFE002140F20440FFF728
:10C8900097FE6420FFF762FE4FF480710720FFF7D8
:10C8A0008FFE6420FFF75AFE4FF400700021FFF75F
:10C8B00087FE002140F20120FFF782FE054A4FF477
:10C8C0008053136040F202214FF0C0421180024AAF
:10C8D000136008BD141401401014014070B5104CD1
:10C8E0004FF480534FF40065236001202560FFF76B
:10C8F00035FE0C4B0A201D60FFF730FE322025600C
:10C90000FFF72CFEFFF742FE074B9A68074B9A424F
:10C9100002D1BDE8704063E6BDE87040CFE600BFDD
:10C9200010140140141401405032002027930402D7
:10C930000B4B10B59A680B4B4FF0C0449A4209D18B
:10C940002E20FFF715FE238824882C20A4B2FFF7A1
:10C950000FFE02E023882488A4B2204610BD00BF49
:10C9600050320020279304020EB403B503AA52F8F4
:10C97000041B019001A80092FFF775FCBDE80C4074
:10C9800003B07047AAE713B502AC24F8020D0020EB
:10C990000146F7F73BFC20464BF68031F7F744FCA5
:10C9A000F7F73EFC20464BF68031F7F73DFCF7F7F2
:10C9B00037FC1CBDC1F1EF0110B580B289B214463D
:10C9C000F7F724FC2046BDE81040F7F721BCC1F181
:10C9D000EF0110B580B289B2F7F718FCBDE810403E
:10C9E000F7F742BC38B5151A5C1A6C434BF67F3525
:10C9F000AC4280B202F1FF35C3F1F0020FD9C1F1B0
:10CA0000EF0392B2A9B29BB26508F7F707FC04A83E
:10CA1000A9B2F7F709FC641BF7F702FC06E0C1F1C5
:10CA2000EF0392B2A9B29BB2F7F7F8FB04A8A1B248
:10CA3000F7F7FAFBF7F7F4FB002040F28F110246FC
:10CA4000EF23F7F7EBFB38BD37B50D46B0F9021011
:10CA500004464B1CB0F90000B4F904200095FFF720
:10CA6000C1FFB4F90630B4F90000591EB4F904202E
:10CA70000095FFF7B7FFB4F90000B4F90210421CAB
:10CA8000B4F906300095FFF7ADFFB4F90420B4F90E
:10CA90000210B4F90630501E0095FFF7A3FF3EBD0B
:10CAA0002DE9F14F0A9C1E460B9B88461746511EE6
:10CAB00004EB4309C6F1F002C8F1EF03054689B261
:10CAC00080B292B29BB2F7F7A9FBA2460CE03AF80B
:10CAD000020BF7F79DFBCA4508BFA2460BF1010BFD
:10CAE000BB45F4DB08F10108B04501DAAB46F7E7D6
:10CAF000002040F28F110246EF2301B0BDE8F04F55
:10CB0000F7F78CBB2DE9F843B0F80080044689465E
:10CB10001FFA88F7002614E0B4F9065009E0C5F1C1
:10CB2000EF01384689B2F7F771FBFFF701FF29F8EB
:10CB3000020BB4F90230013D9D42F0DA01370136B3
:10CB4000BFB20FFA88F2B4F90430B2189A42E3DBAC
:10CB5000BDE8F8832DE9F047C28843880D468188F7
:10CB6000C2F1F0020139C3F1EF03044689B2008833
:10CB700092B29BB2F7F752FB0026B4F8028010E0A5
:10CB8000B4F80090002703E035F8020BF7F740FBFC
:10CB90000FFA89F2B4F90430BA1801379A42F3DB7C
:10CBA00001360FFA88F2B4F90630B2189A42E7DB80
:10CBB000002040F28F110246EF23BDE8F047F7F75F
:10CBC0002DBB13B50346B3F90240B3F90420B0F905
:10CBD0000000B3F9063000912146FFF703FF1CBDAA
:10CBE0000268034BDA6042681A6102685A61704752
:10CBF0005032002010B50B4C0246B4F91610B4F9AF
:10CC00001400FFF7D7FEA38AB4F910200133A382E2
:10CC10001BB29A4204DCA389A382E38A0133E38234
:10CC200010BD00BF5032002070472DE9F74F9946E4
:10CC30000C9B0191924613F801BB054600241DE0B0
:10CC400018F8013BFBB113F0040F4FF61E0305D09B
:10CC50009A450AD028463146524604E0994504D008
:10CC6000284631464A46FFF7A5FE013701365F45A3
:10CC70004346E5DB01340135502C03D0019E984634
:10CC80000027F4E708242046BDE8FE8F2DE9F04197
:10CC90001E460F46B6B2C7F1F00714460546F7F731
:10CCA000C5FAB91BA8B289B2F7F7B0FA20463146E7
:10CCB000F7F7B8FABDE8F041F7F7B2BA30F003037E
:10CCC00009D131F0030208D140EA81000449091872
:10CCD00091F8180E7047002070471846704700BF43
:10CCE000B85D02082DE9F04F85B004469A469DF8DC
:10CCF00039009DF838300D4616469DF83AB002903E
:10CD00000393274645E0C5EB0A01701E0139C01B9D
:10CD10003B1BC8EB01019842A8BF18464145A8BF7C
:10CD20004146FFF7CBFF68BBC9F1EF0189B2B8B24A
:10CD3000F7F76CFAF7F798FA1A4BC10001F0FF0108
:10CD4000C208000A00EA0303C1EB0B000190DDF802
:10CD500008C0039802F0FC02C2EB0C0EC3EB000CFF
:10CD600003EB6C03DDF804C0DB1001EB6C00C010BA
:10CD700040EAC32302EB6E00801043EA401080B209
:10CD8000F7F746FA09F1010908F10108D145BADBC4
:10CD90000137B74203DAA9464FF00008F6E705B0BD
:10CDA000BDE8F08FF8FF07002DE9F74F06468A46E9
:10CDB00015461C46BDF830B088462DE00AF1030345
:10CDC000984509D1E71E414630462A463B46CDF8F4
:10CDD00000B0FFF707FEB846B146002718E0A81BD1
:10CDE0000138611EC01BC8EB0101CAEB0803B84241
:10CDF000A8BF38469942A8BF1946FFF75FFF20B980
:10CE0000484641465A46FFF7D5FD09F10109013769
:10CE1000A945E4DB08F10108A045CFDBBDE8FE8FA2
:10CE200013B50346B3F90240B3F90420B0F900008A
:10CE3000B3F9063000912146FFF7B6FF1CBD2DE97E
:10CE4000F74F01909DF830001F460D469246FFF7C0
:10CE50007DFB4FF61E039F4283461DD100241BF825
:10CE60000480019F6FEA08085FFA88F8082618F026
:10CE7000800F04D0384661195246FFF79BFD013EF2
:10CE8000F6B2013726B14FEA48085FFA88F8EEE7B4
:10CE900001340E2CE3D145E09A451FD100241BF844
:10CEA0000490DDF804806FEA09095FFA89F9082621
:10CEB00019F0800F04D1404661193A46FFF77AFD18
:10CEC000013EF6B208F1010826B14FEA49095FFABE
:10CED00089F9EDE701340E2CE1D123E000241BF8A1
:10CEE0000490019E6FEA09095FFA89F94FF008087A
:10CEF00019F0800F08F1FF38304614BF52463A4609
:10CF000029465FFA88F8FFF755FD0136B8F1000FA2
:10CF100004D04FEA49095FFA89F9E9E7013401359C
:10CF20000E2CDCD10820BDE8FE8F2DE9F7430A9FC7
:10CF300005460E4691469846AFB1387818B913E0C9
:10CF40000A2B02D110362C4607E0009320463146CA
:10CF50004A464346FFF773FF241817F8013B002B9E
:10CF6000EED1601B00E03846BDE8FE83DDE72DE929
:10CF7000F043A5B015462CAA0E4652F8041B0746EE
:10CF80000DF1080823A899462292CDF88C80FFF76E
:10CF90006AF9314604462A4638464B46CDF80080A9
:10CFA000FFF7E4FF204625B0BDE8F08337B5124B0C
:10CFB00005460C46009330211F2328204FF6FF72B0
:10CFC000FFF7D4FF20211F234FF6FF722820009582
:10CFD000FFF7CCFFA0B2FFF759FA102100904FF6EF
:10CFE000FF7228201F23FFF7C1FF4FF47A7003B0B0
:10CFF000BDE83040FFF732BA976C020808B5024826
:10D000000421FFF7D3FFFEE7A96C02080FB430B587
:10D01000A5B028AA52F8041B02AC23A8239422929C
:10D02000FFF721F923941EE00A2B134C03D0A569C6
:10D03000B5F5C47F09DBE26900230E32E02AA36163
:10D04000E2610DDD0C4AD3610AE000932846E169F4
:10D050004FF6FF724FF43043FFF7F1FE4019A06125
:10D06000239B01332393239B1B78002BDCD125B01A
:10D07000BDE8304004B07047503200202DE9F74F32
:10D08000C0EB020B5F1A1FFA8BFBBFB20FFA8BFAD1
:10D090000FFA87F84FEADB3BFF0BBDF83090BAF18F
:10D0A000000FD4BFCBF1000BCBF1010BB8F1000F97
:10D0B000D4BF7F42C7F10107BAF1000FB8BFCAF170
:10D0C000000AB8F1000FB8BFC8F100084FEA4A0AD9
:10D0D0004FEA480800921FFA8AFA1FFA88F84A466F
:10D0E000019304460D460FFA8AF6FFF763FC0FFA28
:10D0F00088F39E4220DB1FFA88F8A8EB6606B6B2DA
:10D1000016E016F4004F09D11EB94FFA8BF3002B2D
:10D1100004DD7BB2CAEB0606ED18B6B24FFA8BF30C
:10D12000E4184644204629464A46B6B2FFF742FC78
:10D13000009B9C42E5D11EE01FFA8AFAAAEB630627
:10D14000B6B215E016F4004F09D116B97BB2002B28
:10D1500005DD4FFA8BF3C8EB0606E418B6B27BB2D6
:10D16000ED185644204629464A46B6B2FFF722FC3F
:10D17000019B9D42E6D1BDE8FE8F08B50021042049
:10D18000F7F768F8C3439BB2C3F3802013F4006F32
:10D190001CBF40F0020080B213F4805F18BF40F45F
:10D1A000807013F0080F18BF40F0040013F4004F14
:10D1B00018BF40F0080013F0400F18BF40F4007093
:10D1C00013F4804F18BF40F0100013F4005F18BF35
:10D1D00040F0200013F4807F18BF40F0400013F4AB
:10D1E000007F18BF40F0800008BD07B50B2000216C
:10D1F000F7F730F840B9084B303000931E211F225A
:10D200004FF6FF73FFF791FE1420002103B05DF885
:10D2100004EBF7F71BB800BFCF6C0208024B0146C6
:10D2200018712420F7F712B800300020014B18794C
:10D23000704700BF0030002070B50CE09C1804EB74
:10D24000D474641050F8246025468E4201D2621CCA
:10D2500001E004D9631E9342F0DA4FF0FF3528460F
:10D2600070BD2DE9F84F214C074604F56260083087
:10D270000E4615469846002215230C99FFF7DCFF51
:10D28000B0F1FF3F9DF82890BDF82CA083462AD02E
:10D290000C9A174B05209A600021F6F7D7FF09205A
:10D2A0003946F6F7D3FF0A203146F6F7CFFF0020C4
:10D2B0002946F6F7CBFF0B204146F6F7C7FF0C20B7
:10D2C0004946F6F7C3FF04EB4B0401205146F6F73D
:10D2D000BDFF0720B4F8801EF6F7B8FF0820B4F8A9
:10D2E000AC1EF6F7B3FFBDE8F88F00BFB85D0208CB
:10D2F0000030002008B503200021F6F7ABFFC0B2D4
:10D3000008BDF6F797BF08B506200121F6F79EFF86
:10D31000FFF79EF8014B186208BD00BF5032002095
:10D320002DE9F04106460C462220314615461F469F
:10D33000F6F78CFF21202146F6F788FF202047EAE8
:10D34000C501BDE8F041F6F781BFB0F5805F10B5CB
:10D3500003DD0748CA21FFF729FE0024FFF7D1FFAC
:10D36000044B18510434B4F5804FF7D110BD00BF01
:10D37000E86C0208743200204FF480507047B0F51A
:10D38000805F10B5044603D30348DA21FFF70EFE91
:10D39000024800EB840010BDE86C020874320020E3
:10D3A00010B500210220F6F755FF00210120F6F705
:10D3B00051FF002100F001040320F6F74BFF10F0AD
:10D3C000010F18BF44F00204204610BD08B5FFF756
:10D3D0003FF80B4B1B6AC01A15F0AEFF094916F057
:10D3E000B3F8094B996816F0AFF8084915F0F8FF43
:10D3F00016F0BCF9B0F5805FA8BF4FF4805008BDAF
:10D400005032002000007A44003000200000F0413B
:10D41000034670B510200C4619461546F6F716FF60
:10D4200011202146F6F712FF12202946BDE8704070
:10D43000F6F70CBF094B10B51A68094C22F001022F
:10D440001A60084A146043F2B0521A60064A11602A
:10D4500090601A6842F001021A6010BD4404024054
:10D46000087400404C04024048040240034B012170
:10D47000A3F83C0D03F552601C30DBE73865002053
:10D4800001460D20F6F7E2BE004870477672002094
:10D4900008B5034602730020012A587305D11A46C5
:10D4A00009480833F6F7F2FE06E0022A09D11A46C7
:10D4B00005480833F6F7E8FED0F1010038BF002038
:10D4C00008BD012008BD00BF7672002008B50346E4
:10D4D00008461946F6F7DCFED0F1010038BF0020FF
:10D4E00008BD10B5044608462146F6F7D3FE20B91C
:10D4F000637B01300133637310BD002010BD10B594
:10D50000037B0446022B10D1B1F1FF3F08BF417BE2
:10D51000224608BF4902074804F10803F6F7BCFE9B
:10D5200028B903232373013010BD012010BD002052
:10D5300010BD00BF76720020F0B502EBD277002458
:10D540007F1001EB420523460DE0BB42B4BF31F82A
:10D5500013C035F802CC065F013306FB0CF6360C1F
:10D560000653023D04349342EFDBF0BD0CF0DAB811
:10D57000420803460DD00021B3FBF2F080184008AA
:10D58000121A0132022A04D9192902D001310246A5
:10D59000F2E7704705E0054A118811F0800FFAD0D4
:10D5A000938010F8013B002BF5D170470038014003
:10D5B0000F4B10489A6942F480429A610E4A40F239
:10D5C0007123138142F22C039381138823F4A46303
:10D5D00023F005031B041B0C1380084B5A6822F42C
:10D5E0007F6242F40A625A604FF480621A61D1E7A6
:10D5F00000100240126D020800380140000801408E
:10D6000010B54FF4FA70FEF729FFFFF7BBF9FFF7EB
:10D61000ECFDBDE81040CBE704F042BC0E20002139
:10D62000F6F718BE0D200021F6F714BE0F200021DA
:10D63000F6F710BE10200021F6F70CBEF6F7FEBD7F
:10D64000014B9868704700BF503200202DE9F0432D
:10D650003F3189B0234B804687B28CB2ADF10202D4
:10D6600013F8010C1978C0108910C0024901411843
:10D670005878043301EBD00122F8021F1A498B427B
:10D68000EED11A4E3D4616F8013B08AA1B0902EBE3
:10D69000430328460135214633F8202CADB208F16A
:10D6A000FF09FFF787F94D4502DD013CA4B23D4675
:10D6B00016F8013C08AA03F00F0302EB43032846C7
:10D6C0000135214633F8202CADB2FFF773F94D45F3
:10D6D00002DD013CA4B23D46054B9E42D3D109B0C8
:10D6E000BDE8F08337D8030877D8030876D8030855
:10D6F00076F80308704700BF0C4B10B5186004465D
:10D70000FFF77EFF03F054FC07F01CFD03F050FC14
:10D710000121002207F0B8FE12F0A6FF12F060FF10
:10D7200012F0BCFDFFF7EFFD204610BD787400201D
:10D73000704737B5FEF78CFE294C2368B3F1FF3FE5
:10D7400008BF20602368C51AB5F57A7F0ED94FF45B
:10D750007A72B5FBF2F502FB053321490B6003F049
:10D7600027FC00F52050C36CED18C564FFF705FDDC
:10D77000ADF8060000B9A08003F01AFC00F53450A3
:10D780000DF10601183002F0EEFF03F011FC00F578
:10D79000345018300DF1060102F0EDFFBDF80630EF
:10D7A000ABB103F005FC0221BDF8062007F06CFECA
:10D7B000BDF80620A3889A4206D00A4B1B681B7A44
:10D7C00013B93220FEF754FEBDF80630A38003F0F3
:10D7D000EFFB0321002207F057FE01203EBD00BFF2
:10D7E00010300020F4A10020014B1868704700BFE2
:10D7F0007874002008B5036849421B6849B298470D
:10D8000008BD0000014B1868704700BF107902087E
:10D810007047012070474368826819688A181A6047
:10D8200070474368826819688A1A1A60704708202E
:10D83000704783681B78CB1805D4027B9342CCBF1A
:10D840000020012070470020704783681A78013259
:10D850001A70704783681A78013A1A7070478368A3
:10D860001970704783681878704702207047182035
:10D870007047022070470020704700207047082042
:10D8800070470000034B1B68586A0028B8BF03307C
:10D8900080107047F4A100200020704719207047C5
:10D8A000034B1B68986A0028B8BF0330801070478C
:10D8B000F4A100200020704719207047704770477E
:10D8C000436882681B68CB18934205DBC0688342BB
:10D8D000CCBF0020012070470020704743681A68C1
:10D8E00001321A60704743681A68013A1A6070473B
:10D8F00002484FF48871FFF759BB00BFE874020873
:10D9000008B5034840F20F11FFF750FB002008BD97
:10D91000E874020802484FF48771FFF747BB00BF65
:10D92000E8740208024840F20D11FFF73FBB00BF48
:10D93000E874020802484FF48671FFF737BB00BF56
:10D94000E874020808B503484FF48571FFF72EFB11
:10D95000022008BDE874020839B9042A05D146F24C
:10D960006742934201D107F093B8704739B9042A4E
:10D9700005D146F26742934201D107F089B870475A
:10D9800039B9042A05D146F26742934201D107F022
:10D990007FB87047C36A70B504460D461BB90B4883
:10D9A0004221FFF703FB15F0100F08D0E168E36A8E
:10D9B000204646F66352BDE8704007F070B8204636
:10D9C0002946BDE8704007F0E0B800BF02750208C4
:10D9D00011F0100F70B505460C4605D0C16846F62B
:10D9E0006F52002307F05BF828462146BDE87040DF
:10D9F00007F0CBB811F0010F70B504460D4615D0F5
:10DA0000C06A012103685B68984701280ED1E06A6B
:10DA100000210368DB689847204607F039F8204664
:10DA2000E16847F27052002307F039F815F0020F51
:10DA300015D0E06A012103681B68984701280ED1C0
:10DA4000E06A002103689B689847204607F020F8A9
:10DA50002046E16847F27052002307F020F815F0E5
:10DA6000100F0ED0E06A0368DB699847084B1B680B
:10DA7000984206D02046E16846F66542E36A07F020
:10DA80000EF820462946BDE87040FFF7A1BF00BF51
:10DA90001079020811F0010F70B504460D460DD043
:10DAA000C36A002B0ADD013BC36206F0F1FF20468A
:10DAB000E16846F67512002306F0F1FF15F0020F3B
:10DAC0000ED0E36A132B0BDC0133E362204606F031
:10DAD000DFFF2046E16846F67512002306F0DFFFFF
:10DAE00020462946BDE87040FFF772BF11F0010FD4
:10DAF00070B504460D460DD0C36A012B0ADD013B0B
:10DB0000C36206F0C5FF2046E16846F675120023A1
:10DB100006F0C5FF15F0020F0ED0E36A1D2B0BDCDB
:10DB20000133E362204606F0B3FF2046E16846F683
:10DB30007512002306F0B3FF20462946BDE8704069
:10DB4000FFF746BF11F0200F70B505460C4606D012
:10DB5000C06846F278520146002306F0A0FF28462E
:10DB60002146BDE8704007F010B8000011F0010F29
:10DB700070B504460D4615D0006A012103685B6844
:10DB8000984701280ED1206A00210368DB68984776
:10DB9000204606F07DFF2046E16847F270520023E0
:10DBA00006F07DFF15F0020F15D0206A01210368F1
:10DBB0001B68984701280ED1206A002103689B68E2
:10DBC0009847204606F064FF2046E16847F270520D
:10DBD000002306F064FF15F0100F0ED0206A0368D2
:10DBE000DB699847084B1B68984206D02046E168DD
:10DBF00046F66542236A06F052FF20462946BDE8F4
:10DC00007040FFF79FBF00BF1079020811F0010FAD
:10DC100070B504460D4615D0C06A012103685B68E3
:10DC2000984701280ED1E06A00210368DB68984715
:10DC3000204606F02DFF2046E16846F675120023C7
:10DC400006F02DFF15F0020F15D0E06A01210368E0
:10DC50001B68984701280ED1E06A002103689B6881
:10DC60009847204606F014FF2046E16846F67512F4
:10DC7000002306F014FF20462946BDE8704006F058
:10DC800084BF0000C36A70B504460D461BB91A482C
:10DC90002A21FFF78BF915F0100F08D0E168E36A2D
:10DCA000204646F66352BDE8704006F0F8BEE36ACF
:10DCB0001A79043AD2B2012A17D815F0010F08D008
:10DCC000DA6812F1FE0F04DB013ADA60204606F052
:10DCD000DFFE15F0020F08D0E36ADA68FE2A04DCE2
:10DCE0000132DA60204606F0D3FE20462946BDE820
:10DCF000704006F04ABF00BF2D750208C36A70B5B8
:10DD000004460D461BB91D482221FFF74FF915F0B7
:10DD1000100F08D0E168E36A204646F66352BDE87A
:10DD2000704006F0BCBE15F0010F0ED0E36A1A7900
:10DD30005AB1013A1A71204606F0AAFE2046E1685F
:10DD400046F67512E36A06F0AAFE15F0020F0FD030
:10DD5000E36A1A79092A0BD801321A71204606F0B3
:10DD600097FE2046E16846F67512E36A06F097FED4
:10DD700020462946BDE8704006F007BF5B750208E3
:10DD800030B5028400250122456280F82820BDE8D4
:10DD9000304006F041BE00007FB5043302AC0546BA
:10DDA0000E4693E8030084E80300BDF80E302846D1
:10DDB00004339BB2ADF80A300733ADF80E30044996
:10DDC00042F002022346009606F026FE7FBD00BF09
:10DDD0008A7502087FB5043302AC05460E4693E807
:10DDE000030084E80300BDF80E30284602339BB2DE
:10DDF000ADF80A300733ADF80E30044942F00202A4
:10DE00002346009606F008FE7FBD00BF9675020807
:10DE100030B5049D028401224562BDE8304006F021
:10DE2000FBBD2DE9FF410A9E0D460021416202849F
:10DE300080F8283004464FF01108304608FB03F8FC
:10DE400006F0A2FD5FFA88F802AF68B1304606F02E
:10DE50009BFD043003C887E80300BDF80E30023391
:10DE60009BB2ADF80A3006E0331D93E8030087E863
:10DE70000300BDF80A30984420462946012202AB2F
:10DE8000ADF80E80009606F0C7FDBDE8FF81FFF7F4
:10DE9000C8BF00002DE9F041DDF8188004461546A2
:10DEA0001F460E4621B908484FF40371FFF77EF86C
:10DEB000204629463A460223E662CDF81880BDE89E
:10DEC000F041FFF7AEBF00BFE8740208FFF7A9BF3B
:10DED00010B50A24C462BDE81040FFF7A2BF10B518
:10DEE0000A24C462BDE81040FFF79BBF73B5044627
:10DEF00016460D4619B907480C21FFF757F8E56299
:10DF00002046002146F20C3202230096FFF789FFDB
:10DF10007CBD00BF2D75020810B50524C462BDE8A4
:10DF20001040FFF77EBF13B503469C685B682478FA
:10DF3000088853F82430B1F9021000934FF6FF73AC
:10DF4000002A14BF1A4600224FF61E03FEF7EDFF0B
:10DF50001CBD00002DE9F341274DB0F906402B68A8
:10DF6000B0F90460B3F84020244B214600933046BA
:10DF70000023FEF7DAFF2B68214F93F83E3021464D
:10DF800057F82330801900934FF6FF720023FEF7F5
:10DF9000CCFF2B6806F16408B3F85420194B2146D6
:10DFA000009340460023FEF7C0FF2B68214693F8FC
:10DFB0005230404457F823304FF6FF72009300234D
:10DFC000FEF7B3FF104BC8360093214600233046BE
:10DFD0004BF29652FEF7A9FF2B68801993F88C201C
:10DFE0000A4B214653F822304FF6FF72009300236C
:10DFF000FEF79BFFBDE8FC81F4A10020E197020839
:10E00000147A0208C7980208A27502087C7A0208EE
:10E01000F7B50E88154B083E4FF6FF75002A08BF6E
:10E020000025B6B20C460746B1F902102A46009305
:10E0300030464FF61E03FEF7F8FD7B683618B6B281
:10E04000B4F90210009330462B464FF61E02FEF73D
:10E050006CFF074B30180093B4F902102A464FF6B4
:10E060001E0380B2FEF7E1FDFEBD00BFB2510608FF
:10E070002452060873B5044606F0FAFCA688144B31
:10E08000083E4FF6FF75002808BF0025B6B2B4F968
:10E09000061000932A4630464FF61E03FEF7C5FDD4
:10E0A000E3693618B6B2B4F90610009330462B4631
:10E0B0004FF61E02FEF739FF064B30180093B4F9F5
:10E0C00006102A464FF61E0380B2FEF7AEFD7CBD59
:10E0D000B25106082452060808B583681A784368C6
:10E0E00053F8220015F092FEC3004FF6F87003EAD1
:10E0F000000008BD7FB5436804460D46164623B9A7
:10E1000012484FF42F71FEF751FF63681A68A36835
:10E1100092FBF3F20A2392FBF3F103FB112200239B
:10E12000ADF80C30303204AB03F8042D4FF6FF721B
:10E130000093B5F90000B5F90210002E08BF0022C7
:10E140004FF61E03FEF712FF7FBD00BFE874020802
:10E1500070B50E4615461C4606F00FFC2A460146D1
:10E1600023463046BDE8704006F099BC11F0010F1F
:10E170002DE9F04104460D4616D0006A01210368DE
:10E180005B68984780B1206A00210368DB68984784
:10E19000204606F0F2FB06F07BFCE06847F2705286
:10E1A000C168002306F07BFC15F0020F16D0206A30
:10E1B000012103681B68984780B1206A0021036829
:10E1C0009B689847204606F0D8FB06F061FCE068A3
:10E1D00047F27052C168002306F061FC15F00C0F85
:10E1E0000FD00C4E204629463768FFF7ABFC33684A
:10E1F000BB420CD0204606F0C0FBBDE8F04106F063
:10E2000047BC20462946BDE8F041FFF79BBCBDE86E
:10E21000F08100BF08A2002010B50C4606F0ADFB4F
:10E22000036821465B68984710BD11F0130F10B5C5
:10E230000C4606D006F0A1FB036821465B689847B0
:10E2400010BDBDE8104006F0A0BC000011F0030FA7
:10E2500010B507D0FFF7DAFC044B1868BDE8104092
:10E2600005F01EB9BDE81040FFF7D0BCF4A10020B6
:10E2700011F0030F10B507D0FFF7C8FC044B186866
:10E28000BDE8104005F00CB9BDE81040FFF7BEBC7A
:10E29000F4A100202DE9F0471F4647F270539A423F
:10E2A00004460D4616463FD100F1380399423BD152
:10E2B000436A93F80480A8F104095FFA89F9B9F177
:10E2C000010F8CBF4FF000094FF00109B9F1000FA9
:10E2D00006D0A8F10503D3F1000848EB030801E0DC
:10E2E0004FF0010804F1A00A504606F0BAFC81453F
:10E2F00006D04946504606F0DAFB4FF0010901E02E
:10E300004FF0000904F16C0A504606F0AAFC804563
:10E3100004D05046414606F0CAFB02E0B9F1000FB6
:10E3200002D0204606F0B4FB2046294632463B4642
:10E33000BDE8F047FFF70CBF08B54368B3F900002C
:10E3400006F0D2F815F062FDC3004FF6F87003EA4C
:10E35000000008BD4368F7B54FF6FF7604460D464A
:10E36000002A08BF00261BB913489721FEF71EFE9E
:10E370006368B5F900701868A368984202DBE36827
:10E3800098420ADD0D4BB5F902100093384632462B
:10E390004FF61E03FEF7C9FD0CE000B2B5F90240CE
:10E3A00006F0A2F821460090324638464FF61E038A
:10E3B000FEF7DCFDFEBD00BFA6750208C1750208B0
:10E3C000F7B543680E881C88083E134BB6B20D465D
:10E3D0002246B1F90210304600934FF61E03FEF7B5
:10E3E00024FC36182046B5F9027006F0C1F8B6B222
:10E3F00000903946234630464FF61E02FEF7B6FD22
:10E40000064B30180093B5F9021022464FF61E0352
:10E4100080B2FEF70AFCFEBDB2510608245206087F
:10E4200010B5044606F034FD2046BDE8104006F065
:10E430000DBD10B5044606F02BFD2046BDE810408A
:10E4400006F004BD11F0100F70B5044617D006F0A9
:10E4500096FA18B90A483D21FEF7A8FD204606F0B5
:10E460008CFA0546204606F08AFA0346DB69204608
:10E47000294646F26452BDE8704006F010BB70BDFC
:10E48000C375020801804280704710B58380BDF8D3
:10E49000083001804280C38010BD00007FB50E4669
:10E4A000F0233C210446154600930A46283302A86F
:10E4B000FFF7EBFF20462A4602AB1049009606F014
:10E4C000ABFA04F1200002230D4948F210420094F7
:10E4D000FFF7DDFC04F14C0002230A4948F2104228
:10E4E0000094FFF7D4FC04F17800074948F2104289
:10E4F00002230094FFF795FC7FBD00BFE67502087C
:10E50000F775020801760208087602087FB5DE2357
:10E5100005460E461446009300211622D33B02A85E
:10E52000FFF7B3FF2846044944F0020202AB00960D
:10E5300006F072FA7FBD00BF187602087FB515237A
:10E5400005460E46144600930C21102202A84FF4F3
:10E550009C73FFF79AFF2846034944F0020202AB7E
:10E56000009606F059FA7FBD2C7602087FB5F0239D
:10E5700005460E461446009300211022A03302A83F
:10E58000FFF783FF2846044944F0020202AB0096DD
:10E5900006F042FA7FBD00BF3F7602087FB5F02348
:10E5A00005460E461446009300211022A03302A80F
:10E5B000FFF76BFF2846044944F0020202AB0096C5
:10E5C00006F02AFA7FBD00BF4B76020870B5F02333
:10E5D00088B004460E461546009300211022A03351
:10E5E00006A8FFF752FF20461A4945F0200206AB65
:10E5F000009606F011FAB4F90A204FF496710092D1
:10E600004FF4A573103A04A8FFF73FFF04F1400050
:10E610001149012204AB009406F0FEF9B4F90A2076
:10E620004FF4B47100924FF4C373103A02A8FFF78D
:10E630002CFF04F120000949012202AB009406F0EE
:10E64000EBF900232366FEF797FE0138606608B0F9
:10E6500070BD00BF5B760208687602086D7602081E
:10E660007FB5F02305460E46144600930021102284
:10E67000A03302A8FFF709FF2846044944F012021C
:10E6800002AB009606F0C8F97FBD00BF72760208A3
:10E69000B0F90420B0F90030D0184010704707B529
:10E6A000B0F90030B0F90410B0F90620C918B0F97B
:10E6B00002304910D218521001A8FFF7E3FE019B67
:10E6C00000209AB262F30F001B0C63F31F400EBDD3
:10E6D00010B5048809190180418852184280828847
:10E6E000D31A8380C288029BD31AC38010BD10B591
:10E6F0000488611A018041888A1A428082889B18A6
:10E700008380029AC388D318C38010BDB0F9042057
:10E71000B0F90030D01A7047F0B587B004AC051DD1
:10E72000064695E8030084E80300012100220B4619
:10E7300020460092FFF7DBFF204648F21041FEF72B
:10E7400040FA94E80300184B02AF1B6887E8030007
:10E750002846B3F88E40FFF7D9FFBDF80A3004FB16
:10E7600000F20133ADF80A3004F59674BDF80E30AE
:10E770004443013BADF80E30B388384603EB2232F8
:10E7800003EB2434BDF81430ADF80C40ADF808208C
:10E7900024B21AB29442C8BFADF80C300021FEF783
:10E7A00010FA07B0F0BD00BFF4A1002073B5051D3D
:10E7B000002104462846FEF704FA0F4B1B68B3F805
:10E7C0009E60B3F88E30F61A36B2002E12DB284661
:10E7D000FFF79CFF86420DDAB4F90400074B0438BA
:10E7E0000093B4F90610801946F20C324FF61E035E
:10E7F000FEF71BFA7CBD00BFF4A100201E510608E5
:10E8000030B5051D85B0044600212846FEF7D9F92C
:10E81000384B802100930420002348F21042FEF779
:10E8200084FB354B802100934C230193A0204C3B6B
:10E830004BF29652FEF79BFB304B90210093042045
:10E84000002348F21042FEF770FB2D4B90210093FD
:10E85000A02000234BF29652FEF767FB294BA02124
:10E8600000930420002348F21042FEF75EFB264B83
:10E87000A0200093014600234BF29652FEF755FB71
:10E88000224BB02100930420002348F21042FEF7EF
:10E890004CFB1F4BB0210093A0204BF2965200235B
:10E8A000FEF743FB1B4BC02100930420002348F2DA
:10E8B0001042FEF73AFB184BC0210093042301934A
:10E8C00001330293033B03934BF29652023BA02089
:10E8D000FEF74DFB2846FFF719FFB4F90610A0F527
:10E8E000807000EBD0704010183105B0BDE83040AA
:10E8F000FEF7ACBE8276020894760208A076020883
:10E90000AA760208B2760208BC760208C976020826
:10E91000D9760208EE76020800770208F7B5061DE0
:10E92000002105463046FEF74CF9514B802148F254
:10E930001042009304200023FEF7F7FAFEF772FE60
:10E940008021002300904BF29652A020FEF7EDFAB2
:10E95000484B902148F21042009304200023FEF718
:10E96000E4FAFEF763FE9021002300904BF29652EA
:10E97000A020FEF7DAFA404BA02148F210420093A3
:10E9800004200023FEF7D1FAFEF754FE0090A020E9
:10E99000002301464BF29652FEF7C7FA374BB021DF
:10E9A00048F21042009304200023FEF7BEFAFEF75F
:10E9B00035FEB02100234BF296520090A020FEF7C6
:10E9C000B4FAFEF73DFE2E4B0446009304200023CC
:10E9D000C02148F21042FEF7A8FA2A4B2A4F9C4267
:10E9E00004D02A4B9C4203D064B114E0284B00E0D1
:10E9F000284B0093A020C0214BF296520023FEF733
:10EA000094FA11E0244BA0200093C0214BF29652BF
:10EA10002346FEF78AFAA020C0214BF2965200232B
:10EA200000970194FEF7A3FA1C4BD021009348F203
:10EA3000104200230420FEF778FAFEF7FFFDD021F4
:10EA400001904BF296520023A0200097FEF78FFA18
:10EA50003046FFF75BFEB5F90610A0F5807000EBBD
:10EA6000D0704010183103B0BDE8F040FEF7EEBDA5
:10EA70000D7702081F7702082F7702083D770208FA
:10EA80004A770208766761006E77020827930402CE
:10EA90005A7702085E7702086677020873770208E1
:10EAA000B0F90620B0F90230D01A70470388CB18AD
:10EAB00003808388C91843888180D3184380C38822
:10EAC000D218C28070470023038043808380C380B4
:10EAD0007047B0F90420B0F900309A42D4BF00204A
:10EAE000012070472DE9F04F00F126068BB0044657
:10EAF0003046FFF7EEFF0546002847D108AF04F186
:10EB0000040898E8030087E8030001210A460B4641
:10EB100038460091FFF7EBFD38464BF29651FDF772
:10EB200093FF29464046FEF74CF848F21042ADF8F4
:10EB30001650ADF81850ADF81A50ADF81C50ADF89D
:10EB400014201935B4F90400B4F90A3005AA2818BC
:10EB5000009205220192043B421CB4F906101935BB
:10EB6000FDF79EFFFA2DEDD1E13DB4F9061005AB9E
:10EB70006918009305230193B4F904004B1CB4F900
:10EB800008201935FDF78CFFC82DEED1236A002B24
:10EB900000F0A780251D2846FFF7B8FD80462846CF
:10EBA000FFF77EFFB4F90AA0323803902046AAF19D
:10EBB000190A05F05DFF60B1216BA38C01FB08F120
:10EBC00098FBF3F202EBD27291FBF3F303EB6203D7
:10EBD00001E06FF0130330460293FFF77AFF18B994
:10EBE000E084A4F82A802BE0B4F90420B4F926309C
:10EBF00000259A42A8BF1346E384B4F90820B4F96B
:10EC00002A3001219A42B8BF134663852A460B4633
:10EC100030460095FFF75CFD30462946FDF7D1FFF1
:10EC2000012130462A460B460095FFF760FDB4F9F6
:10EC30000410B4F90620304649425242FFF736FF2D
:10EC40004FF00009E58CCB4644E0A28C236A6A436E
:10EC500092FBF8F233F81270B7F5805F03D32248C5
:10EC60005D21FEF7A3F9039AB4F92630574344BF58
:10EC700007F57E671F373F13B4F90420BFB29D42EA
:10EC800008BFBB46AA184FF6FF730093501EC7EB90
:10EC90000A03CBEB0A01FEF7F1F9029B9D4208BF84
:10ECA000B94603339D4212D1B4F904000F4B626B95
:10ECB0000638AAF1040100934019C9EB0101082AA2
:10ECC00014BF16221F224FF61E03FDF7AEFF0135BB
:10ECD000ADB2BB46B4F92A309D42B6DB3046FFF7F1
:10ECE000F2FE0BB0BDE8F08F827702084C5B06089D
:10ECF00013B50446B4F90220B0F90000B4F90630A7
:10ED00000091114600F10C02FEF74EF8B4F9000034
:10ED1000B4F90210B4F90420B4F9063008304BF20B
:10ED200096540094FDF75EFE1CBD37B50446B4F959
:10ED30000250B0F90000B4F90420B4F906300238EA
:10ED400000912946FEF730F8B4F90000B4F902103A
:10ED5000B4F90420B4F9063006304FF6FF740131DF
:10ED6000013A013B0094FEF71FF83EBD07B503468C
:10ED7000B0F900000022B3F90210B3F90630009296
:10ED800000F10802FDF72EFE0EBD37B50446B0F9BE
:10ED90000000B4F90210B4F90630002500F10802B1
:10EDA0000095FDF71FFEB4F90420B4F90210B4F980
:10EDB0000630101F0095FDF715FE3EBD436A37B5BE
:10EDC00004460BB11B880384204605F051FE231D29
:10EDD00018B11846FFF7D9FF02E01846FFF7C6FF43
:10EDE000A38820460433A38005F042FE0546218C0B
:10EDF000201D5DB1FFF799FFE369B3B1B4F90400D9
:10EE0000B4F9061000930C3000220AE0FFF770FFFF
:10EE1000E36953B1B4F90400B4F9061000930C305F
:10EE20002A464FF61E03FEF780F8A388043BA38012
:10EE30003EBD0000C36A2DE9F0431F795B79A7F15D
:10EE40000102574247EB020748F21048002F18BF53
:10EE50004FF00008012B87B0044608D002D3022BE4
:10EE60000FD109E03A4B1B68B3F8403008E0384B4B
:10EE70001B68B3F8543003E0354B1B68B3F8B2316C
:10EE800003862046FFF79AFFE36AB4F904909A7963
:10EE9000304BB4F9065053F8223009F10E060093B6
:10EEA0003046294642464FF61E03FEF73EF8002F35
:10EEB0004BD0E36A284A99799F6852F82140384636
:10EEC0000021103514F02AFC68B1244B3046009321
:10EED000424629464FF61E03FDF7A7FE07F1004202
:10EEE0008619174601E009F11406384613F08CFE26
:10EEF00002460B4602A81A49FDF736FD05E006AAB0
:10EF000002EB0903002203F8112C02AF384614F07B
:10EF10007DFF8146204614F079FF48440728EED84B
:10EF20003046294642464FF61E030097FEF71EF86C
:10EF30005CB123784BB104363018294644F20822DC
:10EF40004FF61E030094FDF7F0FF07B0BDE8F08315
:10EF5000F4A10020B87B0208E87B0208F65A0608F4
:10EF6000AE770208F0B5C669002585B00446C561D4
:10EF7000FFF724FFE661231D02AE93E803002A4653
:10EF800086E803002B46304610210095FFF7A0FBD2
:10EF9000E3692A46BDF90A100093BDF908004FF64F
:10EFA0001E03FDF7C2FFBDF80A3020461033ADF84E
:10EFB0000A3005F05DFD0246002837D0BDF8087024
:10EFC0001E4B083FBFB2BDF90A102A46009338B263
:10EFD0004FF61E03ADF80870FDF727FE3818ADF8A0
:10EFE0000800E06A03685B699847BDF90A100746A4
:10EFF000BDF9080001F10E033A180095FDF7F2FC87
:10F00000E06A3146036801221B699847BDF8083061
:10F01000BDF90A10FF180A4B38B200932A464FF682
:10F020001E03ADF80870FDF700FE04E0E06A31460B
:10F0300003681B69984705B0F0BD00BFB2510608D0
:10F0400024520608F0B5044685B0FFF7B7FEB4F9C0
:10F050000450B4F90670E369103500932846394628
:10F0600000224FF61E03FDF760FF204607F1100651
:10F0700005F0FEFC00282ED0234B314600220093E1
:10F0800028464FF61E03FDF7D0FD4519E06A1E37EE
:10F0900003685B69984732464319294602A80097DE
:10F0A000FFF7F3F9002102A8FDF78BFDE76A204680
:10F0B0003B681D6905F0DCFC02A902463846A847FA
:10F0C000124BBDF90C000093314600224FF61E038F
:10F0D000FDF7ABFD15E0E06A1E3703685B699847F2
:10F0E00029464319324602A80097FFF7CEF9E66A8F
:10F0F000204633681D6905F0BBFC02A90246304674
:10F10000A84705B0F0BD00BFB2510608245206085A
:10F1100013B50446FFF752FE084BB4F90400009300
:10F12000E36AB4F9061003EB830301931C3010313A
:10F1300000224FF61E03FDF71AFF1CBDF18F0208D7
:10F1400013B50446FFF73AFE084BB4F904000093E8
:10F15000E36AB4F9061003EB830301931C3010310A
:10F1600000224FF61E03FDF702FF1CBDF18F0208BF
:10F1700073B50546FFF722FEEB6AB5F90440B5F911
:10F1800006601B690E340022009331464FF61E03C1
:10F190002046FDF7CAFEEB6A31461A79114B001979
:10F1A00053F82230002200934FF61E03FDF7BDFEF8
:10F1B000EB6A06F110011A79052A01D10A4A06E024
:10F1C000042A03D0094A00929B6802E0084A009290
:10F1D000DB680193204600224FF61E03FDF7C7FEB1
:10F1E0007CBD00BF507C0208B2770208F18F020894
:10F1F000B9770208C36AF7B51D79044648F210438F
:10F20000002D0CBF1D460025FFF7D8FDB4F9047092
:10F21000B4F906600C4B0E37009331462A46384647
:10F220004FF61E03FDF781FEE36A38461A79074B55
:10F2300006F1100153F822302A4600934FF61E03C0
:10F24000FDF773FEFEBD00BFBD770208247C0208F7
:10F250007FB50646FFF7B2FD0E4BF06A009314F03F
:10F260006BF80D4914F070F90C4913F0B1FF13F06D
:10F27000CBFCB6F90450B6F906401C351034CDE984
:10F2800002010022284621464FF61E03FDF76FFEBD
:10F290007FBD00BFC7770208000020410AD7233C8A
:10F2A00073B5B0F90420B0F906300E46B0F902107B
:10F2B00004464FF4E045101F043104320433009536
:10F2C000FDF772FDB4F90630B4F90000B4F904207A
:10F2D000191F0430043204330095FDF765FDB4F9BD
:10F2E0000000B4F90210B4F9063000F10C020096E7
:10F2F000FDF75AFDB4F90000B4F90420B4F9021086
:10F30000B4F906304BF296550830043A0095FDF7F3
:10F3100069FBB4F90420B4F90210B4F90630A2F183
:10F3200008000095FDF740FD7CBD73B5B0F90420E1
:10F33000B0F906300E46B0F9021004464FF4E0452D
:10F34000101F0431043204330095FDF72DFDB4F98C
:10F350000630B4F90000B4F90420191F0430043257
:10F3600004330095FDF720FDB4F90000B4F9021054
:10F37000B4F90420B4F906300096FDF715FD7CBD04
:10F3800030B5024685B00D460068516802AB0224D4
:10F3900003C302A80021FDF743FD2246234602A82D
:10F3A00021460094FFF794F902A82946FDF738FD9D
:10F3B00002A821460E2223460094FFF789F902A8ED
:10F3C0004BF29651FDF72CFD05B030BD73B50446E8
:10F3D000051D218C2846FFF7D3FF2846FFF758F973
:10F3E000E5690646284614F011FDB4F90610C0B2CE
:10F3F0008000301A023100224FF61E030095FDF7FF
:10F4000094FD7CBDF0B589B0031D054604AC93E8BE
:10F41000030084E803001846298CFFF7B1FF20465B
:10F42000FFF736F9EE690746304614F0EFFCBDF9F8
:10F430001210C0B2800002310022381A4FF61E03AB
:10F440000096FDF772FD122104230A460093204620
:10F450000B46FFF73DF9686A14F0D8FC07462046D2
:10F46000FFF71DF9ADF80800C0F30F40ADF80A0032
:10F47000029E20460796FFF712F9ADF80800C0F388
:10F480000F40ADF80A0002996B6AFF0036B2A6EB96
:10F4900067060691091400933046073900224FF69B
:10F4A0001E03FDF742FD09B0F0BDF0B585B0031DA8
:10F4B000044602AD93E8030085E803001846218C5A
:10F4C000FFF75EFF2846FFF7E3F8E6690746304698
:10F4D00014F09CFCBDF90A10C0B280000231002279
:10F4E000381A4FF61E030096FDF71FFD1221042364
:10F4F000009328460A460B46FFF7EAF8636ABDF90F
:10F500000800BDF90A1000930430043100224FF6C0
:10F510001E03FDF70AFD05B0F0BD4BF29651FDF755
:10F5200050BB2DE9F041012104460026FDF758FBB0
:10F53000D02514E0EB10DA024FEAA50842EA481899
:10F54000204648EA0308FFF7E1F8074602E0404694
:10F55000FDF750FB013FFAD20D3DEDB201362046DA
:10F56000FFF79EFA8642E5DBBDE8F041FDF75CBBA4
:10F5700010B5044605F07CFA231D20B91846BDE8F5
:10F580001040FFF7CABF1846BDE81040FFF7C9BFDB
:10F590002DE9FF47044605F06BFA4FF6FF7500288A
:10F5A00008BF00252046FFF7E3FFE369B4F9040034
:10F5B0002A46B4F90610009304304FF61E03FDF7F7
:10F5C000B4FC206A01210368B4F904805B689847A1
:10F5D0008146206A0121036808F178071B68984773
:10F5E000B9F1010F064607D1244BB4F90610009378
:10F5F00008F170002A460AE0B9F1000F0BD11F4B49
:10F60000B4F90610009308F1700048F210424FF66A
:10F610001E03FDF70AFBD4F820A0231D93E8030086
:10F620000DF10809DAF8003089E803002046D3F824
:10F630001080ADF80870ADF80C7005F019FA494665
:10F6400002465046C047206A03685B699847012E0E
:10F65000384405D10A4BB4F9061000932A4606E057
:10F660004EB9074BB4F90610009348F210424FF61A
:10F670001E03FDF7DAFABDE8FF8700BFA84E0608B3
:10F680001A4F060837B5054605F0F2F94FF6FF7434
:10F69000002808BF00242846FFF76AFFEB69B5F988
:10F6A00004000093B5F90610043022464FF61E03FD
:10F6B000FDF73BFC3EBD13B50446FFF759FFE36978
:10F6C000B4F904000093B4F90610043000224FF698
:10F6D0001E03FDF72AFC1CBDF0B585B0044605F0FD
:10F6E000C7F94FF6FF75002808BF0025204605F032
:10F6F000BFF990B102AB221D92E8030083E803003A
:10F70000BDF808201846083AADF80820BDF80C20CE
:10F710000832ADF80C20FFF704FF204605F0A8F9E9
:10F7200058B1174BB4F904000093B4F90610073828
:10F730002A464FF61E03FDF778FA276A20463B68F3
:10F740001E6905F095F9211D02463846B047206A2A
:10F75000A78803685B6998470646204605F088F944
:10F7600058B1084B3FB2781C0093B4F906108019C9
:10F770002A464FF61E03FDF758FA05B0F0BD00BF4C
:10F78000A84E06081A4F060838B54FF61F039942CF
:10F7900004460A4607D0056961698068E36828184D
:10F7A000C918FDF707F96269236912F0010F07D044
:10F7B000591E002921610BDA01322361626138BDD3
:10F7C000A069591C8142216102DB0132236162611F
:10F7D00038BD10B500231A46416811F8014B41604D
:10F7E00004F07F019140073214F0800F43EA0103D7
:10F7F000F2D1184610BD38B54FF0FF3303600B78D7
:10F800000446472B0D461CD18B1C4360FFF7E1FFDC
:10F81000A0612046FFF7DDFFE0616B78422B10D13D
:10F82000234604F1200061680A4612F8015B626019
:10F8300049780132626041EA05221A840233834228
:10F84000F1D138BD03460068B0F1FF3F06D15A68D8
:10F8500012F8010B18605A60001170474FF0FF3228
:10F8600000F00F001A60704770B500240646254668
:10F870003046FFF7E7FFC0B200F00703AB400335A7
:10F8800010F0080F44EA0304F2D1204670BD0000D6
:10F890002DE9F8434FF0FF33036001330361436107
:10F8A0008769C36904468160C260D0F804805F4301
:10F8B00001262FE0AEB12046FFF7D6FF451C2046BB
:10F8C000FFF7C0FF0026814607E009F1100320463C
:10F8D00034F81310FFF758FF0136AE42F5DB00266F
:10F8E00012E02046FFF7AEFF451C0AE02046FFF776
:10F8F000A9FF00F1100334F813102046FFF744FF6E
:10F900000136AE42F2DB01267F1B03D504484821B5
:10F91000FDF74CFB002FCDDCC4F80480BDE8F88374
:10F92000CD770208074A08481168084B30B50468CB
:10F93000074DCB1805FB04330131036058041160F7
:10F94000400C30BDA4A1002018300020F39024000A
:10F9500021F17D0030B5264B89B0044605AD93E812
:10F9600007000C3385E8070093E8070094F820307F
:10F9700002AD85E80700C3B1201D4FF6FF71FDF70A
:10F9800020F9B4F90400B4F90A101A4B08300093B6
:10F9900014394FF61E030022FDF7C7FA002384F83E
:10F9A0002030059B6362029BA362FFF7BBFF03222B
:10F9B00090FBF2F202EB420208A9821A01EB8202EA
:10F9C0000346616A52F80C0C9B00401840106062BC
:10F9D00052F8181CA26A89184FF6FC72491003EA03
:10F9E0000202A16209B0BDE83040FCF7E3BF00BFEE
:10F9F000D0740208E57702084162704773B5044687
:10FA000016460D4619B90C480D21FDF7CFFA0B4BE0
:10FA100000211B682046B3F840300A462386E56281
:10FA200002230096FEF7FDF9204604F1300102B0F2
:10FA3000BDE87040FFF7E0BF02750208F4A10020A6
:10FA400073B5054616460C4619B90A480C21FDF750
:10FA5000ADFAEC62284634F8062F00210223009606
:10FA6000FEF7DFF92846214602B0BDE87040FFF7F7
:10FA7000C3BF00BF5B7502082DE9F0410C46154677
:10FA800098460026A75B1FB94FF61F03A3530DE04E
:10FA9000FA08294602F0FC02404604F02DFEFA0A5C
:10FAA000A0530021D20004F027FEA0530236202EDE
:10FAB000E8D1BDE8F08110B592B0044604F0D8FF5B
:10FAC000231D218C70B11846FFF72FFC616A21B30A
:10FAD00002A8FFF790FE20460AA94EF210424FF608
:10FAE000FF730DE01846FFF7DBFB616AA9B102A8BE
:10FAF000FFF781FE20460AA94EF21C724BF2965384
:10FB0000FFF7BAFF089BB4F90810B4F90A20C91A24
:10FB1000099B02A8D21AFFF7BBFEE369B4F90400FF
:10FB20000093B4F906100C3000224FF61E03FDF7C7
:10FB3000FCF912B010BD4160826003737047000091
:10FB400008B50379012B09D002D3022B0FD10AE0AB
:10FB50008368188800F01F00400808BD8368188873
:10FB6000C0F3C31008BD83681888000B08BD0348A4
:10FB70004FF48271FDF71AFA002008BDA67502083D
:10FB800030B54FF6FF7585B00C46002A08BF00253A
:10FB9000FFF7D6FF04F0DCFC00238DF80D3003AB3B
:10FBA0008DF80C000093B4F90000B4F902102A4655
:10FBB0004FF61E03FDF7DAF905B030BD002908B590
:10FBC0000CDDFFF7BDFF0E288CBF0020012008BD13
:10FBD000FFF7B6FF003818BF012008BDF8DB002092
:10FBE00008BD00000379012B12D002D3022B2CD1C7
:10FBF0001DE08268138823F01F031B041B0C0F29D0
:10FC000002D04900C9B200E01F2141EA03031AE013
:10FC10008268138823F4FC631B041B0C0F2902D099
:10FC20008900C9B200E03F2143EA41130BE082683A
:10FC300013885B055B0D0F2902D04900C9B200E0B3
:10FC40001F2143EAC1231380704702484FF48E718D
:10FC5000FDF7ACB9A675020810B50446FFF770FFB2
:10FC600030B1411EC9B22046BDE81040FFF7BABF0F
:10FC700010BD10B50446FFF763FF0E2806D8411CDF
:10FC8000C9B22046BDE81040FFF7ACBF10BDC86840
:10FC90004042704710B5044604F0F0FF014B204687
:10FCA000236010BD386E0208014B0360704700BF2F
:10FCB000806E020810B50446FFF7F6FF014B2046A0
:10FCC000236010BD586E020810B50446FFF7ECFF24
:10FCD000014B2046236010BDA871020810B50446F0
:10FCE00004F0CCFF014B2046236010BDC86E020813
:10FCF00010B50446FFF7F2FF014B2046236010BD0C
:10FD0000A86E020810B50446FFF7E8FF014B204635
:10FD1000236010BD4873020838B50D4B1B68D3F83B
:10FD2000BC40002C11DDD3F8B000013013F004FB0F
:10FD30000146084813F008FC0546204613F0FCFA7B
:10FD40000146284613F000FC38BD002038BD00BF36
:10FD5000F4A1002000BA5B4A37B50446FFF72EF83D
:10FD60002046FFF7D9FF13F001FD13F0E5FA082153
:10FD7000B4F90450B4F9064004F040FC1C351034CA
:10FD800000902146284600224FF61E03FDF7EEF8AC
:10FD90003EBD000038B5104B084610491C6813F0F2
:10FDA0001FFB0546D4F8BC0013F0C6FA01462846EE
:10FDB00013F016FB01460A4813F0C6FB13F0D6FCFD
:10FDC000D4F8B03001380128B8BF0120C4F8B00021
:10FDD000C01A18BF012038BDF4A100200000A041C6
:10FDE0004054894C2DE9F04711F0010904460D46B5
:10FDF00003D111F0020F00F0CE802046FFF78CFFF8
:10FE000000210646012713F09DFC00B9002717F0DA
:10FE1000FF0F03D162482321FDF7C8F8304661493E
:10FE200013F086FCE8B930465F4913F081FCD8B97D
:10FE300030465E4913F07CFCC0B930465C4913F093
:10FE400077FCA8B930465B4913F072FC90B9304694
:10FE5000594913F06DFC78B93046584913F068FCE5
:10FE600060B94FF07E570AE0554F08E04D4F06E06D
:10FE70004D4F04E04D4F02E04D4F00E04D4FB9F1C2
:10FE8000000F11D03046394613F066FC28B13046D9
:10FE9000394613F09BF9804600E0B0464046002109
:10FEA00013F046FC10B903E0B04601E04FF07E5875
:10FEB00015F0020F10D04046424913F02FFC20B13C
:10FEC0004046394613F084F980464046002113F03D
:10FED0002FFC08B14FF07E583946404613F034FBF2
:10FEE00013F044FC13F028FA394613F079FA4FF076
:10FEF0007E51074613F012FC08B14FF07E5738468A
:10FF0000314613F001FC002843D139462046FFF763
:10FF100041FF80462046FFF7FFFE314682463846C5
:10FF200013F01AFC38B15046314613F001FC00289A
:10FF300018BF4FF000083846314613F0EFFB20B1F0
:10FF40005046314613F0FEFB10B9B8F1000F16D140
:10FF50001D4BB9F1000F07D01B68D3F8B000B0F506
:10FF6000803F0CDA013005E01B68D3F8B0000128AF
:10FF700005DD0138C3F8B00080B2FDF781FA2046F4
:10FF800004F086FD2046E16846F67512002304F071
:10FF900086FD20462946BDE8F047FDF719BD00BFA4
:10FFA000F27702080000C84200007A4400401C4674
:10FFB0000050C347002474498096184B20BCBE4CA7
:10FFC000000020418096984BF4A1002010B5054C0C
:10FFD0002368586AFCF790FA2368986ABDE81040D5
:10FFE000FCF791BAF4A1002010B5054C89002368F4
:10FFF0005962FFF7EBFF2068BDE8104003F050BAEC
:020000040801F1
:10000000F4A1002010B5074C890023689962FFF71E
:10001000DDFF6420FCF72CFA2068BDE8104003F0F7
:100020003FBA00BFF4A100202DE9FF41044604F0CF
:100030001FFD4BF29655B4F90A204FF6FF730028C6
:1000400018BF1D46B4F90410B4F90830101F083B5E
:100050000C3A0090123102A8FEF717FA02A844F2F7
:100060000821FCF7AEFD02210A460B4602A80091CA
:10007000FEF72EFB02A8FEF749FB23688046DB69EA
:1000800020469847236807469B6A2046984723687E
:1000900006465B6A20469847A8F1100807FB08F758
:1000A000361ABDF8083097FBF6F7FF18BFB2ADF867
:1000B000087002A810372946ADF80C70FCF781FDD6
:1000C000BDE8FF81036870B5DB690E4604469847BA
:1000D00016F0010F05460DD0236820465B6A98474D
:1000E000854207DD236820461B6A691E9847204623
:1000F000FFF79AFF16F0020F0DD0236820469B6A87
:100100009847854207DA236820461B6A691C98478E
:100110002046FFF789FF20463146BDE87040FDF7D5
:1001200057BC10B50446FEF749FE2046BDE8104016
:10013000FFF77ABF0A4B73B51A6800F13004054621
:100140000E462046083201230649FFF7F4FC2846F4
:100150002146054A48F210430096FDF79BFE7CBD00
:10016000F4A10020DC7C02082278020807B5009187
:1001700011461A4648F21043FDF78CFE0EBD416051
:10018000704700007FB51546F023282204460E462E
:1001900000933C219B1802A8FEF777F92A4602AB90
:1001A000214D20462149009604F036FC04F1200040
:1001B0002146FFF7BFFF296804F1600630460C3185
:1001C000FFF7DDFF324604F168002146184BFFF7C8
:1001D000CDFF296804F1980630461031FFF7CFFFB4
:1001E000324604F1A0002146124BFFF7BFFF2968F9
:1001F00004F1D00630461431FFF7C1FF324604F156
:10020000D80021460C4BFFF7B1FF296804F584762E
:1002100030461831FFF7B3FF04F5887021463246A7
:10022000064BFFF7A3FF7FBDF4A100202F78020843
:100230004378020851780208617802086B78020856
:10024000436810B51C68002C06DB08F0A1FD0C23E8
:1002500003FB0404606810BD024BE44353F8240020
:1002600010BD00BFE47C020808B5FFF7E9FF13F0FA
:10027000CDFDC3004FF6F87003EA000008BD73B56A
:100280004FF6FF740E88002A08BF0024B1F902500F
:10029000FFF7D6FF29460090224630464FF61E0350
:1002A000FCF743FE7CBD000038B50C46154608F04F
:1002B0006FFD002C02DB08D1002D06DA114B2D1941
:1002C00015F1050FB8BF1D461AE0002D4FF00C03C5
:1002D0000ADD651C03FB040402E00C3483B1013524
:1002E000237B022BF9D10AE0651E03FB040403E023
:1002F00014F80C3D23B1013DB5F1FF3FF8D1014D9C
:10030000284638BD19FCFFFF10B544684FF0FF3296
:100310002168FFF7C9FF206010BD10B544680122B5
:100320002168FFF7C1FF206010BD000008B54368D9
:100330000A461968FFF7B8FF024BC01A18BF012020
:1003400008BD00BF19FCFFFF10B5044604F096FC81
:10035000014B2046236010BDF06D020810B5044625
:10036000FFF7F2FF014B2046236010BD2073020807
:1003700010B50446FFF798FC014B2046236010BDE2
:100380006873020810B50446FFF7A8FC014B20462D
:10039000236010BDB073020870B50546FFF79EFCE0
:1003A000064B2C4644F8203B05F1B0062046243489
:1003B000FFF7E8FFB442F9D1284670BD90730208F8
:1003C00010B50446FFF770FC014B2046236010BDBA
:1003D000D073020810B50446FFF75CFC214B2046A1
:1003E00040F8243BFFF78EFC04F14400FFF78AFC41
:1003F00004F16400FFF786FC04F18400FFF782FC3F
:1004000004F1A400FFF7B4FF04F1B000FFF7B0FF60
:1004100004F1BC00FFF7ACFF04F1C800FFF7A8FF30
:1004200004F1D400FFF7B8FF04F5C270FFF7A0FF96
:1004300004F5C870FFF79CFF04F5CE70FFF798FF36
:1004400004F5D470FFF794FF04F5DA70FFF7A4FF0A
:1004500004F51970FFF7B4FF04F51B70FFF748FCB3
:10046000204610BD808B020810B50446FFF736FC0D
:10047000014B2046236010BDF873020810B50446F6
:10048000FFF708FC2D4B204640F8643BFFF7ECFFDC
:1004900004F18400FFF7E8FF04F1A400FFF7E4FF94
:1004A00004F1C400FFF72EFC04F1E400FFF72AFC7E
:1004B00004F58270FFF726FC04F59270FFF722FC2A
:1004C00004F5A270FFF71EFC04F5B270FFF71AFCEA
:1004D00004F5C270FFF7EEFB04F5CA70FFF708FCE5
:1004E00004F5DC70FFF7E6FB04F5E470FFF700FCB1
:1004F00004F5F670FFF764FF04F5FA70FFF7F8FBF8
:1005000004F50670FFF75CFF04F50870FFF7F0FBD9
:1005100004F51170FFF72CFF04F51470FFF728FFA6
:1005200004F51770FFF724FF04F51A70FFF720FF9A
:1005300004F51D70FFF730FF204610BDA08A0208A9
:1005400010B5044604F09AFB114B204640F8203BBE
:10055000FFF704FF04F15000FFF7F6FE04F17C0002
:10056000FFF7F2FE04F1A800FFF7EEFE04F1D4005D
:10057000FFF7EAFE04F58070FFF7E6FE04F59670DB
:10058000FFF728FF04F57170FFF778FF204610BDD4
:10059000D88B020810B5044604F070FB054B2046CA
:1005A0002360012384F8283000232362002384F889
:1005B000293010BDA8AB020870B504460D4616469A
:1005C00004F05CFB024B256223606662204670BD2E
:1005D0009093020870B504460D46164604F04EFB93
:1005E000024B256223606662204670BD709302084C
:1005F00070B504460D46164604F040FB034BED0073
:10060000F600236025626662204670BD50930208A2
:1006100010B5202132220446FFF7CEFF014B2046C1
:10062000236010BD486D0208202110B50A4604461B
:10063000FFF7C2FF014B2046236010BD686D020822
:1006400010B5202107220446FFF7C4FF014B2046C6
:10065000236010BD886D020810B5202110220446C9
:10066000FFF7C6FF014B2046236010BDA86D0208AE
:100670007FB543890446A3F11802153BADF80A2063
:10068000ADF80E30066EFCF777FE4FF4C8756E437A
:10069000636EB6FBF0F001335D43ADF80800FCF784
:1006A0006BFE02ACB5FBF0F54FF6FF712046ADF8DE
:1006B0000C50FCF786FABDF808301AB2002A0EDD9D
:1006C0006A4694E8030082E80300ADF80430684607
:1006D00000234BF29651ADF80030FCF772FABDF8EA
:1006E0000C301AB2B2F5C87F0FDA6A4602A903C904
:1006F00082E80300ADF8003068464FF4C8734BF24F
:100700009651ADF80430FCF75CFA7FBD10B5044695
:1007100004F0B4FA044B20462360012384F820300F
:10072000013B636210BD00BFB874020804F0B0B9A9
:1007300047F269418A4201D1FFF7F8BF44F64441CC
:100740008A4205D001318A4202D1012280F820205C
:10075000704710B50446FBF77BFE40F22D13606036
:100760002381204610BD038813B940F22D13038165
:1007700009880180704738B504460D46FBF768FECE
:1007800062682389821A9A4215D923889BB12B80EB
:10079000238940F22D129342606002D14FF4967388
:1007A00007E0B3F5967F01D1642302E00A2B04D958
:1007B0000A3B238138BD00232B8038BD10B5044689
:1007C00004F05CFA014B2046236010BD4888020803
:1007D00010B5044604F052FA014B2046236010BDC8
:1007E000286D020810B50446FFF7AEFD014B204608
:1007F000236010BDC86D020810B50446FFF74AFA21
:10080000114B204640F8283BFFF754FA04F138001A
:10081000FFF750FA04F14800FFF74CFA04F15800D2
:10082000FFF748FA04F16800FFF762FA04F18C0060
:10083000FFF75EFA04F1B000FFF75AFA04F1D400B2
:10084000FFF756FA204610BD186E020870B505462F
:1008500004F014FA084B2C4644F8203B05F5AC761E
:1008600020463434FFF7BEFFB442F9D12046FFF7EB
:10087000C3FF284670BD00BF1090020810B50446A3
:10088000FFF762FD014B2046236010BD406F020858
:1008900010B50446FFF7F2FF014B2046236010BD60
:1008A000086F020810B50446FFF7E8FF014B204629
:1008B000236010BD786F020810B5044604F0DEF91D
:1008C000094B204640F8203BFFF7E2FF04F14C00C3
:1008D000FFF7E8FF04F17800FFF736FD04F1A4000C
:1008E000FFF732FD204610BDE86E020810B5044641
:1008F000FFF72AFD014B2046236010BDF86F020868
:1009000010B50446FFF7F2FF034B204640F8303B9A
:10091000FFF7D0F9204610BDD06F020810B504468D
:10092000FFF7C2F9014B2046236010BD207002087A
:1009300010B50446FFF7DAFF014B2046236010BDD7
:100940004870020810B5044604F098F9134B20468D
:1009500040F8203BFFF7D4FF04F16000FFF7DEFF13
:1009600004F16800FFF7E4FF04F19800FFF7D6FFF9
:1009700004F1A000FFF7DCFF04F1D000FFF7CEFF89
:1009800004F1D800FFF7D4FF04F58470FFF7C6FF29
:1009900004F58870FFF7CCFF204610BDB06F020849
:1009A00010B50446FFF7D0FC014B2046236010BD74
:1009B0007070020810B5044604F060F9194B204627
:1009C00040F8203BFFF776F904F13000FFF772F9A9
:1009D00004F14000FFF76EF904F15000FFF76AF9E7
:1009E00004F16000FFF766F904F17000FFF762F9A7
:1009F00004F18000FFF7D4FF04F1B000FFF7D0FF4F
:100A000004F1E000FFF7CCFF04F58870FFF7C8FFA2
:100A100004F5A070FFF7C4FF04F5B870FFF7C0FF3E
:100A2000204610BD1093020810B50446FFF75EFF84
:100A3000034B204640F8303BFFF73CF9204610BD01
:100A40009870020810B50446FFF77EFC014B204663
:100A5000236010BDC070020810B50446FFF774FC97
:100A6000014B2046236010BDE870020810B5044613
:100A7000FFF76AFC014B2046236010BD107102088D
:100A800010B5044604F0FAF8094B204640F8203B24
:100A9000FFF7CAFF04F16000FFF7D4FF04F18C00F8
:100AA000FFF7DAFF04F1BC00FFF7E0FF204610BDBE
:100AB000B09D020870B5054604F0E0F8064B2C46E0
:100AC00044F8203B05F1FC0620462C34FFF73CFCA3
:100AD000B442F9D1284670BD909E020810B5044674
:100AE00004F0CCF80D4B204640F8203BFFF72CFCDF
:100AF00004F14C00FFF728FC04F17800FFF724FC18
:100B000004F1A400FFF720FC04F1D000FFF71CFC67
:100B100004F1FC00FFF718FC204610BD009E0208FF
:100B200010B50446FFF710FC014B2046236010BDB2
:100B30003871020810B50446FFF706FC014B204649
:100B4000236010BD6071020810B50446FFF7A2F8DB
:100B50000D4B204640F8283BFFF7ACF804F1380075
:100B6000FFF7C6F804F15C00FFF7AEF804F16C0083
:100B7000FFF7BEF804F19000FFF7A6F804F1A0001B
:100B8000FFF7B6F8204610BD8871020810B504467C
:100B9000FFF78AF8014B2046236010BDF071020870
:100BA00010B50446FFF780F8014B2046236010BDC6
:100BB0001872020810B50446FFF76CF8154B204672
:100BC00040F8283BFFF7E2FF04F13000FFF7E8FFB1
:100BD00004F13C00FFF7E4FF04F14800FFF7E0FFF9
:100BE00004F15400FFF784F804F17800FFF780F86F
:100BF00004F19C00FFF77CF804F1C000FFF778F8DF
:100C000004F1E400FFF756F804F1F400FFF770F880
:100C1000204610BDD071020810B5044604F02EF82D
:100C20000D4B204640F8203BFFF77AFF04F15000BF
:100C3000FFF776FF04F18000FFF772FF04F1B000C8
:100C4000FFF778FF04F1E000FFF77EFF04F5D270B4
:100C5000FFF7B0FF204610BDC092020810B5044651
:100C600004F00CF8014B2046236010BD40720208CE
:100C700010B5044604F002F8014B2046236010BD75
:100C80006072020810B5044603F0F8FF014B2046DD
:100C9000236010BD8072020810B5044603F0EEFF19
:100CA000014B2046236010BDC072020810B50446F7
:100CB00003F0E4FF014B2046236010BDE072020800
:100CC00010B5044603F0DAFF014B2046236010BD47
:100CD0000073020810B5044603F0D0FF014B204614
:100CE000236010BD8894020810B5044603F0C6FFC7
:100CF000014B2046236010BD1874020810B504464D
:100D000003F0BCFF134B204640F8203BFFF7ECFFFD
:100D100004F14800FFF7E8FF04F17000FFF7E4FF7B
:100D200004F19800FFF7E0FF04F1C000FFF7DCFFDB
:100D300004F1E800FFF7D8FF04F58870FFF7D4FF4F
:100D400004F59C70FFF7D0FF04F5B070FFF7CCFFFF
:100D5000204610BDF888020810B5044603F08EFF47
:100D6000014B2046236010BD3874020810B50446BC
:100D700003F084FF014B2046236010BD7874020805
:100D800010B5044603F07AFF054B204640F8303B8F
:100D9000FFF7ECFF04F15000FFF7E8FF204610BD1D
:100DA0005874020870B5044603F068FF0A4B2046E9
:100DB00040F8303BFFF7DAFF04F15000FFF7D6FFB1
:100DC00004F1700504F1F00628462035FFF7CEFF48
:100DD000B542F9D1204670BD78AA020810B5044684
:100DE00003F04CFF014B2046236010BD58AA0208B7
:100DF00010B5044603F042FF054B204640F8203B67
:100E0000FFF7B4FF04F14000FFF7B0FF204610BD2C
:100E10009874020838B5044603F030FF5B4B204657
:100E200040F8203BFFF7CAFC04F1440001F02CFB22
:100E300004F53370FFF7CCFC04F54270FFF7E8FBD4
:100E400004F54C70FFF7F0FB04F55670FFF7F8FB64
:100E500004F56070FFF700FC04F56B7006F0E8FB2A
:100E600004F51A601C300AF0CBFF04F546600C3024
:100E7000FFF7ECFC04F56A601C30FFF71DFD04F57C
:100E800078600C30FFF75EFD04F586500C30FFF7FC
:100E900091FD04F592502C30FFF7F2FD04F59A50C5
:100EA0001830FFF707FE04F5A2501430FFF716FEC6
:100EB00004F5AA503C30FFF7AFFE04F5C05004F52E
:100EC000C2553830FFF7CAFE05F11800FFF7D0FE13
:100ED00005F1380004F5C455FFF7D4FE05F11800FC
:100EE000FFF7DAFE05F13800FFF710FC04F5C650F5
:100EF000243004F5C855FFF7D9FE281DFFF7E0FEA2
:100F000005F12400FFF71CFB04F500507C30FFF7CF
:100F100041FB04F50250283009F01AFE04F5085090
:100F200004F50A5514300DF0FFFF05F13800FFF706
:100F3000D1FE05F15800FFF7E1FE04F5105004F56D
:100F400012556030FFF708FF05F10800FFF718FFA2
:100F500005F178000BF0CDFC04F5145024300CF0B2
:100F6000F6F804F51A50FFF71DFF04F51C5004F5C0
:100F70001E557030FFF732FF05F11400FFF738FF00
:100F800005F17C00FFF7C2FB204638BD98810208BE
:100F900010B50446FFF73EFF04F520502C3002F058
:100FA00015FA04F534501830FFF7D3FB204610BD76
:100FB00010B5064C236813F0010F04D10448FFF765
:100FC000E7FF01232360024810BD00BF7C740020AE
:100FD00080740020F8B5046805460E461046214688
:100FE00012F0F4F80746B6F90200B6F90060801B6B
:100FF00012F0A2F90146384612F0F2F921460746EE
:10100000686812F0E3F80146384612F09DFA04468B
:10101000304612F091F90146204612F0D9F812F04C
:10102000A5FBF8BD0A4600F10801FFF7D3BF000099
:101030000A4B10B5C06A1C6812F07EF9084912F01C
:1010400083FA04F59A640C3401462046FFF7EAFF60
:1010500080B2BDE81040FCF709BA00BFF4A100203F
:101060000000204111F0010F70B504460D4609D073
:10107000C36A032B06DD013BC36203F009FD204672
:10108000FFF7D6FF15F0020F0AD0E36A182B07DC32
:1010900001332046E36203F0FBFC2046FFF7C8FF64
:1010A00020462946BDE87040FCF792BC70B5052388
:1010B000002408E0E5186D1030F91560B242B8BFA1
:1010C0002B46A8BF2C461D1B012DF3DC30F9145014
:1010D00051F8244051F82310521B091B4A4330F9A0
:1010E0001300451B92FBF5F0001970BDB0F90030FC
:1010F00010B50C684968D21A091B4A43B0F90200BE
:10110000C31A92FBF3F0001910BD00002DE9F8435B
:101110008F7930257D43B1F90A90064605F1180113
:101120004019144671184A460C30FFF7BFFF80463D
:1011300060607019011D4A46FFF7D8FF044BA0609C
:1011400053F8273090FBF8F0E0602360BDE8F883A7
:1011500098720208F0B5314D87B004460021043082
:10116000FBF72FFD2B68C826B3F89C30B4F90A10A2
:1011700073432B4A0539A1EB132100924FF61E034E
:10118000B4F9040046F20C32FBF74FFD296891F8E0
:101190005030E3B101F5577002AA4C31FFF7B6FFAA
:1011A0002F6802A907F55770FEF771FD80B246431C
:1011B000B4F90A101B4B0539B7F85420B4F90400F0
:1011C0000093A1EB16214FF61E03FBF72EFD2968B5
:1011D00091F83C3003B301F5EE7002AA3831FFF705
:1011E00095FF0E4B02A91D6805F5EE70FEF74FFD49
:1011F000C82100B24843B4F90A100539A1EB2021F7
:10120000E82909D8084BB5F84020B4F90400009348
:101210004FF61E03FBF709FD07B0F0BDF4A1002057
:10122000B95006084D510608545006080868904207
:1012300001DA0A6070479842C8BF0B60704713B567
:101240000B780C469B18009301A8FF2369460022E7
:10125000FFF7ECFF009B23701CBD00009D4B2DE9A8
:10126000F0411B68044693F8A8300D46072B03D0C5
:1012700099487C21FBF79AFE15F0020F29D0256BC7
:101280000EF030FF0368013B9D4280F2208104F1A3
:101290000408231D03CBC4F82600C4F82A104046D6
:1012A000FDF734FA256BA78C05FB00F6E38C96FB63
:1012B000F7F6023B9E19B6B2E6844046FDF726FAE1
:1012C000400090FBF7F70437F61901356685256372
:1012D00024E015F0010F26D0256B002D40F3F78098
:1012E000013D271D231D03CB2563C4F82600C4F848
:1012F0002A103846FDF70AFA4543A68CE38C95FB85
:10130000F6F5023B5D19ADB2E5843846FDF7FEF90E
:10131000400090FBF6F60436AD1965852046BDE821
:10132000F04103F0B5BB15F0040F3AD0256B002D4A
:1013300004DB0EF0D7FE03689D4203DB664897216D
:10134000FBF734FE0EF0CAFE216B626B411820469B
:10135000FFF775FF636B082B12D1256B0EF0C2FEF1
:10136000036801359D420BDA0EF0B8FE216B626B0B
:10137000013102EBD272411852102046FFF75FFF95
:10138000636B082B4FD1236B012B4CDD0EF0A6FEB7
:10139000216B626B013902EBD27241185210204668
:1013A0003FE015F0080F74D0256B002D04DB0EF024
:1013B00099FE03689D4203DB4748AD21FBF7F6FD2C
:1013C0000EF08CFE216B626B411852422046FFF7F3
:1013D00036FF636B082B13D1256B0EF083FE036879
:1013E00001359D420CDA0EF079FE626B216B02EB47
:1013F000D27201315210411852422046FFF71FFFAE
:10140000636B082B0FD1236B012B0CDD0EF066FEF6
:10141000626B216B02EBD2720139521041185242B9
:101420002046FFF70CFF0EF039FF261D231D03CBCE
:10143000C4F82600C4F82A103046FDF767F9276B78
:10144000E38C4743A58C013B97FBF5F7DF19BFB24F
:10145000636B07F10A081FFA88F8082BE784A4F8E1
:101460002A807FF45BAF3046FDF750F943005B42C2
:1014700093FBF5F30137FF18E7843046FDF746F993
:10148000400008F1FF3890FBF5F5A844A4F82A8045
:1014900044E715F0100F08D0636B2046082B14BFEB
:1014A00008230123636303F0F3FA15F0200F0ED035
:1014B000A36B1BB90848CA21FBF778FDA16B204636
:1014C00046F278520023BDE8F04103F0E8BABDE8E7
:1014D000F08100BFF4A100208277020800292DE9E5
:1014E000F74F0F46B8BF01F1FF073F1240F6FF73F9
:1014F000C8B207F10A099945A8BF99460D4611F0EF
:101500001BFF4FF06E5111F06BFF2B4911F068FF7C
:1015100011F07AFB12F094FD11F004FEA7F10A0419
:1015200024EAE4748046002637E02046FBF727FFD4
:1015300090F800A0204611F0FFFE8346284611F0E7
:10154000FBFE4FF06E5111F04BFF0146584611F073
:101550003DFE0021834612F0D7F878B95846174966
:1015600011F03EFFE31B13F0010F01460CBF08F121
:101570000040404611F0E8FF834601E04FF07E5BFB
:10158000504611F0D9FE0146584611F029FF014698
:10159000304611F01DFE013406464C45C5DD30468F
:1015A00012F0E4F869460090002201A8FF23FFF73B
:1015B0003DFE0098BDE8FE8FDB0F4940D80F494043
:1015C0002DE9F04FEBB00446FBF7D6FEFBF7BDFE6E
:1015D000FBF7FCFE0023054607AA41F28200D05229
:1015E0000233B3F5C67FF7D1B4F90800B4F90A1095
:1015F0009E4B283800932639002348F21042FBF70F
:10160000B6FC226E636EAD1A9B1AB3F5C87F4FF419
:10161000C87A03F101037BDB0AFB05F5002795FB84
:10162000F3F84FF0FF3A626E216E0132521A02FB5C
:1016300007F3BB4601377A434FF4C87093FBF0F3CE
:1016400092FBF0F25B185218002107A841F28205C4
:1016500045520231B1F5C67FF7D1C34508D100210B
:101660004FF01F0E20F801E00431B1F5C47FF7D12F
:101670004FF0FF3599462E461CE0484604920593EC
:10168000FBF77DFE0178C6204143059B090A07A8A8
:1016900040F2FF7E994520F811E0049A06D08E4270
:1016A000A8BF0E468D42B8BF0D4601E00D460E465E
:1016B00009F101099145E0DBBBF1000F05D055456B
:1016C000B8BF55465645A8BF564607A800EB460288
:1016D00033460AE032F8020B41F28201884204BF2D
:1016E0004FF4826122F8021C0133AB42F2DBC623C5
:1016F0005846B4F9061007AAFBF7C8FAB7F5C87F31
:1017000000F0A080AD1905EBD5754FEA650A8AE7B0
:101710000AFB05FA00264FF0FF379AFBF3FA35462D
:10172000BB4600E0CB46616E236E0131C91A01FB56
:1017300006F94FF4C87299FBF2F99944BBEB090B17
:1017400018BF4FF0010BBBF1000F05D04846FBF767
:1017500016FED0F800800AE0090271431B0291FBDB
:10176000F2F12046C918FFF7B9FE60F30708C62258
:101770005FFA88F35343C63A1B0A07A941F2820E67
:1017800021F802E00232B2F5C67FF6D1564506D105
:1017900000221F2088520432B2F5C47FF9D1F6B17D
:1017A0009D4204DB6A1C07A901EB420215E007AA6F
:1017B000691E02EB41012A4601324FF4826E9A42C1
:1017C00021F802EFF8D16A1CED43ED18551907E036
:1017D0004FF4826022F8020D013D9D42F8D11D4672
:1017E00007AABBF1000F0AD040F2FF7122F81310D4
:1017F0004BB1591E40F2FF7E22F811E003E04FF496
:10180000826022F81300B7F1FF3F08D007AA40F228
:10181000FF7122F8171017B1013F22F81710BBF122
:10182000000F14BF1F464FF0FF373046C623B4F9F0
:10183000061007AAFBF72AFA013640F291139E42DE
:101840007FF470AF0A4BB4F90A100093236E0020A6
:101850000193636E103902934FF6FF7248F2104302
:10186000FBF785FB6BB0BDE8F08F00BF7578020811
:101870007A780208FFF7A4BE10B544F64444A242A9
:1018800003D1BDE8104003F003BB44F64544A24237
:1018900004D1C821BDE8104003F014BA49B9042AA4
:1018A00007D146F26742934203D1BDE81040FFF7EB
:1018B00087BE10BD13B50446FFF782FE2046FEF733
:1018C000D7FEB4F90A3048F2104200920020A3F18A
:1018D00014014FF4C872FBF785F81CBDF0B5102950
:1018E00087B004460D4640F0B78003F048F804F195
:1018F0002003834240F0AA8000232366FBF73CFDCF
:101900006066FBF700FDA1E003F039F804F1200365
:10191000834241D1226E666EB61A0F2E01DD33115D
:1019200000E02B46D31A274647F8603FFBF724FD1B
:101930003946431E002205A8FFF778FC236E204697
:10194000F6186666FFF73CFE2046FEF791FE23E0A0
:1019500003F015F804F12003834244D1636E266E30
:101960009E1B0F2E01DD321100E00122D318274605
:1019700047F8643FFBF700FD3946431E002204A8E8
:10198000FFF754FC636E20469E1B2666FFF718FE89
:101990002046FEF76DFE26E0204602F0F0FF04F13F
:1019A0004003834252D1616E236ECA1A02EBD27297
:1019B0005B18521003EBD37302EBD2725B10A3EBF4
:1019C000620103EB620321666366FBF7D5FC04F159
:1019D0006001431E002203A8FFF728FCFBF7CCFCA4
:1019E000431E02A827E0204602F0C9FF04F140038D
:1019F00083422BD1216E626E531A5B0001338A1829
:101A000002EBD27203EBD371013303EBD3735210A9
:101A1000A2EB610102EB630221666266FBF7ACFC9C
:101A200004F16001431E002201A8FFF7FFFBFBF752
:101A3000A3FC431E684604F164010022FFF7F6FB95
:101A40002046FFF7BDFD2046FEF712FE2046294640
:101A500003F09BF807B0F0BD01293FF455AF022910
:101A60003FF476AF012997D00229EFD1BBE7000000
:101A700013B54FF000600A4900F0F6F800F0FAF9EB
:101A8000F2F7F4FB01A8FBF737FE01A8FBF751FEC4
:101A900004460028F9D101A8FBF74AFE20461CBDE8
:101AA00000C000080B4B4FF0FF316FF07042C3F8DD
:101AB0008010C3F88420C3F88011C3F88421002368
:101AC00003F1C001034A013300200F2B42F821002B
