:020000040801F1
:1040000000A0002091C00108697C01086B7C0108B8
:104010006D7C01086F7C0108717C010800000000C4
:10402000000000000000000000000000757C010896
:10403000737C010800000000777C0108797C01088E
:104040007B7C01087D7C01087F7C0108817C010864
:10405000837C0108857C0108877C0108897C010834
:104060008B7C01088D7C01088F7C0108917C010804
:10407000937C0108957C0108977C0108997C0108D4
:104080009B7C01089D7C01089F7C0108A17C0108A4
:10409000A57C0108A97C0108AB7C0108AD7C010866
:1040A000AF7C0108B17C0108B37C0108B57C010834
:1040B000B77C0108B97C0108AD7D0108AF7D01081E
:1040C000B17D0108B37D0108B57D0108B77D010808
:1040D000B97D0108BB7D0108BD7D0108BF7D0108D8
:1040E000C17D0108C37D0108C57D0108C77D0108A8
:1040F000C97D0108CB7D0108CD7D0108CF7D010878
:10410000D17D0108D37D0108D57D0108D77D010847
:10411000D97D0108DB7D0108DD7D0108DF7D010817
:10412000E17D0108E37D0108E57D0108E77D0108E7
:104130002DE9F04114200021454CF0F787F82420A8
:104140000121F0F783F823680720B3F95C11F0F739
:104150007DF823680820B3F85E11F0F777F83D4C3E
:1041600009200121F0F772F80B200121F0F76EF819
:10417000217800206431F0F769F82178364D01206C
:104180006431F0F763F82B680A209988F0F75EF83D
:104190002B680C209988314F0131F0F757F8052032
:1041A0000121F0F753F806F0B5FE20200146F0F7A4
:1041B0004DF84FF4FA6003F002F906200121F0F700
:1041C00045F8274E1420274D03F0F9F84FF400630B
:1041D0003B60336005F58048F0F72CF800F440733D
:1041E000B3F5807F45F8040B02D0B3F5007F03D10F
:1041F00080F4407045F8040C55F8041C3B6801F04D
:10420000FF02D21823783A609A42B8BF134A306846
:10421000B8BF1360090A01F0FF0109189942316023
:10422000B8BF0F493A68B8BF0B603168D21A45452C
:10423000C3EB01033A603360CED1D31A44BF03F518
:104240007E631F33084A1B131370BDE8F08100BF63
:10425000FC470020E038002064970020F84E002042
:10426000044F00200C4F00205E9700202DE9F04FF6
:10427000934B0024934DA1B01C7021460646142098
:10428000EFF7E4FFB5F994330A21013359430220D3
:10429000EFF7DCFF2046EFF7BDFF05202146EFF7E3
:1042A000D5FF24200121EFF7D1FF20200146EFF7B1
:1042B000CDFFB5F9E413A5F850410139032001EB16
:1042C0008101EFF7C3FF804D804B4FF4FA701880E7
:1042D0002B680720B3F9F810EFF7B8FF2B68082018
:1042E000B3F8FA10EFF7B2FF09202146EFF7AEFF5F
:1042F0000B202146EFF7AAFF11E028462146EFF7F1
:1043000085FF01354FF6FF70EFF782FFADB240F247
:104310008F139D42F1D11434A4B2DC2C01D00025BE
:10432000EBE700242046EF21EFF770FF01344FF652
:10433000FF70EFF76DFFA4B240F28F139C42F1D1F2
:1043400000200146EFF762FFEF24013C4FF6FF70BB
:10435000A4B2EFF75DFF002CF7D12C201421EFF76A
:1043600055FFB534013C4FF6FF70A4B2EFF750FF94
:10437000002CF7D158201421EFF748FF14340134F2
:104380004FF6FF70A4B2EFF743FFC92CF7D184209A
:104390001421EFF73BFF143C013C4FF6FF70A4B231
:1043A000EFF736FF002CF7D1C8201421EFF72EFFCE
:1043B000B534013C4FF6FF70A4B2EFF729FF002C93
:1043C000F7D1F4201421EFF721FF143401344FF614
:1043D000FF70A4B2EFF71CFFC92CF7D14FF4907017
:1043E0001421EFF713FFB53C01344FF6FF70A4B270
:1043F000EFF70EFFC92CF7D14FF4A6701421EFF799
:1044000005FF143C013C4FF6FF70A4B2EFF700FF2C
:10441000002CF7D121464FF4C770EFF7F7FEEF34C9
:10442000013C4FF6FF70A4B2EFF7F2FE002CF7D17B
:10443000274B06200093B92105222346254F01F082
:1044400011F8254D3120B92105222346DFF890804F
:10445000009701F007F85D20B92105222346009559
:1044600001F000F88920B92105222346CDF800800B
:1044700000F0F8FF194BCE200093B92140F205124D
:10448000234600F0EFFFF920B92140F20512234640
:10449000009700F0E7FF40F22510B92140F2051225
:1044A0002346009500F0DEFF4FF4A970B92140F2D9
:1044B00005122346CDF80080A62500F0D3FF4BE07F
:1044C000DA45002048310020FC470020CA45002082
:1044D0000CCF010811CF010816CF010823CF010826
:1044E0001BCF01084FF0140808FB04F8B94F294608
:1044F0003B680620434400930522002300F0B2FFEE
:104500003B6829464344009340F205120023CE2025
:1045100000F0A8FFB04A20A9125D0B1903F80C2C7B
:1045200001EB4402AD49143D31F81410ADB222F84C
:10453000501CAB49095D03F8241CAA49095D03F826
:10454000181CA94931F8141022F8641CA74A125DFE
:10455000013403F8302CA4B2A54B1A68984692880F
:10456000A242BFD2002504952F462C460520EFF726
:1045700071FE18B19F4A4FF4167313809D4801884D
:1045800089B241B90220EFF761FE14200121EFF753
:104590005DFE00F015BF21460A20EFF757FE2146C9
:1045A0000C20EFF753FE142002F009FF0121062032
:1045B000EFF74CFE142002F002FFDFF868928E4BFA
:1045C0004FF400618D4A19609A464B46116009F517
:1045D0008041A1461C4603910292EFF72BFE00F4A6
:1045E0004073B3F5807F44F8040B0399029A02D01C
:1045F000B3F5007F03D180F4407044F8040C54F804
:10460000040CD2F800E000F0FF0CDFF81CB2000A46
:10461000E64400F0FF0CDAF800009BF8003060443C
:10462000C3EB0E0EC01A8C42C2F800E0CAF80000BC
:10463000D1D1BEF1000F6949B8BF0EF57E6E31F8D9
:104640001920B8BF0EF11F0E4FEA2E3E02FB0EFEE0
:10465000DFF884C11EF5007244BF0EF5BE620F3252
:104660001CF909A000286049BCBF00F57E601F301E
:104670000AEBA22A31F8192000135043DFF864E155
:1046800010F5007248BF00F5BE624C461EF9099055
:1046900048BF0F3209EBA229594A1FFA8AFA11784A
:1046A0001FFA89F9002900F00985002111700C2DED
:1046B00000F20485DFE815F00D00CB003A01B501EA
:1046C000E5016902F4025A03190479049D04A9045E
:1046D000B504434A282492F900100020614301F5F3
:1046E000224103EBA121EFF7B1FDDFF800C19BF8F8
:1046F00000109CF9003001205C4304F5224401EBDA
:10470000A421CDF80CC0EFF7A1FD3E4B082000938B
:10471000D82140F20532002300F0A4FE3A4BE820F5
:104720000093D82140F20532002300F09BFE374B66
:104730004FF498700093D82140F20542002300F016
:1047400091FE334B08200093062140F205320023EE
:1047500000F088FE2F4A304B50201B780621009233
:1047600040F2054200F07EFEDDF80CC01C4CE34632
:10477000FEB92A4BD8210093B8203346052200F019
:1047800071FED8F8001033460BE0DFF84CE0134818
:104790000EF803204FF4806E20F813E0E25401334A
:1047A0009BB28A889A424FF00002EED2144600F083
:1047B00085BC012E40F00286194B40F20512009391
:1047C000B8200023D82100F04DFED8F800200023A7
:1047D00037E000BF6097002090480020E2380020BA
:1047E000E84700209A480020F6380020F2470020D1
:1047F00064970020D0450020044F0020F84E002090
:10480000D445002028CF01083FCF010849CF010837
:1048100053CF010842D10108D345002082CF0108BF
:1048200089CF01080C4F0020E0380020A948AA4990
:104830004FF4806EC45421F813E00BF803400133A9
:104840009BB2918800249942F0D200F037BCA34B70
:1048500008200093062140F205320023CDF80CC059
:1048600000F000FE0EBB5FFA8AF011AFA0F1280144
:10487000059049B2384602F045FF6FF013036343D9
:104880004FF6FE71A63303EA01012D200123052214
:10489000009700F0E7FDDDF80CC005991CF8043026
:1048A00028335B1A0CF8043024E0012E22D15FFA81
:1048B00089FCACF1280111AF384649B2CDF80CC0E3
:1048C00002F020FF6FF0130363434FF6FE71A6332F
:1048D00003EA010140F205123346F520009700F08B
:1048E000C1FD7C4ADDF80CC0135D2833CCEB030C12
:1048F00002F804C0D8F8003001349B88E4B2A34227
:1049000001D202250024764B282719579BF8003046
:10491000794301F5224103EBA1210020EFF796FC3A
:10492000704B1B575F4307F5224725E10137FFB264
:10493000072F88BF002756BB5FFA8AF311AAA3F19D
:104940002801104649B2CDF80CC00593029202F03E
:10495000D9FE6FF013036343029AA6334FF6FE713C
:1049600000922D2003EA01010522334600F07AFD72
:10497000BAF1280FDDF80CC034D01CF80430DDF893
:1049800014E02833CEEB03030CF8043029E0012EA9
:1049900027D15FFA89FC11AAACF12801104649B26F
:1049A000CDF80CC0029202F0ADFE6FF0130363432A
:1049B000029AA6334FF6FE710092F52003EA010138
:1049C00040F20512002300F04DFDB9F1280FDDF88B
:1049D0000CC007D03F48035D2833CCEB030C00F834
:1049E00004C017B90134E4B20027D8F800309B881E
:1049F000A34201D203250024394B9BF8002019570C
:104A00002823594301F5224102EBA1210020039301
:104A1000EFF71CFC334A039B1257534303F5224321
:104A200036E12F4A00201157A022514301F52031D1
:104A300001F5007103EBA1210292EFF707FC294B6E
:104A4000029A1B579BF800105A4302F5203202F5D8
:104A500000720137012001EBA221FFB2EFF7F6FB54
:104A600016B90FFA8AF303E0012E04D10FFA89F385
:104A70008C2BC8BF0425142F40F220830135EDB2E2
:104A80001CE3174F86BB11AB0AF16001184649B20F
:104A9000039302F037FE6FF013026243039BA632CA
:104AA0004FF6FE71009302EA01010123052259200D
:104AB00000F0D8FC0FFA8AF39B02A3F51E336FF0C7
:104AC0009F02A3F5F66393FBF2F33A5D9B183B5507
:104AD00034E000BF9A480020F638002090CF01084B
:104AE000E8470020F2470020012E27D111AB09F141
:104AF0006001184649B2039302F004FE6FF01302FE
:104B00006243039BA6324FF6FE7102EA0101009355
:104B100040F20512334640F2211000F0A3FC0FFAD8
:104B200089F39B028F49A3F51E336FF09F02A3F513
:104B3000F66393FBF2F30A5D9B180B55D8F800302F
:104B400001349B88E4B2A34201D2052500243B57DF
:104B5000A0277B439BF8001003F5203303F5007377
:104B600001EBA3210020EFF771FB7E4A13575F434F
:104B700007F5203707F500779BF80010012001EBBF
:104B8000A721EFF763FB002798E20137FFB2072F59
:104B900088BF00275EBB11AA0AF16001104649B226
:104BA000029202F0AFFD6FF013036343029AA63343
:104BB0004FF6FE710092592003EA010105223346A7
:104BC00000F050FC0FFA8AF3A02B3DD09B02DFF8D7
:104BD00098E1A3F51E336FF09F02A3F5F66393FBF4
:104BE000F2F31EF804209B180EF804302BE0012E7F
:104BF00029D111AA09F16001104649B2029202F0CE
:104C000081FD6FF013036343029AA6334FF6FE71E2
:104C1000009203EA010140F22110002340F2051244
:104C200000F020FC0FFA89F3A02B0DD09B024D4819
:104C3000A3F51E336FF09F02A3F5F66393FBF2F327
:104C4000025D9B18035517B90134E4B20027D8F868
:104C500000309B88A34201D2062500244249A023AC
:104C60000A579BF800105A4302F5203202F50072F1
:104C700001EBA22100200393EFF7E8FADFF8E4E06C
:104C8000039B1EF90420534303F5203303F50073FF
:104C90009BF80010012001EBA321EFF7D7FA0DE2FA
:104CA00001370498FFB2142F88BF072501282E4A28
:104CB00031D892F900102824614301F5224103EB19
:104CC000A1210020EFF7C2FA2649012091F9003016
:104CD0009BF800105C4304F5224401EBA421EFF79C
:104CE000B5FA56B90FFA8AF3312B00F36783049AA9
:104CF0000125531CDBB2049360E3012E40F05E8378
:104D00000FFA89F3312B00F35983049C3546631C59
:104D1000DBB2049352E392F900101924614301F5C8
:104D2000CC4103EBA1210020EFF790FA0D489BF84E
:104D3000001090F9003001205C4304F5CC4401EBF5
:104D4000A421EFF783FA16B90FFA8AF304E0012ED3
:104D500040F034830FFA89F3362B00F32F830135AB
:104D6000EDB22BE3F2470020E8470020B74B2020AC
:104D70000093D82140F20532002300F073FBB44ABF
:104D80000C2101FB0422DFF814B358209BF80030FB
:104D9000CC31009240F2054200F064FBAD4BA02004
:104DA0000093D82140F20532002300F05BFBAA4BB0
:104DB00008200093062140F20532002300F052FB48
:104DC000A64A9BF8003090200092062140F205424E
:104DD00000F048FBA24A9BF80030B0200092062168
:104DE00040F2054200F03EFB9E4BD8200093062186
:104DF00040F20532002300F035FB9B4A9BF800305F
:104E00004FF4A8700092062140F2054200F02AFB00
:104E1000964A9BF800304FF4B8700092062140F299
:104E2000054200F01FFB66BB0FFA8AF3232B0ADD55
:104E30008F4A14211268193B01FB0422116911A841
:104E40000096594302E0009611A83146894A03238F
:104E500002F0BEFA6FF01302624311A99BF8003012
:104E6000A63200914FF6FE71862002EA010105226A
:104E700000F0F8FA804B4FF4A4700093D82105227B
:104E8000DFE0012E40F01A810FFA89F3232B0BDDAE
:104E9000774A14211268193B01FB04221169002290
:104EA000009211A8594302E00021009111A8714A13
:104EB000032302F08DFA6FF01302624311A99BF8ED
:104EC0000030A63200914FF6FE7102EA01014FF464
:104ED000A77040F2051200F0C5FA684B4FF4A470B9
:104EE0000093D82140F20512ABE0654B08200093F7
:104EF000062140F20532002300F0B4FADFF89CB13D
:104F0000594A9BF8003060200092062140F2054289
:104F100000F0A8FA554A9BF8003080200092062144
:104F200040F2054200F09EFA564B8820009306217D
:104F300040F20532002300F095FA534B082000930D
:104F4000D82140F20532002300F08CFA4F4B70203C
:104F50000093D82140F20542002300F083FA4C4A26
:104F60009BF8003048200092D82140F2054200F022
:104F700079FA56B9474B4FF4A4700093D821052213
:104F8000334600F06FFA049698E0012E40F09480CA
:104F9000414BD82100934FF4A47040F20512002336
:104FA00000F060FA0021049188E0394A3B4B482028
:104FB0001B78D821009240F2054200F053FA384B9A
:104FC00070200093D82140F20542002300F04AFAF5
:104FD00046B9344B4FF494700093D82140F2051237
:104FE00033462FE0012E69D12F4B4FF4947000937C
:104FF00044E7274A294B48201B78D821009240F2E9
:10500000054200F02FFA294B16E0214A234B482095
:105010001B78D821009240F2054200F023FA244B7D
:105020000AE01B4A1D4B48201B78D821009240F211
:10503000054200F017FA1F4B00937020D82140F270
:105040000542002300F00EFA38E000BFBFCF010890
:1050500000300020C7CF0108DDCF0108F7CF0108DD
:10506000F9CF0108FBCF010812D0010814D00108C4
:10507000609700205835002016D001081DD0010887
:1050800024D0010836D0010857D0010865D00108A6
:1050900042D1010883CF01088ACF0108D3450020FF
:1050A00081D0010899D00108A3D00108ADD0010832
:1050B000CFD00108F1D0010800220492DFF8D0B26D
:1050C0009BF80030002B3FF451AAA64B4FF4167EFC
:1050D000A3F800E0D8F800309B88A34223D3072D23
:1050E00021D16EB96FF01303634311AAA6334FF6B3
:1050F000FE71009203EA010186200522334610E08A
:10510000012E10D16FF01303634311AAA6334FF69B
:10511000FE71009203EA01014FF4A77040F20512FC
:10512000002300F09FF99BF80030023B072B00F2B0
:105130004081DFE813F008003E013E01EC0007016A
:105140003E01D700C800002D08BF0125A5F10803C6
:10515000DBB2012B50D8092D04BFC6F10106F6B20F
:105160004FF00009A62540E0C6B9DFF828A22D209F
:10517000294605223346CDF800A000F073F95920E6
:10518000294605223346CDF800A000F06BF9764B96
:10519000862000932946052233461EE0012E1ED1AB
:1051A000DFF8F0A1F520294640F205120023CDF8E2
:1051B00000A000F057F940F22110294640F20512F4
:1051C0000023CDF800A000F04DF9674B4FF4A77015
:1051D0000093294640F20512002300F043F909F13B
:1051E0000109143D1FFA89F9ADB2D8F800309B8847
:1051F0004B45B9D20025DCE0092D40F2DA800A2DBA
:105200002DD1D8F80000002322E020A9CA1812F8F6
:105210000C1C564C20ADE15405EB430131F8505CB9
:10522000534CDFF864E124F8135012F8245C514C1D
:1052300031F8641CE55412F8184C0EF803404E4C3B
:1052400024F8131012F8301C4C4AD15401339BB28D
:1052500082889A42D9D201F081FF494B24E00B2D7C
:1052600003D101F07BFF474B1EE00C2D24D1D8F871
:105270000010002312E03E484FF4806420F81340F1
:105280003C480022C254394D3B48EA5420F81340B0
:105290003D4D3A48EA54C25401339BB28A889A423F
:1052A000E9D201F05BFF394B00930820D82140F28E
:1052B0000542002300F0D6F84FF47A7002F07FF830
:1052C00005F070FC7CE0072D04D1002C71D0013C6E
:1052D000E4B26EE0082D01D9013DEDB2082D08BF02
:1052E0000C2566E0072D03D90135EDB20C2D04D84D
:1052F000072D03D10134E4B200E00825D8F80030CE
:105300009B88A34255D20135EDB2002451E0072D10
:105310004FD14EB90FFA8AFABAF1230F49DD144979
:1053200031F81430023B42E0012E42D10FFA89F9E4
:10533000B9F1230F3DDD104A32F81430023B22F858
:10534000143036E0072D34D136BB0FFA8AFABAF1A1
:10535000230F2EDD064830F81430023320F81430C5
:1053600027E000BFD04500203CD101089048002034
:10537000E2380020E8470020F6380020F2470020FD
:1053800013D1010844D101089A48002075D10108C1
:10539000DA4500203ED10108012E0AD10FFA89F921
:1053A000B9F1230F05DD084931F81430023321F833
:1053B000143000238BF80030FFF7D8B800247DE6C6
:1053C00021B0BDE8F08F00BFF6380020A0F1200327
:1053D000DBB2012B06D92238034B01EBC00033F8B6
:1053E0001000704700207047A6D101082DE9F04752
:1053F0000E461D4600F10A0106F10A0314469BB24F
:10540000324689B2EEF70AFF0B235D434FEA1428B8
:105410000026124B002703EB450333F8069049FAA8
:1054200007F313F0010F0E4B0ABF04F00F0203EB5A
:10543000480303EB4203B3F828060137EEF7E8FE12
:105440000B2FECD10236162EE3D1002040F28F1143
:105450000246EF23BDE8F047EEF7E0BE76D701083D
:10546000A6D101082DE9F14F0F461D4601F10A03AF
:10547000144640F28F113A469BB20A9EEEF7CEFEDA
:105480004FEA14294FF00B082E4F25B904F00F03F3
:1054900007EB430301E007EB490308F1FF38B3F8DA
:1054A00028061FFA88F8EEF7B3FEB8F1000FEBD12B
:1054B0003AE04FF0000816F8010CA0F12003DBB22F
:1054C000012B05D95FFA88F1FFF780FF834603E0DF
:1054D000212804D04FF0000B4FF0000A03E0B8F190
:1054E000040FF7D120E00FFA8BF303FA0AF313F459
:1054F000806F01D00DB905E025B904F00F0307EB6B
:10550000430301E007EB4903B3F828060AF1010A57
:10551000EEF77EFEBAF10B0FE5D108F101081FFA94
:1055200088F8B8F1080FC6D116F8010B0028C0D1D1
:1055300040F28F110246EF2301B0BDE8F04FEEF7C5
:105540006DBE00BFA6D101082DE9F8431E4F80466D
:105550007B264FF49674B4F5997F1CD820466C21B5
:1055600097F82350EEF752FE4FF0080915F0010F9F
:1055700001D0002000E0404609F1FF391FFA89F907
:10558000EEF746FEB9F1000F01D06D08EEE7404698
:10559000EEF73EFE0EE0A4F1C605ADB22046294668
:1055A000EEF734FE04E04046EEF732FE0135ADB2D0
:1055B000B542F8DB0134A4B240F23713013E0137A3
:1055C0009C42C8D1BDE8F883EED701082DE9F74F1A
:1055D000A92306460F4690460B204FF496713C22B5
:1055E000EEF71CFE350A4FF06E094C4C27B906F059
:1055F0000F0304EB430301E004EB450309F1FF391A
:10560000B3F828061FFA89F9EEF702FEB9F1000F88
:10561000EBD171E04FF0000918F8010CA0F1200364
:10562000DBB2012B05D95FFA89F1FFF7CFFE834684
:1056300003E0212804D04FF0000B0522019251E035
:10564000B9F1040FF7D157E00FFA8BF303FA0AF31D
:1056500013F4806F1ED06FB90A2304EB4502B2F831
:1056600028060093EEF7D4FD009B013BDBB2002B34
:10567000F3D12DE00A2306F00F0204EB4202B2F848
:1056800028060093EEF7C4FD009B013BDBB2002B24
:10569000F1D11DE07FB90A2306F00F0204EB4202AC
:1056A000B2F828060093EEF7B3FD009B013BDBB296
:1056B000002BF1D10CE00A2304EB4502B2F82806D6
:1056C0000093EEF7A5FD009B013BDBB2002BF3D16D
:1056D0000AF1010ABAF10B0FB6D1019A531EDBB2DF
:1056E000019313B14FF0000AAEE709F101091FFA67
:1056F00089F9B9F1080F8FD118F8010B002889D169
:10570000024640F28F11EF23EEF788FD04EB4504CB
:10571000B4F8280603B0BDE8F04F15E7A6D101089C
:10572000F8B51F460C46BDF818509DF81C60089B44
:1057300032E0BCF1210F14BF092105219042114430
:1057400029D3884227DA411E891A89B211F4004F01
:1057500004D16046C9B2FFF739FE00E00020290AF3
:1057600004EB4704002302B29A4012F4806F0D4A02
:1057700001D00EB905E026B905F00F0702EB47028C
:1057800001E002EB4102B2F8282601332280023404
:105790000B2BE8D1F8BD8AB213F801CBBCF1000F96
:1057A000C7D1F8BDA6D101082DE9F0430C4689B058
:1057B000A0F10C09A0F10B0105464FEA89094FEA57
:1057C000810804AF06AB0DF11902002600203870E5
:1057D00057480FFA89FC00EB560010F80CC002F88D
:1057E00001CC0FFA88FC10F80C00587012F8010C6C
:1057F000C72801D9C72002E0012802D8012002F8F9
:10580000010C5878C72801D9C72002E0012801D827
:105810000120587012F801CC5878604510D1012849
:1058200001D0C72802D10120387009E0012802D92F
:10583000013802F8010C5878C62801D80130587098
:1058400012F801CC5878844584BF83F801C002F86F
:10585000010C0236F6B2023702330232082EB5D1FD
:10586000344E0022334604A8805CA8B9B6F9100073
:1058700090B106AFB85CBF187F780BE0DFF8CCC002
:1058800034F810803CF802C048EA0C0C24F810C030
:105890000130C0B2B842F1D902325036082AE2D102
:1058A000254E3278002A5DD0FF295BDC234A32F98D
:1058B00011000122C728A8BFC72005E04FF4FC67EC
:1058C00024F812700132D2B28242F7DB1C4A12680D
:1058D000101F814202D0101D814210D119490A784F
:1058E000013A06E018484FF01F0824F8128005809E
:1058F0000132B1F90000D2B29042F3DA32E0D01EA8
:10590000814202D0D01C814207D10E4A4FF01F0CB9
:10591000B2F9002024F812C024E0501F814202D0C6
:10592000053291421ED107490A78023A14E000BFBD
:10593000A448002048310020EA4500200E8F0020B6
:105940004C9700204897002010390020CED701083E
:105950001F2024F812000132B1F90000D2B2013048
:105960009042F5DA9B4A1278002A40F03081B3F970
:10597000401291420DD19849984831F9221000EB1C
:10598000420034F81170B0F8280647EA000024F805
:105990001100B3F81812C1F1A10109B20B2929DDD8
:1059A0008D4211D18E4890F81A0210F0040F0BD1DD
:1059B000204604F5C97C478847F4A26747F00F07E3
:1059C000478006306045F6D1481E854202D0481C0B
:1059D000854205D140F21F5CA4F890C1A4F800C034
:1059E0008D4207D140F21F50A4F89001A4F88E0117
:1059F00060802080B3F830130B3109B28D420FD193
:105A0000774890F8320310F0040F09D1204604F5CE
:105A1000C9774FF0FF38A0F802800630B842F8D1BD
:105A2000481E854202D0481C854205D14FF0FF3CFC
:105A3000A4F890C1A4F800C08D4207D14FF0FF3008
:105A4000A4F89001A4F88E0160802080B3F844137C
:105A50000B3109B28D420FD1614890F8460310F026
:105A6000040F09D1204604F5C9774FF0FF38A0F89C
:105A700002800630B842F8D1481E854202D0481C48
:105A8000854205D14FF0FF3CA4F890C1A4F800C0B6
:105A90008D4206D14FF0FF30A4F89001A4F88E019A
:105AA00060800132042A7FF462AF0C2D04D04D4A8D
:105AB0005288013A954209D1B3F990224FF0FF3153
:105AC00024F81210B3F9A42224F8121093F89222A9
:105AD00012F0040F06D1424A4FF0FF37B2F990227C
:105AE00024F8127093F8A63213F0040F06D13C4B41
:105AF0004FF0FF38B3F9A43224F813803378002B29
:105B000065D04FF6FF73009301230193364BF522C6
:105B10000293284604232146FFF702FE334B1B88DD
:105B20001AB2052A28DD2F4A9188222998BF4FF002
:105B3000230C19B298BFA2F804C0A4292C490CDD8B
:105B400092884FF6FF73143A009301230193029158
:105B50002846214692B2B1330CE092884FF6FF708E
:105B6000143A0E33009001200190029128462146FC
:105B700092B29BB2FFF7D4FD1E4B4FF6FF77012682
:105B80000293284621460F22BD2300970196FFF776
:105B9000C7FD194B2846029321463222BD230097A8
:105BA0000196FFF7BDFD154B284602932146C822FA
:105BB000BD2300970196FFF7B3FD114B28460293D2
:105BC0002146EB22BD2300970196FFF7A9FD09B0FE
:105BD000BDE8F083EB4500206C300020A6D1010821
:105BE00048310020103900202497002048970020D9
:105BF0005097002000E001083C97002005E00108D4
:105C0000309700200D4B5B88834201D00B2801D1D7
:105C10000B4811E00B381E2390FBF3F203FB120339
:105C20000BB9084808E0062390FBF3F203FB1200CF
:105C300008B9054800E00548EEF7FABA1039002027
:105C400018D80108AAD901083CDB0108CEDC0108FC
:105C5000B0F5827F30B50B4604D0154A441C5288FB
:105C6000944201D113481DE00B2801D111481AE0DC
:105C7000A0F10A02192492FBF4F504FB152424B9BF
:105C8000B0F5827F01D20C480DE0052192FBF1F1C5
:105C900001EB81018A4204D1B0F5827F01D207482D
:105CA00000E007481946BDE83040EEF7C1BA00BF32
:105CB0001039002018D80108AAD901083CDB0108D6
:105CC000CEDC01080148EEF7B3BA00BFCEDC010814
:105CD00038B5002410E0294620460135EEF796FA43
:105CE000ADB20020EEF794FAD72DF4D10134A4B26E
:105CF00040F239139C4201D00B25ECE7024B002205
:105D000083F82E2238BD00BF4831002003282DE93A
:105D1000F84305460E4606D8484B502202FB003396
:105D2000B3F94C3002E0464B33F92130C52B00F378
:105D300083800024A7B2062F34D8032D414B0BD803
:105D400003EBC5035B1B13F804803C4B502202FBA2
:105D50000533B3F84C1005E01B1993F81C80384B41
:105D600033F826100931384689B2EEF74FFA082782
:105D700018F0010F01D0002004E0334B03EB460381
:105D8000B3F82806013FBFB2EEF742FA17B14FEA67
:105D90005808EDE72C4B03EB4603B3F82806EEF763
:105DA00037FA45E0032D25D8DFF890804FF05009F1
:105DB00009FB0589B9F84C1038460331791889B2C6
:105DC000EEF724FAB9F84C300333FF1807E01E4B06
:105DD000013703EB4603B3F82806EEF719FA502310
:105DE00003FB0583B3F94C30BFB218331B1B9F4232
:105DF000EDDB1DE0DFF84880384638F82610033127
:105E0000791889B2EEF702FA38F826300333FF1812
:105E100007E00D4B013703EB4603B3F82806EEF716
:105E2000F7F938F92630BFB218331B1B9F42F0DB5D
:105E300001340B2C7FF47EAFBDE8F883483100209D
:105E40006C300020EED70108A6D101082DE9F843F7
:105E5000EEF7ECF9002528460C21EEF7D7F9CB2612
:105E6000013E0020F6B2EEF7D3F9002EF8D101354D
:105E7000ADB20B2DEFD1A84B1B78002B40F04A811F
:105E8000A64CB4F910301BB130463146FFF73EFF47
:105E9000B4F960301BB101200146FFF737FFB4F9B8
:105EA000B0301BB102200146FFF730FFB4F90031DA
:105EB0001BB103200146FFF729FFB4F9401211B9C5
:105EC0000720FFF723FFB4F94012012902D1072070
:105ED000FFF71CFFB4F94012022902D10720FFF797
:105EE00015FFB4F94012032902D10720FFF70EFF76
:105EF0008B4F0C217888CB26013080B2EEF786F9E3
:105F0000B946013E0020F6B2EEF782F9002EF8D134
:105F100011E01FFA85F80C214046EEF777F90020D2
:105F2000EEF776F94046D621EEF770F90020EEF74D
:105F30006FF90135ADB2B9F8023006F10B02013349
:105F400001369A42764FE4DDB4F890120A200B3104
:105F500089B2EEF75BF94FF6FF70EEF759F94FF69D
:105F6000FF70EEF755F94FF6FF70EEF751F94FF667
:105F7000FF70EEF74DF94FF6FF70EEF749F9B4F800
:105F8000A4120A200B3189B2EEF740F94FF6FF70E8
:105F9000EEF73EF94FF6FF70EEF73AF94FF6FF7065
:105FA000EEF736F94FF6FF70EEF732F94FF6FF7065
:105FB000EEF72EF97888B4F8901201300B3189B2DF
:105FC00080B2EEF723F94FF6FF70EEF721F94FF6A6
:105FD000FF70EEF71DF94FF6FF70EEF719F94FF667
:105FE000FF70EEF715F94FF6FF70EEF711F97888AC
:105FF000B4F8A41201300B3189B280B2EEF706F981
:106000004FF6FF70EEF704F94FF6FF70EEF700F968
:106010004FF6FF70EEF7FCF84FF6FF70EEF7F8F86A
:106020004FF6FF70EEF7F4F8B4F81872C7F1A10755
:10603000BFB23BB20B2BB84620DD023FBFB23E469B
:10604000002514E01FFA86F90C214846EEF7DEF829
:1060500040F21F50EEF7DCF84846D621EEF7D6F8AE
:1060600040F21F50EEF7D4F80136B6B201353AB21D
:106070000FFA88F3AA1802339A42E3DDB4F83083AA
:10608000002508F10B07BFB2BE1EB6B214E01FFA1E
:1060900086F90C214846EEF7B9F84FF6FF70EEF797
:1060A000B7F84846D621EEF7B1F84FF6FF70EEF795
:1060B000AFF80136B6B2013508F1090212B23BB2AF
:1060C000AA1802339A42E2DDB4F84473002407F1BF
:1060D0000B06B6B2B51EADB214E01FFA85F80C215E
:1060E0004046EEF793F84FF6FF70EEF791F8404612
:1060F000D621EEF78BF84FF6FF70EEF789F80135F1
:10610000ADB2013407F1090212B233B2A218023360
:106110009A42E2DDBDE8F883EB45002048310020DB
:10612000103900202DE9F84359200021EEF76EF8D0
:106130000C24013C40F21F50A4B2EEF769F8002C89
:10614000F7D121465A20EEF761F80C34013C40F2B9
:106150001F50A4B2EEF75CF8002CF7D121464FF4A3
:106160009A70EEF753F80C34013C40F21F50A4B281
:10617000EEF74EF8002CF7D1214640F23510EEF73D
:1061800045F80C34013C40F21F50A4B2EEF740F841
:10619000002CF7D15B261CE028460021EEF736F8EC
:1061A0000027444B185B384110F0010018BF40F243
:1061B0001F500137EEF72CF80C2FF2D102340135C5
:1061C000102CADB2E8D10836B6B240F233139E427D
:1061D00003D0B6B235460024DEE7374CC820B4F908
:1061E00018320021584340F6886390FBF3F05B308F
:1061F00080B2EEF70BF80925013D4FF6FF70ADB206
:10620000EEF706F8002DF7D104F076FFB4F9183256
:10621000C822534340F6886293FBF2F34FF64C6278
:1062200092FBF0F25C339B18294698B2EDF7EEFF33
:106230000935013D4FF6FF70ADB2EDF7E9FF002DD6
:10624000F7D12E4627E0B4F918024FF0C80909FB30
:1062500000F040F6886890FBF8F0B7B25B30381871
:10626000002180B2EDF7D2FF4FF6FF70EDF7D0FFBF
:10627000B4F91832092109FB03F999FBF8F808F180
:106280005B084744B8B2EDF7C1FF4FF6FF70EDF77A
:10629000BFFF0136B6B204F02FFF4FF64C622B461B
:1062A00092FBF0F201359A42CDDA002384F82E32C7
:1062B000BDE8F88360DE01084831002038B54FF4AE
:1062C0009C740FE0294620460135EDF79FFFADB2E3
:1062D0000020EDF79DFFD82DF4D10134A4B2B4F520
:1062E000C87F01D00B25EDE7024B002283F82E2258
:1062F00038BD00BF483100202DE9F0430023274C72
:106300001A46274D94F80090EE791FFA82FC4E440D
:10631000643EB6B206F1FF391FFA89F9B9F1C60F2A
:1063200014F8018CAF790DD847446C3FBFB24FB120
:10633000F92F07D8874205D131F8167047F4FC676A
:1063400021F81670EE7966450DD105280BD9144E4B
:10635000B679371D874206DB043E864203DCCE5AFF
:1063600066F4FC66CE52AD7985420ED1BCF1050FC4
:106370000BD90B4DED792E1D964206DB043D95425F
:1063800003DCCD5A65F4FC65CD520132043402338E
:10639000B2F5807FB5D1BDE8F08300BFA5480020ED
:1063A00010390020020C0302D2B2400903F47843F2
:1063B00043EAD20300F4FC6043EA0000704710B5E2
:1063C000084B03F5C77233F9020F074CC728A8BF63
:1063D000C72004EB4000B0F8CA0C934221F8020F2A
:1063E000F1D110BD0E8F0020A6D101082DE9F0419A
:1063F0002A4E4FF4F07206F1080300F0010702FB89
:106400000735044687F0010702FB0737EDF70EFF5B
:106410000D212046EDF7FAFE214AB2F9F031002BAA
:1064200036DB042B02DD052B32D124E0B2F800313B
:10643000A3F10D0292B2012A0DD820463946FFF78A
:1064400041FC0B2C24D97388A34221D9204629462C
:10645000FFF7B5FF1CE00A2B1AD020463946FFF79C
:10646000D1FB0B2C14D97388A34211D9204629469D
:10647000FFF79AF90CE020463946FFF7E9FB0B2CB1
:1064800006D97388A34203D920462946FFF734FF73
:106490002846C921BDE8F041EDF7C4BE10390020FF
:1064A0004831002070B52A482A49EDF7C1FEEDF7C2
:1064B000BDFE294AB2F9F031052B0AD1B2F91030EC
:1064C0003BB9264969205854043340F224618B4279
:1064D000F7D1B2F9F031052B0CD11F4BB3F9603075
:1064E00043B91E4B03F5C461043164205870043372
:1064F0008B42FAD1B2F80031194CA3F10D0292B2DD
:10650000012A11D8B4F8C82363889A4202D900231B
:10651000A4F8C833B4F8C803FFF768FFB4F8C83369
:106520000133A4F8C8330BE00A2B09D00B2504E093
:106530002846FFF75BFF0135ADB26388AB42F7D267
:106540002388A380EDF76CFEBDE87040EDF76EBECA
:10655000CEDC01081839002048310020A448002072
:106560001039002013B503460C4601A8194601F066
:10657000AFF89DF80430002023719DF80530637159
:106580009DF80630A3711CBD4FF6FF73984252D0A0
:106590001F3B00EA03034FF6E07293424DD04305E0
:1065A0005B0D40F2FF72934249D04FF61F0300EAA1
:1065B00003034FF61F02934243D000F4FC63B3F58C
:1065C000FC6F40D04BF6E05300EA03034BF6E05279
:1065D00093423AD040F2F75300EA030340F2F752F5
:1065E000934234D04BF6170300EA03034BF617022D
:1065F00093422ED000F4BC63B3F5BC6F2BD04BF6A6
:10660000F75300EA03034BF6F752934225D040F2CA
:106610001F5300EA030340F21F5293421FD000F4BD
:106620007843B3F5784F1CD000F01F001F2814BF2B
:106630000D200C2070470020704701207047032078
:1066400070470520704707207047022070470420DC
:1066500070470620704708207047092070470A20BD
:1066600070470B20704730B5164A87B05168044612
:1066700010686B4603C39068694618602046FFF7B0
:1066800071FF1148694603AA05ABEDF7FFFD04460B
:10669000A0B905460C4803A9EDF7FAFD68B90B4906
:1066A0004FF4C8724819A1F5007105F5C87506F0D8
:1066B000CDFAB5F5C86FEDD100E00824204607B04B
:1066C00030BD00BF0AE00108DA3C0020DA3E0020BD
:1066D00070B52A4A88B051680446106801AB03C3FC
:1066E000906801A91860002320468DF81030FFF74C
:1066F00039FF234801A905AA07ABEDF7C5FD204ED8
:106700000446002835D1304621464FF4007206F089
:1067100045FB1C4D1EE01C496118C95C043302F89E
:10672000011F40F23C618B42F5D1B5F84C3005A910
:10673000134886F88F31EDF7ADFD0146D8B9FE203C
:1067400004F0030340F20A520134FEF74FFE5035C5
:10675000042C02D00D4A0023DDE709484FF4006104
:1067600005AA07ABEDF798FD002814BF092000200B
:1067700002E00A2000E0092008B070BD0AE001082C
:10678000DA3C002048310020A4480020DB3C0020F7
:106790002DE9F047484A86B05168044610686B46B8
:1067A00003C39068694618602046FFF7DBFE434844
:1067B000694603AA05ABEDF767FDDFF80081002805
:1067C00073D13F4B424603F1340153F8040B8B4223
:1067D00042F8040BF9D11B881380384B0022394949
:1067E0000024895A023201F47840001283F83600FE
:1067F00001F4FC60C010C90083F8370083F838103A
:1068000083F839400433202AE9D17627264638E038
:1068100021462846EDF7FAFCEDF726FD8146681C77
:10682000214680B2EDF7F2FCEDF71EFD82464846A8
:10683000FFF7AAFE81465046FFF7A6FE00EB0910BF
:1068400008F807000137BFB2B7F5007F10D31B4827
:1068500003A9EDF71FFD074648BB7308FE2001366C
:10686000394640F20A5203F00303B6B2FEF7BEFD0A
:106870000235ADB2B5F5C87FCAD10134A4B2F02C4F
:1068800001D00025C4E727B10C4803A9EDF702FDAC
:1068900068B90A484FF43C4103AA05ABEDF7FCFC8C
:1068A000002814BF0920002002E00A2000E009208F
:1068B00006B0BDE8F08700BF16E00108DA3C002012
:1068C0007C300020B2300020F0B53E4A87B05168DD
:1068D000044610686B4603C39068694618602046FA
:1068E000FFF740FE3848694603AA05ABEDF7CCFC3C
:1068F000002862D1354F0546334C39464FF40072BB
:10690000204606F0A3F9204603A9EDF7C3FC06468E
:10691000002854D16B080135FE20314640F20A525E
:1069200003F00303EDB2FEF761FD202D07F50077BC
:10693000E2D131464FF40072204606F02FFA244B84
:1069400004F12000224619461D8A15809D8C558031
:106950001D8F9580B3F84C505033D5800832824259
:10696000F2D1B1F8A0311B4A2384B1F8B451658447
:10697000B1F93830184DD25CA5F12800A284174A2D
:1069800032F81320E284B1F98830154A03A9D25CA9
:106990002285144A32F813206A80EDF77BFC70B927
:1069A000A5F128004FF4844103AA05ABEDF774FC70
:1069B000002814BF0920002002E00A2000E009207E
:1069C00007B0F0BD22E00108DA3C00200C4F0020A7
:1069D0004831002090480020023D0020E23800208D
:1069E0009A480020F63800202DE9F0475C4A88B02C
:1069F00051680746106801AB03C390685949186095
:106A0000594C00234AF655228DF8103001F50660E6
:106A100001F50463A1F840280A330A3022462546CE
:106A2000168A23F8086CB2F824E023F806EC168FD7
:106A300023F8046CB2F84CE0503223F802EC08332F
:106A40008342EDD1B5F8A021B5F8B431A1F86228A0
:106A5000A1F864384548464B46490022464EDFF8C7
:106A60002CA116F802E023F808EC30F802EF23F826
:106A700006EC1AF802E0013223F804EC31F802EFD8
:106A800023F802EC0833082AE8D101A93846FFF7B9
:106A900069FD344801A905AA07ABEDF7F7FB80466D
:106AA000002859D181462F4F05A93846EDF7F0FB54
:106AB00000284FD13148394648444FF4007209F557
:106AC000007906F0C3F8B9F5804FECD1384605A936
:106AD000EDF7DEFB00283DD107F120013B461A8887
:106AE00022825A88A2849A882287DA880833A4F8F6
:106AF0004C200222A27484F8262084F83A2084F8DC
:106B00004E2050348B42EAD13B8CA5F8A031798CD1
:106B100085F8A221A5F8B41185F8B621BA8CB5F98B
:106B200038301749F254FE8C164A22F813603A8D19
:106B3000B5F988300AF803204988134A22F813105F
:106B400095F85231012143F00203A5F8501185F860
:106B5000523101E04FF00808404608B0BDE8F08728
:106B600022E00108DA3C002048310020E038002013
:106B700048450020F4380020904800200C4F0020A9
:106B8000023D0020E2380020F63800209A4800201C
:106B900028484AF65523B0F8402870B59A4247D1A4
:106BA000254B00F5046200F506650A320A351C46DD
:106BB00032F8081C198232F8061C998432F8041C39
:106BC000198732F8021C0832A3F84C10022199747C
:106BD00083F8261083F83A1083F84E105033AA42F7
:106BE000E6D1B0F86238B0F86458A4F8A03184F85F
:106BF000A21184F8B611A4F8B451104B104C1149ED
:106C0000002233F8086C104D565533F8065C24F812
:106C1000025F33F8046C0D4D565533F8025C0132B7
:106C20000833082A21F8025FEBD10021A0F84018B0
:106C300070BD00BFDA3C00204831002048450020EC
:106C4000E0380020F4380020904800209A480020C6
:106C50000E4B10B5502404FB0033B3F938000C4B35
:106C6000463C04FB0034002305E0212808BF01381E
:106C7000C8540133DBB214F8010B0028F5D12C24E1
:106C8000CC54C91801334870137010BD483100202E
:106C9000184600202DE9F047A84A8AB051680446FA
:106CA000106801AB03C3906801A918602046A44C8A
:106CB000FFF758FC204601A904AA06ABEDF7E4FA59
:106CC000002840F034819F4BE11D1A6822609A88A9
:106CD0009B79A280A3710DF12702FFF7B9FF9A4BB0
:106CE0009DF827101868CD1D605198889B7962190E
:106CF0000E319080937161180DF127020120FFF78A
:106D0000A7FF9DF82780914B08F10708A84404EBE2
:106D1000080203F10C0153F8040B8B4242F8040BF8
:106D2000F9D119888A4E9B781180937008F10F0869
:106D300006F580490025874B8748B3F9381056F887
:106D4000042B30F8110002F0FF024243834802F5A1
:106D50000072415601EB922211B2002903DDFF2996
:106D600002DDFF2200E000228DF82020B3F9880028
:106D70007B4A32F8101056F8042C02F47F4779430E
:106D8000784F090A385601F5007100EB912108B2DD
:106D9000002803DDFF2802DDFF2100E000218DF83F
:106DA000211012F4803F0EBFB3F8EC1093F8EC10F2
:106DB00014318DF8221012F4003F0EBFB3F83C31AD
:106DC00093F83C3114338DF82330002708ABD95D9C
:106DD00007A800F07DFC002321E00AAAD31813F8CD
:106DE0000C3C13B304F8083008F10108B8F5007F33
:106DF00012D3534804A9EDF74DFA8046002840F01D
:106E000098806B08FE200135414640F20A5203F09B
:106E10000303EDB2FEF7EAFA9DF8273001338DF84F
:106E200027309DF82730022BD7D92C2304F80830BF
:106E300008F10108B8F5007F11D3414804A9EDF726
:106E400029FA8046002874D16B08FE20013541469E
:106E500040F20A5203F00303EDB2FEF7C7FA01371E
:106E6000042FB3D108F101070D23B7F5007FAA461F
:106E700004F8083012D1324804A9EDF70BFA07469E
:106E8000002856D14FEA5A030135FE20394640F218
:106E90000A5203F00303EDB2FEF7A8FA07F1010866
:106EA0000A23B8F5007FE35512D1254804A9EDF770
:106EB000F1F9074600283CD16B08FE20394640F224
:106EC0000A5203F00303FEF791FA0135EDB2B8461A
:106ED0004E457FF430AFB8F1000F1DD00D2304F8FC
:106EE000083008F10108033B08F1010204F80830FA
:106EF000A0180021C2F5007205F050FF04A9104847
:106F0000EDF7C8F90146A0B96B08FE2040F20A521D
:106F100003F00303FEF76AFA0948690204AA06AB04
:106F2000EDF7BAF9002814BF0920002002E00A207A
:106F300000E009200AB0BDE8F08700BF4FE001087B
:106F4000DA3C00202EE0010836E001083EE00108AE
:106F50000C4F002048310020E238002090480020EB
:106F6000F63800209A4800202DE9F04387B0EDF76D
:106F700065F90146684600F048FC57238DF8083053
:106F8000073B8DF80930614C04338DF80A30543BCF
:106F90008DF80B302046694603AA05ABEDF776F96C
:106FA00026460546002840F0AC80204603A9EDF7B0
:106FB0006FF9002840F0A080218801F0FF03062B24
:106FC00002D0162B40F09A800022CCB21346B05C5F
:106FD00001321B18B2F5007FDBB2F8D1002B40F074
:106FE0008F804B4A090A117048490A4632F8020F4D
:106FF000484E98559F190233000A0E2B7870F5D130
:10700000454B424A03F58260168A1E82578A9F8446
:10701000968A1E87D78A0832A3F84C705033834271
:10702000F2D13A4A00233D48B2F8786018180C3380
:1070300046710232360A6C2B0671F4D10020384AB0
:107040000346B1F88A80374F374E5FFA88FC162C1A
:107050004FEA182803F807C0C14603F8068006D196
:10706000ACF1320C03F807C0A9F132079F55B1F813
:107070008C702E4E162C3752B1F88E702C4E375223
:10708000B1F890802B4F2C4E5FFA88FC4FEA1828FD
:1070900003F807C0C14603F8068006D1ACF1320CF4
:1070A00003F807C0A9F132079F55023001330831B8
:1070B0001428C6D1B2F85010204B1980B2F8526093
:1070C0009E80B2F854101E4B1970B2F856301D490C
:1070D0000B701D491B0A0B70B2F858301B490B701E
:1070E0001B491B0A0B70B2F85A101A4B1970B2F8F0
:1070F0005C20194B1A7004E0082502E0052500E029
:107100000625284607B0BDE8F08300BFDA3C002022
:10711000FA4500200A46002048310020DC300020DB
:10712000643D0020904800209A480020E23800206A
:10713000F6380020E8470020F24700206C3000209D
:10714000EC450020E0450020D2300020E74500203B
:107150001C9300201639002017390020F0B589B0A3
:10716000EDF76CF8014601A800F04FFB57238DF8AE
:107170000C30073B8DF80D3004338DF80E30764817
:1071800001A904AA06ABEDF781F8734C18B10428E5
:1071900040F0DF802DE04223BDF810008DF80C3068
:1071A000013B8DF80D300A33ADF81C008DF80E3020
:1071B000204601A904AA06ABEDF766F8002840F0C6
:1071C000C680204607A9EDF763F8002840F0BD808F
:1071D000204604A9EDF75EF8002840F0BA8020466A
:1071E0004FF4007104AA06ABEDF756F8002840F002
:1071F000B08057238DF80C30574D073B8DF80D307C
:1072000004338DF80E30284601A904AA06ABEDF729
:107210003BF80646002840F09A80284631464FF455
:10722000007205F0BBFD4D4B1B781B0206332B8013
:107230002B464B4AB1184878B15C0002023642181E
:107240000E2E23F8022FF4D1464B434A03F58261F8
:107250001E8A1682988C50821E8F9682B3F84C003C
:107260005033D08208328B42F2D13B4A00233E4950
:1072700059180E794879360231180C33A2F8781073
:1072800002326C2BF3D1394B39483A4900223A4E3D
:10729000975D3A4E96573602BE19A5F88A6030F8C7
:1072A000026BA5F88C6031F8026FA5F88E60344E41
:1072B000975D344E965701323602BE19A5F890609C
:1072C00008350A2AE3D1304A30491088A3F8500023
:1072D0009288A3F852202E4A1278A3F854202D4AFF
:1072E0000978127812025218A3F856202A4A2B491C
:1072F0001278097812025218A3F85820284A1278F6
:10730000A3F85A20274A1278A3F85C2000231A46D3
:10731000E15C0133521840F2FF118B420E4DD2B2A4
:10732000F6D15242284604A985F8FF21ECF7B2FFB6
:1073300078B928464FF4007104AA06ABECF7ACFF0D
:10734000002814BF0920002004E0082002E00A20E1
:1073500000E0092009B0F0BDDA3C0020FA45002029
:107360000A46002048310020DC300020643D002027
:10737000E2380020F4380020904800209A4800208D
:10738000E8470020F24700206C300020E045002054
:10739000EC450020D23000201C930020E74500205F
:1073A0001639002017390020034609B905E0584373
:1073B0000139C9B20029FAD1704701207047034B47
:1073C00018801A8892B2002AFBD17047C845002065
:1073D0002DE9F74FB1F1004F15460C461F469DF8B9
:1073E00030B012781CD10346202103F8011B0E3166
:1073F0005C1C41703B4601E020214170013BDBB247
:107400000130002BF8D1791EC9B2752A04EB0103B3
:1074100004D1032F02D1553A625401330022E2E035
:10742000BBF1000F1AD1002900F1010306DD4FF076
:107430002B0980F800900E46184612E006D04FF057
:107440002D0980F800904E4218460AE03021017064
:1074500018462E2303702646A14602E00E464FF042
:107460000009B6460521002308E001334FF00A0C5D
:10747000BB42C8BF0CFB01F19EFBFCFEBEF1090F35
:10748000F3DCBB42A8BF761831464FF0000804E099
:107490004FF00A0E91FBFEF19846092908F101030D
:1074A000F6DC032F4FF0030A0BD998FBFAF893FB95
:1074B000FAFA0AEB4A0AB3EB0A0A08BF4FF0030ACA
:1074C00005E093FBFAF808EB480ACAEB030AC31974
:1074D00039460A2000920193FFF766FF009A019B4C
:1074E00002E00A2196FBF1F68642FAD2002104E07E
:1074F00015F8010B0028FBD101314145F8DB3E496D
:10750000B1F90412022909DC752A07D1032F05D12C
:10751000294611F8010B0D460028FAD119462878A2
:1075200001F8010F15F8010B0028F8D1394615E0D4
:107530000A2596FBF5F005FB106501393035BBF1E6
:10754000020FC9B203F80159064607D0B8F1000F7F
:1075500004DD8A4502D12E2003F801090029E7D174
:10756000BBF1020F09D0BBF1000F3ED0B8F1000F04
:107570002AD12E315970023125E0B8F1000F23D104
:10758000202103F801191FE0187830281CD0752A33
:1075900004D1032F02D1453A1A7019E00020D871A6
:1075A0005879987118795871D87818719878D87076
:1075B0002E2098700230B9F12D0F087002D183F897
:1075C000009001E02B211970752A13D1032F11D1DE
:1075D0001A782B2A01D10B3A1A70632C0ADC30225C
:1075E00003F8012C023A1A7004E05878591C2E282E
:1075F000EAD1C9E7BDE8FE8F4831002070B51B4BCA
:1076000086B005460C4601AA03F1100618685968B1
:107610000833B34203C2F9D11B781370A5F161039B
:10762000DBB2192B01D8203DEDB2A4F16103DBB22E
:10763000192B01D8203CE4B200230DF103021846B7
:1076400012F8011FA94204BF1818C0B21033DBB2F0
:10765000002BF5D101A9C95CDAB2A14204BF101810
:10766000C0B20133102BF5D106B070BD6EE3010836
:1076700042F2107230B5B1FBF2F4034604F130056A
:1076800003F8015B02FB14154FF47A72ADB2B5FB3F
:10769000F2F101F13004447002FB1150642280B217
:1076A000B0FBF2F502FB150005F13001597080B214
:1076B0000A21B0FBF1F202F1300501FB12025C1C61
:1076C0003032023365705A7002340023637030BD6B
:1076D000642230B5B1FBF2F5034605F1300403F83E
:1076E000014B02FB15140A21E4B2B4FBF1F202F1E2
:1076F000300501FB124230324570581C5A7000238D
:10770000437030BD002930B500F1010202DB2B23AC
:10771000037003E02D234942037049B2642491FBB6
:10772000F4F004FB1011134600F1300549B22E208D
:107730005A3C03F8015B507091FBF4F004FB10110C
:1077400000F13005303100225D709970DA7030BD83
:107750006423B1FBF3F202FB131370B5DBB20A260C
:10776000B3FBF6F506FB15330446303305F1300262
:1077700004F8012B43700023637070BD9F294FEA0A
:10778000111200F1010301D9373200E0303201F06B
:107790000F010929027003F1010201D9373100E01C
:1077A00030311970002313707047B1F5204F4FEA44
:1077B000113200F1010301D3373200E03032090504
:1077C000090DB1F5206F02704FEA112003F101029B
:1077D00001D3373000E03030C9B29F2918704FEA2A
:1077E000111002F1010301D9373000E0303001F00F
:1077F0000F010929107003F1010201D9373100E0AE
:1078000030311970002313707047B1F1204F4FEAE7
:10781000117200F1010301D3373200E0303221F060
:107820007041B1F1206F02704FEA116003F1010263
:1078300001D3373000E0303021F07F41B1F5200F27
:1078400018704FEA115002F1010301D3373000E004
:10785000303021F07F4121F47001B1F5202F1070FC
:107860004FEA114003F1010201D3373000E030301C
:1078700009041870080CB0F5204F4FEA117102F19D
:10788000010301D3373100E0303100051170020DE2
:10789000B2F5206F4FEA107003F1010101D33730C8
:1078A00000E0303002F0FF029F2A18704FEA1210F9
:1078B00001F1010301D9373000E0303002F00F024E
:1078C000092A087003F1010101D9373200E0303292
:1078D0001A7000230B70704710B54FF4004310214D
:1078E0001A4603FB03F4844288BF5340520801390F
:1078F00001D1184610BD1343F3E770B50420ECF72F
:10790000A9FC464DC243298892B294B289B224EAB6
:1079100001018BB2002B34D041481E24047013F0B7
:10792000080018BF092003F04004002C18BF0A20EB
:1079300003F48074002C18BF032003F40074002C9F
:1079400018BF042003F48064002C18BF052003F442
:107950000064002C18BF062003F48054002C18BFCC
:10796000072003F40054002C18BF022003F48043C6
:10797000002B18BF012009B230EA210028BF0820DF
:107980003DE0288810403AD025490878002835D1B4
:10799000244B1978002932D133E0234909780A2988
:1079A0001DD8DFE801F0161616161C0911060F1C6B
:1079B0000F001E49C97909E01C4949790239C9B249
:1079C00001290CD802210BE018498979022906D136
:1079D00006E0164E715C032901D1013900E0052152
:1079E000197012F0080F02D005211970092014F443
:1079F000004F04D005211970082000E018462A80A5
:107A000070BD12F4806018BF052002F400610029E7
:107A100018BF062012F4406FE3D0BEE7DC4500201B
:107A2000D8450020D9450020FA4500200A4600200C
:107A3000104B0022011E10B5DA7715D001DA494249
:107A400001320D4B18460A2391FBF3F403FB14118A
:107A50000A4B5B5C21460370431E002CF2D13AB105
:107A600018462D23037010BD1846302300F81E3F22
:107A700010BD00BF9E450020BC4500205CE0010811
:107A80002DE9F04F002491B002F1FF3C0F4606466D
:107A900023461CE015466D1005EB0308E045FADCB3
:107AA00005F1FF3808EA03035B19A3420DDD758871
:107AB00030F81380A6F8028020F813507D8831F842
:107AC0001390A7F8029021F81350023602370134C0
:107AD0006445DFDD4FF0080ACDF818A001240D90B1
:107AE0000E91B9E00E9B610003930D9B002004935F
:107AF000A8E0DDF818805B4B00FA08F503EB4506BB
:107B0000738AB6F912515B42DDF81090DDF80CA0D3
:107B10001BB26D1067005B104FF0000B0B9509EB6B
:107B2000070C0C934FEA4108574456464D46CDF892
:107B30001CB00F946EE00B9B1BB208934B005B4292
:107B40003CF90340DDF820A0099404FB0AF90C9CE1
:107B50004FEAA93BCDF804B037F903B024B20A9438
:107B60000BFB04F44FEAA43ACDF814A0DDF804A00E
:107B70000AF0010ACDF804A00AEBE939DDF814A0F7
:107B80001FFA89F9A9EBE4390AF00104C4EB0904EE
:107B9000A4B20594089CDDF824A00BFB04FB4FEA7B
:107BA000AB39CDF82090DDF828900AFB09F44FEAB4
:107BB000A43ACDF824A0DDF820A00AF0010909EBD1
:107BC000EB391FFA89F909EBE439F45ADDF824B0EE
:107BD0000894EC5E0BF0010A6410DDF814B0A4B256
:107BE000D144CBEB040A2CF803A0DDF820A01FFA47
:107BF00089F90FFA8AFB4FEA6B0B1FFA8BFBC9EB73
:107C00000B0A27F803A0DDF814A0D9445444EC5221
:107C100026F80390DDF81CB0431A8B445B44934272
:107C2000CDF81CB0C44447444544464483DB049B20
:107C3000DDF80C80023308F102080F9C0130049338
:107C4000CDF80C80A042FFF654AFDDF818900C463A
:107C500009F1FF39CDF818909442FFF643AF11B007
:107C6000BDE8F08F5CE001087047FEE7FEE7FEE745
:107C7000FEE770477047704770477047704770471E
:107C8000704770477047704770477047704770473C
:107C9000704770477047704770477047704770472C
:107CA000ECF7AEBAECF7AEBA704770477047704762
:107CB000704770477047704738B513200021ECF7C4
:107CC000C5FA384B1A781C461AB11A78013A1A705C
:107CD00038BD14232370636813B16368013B63608C
:107CE0002289304B92B2142A02D91A89143A00E040
:107CF00000221A8162892B4B92B2132A03D95A8926
:107D0000143A5A8103E003200021ECF79FFA237B09
:107D1000244D312B03D82B7B01332B730EE0002332
:107D2000042001212B73ECF791FAEB890133EB81ED
:107D30002B8A9BB213B12B8A013B2B82A27C194B5D
:107D40000132A274A27C0E2A09D900229A74DA7C2C
:107D5000D2F1010238BF0022DA7401221A75E28AD8
:107D6000104B92B212B1DA8A013ADA82227E0D4BBE
:107D700012B11A7E013A1A76627E0A4B12B15A7E0D
:107D8000013A5A76FFF7B9FD58B1074BA076B3F91F
:107D9000E4130320013901EB8101ECF757FA3C238E
:107DA000638138BDC04500204831002070477047CE
:107DB000704770477047704770477047704770470B
:107DC00070477047704770477047704770477047FB
:107DD00070477047704770477047704770477047EB
:107DE000704770477047704714490B78A3F10D0234
:107DF000D2B2082A03D90B2B01D00C2B0ED1104A7A
:107E0000D05C50225A43142303FB00230D4A9B18D5
:107E10009A7842F002029A7000230B700A4B0022FB
:107E20001A700A4B40F28D1018800B78082B04D181
:107E3000034B197A022908BF1A727047FA450020CD
:107E40000A46002058310020E04500201239002069
:107E500010B5344CB4F82833B4F9302319B263396F
:107E6000914202DC643BA4F83033B4F83C33B4F9FB
:107E7000442319B26339914203DC2A4A643BA2F8D5
:107E80004433FEF71BFA284A01231370274A40F2B5
:107E900037111180264A1370264B03F16C02D97AF0
:107EA00041F00201D9720C339342F8D194F8BA32FE
:107EB00043F0020384F8BA3294F85A3343F00203D1
:107EC00084F85A3394F8CE3243F0020384F8CE3269
:107ED00094F86E3343F0020384F86E3394F88233DF
:107EE00043F0020384F8823394F8D23343F0020360
:107EF00084F8D23394F8963343F0020384F896332F
:107F000094F8E63343F0020384F8E63301F04CFEC4
:107F1000002420460134E4B201F092FE092CF8D18D
:107F200010BD00BF48310020E0450020123900207C
:107F3000D2380020DC3000202DE9F04F4FF00060F7
:107F40008BB08B4904F092F9ECF790F90B20ECF729
:107F500081F9034640B9874A302000921E2140F241
:107F6000FF72ECF771F9FEE7834B32214FF6FF7297
:107F7000009320200023ECF767F90720ECF76AF95B
:107F80007E4B18600820ECF765F97D4B18600920DE
:107F9000ECF760F97B4B18600A20ECF75BF97A4B41
:107FA000186002F013FDFEF7DFFF034630B9774A91
:107FB000302000921E214FF4FC6206E0744B30200A
:107FC00000931E2140F2FF720023ECF73DF9714B44
:107FD0004FF4FA701880FCF7ABF802F0E3FD6E4D39
:107FE0006E4B00221A702A786D4C012A98466D4B10
:107FF0000BBF40F2371140F28D1219801A80B4F88D
:10800000F031B4F89CE06B70B4F84C30EA796B80D6
:10801000654B002718889988A5F804E00890099115
:10802000AA7104970697079705979946B4F9F03116
:108030006A78DFF86CA19342574E4CD0052B28D1BB
:1080400002F076FD7378042B06D8BAF84C20BAF803
:108050009CA07280A6F804A0544A87211170544A4B
:108060006423A4F84C30A4F89C3013702B782B7246
:108070000BB9FFF7EDFEB9F80030B9F804E008934A
:10808000EB790020AB710223CDF824E0EB71049072
:108090000690B4F9F021424B042A1CDC6A783E4E6B
:1080A000042A18D97188B288A3F84C10A3F89C2030
:1080B00002F03EFD337A0BB9FFF796FE6A78364B35
:1080C000052A08D1DDF820E009989A79A9F800E09E
:1080D000A9F80400DA71B4F8F021314B052A6A706E
:1080E00005D172216422A3F84C10A3F89C20B4F8A7
:1080F0004032697A18B28842274A12D0981E80B25C
:1081000001282C4806D801299CBFD17991710222FF
:10811000EA7103E0012984BF9179D1716B72012367
:108120000370B4F80031A3F10B0292B2012A02D815
:108130000123AB7207E000220A2BAA7203D1164B6F
:108140000132DA7201E00023EB720520ECF782F8CD
:10815000194E10B14FF416733380318889B269BB60
:108160000220ECF773F814200121ECF76FF826E1F8
:1081700000400108B6E30108DCE301086097002035
:10818000FC470020649700206897002001E4010864
:1081900028E40108CA450020E0450020DA45002017
:1081A00048310020123900206C30002016390020A0
:1081B00017390020D2380020D045002003F016FDEA
:1081C0003C4B1B889BB2BBB194F85A3343F002037B
:1081D00084F85A3394F8BA3243F0020384F8BA327E
:1081E00094F8CE3243F0020384F8CE3294F86E3322
:1081F00043F0020384F86E33DDF814E007980EF1C3
:1082000001039BB205932C4B1A8892B290421AD06C
:108210001B8805999BB20793284B198002F018FC24
:108220002B78012B0DD14FF0000A5FFA8AF00AF18A
:10823000010A01F005FDBAF1090FF6D100220592FD
:1082400001E0002305932B78012B01D101F0ACFC58
:1082500002F0C0F8EB7943B3B4F8F031DFF864A072
:108260001BB31BB2012B22D0042B20D00220EBF732
:10827000F1FF8346D8B9BAF90422114B013733F81C
:108280001230BFB2BB4220D2BAF84CE0BAF89C0020
:10829000A9F800E0A9F8040002F03CFEBAF9F031B8
:1082A000052B11D0FDF7D2FD0EE01F460DE0002793
:1082B0000BE000BFD6450020CE4500200846002038
:1082C00080E30108483100205F46DFF894A29AF865
:1082D0000030002B70D0EB795BB9B4F8402295499F
:1082E00002F5A062009140F26D10D82192B2FDF724
:1082F000B9F8EB79012B0BD1B4F840228E4902F585
:10830000A062009140F26D10D82192B2FDF7AAF858
:10831000EB79022B0CD1B4F84022884B02F5A06215
:10832000009340F26D10D82192B20123FDF79AF824
:10833000EB79032B0CD1B4F84022814B02F5A062FB
:10834000009340F26D10D82192B20123FDF78AF814
:1083500002F076FC02F0D0FC02F000FD02F0DAFD43
:10836000B4F9F031052B01D0FDF770FDB4F9943369
:108370000A21013359430220EBF768FF714B1B7848
:10838000092B01D0FDF7CEFE2B78012B11D194F8EB
:10839000BA3243F0020384F8BA3294F8CE3243F092
:1083A000020384F8CE3294F86E3343F0020384F86B
:1083B0006E3300238AF80030634B00221A70B4F940
:1083C0005031012B10D10320EBF744FF18B90230D4
:1083D000EBF740FF40B994F85231022143F0020319
:1083E000A4F8501184F85231EB79002B62D0B4F923
:1083F000F031564A002B5DD0524B1B78072B0BD126
:10840000534BD979022907D192F86A1241F002013F
:1084100082F86A120022DA71B4F940320BBB4D4B7C
:108420004D491A88494B4D48B3F93830B0F900002E
:10843000C956EB79891812B25B00821A5A4348BFB9
:10844000073201EBE201069A89B2531D994202DC20
:10845000531F994205DA424B0122A9F800101A7005
:108460000691B4F94032012B24D13E4B3E491A8883
:10847000364B3E48B3F98830B0F90000C956EB7965
:10848000891812B25B00821A5A43DDF810E048BF27
:10849000073201EBE20189B20EF10503994203DCD8
:1084A000AEF10503994205DA2D4B0122A9F804101B
:1084B0001A7004912B7B2E4A012B1ED1B4F8F021A7
:1084C000224B5AB9B3F90412092903DD9620A3F807
:1084D000180201E0A3F8182201230BE0042A02D0BD
:1084E0000022A3F81822B4F904321D2B01DC022368
:1084F0004EE000231F490B704CE0B4F8F0311349F3
:1085000073B9B1F9040209280ADD537B002B3ED16F
:108510009623A1F81832124901230B70537336E0E9
:108520006A7B012A28D10BB9A4F8183200236B7397
:108530002AE000BF4FE4010855E401085BE40108AC
:1085400061E40108FA450020D445002048310020AC
:108550000A460020F44E002090480020F04E0020F3
:10856000D2380020F64E00209A480020F24E00201B
:10857000E0450020D44E00204BB9B4F91822002A5F
:1085800005DDA74AA2F81832A64B01221A70002373
:10859000A548037098F80030002B3FF447AD3388AE
:1085A0009BB20BB902F0FEFA4FF416719C4A31806F
:1085B0000026B2F91030E3B9B5F90E10B14204BF8C
:1085C0009A49CB819A49012331F9020FB0420CD16B
:1085D000184605EB400E013805EB400CBCF80EC008
:1085E000C0B2AEF80EC00028F3D10133DBB2042BC9
:1085F000EAD101365032042EDBD198F80030012B3D
:1086000040F00181DFF838A24FF4FA72AAF8002096
:10861000D34641E00420EBF71DFE10F4804F3BD021
:1086200094F8523143F0020384F85231814B1B78A5
:10863000092B06D17A4BB3F90833022B01D1FEF78F
:10864000A7FAB4F9F031042B10D1754BB3F95031BE
:10865000002B07DD0026784B0022F2540136B6F5D8
:10866000C46FF8D106200121EBF7F0FDB4F95031C9
:10867000B4F9F021D3F1010338BF0023042AA4F890
:1086800050310ED06BB91E466B4B0022F2540136AE
:10869000B6F5C46FF8D104E0BBF800309BB2002BF4
:1086A000B8D1BAF800C01FFA8CFCBCF1000F40F042
:1086B000AA80604A4FF0500A1078604B0AFB00FA1B
:1086C00013F800E04FF0140B0BFB0EAAA2449AF82B
:1086D00012B053494BF0020B8AF812B010B10128C6
:1086E0004AD12BE0BEF1020F0CD10120107083F8AB
:1086F00001E0B1F960E0BEF1000F01D1A1F8600026
:1087000002210AE0107002201870B1F9100018B9A7
:108710004FF0010EA1F810E00121A97511784FF07A
:10872000500E585C0EFB01F1AEF13C0E0EFB001139
:108730006118887C40F0030088741DE0BEF1020FD0
:108740000CD182F800C083F800E0B1F910E0BEF16E
:10875000000F00D108820121A9750DE04FF0020E33
:10876000107083F801E0B1F960C0BCF1000F01D1D5
:10877000A1F8600085F816E01178DFF8B8E001296B
:108780002BD9208AB4F9601030B161B98EF800108D
:108790000231197001391FE029B101218EF8001052
:1087A0004918597018E0A97D012902D9022914D16C
:1087B00008E0002111700231197008B901202082EF
:1087C000012109E0012010705970B4F9601011B94D
:1087D0001349A1F860000221A975A17C41F00201B2
:1087E000A17494F8621041F0020184F862101278CA
:1087F00050219B5C4A433C3901FB0322A218937C25
:1088000043F00303937498F80030022B40F09F80EC
:10881000DFF82CA040F6B831AAF80010D3464CE09F
:1088200048310020D2380020D44E0020E0450020FE
:10883000EE450020FA450020A44800200A4600200A
:10884000C84500200420EBF705FD10F4005F34D08C
:10885000B4F84032023B9BB2012B63D98D4B8E4A58
:108860001B781421D05C50225A4301FB00228B4913
:10887000DFF82CE28A18917C41F002019174EA79C8
:1088800032B94FF0020C8EF807C00492069202E053
:1088900001328EF80720EA79032A04D9804A4FF082
:1088A000010E82F807E0502253433C3A02FB0033AA
:1088B00041F00201E318997434E0BBF8002040F65F
:1088C000C41392B29A42BDD82CE00420EBF7C2FC4C
:1088D00010F4005F26D0B4F84032023B9BB2012B6B
:1088E0002BD96C4A6C4B11784FF0500E585C0EFB34
:1088F00001F1AEF13C0E0EFB001168484118887C76
:1089000040F002008874E97911B165490020C8710E
:10891000072111700222DA7194F86A32134384F845
:108920006A320AE0BBF800309BB233B15D4B1A8863
:1089300040F6C41392B29A42C7D9BAF800309BB23B
:108940002BB9544B1878012801D8FBF78FFC98F805
:108950000030032B48D1534B40F2DC521A809B4627
:10896000B2463BE00420EBF775FC10F4807F0DD09D
:108970002B785646012B06D1B4F9F031052B33D0B4
:10898000FFF732FA30E0FFF763FA2DE0454B1B8822
:108990009BB21BBBFEF7E2FB3E4B1B78092B1DD0A5
:1089A0000226414B002140F2054200935B200B461A
:1089B000FCF758FD4FF49670FEF701FD3B4B00218C
:1089C00000935B2040F205420B46013EFCF74AFD56
:1089D000F6B2C820FEF7F3FC002EE2D1BBF800305F
:1089E0009BB2002BBED1564698F80030042B40F0C5
:1089F0001E81DFF8B0A04FF4FA73AAF80030D34616
:108A0000EAE00420EBF726FC10F4007F00F0E4809D
:108A100020494FF0500E0A781F4B0EFB02FE985C67
:108A20004FF0140C0CFB00EEA6449EF812C0022A74
:108A30004CF0020C8EF812C001D100B99A540A7899
:108A4000032A04D1DA7812B9134A0220D0702A78A6
:108A500032B90878082803D1187A012800F0AD80CF
:108A60000A780C2A00F28D804FF0500C0CFB02FCAF
:108A7000985C4FF0140B0BFB00CCA4449CF812B094
:108A800002284BF0020BDFF810E08CF812B00FD880
:108A900001300EE0FA4500200A460020483100204F
:108AA000E0450020C845002067E4010828D10108FE
:108AB0000020052A0EF8020009D1B4F9A021042AE9
:108AC00005D15A79032A02D1404A002050710A7810
:108AD000052A09D1B4F9A021042A05D05A79022A1D
:108AE00002D13A4A032050710A785020504313F8BB
:108AF00002E04FF0140C0CFB0E00201890F90A0055
:108B0000002804DA31484FF0000E00F802E050204F
:108B1000504313F802E04FF0140C0CFB0E00201829
:108B2000807A10F0010F04D028484FF0000E00F8B2
:108B300002E04FF0500E0EFB02FE13F802C04FF0A1
:108B4000140B0BFB0CEE224886449EF80AE01EF044
:108B5000020F09D0092A07D0052A05D0DFF86CE0FA
:108B60004FF0000C0EF802C00A7850219B5C4A437B
:108B70003C3901FB03228018837C43F0010383749A
:108B800030E014480D3A0C2101FB020393F804E095
:108B900001FB020293F80BC0BEF1030F9CBF0EF164
:108BA000010E83F804E04CF0020C83F80BC013793B
:108BB000032B17D90023137114E094F8A63243F065
:108BC000020384F8A632014B1A720BE00A46002019
:108BD00048310020DC300020BBF800309BB2002B75
:108BE0007FF40FAFBAF800309BB203BB9A49502014
:108BF0000B789A4A584312F803E04FF0140C0CFB20
:108C00000E00201890F812E04EF0020E80F812E0EC
:108C10000BB1012B01D10133AB7506230B70053B62
:108C2000937194F8063243F0030384F8063298F8FF
:108C30000030052B40F0BB81B4F9F031DFF818A209
:108C4000052B1AD19AF800304BB9844B1B78032BB3
:108C500005D1834B1A782D2A01D9023A1A709AF855
:108C60000030012B09D17D4B5B78032B05D17D4B67
:108C70001A781E2A01D9023A1A709AF800300A2B83
:108C800003D0082B06D12B7823B9774B4FF0960EE3
:108C9000A3F800E09AF800200C2A00F26281032A6F
:108CA00013D16E4BDB7883B9B4F900116F4B61B906
:108CB000287B6F4A012808D11173B3F9F01111B163
:108CC000128BA3F81822FDF72DFA9AF80030032B27
:108CD00008D1624BDB782BB9B4F900310B2B01D1F1
:108CE000FCF7F6FF0026B3463B469AF800705F4556
:108CF00048D15A4A12F80B10002943D1502000FBEA
:108D00000B40B0F91000594A01283BD1B2F940029A
:108D1000574E584518D1B08AB6F812E0A2F8400272
:108D2000A6F814E0308AB6F80EE0F18102317082C4
:108D3000A6F810E082F8421282F8561282F86A12FF
:108D4000039302F0E7F8039BB6F90E20BA4202D172
:108D5000474A0020D0814749012231F9020FB84229
:108D60000CD1104606EB400E013806EB400CBCF867
:108D70000EC0C0B2AEF80EC00028F3D10132D2B29C
:108D8000042AEAD10BF1010BBBF1040FADD19AF823
:108D900000201F46072A5E46344B0FD12F49C97960
:108DA00002290BD1B4F9402239F8221008B2112857
:108DB0006ADD3148013920F8221065E0A2F10B018B
:108DC000C9B2012909D8502101FB0242918C08B295
:108DD000002859DD0139918456E0062A1F491DD12A
:108DE0008A79022A20D1224A127B1AB1B3F9F021E2
:108DF000042A19D1B3F818221C4910B21E2801DD2B
:108E00001E3A02E0002802DD013AA1F8182293F888
:108E10002E2242F0020283F82E2235E022B90A788F
:108E200012B9134A012090759AF80020012A04D142
:108E30004A7812B90E4A022090759AF80000502222
:108E4000095C50433C3A02FB01029A18118A08B2AD
:108E5000002813DD013916E0FA4500200A460020FB
:108E60001639002017390020D6450020483100204F
:108E7000E0450020EE4500206C300020917A11F092
:108E8000100F01D0118911829AF80020062A22D1F0
:108E9000A54A9279FAB9B3F9F0213AB9A348027810
:108EA00022B9A349A34AB1F818121183B3F9F021EA
:108EB000052A07D19D490A7822B99E499C4A098B07
:108EC000A2F818120022A3F8502193F8522142F080
:108ED000020283F852219AF80020052A0ED1B3F934
:108EE000A011934A042909D0052907D0B2F9B41179
:108EF0000E29C4BF4FF00E0EA2F8B4E19AF800207C
:108F0000092A12D1B3F9E012894A01290DD1B2F927
:108F1000081311B90220A2F80803B3F90823032AA1
:108F200003D1834A0221A2F808139AF800205021A5
:108F300001FB0233997C93F84E2041F002019974B1
:108F400093F8261042F0020241F0020183F8261045
:108F500093F83A1083F84E2041F0020183F83A105A
:108F600025E075480D3A0C2101FB020393F80BC074
:108F700093F805E04CF0020C83F80BC0BEF1000F33
:108F800002D00EF1FF3E01E04FF00B0E01FB02019B
:108F900083F805E04B79012B01D103330B710C23CE
:108FA00003FB020043790B2B01D10B3B037198F8B3
:108FB0000030072B40F03382DFF880A19AF80030B0
:108FC000092B00F08581DFF87CB14FF4FA72ABF821
:108FD00000205B4630E004200393EBF73BF910F4EC
:108FE000805F039B28D0002654480378B3421FD1EA
:108FF000502202FB0642B2F910204D4BC2B1B3F829
:10900000402211B2B14213D0298AB5F812E0A88AE1
:10901000AA820222A3F8406283F8422283F85622F1
:1090200083F86A22E981A5F810E0688201F072FFF6
:109030000136042ED8D103E01A8892B2002ACAD190
:10904000BBF8002092B2002A40F042812B78012B1D
:1090500040F0E9803A4B1978032909D84A1CD2B26A
:109060001A70B4F9F011052903D1012A01D00422A4
:109070001A701A78042A00F22B81DFE802F0030349
:10908000213F6D00012A02D1A4F8B82202E000239A
:10909000A4F8B832284BD97A41F00201D9720021E4
:1090A0005971043119710339D87D0131C9B240F0C9
:1090B0000200D87559741A740C330929F4D107E1E8
:1090C0001D4B1F49DA7A42F00202DA7200225A710D
:1090D00004321A71033AD87D052A40F00200D8758F
:1090E00011F8010F587401D8022000E0032001326A
:1090F000D2B218740C33092AEDD1E9E00E4B1049B5
:10910000DA7A42F00202DA7200225A7104321A71DB
:10911000033AD87D052A40F00200D87511F8010FF6
:10912000587411D8032010E00A460020D44E0020C5
:1091300048310020E0450020DC300020FA450020C6
:10914000D2300020C845002002200132D2B218746B
:109150000C33092ADDD1BBE0944AD37A02F16001D5
:1091600043F00203D3720023537104331371134687
:10917000D07D40F00200D0750C328A42F8D1B4F9AB
:10918000F0118B4A052905D0B2F9B01039BBB2F9FC
:10919000002122BB00224FF0040C4FF0030E0220EE
:1091A00007211A741A7783F8282083F834200132B3
:1091B00083F811C083F81DE083F8290083F8351087
:1091C00083F841C083F8402083F84DE083F84C20B9
:1091D00083F8590083F8582083F8651020E00020B8
:1091E000072118741877013003224FF0020E83F81C
:1091F000280083F83400401859745A7783F82910EE
:1092000083F8352083F8411083F840E083F84D005F
:1092100083F84CE083F8591083F8582083F86500F0
:1092200083F8642054E0634B197829BB01221A703B
:109230004FF0020B604B002140F2054200935B208F
:109240000B46FCF70FF94FF4C870FEF7B8F85B480F
:109250000021009040F205425B200B460BF1FF3BE2
:10926000FCF700F95FFA8BFBC820FEF7A8F8BBF10A
:10927000000FDFD1524B23E01A704FF0020B514B1D
:10928000002140F2054200935B200B46FCF7EAF810
:109290004FF4C870FEF793F848495B200091002115
:1092A00040F205420B460BF1FF3BFCF7DBF85FFA9F
:1092B0008BFBC820FEF783F8BBF1000FDFD1424BD8
:1092C00000938920D82140F205425B46FCF7CAF89A
:1092D0009AF80030092B40F0A2803C4B002100930B
:1092E000E6200B4640F20A52FCF7BCF8384B5021FE
:1092F0001B7801FB0342B2F9100088BBB2F9382099
:10930000032A24D8DFE802F00209151C01FB0341FF
:1093100091F82400FDF73CFA18E001FB034191F8B5
:109320002400FDF7D5F906464FF47A70FEF747F8AA
:109330000DE001FB034191F82400FDF7C5FA05E0BB
:1093400001FB034191F82400FDF7A4FC06469AF8BE
:109350000030502202FB03439A8C01329A8418E0B9
:10936000B2F93830012B05D192F82400FDF77BF9D2
:10937000064600E000269AF80030502202FB034324
:10938000B3F93820022A04D193F82400FDF72CFB0E
:1093900006463EB90F4BE6200093314640F20A5292
:1093A000334625E0042E19D10B4B1BE0DC300020A6
:1093B000483100201C93002083E4010828D10108D3
:1093C0009FE40108A3E40108BFE40108C2E4010826
:1093D000FA450020C8E40108CEE40108032E0CBFC2
:1093E0009F4BA04B00210093E62040F20A520B460F
:1093F000FCF738F84FF47A70FDF7E1FF9AF8003087
:10940000502202FB034393F8261093F83A2041F0D0
:10941000020142F0020283F8261083F83A2098F8FD
:109420000030062B40F01782B4F9F031DFF858A273
:10943000052B1AD19AF800304BB98B4B1B78032BB4
:1094400005D18A4B1A78D62A01D802321A709AF8B6
:109450000030012B09D1844B5B78032B05D1844B61
:109460001A78A92A01D802321A709AF800300A2B09
:1094700003D0082B04D12B7813B97E4B962018808B
:10948000EB794BB19AF80030072B05D1764BDA799E
:10949000022A01D1023ADA719AF800200C2A00F26D
:1094A000BA81032A14D1704BD97889B9B4F9002153
:1094B000714B092A0CDD287B704A012808D11173F1
:1094C000B3F9F01111B1128BA3F81822FCF72AFEA0
:1094D0009AF80030032B08D1634BDB782BB9B4F931
:1094E0000031092B01D1FCF7F3FB4FF0000B3B4699
:1094F0009AF800705F4570D15B4A12F80B20002A81
:109500006BD15D4A5D4EB2F94012594547D1BBF16E
:10951000030F39D8DFE80BF0020219214FF0500E8B
:109520000EFB0121B1F9101002292DD1B08A524948
:10953000B6F810E0A1F84002718AF089B1820021EA
:10954000A6F812E03082F1811EE04FF0500E0EFBC3
:109550000121B1F91010012906E04FF0500E0EFB69
:109560000121B1F910100D290ED1B6F814E04249CD
:10957000708AA1F840E2318AB6F80EE0B08200208D
:109580007182A6F810E0F081022182F8421282F87E
:10959000561282F86A12039301F0BCFC039BB6F9E1
:1095A0000E20BA4202D1354A0021D181344901222C
:1095B00031F9020FB8420CD1104606EB400E0138CB
:1095C00006EB400CBCF80EC0C0B2AEF80EC00028CE
:1095D000F3D10132D2B2042AEAD10BF1010BBBF173
:1095E000040F85D19AF800201F46072A224B10D17C
:1095F0001D49C97902290CD1B3F94012214A32F828
:10960000210006B2D02E00F39A80013022F821000A
:1096100095E0A2F10B01C9B201290CD8502101FB40
:109620000232918CB2F91C6008B2864240F3878006
:109630000131918483E0062A0B4933D18A79022AC9
:1096400058D1B3F818120C4A08B21D2820DDB2F91F
:109650001062A6F11E0E704518DA1E3119E000BF27
:10966000D4E40108DAE401080A4600201639002093
:1096700017390020D645002048310020E045002061
:10968000EE4500206C300020FA450020B04202DA9E
:109690000131A2F8181293F82E2242F0020283F848
:1096A0002E224CE00A2A1FD18A7A012A22D8A74901
:1096B000097801294FF0140108D101FB0232B2F8F8
:1096C0003013B2F928030EB2643807E001FB02320E
:1096D000B2F83013B2F928030EB20C3886422EDAF3
:1096E0000131A2F830132AE022B90A7812B9974A58
:1096F000012090759AF80020012A04D14A7812B905
:10970000924A022090759AF800005022095C50435A
:109710003C3A02FB01029A18118AB2F908E00EB233
:10972000B64502F1080002DD0131118207E08178BF
:1097300011F0100F1CBF4FF0000EA2F810E09AF8C5
:109740000020062A22D1824A9279FAB9B3F9F0218F
:109750003AB98048027822B97F497C4AB1F8181298
:109760001183B3F9F021012A07D17A490A7822B985
:109770007649794A098BA2F818120022A3F85021E1
:1097800093F8522142F0020283F852219AF8002005
:10979000052A0ED1B3F9A0116F4A042909D0052971
:1097A00007D0B2F9B4110E29C4BF4FF00E0EA2F8C3
:1097B000B4E19AF80020092A11D1B3F9E012664AFF
:1097C00001290CD1B2F9080308B9A2F80813B3F9BA
:1097D0000823032A03D1604A0120A2F808039AF85B
:1097E0000020502101FB0233997C93F84E2041F078
:1097F0000201997493F8261042F0020241F002012E
:1098000083F8261093F83A1083F84E2041F00201B5
:1098100083F83A101FE051480D3A0C2101FB020376
:1098200093F80BE05E794EF0020E0A2E83F80BE0FF
:1098300001D8013600E0002601FB02015E714B7980
:109840000BB904330B710C2303FB02004379022B89
:1098500001D1023B037198F80030092B59D1404ADD
:1098600013780C2B3CD8502039495843CE5C4FF02C
:10987000140E0EFB06002018867C46F00206867445
:1098800003B1013B13701378042B02D1344B032036
:109890001870137850225A43C95C142000FB012130
:1098A0006118887C092B40F00300887431D12A4B61
:1098B0009A18917C92F84E3041F00201917492F81E
:1098C000261043F0020341F0020182F8261092F8BC
:1098D0003A1082F84E3041F0020182F83A1018E056
:1098E0001E490C26A3F10D0006FB0010C67A0D2BB5
:1098F00046F00206C67201D1083300E0013B137046
:1099000013780C220D3B02FB0311CB7A43F00103C9
:10991000CB7298F800300A2B65D1124E4FF4FA71D1
:109920003180B2462CE00420EAF794FC10F0400F9E
:1099300026D02A7B054BBAB901321A73B4F9F0214B
:10994000DAB1054AB2F818221A8316E0E045002081
:109950000A460020D44E002048310020DC30002090
:10996000FA450020C845002000221A73B4F9F021FE
:109970001AB1874A1B8BA2F81832FCF7D3FB04E01C
:10998000BAF800309BB2002BCDD133889BB2002BAC
:1099900029D1804A804913781426C85C5021594344
:1099A00006FB00116118887C40F002008874297859
:1099B00049B9A3F10D01C9B2082912D90B2B10D056
:1099C0000C2B10D10DE00C2B01D80D230AE0734BAA
:1099D00003F16C01D87A40F00200D8720C338B424C
:1099E000F8D10023137098F80030082B5ED1694A33
:1099F00013780C2B41D8502067495843CE5C4FF068
:109A0000140E0EFB06002018867C46F002068674B3
:109A1000287808B90A2B02D00C2B18BF0133137019
:109A20001378042B02D15B4B052018701378502259
:109A30005A43C95C142000FB01216118887C092B62
:109A400040F00300887431D1514B9A18917C92F800
:109A50004E3041F00201917492F8261043F0020357
:109A600041F0020182F8261092F83A1082F84E3046
:109A700041F0020182F83A1018E048490C26A3F19F
:109A80000D0006FB0010C67A152B46F00206C672C2
:109A900001D1083B00E00133137013780C220D3B19
:109AA00002FB0311CB7A43F00103CB723C4B1B78D2
:109AB000042B64D12A78012A61D1384AD17A1371F2
:109AC00041F00201D17200215171134602F160018F
:109AD000D07D40F00200D0750C328A42F8D1B4F942
